{"contracts/EventFactory.sol":{"EventFactory":{"abi":[{"inputs":[],"stateMutability":"nonpayable","type":"constructor"},{"anonymous":false,"inputs":[{"indexed":true,"internalType":"address","name":"account","type":"address"},{"indexed":true,"internalType":"address","name":"operator","type":"address"},{"indexed":false,"internalType":"bool","name":"approved","type":"bool"}],"name":"ApprovalForAll","type":"event"},{"anonymous":false,"inputs":[{"indexed":false,"internalType":"uint256","name":"nowTime","type":"uint256"},{"indexed":false,"internalType":"uint256","name":"inputDate","type":"uint256"}],"name":"DebugTimestamps","type":"event"},{"anonymous":false,"inputs":[{"indexed":true,"internalType":"uint256","name":"eventId","type":"uint256"},{"indexed":true,"internalType":"address","name":"owner","type":"address"},{"indexed":false,"internalType":"string","name":"ipfsCID","type":"string"},{"indexed":false,"internalType":"string","name":"imageCID","type":"string"}],"name":"EventCreated","type":"event"},{"anonymous":false,"inputs":[{"indexed":true,"internalType":"address","name":"previousOwner","type":"address"},{"indexed":true,"internalType":"address","name":"newOwner","type":"address"}],"name":"OwnershipTransferred","type":"event"},{"anonymous":false,"inputs":[{"indexed":true,"internalType":"uint256","name":"eventId","type":"uint256"},{"indexed":true,"internalType":"address","name":"buyer","type":"address"},{"indexed":false,"internalType":"uint256","name":"amount","type":"uint256"}],"name":"TicketPurchased","type":"event"},{"anonymous":false,"inputs":[{"indexed":true,"internalType":"address","name":"operator","type":"address"},{"indexed":true,"internalType":"address","name":"from","type":"address"},{"indexed":true,"internalType":"address","name":"to","type":"address"},{"indexed":false,"internalType":"uint256[]","name":"ids","type":"uint256[]"},{"indexed":false,"internalType":"uint256[]","name":"values","type":"uint256[]"}],"name":"TransferBatch","type":"event"},{"anonymous":false,"inputs":[{"indexed":true,"internalType":"address","name":"operator","type":"address"},{"indexed":true,"internalType":"address","name":"from","type":"address"},{"indexed":true,"internalType":"address","name":"to","type":"address"},{"indexed":false,"internalType":"uint256","name":"id","type":"uint256"},{"indexed":false,"internalType":"uint256","name":"value","type":"uint256"}],"name":"TransferSingle","type":"event"},{"anonymous":false,"inputs":[{"indexed":false,"internalType":"string","name":"value","type":"string"},{"indexed":true,"internalType":"uint256","name":"id","type":"uint256"}],"name":"URI","type":"event"},{"inputs":[{"internalType":"address","name":"account","type":"address"},{"internalType":"uint256","name":"id","type":"uint256"}],"name":"balanceOf","outputs":[{"internalType":"uint256","name":"","type":"uint256"}],"stateMutability":"view","type":"function"},{"inputs":[{"internalType":"address[]","name":"accounts","type":"address[]"},{"internalType":"uint256[]","name":"ids","type":"uint256[]"}],"name":"balanceOfBatch","outputs":[{"internalType":"uint256[]","name":"","type":"uint256[]"}],"stateMutability":"view","type":"function"},{"inputs":[{"internalType":"string","name":"name","type":"string"},{"internalType":"uint256","name":"date","type":"uint256"},{"internalType":"string","name":"ipfsCID","type":"string"},{"internalType":"string","name":"imageCID","type":"string"},{"internalType":"uint256","name":"maxTickets","type":"uint256"},{"internalType":"uint256","name":"pricePerTicket","type":"uint256"}],"name":"createEvent","outputs":[{"internalType":"uint256","name":"","type":"uint256"}],"stateMutability":"nonpayable","type":"function"},{"inputs":[{"internalType":"uint256","name":"eventId","type":"uint256"}],"name":"deactivateEvent","outputs":[],"stateMutability":"nonpayable","type":"function"},{"inputs":[{"internalType":"uint256","name":"","type":"uint256"}],"name":"events","outputs":[{"internalType":"string","name":"name","type":"string"},{"internalType":"uint256","name":"date","type":"uint256"},{"internalType":"string","name":"ipfsCID","type":"string"},{"internalType":"string","name":"imageCID","type":"string"},{"internalType":"address","name":"owner","type":"address"},{"internalType":"bool","name":"active","type":"bool"},{"internalType":"uint256","name":"pricePerTicket","type":"uint256"}],"stateMutability":"view","type":"function"},{"inputs":[{"internalType":"uint256","name":"eventId","type":"uint256"}],"name":"getEventDetails","outputs":[{"internalType":"string","name":"name","type":"string"},{"internalType":"uint256","name":"date","type":"uint256"},{"internalType":"string","name":"ipfsCID","type":"string"},{"internalType":"string","name":"imageCID","type":"string"},{"internalType":"address","name":"owner","type":"address"},{"internalType":"bool","name":"active","type":"bool"},{"internalType":"uint256","name":"pricePerTicket","type":"uint256"},{"internalType":"uint256","name":"ticketsRemaining","type":"uint256"}],"stateMutability":"view","type":"function"},{"inputs":[{"internalType":"address","name":"account","type":"address"},{"internalType":"address","name":"operator","type":"address"}],"name":"isApprovedForAll","outputs":[{"internalType":"bool","name":"","type":"bool"}],"stateMutability":"view","type":"function"},{"inputs":[{"internalType":"uint256","name":"eventId","type":"uint256"}],"name":"isValidEvent","outputs":[{"internalType":"bool","name":"","type":"bool"}],"stateMutability":"view","type":"function"},{"inputs":[{"internalType":"address","name":"","type":"address"},{"internalType":"address","name":"","type":"address"},{"internalType":"uint256[]","name":"","type":"uint256[]"},{"internalType":"uint256[]","name":"","type":"uint256[]"},{"internalType":"bytes","name":"","type":"bytes"}],"name":"onERC1155BatchReceived","outputs":[{"internalType":"bytes4","name":"","type":"bytes4"}],"stateMutability":"pure","type":"function"},{"inputs":[{"internalType":"address","name":"","type":"address"},{"internalType":"address","name":"","type":"address"},{"internalType":"uint256","name":"","type":"uint256"},{"internalType":"uint256","name":"","type":"uint256"},{"internalType":"bytes","name":"","type":"bytes"}],"name":"onERC1155Received","outputs":[{"internalType":"bytes4","name":"","type":"bytes4"}],"stateMutability":"pure","type":"function"},{"inputs":[],"name":"owner","outputs":[{"internalType":"address","name":"","type":"address"}],"stateMutability":"view","type":"function"},{"inputs":[{"internalType":"uint256","name":"eventId","type":"uint256"},{"internalType":"uint256","name":"amount","type":"uint256"}],"name":"purchaseTicket","outputs":[],"stateMutability":"payable","type":"function"},{"inputs":[],"name":"renounceOwnership","outputs":[],"stateMutability":"nonpayable","type":"function"},{"inputs":[{"internalType":"address","name":"from","type":"address"},{"internalType":"address","name":"to","type":"address"},{"internalType":"uint256[]","name":"ids","type":"uint256[]"},{"internalType":"uint256[]","name":"amounts","type":"uint256[]"},{"internalType":"bytes","name":"data","type":"bytes"}],"name":"safeBatchTransferFrom","outputs":[],"stateMutability":"nonpayable","type":"function"},{"inputs":[{"internalType":"address","name":"from","type":"address"},{"internalType":"address","name":"to","type":"address"},{"internalType":"uint256","name":"id","type":"uint256"},{"internalType":"uint256","name":"amount","type":"uint256"},{"internalType":"bytes","name":"data","type":"bytes"}],"name":"safeTransferFrom","outputs":[],"stateMutability":"nonpayable","type":"function"},{"inputs":[{"internalType":"address","name":"operator","type":"address"},{"internalType":"bool","name":"approved","type":"bool"}],"name":"setApprovalForAll","outputs":[],"stateMutability":"nonpayable","type":"function"},{"inputs":[{"internalType":"address","name":"_ticketNFT","type":"address"}],"name":"setTicketNFTContract","outputs":[],"stateMutability":"nonpayable","type":"function"},{"inputs":[{"internalType":"bytes4","name":"interfaceId","type":"bytes4"}],"name":"supportsInterface","outputs":[{"internalType":"bool","name":"","type":"bool"}],"stateMutability":"view","type":"function"},{"inputs":[{"internalType":"address","name":"user","type":"address"},{"internalType":"uint256","name":"eventId","type":"uint256"}],"name":"ticketBalanceOf","outputs":[{"internalType":"uint256","name":"","type":"uint256"}],"stateMutability":"view","type":"function"},{"inputs":[],"name":"ticketNFT","outputs":[{"internalType":"contract TicketNFT","name":"","type":"address"}],"stateMutability":"view","type":"function"},{"inputs":[{"internalType":"address","name":"newOwner","type":"address"}],"name":"transferOwnership","outputs":[],"stateMutability":"nonpayable","type":"function"},{"inputs":[{"internalType":"uint256","name":"eventId","type":"uint256"}],"name":"uri","outputs":[{"internalType":"string","name":"","type":"string"}],"stateMutability":"view","type":"function"}],"evm":{"bytecode":{"linkReferences":{},"object":"6080346200014b5760408101906001600160401b038211818310176200013557602091604052600781520166697066733a2f2f60c81b8152600254906001918281811c911680156200012a575b60208210146200011457601f8111620000c8575b81516001600160c81b031916600e17600255600380546001600160a01b031981163390811790925560405191906001600160a01b03167f8be0079c531659141344cd1fd0a4f28419497f9722a3daafe3b4186f6b6457e0600080a36124029081620001518239f35b6002600052601f0160051c7f405787fa12a823e0f2b7631cc41b3ba8828b3321ca811111fa75cd3aa3bb5ace908101905b81811062000108575062000060565b600081558301620000f9565b634e487b7160e01b600052602260045260246000fd5b90607f16906200004c565b634e487b7160e01b600052604160045260246000fd5b600080fdfe6080604052600436101561001257600080fd5b60003560e01c8062fdd58e1461156d57806301ffc9a714611c805780630b79143014611bc85780630e89341c14611ab85780632eb2c2d6146117e857806349287c0b1461179a5780634e1273f4146115f8578063715018a61461159b5780638da5cb5b146115725780638f118fe31461156d578063957a632e146114d45780639cb3c70614611491578063a22cb465146113ad578063acb98bf514610bb0578063b393391b14610b87578063bc197c8114610afc578063bdbbb0cb146105f7578063e985e9c5146105a1578063ec38d5a0146104d7578063f23a6e6114610481578063f242432a146101db5763f2fde38b1461010d57600080fd5b346101d65760203660031901126101d657610126611d05565b61012e612024565b6001600160a01b0390811690811561018257600354826bffffffffffffffffffffffff60a01b821617600355167f8be0079c531659141344cd1fd0a4f28419497f9722a3daafe3b4186f6b6457e0600080a3005b60405162461bcd60e51b815260206004820152602660248201527f4f776e61626c653a206e6577206f776e657220697320746865207a65726f206160448201526564647265737360d01b6064820152608490fd5b600080fd5b346101d65760a03660031901126101d6576101f4611d05565b6101fc611d1b565b906064356044356084356001600160401b0381116101d657610222903690600401611f4c565b6001600160a01b03938416933385148015610458575b6102419061213a565b851661024e81151561219d565b61025783612367565b5061026184612367565b50826000526020956000875260406000208660005287528460406000205461028b828210156121f7565b85600052600089526040600020886000528952036040600020558360005260008752604060002082600052875260406000206102c8868254612256565b90558186604051868152878a8201527fc3d58168c5ae7397731d063d5bbf3d657854427343f4c083240f7aacaa2d0f6260403392a43b61030457005b61034893600087946040519687958694859363f23a6e6160e01b9b8c865233600487015260248601526044850152606484015260a0608484015260a4830190611e7c565b03925af160009181610429575b506103c05782610363612283565b6308c379a01461038b575b60405162461bcd60e51b81528061038760048201612312565b0390fd5b6103936122a1565b908161039f575061036e565b61038760405192839262461bcd60e51b845260048401526024830190611e7c565b6001600160e01b0319160390506103d357005b60405162461bcd60e51b815260206004820152602860248201527f455243313135353a204552433131353552656365697665722072656a656374656044820152676420746f6b656e7360c01b6064820152608490fd5b61044a919250843d8611610451575b6104428183611db5565b810190612263565b9084610355565b503d610438565b5084600052600160205260406000203360005260205261024160ff604060002054169050610238565b346101d65760a03660031901126101d65761049a611d05565b506104a3611d1b565b506084356001600160401b0381116101d6576104c3903690600401611ff7565b505060405163f23a6e6160e01b8152602090f35b346101d65760203660031901126101d65761055860043580600052600660205260406000209060018201549160048101549160ff61057961051d6005850154933061207c565b9361056b61052a82611dd6565b97610543600361053c60028601611dd6565b9401611dd6565b926040519a8b9a610100808d528c0190611e7c565b9160208b015289820360408b0152611e7c565b908782036060890152611e7c565b9360018060a01b038116608087015260a01c16151560a085015260c084015260e08301520390f35b346101d65760403660031901126101d6576105ba611d05565b6105c2611d1b565b9060018060a01b03809116600052600160205260406000209116600052602052602060ff604060002054166040519015158152f35b60403660031901126101d6576004356000526006602052604060002060ff600482015460a01c1615610ac4576001810154421015610a8a576005810154908160243581020460243514821517156107fd5760243582023410610a4e576024356106626004353061207c565b10610a145730156109c357610678600435612367565b50610684602435612367565b50600060405161069381611d9a565b5260043560005260006020526040600020306000526020526040600020546024358110610972576004356000526000602052604060002030600052602052602435900360406000205560006040516004358152602435602082015230907fc3d58168c5ae7397731d063d5bbf3d657854427343f4c083240f7aacaa2d0f6260403392a4600060405161072481611d9a565b5260005b60243581106108485750600401546000908190819081906024358602906001600160a01b03165af161075861239c565b5015610813576024358102341161079e575b604051602435815233907fdbaaf4c87ce30816c961a81d110622a3227ede77953d4383d514ff88ab2e0fd3602060043592a3005b6024350234033481116107fd57600080808093335af16107bc61239c565b50156107c8578061076a565b60405162461bcd60e51b815260206004820152600d60248201526c1499599d5b990819985a5b1959609a1b6044820152606490fd5b634e487b7160e01b600052601160045260246000fd5b60405162461bcd60e51b815260206004820152600d60248201526c14185e5bdd5d0819985a5b1959609a1b6044820152606490fd5b6005546001600160a01b031690813b156101d657604051916301aa1ff560e11b8352336004840152600435602484015260606044840152826000600286015461089081611d60565b90816064850152600181169081600014610950575060011461090f575b509181600081819503925af18015610903576108d3575b6108ce9150612101565b610728565b6001600160401b0382116108ed576108ce916040526108c4565b634e487b7160e01b600052604160045260246000fd5b6040513d6000823e3d90fd5b9050600286016000526020600020906000915b8183106109365750508101608401816108ad565b805460848489010152869350602090920191600101610922565b60ff191660848086019190915291151560051b840190910191508290506108ad565b60405162461bcd60e51b8152602060048201526024808201527f455243313135353a206275726e20616d6f756e7420657863656564732062616c604482015263616e636560e01b6064820152608490fd5b60405162461bcd60e51b815260206004820152602360248201527f455243313135353a206275726e2066726f6d20746865207a65726f206164647260448201526265737360e81b6064820152608490fd5b60405162461bcd60e51b81526020600482015260126024820152714e6f7420656e6f756768207469636b65747360701b6044820152606490fd5b60405162461bcd60e51b8152602060048201526014602482015273125b9cdd59999a58da595b9d081c185e5b595b9d60621b6044820152606490fd5b60405162461bcd60e51b8152602060048201526012602482015271115d995b9d081a185cc81bd8d8dd5c9c995960721b6044820152606490fd5b60405162461bcd60e51b815260206004820152601060248201526f4576656e74206e6f742061637469766560801b6044820152606490fd5b346101d65760a03660031901126101d657610b15611d05565b50610b1e611d1b565b506001600160401b036044358181116101d657610b3f903690600401611fc7565b50506064358181116101d657610b59903690600401611fc7565b50506084359081116101d657610b73903690600401611ff7565b505060405163bc197c8160e01b8152602090f35b346101d65760003660031901126101d6576005546040516001600160a01b039091168152602090f35b346101d65760c03660031901126101d6576004356001600160401b0381116101d657610be0903690600401611f4c565b6044356001600160401b0381116101d657610bff903690600401611f4c565b906064356001600160401b0381116101d657610c1f903690600401611f4c565b7ff6604d94064acaac8d13e1eb73176d55487e2f8abda34ab500ab76d24b0cda44604080514281526024356020820152a142602435106113685782511561132f578051156112f557608435156112b0576001600454019182600455604051908160e08101106001600160401b0360e0840111176108ed5760e0820160405281526024356020820152836040820152816060820152336080820152600160a082015260a43560c082015282600052600660205260406000209080518051906001600160401b0382116108ed578190610cf68554611d60565b601f8111611260575b50602090601f83116001146111fa576000926111ef575b50508160011b916000199060031b1c19161782555b6020810151600183015560408101518051906001600160401b0382116108ed578190610d5a6002860154611d60565b601f811161119c575b50602090601f831160011461112f57600092611124575b50508160011b916000199060031b1c19161760028301555b60608101518051906001600160401b0382116108ed57610db56003850154611d60565b601f81116110dd575b50602090601f831160011461106a5791806005949260c09460009261105f575b50508160011b916000199060031b1c19161760038501555b6004840160018060a01b0360808301511681549060ff60a01b60a0850151151560a01b16916affffffffffffffffffffff60a81b16171790550151910155604051610e4081611d9a565b60008152301561101057610e5383612367565b50610e5f608435612367565b508260005260006020526040600020306000526020526040600020610e876084358254612256565b90556040518381526084356020820152600030917fc3d58168c5ae7397731d063d5bbf3d657854427343f4c083240f7aacaa2d0f6260403392a4303b610f21575b50817f74c22f9f773d1d8c02ddaa6deeeaa696cacbfea0be35360f9b2c253b13938f6f610f08602095610f16604051928392604084526040840190611e7c565b828103898401523396611e7c565b0390a3604051908152f35b60405160208180610f6363f23a6e6160e01b9586835233600484015260006024840152886044840152608435606484015260a0608484015260a4830190611e7c565b03816000305af160009181610fef575b50610fda57610f80612283565b6308c379a014610fa35760405162461bcd60e51b81528061038760048201612312565b610fab6122a1565b80610fb6575061036e565b60405162461bcd60e51b815260206004820152908190610387906024830190611e7c565b6001600160e01b031916036103d35781610ec8565b61100991925060203d602011610451576104428183611db5565b9086610f73565b60405162461bcd60e51b815260206004820152602160248201527f455243313135353a206d696e7420746f20746865207a65726f206164647265736044820152607360f81b6064820152608490fd5b015190508980610dde565b90601f198316916003860160005260206000209260005b8181106110c5575092600192859260c09660059896106110ac575b505050811b016003850155610df6565b015160001960f88460031b161c1916905589808061109c565b92936020600181928786015181550195019301611081565b600385016000526020600020601f840160051c81016020851061111d575b601f830160051c82018110611111575050610dbe565b600081556001016110fb565b50806110fb565b015190508780610d7a565b600286016000908152602081209350601f198516905b818110611184575090846001959493921061116b575b505050811b016002830155610d92565b015160001960f88460031b161c1916905587808061115b565b92936020600181928786015181550195019301611145565b909150600285016000526020600020601f840160051c8101602085106111e8575b90849392915b601f830160051c820181106111d9575050610d63565b600081558594506001016111c3565b50806111bd565b015190508780610d16565b6000868152602081209350601f198516905b818110611248575090846001959493921061122f575b505050811b018255610d2b565b015160001960f88460031b161c19169055878080611222565b9293602060018192878601518155019501930161120c565b909150846000526020600020601f840160051c8101602085106112a9575b90849392915b601f830160051c8201811061129a575050610cff565b60008155859450600101611284565b508061127e565b60405162461bcd60e51b815260206004820152601960248201527f5469636b657420737570706c79206d757374206265203e2030000000000000006044820152606490fd5b60405162461bcd60e51b8152602060048201526012602482015271125b5859d94810d251081c995c5d5a5c995960721b6044820152606490fd5b60405162461bcd60e51b815260206004820152601160248201527012541194c810d251081c995c5d5a5c9959607a1b6044820152606490fd5b60405162461bcd60e51b815260206004820152601960248201527f4576656e742064617465206d757374206265203e3d206e6f77000000000000006044820152606490fd5b346101d65760403660031901126101d6576113c6611d05565b602435908115158092036101d6576001600160a01b03169033821461143a57336000526001602052604060002082600052602052604060002060ff1981541660ff83161790556040519081527f17307eab39ab6107e8899845ad3d59bd9653f200f220920489ca2b5937696c3160203392a3005b60405162461bcd60e51b815260206004820152602960248201527f455243313135353a2073657474696e6720617070726f76616c20737461747573604482015268103337b91039b2b63360b91b6064820152608490fd5b346101d65760203660031901126101d6576114aa611d05565b6114b2612024565b600580546001600160a01b0319166001600160a01b0392909216919091179055005b346101d65760203660031901126101d657600480356000818152600660205260409020909101546001600160a01b03163303611528576000908152600660205260409020600401805460ff60a01b19169055005b60405162461bcd60e51b815260206004820152601f60248201527f4f6e6c79206576656e74206f776e65722063616e2064656163746976617465006044820152606490fd5b611d31565b346101d65760003660031901126101d6576003546040516001600160a01b039091168152602090f35b346101d65760003660031901126101d6576115b4612024565b600380546001600160a01b031981169091556000906001600160a01b03167f8be0079c531659141344cd1fd0a4f28419497f9722a3daafe3b4186f6b6457e08280a3005b346101d65760403660031901126101d6576004356001600160401b038082116101d657366023830112156101d65781600401359061163582611ebc565b926116436040519485611db5565b82845260209260248486019160051b830101913683116101d657602401905b82821061177b575050506024359081116101d657611684903690600401611ed3565b82518151036117245782519261169984611ebc565b936116a76040519586611db5565b8085526116b6601f1991611ebc565b01368486013760005b815181101561170957611704906116f46001600160a01b036116e18386612110565b51166116ed8387612110565b519061207c565b6116fe8288612110565b52612101565b6116bf565b505050611720604051928284938452830190611f93565b0390f35b60405162461bcd60e51b815260048101839052602960248201527f455243313135353a206163636f756e747320616e6420696473206c656e677468604482015268040dad2e6dac2e8c6d60bb1b6064820152608490fd5b81356001600160a01b03811681036101d6578152908401908401611662565b346101d65760203660031901126101d65760043560005260066020526020604060002060ff600482015460a01c1690816117da575b506040519015158152f35b6001915001544210826117cf565b346101d65760031960a0368201126101d657611802611d05565b9061180b611d1b565b906001600160401b03906044358281116101d65761182d903690600401611ed3565b6064358381116101d657611845903690600401611ed3565b926084359081116101d65761185e903690600401611f4c565b6001600160a01b03958616959092903387148015611a8f575b6118809061213a565b8251855103611a395785169261189784151561219d565b60005b835181101561193057806118b161192b9286612110565b516118bc8289612110565b5190806000526020906000825260406000208c6000528252826040600020546118e7828210156121f7565b82600052600084528d6040600020906000528452036040600020556000526000815260406000209088600052526119246040600020918254612256565b9055612101565b61189a565b509094939291938287604051604081527f4a39dc06d4c0dbc64b70af90fd698a233a518aa5d07e595d983b8c0526c8f7fb61196e604083018a611f93565b9180830360208201528061198333948b611f93565b0390a43b61198d57005b60006020946119ee6119df976119cf94604051998a988997889663bc197c8160e01b9e8f89523360048a0152602489015260a0604489015260a4880190611f93565b9084878303016064880152611f93565b91848303016084850152611e7c565b03925af160009181611a19575b50611a0857610f80612283565b6001600160e01b031916036103d357005b611a3291925060203d8111610451576104428183611db5565b90836119fb565b60405162461bcd60e51b815260206004820152602860248201527f455243313135353a2069647320616e6420616d6f756e7473206c656e677468206044820152670dad2e6dac2e8c6d60c31b6064820152608490fd5b5086600052600160205260406000203360005260205261188060ff604060002054169050611877565b346101d6576020806003193601126101d65760043560005260068152600260406000200190604051809266697066733a2f2f60c81b838301526000908054611aff81611d60565b91600191808316908115611ba05750600114611b57575b505050611b4391816d17b6b2ba30b230ba30973539b7b760911b600e935203601119810185520183611db5565b611720604051928284938452830190611e7c565b90919392506000528360002090846000925b858410611b885750505050806027611b4393600e930101918193611b16565b80548885016027015287945092019185908201611b69565b9050600e945060279250611b439593915060ff19168284015280151502820101918193611b16565b346101d65760203660031901126101d6576004356000526006602052611c3c6040600020611bf581611dd6565b90600181015460ff611c5d611c0c60028501611dd6565b92611c4f611c1c60038701611dd6565b916005600488015497015495604051998a9960e08b5260e08b0190611e7c565b9160208a015288820360408a0152611e7c565b908682036060880152611e7c565b9260018060a01b038116608086015260a01c16151560a084015260c08301520390f35b346101d65760203660031901126101d65760043563ffffffff60e01b81168091036101d657602090636cdb3d1360e11b8114908115611cf4575b8115611ce3575b8115611cd257506040519015158152f35b630271189760e51b149050826117cf565b6301ffc9a760e01b81149150611cc1565b6303a24d0760e21b81149150611cba565b600435906001600160a01b03821682036101d657565b602435906001600160a01b03821682036101d657565b346101d65760403660031901126101d6576020611d58611d4f611d05565b6024359061207c565b604051908152f35b90600182811c92168015611d90575b6020831014611d7a57565b634e487b7160e01b600052602260045260246000fd5b91607f1691611d6f565b602081019081106001600160401b038211176108ed57604052565b90601f801991011681019081106001600160401b038211176108ed57604052565b9060405191826000825492611dea84611d60565b908184526001948581169081600014611e595750600114611e16575b5050611e1492500383611db5565b565b9093915060005260209081600020936000915b818310611e41575050611e1493508201013880611e06565b85548884018501529485019487945091830191611e29565b915050611e1494506020925060ff191682840152151560051b8201013880611e06565b919082519283825260005b848110611ea8575050826000602080949584010152601f8019910116010190565b602081830181015184830182015201611e87565b6001600160401b0381116108ed5760051b60200190565b81601f820112156101d657803591611eea83611ebc565b92611ef86040519485611db5565b808452602092838086019260051b8201019283116101d6578301905b828210611f22575050505090565b81358152908301908301611f14565b6001600160401b0381116108ed57601f01601f191660200190565b81601f820112156101d657803590611f6382611f31565b92611f716040519485611db5565b828452602083830101116101d657816000926020809301838601378301015290565b90815180825260208080930193019160005b828110611fb3575050505090565b835185529381019392810192600101611fa5565b9181601f840112156101d6578235916001600160401b0383116101d6576020808501948460051b0101116101d657565b9181601f840112156101d6578235916001600160401b0383116101d657602083818601950101116101d657565b6003546001600160a01b0316330361203857565b606460405162461bcd60e51b815260206004820152602060248201527f4f776e61626c653a2063616c6c6572206973206e6f7420746865206f776e65726044820152fd5b6001600160a01b03169081156120a957600052600060205260406000209060005260205260406000205490565b60405162461bcd60e51b815260206004820152602a60248201527f455243313135353a2061646472657373207a65726f206973206e6f742061207660448201526930b634b21037bbb732b960b11b6064820152608490fd5b60001981146107fd5760010190565b80518210156121245760209160051b010190565b634e487b7160e01b600052603260045260246000fd5b1561214157565b60405162461bcd60e51b815260206004820152602e60248201527f455243313135353a2063616c6c6572206973206e6f7420746f6b656e206f776e60448201526d195c881bdc88185c1c1c9bdd995960921b6064820152608490fd5b156121a457565b60405162461bcd60e51b815260206004820152602560248201527f455243313135353a207472616e7366657220746f20746865207a65726f206164604482015264647265737360d81b6064820152608490fd5b156121fe57565b60405162461bcd60e51b815260206004820152602a60248201527f455243313135353a20696e73756666696369656e742062616c616e636520666f60448201526939103a3930b739b332b960b11b6064820152608490fd5b919082018092116107fd57565b908160209103126101d657516001600160e01b0319811681036101d65790565b60009060033d1161229057565b905060046000803e60005160e01c90565b600060443d106122fe57604051600319913d83016004833e81516001600160401b03918282113d60248401111761230157818401948551938411612309573d8501016020848701011161230157506122fe92910160200190611db5565b90565b949350505050565b50949350505050565b60809060208152603460208201527f455243313135353a207472616e7366657220746f206e6f6e2d455243313135356040820152732932b1b2b4bb32b91034b6b83632b6b2b73a32b960611b60608201520190565b60405190604082018281106001600160401b038211176108ed5760405260018252602082016020368237825115612124575290565b3d156123c7573d906123ad82611f31565b916123bb6040519384611db5565b82523d6000602084013e565b60609056fea2646970667358221220c5ff8e27a542afe65a8a5ace56c3e0551b24f628d4092c3f96aa4ca139c7616264736f6c63430008140033","opcodes":"PUSH1 0x80 CALLVALUE PUSH3 0x14B JUMPI PUSH1 0x40 DUP2 ADD SWAP1 PUSH1 0x1 PUSH1 0x1 PUSH1 0x40 SHL SUB DUP3 GT DUP2 DUP4 LT OR PUSH3 0x135 JUMPI PUSH1 0x20 SWAP2 PUSH1 0x40 MSTORE PUSH1 0x7 DUP2 MSTORE ADD PUSH7 0x697066733A2F2F PUSH1 0xC8 SHL DUP2 MSTORE PUSH1 0x2 SLOAD SWAP1 PUSH1 0x1 SWAP2 DUP3 DUP2 DUP2 SHR SWAP2 AND DUP1 ISZERO PUSH3 0x12A JUMPI JUMPDEST PUSH1 0x20 DUP3 LT EQ PUSH3 0x114 JUMPI PUSH1 0x1F DUP2 GT PUSH3 0xC8 JUMPI JUMPDEST DUP2 MLOAD PUSH1 0x1 PUSH1 0x1 PUSH1 0xC8 SHL SUB NOT AND PUSH1 0xE OR PUSH1 0x2 SSTORE PUSH1 0x3 DUP1 SLOAD PUSH1 0x1 PUSH1 0x1 PUSH1 0xA0 SHL SUB NOT DUP2 AND CALLER SWAP1 DUP2 OR SWAP1 SWAP3 SSTORE PUSH1 0x40 MLOAD SWAP2 SWAP1 PUSH1 0x1 PUSH1 0x1 PUSH1 0xA0 SHL SUB AND PUSH32 0x8BE0079C531659141344CD1FD0A4F28419497F9722A3DAAFE3B4186F6B6457E0 PUSH1 0x0 DUP1 LOG3 PUSH2 0x2402 SWAP1 DUP2 PUSH3 0x151 DUP3 CODECOPY RETURN JUMPDEST PUSH1 0x2 PUSH1 0x0 MSTORE PUSH1 0x1F ADD PUSH1 0x5 SHR PUSH32 0x405787FA12A823E0F2B7631CC41B3BA8828B3321CA811111FA75CD3AA3BB5ACE SWAP1 DUP2 ADD SWAP1 JUMPDEST DUP2 DUP2 LT PUSH3 0x108 JUMPI POP PUSH3 0x60 JUMP JUMPDEST PUSH1 0x0 DUP2 SSTORE DUP4 ADD PUSH3 0xF9 JUMP JUMPDEST PUSH4 0x4E487B71 PUSH1 0xE0 SHL PUSH1 0x0 MSTORE PUSH1 0x22 PUSH1 0x4 MSTORE PUSH1 0x24 PUSH1 0x0 REVERT JUMPDEST SWAP1 PUSH1 0x7F AND SWAP1 PUSH3 0x4C JUMP JUMPDEST PUSH4 0x4E487B71 PUSH1 0xE0 SHL PUSH1 0x0 MSTORE PUSH1 0x41 PUSH1 0x4 MSTORE PUSH1 0x24 PUSH1 0x0 REVERT JUMPDEST PUSH1 0x0 DUP1 REVERT INVALID PUSH1 0x80 PUSH1 0x40 MSTORE PUSH1 0x4 CALLDATASIZE LT ISZERO PUSH2 0x12 JUMPI PUSH1 0x0 DUP1 REVERT JUMPDEST PUSH1 0x0 CALLDATALOAD PUSH1 0xE0 SHR DUP1 PUSH3 0xFDD58E EQ PUSH2 0x156D JUMPI DUP1 PUSH4 0x1FFC9A7 EQ PUSH2 0x1C80 JUMPI DUP1 PUSH4 0xB791430 EQ PUSH2 0x1BC8 JUMPI DUP1 PUSH4 0xE89341C EQ PUSH2 0x1AB8 JUMPI DUP1 PUSH4 0x2EB2C2D6 EQ PUSH2 0x17E8 JUMPI DUP1 PUSH4 0x49287C0B EQ PUSH2 0x179A JUMPI DUP1 PUSH4 0x4E1273F4 EQ PUSH2 0x15F8 JUMPI DUP1 PUSH4 0x715018A6 EQ PUSH2 0x159B JUMPI DUP1 PUSH4 0x8DA5CB5B EQ PUSH2 0x1572 JUMPI DUP1 PUSH4 0x8F118FE3 EQ PUSH2 0x156D JUMPI DUP1 PUSH4 0x957A632E EQ PUSH2 0x14D4 JUMPI DUP1 PUSH4 0x9CB3C706 EQ PUSH2 0x1491 JUMPI DUP1 PUSH4 0xA22CB465 EQ PUSH2 0x13AD JUMPI DUP1 PUSH4 0xACB98BF5 EQ PUSH2 0xBB0 JUMPI DUP1 PUSH4 0xB393391B EQ PUSH2 0xB87 JUMPI DUP1 PUSH4 0xBC197C81 EQ PUSH2 0xAFC JUMPI DUP1 PUSH4 0xBDBBB0CB EQ PUSH2 0x5F7 JUMPI DUP1 PUSH4 0xE985E9C5 EQ PUSH2 0x5A1 JUMPI DUP1 PUSH4 0xEC38D5A0 EQ PUSH2 0x4D7 JUMPI DUP1 PUSH4 0xF23A6E61 EQ PUSH2 0x481 JUMPI DUP1 PUSH4 0xF242432A EQ PUSH2 0x1DB JUMPI PUSH4 0xF2FDE38B EQ PUSH2 0x10D JUMPI PUSH1 0x0 DUP1 REVERT JUMPDEST CALLVALUE PUSH2 0x1D6 JUMPI PUSH1 0x20 CALLDATASIZE PUSH1 0x3 NOT ADD SLT PUSH2 0x1D6 JUMPI PUSH2 0x126 PUSH2 0x1D05 JUMP JUMPDEST PUSH2 0x12E PUSH2 0x2024 JUMP JUMPDEST PUSH1 0x1 PUSH1 0x1 PUSH1 0xA0 SHL SUB SWAP1 DUP2 AND SWAP1 DUP2 ISZERO PUSH2 0x182 JUMPI PUSH1 0x3 SLOAD DUP3 PUSH12 0xFFFFFFFFFFFFFFFFFFFFFFFF PUSH1 0xA0 SHL DUP3 AND OR PUSH1 0x3 SSTORE AND PUSH32 0x8BE0079C531659141344CD1FD0A4F28419497F9722A3DAAFE3B4186F6B6457E0 PUSH1 0x0 DUP1 LOG3 STOP JUMPDEST PUSH1 0x40 MLOAD PUSH3 0x461BCD PUSH1 0xE5 SHL DUP2 MSTORE PUSH1 0x20 PUSH1 0x4 DUP3 ADD MSTORE PUSH1 0x26 PUSH1 0x24 DUP3 ADD MSTORE PUSH32 0x4F776E61626C653A206E6577206F776E657220697320746865207A65726F2061 PUSH1 0x44 DUP3 ADD MSTORE PUSH6 0x646472657373 PUSH1 0xD0 SHL PUSH1 0x64 DUP3 ADD MSTORE PUSH1 0x84 SWAP1 REVERT JUMPDEST PUSH1 0x0 DUP1 REVERT JUMPDEST CALLVALUE PUSH2 0x1D6 JUMPI PUSH1 0xA0 CALLDATASIZE PUSH1 0x3 NOT ADD SLT PUSH2 0x1D6 JUMPI PUSH2 0x1F4 PUSH2 0x1D05 JUMP JUMPDEST PUSH2 0x1FC PUSH2 0x1D1B JUMP JUMPDEST SWAP1 PUSH1 0x64 CALLDATALOAD PUSH1 0x44 CALLDATALOAD PUSH1 0x84 CALLDATALOAD PUSH1 0x1 PUSH1 0x1 PUSH1 0x40 SHL SUB DUP2 GT PUSH2 0x1D6 JUMPI PUSH2 0x222 SWAP1 CALLDATASIZE SWAP1 PUSH1 0x4 ADD PUSH2 0x1F4C JUMP JUMPDEST PUSH1 0x1 PUSH1 0x1 PUSH1 0xA0 SHL SUB SWAP4 DUP5 AND SWAP4 CALLER DUP6 EQ DUP1 ISZERO PUSH2 0x458 JUMPI JUMPDEST PUSH2 0x241 SWAP1 PUSH2 0x213A JUMP JUMPDEST DUP6 AND PUSH2 0x24E DUP2 ISZERO ISZERO PUSH2 0x219D JUMP JUMPDEST PUSH2 0x257 DUP4 PUSH2 0x2367 JUMP JUMPDEST POP PUSH2 0x261 DUP5 PUSH2 0x2367 JUMP JUMPDEST POP DUP3 PUSH1 0x0 MSTORE PUSH1 0x20 SWAP6 PUSH1 0x0 DUP8 MSTORE PUSH1 0x40 PUSH1 0x0 KECCAK256 DUP7 PUSH1 0x0 MSTORE DUP8 MSTORE DUP5 PUSH1 0x40 PUSH1 0x0 KECCAK256 SLOAD PUSH2 0x28B DUP3 DUP3 LT ISZERO PUSH2 0x21F7 JUMP JUMPDEST DUP6 PUSH1 0x0 MSTORE PUSH1 0x0 DUP10 MSTORE PUSH1 0x40 PUSH1 0x0 KECCAK256 DUP9 PUSH1 0x0 MSTORE DUP10 MSTORE SUB PUSH1 0x40 PUSH1 0x0 KECCAK256 SSTORE DUP4 PUSH1 0x0 MSTORE PUSH1 0x0 DUP8 MSTORE PUSH1 0x40 PUSH1 0x0 KECCAK256 DUP3 PUSH1 0x0 MSTORE DUP8 MSTORE PUSH1 0x40 PUSH1 0x0 KECCAK256 PUSH2 0x2C8 DUP7 DUP3 SLOAD PUSH2 0x2256 JUMP JUMPDEST SWAP1 SSTORE DUP2 DUP7 PUSH1 0x40 MLOAD DUP7 DUP2 MSTORE DUP8 DUP11 DUP3 ADD MSTORE PUSH32 0xC3D58168C5AE7397731D063D5BBF3D657854427343F4C083240F7AACAA2D0F62 PUSH1 0x40 CALLER SWAP3 LOG4 EXTCODESIZE PUSH2 0x304 JUMPI STOP JUMPDEST PUSH2 0x348 SWAP4 PUSH1 0x0 DUP8 SWAP5 PUSH1 0x40 MLOAD SWAP7 DUP8 SWAP6 DUP7 SWAP5 DUP6 SWAP4 PUSH4 0xF23A6E61 PUSH1 0xE0 SHL SWAP12 DUP13 DUP7 MSTORE CALLER PUSH1 0x4 DUP8 ADD MSTORE PUSH1 0x24 DUP7 ADD MSTORE PUSH1 0x44 DUP6 ADD MSTORE PUSH1 0x64 DUP5 ADD MSTORE PUSH1 0xA0 PUSH1 0x84 DUP5 ADD MSTORE PUSH1 0xA4 DUP4 ADD SWAP1 PUSH2 0x1E7C JUMP JUMPDEST SUB SWAP3 GAS CALL PUSH1 0x0 SWAP2 DUP2 PUSH2 0x429 JUMPI JUMPDEST POP PUSH2 0x3C0 JUMPI DUP3 PUSH2 0x363 PUSH2 0x2283 JUMP JUMPDEST PUSH4 0x8C379A0 EQ PUSH2 0x38B JUMPI JUMPDEST PUSH1 0x40 MLOAD PUSH3 0x461BCD PUSH1 0xE5 SHL DUP2 MSTORE DUP1 PUSH2 0x387 PUSH1 0x4 DUP3 ADD PUSH2 0x2312 JUMP JUMPDEST SUB SWAP1 REVERT JUMPDEST PUSH2 0x393 PUSH2 0x22A1 JUMP JUMPDEST SWAP1 DUP2 PUSH2 0x39F JUMPI POP PUSH2 0x36E JUMP JUMPDEST PUSH2 0x387 PUSH1 0x40 MLOAD SWAP3 DUP4 SWAP3 PUSH3 0x461BCD PUSH1 0xE5 SHL DUP5 MSTORE PUSH1 0x4 DUP5 ADD MSTORE PUSH1 0x24 DUP4 ADD SWAP1 PUSH2 0x1E7C JUMP JUMPDEST PUSH1 0x1 PUSH1 0x1 PUSH1 0xE0 SHL SUB NOT AND SUB SWAP1 POP PUSH2 0x3D3 JUMPI STOP JUMPDEST PUSH1 0x40 MLOAD PUSH3 0x461BCD PUSH1 0xE5 SHL DUP2 MSTORE PUSH1 0x20 PUSH1 0x4 DUP3 ADD MSTORE PUSH1 0x28 PUSH1 0x24 DUP3 ADD MSTORE PUSH32 0x455243313135353A204552433131353552656365697665722072656A65637465 PUSH1 0x44 DUP3 ADD MSTORE PUSH8 0x6420746F6B656E73 PUSH1 0xC0 SHL PUSH1 0x64 DUP3 ADD MSTORE PUSH1 0x84 SWAP1 REVERT JUMPDEST PUSH2 0x44A SWAP2 SWAP3 POP DUP5 RETURNDATASIZE DUP7 GT PUSH2 0x451 JUMPI JUMPDEST PUSH2 0x442 DUP2 DUP4 PUSH2 0x1DB5 JUMP JUMPDEST DUP2 ADD SWAP1 PUSH2 0x2263 JUMP JUMPDEST SWAP1 DUP5 PUSH2 0x355 JUMP JUMPDEST POP RETURNDATASIZE PUSH2 0x438 JUMP JUMPDEST POP DUP5 PUSH1 0x0 MSTORE PUSH1 0x1 PUSH1 0x20 MSTORE PUSH1 0x40 PUSH1 0x0 KECCAK256 CALLER PUSH1 0x0 MSTORE PUSH1 0x20 MSTORE PUSH2 0x241 PUSH1 0xFF PUSH1 0x40 PUSH1 0x0 KECCAK256 SLOAD AND SWAP1 POP PUSH2 0x238 JUMP JUMPDEST CALLVALUE PUSH2 0x1D6 JUMPI PUSH1 0xA0 CALLDATASIZE PUSH1 0x3 NOT ADD SLT PUSH2 0x1D6 JUMPI PUSH2 0x49A PUSH2 0x1D05 JUMP JUMPDEST POP PUSH2 0x4A3 PUSH2 0x1D1B JUMP JUMPDEST POP PUSH1 0x84 CALLDATALOAD PUSH1 0x1 PUSH1 0x1 PUSH1 0x40 SHL SUB DUP2 GT PUSH2 0x1D6 JUMPI PUSH2 0x4C3 SWAP1 CALLDATASIZE SWAP1 PUSH1 0x4 ADD PUSH2 0x1FF7 JUMP JUMPDEST POP POP PUSH1 0x40 MLOAD PUSH4 0xF23A6E61 PUSH1 0xE0 SHL DUP2 MSTORE PUSH1 0x20 SWAP1 RETURN JUMPDEST CALLVALUE PUSH2 0x1D6 JUMPI PUSH1 0x20 CALLDATASIZE PUSH1 0x3 NOT ADD SLT PUSH2 0x1D6 JUMPI PUSH2 0x558 PUSH1 0x4 CALLDATALOAD DUP1 PUSH1 0x0 MSTORE PUSH1 0x6 PUSH1 0x20 MSTORE PUSH1 0x40 PUSH1 0x0 KECCAK256 SWAP1 PUSH1 0x1 DUP3 ADD SLOAD SWAP2 PUSH1 0x4 DUP2 ADD SLOAD SWAP2 PUSH1 0xFF PUSH2 0x579 PUSH2 0x51D PUSH1 0x5 DUP6 ADD SLOAD SWAP4 ADDRESS PUSH2 0x207C JUMP JUMPDEST SWAP4 PUSH2 0x56B PUSH2 0x52A DUP3 PUSH2 0x1DD6 JUMP JUMPDEST SWAP8 PUSH2 0x543 PUSH1 0x3 PUSH2 0x53C PUSH1 0x2 DUP7 ADD PUSH2 0x1DD6 JUMP JUMPDEST SWAP5 ADD PUSH2 0x1DD6 JUMP JUMPDEST SWAP3 PUSH1 0x40 MLOAD SWAP11 DUP12 SWAP11 PUSH2 0x100 DUP1 DUP14 MSTORE DUP13 ADD SWAP1 PUSH2 0x1E7C JUMP JUMPDEST SWAP2 PUSH1 0x20 DUP12 ADD MSTORE DUP10 DUP3 SUB PUSH1 0x40 DUP12 ADD MSTORE PUSH2 0x1E7C JUMP JUMPDEST SWAP1 DUP8 DUP3 SUB PUSH1 0x60 DUP10 ADD MSTORE PUSH2 0x1E7C JUMP JUMPDEST SWAP4 PUSH1 0x1 DUP1 PUSH1 0xA0 SHL SUB DUP2 AND PUSH1 0x80 DUP8 ADD MSTORE PUSH1 0xA0 SHR AND ISZERO ISZERO PUSH1 0xA0 DUP6 ADD MSTORE PUSH1 0xC0 DUP5 ADD MSTORE PUSH1 0xE0 DUP4 ADD MSTORE SUB SWAP1 RETURN JUMPDEST CALLVALUE PUSH2 0x1D6 JUMPI PUSH1 0x40 CALLDATASIZE PUSH1 0x3 NOT ADD SLT PUSH2 0x1D6 JUMPI PUSH2 0x5BA PUSH2 0x1D05 JUMP JUMPDEST PUSH2 0x5C2 PUSH2 0x1D1B JUMP JUMPDEST SWAP1 PUSH1 0x1 DUP1 PUSH1 0xA0 SHL SUB DUP1 SWAP2 AND PUSH1 0x0 MSTORE PUSH1 0x1 PUSH1 0x20 MSTORE PUSH1 0x40 PUSH1 0x0 KECCAK256 SWAP2 AND PUSH1 0x0 MSTORE PUSH1 0x20 MSTORE PUSH1 0x20 PUSH1 0xFF PUSH1 0x40 PUSH1 0x0 KECCAK256 SLOAD AND PUSH1 0x40 MLOAD SWAP1 ISZERO ISZERO DUP2 MSTORE RETURN JUMPDEST PUSH1 0x40 CALLDATASIZE PUSH1 0x3 NOT ADD SLT PUSH2 0x1D6 JUMPI PUSH1 0x4 CALLDATALOAD PUSH1 0x0 MSTORE PUSH1 0x6 PUSH1 0x20 MSTORE PUSH1 0x40 PUSH1 0x0 KECCAK256 PUSH1 0xFF PUSH1 0x4 DUP3 ADD SLOAD PUSH1 0xA0 SHR AND ISZERO PUSH2 0xAC4 JUMPI PUSH1 0x1 DUP2 ADD SLOAD TIMESTAMP LT ISZERO PUSH2 0xA8A JUMPI PUSH1 0x5 DUP2 ADD SLOAD SWAP1 DUP2 PUSH1 0x24 CALLDATALOAD DUP2 MUL DIV PUSH1 0x24 CALLDATALOAD EQ DUP3 ISZERO OR ISZERO PUSH2 0x7FD JUMPI PUSH1 0x24 CALLDATALOAD DUP3 MUL CALLVALUE LT PUSH2 0xA4E JUMPI PUSH1 0x24 CALLDATALOAD PUSH2 0x662 PUSH1 0x4 CALLDATALOAD ADDRESS PUSH2 0x207C JUMP JUMPDEST LT PUSH2 0xA14 JUMPI ADDRESS ISZERO PUSH2 0x9C3 JUMPI PUSH2 0x678 PUSH1 0x4 CALLDATALOAD PUSH2 0x2367 JUMP JUMPDEST POP PUSH2 0x684 PUSH1 0x24 CALLDATALOAD PUSH2 0x2367 JUMP JUMPDEST POP PUSH1 0x0 PUSH1 0x40 MLOAD PUSH2 0x693 DUP2 PUSH2 0x1D9A JUMP JUMPDEST MSTORE PUSH1 0x4 CALLDATALOAD PUSH1 0x0 MSTORE PUSH1 0x0 PUSH1 0x20 MSTORE PUSH1 0x40 PUSH1 0x0 KECCAK256 ADDRESS PUSH1 0x0 MSTORE PUSH1 0x20 MSTORE PUSH1 0x40 PUSH1 0x0 KECCAK256 SLOAD PUSH1 0x24 CALLDATALOAD DUP2 LT PUSH2 0x972 JUMPI PUSH1 0x4 CALLDATALOAD PUSH1 0x0 MSTORE PUSH1 0x0 PUSH1 0x20 MSTORE PUSH1 0x40 PUSH1 0x0 KECCAK256 ADDRESS PUSH1 0x0 MSTORE PUSH1 0x20 MSTORE PUSH1 0x24 CALLDATALOAD SWAP1 SUB PUSH1 0x40 PUSH1 0x0 KECCAK256 SSTORE PUSH1 0x0 PUSH1 0x40 MLOAD PUSH1 0x4 CALLDATALOAD DUP2 MSTORE PUSH1 0x24 CALLDATALOAD PUSH1 0x20 DUP3 ADD MSTORE ADDRESS SWAP1 PUSH32 0xC3D58168C5AE7397731D063D5BBF3D657854427343F4C083240F7AACAA2D0F62 PUSH1 0x40 CALLER SWAP3 LOG4 PUSH1 0x0 PUSH1 0x40 MLOAD PUSH2 0x724 DUP2 PUSH2 0x1D9A JUMP JUMPDEST MSTORE PUSH1 0x0 JUMPDEST PUSH1 0x24 CALLDATALOAD DUP2 LT PUSH2 0x848 JUMPI POP PUSH1 0x4 ADD SLOAD PUSH1 0x0 SWAP1 DUP2 SWAP1 DUP2 SWAP1 DUP2 SWAP1 PUSH1 0x24 CALLDATALOAD DUP7 MUL SWAP1 PUSH1 0x1 PUSH1 0x1 PUSH1 0xA0 SHL SUB AND GAS CALL PUSH2 0x758 PUSH2 0x239C JUMP JUMPDEST POP ISZERO PUSH2 0x813 JUMPI PUSH1 0x24 CALLDATALOAD DUP2 MUL CALLVALUE GT PUSH2 0x79E JUMPI JUMPDEST PUSH1 0x40 MLOAD PUSH1 0x24 CALLDATALOAD DUP2 MSTORE CALLER SWAP1 PUSH32 0xDBAAF4C87CE30816C961A81D110622A3227EDE77953D4383D514FF88AB2E0FD3 PUSH1 0x20 PUSH1 0x4 CALLDATALOAD SWAP3 LOG3 STOP JUMPDEST PUSH1 0x24 CALLDATALOAD MUL CALLVALUE SUB CALLVALUE DUP2 GT PUSH2 0x7FD JUMPI PUSH1 0x0 DUP1 DUP1 DUP1 SWAP4 CALLER GAS CALL PUSH2 0x7BC PUSH2 0x239C JUMP JUMPDEST POP ISZERO PUSH2 0x7C8 JUMPI DUP1 PUSH2 0x76A JUMP JUMPDEST PUSH1 0x40 MLOAD PUSH3 0x461BCD PUSH1 0xE5 SHL DUP2 MSTORE PUSH1 0x20 PUSH1 0x4 DUP3 ADD MSTORE PUSH1 0xD PUSH1 0x24 DUP3 ADD MSTORE PUSH13 0x1499599D5B990819985A5B1959 PUSH1 0x9A SHL PUSH1 0x44 DUP3 ADD MSTORE PUSH1 0x64 SWAP1 REVERT JUMPDEST PUSH4 0x4E487B71 PUSH1 0xE0 SHL PUSH1 0x0 MSTORE PUSH1 0x11 PUSH1 0x4 MSTORE PUSH1 0x24 PUSH1 0x0 REVERT JUMPDEST PUSH1 0x40 MLOAD PUSH3 0x461BCD PUSH1 0xE5 SHL DUP2 MSTORE PUSH1 0x20 PUSH1 0x4 DUP3 ADD MSTORE PUSH1 0xD PUSH1 0x24 DUP3 ADD MSTORE PUSH13 0x14185E5BDD5D0819985A5B1959 PUSH1 0x9A SHL PUSH1 0x44 DUP3 ADD MSTORE PUSH1 0x64 SWAP1 REVERT JUMPDEST PUSH1 0x5 SLOAD PUSH1 0x1 PUSH1 0x1 PUSH1 0xA0 SHL SUB AND SWAP1 DUP2 EXTCODESIZE ISZERO PUSH2 0x1D6 JUMPI PUSH1 0x40 MLOAD SWAP2 PUSH4 0x1AA1FF5 PUSH1 0xE1 SHL DUP4 MSTORE CALLER PUSH1 0x4 DUP5 ADD MSTORE PUSH1 0x4 CALLDATALOAD PUSH1 0x24 DUP5 ADD MSTORE PUSH1 0x60 PUSH1 0x44 DUP5 ADD MSTORE DUP3 PUSH1 0x0 PUSH1 0x2 DUP7 ADD SLOAD PUSH2 0x890 DUP2 PUSH2 0x1D60 JUMP JUMPDEST SWAP1 DUP2 PUSH1 0x64 DUP6 ADD MSTORE PUSH1 0x1 DUP2 AND SWAP1 DUP2 PUSH1 0x0 EQ PUSH2 0x950 JUMPI POP PUSH1 0x1 EQ PUSH2 0x90F JUMPI JUMPDEST POP SWAP2 DUP2 PUSH1 0x0 DUP2 DUP2 SWAP6 SUB SWAP3 GAS CALL DUP1 ISZERO PUSH2 0x903 JUMPI PUSH2 0x8D3 JUMPI JUMPDEST PUSH2 0x8CE SWAP2 POP PUSH2 0x2101 JUMP JUMPDEST PUSH2 0x728 JUMP JUMPDEST PUSH1 0x1 PUSH1 0x1 PUSH1 0x40 SHL SUB DUP3 GT PUSH2 0x8ED JUMPI PUSH2 0x8CE SWAP2 PUSH1 0x40 MSTORE PUSH2 0x8C4 JUMP JUMPDEST PUSH4 0x4E487B71 PUSH1 0xE0 SHL PUSH1 0x0 MSTORE PUSH1 0x41 PUSH1 0x4 MSTORE PUSH1 0x24 PUSH1 0x0 REVERT JUMPDEST PUSH1 0x40 MLOAD RETURNDATASIZE PUSH1 0x0 DUP3 RETURNDATACOPY RETURNDATASIZE SWAP1 REVERT JUMPDEST SWAP1 POP PUSH1 0x2 DUP7 ADD PUSH1 0x0 MSTORE PUSH1 0x20 PUSH1 0x0 KECCAK256 SWAP1 PUSH1 0x0 SWAP2 JUMPDEST DUP2 DUP4 LT PUSH2 0x936 JUMPI POP POP DUP2 ADD PUSH1 0x84 ADD DUP2 PUSH2 0x8AD JUMP JUMPDEST DUP1 SLOAD PUSH1 0x84 DUP5 DUP10 ADD ADD MSTORE DUP7 SWAP4 POP PUSH1 0x20 SWAP1 SWAP3 ADD SWAP2 PUSH1 0x1 ADD PUSH2 0x922 JUMP JUMPDEST PUSH1 0xFF NOT AND PUSH1 0x84 DUP1 DUP7 ADD SWAP2 SWAP1 SWAP2 MSTORE SWAP2 ISZERO ISZERO PUSH1 0x5 SHL DUP5 ADD SWAP1 SWAP2 ADD SWAP2 POP DUP3 SWAP1 POP PUSH2 0x8AD JUMP JUMPDEST PUSH1 0x40 MLOAD PUSH3 0x461BCD PUSH1 0xE5 SHL DUP2 MSTORE PUSH1 0x20 PUSH1 0x4 DUP3 ADD MSTORE PUSH1 0x24 DUP1 DUP3 ADD MSTORE PUSH32 0x455243313135353A206275726E20616D6F756E7420657863656564732062616C PUSH1 0x44 DUP3 ADD MSTORE PUSH4 0x616E6365 PUSH1 0xE0 SHL PUSH1 0x64 DUP3 ADD MSTORE PUSH1 0x84 SWAP1 REVERT JUMPDEST PUSH1 0x40 MLOAD PUSH3 0x461BCD PUSH1 0xE5 SHL DUP2 MSTORE PUSH1 0x20 PUSH1 0x4 DUP3 ADD MSTORE PUSH1 0x23 PUSH1 0x24 DUP3 ADD MSTORE PUSH32 0x455243313135353A206275726E2066726F6D20746865207A65726F2061646472 PUSH1 0x44 DUP3 ADD MSTORE PUSH3 0x657373 PUSH1 0xE8 SHL PUSH1 0x64 DUP3 ADD MSTORE PUSH1 0x84 SWAP1 REVERT JUMPDEST PUSH1 0x40 MLOAD PUSH3 0x461BCD PUSH1 0xE5 SHL DUP2 MSTORE PUSH1 0x20 PUSH1 0x4 DUP3 ADD MSTORE PUSH1 0x12 PUSH1 0x24 DUP3 ADD MSTORE PUSH18 0x4E6F7420656E6F756768207469636B657473 PUSH1 0x70 SHL PUSH1 0x44 DUP3 ADD MSTORE PUSH1 0x64 SWAP1 REVERT JUMPDEST PUSH1 0x40 MLOAD PUSH3 0x461BCD PUSH1 0xE5 SHL DUP2 MSTORE PUSH1 0x20 PUSH1 0x4 DUP3 ADD MSTORE PUSH1 0x14 PUSH1 0x24 DUP3 ADD MSTORE PUSH20 0x125B9CDD59999A58DA595B9D081C185E5B595B9D PUSH1 0x62 SHL PUSH1 0x44 DUP3 ADD MSTORE PUSH1 0x64 SWAP1 REVERT JUMPDEST PUSH1 0x40 MLOAD PUSH3 0x461BCD PUSH1 0xE5 SHL DUP2 MSTORE PUSH1 0x20 PUSH1 0x4 DUP3 ADD MSTORE PUSH1 0x12 PUSH1 0x24 DUP3 ADD MSTORE PUSH18 0x115D995B9D081A185CC81BD8D8DD5C9C9959 PUSH1 0x72 SHL PUSH1 0x44 DUP3 ADD MSTORE PUSH1 0x64 SWAP1 REVERT JUMPDEST PUSH1 0x40 MLOAD PUSH3 0x461BCD PUSH1 0xE5 SHL DUP2 MSTORE PUSH1 0x20 PUSH1 0x4 DUP3 ADD MSTORE PUSH1 0x10 PUSH1 0x24 DUP3 ADD MSTORE PUSH16 0x4576656E74206E6F7420616374697665 PUSH1 0x80 SHL PUSH1 0x44 DUP3 ADD MSTORE PUSH1 0x64 SWAP1 REVERT JUMPDEST CALLVALUE PUSH2 0x1D6 JUMPI PUSH1 0xA0 CALLDATASIZE PUSH1 0x3 NOT ADD SLT PUSH2 0x1D6 JUMPI PUSH2 0xB15 PUSH2 0x1D05 JUMP JUMPDEST POP PUSH2 0xB1E PUSH2 0x1D1B JUMP JUMPDEST POP PUSH1 0x1 PUSH1 0x1 PUSH1 0x40 SHL SUB PUSH1 0x44 CALLDATALOAD DUP2 DUP2 GT PUSH2 0x1D6 JUMPI PUSH2 0xB3F SWAP1 CALLDATASIZE SWAP1 PUSH1 0x4 ADD PUSH2 0x1FC7 JUMP JUMPDEST POP POP PUSH1 0x64 CALLDATALOAD DUP2 DUP2 GT PUSH2 0x1D6 JUMPI PUSH2 0xB59 SWAP1 CALLDATASIZE SWAP1 PUSH1 0x4 ADD PUSH2 0x1FC7 JUMP JUMPDEST POP POP PUSH1 0x84 CALLDATALOAD SWAP1 DUP2 GT PUSH2 0x1D6 JUMPI PUSH2 0xB73 SWAP1 CALLDATASIZE SWAP1 PUSH1 0x4 ADD PUSH2 0x1FF7 JUMP JUMPDEST POP POP PUSH1 0x40 MLOAD PUSH4 0xBC197C81 PUSH1 0xE0 SHL DUP2 MSTORE PUSH1 0x20 SWAP1 RETURN JUMPDEST CALLVALUE PUSH2 0x1D6 JUMPI PUSH1 0x0 CALLDATASIZE PUSH1 0x3 NOT ADD SLT PUSH2 0x1D6 JUMPI PUSH1 0x5 SLOAD PUSH1 0x40 MLOAD PUSH1 0x1 PUSH1 0x1 PUSH1 0xA0 SHL SUB SWAP1 SWAP2 AND DUP2 MSTORE PUSH1 0x20 SWAP1 RETURN JUMPDEST CALLVALUE PUSH2 0x1D6 JUMPI PUSH1 0xC0 CALLDATASIZE PUSH1 0x3 NOT ADD SLT PUSH2 0x1D6 JUMPI PUSH1 0x4 CALLDATALOAD PUSH1 0x1 PUSH1 0x1 PUSH1 0x40 SHL SUB DUP2 GT PUSH2 0x1D6 JUMPI PUSH2 0xBE0 SWAP1 CALLDATASIZE SWAP1 PUSH1 0x4 ADD PUSH2 0x1F4C JUMP JUMPDEST PUSH1 0x44 CALLDATALOAD PUSH1 0x1 PUSH1 0x1 PUSH1 0x40 SHL SUB DUP2 GT PUSH2 0x1D6 JUMPI PUSH2 0xBFF SWAP1 CALLDATASIZE SWAP1 PUSH1 0x4 ADD PUSH2 0x1F4C JUMP JUMPDEST SWAP1 PUSH1 0x64 CALLDATALOAD PUSH1 0x1 PUSH1 0x1 PUSH1 0x40 SHL SUB DUP2 GT PUSH2 0x1D6 JUMPI PUSH2 0xC1F SWAP1 CALLDATASIZE SWAP1 PUSH1 0x4 ADD PUSH2 0x1F4C JUMP JUMPDEST PUSH32 0xF6604D94064ACAAC8D13E1EB73176D55487E2F8ABDA34AB500AB76D24B0CDA44 PUSH1 0x40 DUP1 MLOAD TIMESTAMP DUP2 MSTORE PUSH1 0x24 CALLDATALOAD PUSH1 0x20 DUP3 ADD MSTORE LOG1 TIMESTAMP PUSH1 0x24 CALLDATALOAD LT PUSH2 0x1368 JUMPI DUP3 MLOAD ISZERO PUSH2 0x132F JUMPI DUP1 MLOAD ISZERO PUSH2 0x12F5 JUMPI PUSH1 0x84 CALLDATALOAD ISZERO PUSH2 0x12B0 JUMPI PUSH1 0x1 PUSH1 0x4 SLOAD ADD SWAP2 DUP3 PUSH1 0x4 SSTORE PUSH1 0x40 MLOAD SWAP1 DUP2 PUSH1 0xE0 DUP2 ADD LT PUSH1 0x1 PUSH1 0x1 PUSH1 0x40 SHL SUB PUSH1 0xE0 DUP5 ADD GT OR PUSH2 0x8ED JUMPI PUSH1 0xE0 DUP3 ADD PUSH1 0x40 MSTORE DUP2 MSTORE PUSH1 0x24 CALLDATALOAD PUSH1 0x20 DUP3 ADD MSTORE DUP4 PUSH1 0x40 DUP3 ADD MSTORE DUP2 PUSH1 0x60 DUP3 ADD MSTORE CALLER PUSH1 0x80 DUP3 ADD MSTORE PUSH1 0x1 PUSH1 0xA0 DUP3 ADD MSTORE PUSH1 0xA4 CALLDATALOAD PUSH1 0xC0 DUP3 ADD MSTORE DUP3 PUSH1 0x0 MSTORE PUSH1 0x6 PUSH1 0x20 MSTORE PUSH1 0x40 PUSH1 0x0 KECCAK256 SWAP1 DUP1 MLOAD DUP1 MLOAD SWAP1 PUSH1 0x1 PUSH1 0x1 PUSH1 0x40 SHL SUB DUP3 GT PUSH2 0x8ED JUMPI DUP2 SWAP1 PUSH2 0xCF6 DUP6 SLOAD PUSH2 0x1D60 JUMP JUMPDEST PUSH1 0x1F DUP2 GT PUSH2 0x1260 JUMPI JUMPDEST POP PUSH1 0x20 SWAP1 PUSH1 0x1F DUP4 GT PUSH1 0x1 EQ PUSH2 0x11FA JUMPI PUSH1 0x0 SWAP3 PUSH2 0x11EF JUMPI JUMPDEST POP POP DUP2 PUSH1 0x1 SHL SWAP2 PUSH1 0x0 NOT SWAP1 PUSH1 0x3 SHL SHR NOT AND OR DUP3 SSTORE JUMPDEST PUSH1 0x20 DUP2 ADD MLOAD PUSH1 0x1 DUP4 ADD SSTORE PUSH1 0x40 DUP2 ADD MLOAD DUP1 MLOAD SWAP1 PUSH1 0x1 PUSH1 0x1 PUSH1 0x40 SHL SUB DUP3 GT PUSH2 0x8ED JUMPI DUP2 SWAP1 PUSH2 0xD5A PUSH1 0x2 DUP7 ADD SLOAD PUSH2 0x1D60 JUMP JUMPDEST PUSH1 0x1F DUP2 GT PUSH2 0x119C JUMPI JUMPDEST POP PUSH1 0x20 SWAP1 PUSH1 0x1F DUP4 GT PUSH1 0x1 EQ PUSH2 0x112F JUMPI PUSH1 0x0 SWAP3 PUSH2 0x1124 JUMPI JUMPDEST POP POP DUP2 PUSH1 0x1 SHL SWAP2 PUSH1 0x0 NOT SWAP1 PUSH1 0x3 SHL SHR NOT AND OR PUSH1 0x2 DUP4 ADD SSTORE JUMPDEST PUSH1 0x60 DUP2 ADD MLOAD DUP1 MLOAD SWAP1 PUSH1 0x1 PUSH1 0x1 PUSH1 0x40 SHL SUB DUP3 GT PUSH2 0x8ED JUMPI PUSH2 0xDB5 PUSH1 0x3 DUP6 ADD SLOAD PUSH2 0x1D60 JUMP JUMPDEST PUSH1 0x1F DUP2 GT PUSH2 0x10DD JUMPI JUMPDEST POP PUSH1 0x20 SWAP1 PUSH1 0x1F DUP4 GT PUSH1 0x1 EQ PUSH2 0x106A JUMPI SWAP2 DUP1 PUSH1 0x5 SWAP5 SWAP3 PUSH1 0xC0 SWAP5 PUSH1 0x0 SWAP3 PUSH2 0x105F JUMPI JUMPDEST POP POP DUP2 PUSH1 0x1 SHL SWAP2 PUSH1 0x0 NOT SWAP1 PUSH1 0x3 SHL SHR NOT AND OR PUSH1 0x3 DUP6 ADD SSTORE JUMPDEST PUSH1 0x4 DUP5 ADD PUSH1 0x1 DUP1 PUSH1 0xA0 SHL SUB PUSH1 0x80 DUP4 ADD MLOAD AND DUP2 SLOAD SWAP1 PUSH1 0xFF PUSH1 0xA0 SHL PUSH1 0xA0 DUP6 ADD MLOAD ISZERO ISZERO PUSH1 0xA0 SHL AND SWAP2 PUSH11 0xFFFFFFFFFFFFFFFFFFFFFF PUSH1 0xA8 SHL AND OR OR SWAP1 SSTORE ADD MLOAD SWAP2 ADD SSTORE PUSH1 0x40 MLOAD PUSH2 0xE40 DUP2 PUSH2 0x1D9A JUMP JUMPDEST PUSH1 0x0 DUP2 MSTORE ADDRESS ISZERO PUSH2 0x1010 JUMPI PUSH2 0xE53 DUP4 PUSH2 0x2367 JUMP JUMPDEST POP PUSH2 0xE5F PUSH1 0x84 CALLDATALOAD PUSH2 0x2367 JUMP JUMPDEST POP DUP3 PUSH1 0x0 MSTORE PUSH1 0x0 PUSH1 0x20 MSTORE PUSH1 0x40 PUSH1 0x0 KECCAK256 ADDRESS PUSH1 0x0 MSTORE PUSH1 0x20 MSTORE PUSH1 0x40 PUSH1 0x0 KECCAK256 PUSH2 0xE87 PUSH1 0x84 CALLDATALOAD DUP3 SLOAD PUSH2 0x2256 JUMP JUMPDEST SWAP1 SSTORE PUSH1 0x40 MLOAD DUP4 DUP2 MSTORE PUSH1 0x84 CALLDATALOAD PUSH1 0x20 DUP3 ADD MSTORE PUSH1 0x0 ADDRESS SWAP2 PUSH32 0xC3D58168C5AE7397731D063D5BBF3D657854427343F4C083240F7AACAA2D0F62 PUSH1 0x40 CALLER SWAP3 LOG4 ADDRESS EXTCODESIZE PUSH2 0xF21 JUMPI JUMPDEST POP DUP2 PUSH32 0x74C22F9F773D1D8C02DDAA6DEEEAA696CACBFEA0BE35360F9B2C253B13938F6F PUSH2 0xF08 PUSH1 0x20 SWAP6 PUSH2 0xF16 PUSH1 0x40 MLOAD SWAP3 DUP4 SWAP3 PUSH1 0x40 DUP5 MSTORE PUSH1 0x40 DUP5 ADD SWAP1 PUSH2 0x1E7C JUMP JUMPDEST DUP3 DUP2 SUB DUP10 DUP5 ADD MSTORE CALLER SWAP7 PUSH2 0x1E7C JUMP JUMPDEST SUB SWAP1 LOG3 PUSH1 0x40 MLOAD SWAP1 DUP2 MSTORE RETURN JUMPDEST PUSH1 0x40 MLOAD PUSH1 0x20 DUP2 DUP1 PUSH2 0xF63 PUSH4 0xF23A6E61 PUSH1 0xE0 SHL SWAP6 DUP7 DUP4 MSTORE CALLER PUSH1 0x4 DUP5 ADD MSTORE PUSH1 0x0 PUSH1 0x24 DUP5 ADD MSTORE DUP9 PUSH1 0x44 DUP5 ADD MSTORE PUSH1 0x84 CALLDATALOAD PUSH1 0x64 DUP5 ADD MSTORE PUSH1 0xA0 PUSH1 0x84 DUP5 ADD MSTORE PUSH1 0xA4 DUP4 ADD SWAP1 PUSH2 0x1E7C JUMP JUMPDEST SUB DUP2 PUSH1 0x0 ADDRESS GAS CALL PUSH1 0x0 SWAP2 DUP2 PUSH2 0xFEF JUMPI JUMPDEST POP PUSH2 0xFDA JUMPI PUSH2 0xF80 PUSH2 0x2283 JUMP JUMPDEST PUSH4 0x8C379A0 EQ PUSH2 0xFA3 JUMPI PUSH1 0x40 MLOAD PUSH3 0x461BCD PUSH1 0xE5 SHL DUP2 MSTORE DUP1 PUSH2 0x387 PUSH1 0x4 DUP3 ADD PUSH2 0x2312 JUMP JUMPDEST PUSH2 0xFAB PUSH2 0x22A1 JUMP JUMPDEST DUP1 PUSH2 0xFB6 JUMPI POP PUSH2 0x36E JUMP JUMPDEST PUSH1 0x40 MLOAD PUSH3 0x461BCD PUSH1 0xE5 SHL DUP2 MSTORE PUSH1 0x20 PUSH1 0x4 DUP3 ADD MSTORE SWAP1 DUP2 SWAP1 PUSH2 0x387 SWAP1 PUSH1 0x24 DUP4 ADD SWAP1 PUSH2 0x1E7C JUMP JUMPDEST PUSH1 0x1 PUSH1 0x1 PUSH1 0xE0 SHL SUB NOT AND SUB PUSH2 0x3D3 JUMPI DUP2 PUSH2 0xEC8 JUMP JUMPDEST PUSH2 0x1009 SWAP2 SWAP3 POP PUSH1 0x20 RETURNDATASIZE PUSH1 0x20 GT PUSH2 0x451 JUMPI PUSH2 0x442 DUP2 DUP4 PUSH2 0x1DB5 JUMP JUMPDEST SWAP1 DUP7 PUSH2 0xF73 JUMP JUMPDEST PUSH1 0x40 MLOAD PUSH3 0x461BCD PUSH1 0xE5 SHL DUP2 MSTORE PUSH1 0x20 PUSH1 0x4 DUP3 ADD MSTORE PUSH1 0x21 PUSH1 0x24 DUP3 ADD MSTORE PUSH32 0x455243313135353A206D696E7420746F20746865207A65726F20616464726573 PUSH1 0x44 DUP3 ADD MSTORE PUSH1 0x73 PUSH1 0xF8 SHL PUSH1 0x64 DUP3 ADD MSTORE PUSH1 0x84 SWAP1 REVERT JUMPDEST ADD MLOAD SWAP1 POP DUP10 DUP1 PUSH2 0xDDE JUMP JUMPDEST SWAP1 PUSH1 0x1F NOT DUP4 AND SWAP2 PUSH1 0x3 DUP7 ADD PUSH1 0x0 MSTORE PUSH1 0x20 PUSH1 0x0 KECCAK256 SWAP3 PUSH1 0x0 JUMPDEST DUP2 DUP2 LT PUSH2 0x10C5 JUMPI POP SWAP3 PUSH1 0x1 SWAP3 DUP6 SWAP3 PUSH1 0xC0 SWAP7 PUSH1 0x5 SWAP9 SWAP7 LT PUSH2 0x10AC JUMPI JUMPDEST POP POP POP DUP2 SHL ADD PUSH1 0x3 DUP6 ADD SSTORE PUSH2 0xDF6 JUMP JUMPDEST ADD MLOAD PUSH1 0x0 NOT PUSH1 0xF8 DUP5 PUSH1 0x3 SHL AND SHR NOT AND SWAP1 SSTORE DUP10 DUP1 DUP1 PUSH2 0x109C JUMP JUMPDEST SWAP3 SWAP4 PUSH1 0x20 PUSH1 0x1 DUP2 SWAP3 DUP8 DUP7 ADD MLOAD DUP2 SSTORE ADD SWAP6 ADD SWAP4 ADD PUSH2 0x1081 JUMP JUMPDEST PUSH1 0x3 DUP6 ADD PUSH1 0x0 MSTORE PUSH1 0x20 PUSH1 0x0 KECCAK256 PUSH1 0x1F DUP5 ADD PUSH1 0x5 SHR DUP2 ADD PUSH1 0x20 DUP6 LT PUSH2 0x111D JUMPI JUMPDEST PUSH1 0x1F DUP4 ADD PUSH1 0x5 SHR DUP3 ADD DUP2 LT PUSH2 0x1111 JUMPI POP POP PUSH2 0xDBE JUMP JUMPDEST PUSH1 0x0 DUP2 SSTORE PUSH1 0x1 ADD PUSH2 0x10FB JUMP JUMPDEST POP DUP1 PUSH2 0x10FB JUMP JUMPDEST ADD MLOAD SWAP1 POP DUP8 DUP1 PUSH2 0xD7A JUMP JUMPDEST PUSH1 0x2 DUP7 ADD PUSH1 0x0 SWAP1 DUP2 MSTORE PUSH1 0x20 DUP2 KECCAK256 SWAP4 POP PUSH1 0x1F NOT DUP6 AND SWAP1 JUMPDEST DUP2 DUP2 LT PUSH2 0x1184 JUMPI POP SWAP1 DUP5 PUSH1 0x1 SWAP6 SWAP5 SWAP4 SWAP3 LT PUSH2 0x116B JUMPI JUMPDEST POP POP POP DUP2 SHL ADD PUSH1 0x2 DUP4 ADD SSTORE PUSH2 0xD92 JUMP JUMPDEST ADD MLOAD PUSH1 0x0 NOT PUSH1 0xF8 DUP5 PUSH1 0x3 SHL AND SHR NOT AND SWAP1 SSTORE DUP8 DUP1 DUP1 PUSH2 0x115B JUMP JUMPDEST SWAP3 SWAP4 PUSH1 0x20 PUSH1 0x1 DUP2 SWAP3 DUP8 DUP7 ADD MLOAD DUP2 SSTORE ADD SWAP6 ADD SWAP4 ADD PUSH2 0x1145 JUMP JUMPDEST SWAP1 SWAP2 POP PUSH1 0x2 DUP6 ADD PUSH1 0x0 MSTORE PUSH1 0x20 PUSH1 0x0 KECCAK256 PUSH1 0x1F DUP5 ADD PUSH1 0x5 SHR DUP2 ADD PUSH1 0x20 DUP6 LT PUSH2 0x11E8 JUMPI JUMPDEST SWAP1 DUP5 SWAP4 SWAP3 SWAP2 JUMPDEST PUSH1 0x1F DUP4 ADD PUSH1 0x5 SHR DUP3 ADD DUP2 LT PUSH2 0x11D9 JUMPI POP POP PUSH2 0xD63 JUMP JUMPDEST PUSH1 0x0 DUP2 SSTORE DUP6 SWAP5 POP PUSH1 0x1 ADD PUSH2 0x11C3 JUMP JUMPDEST POP DUP1 PUSH2 0x11BD JUMP JUMPDEST ADD MLOAD SWAP1 POP DUP8 DUP1 PUSH2 0xD16 JUMP JUMPDEST PUSH1 0x0 DUP7 DUP2 MSTORE PUSH1 0x20 DUP2 KECCAK256 SWAP4 POP PUSH1 0x1F NOT DUP6 AND SWAP1 JUMPDEST DUP2 DUP2 LT PUSH2 0x1248 JUMPI POP SWAP1 DUP5 PUSH1 0x1 SWAP6 SWAP5 SWAP4 SWAP3 LT PUSH2 0x122F JUMPI JUMPDEST POP POP POP DUP2 SHL ADD DUP3 SSTORE PUSH2 0xD2B JUMP JUMPDEST ADD MLOAD PUSH1 0x0 NOT PUSH1 0xF8 DUP5 PUSH1 0x3 SHL AND SHR NOT AND SWAP1 SSTORE DUP8 DUP1 DUP1 PUSH2 0x1222 JUMP JUMPDEST SWAP3 SWAP4 PUSH1 0x20 PUSH1 0x1 DUP2 SWAP3 DUP8 DUP7 ADD MLOAD DUP2 SSTORE ADD SWAP6 ADD SWAP4 ADD PUSH2 0x120C JUMP JUMPDEST SWAP1 SWAP2 POP DUP5 PUSH1 0x0 MSTORE PUSH1 0x20 PUSH1 0x0 KECCAK256 PUSH1 0x1F DUP5 ADD PUSH1 0x5 SHR DUP2 ADD PUSH1 0x20 DUP6 LT PUSH2 0x12A9 JUMPI JUMPDEST SWAP1 DUP5 SWAP4 SWAP3 SWAP2 JUMPDEST PUSH1 0x1F DUP4 ADD PUSH1 0x5 SHR DUP3 ADD DUP2 LT PUSH2 0x129A JUMPI POP POP PUSH2 0xCFF JUMP JUMPDEST PUSH1 0x0 DUP2 SSTORE DUP6 SWAP5 POP PUSH1 0x1 ADD PUSH2 0x1284 JUMP JUMPDEST POP DUP1 PUSH2 0x127E JUMP JUMPDEST PUSH1 0x40 MLOAD PUSH3 0x461BCD PUSH1 0xE5 SHL DUP2 MSTORE PUSH1 0x20 PUSH1 0x4 DUP3 ADD MSTORE PUSH1 0x19 PUSH1 0x24 DUP3 ADD MSTORE PUSH32 0x5469636B657420737570706C79206D757374206265203E203000000000000000 PUSH1 0x44 DUP3 ADD MSTORE PUSH1 0x64 SWAP1 REVERT JUMPDEST PUSH1 0x40 MLOAD PUSH3 0x461BCD PUSH1 0xE5 SHL DUP2 MSTORE PUSH1 0x20 PUSH1 0x4 DUP3 ADD MSTORE PUSH1 0x12 PUSH1 0x24 DUP3 ADD MSTORE PUSH18 0x125B5859D94810D251081C995C5D5A5C9959 PUSH1 0x72 SHL PUSH1 0x44 DUP3 ADD MSTORE PUSH1 0x64 SWAP1 REVERT JUMPDEST PUSH1 0x40 MLOAD PUSH3 0x461BCD PUSH1 0xE5 SHL DUP2 MSTORE PUSH1 0x20 PUSH1 0x4 DUP3 ADD MSTORE PUSH1 0x11 PUSH1 0x24 DUP3 ADD MSTORE PUSH17 0x12541194C810D251081C995C5D5A5C9959 PUSH1 0x7A SHL PUSH1 0x44 DUP3 ADD MSTORE PUSH1 0x64 SWAP1 REVERT JUMPDEST PUSH1 0x40 MLOAD PUSH3 0x461BCD PUSH1 0xE5 SHL DUP2 MSTORE PUSH1 0x20 PUSH1 0x4 DUP3 ADD MSTORE PUSH1 0x19 PUSH1 0x24 DUP3 ADD MSTORE PUSH32 0x4576656E742064617465206D757374206265203E3D206E6F7700000000000000 PUSH1 0x44 DUP3 ADD MSTORE PUSH1 0x64 SWAP1 REVERT JUMPDEST CALLVALUE PUSH2 0x1D6 JUMPI PUSH1 0x40 CALLDATASIZE PUSH1 0x3 NOT ADD SLT PUSH2 0x1D6 JUMPI PUSH2 0x13C6 PUSH2 0x1D05 JUMP JUMPDEST PUSH1 0x24 CALLDATALOAD SWAP1 DUP2 ISZERO ISZERO DUP1 SWAP3 SUB PUSH2 0x1D6 JUMPI PUSH1 0x1 PUSH1 0x1 PUSH1 0xA0 SHL SUB AND SWAP1 CALLER DUP3 EQ PUSH2 0x143A JUMPI CALLER PUSH1 0x0 MSTORE PUSH1 0x1 PUSH1 0x20 MSTORE PUSH1 0x40 PUSH1 0x0 KECCAK256 DUP3 PUSH1 0x0 MSTORE PUSH1 0x20 MSTORE PUSH1 0x40 PUSH1 0x0 KECCAK256 PUSH1 0xFF NOT DUP2 SLOAD AND PUSH1 0xFF DUP4 AND OR SWAP1 SSTORE PUSH1 0x40 MLOAD SWAP1 DUP2 MSTORE PUSH32 0x17307EAB39AB6107E8899845AD3D59BD9653F200F220920489CA2B5937696C31 PUSH1 0x20 CALLER SWAP3 LOG3 STOP JUMPDEST PUSH1 0x40 MLOAD PUSH3 0x461BCD PUSH1 0xE5 SHL DUP2 MSTORE PUSH1 0x20 PUSH1 0x4 DUP3 ADD MSTORE PUSH1 0x29 PUSH1 0x24 DUP3 ADD MSTORE PUSH32 0x455243313135353A2073657474696E6720617070726F76616C20737461747573 PUSH1 0x44 DUP3 ADD MSTORE PUSH9 0x103337B91039B2B633 PUSH1 0xB9 SHL PUSH1 0x64 DUP3 ADD MSTORE PUSH1 0x84 SWAP1 REVERT JUMPDEST CALLVALUE PUSH2 0x1D6 JUMPI PUSH1 0x20 CALLDATASIZE PUSH1 0x3 NOT ADD SLT PUSH2 0x1D6 JUMPI PUSH2 0x14AA PUSH2 0x1D05 JUMP JUMPDEST PUSH2 0x14B2 PUSH2 0x2024 JUMP JUMPDEST PUSH1 0x5 DUP1 SLOAD PUSH1 0x1 PUSH1 0x1 PUSH1 0xA0 SHL SUB NOT AND PUSH1 0x1 PUSH1 0x1 PUSH1 0xA0 SHL SUB SWAP3 SWAP1 SWAP3 AND SWAP2 SWAP1 SWAP2 OR SWAP1 SSTORE STOP JUMPDEST CALLVALUE PUSH2 0x1D6 JUMPI PUSH1 0x20 CALLDATASIZE PUSH1 0x3 NOT ADD SLT PUSH2 0x1D6 JUMPI PUSH1 0x4 DUP1 CALLDATALOAD PUSH1 0x0 DUP2 DUP2 MSTORE PUSH1 0x6 PUSH1 0x20 MSTORE PUSH1 0x40 SWAP1 KECCAK256 SWAP1 SWAP2 ADD SLOAD PUSH1 0x1 PUSH1 0x1 PUSH1 0xA0 SHL SUB AND CALLER SUB PUSH2 0x1528 JUMPI PUSH1 0x0 SWAP1 DUP2 MSTORE PUSH1 0x6 PUSH1 0x20 MSTORE PUSH1 0x40 SWAP1 KECCAK256 PUSH1 0x4 ADD DUP1 SLOAD PUSH1 0xFF PUSH1 0xA0 SHL NOT AND SWAP1 SSTORE STOP JUMPDEST PUSH1 0x40 MLOAD PUSH3 0x461BCD PUSH1 0xE5 SHL DUP2 MSTORE PUSH1 0x20 PUSH1 0x4 DUP3 ADD MSTORE PUSH1 0x1F PUSH1 0x24 DUP3 ADD MSTORE PUSH32 0x4F6E6C79206576656E74206F776E65722063616E206465616374697661746500 PUSH1 0x44 DUP3 ADD MSTORE PUSH1 0x64 SWAP1 REVERT JUMPDEST PUSH2 0x1D31 JUMP JUMPDEST CALLVALUE PUSH2 0x1D6 JUMPI PUSH1 0x0 CALLDATASIZE PUSH1 0x3 NOT ADD SLT PUSH2 0x1D6 JUMPI PUSH1 0x3 SLOAD PUSH1 0x40 MLOAD PUSH1 0x1 PUSH1 0x1 PUSH1 0xA0 SHL SUB SWAP1 SWAP2 AND DUP2 MSTORE PUSH1 0x20 SWAP1 RETURN JUMPDEST CALLVALUE PUSH2 0x1D6 JUMPI PUSH1 0x0 CALLDATASIZE PUSH1 0x3 NOT ADD SLT PUSH2 0x1D6 JUMPI PUSH2 0x15B4 PUSH2 0x2024 JUMP JUMPDEST PUSH1 0x3 DUP1 SLOAD PUSH1 0x1 PUSH1 0x1 PUSH1 0xA0 SHL SUB NOT DUP2 AND SWAP1 SWAP2 SSTORE PUSH1 0x0 SWAP1 PUSH1 0x1 PUSH1 0x1 PUSH1 0xA0 SHL SUB AND PUSH32 0x8BE0079C531659141344CD1FD0A4F28419497F9722A3DAAFE3B4186F6B6457E0 DUP3 DUP1 LOG3 STOP JUMPDEST CALLVALUE PUSH2 0x1D6 JUMPI PUSH1 0x40 CALLDATASIZE PUSH1 0x3 NOT ADD SLT PUSH2 0x1D6 JUMPI PUSH1 0x4 CALLDATALOAD PUSH1 0x1 PUSH1 0x1 PUSH1 0x40 SHL SUB DUP1 DUP3 GT PUSH2 0x1D6 JUMPI CALLDATASIZE PUSH1 0x23 DUP4 ADD SLT ISZERO PUSH2 0x1D6 JUMPI DUP2 PUSH1 0x4 ADD CALLDATALOAD SWAP1 PUSH2 0x1635 DUP3 PUSH2 0x1EBC JUMP JUMPDEST SWAP3 PUSH2 0x1643 PUSH1 0x40 MLOAD SWAP5 DUP6 PUSH2 0x1DB5 JUMP JUMPDEST DUP3 DUP5 MSTORE PUSH1 0x20 SWAP3 PUSH1 0x24 DUP5 DUP7 ADD SWAP2 PUSH1 0x5 SHL DUP4 ADD ADD SWAP2 CALLDATASIZE DUP4 GT PUSH2 0x1D6 JUMPI PUSH1 0x24 ADD SWAP1 JUMPDEST DUP3 DUP3 LT PUSH2 0x177B JUMPI POP POP POP PUSH1 0x24 CALLDATALOAD SWAP1 DUP2 GT PUSH2 0x1D6 JUMPI PUSH2 0x1684 SWAP1 CALLDATASIZE SWAP1 PUSH1 0x4 ADD PUSH2 0x1ED3 JUMP JUMPDEST DUP3 MLOAD DUP2 MLOAD SUB PUSH2 0x1724 JUMPI DUP3 MLOAD SWAP3 PUSH2 0x1699 DUP5 PUSH2 0x1EBC JUMP JUMPDEST SWAP4 PUSH2 0x16A7 PUSH1 0x40 MLOAD SWAP6 DUP7 PUSH2 0x1DB5 JUMP JUMPDEST DUP1 DUP6 MSTORE PUSH2 0x16B6 PUSH1 0x1F NOT SWAP2 PUSH2 0x1EBC JUMP JUMPDEST ADD CALLDATASIZE DUP5 DUP7 ADD CALLDATACOPY PUSH1 0x0 JUMPDEST DUP2 MLOAD DUP2 LT ISZERO PUSH2 0x1709 JUMPI PUSH2 0x1704 SWAP1 PUSH2 0x16F4 PUSH1 0x1 PUSH1 0x1 PUSH1 0xA0 SHL SUB PUSH2 0x16E1 DUP4 DUP7 PUSH2 0x2110 JUMP JUMPDEST MLOAD AND PUSH2 0x16ED DUP4 DUP8 PUSH2 0x2110 JUMP JUMPDEST MLOAD SWAP1 PUSH2 0x207C JUMP JUMPDEST PUSH2 0x16FE DUP3 DUP9 PUSH2 0x2110 JUMP JUMPDEST MSTORE PUSH2 0x2101 JUMP JUMPDEST PUSH2 0x16BF JUMP JUMPDEST POP POP POP PUSH2 0x1720 PUSH1 0x40 MLOAD SWAP3 DUP3 DUP5 SWAP4 DUP5 MSTORE DUP4 ADD SWAP1 PUSH2 0x1F93 JUMP JUMPDEST SUB SWAP1 RETURN JUMPDEST PUSH1 0x40 MLOAD PUSH3 0x461BCD PUSH1 0xE5 SHL DUP2 MSTORE PUSH1 0x4 DUP2 ADD DUP4 SWAP1 MSTORE PUSH1 0x29 PUSH1 0x24 DUP3 ADD MSTORE PUSH32 0x455243313135353A206163636F756E747320616E6420696473206C656E677468 PUSH1 0x44 DUP3 ADD MSTORE PUSH9 0x40DAD2E6DAC2E8C6D PUSH1 0xBB SHL PUSH1 0x64 DUP3 ADD MSTORE PUSH1 0x84 SWAP1 REVERT JUMPDEST DUP2 CALLDATALOAD PUSH1 0x1 PUSH1 0x1 PUSH1 0xA0 SHL SUB DUP2 AND DUP2 SUB PUSH2 0x1D6 JUMPI DUP2 MSTORE SWAP1 DUP5 ADD SWAP1 DUP5 ADD PUSH2 0x1662 JUMP JUMPDEST CALLVALUE PUSH2 0x1D6 JUMPI PUSH1 0x20 CALLDATASIZE PUSH1 0x3 NOT ADD SLT PUSH2 0x1D6 JUMPI PUSH1 0x4 CALLDATALOAD PUSH1 0x0 MSTORE PUSH1 0x6 PUSH1 0x20 MSTORE PUSH1 0x20 PUSH1 0x40 PUSH1 0x0 KECCAK256 PUSH1 0xFF PUSH1 0x4 DUP3 ADD SLOAD PUSH1 0xA0 SHR AND SWAP1 DUP2 PUSH2 0x17DA JUMPI JUMPDEST POP PUSH1 0x40 MLOAD SWAP1 ISZERO ISZERO DUP2 MSTORE RETURN JUMPDEST PUSH1 0x1 SWAP2 POP ADD SLOAD TIMESTAMP LT DUP3 PUSH2 0x17CF JUMP JUMPDEST CALLVALUE PUSH2 0x1D6 JUMPI PUSH1 0x3 NOT PUSH1 0xA0 CALLDATASIZE DUP3 ADD SLT PUSH2 0x1D6 JUMPI PUSH2 0x1802 PUSH2 0x1D05 JUMP JUMPDEST SWAP1 PUSH2 0x180B PUSH2 0x1D1B JUMP JUMPDEST SWAP1 PUSH1 0x1 PUSH1 0x1 PUSH1 0x40 SHL SUB SWAP1 PUSH1 0x44 CALLDATALOAD DUP3 DUP2 GT PUSH2 0x1D6 JUMPI PUSH2 0x182D SWAP1 CALLDATASIZE SWAP1 PUSH1 0x4 ADD PUSH2 0x1ED3 JUMP JUMPDEST PUSH1 0x64 CALLDATALOAD DUP4 DUP2 GT PUSH2 0x1D6 JUMPI PUSH2 0x1845 SWAP1 CALLDATASIZE SWAP1 PUSH1 0x4 ADD PUSH2 0x1ED3 JUMP JUMPDEST SWAP3 PUSH1 0x84 CALLDATALOAD SWAP1 DUP2 GT PUSH2 0x1D6 JUMPI PUSH2 0x185E SWAP1 CALLDATASIZE SWAP1 PUSH1 0x4 ADD PUSH2 0x1F4C JUMP JUMPDEST PUSH1 0x1 PUSH1 0x1 PUSH1 0xA0 SHL SUB SWAP6 DUP7 AND SWAP6 SWAP1 SWAP3 SWAP1 CALLER DUP8 EQ DUP1 ISZERO PUSH2 0x1A8F JUMPI JUMPDEST PUSH2 0x1880 SWAP1 PUSH2 0x213A JUMP JUMPDEST DUP3 MLOAD DUP6 MLOAD SUB PUSH2 0x1A39 JUMPI DUP6 AND SWAP3 PUSH2 0x1897 DUP5 ISZERO ISZERO PUSH2 0x219D JUMP JUMPDEST PUSH1 0x0 JUMPDEST DUP4 MLOAD DUP2 LT ISZERO PUSH2 0x1930 JUMPI DUP1 PUSH2 0x18B1 PUSH2 0x192B SWAP3 DUP7 PUSH2 0x2110 JUMP JUMPDEST MLOAD PUSH2 0x18BC DUP3 DUP10 PUSH2 0x2110 JUMP JUMPDEST MLOAD SWAP1 DUP1 PUSH1 0x0 MSTORE PUSH1 0x20 SWAP1 PUSH1 0x0 DUP3 MSTORE PUSH1 0x40 PUSH1 0x0 KECCAK256 DUP13 PUSH1 0x0 MSTORE DUP3 MSTORE DUP3 PUSH1 0x40 PUSH1 0x0 KECCAK256 SLOAD PUSH2 0x18E7 DUP3 DUP3 LT ISZERO PUSH2 0x21F7 JUMP JUMPDEST DUP3 PUSH1 0x0 MSTORE PUSH1 0x0 DUP5 MSTORE DUP14 PUSH1 0x40 PUSH1 0x0 KECCAK256 SWAP1 PUSH1 0x0 MSTORE DUP5 MSTORE SUB PUSH1 0x40 PUSH1 0x0 KECCAK256 SSTORE PUSH1 0x0 MSTORE PUSH1 0x0 DUP2 MSTORE PUSH1 0x40 PUSH1 0x0 KECCAK256 SWAP1 DUP9 PUSH1 0x0 MSTORE MSTORE PUSH2 0x1924 PUSH1 0x40 PUSH1 0x0 KECCAK256 SWAP2 DUP3 SLOAD PUSH2 0x2256 JUMP JUMPDEST SWAP1 SSTORE PUSH2 0x2101 JUMP JUMPDEST PUSH2 0x189A JUMP JUMPDEST POP SWAP1 SWAP5 SWAP4 SWAP3 SWAP2 SWAP4 DUP3 DUP8 PUSH1 0x40 MLOAD PUSH1 0x40 DUP2 MSTORE PUSH32 0x4A39DC06D4C0DBC64B70AF90FD698A233A518AA5D07E595D983B8C0526C8F7FB PUSH2 0x196E PUSH1 0x40 DUP4 ADD DUP11 PUSH2 0x1F93 JUMP JUMPDEST SWAP2 DUP1 DUP4 SUB PUSH1 0x20 DUP3 ADD MSTORE DUP1 PUSH2 0x1983 CALLER SWAP5 DUP12 PUSH2 0x1F93 JUMP JUMPDEST SUB SWAP1 LOG4 EXTCODESIZE PUSH2 0x198D JUMPI STOP JUMPDEST PUSH1 0x0 PUSH1 0x20 SWAP5 PUSH2 0x19EE PUSH2 0x19DF SWAP8 PUSH2 0x19CF SWAP5 PUSH1 0x40 MLOAD SWAP10 DUP11 SWAP9 DUP10 SWAP8 DUP9 SWAP7 PUSH4 0xBC197C81 PUSH1 0xE0 SHL SWAP15 DUP16 DUP10 MSTORE CALLER PUSH1 0x4 DUP11 ADD MSTORE PUSH1 0x24 DUP10 ADD MSTORE PUSH1 0xA0 PUSH1 0x44 DUP10 ADD MSTORE PUSH1 0xA4 DUP9 ADD SWAP1 PUSH2 0x1F93 JUMP JUMPDEST SWAP1 DUP5 DUP8 DUP4 SUB ADD PUSH1 0x64 DUP9 ADD MSTORE PUSH2 0x1F93 JUMP JUMPDEST SWAP2 DUP5 DUP4 SUB ADD PUSH1 0x84 DUP6 ADD MSTORE PUSH2 0x1E7C JUMP JUMPDEST SUB SWAP3 GAS CALL PUSH1 0x0 SWAP2 DUP2 PUSH2 0x1A19 JUMPI JUMPDEST POP PUSH2 0x1A08 JUMPI PUSH2 0xF80 PUSH2 0x2283 JUMP JUMPDEST PUSH1 0x1 PUSH1 0x1 PUSH1 0xE0 SHL SUB NOT AND SUB PUSH2 0x3D3 JUMPI STOP JUMPDEST PUSH2 0x1A32 SWAP2 SWAP3 POP PUSH1 0x20 RETURNDATASIZE DUP2 GT PUSH2 0x451 JUMPI PUSH2 0x442 DUP2 DUP4 PUSH2 0x1DB5 JUMP JUMPDEST SWAP1 DUP4 PUSH2 0x19FB JUMP JUMPDEST PUSH1 0x40 MLOAD PUSH3 0x461BCD PUSH1 0xE5 SHL DUP2 MSTORE PUSH1 0x20 PUSH1 0x4 DUP3 ADD MSTORE PUSH1 0x28 PUSH1 0x24 DUP3 ADD MSTORE PUSH32 0x455243313135353A2069647320616E6420616D6F756E7473206C656E67746820 PUSH1 0x44 DUP3 ADD MSTORE PUSH8 0xDAD2E6DAC2E8C6D PUSH1 0xC3 SHL PUSH1 0x64 DUP3 ADD MSTORE PUSH1 0x84 SWAP1 REVERT JUMPDEST POP DUP7 PUSH1 0x0 MSTORE PUSH1 0x1 PUSH1 0x20 MSTORE PUSH1 0x40 PUSH1 0x0 KECCAK256 CALLER PUSH1 0x0 MSTORE PUSH1 0x20 MSTORE PUSH2 0x1880 PUSH1 0xFF PUSH1 0x40 PUSH1 0x0 KECCAK256 SLOAD AND SWAP1 POP PUSH2 0x1877 JUMP JUMPDEST CALLVALUE PUSH2 0x1D6 JUMPI PUSH1 0x20 DUP1 PUSH1 0x3 NOT CALLDATASIZE ADD SLT PUSH2 0x1D6 JUMPI PUSH1 0x4 CALLDATALOAD PUSH1 0x0 MSTORE PUSH1 0x6 DUP2 MSTORE PUSH1 0x2 PUSH1 0x40 PUSH1 0x0 KECCAK256 ADD SWAP1 PUSH1 0x40 MLOAD DUP1 SWAP3 PUSH7 0x697066733A2F2F PUSH1 0xC8 SHL DUP4 DUP4 ADD MSTORE PUSH1 0x0 SWAP1 DUP1 SLOAD PUSH2 0x1AFF DUP2 PUSH2 0x1D60 JUMP JUMPDEST SWAP2 PUSH1 0x1 SWAP2 DUP1 DUP4 AND SWAP1 DUP2 ISZERO PUSH2 0x1BA0 JUMPI POP PUSH1 0x1 EQ PUSH2 0x1B57 JUMPI JUMPDEST POP POP POP PUSH2 0x1B43 SWAP2 DUP2 PUSH14 0x17B6B2BA30B230BA30973539B7B7 PUSH1 0x91 SHL PUSH1 0xE SWAP4 MSTORE SUB PUSH1 0x11 NOT DUP2 ADD DUP6 MSTORE ADD DUP4 PUSH2 0x1DB5 JUMP JUMPDEST PUSH2 0x1720 PUSH1 0x40 MLOAD SWAP3 DUP3 DUP5 SWAP4 DUP5 MSTORE DUP4 ADD SWAP1 PUSH2 0x1E7C JUMP JUMPDEST SWAP1 SWAP2 SWAP4 SWAP3 POP PUSH1 0x0 MSTORE DUP4 PUSH1 0x0 KECCAK256 SWAP1 DUP5 PUSH1 0x0 SWAP3 JUMPDEST DUP6 DUP5 LT PUSH2 0x1B88 JUMPI POP POP POP POP DUP1 PUSH1 0x27 PUSH2 0x1B43 SWAP4 PUSH1 0xE SWAP4 ADD ADD SWAP2 DUP2 SWAP4 PUSH2 0x1B16 JUMP JUMPDEST DUP1 SLOAD DUP9 DUP6 ADD PUSH1 0x27 ADD MSTORE DUP8 SWAP5 POP SWAP3 ADD SWAP2 DUP6 SWAP1 DUP3 ADD PUSH2 0x1B69 JUMP JUMPDEST SWAP1 POP PUSH1 0xE SWAP5 POP PUSH1 0x27 SWAP3 POP PUSH2 0x1B43 SWAP6 SWAP4 SWAP2 POP PUSH1 0xFF NOT AND DUP3 DUP5 ADD MSTORE DUP1 ISZERO ISZERO MUL DUP3 ADD ADD SWAP2 DUP2 SWAP4 PUSH2 0x1B16 JUMP JUMPDEST CALLVALUE PUSH2 0x1D6 JUMPI PUSH1 0x20 CALLDATASIZE PUSH1 0x3 NOT ADD SLT PUSH2 0x1D6 JUMPI PUSH1 0x4 CALLDATALOAD PUSH1 0x0 MSTORE PUSH1 0x6 PUSH1 0x20 MSTORE PUSH2 0x1C3C PUSH1 0x40 PUSH1 0x0 KECCAK256 PUSH2 0x1BF5 DUP2 PUSH2 0x1DD6 JUMP JUMPDEST SWAP1 PUSH1 0x1 DUP2 ADD SLOAD PUSH1 0xFF PUSH2 0x1C5D PUSH2 0x1C0C PUSH1 0x2 DUP6 ADD PUSH2 0x1DD6 JUMP JUMPDEST SWAP3 PUSH2 0x1C4F PUSH2 0x1C1C PUSH1 0x3 DUP8 ADD PUSH2 0x1DD6 JUMP JUMPDEST SWAP2 PUSH1 0x5 PUSH1 0x4 DUP9 ADD SLOAD SWAP8 ADD SLOAD SWAP6 PUSH1 0x40 MLOAD SWAP10 DUP11 SWAP10 PUSH1 0xE0 DUP12 MSTORE PUSH1 0xE0 DUP12 ADD SWAP1 PUSH2 0x1E7C JUMP JUMPDEST SWAP2 PUSH1 0x20 DUP11 ADD MSTORE DUP9 DUP3 SUB PUSH1 0x40 DUP11 ADD MSTORE PUSH2 0x1E7C JUMP JUMPDEST SWAP1 DUP7 DUP3 SUB PUSH1 0x60 DUP9 ADD MSTORE PUSH2 0x1E7C JUMP JUMPDEST SWAP3 PUSH1 0x1 DUP1 PUSH1 0xA0 SHL SUB DUP2 AND PUSH1 0x80 DUP7 ADD MSTORE PUSH1 0xA0 SHR AND ISZERO ISZERO PUSH1 0xA0 DUP5 ADD MSTORE PUSH1 0xC0 DUP4 ADD MSTORE SUB SWAP1 RETURN JUMPDEST CALLVALUE PUSH2 0x1D6 JUMPI PUSH1 0x20 CALLDATASIZE PUSH1 0x3 NOT ADD SLT PUSH2 0x1D6 JUMPI PUSH1 0x4 CALLDATALOAD PUSH4 0xFFFFFFFF PUSH1 0xE0 SHL DUP2 AND DUP1 SWAP2 SUB PUSH2 0x1D6 JUMPI PUSH1 0x20 SWAP1 PUSH4 0x6CDB3D13 PUSH1 0xE1 SHL DUP2 EQ SWAP1 DUP2 ISZERO PUSH2 0x1CF4 JUMPI JUMPDEST DUP2 ISZERO PUSH2 0x1CE3 JUMPI JUMPDEST DUP2 ISZERO PUSH2 0x1CD2 JUMPI POP PUSH1 0x40 MLOAD SWAP1 ISZERO ISZERO DUP2 MSTORE RETURN JUMPDEST PUSH4 0x2711897 PUSH1 0xE5 SHL EQ SWAP1 POP DUP3 PUSH2 0x17CF JUMP JUMPDEST PUSH4 0x1FFC9A7 PUSH1 0xE0 SHL DUP2 EQ SWAP2 POP PUSH2 0x1CC1 JUMP JUMPDEST PUSH4 0x3A24D07 PUSH1 0xE2 SHL DUP2 EQ SWAP2 POP PUSH2 0x1CBA JUMP JUMPDEST PUSH1 0x4 CALLDATALOAD SWAP1 PUSH1 0x1 PUSH1 0x1 PUSH1 0xA0 SHL SUB DUP3 AND DUP3 SUB PUSH2 0x1D6 JUMPI JUMP JUMPDEST PUSH1 0x24 CALLDATALOAD SWAP1 PUSH1 0x1 PUSH1 0x1 PUSH1 0xA0 SHL SUB DUP3 AND DUP3 SUB PUSH2 0x1D6 JUMPI JUMP JUMPDEST CALLVALUE PUSH2 0x1D6 JUMPI PUSH1 0x40 CALLDATASIZE PUSH1 0x3 NOT ADD SLT PUSH2 0x1D6 JUMPI PUSH1 0x20 PUSH2 0x1D58 PUSH2 0x1D4F PUSH2 0x1D05 JUMP JUMPDEST PUSH1 0x24 CALLDATALOAD SWAP1 PUSH2 0x207C JUMP JUMPDEST PUSH1 0x40 MLOAD SWAP1 DUP2 MSTORE RETURN JUMPDEST SWAP1 PUSH1 0x1 DUP3 DUP2 SHR SWAP3 AND DUP1 ISZERO PUSH2 0x1D90 JUMPI JUMPDEST PUSH1 0x20 DUP4 LT EQ PUSH2 0x1D7A JUMPI JUMP JUMPDEST PUSH4 0x4E487B71 PUSH1 0xE0 SHL PUSH1 0x0 MSTORE PUSH1 0x22 PUSH1 0x4 MSTORE PUSH1 0x24 PUSH1 0x0 REVERT JUMPDEST SWAP2 PUSH1 0x7F AND SWAP2 PUSH2 0x1D6F JUMP JUMPDEST PUSH1 0x20 DUP2 ADD SWAP1 DUP2 LT PUSH1 0x1 PUSH1 0x1 PUSH1 0x40 SHL SUB DUP3 GT OR PUSH2 0x8ED JUMPI PUSH1 0x40 MSTORE JUMP JUMPDEST SWAP1 PUSH1 0x1F DUP1 NOT SWAP2 ADD AND DUP2 ADD SWAP1 DUP2 LT PUSH1 0x1 PUSH1 0x1 PUSH1 0x40 SHL SUB DUP3 GT OR PUSH2 0x8ED JUMPI PUSH1 0x40 MSTORE JUMP JUMPDEST SWAP1 PUSH1 0x40 MLOAD SWAP2 DUP3 PUSH1 0x0 DUP3 SLOAD SWAP3 PUSH2 0x1DEA DUP5 PUSH2 0x1D60 JUMP JUMPDEST SWAP1 DUP2 DUP5 MSTORE PUSH1 0x1 SWAP5 DUP6 DUP2 AND SWAP1 DUP2 PUSH1 0x0 EQ PUSH2 0x1E59 JUMPI POP PUSH1 0x1 EQ PUSH2 0x1E16 JUMPI JUMPDEST POP POP PUSH2 0x1E14 SWAP3 POP SUB DUP4 PUSH2 0x1DB5 JUMP JUMPDEST JUMP JUMPDEST SWAP1 SWAP4 SWAP2 POP PUSH1 0x0 MSTORE PUSH1 0x20 SWAP1 DUP2 PUSH1 0x0 KECCAK256 SWAP4 PUSH1 0x0 SWAP2 JUMPDEST DUP2 DUP4 LT PUSH2 0x1E41 JUMPI POP POP PUSH2 0x1E14 SWAP4 POP DUP3 ADD ADD CODESIZE DUP1 PUSH2 0x1E06 JUMP JUMPDEST DUP6 SLOAD DUP9 DUP5 ADD DUP6 ADD MSTORE SWAP5 DUP6 ADD SWAP5 DUP8 SWAP5 POP SWAP2 DUP4 ADD SWAP2 PUSH2 0x1E29 JUMP JUMPDEST SWAP2 POP POP PUSH2 0x1E14 SWAP5 POP PUSH1 0x20 SWAP3 POP PUSH1 0xFF NOT AND DUP3 DUP5 ADD MSTORE ISZERO ISZERO PUSH1 0x5 SHL DUP3 ADD ADD CODESIZE DUP1 PUSH2 0x1E06 JUMP JUMPDEST SWAP2 SWAP1 DUP3 MLOAD SWAP3 DUP4 DUP3 MSTORE PUSH1 0x0 JUMPDEST DUP5 DUP2 LT PUSH2 0x1EA8 JUMPI POP POP DUP3 PUSH1 0x0 PUSH1 0x20 DUP1 SWAP5 SWAP6 DUP5 ADD ADD MSTORE PUSH1 0x1F DUP1 NOT SWAP2 ADD AND ADD ADD SWAP1 JUMP JUMPDEST PUSH1 0x20 DUP2 DUP4 ADD DUP2 ADD MLOAD DUP5 DUP4 ADD DUP3 ADD MSTORE ADD PUSH2 0x1E87 JUMP JUMPDEST PUSH1 0x1 PUSH1 0x1 PUSH1 0x40 SHL SUB DUP2 GT PUSH2 0x8ED JUMPI PUSH1 0x5 SHL PUSH1 0x20 ADD SWAP1 JUMP JUMPDEST DUP2 PUSH1 0x1F DUP3 ADD SLT ISZERO PUSH2 0x1D6 JUMPI DUP1 CALLDATALOAD SWAP2 PUSH2 0x1EEA DUP4 PUSH2 0x1EBC JUMP JUMPDEST SWAP3 PUSH2 0x1EF8 PUSH1 0x40 MLOAD SWAP5 DUP6 PUSH2 0x1DB5 JUMP JUMPDEST DUP1 DUP5 MSTORE PUSH1 0x20 SWAP3 DUP4 DUP1 DUP7 ADD SWAP3 PUSH1 0x5 SHL DUP3 ADD ADD SWAP3 DUP4 GT PUSH2 0x1D6 JUMPI DUP4 ADD SWAP1 JUMPDEST DUP3 DUP3 LT PUSH2 0x1F22 JUMPI POP POP POP POP SWAP1 JUMP JUMPDEST DUP2 CALLDATALOAD DUP2 MSTORE SWAP1 DUP4 ADD SWAP1 DUP4 ADD PUSH2 0x1F14 JUMP JUMPDEST PUSH1 0x1 PUSH1 0x1 PUSH1 0x40 SHL SUB DUP2 GT PUSH2 0x8ED JUMPI PUSH1 0x1F ADD PUSH1 0x1F NOT AND PUSH1 0x20 ADD SWAP1 JUMP JUMPDEST DUP2 PUSH1 0x1F DUP3 ADD SLT ISZERO PUSH2 0x1D6 JUMPI DUP1 CALLDATALOAD SWAP1 PUSH2 0x1F63 DUP3 PUSH2 0x1F31 JUMP JUMPDEST SWAP3 PUSH2 0x1F71 PUSH1 0x40 MLOAD SWAP5 DUP6 PUSH2 0x1DB5 JUMP JUMPDEST DUP3 DUP5 MSTORE PUSH1 0x20 DUP4 DUP4 ADD ADD GT PUSH2 0x1D6 JUMPI DUP2 PUSH1 0x0 SWAP3 PUSH1 0x20 DUP1 SWAP4 ADD DUP4 DUP7 ADD CALLDATACOPY DUP4 ADD ADD MSTORE SWAP1 JUMP JUMPDEST SWAP1 DUP2 MLOAD DUP1 DUP3 MSTORE PUSH1 0x20 DUP1 DUP1 SWAP4 ADD SWAP4 ADD SWAP2 PUSH1 0x0 JUMPDEST DUP3 DUP2 LT PUSH2 0x1FB3 JUMPI POP POP POP POP SWAP1 JUMP JUMPDEST DUP4 MLOAD DUP6 MSTORE SWAP4 DUP2 ADD SWAP4 SWAP3 DUP2 ADD SWAP3 PUSH1 0x1 ADD PUSH2 0x1FA5 JUMP JUMPDEST SWAP2 DUP2 PUSH1 0x1F DUP5 ADD SLT ISZERO PUSH2 0x1D6 JUMPI DUP3 CALLDATALOAD SWAP2 PUSH1 0x1 PUSH1 0x1 PUSH1 0x40 SHL SUB DUP4 GT PUSH2 0x1D6 JUMPI PUSH1 0x20 DUP1 DUP6 ADD SWAP5 DUP5 PUSH1 0x5 SHL ADD ADD GT PUSH2 0x1D6 JUMPI JUMP JUMPDEST SWAP2 DUP2 PUSH1 0x1F DUP5 ADD SLT ISZERO PUSH2 0x1D6 JUMPI DUP3 CALLDATALOAD SWAP2 PUSH1 0x1 PUSH1 0x1 PUSH1 0x40 SHL SUB DUP4 GT PUSH2 0x1D6 JUMPI PUSH1 0x20 DUP4 DUP2 DUP7 ADD SWAP6 ADD ADD GT PUSH2 0x1D6 JUMPI JUMP JUMPDEST PUSH1 0x3 SLOAD PUSH1 0x1 PUSH1 0x1 PUSH1 0xA0 SHL SUB AND CALLER SUB PUSH2 0x2038 JUMPI JUMP JUMPDEST PUSH1 0x64 PUSH1 0x40 MLOAD PUSH3 0x461BCD PUSH1 0xE5 SHL DUP2 MSTORE PUSH1 0x20 PUSH1 0x4 DUP3 ADD MSTORE PUSH1 0x20 PUSH1 0x24 DUP3 ADD MSTORE PUSH32 0x4F776E61626C653A2063616C6C6572206973206E6F7420746865206F776E6572 PUSH1 0x44 DUP3 ADD MSTORE REVERT JUMPDEST PUSH1 0x1 PUSH1 0x1 PUSH1 0xA0 SHL SUB AND SWAP1 DUP2 ISZERO PUSH2 0x20A9 JUMPI PUSH1 0x0 MSTORE PUSH1 0x0 PUSH1 0x20 MSTORE PUSH1 0x40 PUSH1 0x0 KECCAK256 SWAP1 PUSH1 0x0 MSTORE PUSH1 0x20 MSTORE PUSH1 0x40 PUSH1 0x0 KECCAK256 SLOAD SWAP1 JUMP JUMPDEST PUSH1 0x40 MLOAD PUSH3 0x461BCD PUSH1 0xE5 SHL DUP2 MSTORE PUSH1 0x20 PUSH1 0x4 DUP3 ADD MSTORE PUSH1 0x2A PUSH1 0x24 DUP3 ADD MSTORE PUSH32 0x455243313135353A2061646472657373207A65726F206973206E6F7420612076 PUSH1 0x44 DUP3 ADD MSTORE PUSH10 0x30B634B21037BBB732B9 PUSH1 0xB1 SHL PUSH1 0x64 DUP3 ADD MSTORE PUSH1 0x84 SWAP1 REVERT JUMPDEST PUSH1 0x0 NOT DUP2 EQ PUSH2 0x7FD JUMPI PUSH1 0x1 ADD SWAP1 JUMP JUMPDEST DUP1 MLOAD DUP3 LT ISZERO PUSH2 0x2124 JUMPI PUSH1 0x20 SWAP2 PUSH1 0x5 SHL ADD ADD SWAP1 JUMP JUMPDEST PUSH4 0x4E487B71 PUSH1 0xE0 SHL PUSH1 0x0 MSTORE PUSH1 0x32 PUSH1 0x4 MSTORE PUSH1 0x24 PUSH1 0x0 REVERT JUMPDEST ISZERO PUSH2 0x2141 JUMPI JUMP JUMPDEST PUSH1 0x40 MLOAD PUSH3 0x461BCD PUSH1 0xE5 SHL DUP2 MSTORE PUSH1 0x20 PUSH1 0x4 DUP3 ADD MSTORE PUSH1 0x2E PUSH1 0x24 DUP3 ADD MSTORE PUSH32 0x455243313135353A2063616C6C6572206973206E6F7420746F6B656E206F776E PUSH1 0x44 DUP3 ADD MSTORE PUSH14 0x195C881BDC88185C1C1C9BDD9959 PUSH1 0x92 SHL PUSH1 0x64 DUP3 ADD MSTORE PUSH1 0x84 SWAP1 REVERT JUMPDEST ISZERO PUSH2 0x21A4 JUMPI JUMP JUMPDEST PUSH1 0x40 MLOAD PUSH3 0x461BCD PUSH1 0xE5 SHL DUP2 MSTORE PUSH1 0x20 PUSH1 0x4 DUP3 ADD MSTORE PUSH1 0x25 PUSH1 0x24 DUP3 ADD MSTORE PUSH32 0x455243313135353A207472616E7366657220746F20746865207A65726F206164 PUSH1 0x44 DUP3 ADD MSTORE PUSH5 0x6472657373 PUSH1 0xD8 SHL PUSH1 0x64 DUP3 ADD MSTORE PUSH1 0x84 SWAP1 REVERT JUMPDEST ISZERO PUSH2 0x21FE JUMPI JUMP JUMPDEST PUSH1 0x40 MLOAD PUSH3 0x461BCD PUSH1 0xE5 SHL DUP2 MSTORE PUSH1 0x20 PUSH1 0x4 DUP3 ADD MSTORE PUSH1 0x2A PUSH1 0x24 DUP3 ADD MSTORE PUSH32 0x455243313135353A20696E73756666696369656E742062616C616E636520666F PUSH1 0x44 DUP3 ADD MSTORE PUSH10 0x39103A3930B739B332B9 PUSH1 0xB1 SHL PUSH1 0x64 DUP3 ADD MSTORE PUSH1 0x84 SWAP1 REVERT JUMPDEST SWAP2 SWAP1 DUP3 ADD DUP1 SWAP3 GT PUSH2 0x7FD JUMPI JUMP JUMPDEST SWAP1 DUP2 PUSH1 0x20 SWAP2 SUB SLT PUSH2 0x1D6 JUMPI MLOAD PUSH1 0x1 PUSH1 0x1 PUSH1 0xE0 SHL SUB NOT DUP2 AND DUP2 SUB PUSH2 0x1D6 JUMPI SWAP1 JUMP JUMPDEST PUSH1 0x0 SWAP1 PUSH1 0x3 RETURNDATASIZE GT PUSH2 0x2290 JUMPI JUMP JUMPDEST SWAP1 POP PUSH1 0x4 PUSH1 0x0 DUP1 RETURNDATACOPY PUSH1 0x0 MLOAD PUSH1 0xE0 SHR SWAP1 JUMP JUMPDEST PUSH1 0x0 PUSH1 0x44 RETURNDATASIZE LT PUSH2 0x22FE JUMPI PUSH1 0x40 MLOAD PUSH1 0x3 NOT SWAP2 RETURNDATASIZE DUP4 ADD PUSH1 0x4 DUP4 RETURNDATACOPY DUP2 MLOAD PUSH1 0x1 PUSH1 0x1 PUSH1 0x40 SHL SUB SWAP2 DUP3 DUP3 GT RETURNDATASIZE PUSH1 0x24 DUP5 ADD GT OR PUSH2 0x2301 JUMPI DUP2 DUP5 ADD SWAP5 DUP6 MLOAD SWAP4 DUP5 GT PUSH2 0x2309 JUMPI RETURNDATASIZE DUP6 ADD ADD PUSH1 0x20 DUP5 DUP8 ADD ADD GT PUSH2 0x2301 JUMPI POP PUSH2 0x22FE SWAP3 SWAP2 ADD PUSH1 0x20 ADD SWAP1 PUSH2 0x1DB5 JUMP JUMPDEST SWAP1 JUMP JUMPDEST SWAP5 SWAP4 POP POP POP POP JUMP JUMPDEST POP SWAP5 SWAP4 POP POP POP POP JUMP JUMPDEST PUSH1 0x80 SWAP1 PUSH1 0x20 DUP2 MSTORE PUSH1 0x34 PUSH1 0x20 DUP3 ADD MSTORE PUSH32 0x455243313135353A207472616E7366657220746F206E6F6E2D45524331313535 PUSH1 0x40 DUP3 ADD MSTORE PUSH20 0x2932B1B2B4BB32B91034B6B83632B6B2B73A32B9 PUSH1 0x61 SHL PUSH1 0x60 DUP3 ADD MSTORE ADD SWAP1 JUMP JUMPDEST PUSH1 0x40 MLOAD SWAP1 PUSH1 0x40 DUP3 ADD DUP3 DUP2 LT PUSH1 0x1 PUSH1 0x1 PUSH1 0x40 SHL SUB DUP3 GT OR PUSH2 0x8ED JUMPI PUSH1 0x40 MSTORE PUSH1 0x1 DUP3 MSTORE PUSH1 0x20 DUP3 ADD PUSH1 0x20 CALLDATASIZE DUP3 CALLDATACOPY DUP3 MLOAD ISZERO PUSH2 0x2124 JUMPI MSTORE SWAP1 JUMP JUMPDEST RETURNDATASIZE ISZERO PUSH2 0x23C7 JUMPI RETURNDATASIZE SWAP1 PUSH2 0x23AD DUP3 PUSH2 0x1F31 JUMP JUMPDEST SWAP2 PUSH2 0x23BB PUSH1 0x40 MLOAD SWAP4 DUP5 PUSH2 0x1DB5 JUMP JUMPDEST DUP3 MSTORE RETURNDATASIZE PUSH1 0x0 PUSH1 0x20 DUP5 ADD RETURNDATACOPY JUMP JUMPDEST PUSH1 0x60 SWAP1 JUMP INVALID LOG2 PUSH5 0x6970667358 0x22 SLT KECCAK256 0xC5 SELFDESTRUCT DUP15 0x27 0xA5 TIMESTAMP 0xAF 0xE6 GAS DUP11 GAS 0xCE JUMP 0xC3 0xE0 SSTORE SHL 0x24 0xF6 0x28 0xD4 MULMOD 0x2C EXTCODEHASH SWAP7 0xAA 0x4C LOG1 CODECOPY 0xC7 PUSH2 0x6264 PUSH20 0x6F6C634300081400330000000000000000000000 "},"methodIdentifiers":{"balanceOf(address,uint256)":"00fdd58e","balanceOfBatch(address[],uint256[])":"4e1273f4","createEvent(string,uint256,string,string,uint256,uint256)":"acb98bf5","deactivateEvent(uint256)":"957a632e","events(uint256)":"0b791430","getEventDetails(uint256)":"ec38d5a0","isApprovedForAll(address,address)":"e985e9c5","isValidEvent(uint256)":"49287c0b","onERC1155BatchReceived(address,address,uint256[],uint256[],bytes)":"bc197c81","onERC1155Received(address,address,uint256,uint256,bytes)":"f23a6e61","owner()":"8da5cb5b","purchaseTicket(uint256,uint256)":"bdbbb0cb","renounceOwnership()":"715018a6","safeBatchTransferFrom(address,address,uint256[],uint256[],bytes)":"2eb2c2d6","safeTransferFrom(address,address,uint256,uint256,bytes)":"f242432a","setApprovalForAll(address,bool)":"a22cb465","setTicketNFTContract(address)":"9cb3c706","supportsInterface(bytes4)":"01ffc9a7","ticketBalanceOf(address,uint256)":"8f118fe3","ticketNFT()":"b393391b","transferOwnership(address)":"f2fde38b","uri(uint256)":"0e89341c"}},"storageLayout":{"storage":[{"astId":138,"contract":"contracts/EventFactory.sol:EventFactory","label":"_balances","offset":0,"slot":"0","type":"t_mapping(t_uint256,t_mapping(t_address,t_uint256))"},{"astId":144,"contract":"contracts/EventFactory.sol:EventFactory","label":"_operatorApprovals","offset":0,"slot":"1","type":"t_mapping(t_address,t_mapping(t_address,t_bool))"},{"astId":146,"contract":"contracts/EventFactory.sol:EventFactory","label":"_uri","offset":0,"slot":"2","type":"t_string_storage"},{"astId":7,"contract":"contracts/EventFactory.sol:EventFactory","label":"_owner","offset":0,"slot":"3","type":"t_address"},{"astId":4668,"contract":"contracts/EventFactory.sol:EventFactory","label":"_eventIds","offset":0,"slot":"4","type":"t_struct(Counter)3344_storage"},{"astId":4671,"contract":"contracts/EventFactory.sol:EventFactory","label":"ticketNFT","offset":0,"slot":"5","type":"t_contract(TicketNFT)5827"},{"astId":4691,"contract":"contracts/EventFactory.sol:EventFactory","label":"events","offset":0,"slot":"6","type":"t_mapping(t_uint256,t_struct(Event)4686_storage)"}],"types":{"t_address":{"encoding":"inplace","label":"address","numberOfBytes":"20"},"t_bool":{"encoding":"inplace","label":"bool","numberOfBytes":"1"},"t_contract(TicketNFT)5827":{"encoding":"inplace","label":"contract TicketNFT","numberOfBytes":"20"},"t_mapping(t_address,t_bool)":{"encoding":"mapping","key":"t_address","label":"mapping(address => bool)","numberOfBytes":"32","value":"t_bool"},"t_mapping(t_address,t_mapping(t_address,t_bool))":{"encoding":"mapping","key":"t_address","label":"mapping(address => mapping(address => bool))","numberOfBytes":"32","value":"t_mapping(t_address,t_bool)"},"t_mapping(t_address,t_uint256)":{"encoding":"mapping","key":"t_address","label":"mapping(address => uint256)","numberOfBytes":"32","value":"t_uint256"},"t_mapping(t_uint256,t_mapping(t_address,t_uint256))":{"encoding":"mapping","key":"t_uint256","label":"mapping(uint256 => mapping(address => uint256))","numberOfBytes":"32","value":"t_mapping(t_address,t_uint256)"},"t_mapping(t_uint256,t_struct(Event)4686_storage)":{"encoding":"mapping","key":"t_uint256","label":"mapping(uint256 => struct EventFactory.Event)","numberOfBytes":"32","value":"t_struct(Event)4686_storage"},"t_string_storage":{"encoding":"bytes","label":"string","numberOfBytes":"32"},"t_struct(Counter)3344_storage":{"encoding":"inplace","label":"struct Counters.Counter","members":[{"astId":3343,"contract":"contracts/EventFactory.sol:EventFactory","label":"_value","offset":0,"slot":"0","type":"t_uint256"}],"numberOfBytes":"32"},"t_struct(Event)4686_storage":{"encoding":"inplace","label":"struct EventFactory.Event","members":[{"astId":4673,"contract":"contracts/EventFactory.sol:EventFactory","label":"name","offset":0,"slot":"0","type":"t_string_storage"},{"astId":4675,"contract":"contracts/EventFactory.sol:EventFactory","label":"date","offset":0,"slot":"1","type":"t_uint256"},{"astId":4677,"contract":"contracts/EventFactory.sol:EventFactory","label":"ipfsCID","offset":0,"slot":"2","type":"t_string_storage"},{"astId":4679,"contract":"contracts/EventFactory.sol:EventFactory","label":"imageCID","offset":0,"slot":"3","type":"t_string_storage"},{"astId":4681,"contract":"contracts/EventFactory.sol:EventFactory","label":"owner","offset":0,"slot":"4","type":"t_address"},{"astId":4683,"contract":"contracts/EventFactory.sol:EventFactory","label":"active","offset":20,"slot":"4","type":"t_bool"},{"astId":4685,"contract":"contracts/EventFactory.sol:EventFactory","label":"pricePerTicket","offset":0,"slot":"5","type":"t_uint256"}],"numberOfBytes":"192"},"t_uint256":{"encoding":"inplace","label":"uint256","numberOfBytes":"32"}}}}}}