{"contracts/POAPDistributor.sol":{"POAPDistributor":{"abi":[{"inputs":[{"internalType":"address","name":"ticketAddress","type":"address"}],"stateMutability":"nonpayable","type":"constructor"},{"anonymous":false,"inputs":[{"indexed":true,"internalType":"address","name":"account","type":"address"},{"indexed":true,"internalType":"address","name":"operator","type":"address"},{"indexed":false,"internalType":"bool","name":"approved","type":"bool"}],"name":"ApprovalForAll","type":"event"},{"anonymous":false,"inputs":[{"indexed":true,"internalType":"address","name":"previousOwner","type":"address"},{"indexed":true,"internalType":"address","name":"newOwner","type":"address"}],"name":"OwnershipTransferred","type":"event"},{"anonymous":false,"inputs":[{"indexed":true,"internalType":"uint256","name":"eventId","type":"uint256"},{"indexed":true,"internalType":"address","name":"attendee","type":"address"}],"name":"POAPMinted","type":"event"},{"anonymous":false,"inputs":[{"indexed":true,"internalType":"address","name":"operator","type":"address"},{"indexed":true,"internalType":"address","name":"from","type":"address"},{"indexed":true,"internalType":"address","name":"to","type":"address"},{"indexed":false,"internalType":"uint256[]","name":"ids","type":"uint256[]"},{"indexed":false,"internalType":"uint256[]","name":"values","type":"uint256[]"}],"name":"TransferBatch","type":"event"},{"anonymous":false,"inputs":[{"indexed":true,"internalType":"address","name":"operator","type":"address"},{"indexed":true,"internalType":"address","name":"from","type":"address"},{"indexed":true,"internalType":"address","name":"to","type":"address"},{"indexed":false,"internalType":"uint256","name":"id","type":"uint256"},{"indexed":false,"internalType":"uint256","name":"value","type":"uint256"}],"name":"TransferSingle","type":"event"},{"anonymous":false,"inputs":[{"indexed":false,"internalType":"string","name":"value","type":"string"},{"indexed":true,"internalType":"uint256","name":"id","type":"uint256"}],"name":"URI","type":"event"},{"inputs":[{"internalType":"address","name":"account","type":"address"},{"internalType":"uint256","name":"id","type":"uint256"}],"name":"balanceOf","outputs":[{"internalType":"uint256","name":"","type":"uint256"}],"stateMutability":"view","type":"function"},{"inputs":[{"internalType":"address[]","name":"accounts","type":"address[]"},{"internalType":"uint256[]","name":"ids","type":"uint256[]"}],"name":"balanceOfBatch","outputs":[{"internalType":"uint256[]","name":"","type":"uint256[]"}],"stateMutability":"view","type":"function"},{"inputs":[{"internalType":"uint256","name":"eventId","type":"uint256"}],"name":"claimPOAP","outputs":[],"stateMutability":"nonpayable","type":"function"},{"inputs":[{"internalType":"uint256","name":"eventId","type":"uint256"}],"name":"getEventCID","outputs":[{"internalType":"string","name":"","type":"string"}],"stateMutability":"view","type":"function"},{"inputs":[{"internalType":"uint256","name":"eventId","type":"uint256"},{"internalType":"address","name":"attendee","type":"address"}],"name":"hasClaimed","outputs":[{"internalType":"bool","name":"","type":"bool"}],"stateMutability":"view","type":"function"},{"inputs":[{"internalType":"address","name":"account","type":"address"},{"internalType":"address","name":"operator","type":"address"}],"name":"isApprovedForAll","outputs":[{"internalType":"bool","name":"","type":"bool"}],"stateMutability":"view","type":"function"},{"inputs":[],"name":"owner","outputs":[{"internalType":"address","name":"","type":"address"}],"stateMutability":"view","type":"function"},{"inputs":[],"name":"renounceOwnership","outputs":[],"stateMutability":"nonpayable","type":"function"},{"inputs":[{"internalType":"address","name":"from","type":"address"},{"internalType":"address","name":"to","type":"address"},{"internalType":"uint256[]","name":"ids","type":"uint256[]"},{"internalType":"uint256[]","name":"amounts","type":"uint256[]"},{"internalType":"bytes","name":"data","type":"bytes"}],"name":"safeBatchTransferFrom","outputs":[],"stateMutability":"nonpayable","type":"function"},{"inputs":[{"internalType":"address","name":"from","type":"address"},{"internalType":"address","name":"to","type":"address"},{"internalType":"uint256","name":"id","type":"uint256"},{"internalType":"uint256","name":"amount","type":"uint256"},{"internalType":"bytes","name":"data","type":"bytes"}],"name":"safeTransferFrom","outputs":[],"stateMutability":"nonpayable","type":"function"},{"inputs":[{"internalType":"address","name":"operator","type":"address"},{"internalType":"bool","name":"approved","type":"bool"}],"name":"setApprovalForAll","outputs":[],"stateMutability":"nonpayable","type":"function"},{"inputs":[{"internalType":"uint256","name":"eventId","type":"uint256"},{"internalType":"string","name":"cid","type":"string"}],"name":"setEventURI","outputs":[],"stateMutability":"nonpayable","type":"function"},{"inputs":[{"internalType":"bytes4","name":"interfaceId","type":"bytes4"}],"name":"supportsInterface","outputs":[{"internalType":"bool","name":"","type":"bool"}],"stateMutability":"view","type":"function"},{"inputs":[],"name":"ticketContract","outputs":[{"internalType":"contract TicketNFT","name":"","type":"address"}],"stateMutability":"view","type":"function"},{"inputs":[{"internalType":"address","name":"newOwner","type":"address"}],"name":"transferOwnership","outputs":[],"stateMutability":"nonpayable","type":"function"},{"inputs":[{"internalType":"uint256","name":"eventId","type":"uint256"}],"name":"uri","outputs":[{"internalType":"string","name":"","type":"string"}],"stateMutability":"view","type":"function"}],"evm":{"bytecode":{"linkReferences":{},"object":"608034620001e957601f62001c8638819003918201601f19168301926001600160401b0392909183851183861017620001d3578160209284926040978852833981010312620001e957516001600160a01b03808216929091839003620001e957835180850191821181831017620001d3576020918552600781520166697066733a2f2f60c81b81526002546001908181811c91168015620001c8575b6020821014620001b257601f811162000166575b5050516001600160c81b031916600e17600255600380546001600160a01b03198082163390811790935585519093909291167f8be0079c531659141344cd1fd0a4f28419497f9722a3daafe3b4186f6b6457e0600080a38215620001245750600454161760045551611a979081620001ef8239f35b62461bcd60e51b815260206004820152601f60248201527f496e76616c6964207469636b657420636f6e74726163742061646472657373006044820152606490fd5b6002600052601f0160051c7f405787fa12a823e0f2b7631cc41b3ba8828b3321ca811111fa75cd3aa3bb5ace908101905b818110620001a65750620000af565b60008155820162000197565b634e487b7160e01b600052602260045260246000fd5b90607f16906200009b565b634e487b7160e01b600052604160045260246000fd5b600080fdfe6040608081526004908136101561001557600080fd5b600091823560e01c8062fdd58e146111fc57806301ffc9a71461118f5780630e89341c1461107d57806316d35d7114610ec95780632eb2c2d614610bb25780634e1273f414610a1557806358a86e1d146109ee578063715018a61461098e578063873f6f9e146109485780638d565d6c146108525780638da5cb5b146108295780639365fc8714610536578063a22cb46514610455578063e985e9c514610403578063f242432a1461019e5763f2fde38b146100d057600080fd5b3461019a57602036600319011261019a576100e961122c565b906100f2611400565b6001600160a01b03918216928315610148575050600354826bffffffffffffffffffffffff60a01b821617600355167f8be0079c531659141344cd1fd0a4f28419497f9722a3daafe3b4186f6b6457e08380a380f35b906020608492519162461bcd60e51b8352820152602660248201527f4f776e61626c653a206e6577206f776e657220697320746865207a65726f206160448201526564647265737360d01b6064820152fd5b8280fd5b503461019a5760a036600319011261019a576101b861122c565b916101c1611247565b92604435906064359060843567ffffffffffffffff81116103ff576101e990369087016113ae565b926001600160a01b039182169133831480156103e0575b61020990611539565b87169161021783151561159c565b610220826117ad565b5061022a846117ad565b50818952602097898952868a20828b52895284878b205461024d828210156115f6565b848c528b8b52888c20848d528b5203878b2055828a52898952868a20848b528952868a2061027c868254611655565b905583828851858152878c8201527fc3d58168c5ae7397731d063d5bbf3d657854427343f4c083240f7aacaa2d0f628a3392a43b6102b8578880f35b918697989596949391868a946103018a519788968795869463f23a6e6160e01b9c8d8752339087015260248601526044850152606484015260a0608484015260a483019061125d565b03925af18391816103b1575b506103765750505061031d6116cb565b6308c379a014610345575b5162461bcd60e51b815291508190610341908201611758565b0390fd5b61034d6116e9565b806103585750610328565b610341915193849362461bcd60e51b8552840152602483019061125d565b9194506001600160e01b03199091160361039857505038808080808080808880f35b5162461bcd60e51b815291508190610341908201611682565b6103d2919250873d89116103d9575b6103ca81836112cf565b810190611662565b903861030d565b503d6103c0565b5082895260016020908152868a20338b5290528589205460ff16610200565b8780fd5b50503461045157806003193601126104515760ff8160209361042361122c565b61042b611247565b6001600160a01b0391821683526001875283832091168252855220549151911615158152f35b5080fd5b50903461019a578060031936011261019a5761046f61122c565b9060243591821515809303610532576001600160a01b0316923384146104de5750338452600160205280842083855260205280842060ff1981541660ff8416179055519081527f17307eab39ab6107e8899845ad3d59bd9653f200f220920489ca2b5937696c3160203392a380f35b6020608492519162461bcd60e51b8352820152602960248201527f455243313135353a2073657474696e6720617070726f76616c20737461747573604482015268103337b91039b2b63360b91b6064820152fd5b8480fd5b50919034610451576020908160031936011261019a578335918284526006815261056c610565838620546117d2565b151561180c565b82845260058152818420338552815260ff82852054166107ef576105908333611858565b156107ad5781519481860186811067ffffffffffffffff82111761079a578352848652331561074f578394956105c86105e7956117ad565b5083516105d48161129d565b6001958187809352853681830137611502565b52858752868352838720338852835283872080549086820180921161073c5755835186815285848201528733917fc3d58168c5ae7397731d063d5bbf3d657854427343f4c083240f7aacaa2d0f62873392a4333b610686575b505083855260058152818520903386525283209060ff1982541617905533907f5ddca7d5809a6830dda8f5547a130099be44f5e1f6ab4773cbe795c10c0f605e8380a380f35b83949195929693518781806106c863f23a6e6160e01b95868352338c84015289602484015288604484015287606484015260a0608484015260a483019061125d565b038188335af185918161071d575b506106e65787878761031d6116cb565b939692959194936001600160e01b0319160361070457503880610640565b825162461bcd60e51b8152908190610341908201611682565b610735919250893d8b116103d9576103ca81836112cf565b90386106d6565b634e487b7160e01b895260118452602489fd5b915162461bcd60e51b815291820152602160248201527f455243313135353a206d696e7420746f20746865207a65726f206164647265736044820152607360f81b6064820152608490fd5b634e487b7160e01b865260418252602486fd5b8490606492519162461bcd60e51b8352820152601c60248201527f504f41503a20496e76616c6964206f722075736564207469636b6574000000006044820152fd5b8490606492519162461bcd60e51b835282015260156024820152741413d0540e88105b1c9958591e4818db185a5b5959605a1b6044820152fd5b50503461045157816003193601126104515760035490516001600160a01b039091168152602090f35b50903461019a576020918260031936011261094457358084526006835261087e610565838620546117d2565b835260068252808320815193849181815490610899826117d2565b9283865260019288848216918260001461091a5750506001146108dc575b85886108d8896108c9848a03856112cf565b5192828493845283019061125d565b0390f35b87945081939291528383205b82841061090257505050820101816108c96108d8386108b7565b8054848a0186015288955087949093019281016108e8565b60ff19168882015294151560051b870190940194508593506108c992506108d891503890506108b7565b8380fd5b503461019a578160031936011261019a578160209360ff92610968611247565b90358252600586528282206001600160a01b039091168252855220549151911615158152f35b83346109eb57806003193601126109eb576109a7611400565b600380546001600160a01b0319811690915581906001600160a01b03167f8be0079c531659141344cd1fd0a4f28419497f9722a3daafe3b4186f6b6457e08280a380f35b80fd5b503461019a578260031936011261019a575490516001600160a01b03909116815260209150f35b503461019a578160031936011261019a57803567ffffffffffffffff8082116105325736602383011215610532578183013590610a5182611338565b92610a5e865194856112cf565b82845260209260248486019160051b83010191368311610bae57602401905b828210610b8b57505050602435908111610b8757610a9e9036908501611350565b928251845103610b345750815194610ab586611338565b95610ac2865197886112cf565b808752610ad1601f1991611338565b0136838801375b8251811015610b2257610b1d90610b0d6001600160a01b03610afa8387611525565b5116610b068388611525565b5190611458565b610b178289611525565b526114dd565b610ad8565b8451828152806108d8818501896113cc565b60849185519162461bcd60e51b8352820152602960248201527f455243313135353a206163636f756e747320616e6420696473206c656e677468604482015268040dad2e6dac2e8c6d60bb1b6064820152fd5b8580fd5b81356001600160a01b0381168103610baa578152908401908401610a7d565b8980fd5b8880fd5b5082346109eb576003199260a03685011261045157610bcf61122c565b91610bd8611247565b9467ffffffffffffffff9360443585811161094457610bfa9036908801611350565b60643586811161053257610c119036908901611350565b9560843590811161053257610c2990369089016113ae565b966001600160a01b03928316923384148015610eaa575b610c4990611539565b8251885103610e5657891693610c6085151561159c565b855b8351811015610ce45780610c79610cdf9286611525565b51610c84828c611525565b5190808a526020908a82528b8b20898c528252828c8c8b8282205492610cac858510156115f6565b858352828752822091528452038c8c20558a528981528a8a2090898b5252610cd88a8a20918254611655565b90556114dd565b610c62565b50949897909692959784878a518b81527f4a39dc06d4c0dbc64b70af90fd698a233a518aa5d07e595d983b8c0526c8f7fb610d218d8301886113cc565b91808303602082015280610d3633948b6113cc565b0390a43b610d42578880f35b8798969751948593849363bc197c8160e01b98898652338c87015260248601526044850160a0905260a48501610d77916113cc565b82858203016064860152610d8a916113cc565b90838203016084840152610d9d9161125d565b0381865a94602095f1839181610e36575b50610e1657505050610dbe6116cb565b6308c379a014610de2575b905162461bcd60e51b8152908190610341908201611758565b610dea6116e9565b80610df55750610dc9565b610341906020935193849362461bcd60e51b8552840152602483019061125d565b9193916001600160e01b0319160361039857505081808080808080808880f35b610e4f91925060203d81116103d9576103ca81836112cf565b9086610dae565b865162461bcd60e51b8152602081840152602860248201527f455243313135353a2069647320616e6420616d6f756e7473206c656e677468206044820152670dad2e6dac2e8c6d60c31b6064820152608490fd5b508386526001602090815287872033885290528686205460ff16610c40565b5082903461045157826003193601126104515767ffffffffffffffff602435818111610944573660238201121561094457610f0d90369060248186013591016112f1565b93610f16611400565b84511561103b57823584526020906006825284209285519283116110285750610f3f83546117d2565b601f8111610fe5575b5080601f8311600114610f835750839482939492610f78575b50508160011b916000199060031b1c191617905580f35b015190508480610f61565b90601f198316958486528286209286905b888210610fcd57505083600195969710610fb4575b505050811b01905580f35b015160001960f88460031b161c19169055848080610fa9565b80600185968294968601518155019501930190610f94565b838552818520601f840160051c81019183851061101e575b601f0160051c01905b8181106110135750610f48565b858155600101611006565b9091508190610ffd565b634e487b7160e01b855260419052602484fd5b5162461bcd60e51b8152602081840152601960248201527f504f41503a204349442063616e6e6f7420626520656d707479000000000000006044820152606490fd5b50903461019a57602091826003193601126109445735808452600683526110a9610565838620546117d2565b835260068252808320815193849166697066733a2f2f60c81b858401528181546110d2816117d2565b926001918083169081156111605750600114611119575b85886108d8896108c9600e858b6d17b6b2ba30b230ba30973539b7b760911b8152036011198101875201856112cf565b879695945082528582205b838310611147575093945091925082016027019050600e826108c96108d86110e9565b80546027848b0101528796899550909201918101611124565b90506108c995506108d89796935060279250600e94915060ff19168284015280151502820101928194956110e9565b503461019a57602036600319011261019a57359063ffffffff60e01b821680920361019a5760209250636cdb3d1360e11b82149182156111eb575b82156111da575b50519015158152f35b6301ffc9a760e01b149150386111d1565b6303a24d0760e21b811492506111ca565b50503461045157806003193601126104515760209061122561121c61122c565b60243590611458565b9051908152f35b600435906001600160a01b038216820361124257565b600080fd5b602435906001600160a01b038216820361124257565b919082519283825260005b848110611289575050826000602080949584010152601f8019910116010190565b602081830181015184830182015201611268565b6040810190811067ffffffffffffffff8211176112b957604052565b634e487b7160e01b600052604160045260246000fd5b90601f8019910116810190811067ffffffffffffffff8211176112b957604052565b92919267ffffffffffffffff82116112b9576040519161131b601f8201601f1916602001846112cf565b829481845281830111611242578281602093846000960137010152565b67ffffffffffffffff81116112b95760051b60200190565b81601f820112156112425780359161136783611338565b9261137560405194856112cf565b808452602092838086019260051b820101928311611242578301905b82821061139f575050505090565b81358152908301908301611391565b9080601f83011215611242578160206113c9933591016112f1565b90565b90815180825260208080930193019160005b8281106113ec575050505090565b8351855293810193928101926001016113de565b6003546001600160a01b0316330361141457565b606460405162461bcd60e51b815260206004820152602060248201527f4f776e61626c653a2063616c6c6572206973206e6f7420746865206f776e65726044820152fd5b6001600160a01b031690811561148557600052600060205260406000209060005260205260406000205490565b60405162461bcd60e51b815260206004820152602a60248201527f455243313135353a2061646472657373207a65726f206973206e6f742061207660448201526930b634b21037bbb732b960b11b6064820152608490fd5b60001981146114ec5760010190565b634e487b7160e01b600052601160045260246000fd5b80511561150f5760200190565b634e487b7160e01b600052603260045260246000fd5b805182101561150f5760209160051b010190565b1561154057565b60405162461bcd60e51b815260206004820152602e60248201527f455243313135353a2063616c6c6572206973206e6f7420746f6b656e206f776e60448201526d195c881bdc88185c1c1c9bdd995960921b6064820152608490fd5b156115a357565b60405162461bcd60e51b815260206004820152602560248201527f455243313135353a207472616e7366657220746f20746865207a65726f206164604482015264647265737360d81b6064820152608490fd5b156115fd57565b60405162461bcd60e51b815260206004820152602a60248201527f455243313135353a20696e73756666696369656e742062616c616e636520666f60448201526939103a3930b739b332b960b11b6064820152608490fd5b919082018092116114ec57565b9081602091031261124257516001600160e01b0319811681036112425790565b60809060208152602860208201527f455243313135353a204552433131353552656365697665722072656a656374656040820152676420746f6b656e7360c01b60608201520190565b60009060033d116116d857565b905060046000803e60005160e01c90565b600060443d106113c957604051600319913d83016004833e815167ffffffffffffffff918282113d6024840111176117475781840194855193841161174f573d8501016020848701011161174757506113c9929101602001906112cf565b949350505050565b50949350505050565b60809060208152603460208201527f455243313135353a207472616e7366657220746f206e6f6e2d455243313135356040820152732932b1b2b4bb32b91034b6b83632b6b2b73a32b960611b60608201520190565b604051906117ba8261129d565b60018252602036818401376117ce82611502565b5290565b90600182811c92168015611802575b60208310146117ec57565b634e487b7160e01b600052602260045260246000fd5b91607f16916117e1565b1561181357565b60405162461bcd60e51b815260206004820152601a60248201527f504f41503a204576656e74206e6f7420726567697374657265640000000000006044820152606490fd5b9060018060a01b0360049181835416906040928351956370a0823160e01b875216808587015260209160249083888381885afa978815611a5657600098611a27575b508715611a1a5760005b8881106118b957505050505050505050600090565b8651632f745c5960e01b81528489820152818482015285816044818a5afa600091816119eb575b506118f5575b506118f0906114dd565b6118a4565b828851637510cfaf60e01b8152828b820152878187818c5afa600091816119b9575b50611924575b50506118e6565b149081611947575b506119395738828161191d565b505050505050505050600190565b9050875190630b3474d760e21b825289820152858185818a5afa9081156119ae57600091611978575b50153861192c565b8681813d83116119a7575b61198d81836112cf565b8101031261045157519081151582036109eb575038611970565b503d611983565b88513d6000823e3d90fd5b919092508882813d83116119e4575b6119d281836112cf565b810103126109eb575051849138611917565b503d6119c8565b90918782813d8311611a13575b611a0281836112cf565b810103126109eb57505190386118e0565b503d6119f8565b5050505050505050600090565b90978482813d8311611a4f575b611a3e81836112cf565b810103126109eb575051963861189a565b503d611a34565b86513d6000823e3d90fdfea2646970667358221220da44e8cb0daa84b492f6683c6ccb44a9dffb5f802ec6cec94259871008727a1564736f6c63430008140033","opcodes":"PUSH1 0x80 CALLVALUE PUSH3 0x1E9 JUMPI PUSH1 0x1F PUSH3 0x1C86 CODESIZE DUP2 SWAP1 SUB SWAP2 DUP3 ADD PUSH1 0x1F NOT AND DUP4 ADD SWAP3 PUSH1 0x1 PUSH1 0x1 PUSH1 0x40 SHL SUB SWAP3 SWAP1 SWAP2 DUP4 DUP6 GT DUP4 DUP7 LT OR PUSH3 0x1D3 JUMPI DUP2 PUSH1 0x20 SWAP3 DUP5 SWAP3 PUSH1 0x40 SWAP8 DUP9 MSTORE DUP4 CODECOPY DUP2 ADD SUB SLT PUSH3 0x1E9 JUMPI MLOAD PUSH1 0x1 PUSH1 0x1 PUSH1 0xA0 SHL SUB DUP1 DUP3 AND SWAP3 SWAP1 SWAP2 DUP4 SWAP1 SUB PUSH3 0x1E9 JUMPI DUP4 MLOAD DUP1 DUP6 ADD SWAP2 DUP3 GT DUP2 DUP4 LT OR PUSH3 0x1D3 JUMPI PUSH1 0x20 SWAP2 DUP6 MSTORE PUSH1 0x7 DUP2 MSTORE ADD PUSH7 0x697066733A2F2F PUSH1 0xC8 SHL DUP2 MSTORE PUSH1 0x2 SLOAD PUSH1 0x1 SWAP1 DUP2 DUP2 DUP2 SHR SWAP2 AND DUP1 ISZERO PUSH3 0x1C8 JUMPI JUMPDEST PUSH1 0x20 DUP3 LT EQ PUSH3 0x1B2 JUMPI PUSH1 0x1F DUP2 GT PUSH3 0x166 JUMPI JUMPDEST POP POP MLOAD PUSH1 0x1 PUSH1 0x1 PUSH1 0xC8 SHL SUB NOT AND PUSH1 0xE OR PUSH1 0x2 SSTORE PUSH1 0x3 DUP1 SLOAD PUSH1 0x1 PUSH1 0x1 PUSH1 0xA0 SHL SUB NOT DUP1 DUP3 AND CALLER SWAP1 DUP2 OR SWAP1 SWAP4 SSTORE DUP6 MLOAD SWAP1 SWAP4 SWAP1 SWAP3 SWAP2 AND PUSH32 0x8BE0079C531659141344CD1FD0A4F28419497F9722A3DAAFE3B4186F6B6457E0 PUSH1 0x0 DUP1 LOG3 DUP3 ISZERO PUSH3 0x124 JUMPI POP PUSH1 0x4 SLOAD AND OR PUSH1 0x4 SSTORE MLOAD PUSH2 0x1A97 SWAP1 DUP2 PUSH3 0x1EF DUP3 CODECOPY RETURN JUMPDEST PUSH3 0x461BCD PUSH1 0xE5 SHL DUP2 MSTORE PUSH1 0x20 PUSH1 0x4 DUP3 ADD MSTORE PUSH1 0x1F PUSH1 0x24 DUP3 ADD MSTORE PUSH32 0x496E76616C6964207469636B657420636F6E7472616374206164647265737300 PUSH1 0x44 DUP3 ADD MSTORE PUSH1 0x64 SWAP1 REVERT JUMPDEST PUSH1 0x2 PUSH1 0x0 MSTORE PUSH1 0x1F ADD PUSH1 0x5 SHR PUSH32 0x405787FA12A823E0F2B7631CC41B3BA8828B3321CA811111FA75CD3AA3BB5ACE SWAP1 DUP2 ADD SWAP1 JUMPDEST DUP2 DUP2 LT PUSH3 0x1A6 JUMPI POP PUSH3 0xAF JUMP JUMPDEST PUSH1 0x0 DUP2 SSTORE DUP3 ADD PUSH3 0x197 JUMP JUMPDEST PUSH4 0x4E487B71 PUSH1 0xE0 SHL PUSH1 0x0 MSTORE PUSH1 0x22 PUSH1 0x4 MSTORE PUSH1 0x24 PUSH1 0x0 REVERT JUMPDEST SWAP1 PUSH1 0x7F AND SWAP1 PUSH3 0x9B JUMP JUMPDEST PUSH4 0x4E487B71 PUSH1 0xE0 SHL PUSH1 0x0 MSTORE PUSH1 0x41 PUSH1 0x4 MSTORE PUSH1 0x24 PUSH1 0x0 REVERT JUMPDEST PUSH1 0x0 DUP1 REVERT INVALID PUSH1 0x40 PUSH1 0x80 DUP2 MSTORE PUSH1 0x4 SWAP1 DUP2 CALLDATASIZE LT ISZERO PUSH2 0x15 JUMPI PUSH1 0x0 DUP1 REVERT JUMPDEST PUSH1 0x0 SWAP2 DUP3 CALLDATALOAD PUSH1 0xE0 SHR DUP1 PUSH3 0xFDD58E EQ PUSH2 0x11FC JUMPI DUP1 PUSH4 0x1FFC9A7 EQ PUSH2 0x118F JUMPI DUP1 PUSH4 0xE89341C EQ PUSH2 0x107D JUMPI DUP1 PUSH4 0x16D35D71 EQ PUSH2 0xEC9 JUMPI DUP1 PUSH4 0x2EB2C2D6 EQ PUSH2 0xBB2 JUMPI DUP1 PUSH4 0x4E1273F4 EQ PUSH2 0xA15 JUMPI DUP1 PUSH4 0x58A86E1D EQ PUSH2 0x9EE JUMPI DUP1 PUSH4 0x715018A6 EQ PUSH2 0x98E JUMPI DUP1 PUSH4 0x873F6F9E EQ PUSH2 0x948 JUMPI DUP1 PUSH4 0x8D565D6C EQ PUSH2 0x852 JUMPI DUP1 PUSH4 0x8DA5CB5B EQ PUSH2 0x829 JUMPI DUP1 PUSH4 0x9365FC87 EQ PUSH2 0x536 JUMPI DUP1 PUSH4 0xA22CB465 EQ PUSH2 0x455 JUMPI DUP1 PUSH4 0xE985E9C5 EQ PUSH2 0x403 JUMPI DUP1 PUSH4 0xF242432A EQ PUSH2 0x19E JUMPI PUSH4 0xF2FDE38B EQ PUSH2 0xD0 JUMPI PUSH1 0x0 DUP1 REVERT JUMPDEST CALLVALUE PUSH2 0x19A JUMPI PUSH1 0x20 CALLDATASIZE PUSH1 0x3 NOT ADD SLT PUSH2 0x19A JUMPI PUSH2 0xE9 PUSH2 0x122C JUMP JUMPDEST SWAP1 PUSH2 0xF2 PUSH2 0x1400 JUMP JUMPDEST PUSH1 0x1 PUSH1 0x1 PUSH1 0xA0 SHL SUB SWAP2 DUP3 AND SWAP3 DUP4 ISZERO PUSH2 0x148 JUMPI POP POP PUSH1 0x3 SLOAD DUP3 PUSH12 0xFFFFFFFFFFFFFFFFFFFFFFFF PUSH1 0xA0 SHL DUP3 AND OR PUSH1 0x3 SSTORE AND PUSH32 0x8BE0079C531659141344CD1FD0A4F28419497F9722A3DAAFE3B4186F6B6457E0 DUP4 DUP1 LOG3 DUP1 RETURN JUMPDEST SWAP1 PUSH1 0x20 PUSH1 0x84 SWAP3 MLOAD SWAP2 PUSH3 0x461BCD PUSH1 0xE5 SHL DUP4 MSTORE DUP3 ADD MSTORE PUSH1 0x26 PUSH1 0x24 DUP3 ADD MSTORE PUSH32 0x4F776E61626C653A206E6577206F776E657220697320746865207A65726F2061 PUSH1 0x44 DUP3 ADD MSTORE PUSH6 0x646472657373 PUSH1 0xD0 SHL PUSH1 0x64 DUP3 ADD MSTORE REVERT JUMPDEST DUP3 DUP1 REVERT JUMPDEST POP CALLVALUE PUSH2 0x19A JUMPI PUSH1 0xA0 CALLDATASIZE PUSH1 0x3 NOT ADD SLT PUSH2 0x19A JUMPI PUSH2 0x1B8 PUSH2 0x122C JUMP JUMPDEST SWAP2 PUSH2 0x1C1 PUSH2 0x1247 JUMP JUMPDEST SWAP3 PUSH1 0x44 CALLDATALOAD SWAP1 PUSH1 0x64 CALLDATALOAD SWAP1 PUSH1 0x84 CALLDATALOAD PUSH8 0xFFFFFFFFFFFFFFFF DUP2 GT PUSH2 0x3FF JUMPI PUSH2 0x1E9 SWAP1 CALLDATASIZE SWAP1 DUP8 ADD PUSH2 0x13AE JUMP JUMPDEST SWAP3 PUSH1 0x1 PUSH1 0x1 PUSH1 0xA0 SHL SUB SWAP2 DUP3 AND SWAP2 CALLER DUP4 EQ DUP1 ISZERO PUSH2 0x3E0 JUMPI JUMPDEST PUSH2 0x209 SWAP1 PUSH2 0x1539 JUMP JUMPDEST DUP8 AND SWAP2 PUSH2 0x217 DUP4 ISZERO ISZERO PUSH2 0x159C JUMP JUMPDEST PUSH2 0x220 DUP3 PUSH2 0x17AD JUMP JUMPDEST POP PUSH2 0x22A DUP5 PUSH2 0x17AD JUMP JUMPDEST POP DUP2 DUP10 MSTORE PUSH1 0x20 SWAP8 DUP10 DUP10 MSTORE DUP7 DUP11 KECCAK256 DUP3 DUP12 MSTORE DUP10 MSTORE DUP5 DUP8 DUP12 KECCAK256 SLOAD PUSH2 0x24D DUP3 DUP3 LT ISZERO PUSH2 0x15F6 JUMP JUMPDEST DUP5 DUP13 MSTORE DUP12 DUP12 MSTORE DUP9 DUP13 KECCAK256 DUP5 DUP14 MSTORE DUP12 MSTORE SUB DUP8 DUP12 KECCAK256 SSTORE DUP3 DUP11 MSTORE DUP10 DUP10 MSTORE DUP7 DUP11 KECCAK256 DUP5 DUP12 MSTORE DUP10 MSTORE DUP7 DUP11 KECCAK256 PUSH2 0x27C DUP7 DUP3 SLOAD PUSH2 0x1655 JUMP JUMPDEST SWAP1 SSTORE DUP4 DUP3 DUP9 MLOAD DUP6 DUP2 MSTORE DUP8 DUP13 DUP3 ADD MSTORE PUSH32 0xC3D58168C5AE7397731D063D5BBF3D657854427343F4C083240F7AACAA2D0F62 DUP11 CALLER SWAP3 LOG4 EXTCODESIZE PUSH2 0x2B8 JUMPI DUP9 DUP1 RETURN JUMPDEST SWAP2 DUP7 SWAP8 SWAP9 SWAP6 SWAP7 SWAP5 SWAP4 SWAP2 DUP7 DUP11 SWAP5 PUSH2 0x301 DUP11 MLOAD SWAP8 DUP9 SWAP7 DUP8 SWAP6 DUP7 SWAP5 PUSH4 0xF23A6E61 PUSH1 0xE0 SHL SWAP13 DUP14 DUP8 MSTORE CALLER SWAP1 DUP8 ADD MSTORE PUSH1 0x24 DUP7 ADD MSTORE PUSH1 0x44 DUP6 ADD MSTORE PUSH1 0x64 DUP5 ADD MSTORE PUSH1 0xA0 PUSH1 0x84 DUP5 ADD MSTORE PUSH1 0xA4 DUP4 ADD SWAP1 PUSH2 0x125D JUMP JUMPDEST SUB SWAP3 GAS CALL DUP4 SWAP2 DUP2 PUSH2 0x3B1 JUMPI JUMPDEST POP PUSH2 0x376 JUMPI POP POP POP PUSH2 0x31D PUSH2 0x16CB JUMP JUMPDEST PUSH4 0x8C379A0 EQ PUSH2 0x345 JUMPI JUMPDEST MLOAD PUSH3 0x461BCD PUSH1 0xE5 SHL DUP2 MSTORE SWAP2 POP DUP2 SWAP1 PUSH2 0x341 SWAP1 DUP3 ADD PUSH2 0x1758 JUMP JUMPDEST SUB SWAP1 REVERT JUMPDEST PUSH2 0x34D PUSH2 0x16E9 JUMP JUMPDEST DUP1 PUSH2 0x358 JUMPI POP PUSH2 0x328 JUMP JUMPDEST PUSH2 0x341 SWAP2 MLOAD SWAP4 DUP5 SWAP4 PUSH3 0x461BCD PUSH1 0xE5 SHL DUP6 MSTORE DUP5 ADD MSTORE PUSH1 0x24 DUP4 ADD SWAP1 PUSH2 0x125D JUMP JUMPDEST SWAP2 SWAP5 POP PUSH1 0x1 PUSH1 0x1 PUSH1 0xE0 SHL SUB NOT SWAP1 SWAP2 AND SUB PUSH2 0x398 JUMPI POP POP CODESIZE DUP1 DUP1 DUP1 DUP1 DUP1 DUP1 DUP1 DUP9 DUP1 RETURN JUMPDEST MLOAD PUSH3 0x461BCD PUSH1 0xE5 SHL DUP2 MSTORE SWAP2 POP DUP2 SWAP1 PUSH2 0x341 SWAP1 DUP3 ADD PUSH2 0x1682 JUMP JUMPDEST PUSH2 0x3D2 SWAP2 SWAP3 POP DUP8 RETURNDATASIZE DUP10 GT PUSH2 0x3D9 JUMPI JUMPDEST PUSH2 0x3CA DUP2 DUP4 PUSH2 0x12CF JUMP JUMPDEST DUP2 ADD SWAP1 PUSH2 0x1662 JUMP JUMPDEST SWAP1 CODESIZE PUSH2 0x30D JUMP JUMPDEST POP RETURNDATASIZE PUSH2 0x3C0 JUMP JUMPDEST POP DUP3 DUP10 MSTORE PUSH1 0x1 PUSH1 0x20 SWAP1 DUP2 MSTORE DUP7 DUP11 KECCAK256 CALLER DUP12 MSTORE SWAP1 MSTORE DUP6 DUP10 KECCAK256 SLOAD PUSH1 0xFF AND PUSH2 0x200 JUMP JUMPDEST DUP8 DUP1 REVERT JUMPDEST POP POP CALLVALUE PUSH2 0x451 JUMPI DUP1 PUSH1 0x3 NOT CALLDATASIZE ADD SLT PUSH2 0x451 JUMPI PUSH1 0xFF DUP2 PUSH1 0x20 SWAP4 PUSH2 0x423 PUSH2 0x122C JUMP JUMPDEST PUSH2 0x42B PUSH2 0x1247 JUMP JUMPDEST PUSH1 0x1 PUSH1 0x1 PUSH1 0xA0 SHL SUB SWAP2 DUP3 AND DUP4 MSTORE PUSH1 0x1 DUP8 MSTORE DUP4 DUP4 KECCAK256 SWAP2 AND DUP3 MSTORE DUP6 MSTORE KECCAK256 SLOAD SWAP2 MLOAD SWAP2 AND ISZERO ISZERO DUP2 MSTORE RETURN JUMPDEST POP DUP1 REVERT JUMPDEST POP SWAP1 CALLVALUE PUSH2 0x19A JUMPI DUP1 PUSH1 0x3 NOT CALLDATASIZE ADD SLT PUSH2 0x19A JUMPI PUSH2 0x46F PUSH2 0x122C JUMP JUMPDEST SWAP1 PUSH1 0x24 CALLDATALOAD SWAP2 DUP3 ISZERO ISZERO DUP1 SWAP4 SUB PUSH2 0x532 JUMPI PUSH1 0x1 PUSH1 0x1 PUSH1 0xA0 SHL SUB AND SWAP3 CALLER DUP5 EQ PUSH2 0x4DE JUMPI POP CALLER DUP5 MSTORE PUSH1 0x1 PUSH1 0x20 MSTORE DUP1 DUP5 KECCAK256 DUP4 DUP6 MSTORE PUSH1 0x20 MSTORE DUP1 DUP5 KECCAK256 PUSH1 0xFF NOT DUP2 SLOAD AND PUSH1 0xFF DUP5 AND OR SWAP1 SSTORE MLOAD SWAP1 DUP2 MSTORE PUSH32 0x17307EAB39AB6107E8899845AD3D59BD9653F200F220920489CA2B5937696C31 PUSH1 0x20 CALLER SWAP3 LOG3 DUP1 RETURN JUMPDEST PUSH1 0x20 PUSH1 0x84 SWAP3 MLOAD SWAP2 PUSH3 0x461BCD PUSH1 0xE5 SHL DUP4 MSTORE DUP3 ADD MSTORE PUSH1 0x29 PUSH1 0x24 DUP3 ADD MSTORE PUSH32 0x455243313135353A2073657474696E6720617070726F76616C20737461747573 PUSH1 0x44 DUP3 ADD MSTORE PUSH9 0x103337B91039B2B633 PUSH1 0xB9 SHL PUSH1 0x64 DUP3 ADD MSTORE REVERT JUMPDEST DUP5 DUP1 REVERT JUMPDEST POP SWAP2 SWAP1 CALLVALUE PUSH2 0x451 JUMPI PUSH1 0x20 SWAP1 DUP2 PUSH1 0x3 NOT CALLDATASIZE ADD SLT PUSH2 0x19A JUMPI DUP4 CALLDATALOAD SWAP2 DUP3 DUP5 MSTORE PUSH1 0x6 DUP2 MSTORE PUSH2 0x56C PUSH2 0x565 DUP4 DUP7 KECCAK256 SLOAD PUSH2 0x17D2 JUMP JUMPDEST ISZERO ISZERO PUSH2 0x180C JUMP JUMPDEST DUP3 DUP5 MSTORE PUSH1 0x5 DUP2 MSTORE DUP2 DUP5 KECCAK256 CALLER DUP6 MSTORE DUP2 MSTORE PUSH1 0xFF DUP3 DUP6 KECCAK256 SLOAD AND PUSH2 0x7EF JUMPI PUSH2 0x590 DUP4 CALLER PUSH2 0x1858 JUMP JUMPDEST ISZERO PUSH2 0x7AD JUMPI DUP2 MLOAD SWAP5 DUP2 DUP7 ADD DUP7 DUP2 LT PUSH8 0xFFFFFFFFFFFFFFFF DUP3 GT OR PUSH2 0x79A JUMPI DUP4 MSTORE DUP5 DUP7 MSTORE CALLER ISZERO PUSH2 0x74F JUMPI DUP4 SWAP5 SWAP6 PUSH2 0x5C8 PUSH2 0x5E7 SWAP6 PUSH2 0x17AD JUMP JUMPDEST POP DUP4 MLOAD PUSH2 0x5D4 DUP2 PUSH2 0x129D JUMP JUMPDEST PUSH1 0x1 SWAP6 DUP2 DUP8 DUP1 SWAP4 MSTORE DUP6 CALLDATASIZE DUP2 DUP4 ADD CALLDATACOPY PUSH2 0x1502 JUMP JUMPDEST MSTORE DUP6 DUP8 MSTORE DUP7 DUP4 MSTORE DUP4 DUP8 KECCAK256 CALLER DUP9 MSTORE DUP4 MSTORE DUP4 DUP8 KECCAK256 DUP1 SLOAD SWAP1 DUP7 DUP3 ADD DUP1 SWAP3 GT PUSH2 0x73C JUMPI SSTORE DUP4 MLOAD DUP7 DUP2 MSTORE DUP6 DUP5 DUP3 ADD MSTORE DUP8 CALLER SWAP2 PUSH32 0xC3D58168C5AE7397731D063D5BBF3D657854427343F4C083240F7AACAA2D0F62 DUP8 CALLER SWAP3 LOG4 CALLER EXTCODESIZE PUSH2 0x686 JUMPI JUMPDEST POP POP DUP4 DUP6 MSTORE PUSH1 0x5 DUP2 MSTORE DUP2 DUP6 KECCAK256 SWAP1 CALLER DUP7 MSTORE MSTORE DUP4 KECCAK256 SWAP1 PUSH1 0xFF NOT DUP3 SLOAD AND OR SWAP1 SSTORE CALLER SWAP1 PUSH32 0x5DDCA7D5809A6830DDA8F5547A130099BE44F5E1F6AB4773CBE795C10C0F605E DUP4 DUP1 LOG3 DUP1 RETURN JUMPDEST DUP4 SWAP5 SWAP2 SWAP6 SWAP3 SWAP7 SWAP4 MLOAD DUP8 DUP2 DUP1 PUSH2 0x6C8 PUSH4 0xF23A6E61 PUSH1 0xE0 SHL SWAP6 DUP7 DUP4 MSTORE CALLER DUP13 DUP5 ADD MSTORE DUP10 PUSH1 0x24 DUP5 ADD MSTORE DUP9 PUSH1 0x44 DUP5 ADD MSTORE DUP8 PUSH1 0x64 DUP5 ADD MSTORE PUSH1 0xA0 PUSH1 0x84 DUP5 ADD MSTORE PUSH1 0xA4 DUP4 ADD SWAP1 PUSH2 0x125D JUMP JUMPDEST SUB DUP2 DUP9 CALLER GAS CALL DUP6 SWAP2 DUP2 PUSH2 0x71D JUMPI JUMPDEST POP PUSH2 0x6E6 JUMPI DUP8 DUP8 DUP8 PUSH2 0x31D PUSH2 0x16CB JUMP JUMPDEST SWAP4 SWAP7 SWAP3 SWAP6 SWAP2 SWAP5 SWAP4 PUSH1 0x1 PUSH1 0x1 PUSH1 0xE0 SHL SUB NOT AND SUB PUSH2 0x704 JUMPI POP CODESIZE DUP1 PUSH2 0x640 JUMP JUMPDEST DUP3 MLOAD PUSH3 0x461BCD PUSH1 0xE5 SHL DUP2 MSTORE SWAP1 DUP2 SWAP1 PUSH2 0x341 SWAP1 DUP3 ADD PUSH2 0x1682 JUMP JUMPDEST PUSH2 0x735 SWAP2 SWAP3 POP DUP10 RETURNDATASIZE DUP12 GT PUSH2 0x3D9 JUMPI PUSH2 0x3CA DUP2 DUP4 PUSH2 0x12CF JUMP JUMPDEST SWAP1 CODESIZE PUSH2 0x6D6 JUMP JUMPDEST PUSH4 0x4E487B71 PUSH1 0xE0 SHL DUP10 MSTORE PUSH1 0x11 DUP5 MSTORE PUSH1 0x24 DUP10 REVERT JUMPDEST SWAP2 MLOAD PUSH3 0x461BCD PUSH1 0xE5 SHL DUP2 MSTORE SWAP2 DUP3 ADD MSTORE PUSH1 0x21 PUSH1 0x24 DUP3 ADD MSTORE PUSH32 0x455243313135353A206D696E7420746F20746865207A65726F20616464726573 PUSH1 0x44 DUP3 ADD MSTORE PUSH1 0x73 PUSH1 0xF8 SHL PUSH1 0x64 DUP3 ADD MSTORE PUSH1 0x84 SWAP1 REVERT JUMPDEST PUSH4 0x4E487B71 PUSH1 0xE0 SHL DUP7 MSTORE PUSH1 0x41 DUP3 MSTORE PUSH1 0x24 DUP7 REVERT JUMPDEST DUP5 SWAP1 PUSH1 0x64 SWAP3 MLOAD SWAP2 PUSH3 0x461BCD PUSH1 0xE5 SHL DUP4 MSTORE DUP3 ADD MSTORE PUSH1 0x1C PUSH1 0x24 DUP3 ADD MSTORE PUSH32 0x504F41503A20496E76616C6964206F722075736564207469636B657400000000 PUSH1 0x44 DUP3 ADD MSTORE REVERT JUMPDEST DUP5 SWAP1 PUSH1 0x64 SWAP3 MLOAD SWAP2 PUSH3 0x461BCD PUSH1 0xE5 SHL DUP4 MSTORE DUP3 ADD MSTORE PUSH1 0x15 PUSH1 0x24 DUP3 ADD MSTORE PUSH21 0x1413D0540E88105B1C9958591E4818DB185A5B5959 PUSH1 0x5A SHL PUSH1 0x44 DUP3 ADD MSTORE REVERT JUMPDEST POP POP CALLVALUE PUSH2 0x451 JUMPI DUP2 PUSH1 0x3 NOT CALLDATASIZE ADD SLT PUSH2 0x451 JUMPI PUSH1 0x3 SLOAD SWAP1 MLOAD PUSH1 0x1 PUSH1 0x1 PUSH1 0xA0 SHL SUB SWAP1 SWAP2 AND DUP2 MSTORE PUSH1 0x20 SWAP1 RETURN JUMPDEST POP SWAP1 CALLVALUE PUSH2 0x19A JUMPI PUSH1 0x20 SWAP2 DUP3 PUSH1 0x3 NOT CALLDATASIZE ADD SLT PUSH2 0x944 JUMPI CALLDATALOAD DUP1 DUP5 MSTORE PUSH1 0x6 DUP4 MSTORE PUSH2 0x87E PUSH2 0x565 DUP4 DUP7 KECCAK256 SLOAD PUSH2 0x17D2 JUMP JUMPDEST DUP4 MSTORE PUSH1 0x6 DUP3 MSTORE DUP1 DUP4 KECCAK256 DUP2 MLOAD SWAP4 DUP5 SWAP2 DUP2 DUP2 SLOAD SWAP1 PUSH2 0x899 DUP3 PUSH2 0x17D2 JUMP JUMPDEST SWAP3 DUP4 DUP7 MSTORE PUSH1 0x1 SWAP3 DUP9 DUP5 DUP3 AND SWAP2 DUP3 PUSH1 0x0 EQ PUSH2 0x91A JUMPI POP POP PUSH1 0x1 EQ PUSH2 0x8DC JUMPI JUMPDEST DUP6 DUP9 PUSH2 0x8D8 DUP10 PUSH2 0x8C9 DUP5 DUP11 SUB DUP6 PUSH2 0x12CF JUMP JUMPDEST MLOAD SWAP3 DUP3 DUP5 SWAP4 DUP5 MSTORE DUP4 ADD SWAP1 PUSH2 0x125D JUMP JUMPDEST SUB SWAP1 RETURN JUMPDEST DUP8 SWAP5 POP DUP2 SWAP4 SWAP3 SWAP2 MSTORE DUP4 DUP4 KECCAK256 JUMPDEST DUP3 DUP5 LT PUSH2 0x902 JUMPI POP POP POP DUP3 ADD ADD DUP2 PUSH2 0x8C9 PUSH2 0x8D8 CODESIZE PUSH2 0x8B7 JUMP JUMPDEST DUP1 SLOAD DUP5 DUP11 ADD DUP7 ADD MSTORE DUP9 SWAP6 POP DUP8 SWAP5 SWAP1 SWAP4 ADD SWAP3 DUP2 ADD PUSH2 0x8E8 JUMP JUMPDEST PUSH1 0xFF NOT AND DUP9 DUP3 ADD MSTORE SWAP5 ISZERO ISZERO PUSH1 0x5 SHL DUP8 ADD SWAP1 SWAP5 ADD SWAP5 POP DUP6 SWAP4 POP PUSH2 0x8C9 SWAP3 POP PUSH2 0x8D8 SWAP2 POP CODESIZE SWAP1 POP PUSH2 0x8B7 JUMP JUMPDEST DUP4 DUP1 REVERT JUMPDEST POP CALLVALUE PUSH2 0x19A JUMPI DUP2 PUSH1 0x3 NOT CALLDATASIZE ADD SLT PUSH2 0x19A JUMPI DUP2 PUSH1 0x20 SWAP4 PUSH1 0xFF SWAP3 PUSH2 0x968 PUSH2 0x1247 JUMP JUMPDEST SWAP1 CALLDATALOAD DUP3 MSTORE PUSH1 0x5 DUP7 MSTORE DUP3 DUP3 KECCAK256 PUSH1 0x1 PUSH1 0x1 PUSH1 0xA0 SHL SUB SWAP1 SWAP2 AND DUP3 MSTORE DUP6 MSTORE KECCAK256 SLOAD SWAP2 MLOAD SWAP2 AND ISZERO ISZERO DUP2 MSTORE RETURN JUMPDEST DUP4 CALLVALUE PUSH2 0x9EB JUMPI DUP1 PUSH1 0x3 NOT CALLDATASIZE ADD SLT PUSH2 0x9EB JUMPI PUSH2 0x9A7 PUSH2 0x1400 JUMP JUMPDEST PUSH1 0x3 DUP1 SLOAD PUSH1 0x1 PUSH1 0x1 PUSH1 0xA0 SHL SUB NOT DUP2 AND SWAP1 SWAP2 SSTORE DUP2 SWAP1 PUSH1 0x1 PUSH1 0x1 PUSH1 0xA0 SHL SUB AND PUSH32 0x8BE0079C531659141344CD1FD0A4F28419497F9722A3DAAFE3B4186F6B6457E0 DUP3 DUP1 LOG3 DUP1 RETURN JUMPDEST DUP1 REVERT JUMPDEST POP CALLVALUE PUSH2 0x19A JUMPI DUP3 PUSH1 0x3 NOT CALLDATASIZE ADD SLT PUSH2 0x19A JUMPI SLOAD SWAP1 MLOAD PUSH1 0x1 PUSH1 0x1 PUSH1 0xA0 SHL SUB SWAP1 SWAP2 AND DUP2 MSTORE PUSH1 0x20 SWAP2 POP RETURN JUMPDEST POP CALLVALUE PUSH2 0x19A JUMPI DUP2 PUSH1 0x3 NOT CALLDATASIZE ADD SLT PUSH2 0x19A JUMPI DUP1 CALLDATALOAD PUSH8 0xFFFFFFFFFFFFFFFF DUP1 DUP3 GT PUSH2 0x532 JUMPI CALLDATASIZE PUSH1 0x23 DUP4 ADD SLT ISZERO PUSH2 0x532 JUMPI DUP2 DUP4 ADD CALLDATALOAD SWAP1 PUSH2 0xA51 DUP3 PUSH2 0x1338 JUMP JUMPDEST SWAP3 PUSH2 0xA5E DUP7 MLOAD SWAP5 DUP6 PUSH2 0x12CF JUMP JUMPDEST DUP3 DUP5 MSTORE PUSH1 0x20 SWAP3 PUSH1 0x24 DUP5 DUP7 ADD SWAP2 PUSH1 0x5 SHL DUP4 ADD ADD SWAP2 CALLDATASIZE DUP4 GT PUSH2 0xBAE JUMPI PUSH1 0x24 ADD SWAP1 JUMPDEST DUP3 DUP3 LT PUSH2 0xB8B JUMPI POP POP POP PUSH1 0x24 CALLDATALOAD SWAP1 DUP2 GT PUSH2 0xB87 JUMPI PUSH2 0xA9E SWAP1 CALLDATASIZE SWAP1 DUP6 ADD PUSH2 0x1350 JUMP JUMPDEST SWAP3 DUP3 MLOAD DUP5 MLOAD SUB PUSH2 0xB34 JUMPI POP DUP2 MLOAD SWAP5 PUSH2 0xAB5 DUP7 PUSH2 0x1338 JUMP JUMPDEST SWAP6 PUSH2 0xAC2 DUP7 MLOAD SWAP8 DUP9 PUSH2 0x12CF JUMP JUMPDEST DUP1 DUP8 MSTORE PUSH2 0xAD1 PUSH1 0x1F NOT SWAP2 PUSH2 0x1338 JUMP JUMPDEST ADD CALLDATASIZE DUP4 DUP9 ADD CALLDATACOPY JUMPDEST DUP3 MLOAD DUP2 LT ISZERO PUSH2 0xB22 JUMPI PUSH2 0xB1D SWAP1 PUSH2 0xB0D PUSH1 0x1 PUSH1 0x1 PUSH1 0xA0 SHL SUB PUSH2 0xAFA DUP4 DUP8 PUSH2 0x1525 JUMP JUMPDEST MLOAD AND PUSH2 0xB06 DUP4 DUP9 PUSH2 0x1525 JUMP JUMPDEST MLOAD SWAP1 PUSH2 0x1458 JUMP JUMPDEST PUSH2 0xB17 DUP3 DUP10 PUSH2 0x1525 JUMP JUMPDEST MSTORE PUSH2 0x14DD JUMP JUMPDEST PUSH2 0xAD8 JUMP JUMPDEST DUP5 MLOAD DUP3 DUP2 MSTORE DUP1 PUSH2 0x8D8 DUP2 DUP6 ADD DUP10 PUSH2 0x13CC JUMP JUMPDEST PUSH1 0x84 SWAP2 DUP6 MLOAD SWAP2 PUSH3 0x461BCD PUSH1 0xE5 SHL DUP4 MSTORE DUP3 ADD MSTORE PUSH1 0x29 PUSH1 0x24 DUP3 ADD MSTORE PUSH32 0x455243313135353A206163636F756E747320616E6420696473206C656E677468 PUSH1 0x44 DUP3 ADD MSTORE PUSH9 0x40DAD2E6DAC2E8C6D PUSH1 0xBB SHL PUSH1 0x64 DUP3 ADD MSTORE REVERT JUMPDEST DUP6 DUP1 REVERT JUMPDEST DUP2 CALLDATALOAD PUSH1 0x1 PUSH1 0x1 PUSH1 0xA0 SHL SUB DUP2 AND DUP2 SUB PUSH2 0xBAA JUMPI DUP2 MSTORE SWAP1 DUP5 ADD SWAP1 DUP5 ADD PUSH2 0xA7D JUMP JUMPDEST DUP10 DUP1 REVERT JUMPDEST DUP9 DUP1 REVERT JUMPDEST POP DUP3 CALLVALUE PUSH2 0x9EB JUMPI PUSH1 0x3 NOT SWAP3 PUSH1 0xA0 CALLDATASIZE DUP6 ADD SLT PUSH2 0x451 JUMPI PUSH2 0xBCF PUSH2 0x122C JUMP JUMPDEST SWAP2 PUSH2 0xBD8 PUSH2 0x1247 JUMP JUMPDEST SWAP5 PUSH8 0xFFFFFFFFFFFFFFFF SWAP4 PUSH1 0x44 CALLDATALOAD DUP6 DUP2 GT PUSH2 0x944 JUMPI PUSH2 0xBFA SWAP1 CALLDATASIZE SWAP1 DUP9 ADD PUSH2 0x1350 JUMP JUMPDEST PUSH1 0x64 CALLDATALOAD DUP7 DUP2 GT PUSH2 0x532 JUMPI PUSH2 0xC11 SWAP1 CALLDATASIZE SWAP1 DUP10 ADD PUSH2 0x1350 JUMP JUMPDEST SWAP6 PUSH1 0x84 CALLDATALOAD SWAP1 DUP2 GT PUSH2 0x532 JUMPI PUSH2 0xC29 SWAP1 CALLDATASIZE SWAP1 DUP10 ADD PUSH2 0x13AE JUMP JUMPDEST SWAP7 PUSH1 0x1 PUSH1 0x1 PUSH1 0xA0 SHL SUB SWAP3 DUP4 AND SWAP3 CALLER DUP5 EQ DUP1 ISZERO PUSH2 0xEAA JUMPI JUMPDEST PUSH2 0xC49 SWAP1 PUSH2 0x1539 JUMP JUMPDEST DUP3 MLOAD DUP9 MLOAD SUB PUSH2 0xE56 JUMPI DUP10 AND SWAP4 PUSH2 0xC60 DUP6 ISZERO ISZERO PUSH2 0x159C JUMP JUMPDEST DUP6 JUMPDEST DUP4 MLOAD DUP2 LT ISZERO PUSH2 0xCE4 JUMPI DUP1 PUSH2 0xC79 PUSH2 0xCDF SWAP3 DUP7 PUSH2 0x1525 JUMP JUMPDEST MLOAD PUSH2 0xC84 DUP3 DUP13 PUSH2 0x1525 JUMP JUMPDEST MLOAD SWAP1 DUP1 DUP11 MSTORE PUSH1 0x20 SWAP1 DUP11 DUP3 MSTORE DUP12 DUP12 KECCAK256 DUP10 DUP13 MSTORE DUP3 MSTORE DUP3 DUP13 DUP13 DUP12 DUP3 DUP3 KECCAK256 SLOAD SWAP3 PUSH2 0xCAC DUP6 DUP6 LT ISZERO PUSH2 0x15F6 JUMP JUMPDEST DUP6 DUP4 MSTORE DUP3 DUP8 MSTORE DUP3 KECCAK256 SWAP2 MSTORE DUP5 MSTORE SUB DUP13 DUP13 KECCAK256 SSTORE DUP11 MSTORE DUP10 DUP2 MSTORE DUP11 DUP11 KECCAK256 SWAP1 DUP10 DUP12 MSTORE MSTORE PUSH2 0xCD8 DUP11 DUP11 KECCAK256 SWAP2 DUP3 SLOAD PUSH2 0x1655 JUMP JUMPDEST SWAP1 SSTORE PUSH2 0x14DD JUMP JUMPDEST PUSH2 0xC62 JUMP JUMPDEST POP SWAP5 SWAP9 SWAP8 SWAP1 SWAP7 SWAP3 SWAP6 SWAP8 DUP5 DUP8 DUP11 MLOAD DUP12 DUP2 MSTORE PUSH32 0x4A39DC06D4C0DBC64B70AF90FD698A233A518AA5D07E595D983B8C0526C8F7FB PUSH2 0xD21 DUP14 DUP4 ADD DUP9 PUSH2 0x13CC JUMP JUMPDEST SWAP2 DUP1 DUP4 SUB PUSH1 0x20 DUP3 ADD MSTORE DUP1 PUSH2 0xD36 CALLER SWAP5 DUP12 PUSH2 0x13CC JUMP JUMPDEST SUB SWAP1 LOG4 EXTCODESIZE PUSH2 0xD42 JUMPI DUP9 DUP1 RETURN JUMPDEST DUP8 SWAP9 SWAP7 SWAP8 MLOAD SWAP5 DUP6 SWAP4 DUP5 SWAP4 PUSH4 0xBC197C81 PUSH1 0xE0 SHL SWAP9 DUP10 DUP7 MSTORE CALLER DUP13 DUP8 ADD MSTORE PUSH1 0x24 DUP7 ADD MSTORE PUSH1 0x44 DUP6 ADD PUSH1 0xA0 SWAP1 MSTORE PUSH1 0xA4 DUP6 ADD PUSH2 0xD77 SWAP2 PUSH2 0x13CC JUMP JUMPDEST DUP3 DUP6 DUP3 SUB ADD PUSH1 0x64 DUP7 ADD MSTORE PUSH2 0xD8A SWAP2 PUSH2 0x13CC JUMP JUMPDEST SWAP1 DUP4 DUP3 SUB ADD PUSH1 0x84 DUP5 ADD MSTORE PUSH2 0xD9D SWAP2 PUSH2 0x125D JUMP JUMPDEST SUB DUP2 DUP7 GAS SWAP5 PUSH1 0x20 SWAP6 CALL DUP4 SWAP2 DUP2 PUSH2 0xE36 JUMPI JUMPDEST POP PUSH2 0xE16 JUMPI POP POP POP PUSH2 0xDBE PUSH2 0x16CB JUMP JUMPDEST PUSH4 0x8C379A0 EQ PUSH2 0xDE2 JUMPI JUMPDEST SWAP1 MLOAD PUSH3 0x461BCD PUSH1 0xE5 SHL DUP2 MSTORE SWAP1 DUP2 SWAP1 PUSH2 0x341 SWAP1 DUP3 ADD PUSH2 0x1758 JUMP JUMPDEST PUSH2 0xDEA PUSH2 0x16E9 JUMP JUMPDEST DUP1 PUSH2 0xDF5 JUMPI POP PUSH2 0xDC9 JUMP JUMPDEST PUSH2 0x341 SWAP1 PUSH1 0x20 SWAP4 MLOAD SWAP4 DUP5 SWAP4 PUSH3 0x461BCD PUSH1 0xE5 SHL DUP6 MSTORE DUP5 ADD MSTORE PUSH1 0x24 DUP4 ADD SWAP1 PUSH2 0x125D JUMP JUMPDEST SWAP2 SWAP4 SWAP2 PUSH1 0x1 PUSH1 0x1 PUSH1 0xE0 SHL SUB NOT AND SUB PUSH2 0x398 JUMPI POP POP DUP2 DUP1 DUP1 DUP1 DUP1 DUP1 DUP1 DUP1 DUP9 DUP1 RETURN JUMPDEST PUSH2 0xE4F SWAP2 SWAP3 POP PUSH1 0x20 RETURNDATASIZE DUP2 GT PUSH2 0x3D9 JUMPI PUSH2 0x3CA DUP2 DUP4 PUSH2 0x12CF JUMP JUMPDEST SWAP1 DUP7 PUSH2 0xDAE JUMP JUMPDEST DUP7 MLOAD PUSH3 0x461BCD PUSH1 0xE5 SHL DUP2 MSTORE PUSH1 0x20 DUP2 DUP5 ADD MSTORE PUSH1 0x28 PUSH1 0x24 DUP3 ADD MSTORE PUSH32 0x455243313135353A2069647320616E6420616D6F756E7473206C656E67746820 PUSH1 0x44 DUP3 ADD MSTORE PUSH8 0xDAD2E6DAC2E8C6D PUSH1 0xC3 SHL PUSH1 0x64 DUP3 ADD MSTORE PUSH1 0x84 SWAP1 REVERT JUMPDEST POP DUP4 DUP7 MSTORE PUSH1 0x1 PUSH1 0x20 SWAP1 DUP2 MSTORE DUP8 DUP8 KECCAK256 CALLER DUP9 MSTORE SWAP1 MSTORE DUP7 DUP7 KECCAK256 SLOAD PUSH1 0xFF AND PUSH2 0xC40 JUMP JUMPDEST POP DUP3 SWAP1 CALLVALUE PUSH2 0x451 JUMPI DUP3 PUSH1 0x3 NOT CALLDATASIZE ADD SLT PUSH2 0x451 JUMPI PUSH8 0xFFFFFFFFFFFFFFFF PUSH1 0x24 CALLDATALOAD DUP2 DUP2 GT PUSH2 0x944 JUMPI CALLDATASIZE PUSH1 0x23 DUP3 ADD SLT ISZERO PUSH2 0x944 JUMPI PUSH2 0xF0D SWAP1 CALLDATASIZE SWAP1 PUSH1 0x24 DUP2 DUP7 ADD CALLDATALOAD SWAP2 ADD PUSH2 0x12F1 JUMP JUMPDEST SWAP4 PUSH2 0xF16 PUSH2 0x1400 JUMP JUMPDEST DUP5 MLOAD ISZERO PUSH2 0x103B JUMPI DUP3 CALLDATALOAD DUP5 MSTORE PUSH1 0x20 SWAP1 PUSH1 0x6 DUP3 MSTORE DUP5 KECCAK256 SWAP3 DUP6 MLOAD SWAP3 DUP4 GT PUSH2 0x1028 JUMPI POP PUSH2 0xF3F DUP4 SLOAD PUSH2 0x17D2 JUMP JUMPDEST PUSH1 0x1F DUP2 GT PUSH2 0xFE5 JUMPI JUMPDEST POP DUP1 PUSH1 0x1F DUP4 GT PUSH1 0x1 EQ PUSH2 0xF83 JUMPI POP DUP4 SWAP5 DUP3 SWAP4 SWAP5 SWAP3 PUSH2 0xF78 JUMPI JUMPDEST POP POP DUP2 PUSH1 0x1 SHL SWAP2 PUSH1 0x0 NOT SWAP1 PUSH1 0x3 SHL SHR NOT AND OR SWAP1 SSTORE DUP1 RETURN JUMPDEST ADD MLOAD SWAP1 POP DUP5 DUP1 PUSH2 0xF61 JUMP JUMPDEST SWAP1 PUSH1 0x1F NOT DUP4 AND SWAP6 DUP5 DUP7 MSTORE DUP3 DUP7 KECCAK256 SWAP3 DUP7 SWAP1 JUMPDEST DUP9 DUP3 LT PUSH2 0xFCD JUMPI POP POP DUP4 PUSH1 0x1 SWAP6 SWAP7 SWAP8 LT PUSH2 0xFB4 JUMPI JUMPDEST POP POP POP DUP2 SHL ADD SWAP1 SSTORE DUP1 RETURN JUMPDEST ADD MLOAD PUSH1 0x0 NOT PUSH1 0xF8 DUP5 PUSH1 0x3 SHL AND SHR NOT AND SWAP1 SSTORE DUP5 DUP1 DUP1 PUSH2 0xFA9 JUMP JUMPDEST DUP1 PUSH1 0x1 DUP6 SWAP7 DUP3 SWAP5 SWAP7 DUP7 ADD MLOAD DUP2 SSTORE ADD SWAP6 ADD SWAP4 ADD SWAP1 PUSH2 0xF94 JUMP JUMPDEST DUP4 DUP6 MSTORE DUP2 DUP6 KECCAK256 PUSH1 0x1F DUP5 ADD PUSH1 0x5 SHR DUP2 ADD SWAP2 DUP4 DUP6 LT PUSH2 0x101E JUMPI JUMPDEST PUSH1 0x1F ADD PUSH1 0x5 SHR ADD SWAP1 JUMPDEST DUP2 DUP2 LT PUSH2 0x1013 JUMPI POP PUSH2 0xF48 JUMP JUMPDEST DUP6 DUP2 SSTORE PUSH1 0x1 ADD PUSH2 0x1006 JUMP JUMPDEST SWAP1 SWAP2 POP DUP2 SWAP1 PUSH2 0xFFD JUMP JUMPDEST PUSH4 0x4E487B71 PUSH1 0xE0 SHL DUP6 MSTORE PUSH1 0x41 SWAP1 MSTORE PUSH1 0x24 DUP5 REVERT JUMPDEST MLOAD PUSH3 0x461BCD PUSH1 0xE5 SHL DUP2 MSTORE PUSH1 0x20 DUP2 DUP5 ADD MSTORE PUSH1 0x19 PUSH1 0x24 DUP3 ADD MSTORE PUSH32 0x504F41503A204349442063616E6E6F7420626520656D70747900000000000000 PUSH1 0x44 DUP3 ADD MSTORE PUSH1 0x64 SWAP1 REVERT JUMPDEST POP SWAP1 CALLVALUE PUSH2 0x19A JUMPI PUSH1 0x20 SWAP2 DUP3 PUSH1 0x3 NOT CALLDATASIZE ADD SLT PUSH2 0x944 JUMPI CALLDATALOAD DUP1 DUP5 MSTORE PUSH1 0x6 DUP4 MSTORE PUSH2 0x10A9 PUSH2 0x565 DUP4 DUP7 KECCAK256 SLOAD PUSH2 0x17D2 JUMP JUMPDEST DUP4 MSTORE PUSH1 0x6 DUP3 MSTORE DUP1 DUP4 KECCAK256 DUP2 MLOAD SWAP4 DUP5 SWAP2 PUSH7 0x697066733A2F2F PUSH1 0xC8 SHL DUP6 DUP5 ADD MSTORE DUP2 DUP2 SLOAD PUSH2 0x10D2 DUP2 PUSH2 0x17D2 JUMP JUMPDEST SWAP3 PUSH1 0x1 SWAP2 DUP1 DUP4 AND SWAP1 DUP2 ISZERO PUSH2 0x1160 JUMPI POP PUSH1 0x1 EQ PUSH2 0x1119 JUMPI JUMPDEST DUP6 DUP9 PUSH2 0x8D8 DUP10 PUSH2 0x8C9 PUSH1 0xE DUP6 DUP12 PUSH14 0x17B6B2BA30B230BA30973539B7B7 PUSH1 0x91 SHL DUP2 MSTORE SUB PUSH1 0x11 NOT DUP2 ADD DUP8 MSTORE ADD DUP6 PUSH2 0x12CF JUMP JUMPDEST DUP8 SWAP7 SWAP6 SWAP5 POP DUP3 MSTORE DUP6 DUP3 KECCAK256 JUMPDEST DUP4 DUP4 LT PUSH2 0x1147 JUMPI POP SWAP4 SWAP5 POP SWAP2 SWAP3 POP DUP3 ADD PUSH1 0x27 ADD SWAP1 POP PUSH1 0xE DUP3 PUSH2 0x8C9 PUSH2 0x8D8 PUSH2 0x10E9 JUMP JUMPDEST DUP1 SLOAD PUSH1 0x27 DUP5 DUP12 ADD ADD MSTORE DUP8 SWAP7 DUP10 SWAP6 POP SWAP1 SWAP3 ADD SWAP2 DUP2 ADD PUSH2 0x1124 JUMP JUMPDEST SWAP1 POP PUSH2 0x8C9 SWAP6 POP PUSH2 0x8D8 SWAP8 SWAP7 SWAP4 POP PUSH1 0x27 SWAP3 POP PUSH1 0xE SWAP5 SWAP2 POP PUSH1 0xFF NOT AND DUP3 DUP5 ADD MSTORE DUP1 ISZERO ISZERO MUL DUP3 ADD ADD SWAP3 DUP2 SWAP5 SWAP6 PUSH2 0x10E9 JUMP JUMPDEST POP CALLVALUE PUSH2 0x19A JUMPI PUSH1 0x20 CALLDATASIZE PUSH1 0x3 NOT ADD SLT PUSH2 0x19A JUMPI CALLDATALOAD SWAP1 PUSH4 0xFFFFFFFF PUSH1 0xE0 SHL DUP3 AND DUP1 SWAP3 SUB PUSH2 0x19A JUMPI PUSH1 0x20 SWAP3 POP PUSH4 0x6CDB3D13 PUSH1 0xE1 SHL DUP3 EQ SWAP2 DUP3 ISZERO PUSH2 0x11EB JUMPI JUMPDEST DUP3 ISZERO PUSH2 0x11DA JUMPI JUMPDEST POP MLOAD SWAP1 ISZERO ISZERO DUP2 MSTORE RETURN JUMPDEST PUSH4 0x1FFC9A7 PUSH1 0xE0 SHL EQ SWAP2 POP CODESIZE PUSH2 0x11D1 JUMP JUMPDEST PUSH4 0x3A24D07 PUSH1 0xE2 SHL DUP2 EQ SWAP3 POP PUSH2 0x11CA JUMP JUMPDEST POP POP CALLVALUE PUSH2 0x451 JUMPI DUP1 PUSH1 0x3 NOT CALLDATASIZE ADD SLT PUSH2 0x451 JUMPI PUSH1 0x20 SWAP1 PUSH2 0x1225 PUSH2 0x121C PUSH2 0x122C JUMP JUMPDEST PUSH1 0x24 CALLDATALOAD SWAP1 PUSH2 0x1458 JUMP JUMPDEST SWAP1 MLOAD SWAP1 DUP2 MSTORE RETURN JUMPDEST PUSH1 0x4 CALLDATALOAD SWAP1 PUSH1 0x1 PUSH1 0x1 PUSH1 0xA0 SHL SUB DUP3 AND DUP3 SUB PUSH2 0x1242 JUMPI JUMP JUMPDEST PUSH1 0x0 DUP1 REVERT JUMPDEST PUSH1 0x24 CALLDATALOAD SWAP1 PUSH1 0x1 PUSH1 0x1 PUSH1 0xA0 SHL SUB DUP3 AND DUP3 SUB PUSH2 0x1242 JUMPI JUMP JUMPDEST SWAP2 SWAP1 DUP3 MLOAD SWAP3 DUP4 DUP3 MSTORE PUSH1 0x0 JUMPDEST DUP5 DUP2 LT PUSH2 0x1289 JUMPI POP POP DUP3 PUSH1 0x0 PUSH1 0x20 DUP1 SWAP5 SWAP6 DUP5 ADD ADD MSTORE PUSH1 0x1F DUP1 NOT SWAP2 ADD AND ADD ADD SWAP1 JUMP JUMPDEST PUSH1 0x20 DUP2 DUP4 ADD DUP2 ADD MLOAD DUP5 DUP4 ADD DUP3 ADD MSTORE ADD PUSH2 0x1268 JUMP JUMPDEST PUSH1 0x40 DUP2 ADD SWAP1 DUP2 LT PUSH8 0xFFFFFFFFFFFFFFFF DUP3 GT OR PUSH2 0x12B9 JUMPI PUSH1 0x40 MSTORE JUMP JUMPDEST PUSH4 0x4E487B71 PUSH1 0xE0 SHL PUSH1 0x0 MSTORE PUSH1 0x41 PUSH1 0x4 MSTORE PUSH1 0x24 PUSH1 0x0 REVERT JUMPDEST SWAP1 PUSH1 0x1F DUP1 NOT SWAP2 ADD AND DUP2 ADD SWAP1 DUP2 LT PUSH8 0xFFFFFFFFFFFFFFFF DUP3 GT OR PUSH2 0x12B9 JUMPI PUSH1 0x40 MSTORE JUMP JUMPDEST SWAP3 SWAP2 SWAP3 PUSH8 0xFFFFFFFFFFFFFFFF DUP3 GT PUSH2 0x12B9 JUMPI PUSH1 0x40 MLOAD SWAP2 PUSH2 0x131B PUSH1 0x1F DUP3 ADD PUSH1 0x1F NOT AND PUSH1 0x20 ADD DUP5 PUSH2 0x12CF JUMP JUMPDEST DUP3 SWAP5 DUP2 DUP5 MSTORE DUP2 DUP4 ADD GT PUSH2 0x1242 JUMPI DUP3 DUP2 PUSH1 0x20 SWAP4 DUP5 PUSH1 0x0 SWAP7 ADD CALLDATACOPY ADD ADD MSTORE JUMP JUMPDEST PUSH8 0xFFFFFFFFFFFFFFFF DUP2 GT PUSH2 0x12B9 JUMPI PUSH1 0x5 SHL PUSH1 0x20 ADD SWAP1 JUMP JUMPDEST DUP2 PUSH1 0x1F DUP3 ADD SLT ISZERO PUSH2 0x1242 JUMPI DUP1 CALLDATALOAD SWAP2 PUSH2 0x1367 DUP4 PUSH2 0x1338 JUMP JUMPDEST SWAP3 PUSH2 0x1375 PUSH1 0x40 MLOAD SWAP5 DUP6 PUSH2 0x12CF JUMP JUMPDEST DUP1 DUP5 MSTORE PUSH1 0x20 SWAP3 DUP4 DUP1 DUP7 ADD SWAP3 PUSH1 0x5 SHL DUP3 ADD ADD SWAP3 DUP4 GT PUSH2 0x1242 JUMPI DUP4 ADD SWAP1 JUMPDEST DUP3 DUP3 LT PUSH2 0x139F JUMPI POP POP POP POP SWAP1 JUMP JUMPDEST DUP2 CALLDATALOAD DUP2 MSTORE SWAP1 DUP4 ADD SWAP1 DUP4 ADD PUSH2 0x1391 JUMP JUMPDEST SWAP1 DUP1 PUSH1 0x1F DUP4 ADD SLT ISZERO PUSH2 0x1242 JUMPI DUP2 PUSH1 0x20 PUSH2 0x13C9 SWAP4 CALLDATALOAD SWAP2 ADD PUSH2 0x12F1 JUMP JUMPDEST SWAP1 JUMP JUMPDEST SWAP1 DUP2 MLOAD DUP1 DUP3 MSTORE PUSH1 0x20 DUP1 DUP1 SWAP4 ADD SWAP4 ADD SWAP2 PUSH1 0x0 JUMPDEST DUP3 DUP2 LT PUSH2 0x13EC JUMPI POP POP POP POP SWAP1 JUMP JUMPDEST DUP4 MLOAD DUP6 MSTORE SWAP4 DUP2 ADD SWAP4 SWAP3 DUP2 ADD SWAP3 PUSH1 0x1 ADD PUSH2 0x13DE JUMP JUMPDEST PUSH1 0x3 SLOAD PUSH1 0x1 PUSH1 0x1 PUSH1 0xA0 SHL SUB AND CALLER SUB PUSH2 0x1414 JUMPI JUMP JUMPDEST PUSH1 0x64 PUSH1 0x40 MLOAD PUSH3 0x461BCD PUSH1 0xE5 SHL DUP2 MSTORE PUSH1 0x20 PUSH1 0x4 DUP3 ADD MSTORE PUSH1 0x20 PUSH1 0x24 DUP3 ADD MSTORE PUSH32 0x4F776E61626C653A2063616C6C6572206973206E6F7420746865206F776E6572 PUSH1 0x44 DUP3 ADD MSTORE REVERT JUMPDEST PUSH1 0x1 PUSH1 0x1 PUSH1 0xA0 SHL SUB AND SWAP1 DUP2 ISZERO PUSH2 0x1485 JUMPI PUSH1 0x0 MSTORE PUSH1 0x0 PUSH1 0x20 MSTORE PUSH1 0x40 PUSH1 0x0 KECCAK256 SWAP1 PUSH1 0x0 MSTORE PUSH1 0x20 MSTORE PUSH1 0x40 PUSH1 0x0 KECCAK256 SLOAD SWAP1 JUMP JUMPDEST PUSH1 0x40 MLOAD PUSH3 0x461BCD PUSH1 0xE5 SHL DUP2 MSTORE PUSH1 0x20 PUSH1 0x4 DUP3 ADD MSTORE PUSH1 0x2A PUSH1 0x24 DUP3 ADD MSTORE PUSH32 0x455243313135353A2061646472657373207A65726F206973206E6F7420612076 PUSH1 0x44 DUP3 ADD MSTORE PUSH10 0x30B634B21037BBB732B9 PUSH1 0xB1 SHL PUSH1 0x64 DUP3 ADD MSTORE PUSH1 0x84 SWAP1 REVERT JUMPDEST PUSH1 0x0 NOT DUP2 EQ PUSH2 0x14EC JUMPI PUSH1 0x1 ADD SWAP1 JUMP JUMPDEST PUSH4 0x4E487B71 PUSH1 0xE0 SHL PUSH1 0x0 MSTORE PUSH1 0x11 PUSH1 0x4 MSTORE PUSH1 0x24 PUSH1 0x0 REVERT JUMPDEST DUP1 MLOAD ISZERO PUSH2 0x150F JUMPI PUSH1 0x20 ADD SWAP1 JUMP JUMPDEST PUSH4 0x4E487B71 PUSH1 0xE0 SHL PUSH1 0x0 MSTORE PUSH1 0x32 PUSH1 0x4 MSTORE PUSH1 0x24 PUSH1 0x0 REVERT JUMPDEST DUP1 MLOAD DUP3 LT ISZERO PUSH2 0x150F JUMPI PUSH1 0x20 SWAP2 PUSH1 0x5 SHL ADD ADD SWAP1 JUMP JUMPDEST ISZERO PUSH2 0x1540 JUMPI JUMP JUMPDEST PUSH1 0x40 MLOAD PUSH3 0x461BCD PUSH1 0xE5 SHL DUP2 MSTORE PUSH1 0x20 PUSH1 0x4 DUP3 ADD MSTORE PUSH1 0x2E PUSH1 0x24 DUP3 ADD MSTORE PUSH32 0x455243313135353A2063616C6C6572206973206E6F7420746F6B656E206F776E PUSH1 0x44 DUP3 ADD MSTORE PUSH14 0x195C881BDC88185C1C1C9BDD9959 PUSH1 0x92 SHL PUSH1 0x64 DUP3 ADD MSTORE PUSH1 0x84 SWAP1 REVERT JUMPDEST ISZERO PUSH2 0x15A3 JUMPI JUMP JUMPDEST PUSH1 0x40 MLOAD PUSH3 0x461BCD PUSH1 0xE5 SHL DUP2 MSTORE PUSH1 0x20 PUSH1 0x4 DUP3 ADD MSTORE PUSH1 0x25 PUSH1 0x24 DUP3 ADD MSTORE PUSH32 0x455243313135353A207472616E7366657220746F20746865207A65726F206164 PUSH1 0x44 DUP3 ADD MSTORE PUSH5 0x6472657373 PUSH1 0xD8 SHL PUSH1 0x64 DUP3 ADD MSTORE PUSH1 0x84 SWAP1 REVERT JUMPDEST ISZERO PUSH2 0x15FD JUMPI JUMP JUMPDEST PUSH1 0x40 MLOAD PUSH3 0x461BCD PUSH1 0xE5 SHL DUP2 MSTORE PUSH1 0x20 PUSH1 0x4 DUP3 ADD MSTORE PUSH1 0x2A PUSH1 0x24 DUP3 ADD MSTORE PUSH32 0x455243313135353A20696E73756666696369656E742062616C616E636520666F PUSH1 0x44 DUP3 ADD MSTORE PUSH10 0x39103A3930B739B332B9 PUSH1 0xB1 SHL PUSH1 0x64 DUP3 ADD MSTORE PUSH1 0x84 SWAP1 REVERT JUMPDEST SWAP2 SWAP1 DUP3 ADD DUP1 SWAP3 GT PUSH2 0x14EC JUMPI JUMP JUMPDEST SWAP1 DUP2 PUSH1 0x20 SWAP2 SUB SLT PUSH2 0x1242 JUMPI MLOAD PUSH1 0x1 PUSH1 0x1 PUSH1 0xE0 SHL SUB NOT DUP2 AND DUP2 SUB PUSH2 0x1242 JUMPI SWAP1 JUMP JUMPDEST PUSH1 0x80 SWAP1 PUSH1 0x20 DUP2 MSTORE PUSH1 0x28 PUSH1 0x20 DUP3 ADD MSTORE PUSH32 0x455243313135353A204552433131353552656365697665722072656A65637465 PUSH1 0x40 DUP3 ADD MSTORE PUSH8 0x6420746F6B656E73 PUSH1 0xC0 SHL PUSH1 0x60 DUP3 ADD MSTORE ADD SWAP1 JUMP JUMPDEST PUSH1 0x0 SWAP1 PUSH1 0x3 RETURNDATASIZE GT PUSH2 0x16D8 JUMPI JUMP JUMPDEST SWAP1 POP PUSH1 0x4 PUSH1 0x0 DUP1 RETURNDATACOPY PUSH1 0x0 MLOAD PUSH1 0xE0 SHR SWAP1 JUMP JUMPDEST PUSH1 0x0 PUSH1 0x44 RETURNDATASIZE LT PUSH2 0x13C9 JUMPI PUSH1 0x40 MLOAD PUSH1 0x3 NOT SWAP2 RETURNDATASIZE DUP4 ADD PUSH1 0x4 DUP4 RETURNDATACOPY DUP2 MLOAD PUSH8 0xFFFFFFFFFFFFFFFF SWAP2 DUP3 DUP3 GT RETURNDATASIZE PUSH1 0x24 DUP5 ADD GT OR PUSH2 0x1747 JUMPI DUP2 DUP5 ADD SWAP5 DUP6 MLOAD SWAP4 DUP5 GT PUSH2 0x174F JUMPI RETURNDATASIZE DUP6 ADD ADD PUSH1 0x20 DUP5 DUP8 ADD ADD GT PUSH2 0x1747 JUMPI POP PUSH2 0x13C9 SWAP3 SWAP2 ADD PUSH1 0x20 ADD SWAP1 PUSH2 0x12CF JUMP JUMPDEST SWAP5 SWAP4 POP POP POP POP JUMP JUMPDEST POP SWAP5 SWAP4 POP POP POP POP JUMP JUMPDEST PUSH1 0x80 SWAP1 PUSH1 0x20 DUP2 MSTORE PUSH1 0x34 PUSH1 0x20 DUP3 ADD MSTORE PUSH32 0x455243313135353A207472616E7366657220746F206E6F6E2D45524331313535 PUSH1 0x40 DUP3 ADD MSTORE PUSH20 0x2932B1B2B4BB32B91034B6B83632B6B2B73A32B9 PUSH1 0x61 SHL PUSH1 0x60 DUP3 ADD MSTORE ADD SWAP1 JUMP JUMPDEST PUSH1 0x40 MLOAD SWAP1 PUSH2 0x17BA DUP3 PUSH2 0x129D JUMP JUMPDEST PUSH1 0x1 DUP3 MSTORE PUSH1 0x20 CALLDATASIZE DUP2 DUP5 ADD CALLDATACOPY PUSH2 0x17CE DUP3 PUSH2 0x1502 JUMP JUMPDEST MSTORE SWAP1 JUMP JUMPDEST SWAP1 PUSH1 0x1 DUP3 DUP2 SHR SWAP3 AND DUP1 ISZERO PUSH2 0x1802 JUMPI JUMPDEST PUSH1 0x20 DUP4 LT EQ PUSH2 0x17EC JUMPI JUMP JUMPDEST PUSH4 0x4E487B71 PUSH1 0xE0 SHL PUSH1 0x0 MSTORE PUSH1 0x22 PUSH1 0x4 MSTORE PUSH1 0x24 PUSH1 0x0 REVERT JUMPDEST SWAP2 PUSH1 0x7F AND SWAP2 PUSH2 0x17E1 JUMP JUMPDEST ISZERO PUSH2 0x1813 JUMPI JUMP JUMPDEST PUSH1 0x40 MLOAD PUSH3 0x461BCD PUSH1 0xE5 SHL DUP2 MSTORE PUSH1 0x20 PUSH1 0x4 DUP3 ADD MSTORE PUSH1 0x1A PUSH1 0x24 DUP3 ADD MSTORE PUSH32 0x504F41503A204576656E74206E6F742072656769737465726564000000000000 PUSH1 0x44 DUP3 ADD MSTORE PUSH1 0x64 SWAP1 REVERT JUMPDEST SWAP1 PUSH1 0x1 DUP1 PUSH1 0xA0 SHL SUB PUSH1 0x4 SWAP2 DUP2 DUP4 SLOAD AND SWAP1 PUSH1 0x40 SWAP3 DUP4 MLOAD SWAP6 PUSH4 0x70A08231 PUSH1 0xE0 SHL DUP8 MSTORE AND DUP1 DUP6 DUP8 ADD MSTORE PUSH1 0x20 SWAP2 PUSH1 0x24 SWAP1 DUP4 DUP9 DUP4 DUP2 DUP9 GAS STATICCALL SWAP8 DUP9 ISZERO PUSH2 0x1A56 JUMPI PUSH1 0x0 SWAP9 PUSH2 0x1A27 JUMPI JUMPDEST POP DUP8 ISZERO PUSH2 0x1A1A JUMPI PUSH1 0x0 JUMPDEST DUP9 DUP2 LT PUSH2 0x18B9 JUMPI POP POP POP POP POP POP POP POP POP PUSH1 0x0 SWAP1 JUMP JUMPDEST DUP7 MLOAD PUSH4 0x2F745C59 PUSH1 0xE0 SHL DUP2 MSTORE DUP5 DUP10 DUP3 ADD MSTORE DUP2 DUP5 DUP3 ADD MSTORE DUP6 DUP2 PUSH1 0x44 DUP2 DUP11 GAS STATICCALL PUSH1 0x0 SWAP2 DUP2 PUSH2 0x19EB JUMPI JUMPDEST POP PUSH2 0x18F5 JUMPI JUMPDEST POP PUSH2 0x18F0 SWAP1 PUSH2 0x14DD JUMP JUMPDEST PUSH2 0x18A4 JUMP JUMPDEST DUP3 DUP9 MLOAD PUSH4 0x7510CFAF PUSH1 0xE0 SHL DUP2 MSTORE DUP3 DUP12 DUP3 ADD MSTORE DUP8 DUP2 DUP8 DUP2 DUP13 GAS STATICCALL PUSH1 0x0 SWAP2 DUP2 PUSH2 0x19B9 JUMPI JUMPDEST POP PUSH2 0x1924 JUMPI JUMPDEST POP POP PUSH2 0x18E6 JUMP JUMPDEST EQ SWAP1 DUP2 PUSH2 0x1947 JUMPI JUMPDEST POP PUSH2 0x1939 JUMPI CODESIZE DUP3 DUP2 PUSH2 0x191D JUMP JUMPDEST POP POP POP POP POP POP POP POP POP PUSH1 0x1 SWAP1 JUMP JUMPDEST SWAP1 POP DUP8 MLOAD SWAP1 PUSH4 0xB3474D7 PUSH1 0xE2 SHL DUP3 MSTORE DUP10 DUP3 ADD MSTORE DUP6 DUP2 DUP6 DUP2 DUP11 GAS STATICCALL SWAP1 DUP2 ISZERO PUSH2 0x19AE JUMPI PUSH1 0x0 SWAP2 PUSH2 0x1978 JUMPI JUMPDEST POP ISZERO CODESIZE PUSH2 0x192C JUMP JUMPDEST DUP7 DUP2 DUP2 RETURNDATASIZE DUP4 GT PUSH2 0x19A7 JUMPI JUMPDEST PUSH2 0x198D DUP2 DUP4 PUSH2 0x12CF JUMP JUMPDEST DUP2 ADD SUB SLT PUSH2 0x451 JUMPI MLOAD SWAP1 DUP2 ISZERO ISZERO DUP3 SUB PUSH2 0x9EB JUMPI POP CODESIZE PUSH2 0x1970 JUMP JUMPDEST POP RETURNDATASIZE PUSH2 0x1983 JUMP JUMPDEST DUP9 MLOAD RETURNDATASIZE PUSH1 0x0 DUP3 RETURNDATACOPY RETURNDATASIZE SWAP1 REVERT JUMPDEST SWAP2 SWAP1 SWAP3 POP DUP9 DUP3 DUP2 RETURNDATASIZE DUP4 GT PUSH2 0x19E4 JUMPI JUMPDEST PUSH2 0x19D2 DUP2 DUP4 PUSH2 0x12CF JUMP JUMPDEST DUP2 ADD SUB SLT PUSH2 0x9EB JUMPI POP MLOAD DUP5 SWAP2 CODESIZE PUSH2 0x1917 JUMP JUMPDEST POP RETURNDATASIZE PUSH2 0x19C8 JUMP JUMPDEST SWAP1 SWAP2 DUP8 DUP3 DUP2 RETURNDATASIZE DUP4 GT PUSH2 0x1A13 JUMPI JUMPDEST PUSH2 0x1A02 DUP2 DUP4 PUSH2 0x12CF JUMP JUMPDEST DUP2 ADD SUB SLT PUSH2 0x9EB JUMPI POP MLOAD SWAP1 CODESIZE PUSH2 0x18E0 JUMP JUMPDEST POP RETURNDATASIZE PUSH2 0x19F8 JUMP JUMPDEST POP POP POP POP POP POP POP POP PUSH1 0x0 SWAP1 JUMP JUMPDEST SWAP1 SWAP8 DUP5 DUP3 DUP2 RETURNDATASIZE DUP4 GT PUSH2 0x1A4F JUMPI JUMPDEST PUSH2 0x1A3E DUP2 DUP4 PUSH2 0x12CF JUMP JUMPDEST DUP2 ADD SUB SLT PUSH2 0x9EB JUMPI POP MLOAD SWAP7 CODESIZE PUSH2 0x189A JUMP JUMPDEST POP RETURNDATASIZE PUSH2 0x1A34 JUMP JUMPDEST DUP7 MLOAD RETURNDATASIZE PUSH1 0x0 DUP3 RETURNDATACOPY RETURNDATASIZE SWAP1 REVERT INVALID LOG2 PUSH5 0x6970667358 0x22 SLT KECCAK256 0xDA PREVRANDAO 0xE8 0xCB 0xD 0xAA DUP5 0xB4 SWAP3 0xF6 PUSH9 0x3C6CCB44A9DFFB5F80 0x2E 0xC6 0xCE 0xC9 TIMESTAMP MSIZE DUP8 LT ADDMOD PUSH19 0x7A1564736F6C63430008140033000000000000 "},"methodIdentifiers":{"balanceOf(address,uint256)":"00fdd58e","balanceOfBatch(address[],uint256[])":"4e1273f4","claimPOAP(uint256)":"9365fc87","getEventCID(uint256)":"8d565d6c","hasClaimed(uint256,address)":"873f6f9e","isApprovedForAll(address,address)":"e985e9c5","owner()":"8da5cb5b","renounceOwnership()":"715018a6","safeBatchTransferFrom(address,address,uint256[],uint256[],bytes)":"2eb2c2d6","safeTransferFrom(address,address,uint256,uint256,bytes)":"f242432a","setApprovalForAll(address,bool)":"a22cb465","setEventURI(uint256,string)":"16d35d71","supportsInterface(bytes4)":"01ffc9a7","ticketContract()":"58a86e1d","transferOwnership(address)":"f2fde38b","uri(uint256)":"0e89341c"}},"storageLayout":{"storage":[{"astId":138,"contract":"contracts/POAPDistributor.sol:POAPDistributor","label":"_balances","offset":0,"slot":"0","type":"t_mapping(t_uint256,t_mapping(t_address,t_uint256))"},{"astId":144,"contract":"contracts/POAPDistributor.sol:POAPDistributor","label":"_operatorApprovals","offset":0,"slot":"1","type":"t_mapping(t_address,t_mapping(t_address,t_bool))"},{"astId":146,"contract":"contracts/POAPDistributor.sol:POAPDistributor","label":"_uri","offset":0,"slot":"2","type":"t_string_storage"},{"astId":7,"contract":"contracts/POAPDistributor.sol:POAPDistributor","label":"_owner","offset":0,"slot":"3","type":"t_address"},{"astId":5204,"contract":"contracts/POAPDistributor.sol:POAPDistributor","label":"ticketContract","offset":0,"slot":"4","type":"t_contract(TicketNFT)5827"},{"astId":5210,"contract":"contracts/POAPDistributor.sol:POAPDistributor","label":"_hasClaimed","offset":0,"slot":"5","type":"t_mapping(t_uint256,t_mapping(t_address,t_bool))"},{"astId":5214,"contract":"contracts/POAPDistributor.sol:POAPDistributor","label":"_eventCIDs","offset":0,"slot":"6","type":"t_mapping(t_uint256,t_string_storage)"}],"types":{"t_address":{"encoding":"inplace","label":"address","numberOfBytes":"20"},"t_bool":{"encoding":"inplace","label":"bool","numberOfBytes":"1"},"t_contract(TicketNFT)5827":{"encoding":"inplace","label":"contract TicketNFT","numberOfBytes":"20"},"t_mapping(t_address,t_bool)":{"encoding":"mapping","key":"t_address","label":"mapping(address => bool)","numberOfBytes":"32","value":"t_bool"},"t_mapping(t_address,t_mapping(t_address,t_bool))":{"encoding":"mapping","key":"t_address","label":"mapping(address => mapping(address => bool))","numberOfBytes":"32","value":"t_mapping(t_address,t_bool)"},"t_mapping(t_address,t_uint256)":{"encoding":"mapping","key":"t_address","label":"mapping(address => uint256)","numberOfBytes":"32","value":"t_uint256"},"t_mapping(t_uint256,t_mapping(t_address,t_bool))":{"encoding":"mapping","key":"t_uint256","label":"mapping(uint256 => mapping(address => bool))","numberOfBytes":"32","value":"t_mapping(t_address,t_bool)"},"t_mapping(t_uint256,t_mapping(t_address,t_uint256))":{"encoding":"mapping","key":"t_uint256","label":"mapping(uint256 => mapping(address => uint256))","numberOfBytes":"32","value":"t_mapping(t_address,t_uint256)"},"t_mapping(t_uint256,t_string_storage)":{"encoding":"mapping","key":"t_uint256","label":"mapping(uint256 => string)","numberOfBytes":"32","value":"t_string_storage"},"t_string_storage":{"encoding":"bytes","label":"string","numberOfBytes":"32"},"t_uint256":{"encoding":"inplace","label":"uint256","numberOfBytes":"32"}}}}}}