{"contracts/TicketNFT.sol":{"TicketNFT":{"abi":[{"inputs":[{"internalType":"address","name":"_eventFactory","type":"address"}],"stateMutability":"nonpayable","type":"constructor"},{"anonymous":false,"inputs":[{"indexed":true,"internalType":"address","name":"owner","type":"address"},{"indexed":true,"internalType":"address","name":"approved","type":"address"},{"indexed":true,"internalType":"uint256","name":"tokenId","type":"uint256"}],"name":"Approval","type":"event"},{"anonymous":false,"inputs":[{"indexed":true,"internalType":"address","name":"owner","type":"address"},{"indexed":true,"internalType":"address","name":"operator","type":"address"},{"indexed":false,"internalType":"bool","name":"approved","type":"bool"}],"name":"ApprovalForAll","type":"event"},{"anonymous":false,"inputs":[{"indexed":true,"internalType":"address","name":"previousOwner","type":"address"},{"indexed":true,"internalType":"address","name":"newOwner","type":"address"}],"name":"OwnershipTransferred","type":"event"},{"anonymous":false,"inputs":[{"indexed":true,"internalType":"uint256","name":"tokenId","type":"uint256"},{"indexed":true,"internalType":"uint256","name":"eventId","type":"uint256"},{"indexed":true,"internalType":"address","name":"owner","type":"address"}],"name":"TicketBurned","type":"event"},{"anonymous":false,"inputs":[{"indexed":true,"internalType":"uint256","name":"tokenId","type":"uint256"},{"indexed":true,"internalType":"address","name":"attendee","type":"address"},{"indexed":true,"internalType":"uint256","name":"eventId","type":"uint256"}],"name":"TicketMinted","type":"event"},{"anonymous":false,"inputs":[{"indexed":true,"internalType":"uint256","name":"tokenId","type":"uint256"},{"indexed":true,"internalType":"uint256","name":"eventId","type":"uint256"},{"indexed":true,"internalType":"address","name":"owner","type":"address"}],"name":"TicketUsed","type":"event"},{"anonymous":false,"inputs":[{"indexed":true,"internalType":"address","name":"from","type":"address"},{"indexed":true,"internalType":"address","name":"to","type":"address"},{"indexed":true,"internalType":"uint256","name":"tokenId","type":"uint256"}],"name":"Transfer","type":"event"},{"inputs":[{"internalType":"address","name":"to","type":"address"},{"internalType":"uint256","name":"tokenId","type":"uint256"}],"name":"approve","outputs":[],"stateMutability":"nonpayable","type":"function"},{"inputs":[{"internalType":"address","name":"owner","type":"address"}],"name":"balanceOf","outputs":[{"internalType":"uint256","name":"","type":"uint256"}],"stateMutability":"view","type":"function"},{"inputs":[{"internalType":"uint256","name":"tokenId","type":"uint256"}],"name":"burnTicket","outputs":[],"stateMutability":"nonpayable","type":"function"},{"inputs":[],"name":"eventFactory","outputs":[{"internalType":"contract EventFactory","name":"","type":"address"}],"stateMutability":"view","type":"function"},{"inputs":[{"internalType":"uint256","name":"tokenId","type":"uint256"}],"name":"getApproved","outputs":[{"internalType":"address","name":"","type":"address"}],"stateMutability":"view","type":"function"},{"inputs":[{"internalType":"uint256","name":"tokenId","type":"uint256"}],"name":"getTicketEventId","outputs":[{"internalType":"uint256","name":"","type":"uint256"}],"stateMutability":"view","type":"function"},{"inputs":[{"internalType":"address","name":"owner","type":"address"},{"internalType":"address","name":"operator","type":"address"}],"name":"isApprovedForAll","outputs":[{"internalType":"bool","name":"","type":"bool"}],"stateMutability":"view","type":"function"},{"inputs":[{"internalType":"uint256","name":"tokenId","type":"uint256"}],"name":"isTicketUsed","outputs":[{"internalType":"bool","name":"","type":"bool"}],"stateMutability":"view","type":"function"},{"inputs":[{"internalType":"address","name":"attendee","type":"address"},{"internalType":"uint256","name":"eventId","type":"uint256"},{"internalType":"string","name":"ipfsCID","type":"string"}],"name":"mintTicket","outputs":[],"stateMutability":"nonpayable","type":"function"},{"inputs":[],"name":"name","outputs":[{"internalType":"string","name":"","type":"string"}],"stateMutability":"view","type":"function"},{"inputs":[],"name":"owner","outputs":[{"internalType":"address","name":"","type":"address"}],"stateMutability":"view","type":"function"},{"inputs":[{"internalType":"uint256","name":"tokenId","type":"uint256"}],"name":"ownerOf","outputs":[{"internalType":"address","name":"","type":"address"}],"stateMutability":"view","type":"function"},{"inputs":[],"name":"renounceOwnership","outputs":[],"stateMutability":"nonpayable","type":"function"},{"inputs":[{"internalType":"address","name":"from","type":"address"},{"internalType":"address","name":"to","type":"address"},{"internalType":"uint256","name":"tokenId","type":"uint256"}],"name":"safeTransferFrom","outputs":[],"stateMutability":"nonpayable","type":"function"},{"inputs":[{"internalType":"address","name":"from","type":"address"},{"internalType":"address","name":"to","type":"address"},{"internalType":"uint256","name":"tokenId","type":"uint256"},{"internalType":"bytes","name":"data","type":"bytes"}],"name":"safeTransferFrom","outputs":[],"stateMutability":"nonpayable","type":"function"},{"inputs":[{"internalType":"address","name":"operator","type":"address"},{"internalType":"bool","name":"approved","type":"bool"}],"name":"setApprovalForAll","outputs":[],"stateMutability":"nonpayable","type":"function"},{"inputs":[{"internalType":"bytes4","name":"interfaceId","type":"bytes4"}],"name":"supportsInterface","outputs":[{"internalType":"bool","name":"","type":"bool"}],"stateMutability":"view","type":"function"},{"inputs":[],"name":"symbol","outputs":[{"internalType":"string","name":"","type":"string"}],"stateMutability":"view","type":"function"},{"inputs":[{"internalType":"uint256","name":"","type":"uint256"}],"name":"tickets","outputs":[{"internalType":"uint256","name":"eventId","type":"uint256"},{"internalType":"string","name":"ipfsCID","type":"string"},{"internalType":"bool","name":"used","type":"bool"}],"stateMutability":"view","type":"function"},{"inputs":[{"internalType":"uint256","name":"index","type":"uint256"}],"name":"tokenByIndex","outputs":[{"internalType":"uint256","name":"","type":"uint256"}],"stateMutability":"view","type":"function"},{"inputs":[{"internalType":"address","name":"owner","type":"address"},{"internalType":"uint256","name":"index","type":"uint256"}],"name":"tokenOfOwnerByIndex","outputs":[{"internalType":"uint256","name":"","type":"uint256"}],"stateMutability":"view","type":"function"},{"inputs":[{"internalType":"uint256","name":"tokenId","type":"uint256"}],"name":"tokenURI","outputs":[{"internalType":"string","name":"","type":"string"}],"stateMutability":"view","type":"function"},{"inputs":[],"name":"totalSupply","outputs":[{"internalType":"uint256","name":"","type":"uint256"}],"stateMutability":"view","type":"function"},{"inputs":[{"internalType":"address","name":"from","type":"address"},{"internalType":"address","name":"to","type":"address"},{"internalType":"uint256","name":"tokenId","type":"uint256"}],"name":"transferFrom","outputs":[],"stateMutability":"nonpayable","type":"function"},{"inputs":[{"internalType":"address","name":"newOwner","type":"address"}],"name":"transferOwnership","outputs":[],"stateMutability":"nonpayable","type":"function"},{"inputs":[{"internalType":"uint256","name":"tokenId","type":"uint256"}],"name":"useTicket","outputs":[],"stateMutability":"nonpayable","type":"function"}],"evm":{"bytecode":{"linkReferences":{},"object":"608034620003ea57601f90601f19906001600160401b039062002348388190038581018516830184811184821017620003d457839282916040528339602092839181010312620003ea57516001600160a01b038082169590939091869003620003ea576200006c620003ef565b91600c83526b115d995b9d08151a58dad95d60a21b848401526200008f620003ef565b6006815265151250d2d15560d21b85820152835196838811620003d4576000978854956001968781811c91168015620003c9575b89821014620003b55790818684931162000362575b50889086831160011462000301578b92620002f5575b5050600019600383901b1c191690861b1788555b8151938411620002e15784548581811c91168015620002d6575b87821014620002c25790818486959493116200026b575b50869284116001146200020a57508792620001fe575b5050600019600383901b1c191690821b1790555b600a5460018060a01b0319933385831617600a557f8be0079c531659141344cd1fd0a4f28419497f9722a3daafe3b4186f6b6457e0604051943393169180a38315620001bd575050600c541617600c55604051611f389081620004108239f35b62461bcd60e51b82526004820152601c60248201527f496e76616c6964204576656e74466163746f7279206164647265737300000000604482015260649150fd5b01519050388062000149565b85895286892086959093929116895b888282106200025457505084116200023a575b505050811b0190556200015d565b015160001960f88460031b161c191690553880806200022c565b838501518655889790950194938401930162000219565b90919293508589528689208480870160051c820192898810620002b8575b9187968992969594930160051c01915b828110620002a957505062000133565b8b815587965088910162000299565b9250819262000289565b634e487b7160e01b89526022600452602489fd5b90607f16906200011c565b634e487b7160e01b88526041600452602488fd5b015190503880620000ee565b9084899416918c80528a8d20928d5b8c8282106200034b575050841162000331575b505050811b01885562000102565b015160001960f88460031b161c1916905538808062000323565b8385015186558c9790950194938401930162000310565b9091508a8052888b208680850160051c8201928b8610620003ab575b918a91869594930160051c01915b8281106200039c575050620000d8565b8d81558594508a91016200038c565b925081926200037e565b634e487b7160e01b8b52602260045260248bfd5b90607f1690620000c3565b634e487b7160e01b600052604160045260246000fd5b600080fd5b60408051919082016001600160401b03811183821017620003d45760405256fe6080604081815260048036101561001557600080fd5b600092833560e01c90816301ffc9a7146114ef5750806303543fea146110cb57806306fdde0314611023578063081812fc14611003578063095ea7b314610e9657806318160ddd14610e7757806323b872dd14610e4d5780632660644814610d625780632cd1d35c14610d115780632f745c5914610c6557806342842e0e14610c165780634f6ccce714610b8357806350b4471214610a915780636352211e14610a605780636fdbd3f614610a3757806370a0823114610a0a578063715018a6146109aa5780637510cfaf146109615780638da5cb5b1461093857806395d89b4114610855578063a22cb4651461077d578063a476b73d14610404578063b88d4fde1461039c578063c87b56dd1461025c578063e985e9c51461020a5763f2fde38b1461014157600080fd5b346102065760203660031901126102065761015a611575565b906101636116e0565b6001600160a01b039182169283156101b4575050600a54826001600160601b0360a01b821617600a55167f8be0079c531659141344cd1fd0a4f28419497f9722a3daafe3b4186f6b6457e08380a380f35b906020608492519162461bcd60e51b8352820152602660248201527f4f776e61626c653a206e6577206f776e657220697320746865207a65726f206160448201526564647265737360d01b6064820152fd5b8280fd5b50503461025857806003193601126102585760ff8160209361022a611575565b610232611590565b6001600160a01b0391821683526005875283832091168252855220549151911615158152f35b5080fd5b5090346102065760209182600319360112610398573560008181526002602052604090205461029a906001600160a01b031615156117af565b6117af565b8352600d8252600192838282200193825194859266697066733a2f2f60c81b8685015280928254926102cb846116a6565b938281169081156103695750600114610322575b858861031e8961030f600e858b6d17b6b2ba30b230ba30973539b7b760911b8152036011198101875201856115a6565b51928284938452830190611631565b0390f35b879695945082528582205b838310610350575093945091925082016027019050600e8261030f61031e6102df565b80546027848b010152879689955090920191810161032d565b905061030f955061031e9796935060279250600e94915060ff19168284015280151502820101928194956102df565b8380fd5b838234610258576080366003190112610258576103b7611575565b6103bf611590565b9060643567ffffffffffffffff81116104005736602382011215610400576103fd938160246103f3933693013591016115fa565b91604435916118c1565b80f35b8480fd5b5090346102065760209182600319360112610398578035926104246116e0565b600084815260026020526040902054610447906001600160a01b031615156117af565b610450846117fb565b90848652600d81528386205493610466866117fb565b6001600160a01b039481861680159283156106fa575050600854888a526009855280848b2055600160401b8110156106e757886104ac8260016104c59401600855611e06565b90919082549060031b91821b91600019901b1916179055565b60085460001992908381019081116106d457898b52600986526104eb858c205491611e06565b90549060031b1c6104ff816104ac84611e06565b8b5260098652848b2055888a52898481205560085480156106c1579183918b9695948b940161052d81611e06565b8582549160031b1b1916905560085515806106ba575b61064a575b91856002959492819461055a846117fb565b9084845287528a858420916001600160601b0360a01b928381541690551691828452600388528584209081540190558383528787528483209081541690557fddf252ad1be2c89b69c2b068fc378daa952ba7f163c4a11628f55a4df523b3ef8280a4600d835281209181835560018301906105d582546116a6565b908161060b575b50505050015516917f50d459b3df6d4d2831ef5996a57caa721fb381b00bf5309a64f099895047948c8480a480f35b8390601f831160011461062657505050555b823880806105dc565b838252812092909161064390601f0160051c840160018501611e9f565b555561061d565b919092939452600d845260ff6002848b2001541661066d57889392918891610548565b825162461bcd60e51b8152908101849052602160248201527f55736564207469636b65742063616e6e6f74206265207472616e7366657272656044820152601960fa1b6064820152608490fd5b5085610543565b634e487b7160e01b8b526031835260248bfd5b634e487b7160e01b8b526011835260248bfd5b634e487b7160e01b8a526041825260248afd5b61070390611738565b6000198101919082116106d457898b5260078652848b2054828103610744575b50898b528a858120558a5260068552838a20908a52845288838120556104c5565b818c5260068752858c20838d528752858c8181205491818584935260068b528181208582528b5220558c5260078752858c205538610723565b509034610206578060031936011261020657610797611575565b9060243580151592838203610851576001600160a01b03169333851461080e57506107e19033865260056020528286208587526020528286209060ff801983541691151516179055565b519081527f17307eab39ab6107e8899845ad3d59bd9653f200f220920489ca2b5937696c3160203392a380f35b606490602084519162461bcd60e51b8352820152601960248201527f4552433732313a20617070726f766520746f2063616c6c6572000000000000006044820152fd5b8580fd5b505034610258578160031936011261025857805190826001805491610879836116a6565b8086529282811690811561091057506001146108b4575b5050506108a28261031e9403836115a6565b51918291602083526020830190611631565b94508085527fb10e2d527612073b26eecdfd717e6a320cf44b4afac2b0732d9fcbe2b7fa0cf65b8286106108f8575050506108a282602061031e9582010194610890565b805460208787018101919091529095019481016108db565b61031e9750869350602092506108a294915060ff191682840152151560051b82010194610890565b505034610258578160031936011261025857600a5490516001600160a01b039091168152602090f35b50346102065760203660031901126102065760209282913561099b61029582600052600260205260018060a01b0360406000205416151590565b8152600d845220549051908152f35b8334610a075780600319360112610a07576109c36116e0565b600a80546001600160a01b0319811690915581906001600160a01b03167f8be0079c531659141344cd1fd0a4f28419497f9722a3daafe3b4186f6b6457e08280a380f35b80fd5b50503461025857602036600319011261025857602090610a30610a2b611575565b611738565b9051908152f35b505034610258578160031936011261025857600c5490516001600160a01b039091168152602090f35b509134610a07576020366003190112610a075750610a80602092356117fb565b90516001600160a01b039091168152f35b509134610a07576020928360031936011261025857358152600d83528181209182549260018082019386845195869383825492610acd846116a6565b80885293838116908115610b5e5750600114610b22575b5050505050610b1792610afd60ff9360029303876115a6565b015416926060835196879687528601526060850190611631565b911515908301520390f35b9080949550528383205b828410610b485750505082010186610afd836002610b17610ae4565b8054898501860152889550928401928101610b2c565b60ff19168689015250505050151560051b830101905086610afd836002610b17610ae4565b508234610a07576020366003190112610a075750803590600854821015610bbe57602083610bb084611e06565b91905490519160031b1c8152f35b608490602084519162461bcd60e51b8352820152602c60248201527f455243373231456e756d657261626c653a20676c6f62616c20696e646578206f60448201526b7574206f6620626f756e647360a01b6064820152fd5b5091903461025857610c2736611671565b91835193602085019085821067ffffffffffffffff831117610c52576103fd969750528584526118c1565b634e487b7160e01b875260418852602487fd5b509134610a075781600319360112610a0757610c7f611575565b60243590610c8c81611738565b821015610cba576001600160a01b031682526006602090815283832091835290815290829020548251908152f35b835162461bcd60e51b8152602081870152602b60248201527f455243373231456e756d657261626c653a206f776e657220696e646578206f7560448201526a74206f6620626f756e647360a81b6064820152608490fd5b50346102065760203660031901126102065760028260209460ff9335610d4f61029582600052600260205260018060a01b0360406000205416151590565b8152600d86522001541690519015158152f35b50346102065760203660031901126102065780359160018060a01b0391610d8e83600c54163314611e53565b600084815260026020526040902054610db1906001600160a01b031615156117af565b838552600d60205260ff6002838720015416610e155750828452600d602052832060028101805460ff191660011790555490610dec836117fb565b16917fb35ebdfb9515b145e406c5c5a0846ec436db0b9560927af3af7a754d90c4f6ff8480a480f35b6020606492519162461bcd60e51b83528201526013602482015272151a58dad95d08185b1c9958591e481d5cd959606a1b6044820152fd5b8334610a07576103fd610e5f36611671565b91610e72610e6d843361195c565b61185f565b611a24565b5050346102585781600319360112610258576020906008549051908152f35b5034610206578160031936011261020657610eaf611575565b6024359290916001600160a01b0391908280610eca876117fb565b16941693808514610fb657803314908115610f97575b5015610f2f57848652602052842080546001600160a01b03191683179055610f07836117fb565b167f8c5be1e5ebec7d5bd14f71427d1e84f3dd0314c0f7b2291e5b200ac8c7c3b9258480a480f35b6020608492519162461bcd60e51b8352820152603d60248201527f4552433732313a20617070726f76652063616c6c6572206973206e6f7420746f60448201527f6b656e206f776e6572206f7220617070726f76656420666f7220616c6c0000006064820152fd5b90508652600560205281862033875260205260ff828720541638610ee0565b506020608492519162461bcd60e51b8352820152602160248201527f4552433732313a20617070726f76616c20746f2063757272656e74206f776e656044820152603960f91b6064820152fd5b509134610a07576020366003190112610a075750610a8060209235611821565b505034610258578160031936011261025857805190828054611044816116a6565b80855291600191808316908115610910575060011461106f575050506108a28261031e9403836115a6565b80809650527f290decd9548b62a8d60345a988386fc84ba6bc95484008f6362f93160ef3e5635b8286106110b3575050506108a282602061031e9582010194610890565b80546020878701810191909152909501948101611096565b509034610206576060366003190112610206576110e6611575565b60249182359360443567ffffffffffffffff908181116114eb57366023820112156114eb5761111d903690878186013591016115fa565b600c5490946001600160a01b0391821693909161113b338614611e53565b855180956349287c0b60e01b82528a84830152818a60209889935afa9081156114e1578b916114a7575b50156114655782169687156114235760019384600b54019788600b5587519160608301838110828211176114115789528b83528783019182528289018d81528a8e52600d8952898e2093518455915180518885019290919082116113ff578e906111cf84546116a6565b8b601f82116113c6575b50508a91601f841160011461135757926002949281926112259897959261134c575b5050600019600383901b1c1916908a1b1790555b51151591019060ff801983541691151516179055565b60008781526002602052604090205461124a906001600160a01b031615155b15611eb6565b60085491878b526009865282878c2055600160401b83101561133b5750508291610a2b876104ac84600298976112839601600855611e06565b86895260068352848920818a52835284892086905585895260078352848920556000858152600260205260409020546112c6906001600160a01b03161515611244565b858852600382528388208054909101905583875252842080546001600160a01b031916831790558082857fddf252ad1be2c89b69c2b068fc378daa952ba7f163c4a11628f55a4df523b3ef8180a47f5c1c9352d51031acc9a558d7cdcca15b0ce5fe4f46d7315cca355248175b0a378480a480f35b634e487b7160e01b8b526041905289fd5b0151905038806111fb565b90918a9392601f1984168684528d80852094905b8282106113af57505091611225989795939185600298969410611396575b505050811b01905561120f565b015160001960f88460031b161c19169055388080611389565b8385015186558e979095019493840193018e61136b565b8584528084206113ee92601f870160051c82019287106113f5575b601f0160051c0190611e9f565b388b6111d9565b90915081906113e1565b634e487b7160e01b8f5260418752858ffd5b634e487b7160e01b8e5260418652848efd5b855162461bcd60e51b81529182018590526018908201527f496e76616c696420617474656e646565206164647265737300000000000000006044820152606490fd5b855162461bcd60e51b81528083018690526018818a01527f496e76616c6964206f722065787069726564206576656e7400000000000000006044820152606490fd5b90508581813d83116114da575b6114be81836115a6565b810103126114d6575180151581036114d65738611165565b8a80fd5b503d6114b4565b87513d8d823e3d90fd5b8780fd5b92505034610206576020366003190112610206573563ffffffff60e01b8116809103610206576020925063780e9d6360e01b8114908115611532575b5015158152f35b6380ac58cd60e01b811491508115611564575b8115611553575b503861152b565b6301ffc9a760e01b1490503861154c565b635b5e139f60e01b81149150611545565b600435906001600160a01b038216820361158b57565b600080fd5b602435906001600160a01b038216820361158b57565b90601f8019910116810190811067ffffffffffffffff8211176115c857604052565b634e487b7160e01b600052604160045260246000fd5b67ffffffffffffffff81116115c857601f01601f191660200190565b929192611606826115de565b9161161460405193846115a6565b82948184528183011161158b578281602093846000960137010152565b919082519283825260005b84811061165d575050826000602080949584010152601f8019910116010190565b60208183018101518483018201520161163c565b606090600319011261158b576001600160a01b0390600435828116810361158b5791602435908116810361158b579060443590565b90600182811c921680156116d6575b60208310146116c057565b634e487b7160e01b600052602260045260246000fd5b91607f16916116b5565b600a546001600160a01b031633036116f457565b606460405162461bcd60e51b815260206004820152602060248201527f4f776e61626c653a2063616c6c6572206973206e6f7420746865206f776e65726044820152fd5b6001600160a01b0316801561175857600052600360205260406000205490565b60405162461bcd60e51b815260206004820152602960248201527f4552433732313a2061646472657373207a65726f206973206e6f7420612076616044820152683634b21037bbb732b960b91b6064820152608490fd5b156117b657565b60405162461bcd60e51b815260206004820152601860248201527f4552433732313a20696e76616c696420746f6b656e20494400000000000000006044820152606490fd5b6000908152600260205260409020546001600160a01b031661181e8115156117af565b90565b600081815260026020526040902054611844906001600160a01b031615156117af565b6000908152600460205260409020546001600160a01b031690565b1561186657565b60405162461bcd60e51b815260206004820152602d60248201527f4552433732313a2063616c6c6572206973206e6f7420746f6b656e206f776e6560448201526c1c881bdc88185c1c1c9bdd9959609a1b6064820152608490fd5b906118e59392916118d5610e6d843361195c565b6118e0838383611a24565b611ce9565b156118ec57565b60405162461bcd60e51b81528061190560048201611909565b0390fd5b60809060208152603260208201527f4552433732313a207472616e7366657220746f206e6f6e20455243373231526560408201527131b2b4bb32b91034b6b83632b6b2b73a32b960711b60608201520190565b906001600160a01b038080611970846117fb565b169316918383149384156119a3575b50831561198d575b50505090565b61199991929350611821565b1614388080611987565b909350600052600560205260406000208260005260205260ff60406000205416923861197f565b156119d157565b60405162461bcd60e51b815260206004820152602560248201527f4552433732313a207472616e736665722066726f6d20696e636f72726563742060448201526437bbb732b960d91b6064820152608490fd5b90611a4a90611a32846117fb565b6001600160a01b0384811693909291831684146119ca565b818116938415611c98578380159182600014611be55750506008549186600052600960205282604060002055600160401b8310156115c857611a97876104ac856001899701600855611e06565b828603611bb2575b501580611baa575b611b3b575b611ac091611ab9866117fb565b16146119ca565b7fddf252ad1be2c89b69c2b068fc378daa952ba7f163c4a11628f55a4df523b3ef60008481526004602052604081206001600160601b0360a01b9081815416905583825260036020526040822060001981540190558482526040822060018154019055858252600260205284604083209182541617905580a4565b5083600052600d60205260ff60026040600020015416611b5b5781611aac565b60405162461bcd60e51b815260206004820152602160248201527f55736564207469636b65742063616e6e6f74206265207472616e7366657272656044820152601960fa1b6064820152608490fd5b506001611aa7565b611bbb90611738565b60406000878152600660205281812083825260205288828220558881526007602052205538611a9f565b8682949203611bf5575b50611a97565b611c00919350611738565b600019810192908311611c825784926000908882526020906007825260409182842054828103611c4b575b508a84528383812055868452600681528284209184525281205538611bef565b8785526006825283852083865282528385205488865260068352848620828752835280858720558552600782528385205538611c2b565b634e487b7160e01b600052601160045260246000fd5b60405162461bcd60e51b8152602060048201526024808201527f4552433732313a207472616e7366657220746f20746865207a65726f206164646044820152637265737360e01b6064820152608490fd5b92939190803b15611dfc57611d3b946040518092630a85bd0160e11b9485835233600484015260018060a01b03809816602484015260448301526080606483015281806020998a956084830190611631565b03916000988991165af1849181611dbc575b50611dab575050503d600014611da3573d611d67816115de565b90611d7560405192836115a6565b81528091833d92013e5b80519182611da05760405162461bcd60e51b81528061190560048201611909565b01fd5b506060611d7f565b6001600160e01b0319161492509050565b9091508581813d8311611df5575b611dd481836115a6565b8101031261040057516001600160e01b031981168103610400579038611d4d565b503d611dca565b5050915050600190565b600854811015611e3d5760086000527ff3f7a9fe364faab93b216da50a3214154f22a0a2b415b23a84c8169e8b636ee30190600090565b634e487b7160e01b600052603260045260246000fd5b15611e5a57565b60405162461bcd60e51b815260206004820152601c60248201527f4e6f7420617574686f72697a65643a204f6e6c7920666163746f7279000000006044820152606490fd5b818110611eaa575050565b60008155600101611e9f565b15611ebd57565b60405162461bcd60e51b815260206004820152601c60248201527f4552433732313a20746f6b656e20616c7265616479206d696e746564000000006044820152606490fdfea26469706673582212205df85e355cbca7e1bc9d65331ebe9c1f85e961f579a5a3861dce9031220222e164736f6c63430008140033","opcodes":"PUSH1 0x80 CALLVALUE PUSH3 0x3EA JUMPI PUSH1 0x1F SWAP1 PUSH1 0x1F NOT SWAP1 PUSH1 0x1 PUSH1 0x1 PUSH1 0x40 SHL SUB SWAP1 PUSH3 0x2348 CODESIZE DUP2 SWAP1 SUB DUP6 DUP2 ADD DUP6 AND DUP4 ADD DUP5 DUP2 GT DUP5 DUP3 LT OR PUSH3 0x3D4 JUMPI DUP4 SWAP3 DUP3 SWAP2 PUSH1 0x40 MSTORE DUP4 CODECOPY PUSH1 0x20 SWAP3 DUP4 SWAP2 DUP2 ADD SUB SLT PUSH3 0x3EA JUMPI MLOAD PUSH1 0x1 PUSH1 0x1 PUSH1 0xA0 SHL SUB DUP1 DUP3 AND SWAP6 SWAP1 SWAP4 SWAP1 SWAP2 DUP7 SWAP1 SUB PUSH3 0x3EA JUMPI PUSH3 0x6C PUSH3 0x3EF JUMP JUMPDEST SWAP2 PUSH1 0xC DUP4 MSTORE PUSH12 0x115D995B9D08151A58DAD95D PUSH1 0xA2 SHL DUP5 DUP5 ADD MSTORE PUSH3 0x8F PUSH3 0x3EF JUMP JUMPDEST PUSH1 0x6 DUP2 MSTORE PUSH6 0x151250D2D155 PUSH1 0xD2 SHL DUP6 DUP3 ADD MSTORE DUP4 MLOAD SWAP7 DUP4 DUP9 GT PUSH3 0x3D4 JUMPI PUSH1 0x0 SWAP8 DUP9 SLOAD SWAP6 PUSH1 0x1 SWAP7 DUP8 DUP2 DUP2 SHR SWAP2 AND DUP1 ISZERO PUSH3 0x3C9 JUMPI JUMPDEST DUP10 DUP3 LT EQ PUSH3 0x3B5 JUMPI SWAP1 DUP2 DUP7 DUP5 SWAP4 GT PUSH3 0x362 JUMPI JUMPDEST POP DUP9 SWAP1 DUP7 DUP4 GT PUSH1 0x1 EQ PUSH3 0x301 JUMPI DUP12 SWAP3 PUSH3 0x2F5 JUMPI JUMPDEST POP POP PUSH1 0x0 NOT PUSH1 0x3 DUP4 SWAP1 SHL SHR NOT AND SWAP1 DUP7 SHL OR DUP9 SSTORE JUMPDEST DUP2 MLOAD SWAP4 DUP5 GT PUSH3 0x2E1 JUMPI DUP5 SLOAD DUP6 DUP2 DUP2 SHR SWAP2 AND DUP1 ISZERO PUSH3 0x2D6 JUMPI JUMPDEST DUP8 DUP3 LT EQ PUSH3 0x2C2 JUMPI SWAP1 DUP2 DUP5 DUP7 SWAP6 SWAP5 SWAP4 GT PUSH3 0x26B JUMPI JUMPDEST POP DUP7 SWAP3 DUP5 GT PUSH1 0x1 EQ PUSH3 0x20A JUMPI POP DUP8 SWAP3 PUSH3 0x1FE JUMPI JUMPDEST POP POP PUSH1 0x0 NOT PUSH1 0x3 DUP4 SWAP1 SHL SHR NOT AND SWAP1 DUP3 SHL OR SWAP1 SSTORE JUMPDEST PUSH1 0xA SLOAD PUSH1 0x1 DUP1 PUSH1 0xA0 SHL SUB NOT SWAP4 CALLER DUP6 DUP4 AND OR PUSH1 0xA SSTORE PUSH32 0x8BE0079C531659141344CD1FD0A4F28419497F9722A3DAAFE3B4186F6B6457E0 PUSH1 0x40 MLOAD SWAP5 CALLER SWAP4 AND SWAP2 DUP1 LOG3 DUP4 ISZERO PUSH3 0x1BD JUMPI POP POP PUSH1 0xC SLOAD AND OR PUSH1 0xC SSTORE PUSH1 0x40 MLOAD PUSH2 0x1F38 SWAP1 DUP2 PUSH3 0x410 DUP3 CODECOPY RETURN JUMPDEST PUSH3 0x461BCD PUSH1 0xE5 SHL DUP3 MSTORE PUSH1 0x4 DUP3 ADD MSTORE PUSH1 0x1C PUSH1 0x24 DUP3 ADD MSTORE PUSH32 0x496E76616C6964204576656E74466163746F7279206164647265737300000000 PUSH1 0x44 DUP3 ADD MSTORE PUSH1 0x64 SWAP2 POP REVERT JUMPDEST ADD MLOAD SWAP1 POP CODESIZE DUP1 PUSH3 0x149 JUMP JUMPDEST DUP6 DUP10 MSTORE DUP7 DUP10 KECCAK256 DUP7 SWAP6 SWAP1 SWAP4 SWAP3 SWAP2 AND DUP10 JUMPDEST DUP9 DUP3 DUP3 LT PUSH3 0x254 JUMPI POP POP DUP5 GT PUSH3 0x23A JUMPI JUMPDEST POP POP POP DUP2 SHL ADD SWAP1 SSTORE PUSH3 0x15D JUMP JUMPDEST ADD MLOAD PUSH1 0x0 NOT PUSH1 0xF8 DUP5 PUSH1 0x3 SHL AND SHR NOT AND SWAP1 SSTORE CODESIZE DUP1 DUP1 PUSH3 0x22C JUMP JUMPDEST DUP4 DUP6 ADD MLOAD DUP7 SSTORE DUP9 SWAP8 SWAP1 SWAP6 ADD SWAP5 SWAP4 DUP5 ADD SWAP4 ADD PUSH3 0x219 JUMP JUMPDEST SWAP1 SWAP2 SWAP3 SWAP4 POP DUP6 DUP10 MSTORE DUP7 DUP10 KECCAK256 DUP5 DUP1 DUP8 ADD PUSH1 0x5 SHR DUP3 ADD SWAP3 DUP10 DUP9 LT PUSH3 0x2B8 JUMPI JUMPDEST SWAP2 DUP8 SWAP7 DUP10 SWAP3 SWAP7 SWAP6 SWAP5 SWAP4 ADD PUSH1 0x5 SHR ADD SWAP2 JUMPDEST DUP3 DUP2 LT PUSH3 0x2A9 JUMPI POP POP PUSH3 0x133 JUMP JUMPDEST DUP12 DUP2 SSTORE DUP8 SWAP7 POP DUP9 SWAP2 ADD PUSH3 0x299 JUMP JUMPDEST SWAP3 POP DUP2 SWAP3 PUSH3 0x289 JUMP JUMPDEST PUSH4 0x4E487B71 PUSH1 0xE0 SHL DUP10 MSTORE PUSH1 0x22 PUSH1 0x4 MSTORE PUSH1 0x24 DUP10 REVERT JUMPDEST SWAP1 PUSH1 0x7F AND SWAP1 PUSH3 0x11C JUMP JUMPDEST PUSH4 0x4E487B71 PUSH1 0xE0 SHL DUP9 MSTORE PUSH1 0x41 PUSH1 0x4 MSTORE PUSH1 0x24 DUP9 REVERT JUMPDEST ADD MLOAD SWAP1 POP CODESIZE DUP1 PUSH3 0xEE JUMP JUMPDEST SWAP1 DUP5 DUP10 SWAP5 AND SWAP2 DUP13 DUP1 MSTORE DUP11 DUP14 KECCAK256 SWAP3 DUP14 JUMPDEST DUP13 DUP3 DUP3 LT PUSH3 0x34B JUMPI POP POP DUP5 GT PUSH3 0x331 JUMPI JUMPDEST POP POP POP DUP2 SHL ADD DUP9 SSTORE PUSH3 0x102 JUMP JUMPDEST ADD MLOAD PUSH1 0x0 NOT PUSH1 0xF8 DUP5 PUSH1 0x3 SHL AND SHR NOT AND SWAP1 SSTORE CODESIZE DUP1 DUP1 PUSH3 0x323 JUMP JUMPDEST DUP4 DUP6 ADD MLOAD DUP7 SSTORE DUP13 SWAP8 SWAP1 SWAP6 ADD SWAP5 SWAP4 DUP5 ADD SWAP4 ADD PUSH3 0x310 JUMP JUMPDEST SWAP1 SWAP2 POP DUP11 DUP1 MSTORE DUP9 DUP12 KECCAK256 DUP7 DUP1 DUP6 ADD PUSH1 0x5 SHR DUP3 ADD SWAP3 DUP12 DUP7 LT PUSH3 0x3AB JUMPI JUMPDEST SWAP2 DUP11 SWAP2 DUP7 SWAP6 SWAP5 SWAP4 ADD PUSH1 0x5 SHR ADD SWAP2 JUMPDEST DUP3 DUP2 LT PUSH3 0x39C JUMPI POP POP PUSH3 0xD8 JUMP JUMPDEST DUP14 DUP2 SSTORE DUP6 SWAP5 POP DUP11 SWAP2 ADD PUSH3 0x38C JUMP JUMPDEST SWAP3 POP DUP2 SWAP3 PUSH3 0x37E JUMP JUMPDEST PUSH4 0x4E487B71 PUSH1 0xE0 SHL DUP12 MSTORE PUSH1 0x22 PUSH1 0x4 MSTORE PUSH1 0x24 DUP12 REVERT JUMPDEST SWAP1 PUSH1 0x7F AND SWAP1 PUSH3 0xC3 JUMP JUMPDEST PUSH4 0x4E487B71 PUSH1 0xE0 SHL PUSH1 0x0 MSTORE PUSH1 0x41 PUSH1 0x4 MSTORE PUSH1 0x24 PUSH1 0x0 REVERT JUMPDEST PUSH1 0x0 DUP1 REVERT JUMPDEST PUSH1 0x40 DUP1 MLOAD SWAP2 SWAP1 DUP3 ADD PUSH1 0x1 PUSH1 0x1 PUSH1 0x40 SHL SUB DUP2 GT DUP4 DUP3 LT OR PUSH3 0x3D4 JUMPI PUSH1 0x40 MSTORE JUMP INVALID PUSH1 0x80 PUSH1 0x40 DUP2 DUP2 MSTORE PUSH1 0x4 DUP1 CALLDATASIZE LT ISZERO PUSH2 0x15 JUMPI PUSH1 0x0 DUP1 REVERT JUMPDEST PUSH1 0x0 SWAP3 DUP4 CALLDATALOAD PUSH1 0xE0 SHR SWAP1 DUP2 PUSH4 0x1FFC9A7 EQ PUSH2 0x14EF JUMPI POP DUP1 PUSH4 0x3543FEA EQ PUSH2 0x10CB JUMPI DUP1 PUSH4 0x6FDDE03 EQ PUSH2 0x1023 JUMPI DUP1 PUSH4 0x81812FC EQ PUSH2 0x1003 JUMPI DUP1 PUSH4 0x95EA7B3 EQ PUSH2 0xE96 JUMPI DUP1 PUSH4 0x18160DDD EQ PUSH2 0xE77 JUMPI DUP1 PUSH4 0x23B872DD EQ PUSH2 0xE4D JUMPI DUP1 PUSH4 0x26606448 EQ PUSH2 0xD62 JUMPI DUP1 PUSH4 0x2CD1D35C EQ PUSH2 0xD11 JUMPI DUP1 PUSH4 0x2F745C59 EQ PUSH2 0xC65 JUMPI DUP1 PUSH4 0x42842E0E EQ PUSH2 0xC16 JUMPI DUP1 PUSH4 0x4F6CCCE7 EQ PUSH2 0xB83 JUMPI DUP1 PUSH4 0x50B44712 EQ PUSH2 0xA91 JUMPI DUP1 PUSH4 0x6352211E EQ PUSH2 0xA60 JUMPI DUP1 PUSH4 0x6FDBD3F6 EQ PUSH2 0xA37 JUMPI DUP1 PUSH4 0x70A08231 EQ PUSH2 0xA0A JUMPI DUP1 PUSH4 0x715018A6 EQ PUSH2 0x9AA JUMPI DUP1 PUSH4 0x7510CFAF EQ PUSH2 0x961 JUMPI DUP1 PUSH4 0x8DA5CB5B EQ PUSH2 0x938 JUMPI DUP1 PUSH4 0x95D89B41 EQ PUSH2 0x855 JUMPI DUP1 PUSH4 0xA22CB465 EQ PUSH2 0x77D JUMPI DUP1 PUSH4 0xA476B73D EQ PUSH2 0x404 JUMPI DUP1 PUSH4 0xB88D4FDE EQ PUSH2 0x39C JUMPI DUP1 PUSH4 0xC87B56DD EQ PUSH2 0x25C JUMPI DUP1 PUSH4 0xE985E9C5 EQ PUSH2 0x20A JUMPI PUSH4 0xF2FDE38B EQ PUSH2 0x141 JUMPI PUSH1 0x0 DUP1 REVERT JUMPDEST CALLVALUE PUSH2 0x206 JUMPI PUSH1 0x20 CALLDATASIZE PUSH1 0x3 NOT ADD SLT PUSH2 0x206 JUMPI PUSH2 0x15A PUSH2 0x1575 JUMP JUMPDEST SWAP1 PUSH2 0x163 PUSH2 0x16E0 JUMP JUMPDEST PUSH1 0x1 PUSH1 0x1 PUSH1 0xA0 SHL SUB SWAP2 DUP3 AND SWAP3 DUP4 ISZERO PUSH2 0x1B4 JUMPI POP POP PUSH1 0xA SLOAD DUP3 PUSH1 0x1 PUSH1 0x1 PUSH1 0x60 SHL SUB PUSH1 0xA0 SHL DUP3 AND OR PUSH1 0xA SSTORE AND PUSH32 0x8BE0079C531659141344CD1FD0A4F28419497F9722A3DAAFE3B4186F6B6457E0 DUP4 DUP1 LOG3 DUP1 RETURN JUMPDEST SWAP1 PUSH1 0x20 PUSH1 0x84 SWAP3 MLOAD SWAP2 PUSH3 0x461BCD PUSH1 0xE5 SHL DUP4 MSTORE DUP3 ADD MSTORE PUSH1 0x26 PUSH1 0x24 DUP3 ADD MSTORE PUSH32 0x4F776E61626C653A206E6577206F776E657220697320746865207A65726F2061 PUSH1 0x44 DUP3 ADD MSTORE PUSH6 0x646472657373 PUSH1 0xD0 SHL PUSH1 0x64 DUP3 ADD MSTORE REVERT JUMPDEST DUP3 DUP1 REVERT JUMPDEST POP POP CALLVALUE PUSH2 0x258 JUMPI DUP1 PUSH1 0x3 NOT CALLDATASIZE ADD SLT PUSH2 0x258 JUMPI PUSH1 0xFF DUP2 PUSH1 0x20 SWAP4 PUSH2 0x22A PUSH2 0x1575 JUMP JUMPDEST PUSH2 0x232 PUSH2 0x1590 JUMP JUMPDEST PUSH1 0x1 PUSH1 0x1 PUSH1 0xA0 SHL SUB SWAP2 DUP3 AND DUP4 MSTORE PUSH1 0x5 DUP8 MSTORE DUP4 DUP4 KECCAK256 SWAP2 AND DUP3 MSTORE DUP6 MSTORE KECCAK256 SLOAD SWAP2 MLOAD SWAP2 AND ISZERO ISZERO DUP2 MSTORE RETURN JUMPDEST POP DUP1 REVERT JUMPDEST POP SWAP1 CALLVALUE PUSH2 0x206 JUMPI PUSH1 0x20 SWAP2 DUP3 PUSH1 0x3 NOT CALLDATASIZE ADD SLT PUSH2 0x398 JUMPI CALLDATALOAD PUSH1 0x0 DUP2 DUP2 MSTORE PUSH1 0x2 PUSH1 0x20 MSTORE PUSH1 0x40 SWAP1 KECCAK256 SLOAD PUSH2 0x29A SWAP1 PUSH1 0x1 PUSH1 0x1 PUSH1 0xA0 SHL SUB AND ISZERO ISZERO PUSH2 0x17AF JUMP JUMPDEST PUSH2 0x17AF JUMP JUMPDEST DUP4 MSTORE PUSH1 0xD DUP3 MSTORE PUSH1 0x1 SWAP3 DUP4 DUP3 DUP3 KECCAK256 ADD SWAP4 DUP3 MLOAD SWAP5 DUP6 SWAP3 PUSH7 0x697066733A2F2F PUSH1 0xC8 SHL DUP7 DUP6 ADD MSTORE DUP1 SWAP3 DUP3 SLOAD SWAP3 PUSH2 0x2CB DUP5 PUSH2 0x16A6 JUMP JUMPDEST SWAP4 DUP3 DUP2 AND SWAP1 DUP2 ISZERO PUSH2 0x369 JUMPI POP PUSH1 0x1 EQ PUSH2 0x322 JUMPI JUMPDEST DUP6 DUP9 PUSH2 0x31E DUP10 PUSH2 0x30F PUSH1 0xE DUP6 DUP12 PUSH14 0x17B6B2BA30B230BA30973539B7B7 PUSH1 0x91 SHL DUP2 MSTORE SUB PUSH1 0x11 NOT DUP2 ADD DUP8 MSTORE ADD DUP6 PUSH2 0x15A6 JUMP JUMPDEST MLOAD SWAP3 DUP3 DUP5 SWAP4 DUP5 MSTORE DUP4 ADD SWAP1 PUSH2 0x1631 JUMP JUMPDEST SUB SWAP1 RETURN JUMPDEST DUP8 SWAP7 SWAP6 SWAP5 POP DUP3 MSTORE DUP6 DUP3 KECCAK256 JUMPDEST DUP4 DUP4 LT PUSH2 0x350 JUMPI POP SWAP4 SWAP5 POP SWAP2 SWAP3 POP DUP3 ADD PUSH1 0x27 ADD SWAP1 POP PUSH1 0xE DUP3 PUSH2 0x30F PUSH2 0x31E PUSH2 0x2DF JUMP JUMPDEST DUP1 SLOAD PUSH1 0x27 DUP5 DUP12 ADD ADD MSTORE DUP8 SWAP7 DUP10 SWAP6 POP SWAP1 SWAP3 ADD SWAP2 DUP2 ADD PUSH2 0x32D JUMP JUMPDEST SWAP1 POP PUSH2 0x30F SWAP6 POP PUSH2 0x31E SWAP8 SWAP7 SWAP4 POP PUSH1 0x27 SWAP3 POP PUSH1 0xE SWAP5 SWAP2 POP PUSH1 0xFF NOT AND DUP3 DUP5 ADD MSTORE DUP1 ISZERO ISZERO MUL DUP3 ADD ADD SWAP3 DUP2 SWAP5 SWAP6 PUSH2 0x2DF JUMP JUMPDEST DUP4 DUP1 REVERT JUMPDEST DUP4 DUP3 CALLVALUE PUSH2 0x258 JUMPI PUSH1 0x80 CALLDATASIZE PUSH1 0x3 NOT ADD SLT PUSH2 0x258 JUMPI PUSH2 0x3B7 PUSH2 0x1575 JUMP JUMPDEST PUSH2 0x3BF PUSH2 0x1590 JUMP JUMPDEST SWAP1 PUSH1 0x64 CALLDATALOAD PUSH8 0xFFFFFFFFFFFFFFFF DUP2 GT PUSH2 0x400 JUMPI CALLDATASIZE PUSH1 0x23 DUP3 ADD SLT ISZERO PUSH2 0x400 JUMPI PUSH2 0x3FD SWAP4 DUP2 PUSH1 0x24 PUSH2 0x3F3 SWAP4 CALLDATASIZE SWAP4 ADD CALLDATALOAD SWAP2 ADD PUSH2 0x15FA JUMP JUMPDEST SWAP2 PUSH1 0x44 CALLDATALOAD SWAP2 PUSH2 0x18C1 JUMP JUMPDEST DUP1 RETURN JUMPDEST DUP5 DUP1 REVERT JUMPDEST POP SWAP1 CALLVALUE PUSH2 0x206 JUMPI PUSH1 0x20 SWAP2 DUP3 PUSH1 0x3 NOT CALLDATASIZE ADD SLT PUSH2 0x398 JUMPI DUP1 CALLDATALOAD SWAP3 PUSH2 0x424 PUSH2 0x16E0 JUMP JUMPDEST PUSH1 0x0 DUP5 DUP2 MSTORE PUSH1 0x2 PUSH1 0x20 MSTORE PUSH1 0x40 SWAP1 KECCAK256 SLOAD PUSH2 0x447 SWAP1 PUSH1 0x1 PUSH1 0x1 PUSH1 0xA0 SHL SUB AND ISZERO ISZERO PUSH2 0x17AF JUMP JUMPDEST PUSH2 0x450 DUP5 PUSH2 0x17FB JUMP JUMPDEST SWAP1 DUP5 DUP7 MSTORE PUSH1 0xD DUP2 MSTORE DUP4 DUP7 KECCAK256 SLOAD SWAP4 PUSH2 0x466 DUP7 PUSH2 0x17FB JUMP JUMPDEST PUSH1 0x1 PUSH1 0x1 PUSH1 0xA0 SHL SUB SWAP5 DUP2 DUP7 AND DUP1 ISZERO SWAP3 DUP4 ISZERO PUSH2 0x6FA JUMPI POP POP PUSH1 0x8 SLOAD DUP9 DUP11 MSTORE PUSH1 0x9 DUP6 MSTORE DUP1 DUP5 DUP12 KECCAK256 SSTORE PUSH1 0x1 PUSH1 0x40 SHL DUP2 LT ISZERO PUSH2 0x6E7 JUMPI DUP9 PUSH2 0x4AC DUP3 PUSH1 0x1 PUSH2 0x4C5 SWAP5 ADD PUSH1 0x8 SSTORE PUSH2 0x1E06 JUMP JUMPDEST SWAP1 SWAP2 SWAP1 DUP3 SLOAD SWAP1 PUSH1 0x3 SHL SWAP2 DUP3 SHL SWAP2 PUSH1 0x0 NOT SWAP1 SHL NOT AND OR SWAP1 SSTORE JUMP JUMPDEST PUSH1 0x8 SLOAD PUSH1 0x0 NOT SWAP3 SWAP1 DUP4 DUP2 ADD SWAP1 DUP2 GT PUSH2 0x6D4 JUMPI DUP10 DUP12 MSTORE PUSH1 0x9 DUP7 MSTORE PUSH2 0x4EB DUP6 DUP13 KECCAK256 SLOAD SWAP2 PUSH2 0x1E06 JUMP JUMPDEST SWAP1 SLOAD SWAP1 PUSH1 0x3 SHL SHR PUSH2 0x4FF DUP2 PUSH2 0x4AC DUP5 PUSH2 0x1E06 JUMP JUMPDEST DUP12 MSTORE PUSH1 0x9 DUP7 MSTORE DUP5 DUP12 KECCAK256 SSTORE DUP9 DUP11 MSTORE DUP10 DUP5 DUP2 KECCAK256 SSTORE PUSH1 0x8 SLOAD DUP1 ISZERO PUSH2 0x6C1 JUMPI SWAP2 DUP4 SWAP2 DUP12 SWAP7 SWAP6 SWAP5 DUP12 SWAP5 ADD PUSH2 0x52D DUP2 PUSH2 0x1E06 JUMP JUMPDEST DUP6 DUP3 SLOAD SWAP2 PUSH1 0x3 SHL SHL NOT AND SWAP1 SSTORE PUSH1 0x8 SSTORE ISZERO DUP1 PUSH2 0x6BA JUMPI JUMPDEST PUSH2 0x64A JUMPI JUMPDEST SWAP2 DUP6 PUSH1 0x2 SWAP6 SWAP5 SWAP3 DUP2 SWAP5 PUSH2 0x55A DUP5 PUSH2 0x17FB JUMP JUMPDEST SWAP1 DUP5 DUP5 MSTORE DUP8 MSTORE DUP11 DUP6 DUP5 KECCAK256 SWAP2 PUSH1 0x1 PUSH1 0x1 PUSH1 0x60 SHL SUB PUSH1 0xA0 SHL SWAP3 DUP4 DUP2 SLOAD AND SWAP1 SSTORE AND SWAP2 DUP3 DUP5 MSTORE PUSH1 0x3 DUP9 MSTORE DUP6 DUP5 KECCAK256 SWAP1 DUP2 SLOAD ADD SWAP1 SSTORE DUP4 DUP4 MSTORE DUP8 DUP8 MSTORE DUP5 DUP4 KECCAK256 SWAP1 DUP2 SLOAD AND SWAP1 SSTORE PUSH32 0xDDF252AD1BE2C89B69C2B068FC378DAA952BA7F163C4A11628F55A4DF523B3EF DUP3 DUP1 LOG4 PUSH1 0xD DUP4 MSTORE DUP2 KECCAK256 SWAP2 DUP2 DUP4 SSTORE PUSH1 0x1 DUP4 ADD SWAP1 PUSH2 0x5D5 DUP3 SLOAD PUSH2 0x16A6 JUMP JUMPDEST SWAP1 DUP2 PUSH2 0x60B JUMPI JUMPDEST POP POP POP POP ADD SSTORE AND SWAP2 PUSH32 0x50D459B3DF6D4D2831EF5996A57CAA721FB381B00BF5309A64F099895047948C DUP5 DUP1 LOG4 DUP1 RETURN JUMPDEST DUP4 SWAP1 PUSH1 0x1F DUP4 GT PUSH1 0x1 EQ PUSH2 0x626 JUMPI POP POP POP SSTORE JUMPDEST DUP3 CODESIZE DUP1 DUP1 PUSH2 0x5DC JUMP JUMPDEST DUP4 DUP3 MSTORE DUP2 KECCAK256 SWAP3 SWAP1 SWAP2 PUSH2 0x643 SWAP1 PUSH1 0x1F ADD PUSH1 0x5 SHR DUP5 ADD PUSH1 0x1 DUP6 ADD PUSH2 0x1E9F JUMP JUMPDEST SSTORE SSTORE PUSH2 0x61D JUMP JUMPDEST SWAP2 SWAP1 SWAP3 SWAP4 SWAP5 MSTORE PUSH1 0xD DUP5 MSTORE PUSH1 0xFF PUSH1 0x2 DUP5 DUP12 KECCAK256 ADD SLOAD AND PUSH2 0x66D JUMPI DUP9 SWAP4 SWAP3 SWAP2 DUP9 SWAP2 PUSH2 0x548 JUMP JUMPDEST DUP3 MLOAD PUSH3 0x461BCD PUSH1 0xE5 SHL DUP2 MSTORE SWAP1 DUP2 ADD DUP5 SWAP1 MSTORE PUSH1 0x21 PUSH1 0x24 DUP3 ADD MSTORE PUSH32 0x55736564207469636B65742063616E6E6F74206265207472616E736665727265 PUSH1 0x44 DUP3 ADD MSTORE PUSH1 0x19 PUSH1 0xFA SHL PUSH1 0x64 DUP3 ADD MSTORE PUSH1 0x84 SWAP1 REVERT JUMPDEST POP DUP6 PUSH2 0x543 JUMP JUMPDEST PUSH4 0x4E487B71 PUSH1 0xE0 SHL DUP12 MSTORE PUSH1 0x31 DUP4 MSTORE PUSH1 0x24 DUP12 REVERT JUMPDEST PUSH4 0x4E487B71 PUSH1 0xE0 SHL DUP12 MSTORE PUSH1 0x11 DUP4 MSTORE PUSH1 0x24 DUP12 REVERT JUMPDEST PUSH4 0x4E487B71 PUSH1 0xE0 SHL DUP11 MSTORE PUSH1 0x41 DUP3 MSTORE PUSH1 0x24 DUP11 REVERT JUMPDEST PUSH2 0x703 SWAP1 PUSH2 0x1738 JUMP JUMPDEST PUSH1 0x0 NOT DUP2 ADD SWAP2 SWAP1 DUP3 GT PUSH2 0x6D4 JUMPI DUP10 DUP12 MSTORE PUSH1 0x7 DUP7 MSTORE DUP5 DUP12 KECCAK256 SLOAD DUP3 DUP2 SUB PUSH2 0x744 JUMPI JUMPDEST POP DUP10 DUP12 MSTORE DUP11 DUP6 DUP2 KECCAK256 SSTORE DUP11 MSTORE PUSH1 0x6 DUP6 MSTORE DUP4 DUP11 KECCAK256 SWAP1 DUP11 MSTORE DUP5 MSTORE DUP9 DUP4 DUP2 KECCAK256 SSTORE PUSH2 0x4C5 JUMP JUMPDEST DUP2 DUP13 MSTORE PUSH1 0x6 DUP8 MSTORE DUP6 DUP13 KECCAK256 DUP4 DUP14 MSTORE DUP8 MSTORE DUP6 DUP13 DUP2 DUP2 KECCAK256 SLOAD SWAP2 DUP2 DUP6 DUP5 SWAP4 MSTORE PUSH1 0x6 DUP12 MSTORE DUP2 DUP2 KECCAK256 DUP6 DUP3 MSTORE DUP12 MSTORE KECCAK256 SSTORE DUP13 MSTORE PUSH1 0x7 DUP8 MSTORE DUP6 DUP13 KECCAK256 SSTORE CODESIZE PUSH2 0x723 JUMP JUMPDEST POP SWAP1 CALLVALUE PUSH2 0x206 JUMPI DUP1 PUSH1 0x3 NOT CALLDATASIZE ADD SLT PUSH2 0x206 JUMPI PUSH2 0x797 PUSH2 0x1575 JUMP JUMPDEST SWAP1 PUSH1 0x24 CALLDATALOAD DUP1 ISZERO ISZERO SWAP3 DUP4 DUP3 SUB PUSH2 0x851 JUMPI PUSH1 0x1 PUSH1 0x1 PUSH1 0xA0 SHL SUB AND SWAP4 CALLER DUP6 EQ PUSH2 0x80E JUMPI POP PUSH2 0x7E1 SWAP1 CALLER DUP7 MSTORE PUSH1 0x5 PUSH1 0x20 MSTORE DUP3 DUP7 KECCAK256 DUP6 DUP8 MSTORE PUSH1 0x20 MSTORE DUP3 DUP7 KECCAK256 SWAP1 PUSH1 0xFF DUP1 NOT DUP4 SLOAD AND SWAP2 ISZERO ISZERO AND OR SWAP1 SSTORE JUMP JUMPDEST MLOAD SWAP1 DUP2 MSTORE PUSH32 0x17307EAB39AB6107E8899845AD3D59BD9653F200F220920489CA2B5937696C31 PUSH1 0x20 CALLER SWAP3 LOG3 DUP1 RETURN JUMPDEST PUSH1 0x64 SWAP1 PUSH1 0x20 DUP5 MLOAD SWAP2 PUSH3 0x461BCD PUSH1 0xE5 SHL DUP4 MSTORE DUP3 ADD MSTORE PUSH1 0x19 PUSH1 0x24 DUP3 ADD MSTORE PUSH32 0x4552433732313A20617070726F766520746F2063616C6C657200000000000000 PUSH1 0x44 DUP3 ADD MSTORE REVERT JUMPDEST DUP6 DUP1 REVERT JUMPDEST POP POP CALLVALUE PUSH2 0x258 JUMPI DUP2 PUSH1 0x3 NOT CALLDATASIZE ADD SLT PUSH2 0x258 JUMPI DUP1 MLOAD SWAP1 DUP3 PUSH1 0x1 DUP1 SLOAD SWAP2 PUSH2 0x879 DUP4 PUSH2 0x16A6 JUMP JUMPDEST DUP1 DUP7 MSTORE SWAP3 DUP3 DUP2 AND SWAP1 DUP2 ISZERO PUSH2 0x910 JUMPI POP PUSH1 0x1 EQ PUSH2 0x8B4 JUMPI JUMPDEST POP POP POP PUSH2 0x8A2 DUP3 PUSH2 0x31E SWAP5 SUB DUP4 PUSH2 0x15A6 JUMP JUMPDEST MLOAD SWAP2 DUP3 SWAP2 PUSH1 0x20 DUP4 MSTORE PUSH1 0x20 DUP4 ADD SWAP1 PUSH2 0x1631 JUMP JUMPDEST SWAP5 POP DUP1 DUP6 MSTORE PUSH32 0xB10E2D527612073B26EECDFD717E6A320CF44B4AFAC2B0732D9FCBE2B7FA0CF6 JUMPDEST DUP3 DUP7 LT PUSH2 0x8F8 JUMPI POP POP POP PUSH2 0x8A2 DUP3 PUSH1 0x20 PUSH2 0x31E SWAP6 DUP3 ADD ADD SWAP5 PUSH2 0x890 JUMP JUMPDEST DUP1 SLOAD PUSH1 0x20 DUP8 DUP8 ADD DUP2 ADD SWAP2 SWAP1 SWAP2 MSTORE SWAP1 SWAP6 ADD SWAP5 DUP2 ADD PUSH2 0x8DB JUMP JUMPDEST PUSH2 0x31E SWAP8 POP DUP7 SWAP4 POP PUSH1 0x20 SWAP3 POP PUSH2 0x8A2 SWAP5 SWAP2 POP PUSH1 0xFF NOT AND DUP3 DUP5 ADD MSTORE ISZERO ISZERO PUSH1 0x5 SHL DUP3 ADD ADD SWAP5 PUSH2 0x890 JUMP JUMPDEST POP POP CALLVALUE PUSH2 0x258 JUMPI DUP2 PUSH1 0x3 NOT CALLDATASIZE ADD SLT PUSH2 0x258 JUMPI PUSH1 0xA SLOAD SWAP1 MLOAD PUSH1 0x1 PUSH1 0x1 PUSH1 0xA0 SHL SUB SWAP1 SWAP2 AND DUP2 MSTORE PUSH1 0x20 SWAP1 RETURN JUMPDEST POP CALLVALUE PUSH2 0x206 JUMPI PUSH1 0x20 CALLDATASIZE PUSH1 0x3 NOT ADD SLT PUSH2 0x206 JUMPI PUSH1 0x20 SWAP3 DUP3 SWAP2 CALLDATALOAD PUSH2 0x99B PUSH2 0x295 DUP3 PUSH1 0x0 MSTORE PUSH1 0x2 PUSH1 0x20 MSTORE PUSH1 0x1 DUP1 PUSH1 0xA0 SHL SUB PUSH1 0x40 PUSH1 0x0 KECCAK256 SLOAD AND ISZERO ISZERO SWAP1 JUMP JUMPDEST DUP2 MSTORE PUSH1 0xD DUP5 MSTORE KECCAK256 SLOAD SWAP1 MLOAD SWAP1 DUP2 MSTORE RETURN JUMPDEST DUP4 CALLVALUE PUSH2 0xA07 JUMPI DUP1 PUSH1 0x3 NOT CALLDATASIZE ADD SLT PUSH2 0xA07 JUMPI PUSH2 0x9C3 PUSH2 0x16E0 JUMP JUMPDEST PUSH1 0xA DUP1 SLOAD PUSH1 0x1 PUSH1 0x1 PUSH1 0xA0 SHL SUB NOT DUP2 AND SWAP1 SWAP2 SSTORE DUP2 SWAP1 PUSH1 0x1 PUSH1 0x1 PUSH1 0xA0 SHL SUB AND PUSH32 0x8BE0079C531659141344CD1FD0A4F28419497F9722A3DAAFE3B4186F6B6457E0 DUP3 DUP1 LOG3 DUP1 RETURN JUMPDEST DUP1 REVERT JUMPDEST POP POP CALLVALUE PUSH2 0x258 JUMPI PUSH1 0x20 CALLDATASIZE PUSH1 0x3 NOT ADD SLT PUSH2 0x258 JUMPI PUSH1 0x20 SWAP1 PUSH2 0xA30 PUSH2 0xA2B PUSH2 0x1575 JUMP JUMPDEST PUSH2 0x1738 JUMP JUMPDEST SWAP1 MLOAD SWAP1 DUP2 MSTORE RETURN JUMPDEST POP POP CALLVALUE PUSH2 0x258 JUMPI DUP2 PUSH1 0x3 NOT CALLDATASIZE ADD SLT PUSH2 0x258 JUMPI PUSH1 0xC SLOAD SWAP1 MLOAD PUSH1 0x1 PUSH1 0x1 PUSH1 0xA0 SHL SUB SWAP1 SWAP2 AND DUP2 MSTORE PUSH1 0x20 SWAP1 RETURN JUMPDEST POP SWAP2 CALLVALUE PUSH2 0xA07 JUMPI PUSH1 0x20 CALLDATASIZE PUSH1 0x3 NOT ADD SLT PUSH2 0xA07 JUMPI POP PUSH2 0xA80 PUSH1 0x20 SWAP3 CALLDATALOAD PUSH2 0x17FB JUMP JUMPDEST SWAP1 MLOAD PUSH1 0x1 PUSH1 0x1 PUSH1 0xA0 SHL SUB SWAP1 SWAP2 AND DUP2 MSTORE RETURN JUMPDEST POP SWAP2 CALLVALUE PUSH2 0xA07 JUMPI PUSH1 0x20 SWAP3 DUP4 PUSH1 0x3 NOT CALLDATASIZE ADD SLT PUSH2 0x258 JUMPI CALLDATALOAD DUP2 MSTORE PUSH1 0xD DUP4 MSTORE DUP2 DUP2 KECCAK256 SWAP2 DUP3 SLOAD SWAP3 PUSH1 0x1 DUP1 DUP3 ADD SWAP4 DUP7 DUP5 MLOAD SWAP6 DUP7 SWAP4 DUP4 DUP3 SLOAD SWAP3 PUSH2 0xACD DUP5 PUSH2 0x16A6 JUMP JUMPDEST DUP1 DUP9 MSTORE SWAP4 DUP4 DUP2 AND SWAP1 DUP2 ISZERO PUSH2 0xB5E JUMPI POP PUSH1 0x1 EQ PUSH2 0xB22 JUMPI JUMPDEST POP POP POP POP POP PUSH2 0xB17 SWAP3 PUSH2 0xAFD PUSH1 0xFF SWAP4 PUSH1 0x2 SWAP4 SUB DUP8 PUSH2 0x15A6 JUMP JUMPDEST ADD SLOAD AND SWAP3 PUSH1 0x60 DUP4 MLOAD SWAP7 DUP8 SWAP7 DUP8 MSTORE DUP7 ADD MSTORE PUSH1 0x60 DUP6 ADD SWAP1 PUSH2 0x1631 JUMP JUMPDEST SWAP2 ISZERO ISZERO SWAP1 DUP4 ADD MSTORE SUB SWAP1 RETURN JUMPDEST SWAP1 DUP1 SWAP5 SWAP6 POP MSTORE DUP4 DUP4 KECCAK256 JUMPDEST DUP3 DUP5 LT PUSH2 0xB48 JUMPI POP POP POP DUP3 ADD ADD DUP7 PUSH2 0xAFD DUP4 PUSH1 0x2 PUSH2 0xB17 PUSH2 0xAE4 JUMP JUMPDEST DUP1 SLOAD DUP10 DUP6 ADD DUP7 ADD MSTORE DUP9 SWAP6 POP SWAP3 DUP5 ADD SWAP3 DUP2 ADD PUSH2 0xB2C JUMP JUMPDEST PUSH1 0xFF NOT AND DUP7 DUP10 ADD MSTORE POP POP POP POP ISZERO ISZERO PUSH1 0x5 SHL DUP4 ADD ADD SWAP1 POP DUP7 PUSH2 0xAFD DUP4 PUSH1 0x2 PUSH2 0xB17 PUSH2 0xAE4 JUMP JUMPDEST POP DUP3 CALLVALUE PUSH2 0xA07 JUMPI PUSH1 0x20 CALLDATASIZE PUSH1 0x3 NOT ADD SLT PUSH2 0xA07 JUMPI POP DUP1 CALLDATALOAD SWAP1 PUSH1 0x8 SLOAD DUP3 LT ISZERO PUSH2 0xBBE JUMPI PUSH1 0x20 DUP4 PUSH2 0xBB0 DUP5 PUSH2 0x1E06 JUMP JUMPDEST SWAP2 SWAP1 SLOAD SWAP1 MLOAD SWAP2 PUSH1 0x3 SHL SHR DUP2 MSTORE RETURN JUMPDEST PUSH1 0x84 SWAP1 PUSH1 0x20 DUP5 MLOAD SWAP2 PUSH3 0x461BCD PUSH1 0xE5 SHL DUP4 MSTORE DUP3 ADD MSTORE PUSH1 0x2C PUSH1 0x24 DUP3 ADD MSTORE PUSH32 0x455243373231456E756D657261626C653A20676C6F62616C20696E646578206F PUSH1 0x44 DUP3 ADD MSTORE PUSH12 0x7574206F6620626F756E6473 PUSH1 0xA0 SHL PUSH1 0x64 DUP3 ADD MSTORE REVERT JUMPDEST POP SWAP2 SWAP1 CALLVALUE PUSH2 0x258 JUMPI PUSH2 0xC27 CALLDATASIZE PUSH2 0x1671 JUMP JUMPDEST SWAP2 DUP4 MLOAD SWAP4 PUSH1 0x20 DUP6 ADD SWAP1 DUP6 DUP3 LT PUSH8 0xFFFFFFFFFFFFFFFF DUP4 GT OR PUSH2 0xC52 JUMPI PUSH2 0x3FD SWAP7 SWAP8 POP MSTORE DUP6 DUP5 MSTORE PUSH2 0x18C1 JUMP JUMPDEST PUSH4 0x4E487B71 PUSH1 0xE0 SHL DUP8 MSTORE PUSH1 0x41 DUP9 MSTORE PUSH1 0x24 DUP8 REVERT JUMPDEST POP SWAP2 CALLVALUE PUSH2 0xA07 JUMPI DUP2 PUSH1 0x3 NOT CALLDATASIZE ADD SLT PUSH2 0xA07 JUMPI PUSH2 0xC7F PUSH2 0x1575 JUMP JUMPDEST PUSH1 0x24 CALLDATALOAD SWAP1 PUSH2 0xC8C DUP2 PUSH2 0x1738 JUMP JUMPDEST DUP3 LT ISZERO PUSH2 0xCBA JUMPI PUSH1 0x1 PUSH1 0x1 PUSH1 0xA0 SHL SUB AND DUP3 MSTORE PUSH1 0x6 PUSH1 0x20 SWAP1 DUP2 MSTORE DUP4 DUP4 KECCAK256 SWAP2 DUP4 MSTORE SWAP1 DUP2 MSTORE SWAP1 DUP3 SWAP1 KECCAK256 SLOAD DUP3 MLOAD SWAP1 DUP2 MSTORE RETURN JUMPDEST DUP4 MLOAD PUSH3 0x461BCD PUSH1 0xE5 SHL DUP2 MSTORE PUSH1 0x20 DUP2 DUP8 ADD MSTORE PUSH1 0x2B PUSH1 0x24 DUP3 ADD MSTORE PUSH32 0x455243373231456E756D657261626C653A206F776E657220696E646578206F75 PUSH1 0x44 DUP3 ADD MSTORE PUSH11 0x74206F6620626F756E6473 PUSH1 0xA8 SHL PUSH1 0x64 DUP3 ADD MSTORE PUSH1 0x84 SWAP1 REVERT JUMPDEST POP CALLVALUE PUSH2 0x206 JUMPI PUSH1 0x20 CALLDATASIZE PUSH1 0x3 NOT ADD SLT PUSH2 0x206 JUMPI PUSH1 0x2 DUP3 PUSH1 0x20 SWAP5 PUSH1 0xFF SWAP4 CALLDATALOAD PUSH2 0xD4F PUSH2 0x295 DUP3 PUSH1 0x0 MSTORE PUSH1 0x2 PUSH1 0x20 MSTORE PUSH1 0x1 DUP1 PUSH1 0xA0 SHL SUB PUSH1 0x40 PUSH1 0x0 KECCAK256 SLOAD AND ISZERO ISZERO SWAP1 JUMP JUMPDEST DUP2 MSTORE PUSH1 0xD DUP7 MSTORE KECCAK256 ADD SLOAD AND SWAP1 MLOAD SWAP1 ISZERO ISZERO DUP2 MSTORE RETURN JUMPDEST POP CALLVALUE PUSH2 0x206 JUMPI PUSH1 0x20 CALLDATASIZE PUSH1 0x3 NOT ADD SLT PUSH2 0x206 JUMPI DUP1 CALLDATALOAD SWAP2 PUSH1 0x1 DUP1 PUSH1 0xA0 SHL SUB SWAP2 PUSH2 0xD8E DUP4 PUSH1 0xC SLOAD AND CALLER EQ PUSH2 0x1E53 JUMP JUMPDEST PUSH1 0x0 DUP5 DUP2 MSTORE PUSH1 0x2 PUSH1 0x20 MSTORE PUSH1 0x40 SWAP1 KECCAK256 SLOAD PUSH2 0xDB1 SWAP1 PUSH1 0x1 PUSH1 0x1 PUSH1 0xA0 SHL SUB AND ISZERO ISZERO PUSH2 0x17AF JUMP JUMPDEST DUP4 DUP6 MSTORE PUSH1 0xD PUSH1 0x20 MSTORE PUSH1 0xFF PUSH1 0x2 DUP4 DUP8 KECCAK256 ADD SLOAD AND PUSH2 0xE15 JUMPI POP DUP3 DUP5 MSTORE PUSH1 0xD PUSH1 0x20 MSTORE DUP4 KECCAK256 PUSH1 0x2 DUP2 ADD DUP1 SLOAD PUSH1 0xFF NOT AND PUSH1 0x1 OR SWAP1 SSTORE SLOAD SWAP1 PUSH2 0xDEC DUP4 PUSH2 0x17FB JUMP JUMPDEST AND SWAP2 PUSH32 0xB35EBDFB9515B145E406C5C5A0846EC436DB0B9560927AF3AF7A754D90C4F6FF DUP5 DUP1 LOG4 DUP1 RETURN JUMPDEST PUSH1 0x20 PUSH1 0x64 SWAP3 MLOAD SWAP2 PUSH3 0x461BCD PUSH1 0xE5 SHL DUP4 MSTORE DUP3 ADD MSTORE PUSH1 0x13 PUSH1 0x24 DUP3 ADD MSTORE PUSH19 0x151A58DAD95D08185B1C9958591E481D5CD959 PUSH1 0x6A SHL PUSH1 0x44 DUP3 ADD MSTORE REVERT JUMPDEST DUP4 CALLVALUE PUSH2 0xA07 JUMPI PUSH2 0x3FD PUSH2 0xE5F CALLDATASIZE PUSH2 0x1671 JUMP JUMPDEST SWAP2 PUSH2 0xE72 PUSH2 0xE6D DUP5 CALLER PUSH2 0x195C JUMP JUMPDEST PUSH2 0x185F JUMP JUMPDEST PUSH2 0x1A24 JUMP JUMPDEST POP POP CALLVALUE PUSH2 0x258 JUMPI DUP2 PUSH1 0x3 NOT CALLDATASIZE ADD SLT PUSH2 0x258 JUMPI PUSH1 0x20 SWAP1 PUSH1 0x8 SLOAD SWAP1 MLOAD SWAP1 DUP2 MSTORE RETURN JUMPDEST POP CALLVALUE PUSH2 0x206 JUMPI DUP2 PUSH1 0x3 NOT CALLDATASIZE ADD SLT PUSH2 0x206 JUMPI PUSH2 0xEAF PUSH2 0x1575 JUMP JUMPDEST PUSH1 0x24 CALLDATALOAD SWAP3 SWAP1 SWAP2 PUSH1 0x1 PUSH1 0x1 PUSH1 0xA0 SHL SUB SWAP2 SWAP1 DUP3 DUP1 PUSH2 0xECA DUP8 PUSH2 0x17FB JUMP JUMPDEST AND SWAP5 AND SWAP4 DUP1 DUP6 EQ PUSH2 0xFB6 JUMPI DUP1 CALLER EQ SWAP1 DUP2 ISZERO PUSH2 0xF97 JUMPI JUMPDEST POP ISZERO PUSH2 0xF2F JUMPI DUP5 DUP7 MSTORE PUSH1 0x20 MSTORE DUP5 KECCAK256 DUP1 SLOAD PUSH1 0x1 PUSH1 0x1 PUSH1 0xA0 SHL SUB NOT AND DUP4 OR SWAP1 SSTORE PUSH2 0xF07 DUP4 PUSH2 0x17FB JUMP JUMPDEST AND PUSH32 0x8C5BE1E5EBEC7D5BD14F71427D1E84F3DD0314C0F7B2291E5B200AC8C7C3B925 DUP5 DUP1 LOG4 DUP1 RETURN JUMPDEST PUSH1 0x20 PUSH1 0x84 SWAP3 MLOAD SWAP2 PUSH3 0x461BCD PUSH1 0xE5 SHL DUP4 MSTORE DUP3 ADD MSTORE PUSH1 0x3D PUSH1 0x24 DUP3 ADD MSTORE PUSH32 0x4552433732313A20617070726F76652063616C6C6572206973206E6F7420746F PUSH1 0x44 DUP3 ADD MSTORE PUSH32 0x6B656E206F776E6572206F7220617070726F76656420666F7220616C6C000000 PUSH1 0x64 DUP3 ADD MSTORE REVERT JUMPDEST SWAP1 POP DUP7 MSTORE PUSH1 0x5 PUSH1 0x20 MSTORE DUP2 DUP7 KECCAK256 CALLER DUP8 MSTORE PUSH1 0x20 MSTORE PUSH1 0xFF DUP3 DUP8 KECCAK256 SLOAD AND CODESIZE PUSH2 0xEE0 JUMP JUMPDEST POP PUSH1 0x20 PUSH1 0x84 SWAP3 MLOAD SWAP2 PUSH3 0x461BCD PUSH1 0xE5 SHL DUP4 MSTORE DUP3 ADD MSTORE PUSH1 0x21 PUSH1 0x24 DUP3 ADD MSTORE PUSH32 0x4552433732313A20617070726F76616C20746F2063757272656E74206F776E65 PUSH1 0x44 DUP3 ADD MSTORE PUSH1 0x39 PUSH1 0xF9 SHL PUSH1 0x64 DUP3 ADD MSTORE REVERT JUMPDEST POP SWAP2 CALLVALUE PUSH2 0xA07 JUMPI PUSH1 0x20 CALLDATASIZE PUSH1 0x3 NOT ADD SLT PUSH2 0xA07 JUMPI POP PUSH2 0xA80 PUSH1 0x20 SWAP3 CALLDATALOAD PUSH2 0x1821 JUMP JUMPDEST POP POP CALLVALUE PUSH2 0x258 JUMPI DUP2 PUSH1 0x3 NOT CALLDATASIZE ADD SLT PUSH2 0x258 JUMPI DUP1 MLOAD SWAP1 DUP3 DUP1 SLOAD PUSH2 0x1044 DUP2 PUSH2 0x16A6 JUMP JUMPDEST DUP1 DUP6 MSTORE SWAP2 PUSH1 0x1 SWAP2 DUP1 DUP4 AND SWAP1 DUP2 ISZERO PUSH2 0x910 JUMPI POP PUSH1 0x1 EQ PUSH2 0x106F JUMPI POP POP POP PUSH2 0x8A2 DUP3 PUSH2 0x31E SWAP5 SUB DUP4 PUSH2 0x15A6 JUMP JUMPDEST DUP1 DUP1 SWAP7 POP MSTORE PUSH32 0x290DECD9548B62A8D60345A988386FC84BA6BC95484008F6362F93160EF3E563 JUMPDEST DUP3 DUP7 LT PUSH2 0x10B3 JUMPI POP POP POP PUSH2 0x8A2 DUP3 PUSH1 0x20 PUSH2 0x31E SWAP6 DUP3 ADD ADD SWAP5 PUSH2 0x890 JUMP JUMPDEST DUP1 SLOAD PUSH1 0x20 DUP8 DUP8 ADD DUP2 ADD SWAP2 SWAP1 SWAP2 MSTORE SWAP1 SWAP6 ADD SWAP5 DUP2 ADD PUSH2 0x1096 JUMP JUMPDEST POP SWAP1 CALLVALUE PUSH2 0x206 JUMPI PUSH1 0x60 CALLDATASIZE PUSH1 0x3 NOT ADD SLT PUSH2 0x206 JUMPI PUSH2 0x10E6 PUSH2 0x1575 JUMP JUMPDEST PUSH1 0x24 SWAP2 DUP3 CALLDATALOAD SWAP4 PUSH1 0x44 CALLDATALOAD PUSH8 0xFFFFFFFFFFFFFFFF SWAP1 DUP2 DUP2 GT PUSH2 0x14EB JUMPI CALLDATASIZE PUSH1 0x23 DUP3 ADD SLT ISZERO PUSH2 0x14EB JUMPI PUSH2 0x111D SWAP1 CALLDATASIZE SWAP1 DUP8 DUP2 DUP7 ADD CALLDATALOAD SWAP2 ADD PUSH2 0x15FA JUMP JUMPDEST PUSH1 0xC SLOAD SWAP1 SWAP5 PUSH1 0x1 PUSH1 0x1 PUSH1 0xA0 SHL SUB SWAP2 DUP3 AND SWAP4 SWAP1 SWAP2 PUSH2 0x113B CALLER DUP7 EQ PUSH2 0x1E53 JUMP JUMPDEST DUP6 MLOAD DUP1 SWAP6 PUSH4 0x49287C0B PUSH1 0xE0 SHL DUP3 MSTORE DUP11 DUP5 DUP4 ADD MSTORE DUP2 DUP11 PUSH1 0x20 SWAP9 DUP10 SWAP4 GAS STATICCALL SWAP1 DUP2 ISZERO PUSH2 0x14E1 JUMPI DUP12 SWAP2 PUSH2 0x14A7 JUMPI JUMPDEST POP ISZERO PUSH2 0x1465 JUMPI DUP3 AND SWAP7 DUP8 ISZERO PUSH2 0x1423 JUMPI PUSH1 0x1 SWAP4 DUP5 PUSH1 0xB SLOAD ADD SWAP8 DUP9 PUSH1 0xB SSTORE DUP8 MLOAD SWAP2 PUSH1 0x60 DUP4 ADD DUP4 DUP2 LT DUP3 DUP3 GT OR PUSH2 0x1411 JUMPI DUP10 MSTORE DUP12 DUP4 MSTORE DUP8 DUP4 ADD SWAP2 DUP3 MSTORE DUP3 DUP10 ADD DUP14 DUP2 MSTORE DUP11 DUP15 MSTORE PUSH1 0xD DUP10 MSTORE DUP10 DUP15 KECCAK256 SWAP4 MLOAD DUP5 SSTORE SWAP2 MLOAD DUP1 MLOAD DUP9 DUP6 ADD SWAP3 SWAP1 SWAP2 SWAP1 DUP3 GT PUSH2 0x13FF JUMPI DUP15 SWAP1 PUSH2 0x11CF DUP5 SLOAD PUSH2 0x16A6 JUMP JUMPDEST DUP12 PUSH1 0x1F DUP3 GT PUSH2 0x13C6 JUMPI JUMPDEST POP POP DUP11 SWAP2 PUSH1 0x1F DUP5 GT PUSH1 0x1 EQ PUSH2 0x1357 JUMPI SWAP3 PUSH1 0x2 SWAP5 SWAP3 DUP2 SWAP3 PUSH2 0x1225 SWAP9 SWAP8 SWAP6 SWAP3 PUSH2 0x134C JUMPI JUMPDEST POP POP PUSH1 0x0 NOT PUSH1 0x3 DUP4 SWAP1 SHL SHR NOT AND SWAP1 DUP11 SHL OR SWAP1 SSTORE JUMPDEST MLOAD ISZERO ISZERO SWAP2 ADD SWAP1 PUSH1 0xFF DUP1 NOT DUP4 SLOAD AND SWAP2 ISZERO ISZERO AND OR SWAP1 SSTORE JUMP JUMPDEST PUSH1 0x0 DUP8 DUP2 MSTORE PUSH1 0x2 PUSH1 0x20 MSTORE PUSH1 0x40 SWAP1 KECCAK256 SLOAD PUSH2 0x124A SWAP1 PUSH1 0x1 PUSH1 0x1 PUSH1 0xA0 SHL SUB AND ISZERO ISZERO JUMPDEST ISZERO PUSH2 0x1EB6 JUMP JUMPDEST PUSH1 0x8 SLOAD SWAP2 DUP8 DUP12 MSTORE PUSH1 0x9 DUP7 MSTORE DUP3 DUP8 DUP13 KECCAK256 SSTORE PUSH1 0x1 PUSH1 0x40 SHL DUP4 LT ISZERO PUSH2 0x133B JUMPI POP POP DUP3 SWAP2 PUSH2 0xA2B DUP8 PUSH2 0x4AC DUP5 PUSH1 0x2 SWAP9 SWAP8 PUSH2 0x1283 SWAP7 ADD PUSH1 0x8 SSTORE PUSH2 0x1E06 JUMP JUMPDEST DUP7 DUP10 MSTORE PUSH1 0x6 DUP4 MSTORE DUP5 DUP10 KECCAK256 DUP2 DUP11 MSTORE DUP4 MSTORE DUP5 DUP10 KECCAK256 DUP7 SWAP1 SSTORE DUP6 DUP10 MSTORE PUSH1 0x7 DUP4 MSTORE DUP5 DUP10 KECCAK256 SSTORE PUSH1 0x0 DUP6 DUP2 MSTORE PUSH1 0x2 PUSH1 0x20 MSTORE PUSH1 0x40 SWAP1 KECCAK256 SLOAD PUSH2 0x12C6 SWAP1 PUSH1 0x1 PUSH1 0x1 PUSH1 0xA0 SHL SUB AND ISZERO ISZERO PUSH2 0x1244 JUMP JUMPDEST DUP6 DUP9 MSTORE PUSH1 0x3 DUP3 MSTORE DUP4 DUP9 KECCAK256 DUP1 SLOAD SWAP1 SWAP2 ADD SWAP1 SSTORE DUP4 DUP8 MSTORE MSTORE DUP5 KECCAK256 DUP1 SLOAD PUSH1 0x1 PUSH1 0x1 PUSH1 0xA0 SHL SUB NOT AND DUP4 OR SWAP1 SSTORE DUP1 DUP3 DUP6 PUSH32 0xDDF252AD1BE2C89B69C2B068FC378DAA952BA7F163C4A11628F55A4DF523B3EF DUP2 DUP1 LOG4 PUSH32 0x5C1C9352D51031ACC9A558D7CDCCA15B0CE5FE4F46D7315CCA355248175B0A37 DUP5 DUP1 LOG4 DUP1 RETURN JUMPDEST PUSH4 0x4E487B71 PUSH1 0xE0 SHL DUP12 MSTORE PUSH1 0x41 SWAP1 MSTORE DUP10 REVERT JUMPDEST ADD MLOAD SWAP1 POP CODESIZE DUP1 PUSH2 0x11FB JUMP JUMPDEST SWAP1 SWAP2 DUP11 SWAP4 SWAP3 PUSH1 0x1F NOT DUP5 AND DUP7 DUP5 MSTORE DUP14 DUP1 DUP6 KECCAK256 SWAP5 SWAP1 JUMPDEST DUP3 DUP3 LT PUSH2 0x13AF JUMPI POP POP SWAP2 PUSH2 0x1225 SWAP9 SWAP8 SWAP6 SWAP4 SWAP2 DUP6 PUSH1 0x2 SWAP9 SWAP7 SWAP5 LT PUSH2 0x1396 JUMPI JUMPDEST POP POP POP DUP2 SHL ADD SWAP1 SSTORE PUSH2 0x120F JUMP JUMPDEST ADD MLOAD PUSH1 0x0 NOT PUSH1 0xF8 DUP5 PUSH1 0x3 SHL AND SHR NOT AND SWAP1 SSTORE CODESIZE DUP1 DUP1 PUSH2 0x1389 JUMP JUMPDEST DUP4 DUP6 ADD MLOAD DUP7 SSTORE DUP15 SWAP8 SWAP1 SWAP6 ADD SWAP5 SWAP4 DUP5 ADD SWAP4 ADD DUP15 PUSH2 0x136B JUMP JUMPDEST DUP6 DUP5 MSTORE DUP1 DUP5 KECCAK256 PUSH2 0x13EE SWAP3 PUSH1 0x1F DUP8 ADD PUSH1 0x5 SHR DUP3 ADD SWAP3 DUP8 LT PUSH2 0x13F5 JUMPI JUMPDEST PUSH1 0x1F ADD PUSH1 0x5 SHR ADD SWAP1 PUSH2 0x1E9F JUMP JUMPDEST CODESIZE DUP12 PUSH2 0x11D9 JUMP JUMPDEST SWAP1 SWAP2 POP DUP2 SWAP1 PUSH2 0x13E1 JUMP JUMPDEST PUSH4 0x4E487B71 PUSH1 0xE0 SHL DUP16 MSTORE PUSH1 0x41 DUP8 MSTORE DUP6 DUP16 REVERT JUMPDEST PUSH4 0x4E487B71 PUSH1 0xE0 SHL DUP15 MSTORE PUSH1 0x41 DUP7 MSTORE DUP5 DUP15 REVERT JUMPDEST DUP6 MLOAD PUSH3 0x461BCD PUSH1 0xE5 SHL DUP2 MSTORE SWAP2 DUP3 ADD DUP6 SWAP1 MSTORE PUSH1 0x18 SWAP1 DUP3 ADD MSTORE PUSH32 0x496E76616C696420617474656E64656520616464726573730000000000000000 PUSH1 0x44 DUP3 ADD MSTORE PUSH1 0x64 SWAP1 REVERT JUMPDEST DUP6 MLOAD PUSH3 0x461BCD PUSH1 0xE5 SHL DUP2 MSTORE DUP1 DUP4 ADD DUP7 SWAP1 MSTORE PUSH1 0x18 DUP2 DUP11 ADD MSTORE PUSH32 0x496E76616C6964206F722065787069726564206576656E740000000000000000 PUSH1 0x44 DUP3 ADD MSTORE PUSH1 0x64 SWAP1 REVERT JUMPDEST SWAP1 POP DUP6 DUP2 DUP2 RETURNDATASIZE DUP4 GT PUSH2 0x14DA JUMPI JUMPDEST PUSH2 0x14BE DUP2 DUP4 PUSH2 0x15A6 JUMP JUMPDEST DUP2 ADD SUB SLT PUSH2 0x14D6 JUMPI MLOAD DUP1 ISZERO ISZERO DUP2 SUB PUSH2 0x14D6 JUMPI CODESIZE PUSH2 0x1165 JUMP JUMPDEST DUP11 DUP1 REVERT JUMPDEST POP RETURNDATASIZE PUSH2 0x14B4 JUMP JUMPDEST DUP8 MLOAD RETURNDATASIZE DUP14 DUP3 RETURNDATACOPY RETURNDATASIZE SWAP1 REVERT JUMPDEST DUP8 DUP1 REVERT JUMPDEST SWAP3 POP POP CALLVALUE PUSH2 0x206 JUMPI PUSH1 0x20 CALLDATASIZE PUSH1 0x3 NOT ADD SLT PUSH2 0x206 JUMPI CALLDATALOAD PUSH4 0xFFFFFFFF PUSH1 0xE0 SHL DUP2 AND DUP1 SWAP2 SUB PUSH2 0x206 JUMPI PUSH1 0x20 SWAP3 POP PUSH4 0x780E9D63 PUSH1 0xE0 SHL DUP2 EQ SWAP1 DUP2 ISZERO PUSH2 0x1532 JUMPI JUMPDEST POP ISZERO ISZERO DUP2 MSTORE RETURN JUMPDEST PUSH4 0x80AC58CD PUSH1 0xE0 SHL DUP2 EQ SWAP2 POP DUP2 ISZERO PUSH2 0x1564 JUMPI JUMPDEST DUP2 ISZERO PUSH2 0x1553 JUMPI JUMPDEST POP CODESIZE PUSH2 0x152B JUMP JUMPDEST PUSH4 0x1FFC9A7 PUSH1 0xE0 SHL EQ SWAP1 POP CODESIZE PUSH2 0x154C JUMP JUMPDEST PUSH4 0x5B5E139F PUSH1 0xE0 SHL DUP2 EQ SWAP2 POP PUSH2 0x1545 JUMP JUMPDEST PUSH1 0x4 CALLDATALOAD SWAP1 PUSH1 0x1 PUSH1 0x1 PUSH1 0xA0 SHL SUB DUP3 AND DUP3 SUB PUSH2 0x158B JUMPI JUMP JUMPDEST PUSH1 0x0 DUP1 REVERT JUMPDEST PUSH1 0x24 CALLDATALOAD SWAP1 PUSH1 0x1 PUSH1 0x1 PUSH1 0xA0 SHL SUB DUP3 AND DUP3 SUB PUSH2 0x158B JUMPI JUMP JUMPDEST SWAP1 PUSH1 0x1F DUP1 NOT SWAP2 ADD AND DUP2 ADD SWAP1 DUP2 LT PUSH8 0xFFFFFFFFFFFFFFFF DUP3 GT OR PUSH2 0x15C8 JUMPI PUSH1 0x40 MSTORE JUMP JUMPDEST PUSH4 0x4E487B71 PUSH1 0xE0 SHL PUSH1 0x0 MSTORE PUSH1 0x41 PUSH1 0x4 MSTORE PUSH1 0x24 PUSH1 0x0 REVERT JUMPDEST PUSH8 0xFFFFFFFFFFFFFFFF DUP2 GT PUSH2 0x15C8 JUMPI PUSH1 0x1F ADD PUSH1 0x1F NOT AND PUSH1 0x20 ADD SWAP1 JUMP JUMPDEST SWAP3 SWAP2 SWAP3 PUSH2 0x1606 DUP3 PUSH2 0x15DE JUMP JUMPDEST SWAP2 PUSH2 0x1614 PUSH1 0x40 MLOAD SWAP4 DUP5 PUSH2 0x15A6 JUMP JUMPDEST DUP3 SWAP5 DUP2 DUP5 MSTORE DUP2 DUP4 ADD GT PUSH2 0x158B JUMPI DUP3 DUP2 PUSH1 0x20 SWAP4 DUP5 PUSH1 0x0 SWAP7 ADD CALLDATACOPY ADD ADD MSTORE JUMP JUMPDEST SWAP2 SWAP1 DUP3 MLOAD SWAP3 DUP4 DUP3 MSTORE PUSH1 0x0 JUMPDEST DUP5 DUP2 LT PUSH2 0x165D JUMPI POP POP DUP3 PUSH1 0x0 PUSH1 0x20 DUP1 SWAP5 SWAP6 DUP5 ADD ADD MSTORE PUSH1 0x1F DUP1 NOT SWAP2 ADD AND ADD ADD SWAP1 JUMP JUMPDEST PUSH1 0x20 DUP2 DUP4 ADD DUP2 ADD MLOAD DUP5 DUP4 ADD DUP3 ADD MSTORE ADD PUSH2 0x163C JUMP JUMPDEST PUSH1 0x60 SWAP1 PUSH1 0x3 NOT ADD SLT PUSH2 0x158B JUMPI PUSH1 0x1 PUSH1 0x1 PUSH1 0xA0 SHL SUB SWAP1 PUSH1 0x4 CALLDATALOAD DUP3 DUP2 AND DUP2 SUB PUSH2 0x158B JUMPI SWAP2 PUSH1 0x24 CALLDATALOAD SWAP1 DUP2 AND DUP2 SUB PUSH2 0x158B JUMPI SWAP1 PUSH1 0x44 CALLDATALOAD SWAP1 JUMP JUMPDEST SWAP1 PUSH1 0x1 DUP3 DUP2 SHR SWAP3 AND DUP1 ISZERO PUSH2 0x16D6 JUMPI JUMPDEST PUSH1 0x20 DUP4 LT EQ PUSH2 0x16C0 JUMPI JUMP JUMPDEST PUSH4 0x4E487B71 PUSH1 0xE0 SHL PUSH1 0x0 MSTORE PUSH1 0x22 PUSH1 0x4 MSTORE PUSH1 0x24 PUSH1 0x0 REVERT JUMPDEST SWAP2 PUSH1 0x7F AND SWAP2 PUSH2 0x16B5 JUMP JUMPDEST PUSH1 0xA SLOAD PUSH1 0x1 PUSH1 0x1 PUSH1 0xA0 SHL SUB AND CALLER SUB PUSH2 0x16F4 JUMPI JUMP JUMPDEST PUSH1 0x64 PUSH1 0x40 MLOAD PUSH3 0x461BCD PUSH1 0xE5 SHL DUP2 MSTORE PUSH1 0x20 PUSH1 0x4 DUP3 ADD MSTORE PUSH1 0x20 PUSH1 0x24 DUP3 ADD MSTORE PUSH32 0x4F776E61626C653A2063616C6C6572206973206E6F7420746865206F776E6572 PUSH1 0x44 DUP3 ADD MSTORE REVERT JUMPDEST PUSH1 0x1 PUSH1 0x1 PUSH1 0xA0 SHL SUB AND DUP1 ISZERO PUSH2 0x1758 JUMPI PUSH1 0x0 MSTORE PUSH1 0x3 PUSH1 0x20 MSTORE PUSH1 0x40 PUSH1 0x0 KECCAK256 SLOAD SWAP1 JUMP JUMPDEST PUSH1 0x40 MLOAD PUSH3 0x461BCD PUSH1 0xE5 SHL DUP2 MSTORE PUSH1 0x20 PUSH1 0x4 DUP3 ADD MSTORE PUSH1 0x29 PUSH1 0x24 DUP3 ADD MSTORE PUSH32 0x4552433732313A2061646472657373207A65726F206973206E6F742061207661 PUSH1 0x44 DUP3 ADD MSTORE PUSH9 0x3634B21037BBB732B9 PUSH1 0xB9 SHL PUSH1 0x64 DUP3 ADD MSTORE PUSH1 0x84 SWAP1 REVERT JUMPDEST ISZERO PUSH2 0x17B6 JUMPI JUMP JUMPDEST PUSH1 0x40 MLOAD PUSH3 0x461BCD PUSH1 0xE5 SHL DUP2 MSTORE PUSH1 0x20 PUSH1 0x4 DUP3 ADD MSTORE PUSH1 0x18 PUSH1 0x24 DUP3 ADD MSTORE PUSH32 0x4552433732313A20696E76616C696420746F6B656E2049440000000000000000 PUSH1 0x44 DUP3 ADD MSTORE PUSH1 0x64 SWAP1 REVERT JUMPDEST PUSH1 0x0 SWAP1 DUP2 MSTORE PUSH1 0x2 PUSH1 0x20 MSTORE PUSH1 0x40 SWAP1 KECCAK256 SLOAD PUSH1 0x1 PUSH1 0x1 PUSH1 0xA0 SHL SUB AND PUSH2 0x181E DUP2 ISZERO ISZERO PUSH2 0x17AF JUMP JUMPDEST SWAP1 JUMP JUMPDEST PUSH1 0x0 DUP2 DUP2 MSTORE PUSH1 0x2 PUSH1 0x20 MSTORE PUSH1 0x40 SWAP1 KECCAK256 SLOAD PUSH2 0x1844 SWAP1 PUSH1 0x1 PUSH1 0x1 PUSH1 0xA0 SHL SUB AND ISZERO ISZERO PUSH2 0x17AF JUMP JUMPDEST PUSH1 0x0 SWAP1 DUP2 MSTORE PUSH1 0x4 PUSH1 0x20 MSTORE PUSH1 0x40 SWAP1 KECCAK256 SLOAD PUSH1 0x1 PUSH1 0x1 PUSH1 0xA0 SHL SUB AND SWAP1 JUMP JUMPDEST ISZERO PUSH2 0x1866 JUMPI JUMP JUMPDEST PUSH1 0x40 MLOAD PUSH3 0x461BCD PUSH1 0xE5 SHL DUP2 MSTORE PUSH1 0x20 PUSH1 0x4 DUP3 ADD MSTORE PUSH1 0x2D PUSH1 0x24 DUP3 ADD MSTORE PUSH32 0x4552433732313A2063616C6C6572206973206E6F7420746F6B656E206F776E65 PUSH1 0x44 DUP3 ADD MSTORE PUSH13 0x1C881BDC88185C1C1C9BDD9959 PUSH1 0x9A SHL PUSH1 0x64 DUP3 ADD MSTORE PUSH1 0x84 SWAP1 REVERT JUMPDEST SWAP1 PUSH2 0x18E5 SWAP4 SWAP3 SWAP2 PUSH2 0x18D5 PUSH2 0xE6D DUP5 CALLER PUSH2 0x195C JUMP JUMPDEST PUSH2 0x18E0 DUP4 DUP4 DUP4 PUSH2 0x1A24 JUMP JUMPDEST PUSH2 0x1CE9 JUMP JUMPDEST ISZERO PUSH2 0x18EC JUMPI JUMP JUMPDEST PUSH1 0x40 MLOAD PUSH3 0x461BCD PUSH1 0xE5 SHL DUP2 MSTORE DUP1 PUSH2 0x1905 PUSH1 0x4 DUP3 ADD PUSH2 0x1909 JUMP JUMPDEST SUB SWAP1 REVERT JUMPDEST PUSH1 0x80 SWAP1 PUSH1 0x20 DUP2 MSTORE PUSH1 0x32 PUSH1 0x20 DUP3 ADD MSTORE PUSH32 0x4552433732313A207472616E7366657220746F206E6F6E204552433732315265 PUSH1 0x40 DUP3 ADD MSTORE PUSH18 0x31B2B4BB32B91034B6B83632B6B2B73A32B9 PUSH1 0x71 SHL PUSH1 0x60 DUP3 ADD MSTORE ADD SWAP1 JUMP JUMPDEST SWAP1 PUSH1 0x1 PUSH1 0x1 PUSH1 0xA0 SHL SUB DUP1 DUP1 PUSH2 0x1970 DUP5 PUSH2 0x17FB JUMP JUMPDEST AND SWAP4 AND SWAP2 DUP4 DUP4 EQ SWAP4 DUP5 ISZERO PUSH2 0x19A3 JUMPI JUMPDEST POP DUP4 ISZERO PUSH2 0x198D JUMPI JUMPDEST POP POP POP SWAP1 JUMP JUMPDEST PUSH2 0x1999 SWAP2 SWAP3 SWAP4 POP PUSH2 0x1821 JUMP JUMPDEST AND EQ CODESIZE DUP1 DUP1 PUSH2 0x1987 JUMP JUMPDEST SWAP1 SWAP4 POP PUSH1 0x0 MSTORE PUSH1 0x5 PUSH1 0x20 MSTORE PUSH1 0x40 PUSH1 0x0 KECCAK256 DUP3 PUSH1 0x0 MSTORE PUSH1 0x20 MSTORE PUSH1 0xFF PUSH1 0x40 PUSH1 0x0 KECCAK256 SLOAD AND SWAP3 CODESIZE PUSH2 0x197F JUMP JUMPDEST ISZERO PUSH2 0x19D1 JUMPI JUMP JUMPDEST PUSH1 0x40 MLOAD PUSH3 0x461BCD PUSH1 0xE5 SHL DUP2 MSTORE PUSH1 0x20 PUSH1 0x4 DUP3 ADD MSTORE PUSH1 0x25 PUSH1 0x24 DUP3 ADD MSTORE PUSH32 0x4552433732313A207472616E736665722066726F6D20696E636F727265637420 PUSH1 0x44 DUP3 ADD MSTORE PUSH5 0x37BBB732B9 PUSH1 0xD9 SHL PUSH1 0x64 DUP3 ADD MSTORE PUSH1 0x84 SWAP1 REVERT JUMPDEST SWAP1 PUSH2 0x1A4A SWAP1 PUSH2 0x1A32 DUP5 PUSH2 0x17FB JUMP JUMPDEST PUSH1 0x1 PUSH1 0x1 PUSH1 0xA0 SHL SUB DUP5 DUP2 AND SWAP4 SWAP1 SWAP3 SWAP2 DUP4 AND DUP5 EQ PUSH2 0x19CA JUMP JUMPDEST DUP2 DUP2 AND SWAP4 DUP5 ISZERO PUSH2 0x1C98 JUMPI DUP4 DUP1 ISZERO SWAP2 DUP3 PUSH1 0x0 EQ PUSH2 0x1BE5 JUMPI POP POP PUSH1 0x8 SLOAD SWAP2 DUP7 PUSH1 0x0 MSTORE PUSH1 0x9 PUSH1 0x20 MSTORE DUP3 PUSH1 0x40 PUSH1 0x0 KECCAK256 SSTORE PUSH1 0x1 PUSH1 0x40 SHL DUP4 LT ISZERO PUSH2 0x15C8 JUMPI PUSH2 0x1A97 DUP8 PUSH2 0x4AC DUP6 PUSH1 0x1 DUP10 SWAP8 ADD PUSH1 0x8 SSTORE PUSH2 0x1E06 JUMP JUMPDEST DUP3 DUP7 SUB PUSH2 0x1BB2 JUMPI JUMPDEST POP ISZERO DUP1 PUSH2 0x1BAA JUMPI JUMPDEST PUSH2 0x1B3B JUMPI JUMPDEST PUSH2 0x1AC0 SWAP2 PUSH2 0x1AB9 DUP7 PUSH2 0x17FB JUMP JUMPDEST AND EQ PUSH2 0x19CA JUMP JUMPDEST PUSH32 0xDDF252AD1BE2C89B69C2B068FC378DAA952BA7F163C4A11628F55A4DF523B3EF PUSH1 0x0 DUP5 DUP2 MSTORE PUSH1 0x4 PUSH1 0x20 MSTORE PUSH1 0x40 DUP2 KECCAK256 PUSH1 0x1 PUSH1 0x1 PUSH1 0x60 SHL SUB PUSH1 0xA0 SHL SWAP1 DUP2 DUP2 SLOAD AND SWAP1 SSTORE DUP4 DUP3 MSTORE PUSH1 0x3 PUSH1 0x20 MSTORE PUSH1 0x40 DUP3 KECCAK256 PUSH1 0x0 NOT DUP2 SLOAD ADD SWAP1 SSTORE DUP5 DUP3 MSTORE PUSH1 0x40 DUP3 KECCAK256 PUSH1 0x1 DUP2 SLOAD ADD SWAP1 SSTORE DUP6 DUP3 MSTORE PUSH1 0x2 PUSH1 0x20 MSTORE DUP5 PUSH1 0x40 DUP4 KECCAK256 SWAP2 DUP3 SLOAD AND OR SWAP1 SSTORE DUP1 LOG4 JUMP JUMPDEST POP DUP4 PUSH1 0x0 MSTORE PUSH1 0xD PUSH1 0x20 MSTORE PUSH1 0xFF PUSH1 0x2 PUSH1 0x40 PUSH1 0x0 KECCAK256 ADD SLOAD AND PUSH2 0x1B5B JUMPI DUP2 PUSH2 0x1AAC JUMP JUMPDEST PUSH1 0x40 MLOAD PUSH3 0x461BCD PUSH1 0xE5 SHL DUP2 MSTORE PUSH1 0x20 PUSH1 0x4 DUP3 ADD MSTORE PUSH1 0x21 PUSH1 0x24 DUP3 ADD MSTORE PUSH32 0x55736564207469636B65742063616E6E6F74206265207472616E736665727265 PUSH1 0x44 DUP3 ADD MSTORE PUSH1 0x19 PUSH1 0xFA SHL PUSH1 0x64 DUP3 ADD MSTORE PUSH1 0x84 SWAP1 REVERT JUMPDEST POP PUSH1 0x1 PUSH2 0x1AA7 JUMP JUMPDEST PUSH2 0x1BBB SWAP1 PUSH2 0x1738 JUMP JUMPDEST PUSH1 0x40 PUSH1 0x0 DUP8 DUP2 MSTORE PUSH1 0x6 PUSH1 0x20 MSTORE DUP2 DUP2 KECCAK256 DUP4 DUP3 MSTORE PUSH1 0x20 MSTORE DUP9 DUP3 DUP3 KECCAK256 SSTORE DUP9 DUP2 MSTORE PUSH1 0x7 PUSH1 0x20 MSTORE KECCAK256 SSTORE CODESIZE PUSH2 0x1A9F JUMP JUMPDEST DUP7 DUP3 SWAP5 SWAP3 SUB PUSH2 0x1BF5 JUMPI JUMPDEST POP PUSH2 0x1A97 JUMP JUMPDEST PUSH2 0x1C00 SWAP2 SWAP4 POP PUSH2 0x1738 JUMP JUMPDEST PUSH1 0x0 NOT DUP2 ADD SWAP3 SWAP1 DUP4 GT PUSH2 0x1C82 JUMPI DUP5 SWAP3 PUSH1 0x0 SWAP1 DUP9 DUP3 MSTORE PUSH1 0x20 SWAP1 PUSH1 0x7 DUP3 MSTORE PUSH1 0x40 SWAP2 DUP3 DUP5 KECCAK256 SLOAD DUP3 DUP2 SUB PUSH2 0x1C4B JUMPI JUMPDEST POP DUP11 DUP5 MSTORE DUP4 DUP4 DUP2 KECCAK256 SSTORE DUP7 DUP5 MSTORE PUSH1 0x6 DUP2 MSTORE DUP3 DUP5 KECCAK256 SWAP2 DUP5 MSTORE MSTORE DUP2 KECCAK256 SSTORE CODESIZE PUSH2 0x1BEF JUMP JUMPDEST DUP8 DUP6 MSTORE PUSH1 0x6 DUP3 MSTORE DUP4 DUP6 KECCAK256 DUP4 DUP7 MSTORE DUP3 MSTORE DUP4 DUP6 KECCAK256 SLOAD DUP9 DUP7 MSTORE PUSH1 0x6 DUP4 MSTORE DUP5 DUP7 KECCAK256 DUP3 DUP8 MSTORE DUP4 MSTORE DUP1 DUP6 DUP8 KECCAK256 SSTORE DUP6 MSTORE PUSH1 0x7 DUP3 MSTORE DUP4 DUP6 KECCAK256 SSTORE CODESIZE PUSH2 0x1C2B JUMP JUMPDEST PUSH4 0x4E487B71 PUSH1 0xE0 SHL PUSH1 0x0 MSTORE PUSH1 0x11 PUSH1 0x4 MSTORE PUSH1 0x24 PUSH1 0x0 REVERT JUMPDEST PUSH1 0x40 MLOAD PUSH3 0x461BCD PUSH1 0xE5 SHL DUP2 MSTORE PUSH1 0x20 PUSH1 0x4 DUP3 ADD MSTORE PUSH1 0x24 DUP1 DUP3 ADD MSTORE PUSH32 0x4552433732313A207472616E7366657220746F20746865207A65726F20616464 PUSH1 0x44 DUP3 ADD MSTORE PUSH4 0x72657373 PUSH1 0xE0 SHL PUSH1 0x64 DUP3 ADD MSTORE PUSH1 0x84 SWAP1 REVERT JUMPDEST SWAP3 SWAP4 SWAP2 SWAP1 DUP1 EXTCODESIZE ISZERO PUSH2 0x1DFC JUMPI PUSH2 0x1D3B SWAP5 PUSH1 0x40 MLOAD DUP1 SWAP3 PUSH4 0xA85BD01 PUSH1 0xE1 SHL SWAP5 DUP6 DUP4 MSTORE CALLER PUSH1 0x4 DUP5 ADD MSTORE PUSH1 0x1 DUP1 PUSH1 0xA0 SHL SUB DUP1 SWAP9 AND PUSH1 0x24 DUP5 ADD MSTORE PUSH1 0x44 DUP4 ADD MSTORE PUSH1 0x80 PUSH1 0x64 DUP4 ADD MSTORE DUP2 DUP1 PUSH1 0x20 SWAP10 DUP11 SWAP6 PUSH1 0x84 DUP4 ADD SWAP1 PUSH2 0x1631 JUMP JUMPDEST SUB SWAP2 PUSH1 0x0 SWAP9 DUP10 SWAP2 AND GAS CALL DUP5 SWAP2 DUP2 PUSH2 0x1DBC JUMPI JUMPDEST POP PUSH2 0x1DAB JUMPI POP POP POP RETURNDATASIZE PUSH1 0x0 EQ PUSH2 0x1DA3 JUMPI RETURNDATASIZE PUSH2 0x1D67 DUP2 PUSH2 0x15DE JUMP JUMPDEST SWAP1 PUSH2 0x1D75 PUSH1 0x40 MLOAD SWAP3 DUP4 PUSH2 0x15A6 JUMP JUMPDEST DUP2 MSTORE DUP1 SWAP2 DUP4 RETURNDATASIZE SWAP3 ADD RETURNDATACOPY JUMPDEST DUP1 MLOAD SWAP2 DUP3 PUSH2 0x1DA0 JUMPI PUSH1 0x40 MLOAD PUSH3 0x461BCD PUSH1 0xE5 SHL DUP2 MSTORE DUP1 PUSH2 0x1905 PUSH1 0x4 DUP3 ADD PUSH2 0x1909 JUMP JUMPDEST ADD REVERT JUMPDEST POP PUSH1 0x60 PUSH2 0x1D7F JUMP JUMPDEST PUSH1 0x1 PUSH1 0x1 PUSH1 0xE0 SHL SUB NOT AND EQ SWAP3 POP SWAP1 POP JUMP JUMPDEST SWAP1 SWAP2 POP DUP6 DUP2 DUP2 RETURNDATASIZE DUP4 GT PUSH2 0x1DF5 JUMPI JUMPDEST PUSH2 0x1DD4 DUP2 DUP4 PUSH2 0x15A6 JUMP JUMPDEST DUP2 ADD SUB SLT PUSH2 0x400 JUMPI MLOAD PUSH1 0x1 PUSH1 0x1 PUSH1 0xE0 SHL SUB NOT DUP2 AND DUP2 SUB PUSH2 0x400 JUMPI SWAP1 CODESIZE PUSH2 0x1D4D JUMP JUMPDEST POP RETURNDATASIZE PUSH2 0x1DCA JUMP JUMPDEST POP POP SWAP2 POP POP PUSH1 0x1 SWAP1 JUMP JUMPDEST PUSH1 0x8 SLOAD DUP2 LT ISZERO PUSH2 0x1E3D JUMPI PUSH1 0x8 PUSH1 0x0 MSTORE PUSH32 0xF3F7A9FE364FAAB93B216DA50A3214154F22A0A2B415B23A84C8169E8B636EE3 ADD SWAP1 PUSH1 0x0 SWAP1 JUMP JUMPDEST PUSH4 0x4E487B71 PUSH1 0xE0 SHL PUSH1 0x0 MSTORE PUSH1 0x32 PUSH1 0x4 MSTORE PUSH1 0x24 PUSH1 0x0 REVERT JUMPDEST ISZERO PUSH2 0x1E5A JUMPI JUMP JUMPDEST PUSH1 0x40 MLOAD PUSH3 0x461BCD PUSH1 0xE5 SHL DUP2 MSTORE PUSH1 0x20 PUSH1 0x4 DUP3 ADD MSTORE PUSH1 0x1C PUSH1 0x24 DUP3 ADD MSTORE PUSH32 0x4E6F7420617574686F72697A65643A204F6E6C7920666163746F727900000000 PUSH1 0x44 DUP3 ADD MSTORE PUSH1 0x64 SWAP1 REVERT JUMPDEST DUP2 DUP2 LT PUSH2 0x1EAA JUMPI POP POP JUMP JUMPDEST PUSH1 0x0 DUP2 SSTORE PUSH1 0x1 ADD PUSH2 0x1E9F JUMP JUMPDEST ISZERO PUSH2 0x1EBD JUMPI JUMP JUMPDEST PUSH1 0x40 MLOAD PUSH3 0x461BCD PUSH1 0xE5 SHL DUP2 MSTORE PUSH1 0x20 PUSH1 0x4 DUP3 ADD MSTORE PUSH1 0x1C PUSH1 0x24 DUP3 ADD MSTORE PUSH32 0x4552433732313A20746F6B656E20616C7265616479206D696E74656400000000 PUSH1 0x44 DUP3 ADD MSTORE PUSH1 0x64 SWAP1 REVERT INVALID LOG2 PUSH5 0x6970667358 0x22 SLT KECCAK256 0x5D 0xF8 0x5E CALLDATALOAD 0x5C 0xBC 0xA7 0xE1 0xBC SWAP14 PUSH6 0x331EBE9C1F85 0xE9 PUSH2 0xF579 0xA5 LOG3 DUP7 SAR 0xCE SWAP1 BALANCE 0x22 MUL 0x22 0xE1 PUSH5 0x736F6C6343 STOP ADDMOD EQ STOP CALLER "},"methodIdentifiers":{"approve(address,uint256)":"095ea7b3","balanceOf(address)":"70a08231","burnTicket(uint256)":"a476b73d","eventFactory()":"6fdbd3f6","getApproved(uint256)":"081812fc","getTicketEventId(uint256)":"7510cfaf","isApprovedForAll(address,address)":"e985e9c5","isTicketUsed(uint256)":"2cd1d35c","mintTicket(address,uint256,string)":"03543fea","name()":"06fdde03","owner()":"8da5cb5b","ownerOf(uint256)":"6352211e","renounceOwnership()":"715018a6","safeTransferFrom(address,address,uint256)":"42842e0e","safeTransferFrom(address,address,uint256,bytes)":"b88d4fde","setApprovalForAll(address,bool)":"a22cb465","supportsInterface(bytes4)":"01ffc9a7","symbol()":"95d89b41","tickets(uint256)":"50b44712","tokenByIndex(uint256)":"4f6ccce7","tokenOfOwnerByIndex(address,uint256)":"2f745c59","tokenURI(uint256)":"c87b56dd","totalSupply()":"18160ddd","transferFrom(address,address,uint256)":"23b872dd","transferOwnership(address)":"f2fde38b","useTicket(uint256)":"26606448"}},"storageLayout":{"storage":[{"astId":1539,"contract":"contracts/TicketNFT.sol:TicketNFT","label":"_name","offset":0,"slot":"0","type":"t_string_storage"},{"astId":1541,"contract":"contracts/TicketNFT.sol:TicketNFT","label":"_symbol","offset":0,"slot":"1","type":"t_string_storage"},{"astId":1545,"contract":"contracts/TicketNFT.sol:TicketNFT","label":"_owners","offset":0,"slot":"2","type":"t_mapping(t_uint256,t_address)"},{"astId":1549,"contract":"contracts/TicketNFT.sol:TicketNFT","label":"_balances","offset":0,"slot":"3","type":"t_mapping(t_address,t_uint256)"},{"astId":1553,"contract":"contracts/TicketNFT.sol:TicketNFT","label":"_tokenApprovals","offset":0,"slot":"4","type":"t_mapping(t_uint256,t_address)"},{"astId":1559,"contract":"contracts/TicketNFT.sol:TicketNFT","label":"_operatorApprovals","offset":0,"slot":"5","type":"t_mapping(t_address,t_mapping(t_address,t_bool))"},{"astId":2589,"contract":"contracts/TicketNFT.sol:TicketNFT","label":"_ownedTokens","offset":0,"slot":"6","type":"t_mapping(t_address,t_mapping(t_uint256,t_uint256))"},{"astId":2593,"contract":"contracts/TicketNFT.sol:TicketNFT","label":"_ownedTokensIndex","offset":0,"slot":"7","type":"t_mapping(t_uint256,t_uint256)"},{"astId":2596,"contract":"contracts/TicketNFT.sol:TicketNFT","label":"_allTokens","offset":0,"slot":"8","type":"t_array(t_uint256)dyn_storage"},{"astId":2600,"contract":"contracts/TicketNFT.sol:TicketNFT","label":"_allTokensIndex","offset":0,"slot":"9","type":"t_mapping(t_uint256,t_uint256)"},{"astId":7,"contract":"contracts/TicketNFT.sol:TicketNFT","label":"_owner","offset":0,"slot":"10","type":"t_address"},{"astId":5499,"contract":"contracts/TicketNFT.sol:TicketNFT","label":"_tokenIds","offset":0,"slot":"11","type":"t_struct(Counter)3344_storage"},{"astId":5502,"contract":"contracts/TicketNFT.sol:TicketNFT","label":"eventFactory","offset":0,"slot":"12","type":"t_contract(EventFactory)5192"},{"astId":5514,"contract":"contracts/TicketNFT.sol:TicketNFT","label":"tickets","offset":0,"slot":"13","type":"t_mapping(t_uint256,t_struct(Ticket)5509_storage)"}],"types":{"t_address":{"encoding":"inplace","label":"address","numberOfBytes":"20"},"t_array(t_uint256)dyn_storage":{"base":"t_uint256","encoding":"dynamic_array","label":"uint256[]","numberOfBytes":"32"},"t_bool":{"encoding":"inplace","label":"bool","numberOfBytes":"1"},"t_contract(EventFactory)5192":{"encoding":"inplace","label":"contract EventFactory","numberOfBytes":"20"},"t_mapping(t_address,t_bool)":{"encoding":"mapping","key":"t_address","label":"mapping(address => bool)","numberOfBytes":"32","value":"t_bool"},"t_mapping(t_address,t_mapping(t_address,t_bool))":{"encoding":"mapping","key":"t_address","label":"mapping(address => mapping(address => bool))","numberOfBytes":"32","value":"t_mapping(t_address,t_bool)"},"t_mapping(t_address,t_mapping(t_uint256,t_uint256))":{"encoding":"mapping","key":"t_address","label":"mapping(address => mapping(uint256 => uint256))","numberOfBytes":"32","value":"t_mapping(t_uint256,t_uint256)"},"t_mapping(t_address,t_uint256)":{"encoding":"mapping","key":"t_address","label":"mapping(address => uint256)","numberOfBytes":"32","value":"t_uint256"},"t_mapping(t_uint256,t_address)":{"encoding":"mapping","key":"t_uint256","label":"mapping(uint256 => address)","numberOfBytes":"32","value":"t_address"},"t_mapping(t_uint256,t_struct(Ticket)5509_storage)":{"encoding":"mapping","key":"t_uint256","label":"mapping(uint256 => struct TicketNFT.Ticket)","numberOfBytes":"32","value":"t_struct(Ticket)5509_storage"},"t_mapping(t_uint256,t_uint256)":{"encoding":"mapping","key":"t_uint256","label":"mapping(uint256 => uint256)","numberOfBytes":"32","value":"t_uint256"},"t_string_storage":{"encoding":"bytes","label":"string","numberOfBytes":"32"},"t_struct(Counter)3344_storage":{"encoding":"inplace","label":"struct Counters.Counter","members":[{"astId":3343,"contract":"contracts/TicketNFT.sol:TicketNFT","label":"_value","offset":0,"slot":"0","type":"t_uint256"}],"numberOfBytes":"32"},"t_struct(Ticket)5509_storage":{"encoding":"inplace","label":"struct TicketNFT.Ticket","members":[{"astId":5504,"contract":"contracts/TicketNFT.sol:TicketNFT","label":"eventId","offset":0,"slot":"0","type":"t_uint256"},{"astId":5506,"contract":"contracts/TicketNFT.sol:TicketNFT","label":"ipfsCID","offset":0,"slot":"1","type":"t_string_storage"},{"astId":5508,"contract":"contracts/TicketNFT.sol:TicketNFT","label":"used","offset":0,"slot":"2","type":"t_bool"}],"numberOfBytes":"96"},"t_uint256":{"encoding":"inplace","label":"uint256","numberOfBytes":"32"}}}}}}