{"contracts/POAPDistributor.sol":{"POAPDistributor":{"abi":[{"inputs":[{"internalType":"address","name":"ticketAddress","type":"address"}],"stateMutability":"nonpayable","type":"constructor"},{"anonymous":false,"inputs":[{"indexed":true,"internalType":"address","name":"account","type":"address"},{"indexed":true,"internalType":"address","name":"operator","type":"address"},{"indexed":false,"internalType":"bool","name":"approved","type":"bool"}],"name":"ApprovalForAll","type":"event"},{"anonymous":false,"inputs":[{"indexed":true,"internalType":"address","name":"previousOwner","type":"address"},{"indexed":true,"internalType":"address","name":"newOwner","type":"address"}],"name":"OwnershipTransferred","type":"event"},{"anonymous":false,"inputs":[{"indexed":true,"internalType":"uint256","name":"eventId","type":"uint256"},{"indexed":true,"internalType":"address","name":"attendee","type":"address"}],"name":"POAPMinted","type":"event"},{"anonymous":false,"inputs":[{"indexed":true,"internalType":"address","name":"operator","type":"address"},{"indexed":true,"internalType":"address","name":"from","type":"address"},{"indexed":true,"internalType":"address","name":"to","type":"address"},{"indexed":false,"internalType":"uint256[]","name":"ids","type":"uint256[]"},{"indexed":false,"internalType":"uint256[]","name":"values","type":"uint256[]"}],"name":"TransferBatch","type":"event"},{"anonymous":false,"inputs":[{"indexed":true,"internalType":"address","name":"operator","type":"address"},{"indexed":true,"internalType":"address","name":"from","type":"address"},{"indexed":true,"internalType":"address","name":"to","type":"address"},{"indexed":false,"internalType":"uint256","name":"id","type":"uint256"},{"indexed":false,"internalType":"uint256","name":"value","type":"uint256"}],"name":"TransferSingle","type":"event"},{"anonymous":false,"inputs":[{"indexed":false,"internalType":"string","name":"value","type":"string"},{"indexed":true,"internalType":"uint256","name":"id","type":"uint256"}],"name":"URI","type":"event"},{"inputs":[{"internalType":"address","name":"account","type":"address"},{"internalType":"uint256","name":"id","type":"uint256"}],"name":"balanceOf","outputs":[{"internalType":"uint256","name":"","type":"uint256"}],"stateMutability":"view","type":"function"},{"inputs":[{"internalType":"address[]","name":"accounts","type":"address[]"},{"internalType":"uint256[]","name":"ids","type":"uint256[]"}],"name":"balanceOfBatch","outputs":[{"internalType":"uint256[]","name":"","type":"uint256[]"}],"stateMutability":"view","type":"function"},{"inputs":[{"internalType":"uint256","name":"eventId","type":"uint256"}],"name":"claimPOAP","outputs":[],"stateMutability":"nonpayable","type":"function"},{"inputs":[{"internalType":"uint256","name":"eventId","type":"uint256"},{"internalType":"address","name":"attendee","type":"address"}],"name":"hasClaimed","outputs":[{"internalType":"bool","name":"","type":"bool"}],"stateMutability":"view","type":"function"},{"inputs":[{"internalType":"address","name":"account","type":"address"},{"internalType":"address","name":"operator","type":"address"}],"name":"isApprovedForAll","outputs":[{"internalType":"bool","name":"","type":"bool"}],"stateMutability":"view","type":"function"},{"inputs":[{"internalType":"address","name":"attendee","type":"address"},{"internalType":"uint256","name":"eventId","type":"uint256"}],"name":"isVerifiedAttendee","outputs":[{"internalType":"bool","name":"","type":"bool"}],"stateMutability":"view","type":"function"},{"inputs":[],"name":"owner","outputs":[{"internalType":"address","name":"","type":"address"}],"stateMutability":"view","type":"function"},{"inputs":[],"name":"renounceOwnership","outputs":[],"stateMutability":"nonpayable","type":"function"},{"inputs":[{"internalType":"address","name":"from","type":"address"},{"internalType":"address","name":"to","type":"address"},{"internalType":"uint256[]","name":"ids","type":"uint256[]"},{"internalType":"uint256[]","name":"amounts","type":"uint256[]"},{"internalType":"bytes","name":"data","type":"bytes"}],"name":"safeBatchTransferFrom","outputs":[],"stateMutability":"nonpayable","type":"function"},{"inputs":[{"internalType":"address","name":"from","type":"address"},{"internalType":"address","name":"to","type":"address"},{"internalType":"uint256","name":"id","type":"uint256"},{"internalType":"uint256","name":"amount","type":"uint256"},{"internalType":"bytes","name":"data","type":"bytes"}],"name":"safeTransferFrom","outputs":[],"stateMutability":"nonpayable","type":"function"},{"inputs":[{"internalType":"address","name":"operator","type":"address"},{"internalType":"bool","name":"approved","type":"bool"}],"name":"setApprovalForAll","outputs":[],"stateMutability":"nonpayable","type":"function"},{"inputs":[{"internalType":"uint256","name":"eventId","type":"uint256"},{"internalType":"string","name":"tokenURI","type":"string"}],"name":"setEventURI","outputs":[],"stateMutability":"nonpayable","type":"function"},{"inputs":[{"internalType":"bytes4","name":"interfaceId","type":"bytes4"}],"name":"supportsInterface","outputs":[{"internalType":"bool","name":"","type":"bool"}],"stateMutability":"view","type":"function"},{"inputs":[],"name":"ticketContract","outputs":[{"internalType":"contract TicketNFT","name":"","type":"address"}],"stateMutability":"view","type":"function"},{"inputs":[{"internalType":"address","name":"newOwner","type":"address"}],"name":"transferOwnership","outputs":[],"stateMutability":"nonpayable","type":"function"},{"inputs":[{"internalType":"uint256","name":"eventId","type":"uint256"}],"name":"uri","outputs":[{"internalType":"string","name":"","type":"string"}],"stateMutability":"view","type":"function"}],"evm":{"bytecode":{"linkReferences":{},"object":"60803462000177576001600160401b0390601f62001aaf38819003918201601f19168301918483118484101762000161578084926020946040528339810103126200017757516001600160a01b0391828216918290036200017757604051906020820190811182821017620001615760405260008091526002546001908181811c9116801562000156575b60208210146200014257601f8111620000f8575b50508060025560035460018060a01b03199133838316176003557f8be0079c531659141344cd1fd0a4f28419497f9722a3daafe3b4186f6b6457e0604051953393169180a3600454161760045561193290816200017d8239f35b60028352601f0160051c7f405787fa12a823e0f2b7631cc41b3ba8828b3321ca811111fa75cd3aa3bb5ace908101905b8181106200013757506200009e565b838155820162000128565b634e487b7160e01b83526022600452602483fd5b90607f16906200008a565b634e487b7160e01b600052604160045260246000fd5b600080fdfe6040608081526004908136101561001557600080fd5b600091823560e01c8062fdd58e146110da57806301ffc9a71461106d5780630e89341c14610f5a57806316d35d7114610def5780632eb2c2d614610ad45780634e1273f41461093357806358a86e1d1461090c578063715018a6146108ac578063873f6f9e146108665780638da5cb5b1461083d5780639365fc8714610568578063a22cb46514610487578063e985e9c514610439578063ef04934114610403578063f242432a1461019e5763f2fde38b146100d057600080fd5b3461019a57602036600319011261019a576100e961110a565b906100f26112de565b6001600160a01b03918216928315610148575050600354826bffffffffffffffffffffffff60a01b821617600355167f8be0079c531659141344cd1fd0a4f28419497f9722a3daafe3b4186f6b6457e08380a380f35b906020608492519162461bcd60e51b8352820152602660248201527f4f776e61626c653a206e6577206f776e657220697320746865207a65726f206160448201526564647265737360d01b6064820152fd5b8280fd5b503461019a5760a036600319011261019a576101b861110a565b916101c1611125565b92604435906064359060843567ffffffffffffffff81116103ff576101e9903690870161128c565b926001600160a01b039182169133831480156103e0575b61020990611417565b87169161021783151561147a565b6102208261168b565b5061022a8461168b565b50818952602097898952868a20828b52895284878b205461024d828210156114d4565b848c528b8b52888c20848d528b5203878b2055828a52898952868a20848b528952868a2061027c868254611533565b905583828851858152878c8201527fc3d58168c5ae7397731d063d5bbf3d657854427343f4c083240f7aacaa2d0f628a3392a43b6102b8578880f35b918697989596949391868a946103018a519788968795869463f23a6e6160e01b9c8d8752339087015260248601526044850152606484015260a0608484015260a483019061113b565b03925af18391816103b1575b506103765750505061031d6115a9565b6308c379a014610345575b5162461bcd60e51b815291508190610341908201611636565b0390fd5b61034d6115c7565b806103585750610328565b610341915193849362461bcd60e51b8552840152602483019061113b565b9194506001600160e01b03199091160361039857505038808080808080808880f35b5162461bcd60e51b815291508190610341908201611560565b6103d2919250873d89116103d9575b6103ca81836111ad565b810190611540565b903861030d565b503d6103c0565b5082895260016020908152868a20338b5290528589205460ff16610200565b8780fd5b50503461043557806003193601126104355760209061042c61042361110a565b602435906116ea565b90519015158152f35b5080fd5b50503461043557806003193601126104355760ff8160209361045961110a565b610461611125565b6001600160a01b0391821683526001875283832091168252855220549151911615158152f35b50903461019a578060031936011261019a576104a161110a565b9060243591821515809303610564576001600160a01b0316923384146105105750338452600160205280842083855260205280842060ff1981541660ff8416179055519081527f17307eab39ab6107e8899845ad3d59bd9653f200f220920489ca2b5937696c3160203392a380f35b6020608492519162461bcd60e51b8352820152602960248201527f455243313135353a2073657474696e6720617070726f76616c20737461747573604482015268103337b91039b2b63360b91b6064820152fd5b8480fd5b50919034610435576020908160031936011261019a5783359182845260058152818420338552815260ff8285205416610804576105a583336116ea565b156107c25781519481860186811067ffffffffffffffff8211176107af5783528486523315610764578394956105dd6105fc9561168b565b5083516105e98161117b565b60019581878093528536818301376113e0565b5285875286835283872033885283528387208054908682018092116107515755835186815285848201528733917fc3d58168c5ae7397731d063d5bbf3d657854427343f4c083240f7aacaa2d0f62873392a4333b61069b575b505083855260058152818520903386525283209060ff1982541617905533907f5ddca7d5809a6830dda8f5547a130099be44f5e1f6ab4773cbe795c10c0f605e8380a380f35b83949195929693518781806106dd63f23a6e6160e01b95868352338c84015289602484015288604484015287606484015260a0608484015260a483019061113b565b038188335af1859181610732575b506106fb5787878761031d6115a9565b939692959194936001600160e01b0319160361071957503880610655565b825162461bcd60e51b8152908190610341908201611560565b61074a919250893d8b116103d9576103ca81836111ad565b90386106eb565b634e487b7160e01b895260118452602489fd5b915162461bcd60e51b815291820152602160248201527f455243313135353a206d696e7420746f20746865207a65726f206164647265736044820152607360f81b6064820152608490fd5b634e487b7160e01b865260418252602486fd5b8490606492519162461bcd60e51b8352820152601760248201527f4e6f74206120766572696669656420617474656e6465650000000000000000006044820152fd5b8490606492519162461bcd60e51b835282015260146024820152731413d05408185b1c9958591e4818db185a5b595960621b6044820152fd5b50503461043557816003193601126104355760035490516001600160a01b039091168152602090f35b503461019a578160031936011261019a578160209360ff92610886611125565b90358252600586528282206001600160a01b039091168252855220549151911615158152f35b83346109095780600319360112610909576108c56112de565b600380546001600160a01b0319811690915581906001600160a01b03167f8be0079c531659141344cd1fd0a4f28419497f9722a3daafe3b4186f6b6457e08280a380f35b80fd5b503461019a578260031936011261019a575490516001600160a01b03909116815260209150f35b503461019a578160031936011261019a57803567ffffffffffffffff808211610564573660238301121561056457818301359061096f82611216565b9261097c865194856111ad565b82845260209260248486019160051b83010191368311610ad057602401905b828210610aad57505050602435908111610aa9576109bc903690850161122e565b928251845103610a5657508151946109d386611216565b956109e0865197886111ad565b8087526109ef601f1991611216565b0136838801375b8251811015610a4057610a3b90610a2b6001600160a01b03610a188387611403565b5116610a248388611403565b5190611336565b610a358289611403565b526113bb565b6109f6565b845182815280610a52818501896112aa565b0390f35b60849185519162461bcd60e51b8352820152602960248201527f455243313135353a206163636f756e747320616e6420696473206c656e677468604482015268040dad2e6dac2e8c6d60bb1b6064820152fd5b8580fd5b81356001600160a01b0381168103610acc57815290840190840161099b565b8980fd5b8880fd5b508234610909576003199260a03685011261043557610af161110a565b91610afa611125565b9467ffffffffffffffff93604435858111610deb57610b1c903690880161122e565b60643586811161056457610b33903690890161122e565b9560843590811161056457610b4b903690890161128c565b966001600160a01b03928316923384148015610dcc575b610b6b90611417565b8251885103610d7857891693610b8285151561147a565b855b8351811015610c065780610b9b610c019286611403565b51610ba6828c611403565b5190808a526020908a82528b8b20898c528252828c8c8b8282205492610bce858510156114d4565b858352828752822091528452038c8c20558a528981528a8a2090898b5252610bfa8a8a20918254611533565b90556113bb565b610b84565b50949897909692959784878a518b81527f4a39dc06d4c0dbc64b70af90fd698a233a518aa5d07e595d983b8c0526c8f7fb610c438d8301886112aa565b91808303602082015280610c5833948b6112aa565b0390a43b610c64578880f35b8798969751948593849363bc197c8160e01b98898652338c87015260248601526044850160a0905260a48501610c99916112aa565b82858203016064860152610cac916112aa565b90838203016084840152610cbf9161113b565b0381865a94602095f1839181610d58575b50610d3857505050610ce06115a9565b6308c379a014610d04575b905162461bcd60e51b8152908190610341908201611636565b610d0c6115c7565b80610d175750610ceb565b610341906020935193849362461bcd60e51b8552840152602483019061113b565b9193916001600160e01b0319160361039857505081808080808080808880f35b610d7191925060203d81116103d9576103ca81836111ad565b9086610cd0565b865162461bcd60e51b8152602081840152602860248201527f455243313135353a2069647320616e6420616d6f756e7473206c656e677468206044820152670dad2e6dac2e8c6d60c31b6064820152608490fd5b508386526001602090815287872033885290528686205460ff16610b62565b8380fd5b5082903461043557826003193601126104355767ffffffffffffffff602435818111610deb5736602382011215610deb57610e3390369060248186013591016111cf565b93610e3c6112de565b82358452602090600682528420928551928311610f475750610e5e83546116b0565b601f8111610f04575b5080601f8311600114610ea25750839482939492610e97575b50508160011b916000199060031b1c191617905580f35b015190508480610e80565b90601f198316958486528286209286905b888210610eec57505083600195969710610ed3575b505050811b01905580f35b015160001960f88460031b161c19169055848080610ec8565b80600185968294968601518155019501930190610eb3565b838552818520601f840160051c810191838510610f3d575b601f0160051c01905b818110610f325750610e67565b858155600101610f25565b9091508190610f1c565b634e487b7160e01b855260419052602484fd5b50903461019a5760209182600319360112610deb578035845260068352818420825185819690835490610f8c826116b0565b9485855260019289848216918260001461104957505060011461100d575b505050610fb9925003856111ad565b835115610fd45750610a52905192828493845283019061113b565b82606492519162461bcd60e51b83528201526015602482015274155492481b9bdd081cd95d08199bdc88195d995b9d605a1b6044820152fd5b889350819291528282205b858310611031575050610fb99350820101388080610faa565b8054838b018501528994508893909201918101611018565b935094505050610fb994915060ff191682840152151560051b820101388080610faa565b503461019a57602036600319011261019a57359063ffffffff60e01b821680920361019a5760209250636cdb3d1360e11b82149182156110c9575b82156110b8575b50519015158152f35b6301ffc9a760e01b149150386110af565b6303a24d0760e21b811492506110a8565b5050346104355780600319360112610435576020906111036110fa61110a565b60243590611336565b9051908152f35b600435906001600160a01b038216820361112057565b600080fd5b602435906001600160a01b038216820361112057565b919082519283825260005b848110611167575050826000602080949584010152601f8019910116010190565b602081830181015184830182015201611146565b6040810190811067ffffffffffffffff82111761119757604052565b634e487b7160e01b600052604160045260246000fd5b90601f8019910116810190811067ffffffffffffffff82111761119757604052565b92919267ffffffffffffffff821161119757604051916111f9601f8201601f1916602001846111ad565b829481845281830111611120578281602093846000960137010152565b67ffffffffffffffff81116111975760051b60200190565b81601f820112156111205780359161124583611216565b9261125360405194856111ad565b808452602092838086019260051b820101928311611120578301905b82821061127d575050505090565b8135815290830190830161126f565b9080601f83011215611120578160206112a7933591016111cf565b90565b90815180825260208080930193019160005b8281106112ca575050505090565b8351855293810193928101926001016112bc565b6003546001600160a01b031633036112f257565b606460405162461bcd60e51b815260206004820152602060248201527f4f776e61626c653a2063616c6c6572206973206e6f7420746865206f776e65726044820152fd5b6001600160a01b031690811561136357600052600060205260406000209060005260205260406000205490565b60405162461bcd60e51b815260206004820152602a60248201527f455243313135353a2061646472657373207a65726f206973206e6f742061207660448201526930b634b21037bbb732b960b11b6064820152608490fd5b60001981146113ca5760010190565b634e487b7160e01b600052601160045260246000fd5b8051156113ed5760200190565b634e487b7160e01b600052603260045260246000fd5b80518210156113ed5760209160051b010190565b1561141e57565b60405162461bcd60e51b815260206004820152602e60248201527f455243313135353a2063616c6c6572206973206e6f7420746f6b656e206f776e60448201526d195c881bdc88185c1c1c9bdd995960921b6064820152608490fd5b1561148157565b60405162461bcd60e51b815260206004820152602560248201527f455243313135353a207472616e7366657220746f20746865207a65726f206164604482015264647265737360d81b6064820152608490fd5b156114db57565b60405162461bcd60e51b815260206004820152602a60248201527f455243313135353a20696e73756666696369656e742062616c616e636520666f60448201526939103a3930b739b332b960b11b6064820152608490fd5b919082018092116113ca57565b9081602091031261112057516001600160e01b0319811681036111205790565b60809060208152602860208201527f455243313135353a204552433131353552656365697665722072656a656374656040820152676420746f6b656e7360c01b60608201520190565b60009060033d116115b657565b905060046000803e60005160e01c90565b600060443d106112a757604051600319913d83016004833e815167ffffffffffffffff918282113d6024840111176116255781840194855193841161162d573d8501016020848701011161162557506112a7929101602001906111ad565b949350505050565b50949350505050565b60809060208152603460208201527f455243313135353a207472616e7366657220746f206e6f6e2d455243313135356040820152732932b1b2b4bb32b91034b6b83632b6b2b73a32b960611b60608201520190565b604051906116988261117b565b60018252602036818401376116ac826113e0565b5290565b90600182811c921680156116e0575b60208310146116ca57565b634e487b7160e01b600052602260045260246000fd5b91607f16916116bf565b9060018060a01b03906004828154166040938451956370a0823160e01b8752168083870152602090602482888281875afa9788156118f1576000986118c2575b5087156118b55760005b88811061174957505050505050505050600090565b8751632f745c5960e01b8152838782015281838201528481604481895afa9081156118aa5760009161187d575b508851637510cfaf60e01b8152878101829052858185818a5afa6000918161184e575b506117ae5750506117a9906113bb565b611734565b895191630b3474d760e21b835288830152858285818a5afa91821561184357908991600093611806575b501490816117fd575b506117ef576117a9906113bb565b505050505050505050600190565b905015386117e1565b909291508681813d831161183c575b61181f81836111ad565b8101031261043557519081151582036109095750889091386117d8565b503d611815565b8a513d6000823e3d90fd5b90918782813d8311611876575b61186581836111ad565b810103126109095750519038611799565b503d61185b565b908582813d83116118a3575b61189381836111ad565b8101031261090957505138611776565b503d611889565b89513d6000823e3d90fd5b5050505050505050600090565b90978382813d83116118ea575b6118d981836111ad565b81010312610909575051963861172a565b503d6118cf565b87513d6000823e3d90fdfea26469706673582212202cd912947d72ff08c84e7be9897a91b74a5ef2ecb0163989c7e7b1c8c44f12f664736f6c63430008140033","opcodes":"PUSH1 0x80 CALLVALUE PUSH3 0x177 JUMPI PUSH1 0x1 PUSH1 0x1 PUSH1 0x40 SHL SUB SWAP1 PUSH1 0x1F PUSH3 0x1AAF CODESIZE DUP2 SWAP1 SUB SWAP2 DUP3 ADD PUSH1 0x1F NOT AND DUP4 ADD SWAP2 DUP5 DUP4 GT DUP5 DUP5 LT OR PUSH3 0x161 JUMPI DUP1 DUP5 SWAP3 PUSH1 0x20 SWAP5 PUSH1 0x40 MSTORE DUP4 CODECOPY DUP2 ADD SUB SLT PUSH3 0x177 JUMPI MLOAD PUSH1 0x1 PUSH1 0x1 PUSH1 0xA0 SHL SUB SWAP2 DUP3 DUP3 AND SWAP2 DUP3 SWAP1 SUB PUSH3 0x177 JUMPI PUSH1 0x40 MLOAD SWAP1 PUSH1 0x20 DUP3 ADD SWAP1 DUP2 GT DUP3 DUP3 LT OR PUSH3 0x161 JUMPI PUSH1 0x40 MSTORE PUSH1 0x0 DUP1 SWAP2 MSTORE PUSH1 0x2 SLOAD PUSH1 0x1 SWAP1 DUP2 DUP2 DUP2 SHR SWAP2 AND DUP1 ISZERO PUSH3 0x156 JUMPI JUMPDEST PUSH1 0x20 DUP3 LT EQ PUSH3 0x142 JUMPI PUSH1 0x1F DUP2 GT PUSH3 0xF8 JUMPI JUMPDEST POP POP DUP1 PUSH1 0x2 SSTORE PUSH1 0x3 SLOAD PUSH1 0x1 DUP1 PUSH1 0xA0 SHL SUB NOT SWAP2 CALLER DUP4 DUP4 AND OR PUSH1 0x3 SSTORE PUSH32 0x8BE0079C531659141344CD1FD0A4F28419497F9722A3DAAFE3B4186F6B6457E0 PUSH1 0x40 MLOAD SWAP6 CALLER SWAP4 AND SWAP2 DUP1 LOG3 PUSH1 0x4 SLOAD AND OR PUSH1 0x4 SSTORE PUSH2 0x1932 SWAP1 DUP2 PUSH3 0x17D DUP3 CODECOPY RETURN JUMPDEST PUSH1 0x2 DUP4 MSTORE PUSH1 0x1F ADD PUSH1 0x5 SHR PUSH32 0x405787FA12A823E0F2B7631CC41B3BA8828B3321CA811111FA75CD3AA3BB5ACE SWAP1 DUP2 ADD SWAP1 JUMPDEST DUP2 DUP2 LT PUSH3 0x137 JUMPI POP PUSH3 0x9E JUMP JUMPDEST DUP4 DUP2 SSTORE DUP3 ADD PUSH3 0x128 JUMP JUMPDEST PUSH4 0x4E487B71 PUSH1 0xE0 SHL DUP4 MSTORE PUSH1 0x22 PUSH1 0x4 MSTORE PUSH1 0x24 DUP4 REVERT JUMPDEST SWAP1 PUSH1 0x7F AND SWAP1 PUSH3 0x8A JUMP JUMPDEST PUSH4 0x4E487B71 PUSH1 0xE0 SHL PUSH1 0x0 MSTORE PUSH1 0x41 PUSH1 0x4 MSTORE PUSH1 0x24 PUSH1 0x0 REVERT JUMPDEST PUSH1 0x0 DUP1 REVERT INVALID PUSH1 0x40 PUSH1 0x80 DUP2 MSTORE PUSH1 0x4 SWAP1 DUP2 CALLDATASIZE LT ISZERO PUSH2 0x15 JUMPI PUSH1 0x0 DUP1 REVERT JUMPDEST PUSH1 0x0 SWAP2 DUP3 CALLDATALOAD PUSH1 0xE0 SHR DUP1 PUSH3 0xFDD58E EQ PUSH2 0x10DA JUMPI DUP1 PUSH4 0x1FFC9A7 EQ PUSH2 0x106D JUMPI DUP1 PUSH4 0xE89341C EQ PUSH2 0xF5A JUMPI DUP1 PUSH4 0x16D35D71 EQ PUSH2 0xDEF JUMPI DUP1 PUSH4 0x2EB2C2D6 EQ PUSH2 0xAD4 JUMPI DUP1 PUSH4 0x4E1273F4 EQ PUSH2 0x933 JUMPI DUP1 PUSH4 0x58A86E1D EQ PUSH2 0x90C JUMPI DUP1 PUSH4 0x715018A6 EQ PUSH2 0x8AC JUMPI DUP1 PUSH4 0x873F6F9E EQ PUSH2 0x866 JUMPI DUP1 PUSH4 0x8DA5CB5B EQ PUSH2 0x83D JUMPI DUP1 PUSH4 0x9365FC87 EQ PUSH2 0x568 JUMPI DUP1 PUSH4 0xA22CB465 EQ PUSH2 0x487 JUMPI DUP1 PUSH4 0xE985E9C5 EQ PUSH2 0x439 JUMPI DUP1 PUSH4 0xEF049341 EQ PUSH2 0x403 JUMPI DUP1 PUSH4 0xF242432A EQ PUSH2 0x19E JUMPI PUSH4 0xF2FDE38B EQ PUSH2 0xD0 JUMPI PUSH1 0x0 DUP1 REVERT JUMPDEST CALLVALUE PUSH2 0x19A JUMPI PUSH1 0x20 CALLDATASIZE PUSH1 0x3 NOT ADD SLT PUSH2 0x19A JUMPI PUSH2 0xE9 PUSH2 0x110A JUMP JUMPDEST SWAP1 PUSH2 0xF2 PUSH2 0x12DE JUMP JUMPDEST PUSH1 0x1 PUSH1 0x1 PUSH1 0xA0 SHL SUB SWAP2 DUP3 AND SWAP3 DUP4 ISZERO PUSH2 0x148 JUMPI POP POP PUSH1 0x3 SLOAD DUP3 PUSH12 0xFFFFFFFFFFFFFFFFFFFFFFFF PUSH1 0xA0 SHL DUP3 AND OR PUSH1 0x3 SSTORE AND PUSH32 0x8BE0079C531659141344CD1FD0A4F28419497F9722A3DAAFE3B4186F6B6457E0 DUP4 DUP1 LOG3 DUP1 RETURN JUMPDEST SWAP1 PUSH1 0x20 PUSH1 0x84 SWAP3 MLOAD SWAP2 PUSH3 0x461BCD PUSH1 0xE5 SHL DUP4 MSTORE DUP3 ADD MSTORE PUSH1 0x26 PUSH1 0x24 DUP3 ADD MSTORE PUSH32 0x4F776E61626C653A206E6577206F776E657220697320746865207A65726F2061 PUSH1 0x44 DUP3 ADD MSTORE PUSH6 0x646472657373 PUSH1 0xD0 SHL PUSH1 0x64 DUP3 ADD MSTORE REVERT JUMPDEST DUP3 DUP1 REVERT JUMPDEST POP CALLVALUE PUSH2 0x19A JUMPI PUSH1 0xA0 CALLDATASIZE PUSH1 0x3 NOT ADD SLT PUSH2 0x19A JUMPI PUSH2 0x1B8 PUSH2 0x110A JUMP JUMPDEST SWAP2 PUSH2 0x1C1 PUSH2 0x1125 JUMP JUMPDEST SWAP3 PUSH1 0x44 CALLDATALOAD SWAP1 PUSH1 0x64 CALLDATALOAD SWAP1 PUSH1 0x84 CALLDATALOAD PUSH8 0xFFFFFFFFFFFFFFFF DUP2 GT PUSH2 0x3FF JUMPI PUSH2 0x1E9 SWAP1 CALLDATASIZE SWAP1 DUP8 ADD PUSH2 0x128C JUMP JUMPDEST SWAP3 PUSH1 0x1 PUSH1 0x1 PUSH1 0xA0 SHL SUB SWAP2 DUP3 AND SWAP2 CALLER DUP4 EQ DUP1 ISZERO PUSH2 0x3E0 JUMPI JUMPDEST PUSH2 0x209 SWAP1 PUSH2 0x1417 JUMP JUMPDEST DUP8 AND SWAP2 PUSH2 0x217 DUP4 ISZERO ISZERO PUSH2 0x147A JUMP JUMPDEST PUSH2 0x220 DUP3 PUSH2 0x168B JUMP JUMPDEST POP PUSH2 0x22A DUP5 PUSH2 0x168B JUMP JUMPDEST POP DUP2 DUP10 MSTORE PUSH1 0x20 SWAP8 DUP10 DUP10 MSTORE DUP7 DUP11 KECCAK256 DUP3 DUP12 MSTORE DUP10 MSTORE DUP5 DUP8 DUP12 KECCAK256 SLOAD PUSH2 0x24D DUP3 DUP3 LT ISZERO PUSH2 0x14D4 JUMP JUMPDEST DUP5 DUP13 MSTORE DUP12 DUP12 MSTORE DUP9 DUP13 KECCAK256 DUP5 DUP14 MSTORE DUP12 MSTORE SUB DUP8 DUP12 KECCAK256 SSTORE DUP3 DUP11 MSTORE DUP10 DUP10 MSTORE DUP7 DUP11 KECCAK256 DUP5 DUP12 MSTORE DUP10 MSTORE DUP7 DUP11 KECCAK256 PUSH2 0x27C DUP7 DUP3 SLOAD PUSH2 0x1533 JUMP JUMPDEST SWAP1 SSTORE DUP4 DUP3 DUP9 MLOAD DUP6 DUP2 MSTORE DUP8 DUP13 DUP3 ADD MSTORE PUSH32 0xC3D58168C5AE7397731D063D5BBF3D657854427343F4C083240F7AACAA2D0F62 DUP11 CALLER SWAP3 LOG4 EXTCODESIZE PUSH2 0x2B8 JUMPI DUP9 DUP1 RETURN JUMPDEST SWAP2 DUP7 SWAP8 SWAP9 SWAP6 SWAP7 SWAP5 SWAP4 SWAP2 DUP7 DUP11 SWAP5 PUSH2 0x301 DUP11 MLOAD SWAP8 DUP9 SWAP7 DUP8 SWAP6 DUP7 SWAP5 PUSH4 0xF23A6E61 PUSH1 0xE0 SHL SWAP13 DUP14 DUP8 MSTORE CALLER SWAP1 DUP8 ADD MSTORE PUSH1 0x24 DUP7 ADD MSTORE PUSH1 0x44 DUP6 ADD MSTORE PUSH1 0x64 DUP5 ADD MSTORE PUSH1 0xA0 PUSH1 0x84 DUP5 ADD MSTORE PUSH1 0xA4 DUP4 ADD SWAP1 PUSH2 0x113B JUMP JUMPDEST SUB SWAP3 GAS CALL DUP4 SWAP2 DUP2 PUSH2 0x3B1 JUMPI JUMPDEST POP PUSH2 0x376 JUMPI POP POP POP PUSH2 0x31D PUSH2 0x15A9 JUMP JUMPDEST PUSH4 0x8C379A0 EQ PUSH2 0x345 JUMPI JUMPDEST MLOAD PUSH3 0x461BCD PUSH1 0xE5 SHL DUP2 MSTORE SWAP2 POP DUP2 SWAP1 PUSH2 0x341 SWAP1 DUP3 ADD PUSH2 0x1636 JUMP JUMPDEST SUB SWAP1 REVERT JUMPDEST PUSH2 0x34D PUSH2 0x15C7 JUMP JUMPDEST DUP1 PUSH2 0x358 JUMPI POP PUSH2 0x328 JUMP JUMPDEST PUSH2 0x341 SWAP2 MLOAD SWAP4 DUP5 SWAP4 PUSH3 0x461BCD PUSH1 0xE5 SHL DUP6 MSTORE DUP5 ADD MSTORE PUSH1 0x24 DUP4 ADD SWAP1 PUSH2 0x113B JUMP JUMPDEST SWAP2 SWAP5 POP PUSH1 0x1 PUSH1 0x1 PUSH1 0xE0 SHL SUB NOT SWAP1 SWAP2 AND SUB PUSH2 0x398 JUMPI POP POP CODESIZE DUP1 DUP1 DUP1 DUP1 DUP1 DUP1 DUP1 DUP9 DUP1 RETURN JUMPDEST MLOAD PUSH3 0x461BCD PUSH1 0xE5 SHL DUP2 MSTORE SWAP2 POP DUP2 SWAP1 PUSH2 0x341 SWAP1 DUP3 ADD PUSH2 0x1560 JUMP JUMPDEST PUSH2 0x3D2 SWAP2 SWAP3 POP DUP8 RETURNDATASIZE DUP10 GT PUSH2 0x3D9 JUMPI JUMPDEST PUSH2 0x3CA DUP2 DUP4 PUSH2 0x11AD JUMP JUMPDEST DUP2 ADD SWAP1 PUSH2 0x1540 JUMP JUMPDEST SWAP1 CODESIZE PUSH2 0x30D JUMP JUMPDEST POP RETURNDATASIZE PUSH2 0x3C0 JUMP JUMPDEST POP DUP3 DUP10 MSTORE PUSH1 0x1 PUSH1 0x20 SWAP1 DUP2 MSTORE DUP7 DUP11 KECCAK256 CALLER DUP12 MSTORE SWAP1 MSTORE DUP6 DUP10 KECCAK256 SLOAD PUSH1 0xFF AND PUSH2 0x200 JUMP JUMPDEST DUP8 DUP1 REVERT JUMPDEST POP POP CALLVALUE PUSH2 0x435 JUMPI DUP1 PUSH1 0x3 NOT CALLDATASIZE ADD SLT PUSH2 0x435 JUMPI PUSH1 0x20 SWAP1 PUSH2 0x42C PUSH2 0x423 PUSH2 0x110A JUMP JUMPDEST PUSH1 0x24 CALLDATALOAD SWAP1 PUSH2 0x16EA JUMP JUMPDEST SWAP1 MLOAD SWAP1 ISZERO ISZERO DUP2 MSTORE RETURN JUMPDEST POP DUP1 REVERT JUMPDEST POP POP CALLVALUE PUSH2 0x435 JUMPI DUP1 PUSH1 0x3 NOT CALLDATASIZE ADD SLT PUSH2 0x435 JUMPI PUSH1 0xFF DUP2 PUSH1 0x20 SWAP4 PUSH2 0x459 PUSH2 0x110A JUMP JUMPDEST PUSH2 0x461 PUSH2 0x1125 JUMP JUMPDEST PUSH1 0x1 PUSH1 0x1 PUSH1 0xA0 SHL SUB SWAP2 DUP3 AND DUP4 MSTORE PUSH1 0x1 DUP8 MSTORE DUP4 DUP4 KECCAK256 SWAP2 AND DUP3 MSTORE DUP6 MSTORE KECCAK256 SLOAD SWAP2 MLOAD SWAP2 AND ISZERO ISZERO DUP2 MSTORE RETURN JUMPDEST POP SWAP1 CALLVALUE PUSH2 0x19A JUMPI DUP1 PUSH1 0x3 NOT CALLDATASIZE ADD SLT PUSH2 0x19A JUMPI PUSH2 0x4A1 PUSH2 0x110A JUMP JUMPDEST SWAP1 PUSH1 0x24 CALLDATALOAD SWAP2 DUP3 ISZERO ISZERO DUP1 SWAP4 SUB PUSH2 0x564 JUMPI PUSH1 0x1 PUSH1 0x1 PUSH1 0xA0 SHL SUB AND SWAP3 CALLER DUP5 EQ PUSH2 0x510 JUMPI POP CALLER DUP5 MSTORE PUSH1 0x1 PUSH1 0x20 MSTORE DUP1 DUP5 KECCAK256 DUP4 DUP6 MSTORE PUSH1 0x20 MSTORE DUP1 DUP5 KECCAK256 PUSH1 0xFF NOT DUP2 SLOAD AND PUSH1 0xFF DUP5 AND OR SWAP1 SSTORE MLOAD SWAP1 DUP2 MSTORE PUSH32 0x17307EAB39AB6107E8899845AD3D59BD9653F200F220920489CA2B5937696C31 PUSH1 0x20 CALLER SWAP3 LOG3 DUP1 RETURN JUMPDEST PUSH1 0x20 PUSH1 0x84 SWAP3 MLOAD SWAP2 PUSH3 0x461BCD PUSH1 0xE5 SHL DUP4 MSTORE DUP3 ADD MSTORE PUSH1 0x29 PUSH1 0x24 DUP3 ADD MSTORE PUSH32 0x455243313135353A2073657474696E6720617070726F76616C20737461747573 PUSH1 0x44 DUP3 ADD MSTORE PUSH9 0x103337B91039B2B633 PUSH1 0xB9 SHL PUSH1 0x64 DUP3 ADD MSTORE REVERT JUMPDEST DUP5 DUP1 REVERT JUMPDEST POP SWAP2 SWAP1 CALLVALUE PUSH2 0x435 JUMPI PUSH1 0x20 SWAP1 DUP2 PUSH1 0x3 NOT CALLDATASIZE ADD SLT PUSH2 0x19A JUMPI DUP4 CALLDATALOAD SWAP2 DUP3 DUP5 MSTORE PUSH1 0x5 DUP2 MSTORE DUP2 DUP5 KECCAK256 CALLER DUP6 MSTORE DUP2 MSTORE PUSH1 0xFF DUP3 DUP6 KECCAK256 SLOAD AND PUSH2 0x804 JUMPI PUSH2 0x5A5 DUP4 CALLER PUSH2 0x16EA JUMP JUMPDEST ISZERO PUSH2 0x7C2 JUMPI DUP2 MLOAD SWAP5 DUP2 DUP7 ADD DUP7 DUP2 LT PUSH8 0xFFFFFFFFFFFFFFFF DUP3 GT OR PUSH2 0x7AF JUMPI DUP4 MSTORE DUP5 DUP7 MSTORE CALLER ISZERO PUSH2 0x764 JUMPI DUP4 SWAP5 SWAP6 PUSH2 0x5DD PUSH2 0x5FC SWAP6 PUSH2 0x168B JUMP JUMPDEST POP DUP4 MLOAD PUSH2 0x5E9 DUP2 PUSH2 0x117B JUMP JUMPDEST PUSH1 0x1 SWAP6 DUP2 DUP8 DUP1 SWAP4 MSTORE DUP6 CALLDATASIZE DUP2 DUP4 ADD CALLDATACOPY PUSH2 0x13E0 JUMP JUMPDEST MSTORE DUP6 DUP8 MSTORE DUP7 DUP4 MSTORE DUP4 DUP8 KECCAK256 CALLER DUP9 MSTORE DUP4 MSTORE DUP4 DUP8 KECCAK256 DUP1 SLOAD SWAP1 DUP7 DUP3 ADD DUP1 SWAP3 GT PUSH2 0x751 JUMPI SSTORE DUP4 MLOAD DUP7 DUP2 MSTORE DUP6 DUP5 DUP3 ADD MSTORE DUP8 CALLER SWAP2 PUSH32 0xC3D58168C5AE7397731D063D5BBF3D657854427343F4C083240F7AACAA2D0F62 DUP8 CALLER SWAP3 LOG4 CALLER EXTCODESIZE PUSH2 0x69B JUMPI JUMPDEST POP POP DUP4 DUP6 MSTORE PUSH1 0x5 DUP2 MSTORE DUP2 DUP6 KECCAK256 SWAP1 CALLER DUP7 MSTORE MSTORE DUP4 KECCAK256 SWAP1 PUSH1 0xFF NOT DUP3 SLOAD AND OR SWAP1 SSTORE CALLER SWAP1 PUSH32 0x5DDCA7D5809A6830DDA8F5547A130099BE44F5E1F6AB4773CBE795C10C0F605E DUP4 DUP1 LOG3 DUP1 RETURN JUMPDEST DUP4 SWAP5 SWAP2 SWAP6 SWAP3 SWAP7 SWAP4 MLOAD DUP8 DUP2 DUP1 PUSH2 0x6DD PUSH4 0xF23A6E61 PUSH1 0xE0 SHL SWAP6 DUP7 DUP4 MSTORE CALLER DUP13 DUP5 ADD MSTORE DUP10 PUSH1 0x24 DUP5 ADD MSTORE DUP9 PUSH1 0x44 DUP5 ADD MSTORE DUP8 PUSH1 0x64 DUP5 ADD MSTORE PUSH1 0xA0 PUSH1 0x84 DUP5 ADD MSTORE PUSH1 0xA4 DUP4 ADD SWAP1 PUSH2 0x113B JUMP JUMPDEST SUB DUP2 DUP9 CALLER GAS CALL DUP6 SWAP2 DUP2 PUSH2 0x732 JUMPI JUMPDEST POP PUSH2 0x6FB JUMPI DUP8 DUP8 DUP8 PUSH2 0x31D PUSH2 0x15A9 JUMP JUMPDEST SWAP4 SWAP7 SWAP3 SWAP6 SWAP2 SWAP5 SWAP4 PUSH1 0x1 PUSH1 0x1 PUSH1 0xE0 SHL SUB NOT AND SUB PUSH2 0x719 JUMPI POP CODESIZE DUP1 PUSH2 0x655 JUMP JUMPDEST DUP3 MLOAD PUSH3 0x461BCD PUSH1 0xE5 SHL DUP2 MSTORE SWAP1 DUP2 SWAP1 PUSH2 0x341 SWAP1 DUP3 ADD PUSH2 0x1560 JUMP JUMPDEST PUSH2 0x74A SWAP2 SWAP3 POP DUP10 RETURNDATASIZE DUP12 GT PUSH2 0x3D9 JUMPI PUSH2 0x3CA DUP2 DUP4 PUSH2 0x11AD JUMP JUMPDEST SWAP1 CODESIZE PUSH2 0x6EB JUMP JUMPDEST PUSH4 0x4E487B71 PUSH1 0xE0 SHL DUP10 MSTORE PUSH1 0x11 DUP5 MSTORE PUSH1 0x24 DUP10 REVERT JUMPDEST SWAP2 MLOAD PUSH3 0x461BCD PUSH1 0xE5 SHL DUP2 MSTORE SWAP2 DUP3 ADD MSTORE PUSH1 0x21 PUSH1 0x24 DUP3 ADD MSTORE PUSH32 0x455243313135353A206D696E7420746F20746865207A65726F20616464726573 PUSH1 0x44 DUP3 ADD MSTORE PUSH1 0x73 PUSH1 0xF8 SHL PUSH1 0x64 DUP3 ADD MSTORE PUSH1 0x84 SWAP1 REVERT JUMPDEST PUSH4 0x4E487B71 PUSH1 0xE0 SHL DUP7 MSTORE PUSH1 0x41 DUP3 MSTORE PUSH1 0x24 DUP7 REVERT JUMPDEST DUP5 SWAP1 PUSH1 0x64 SWAP3 MLOAD SWAP2 PUSH3 0x461BCD PUSH1 0xE5 SHL DUP4 MSTORE DUP3 ADD MSTORE PUSH1 0x17 PUSH1 0x24 DUP3 ADD MSTORE PUSH32 0x4E6F74206120766572696669656420617474656E646565000000000000000000 PUSH1 0x44 DUP3 ADD MSTORE REVERT JUMPDEST DUP5 SWAP1 PUSH1 0x64 SWAP3 MLOAD SWAP2 PUSH3 0x461BCD PUSH1 0xE5 SHL DUP4 MSTORE DUP3 ADD MSTORE PUSH1 0x14 PUSH1 0x24 DUP3 ADD MSTORE PUSH20 0x1413D05408185B1C9958591E4818DB185A5B5959 PUSH1 0x62 SHL PUSH1 0x44 DUP3 ADD MSTORE REVERT JUMPDEST POP POP CALLVALUE PUSH2 0x435 JUMPI DUP2 PUSH1 0x3 NOT CALLDATASIZE ADD SLT PUSH2 0x435 JUMPI PUSH1 0x3 SLOAD SWAP1 MLOAD PUSH1 0x1 PUSH1 0x1 PUSH1 0xA0 SHL SUB SWAP1 SWAP2 AND DUP2 MSTORE PUSH1 0x20 SWAP1 RETURN JUMPDEST POP CALLVALUE PUSH2 0x19A JUMPI DUP2 PUSH1 0x3 NOT CALLDATASIZE ADD SLT PUSH2 0x19A JUMPI DUP2 PUSH1 0x20 SWAP4 PUSH1 0xFF SWAP3 PUSH2 0x886 PUSH2 0x1125 JUMP JUMPDEST SWAP1 CALLDATALOAD DUP3 MSTORE PUSH1 0x5 DUP7 MSTORE DUP3 DUP3 KECCAK256 PUSH1 0x1 PUSH1 0x1 PUSH1 0xA0 SHL SUB SWAP1 SWAP2 AND DUP3 MSTORE DUP6 MSTORE KECCAK256 SLOAD SWAP2 MLOAD SWAP2 AND ISZERO ISZERO DUP2 MSTORE RETURN JUMPDEST DUP4 CALLVALUE PUSH2 0x909 JUMPI DUP1 PUSH1 0x3 NOT CALLDATASIZE ADD SLT PUSH2 0x909 JUMPI PUSH2 0x8C5 PUSH2 0x12DE JUMP JUMPDEST PUSH1 0x3 DUP1 SLOAD PUSH1 0x1 PUSH1 0x1 PUSH1 0xA0 SHL SUB NOT DUP2 AND SWAP1 SWAP2 SSTORE DUP2 SWAP1 PUSH1 0x1 PUSH1 0x1 PUSH1 0xA0 SHL SUB AND PUSH32 0x8BE0079C531659141344CD1FD0A4F28419497F9722A3DAAFE3B4186F6B6457E0 DUP3 DUP1 LOG3 DUP1 RETURN JUMPDEST DUP1 REVERT JUMPDEST POP CALLVALUE PUSH2 0x19A JUMPI DUP3 PUSH1 0x3 NOT CALLDATASIZE ADD SLT PUSH2 0x19A JUMPI SLOAD SWAP1 MLOAD PUSH1 0x1 PUSH1 0x1 PUSH1 0xA0 SHL SUB SWAP1 SWAP2 AND DUP2 MSTORE PUSH1 0x20 SWAP2 POP RETURN JUMPDEST POP CALLVALUE PUSH2 0x19A JUMPI DUP2 PUSH1 0x3 NOT CALLDATASIZE ADD SLT PUSH2 0x19A JUMPI DUP1 CALLDATALOAD PUSH8 0xFFFFFFFFFFFFFFFF DUP1 DUP3 GT PUSH2 0x564 JUMPI CALLDATASIZE PUSH1 0x23 DUP4 ADD SLT ISZERO PUSH2 0x564 JUMPI DUP2 DUP4 ADD CALLDATALOAD SWAP1 PUSH2 0x96F DUP3 PUSH2 0x1216 JUMP JUMPDEST SWAP3 PUSH2 0x97C DUP7 MLOAD SWAP5 DUP6 PUSH2 0x11AD JUMP JUMPDEST DUP3 DUP5 MSTORE PUSH1 0x20 SWAP3 PUSH1 0x24 DUP5 DUP7 ADD SWAP2 PUSH1 0x5 SHL DUP4 ADD ADD SWAP2 CALLDATASIZE DUP4 GT PUSH2 0xAD0 JUMPI PUSH1 0x24 ADD SWAP1 JUMPDEST DUP3 DUP3 LT PUSH2 0xAAD JUMPI POP POP POP PUSH1 0x24 CALLDATALOAD SWAP1 DUP2 GT PUSH2 0xAA9 JUMPI PUSH2 0x9BC SWAP1 CALLDATASIZE SWAP1 DUP6 ADD PUSH2 0x122E JUMP JUMPDEST SWAP3 DUP3 MLOAD DUP5 MLOAD SUB PUSH2 0xA56 JUMPI POP DUP2 MLOAD SWAP5 PUSH2 0x9D3 DUP7 PUSH2 0x1216 JUMP JUMPDEST SWAP6 PUSH2 0x9E0 DUP7 MLOAD SWAP8 DUP9 PUSH2 0x11AD JUMP JUMPDEST DUP1 DUP8 MSTORE PUSH2 0x9EF PUSH1 0x1F NOT SWAP2 PUSH2 0x1216 JUMP JUMPDEST ADD CALLDATASIZE DUP4 DUP9 ADD CALLDATACOPY JUMPDEST DUP3 MLOAD DUP2 LT ISZERO PUSH2 0xA40 JUMPI PUSH2 0xA3B SWAP1 PUSH2 0xA2B PUSH1 0x1 PUSH1 0x1 PUSH1 0xA0 SHL SUB PUSH2 0xA18 DUP4 DUP8 PUSH2 0x1403 JUMP JUMPDEST MLOAD AND PUSH2 0xA24 DUP4 DUP9 PUSH2 0x1403 JUMP JUMPDEST MLOAD SWAP1 PUSH2 0x1336 JUMP JUMPDEST PUSH2 0xA35 DUP3 DUP10 PUSH2 0x1403 JUMP JUMPDEST MSTORE PUSH2 0x13BB JUMP JUMPDEST PUSH2 0x9F6 JUMP JUMPDEST DUP5 MLOAD DUP3 DUP2 MSTORE DUP1 PUSH2 0xA52 DUP2 DUP6 ADD DUP10 PUSH2 0x12AA JUMP JUMPDEST SUB SWAP1 RETURN JUMPDEST PUSH1 0x84 SWAP2 DUP6 MLOAD SWAP2 PUSH3 0x461BCD PUSH1 0xE5 SHL DUP4 MSTORE DUP3 ADD MSTORE PUSH1 0x29 PUSH1 0x24 DUP3 ADD MSTORE PUSH32 0x455243313135353A206163636F756E747320616E6420696473206C656E677468 PUSH1 0x44 DUP3 ADD MSTORE PUSH9 0x40DAD2E6DAC2E8C6D PUSH1 0xBB SHL PUSH1 0x64 DUP3 ADD MSTORE REVERT JUMPDEST DUP6 DUP1 REVERT JUMPDEST DUP2 CALLDATALOAD PUSH1 0x1 PUSH1 0x1 PUSH1 0xA0 SHL SUB DUP2 AND DUP2 SUB PUSH2 0xACC JUMPI DUP2 MSTORE SWAP1 DUP5 ADD SWAP1 DUP5 ADD PUSH2 0x99B JUMP JUMPDEST DUP10 DUP1 REVERT JUMPDEST DUP9 DUP1 REVERT JUMPDEST POP DUP3 CALLVALUE PUSH2 0x909 JUMPI PUSH1 0x3 NOT SWAP3 PUSH1 0xA0 CALLDATASIZE DUP6 ADD SLT PUSH2 0x435 JUMPI PUSH2 0xAF1 PUSH2 0x110A JUMP JUMPDEST SWAP2 PUSH2 0xAFA PUSH2 0x1125 JUMP JUMPDEST SWAP5 PUSH8 0xFFFFFFFFFFFFFFFF SWAP4 PUSH1 0x44 CALLDATALOAD DUP6 DUP2 GT PUSH2 0xDEB JUMPI PUSH2 0xB1C SWAP1 CALLDATASIZE SWAP1 DUP9 ADD PUSH2 0x122E JUMP JUMPDEST PUSH1 0x64 CALLDATALOAD DUP7 DUP2 GT PUSH2 0x564 JUMPI PUSH2 0xB33 SWAP1 CALLDATASIZE SWAP1 DUP10 ADD PUSH2 0x122E JUMP JUMPDEST SWAP6 PUSH1 0x84 CALLDATALOAD SWAP1 DUP2 GT PUSH2 0x564 JUMPI PUSH2 0xB4B SWAP1 CALLDATASIZE SWAP1 DUP10 ADD PUSH2 0x128C JUMP JUMPDEST SWAP7 PUSH1 0x1 PUSH1 0x1 PUSH1 0xA0 SHL SUB SWAP3 DUP4 AND SWAP3 CALLER DUP5 EQ DUP1 ISZERO PUSH2 0xDCC JUMPI JUMPDEST PUSH2 0xB6B SWAP1 PUSH2 0x1417 JUMP JUMPDEST DUP3 MLOAD DUP9 MLOAD SUB PUSH2 0xD78 JUMPI DUP10 AND SWAP4 PUSH2 0xB82 DUP6 ISZERO ISZERO PUSH2 0x147A JUMP JUMPDEST DUP6 JUMPDEST DUP4 MLOAD DUP2 LT ISZERO PUSH2 0xC06 JUMPI DUP1 PUSH2 0xB9B PUSH2 0xC01 SWAP3 DUP7 PUSH2 0x1403 JUMP JUMPDEST MLOAD PUSH2 0xBA6 DUP3 DUP13 PUSH2 0x1403 JUMP JUMPDEST MLOAD SWAP1 DUP1 DUP11 MSTORE PUSH1 0x20 SWAP1 DUP11 DUP3 MSTORE DUP12 DUP12 KECCAK256 DUP10 DUP13 MSTORE DUP3 MSTORE DUP3 DUP13 DUP13 DUP12 DUP3 DUP3 KECCAK256 SLOAD SWAP3 PUSH2 0xBCE DUP6 DUP6 LT ISZERO PUSH2 0x14D4 JUMP JUMPDEST DUP6 DUP4 MSTORE DUP3 DUP8 MSTORE DUP3 KECCAK256 SWAP2 MSTORE DUP5 MSTORE SUB DUP13 DUP13 KECCAK256 SSTORE DUP11 MSTORE DUP10 DUP2 MSTORE DUP11 DUP11 KECCAK256 SWAP1 DUP10 DUP12 MSTORE MSTORE PUSH2 0xBFA DUP11 DUP11 KECCAK256 SWAP2 DUP3 SLOAD PUSH2 0x1533 JUMP JUMPDEST SWAP1 SSTORE PUSH2 0x13BB JUMP JUMPDEST PUSH2 0xB84 JUMP JUMPDEST POP SWAP5 SWAP9 SWAP8 SWAP1 SWAP7 SWAP3 SWAP6 SWAP8 DUP5 DUP8 DUP11 MLOAD DUP12 DUP2 MSTORE PUSH32 0x4A39DC06D4C0DBC64B70AF90FD698A233A518AA5D07E595D983B8C0526C8F7FB PUSH2 0xC43 DUP14 DUP4 ADD DUP9 PUSH2 0x12AA JUMP JUMPDEST SWAP2 DUP1 DUP4 SUB PUSH1 0x20 DUP3 ADD MSTORE DUP1 PUSH2 0xC58 CALLER SWAP5 DUP12 PUSH2 0x12AA JUMP JUMPDEST SUB SWAP1 LOG4 EXTCODESIZE PUSH2 0xC64 JUMPI DUP9 DUP1 RETURN JUMPDEST DUP8 SWAP9 SWAP7 SWAP8 MLOAD SWAP5 DUP6 SWAP4 DUP5 SWAP4 PUSH4 0xBC197C81 PUSH1 0xE0 SHL SWAP9 DUP10 DUP7 MSTORE CALLER DUP13 DUP8 ADD MSTORE PUSH1 0x24 DUP7 ADD MSTORE PUSH1 0x44 DUP6 ADD PUSH1 0xA0 SWAP1 MSTORE PUSH1 0xA4 DUP6 ADD PUSH2 0xC99 SWAP2 PUSH2 0x12AA JUMP JUMPDEST DUP3 DUP6 DUP3 SUB ADD PUSH1 0x64 DUP7 ADD MSTORE PUSH2 0xCAC SWAP2 PUSH2 0x12AA JUMP JUMPDEST SWAP1 DUP4 DUP3 SUB ADD PUSH1 0x84 DUP5 ADD MSTORE PUSH2 0xCBF SWAP2 PUSH2 0x113B JUMP JUMPDEST SUB DUP2 DUP7 GAS SWAP5 PUSH1 0x20 SWAP6 CALL DUP4 SWAP2 DUP2 PUSH2 0xD58 JUMPI JUMPDEST POP PUSH2 0xD38 JUMPI POP POP POP PUSH2 0xCE0 PUSH2 0x15A9 JUMP JUMPDEST PUSH4 0x8C379A0 EQ PUSH2 0xD04 JUMPI JUMPDEST SWAP1 MLOAD PUSH3 0x461BCD PUSH1 0xE5 SHL DUP2 MSTORE SWAP1 DUP2 SWAP1 PUSH2 0x341 SWAP1 DUP3 ADD PUSH2 0x1636 JUMP JUMPDEST PUSH2 0xD0C PUSH2 0x15C7 JUMP JUMPDEST DUP1 PUSH2 0xD17 JUMPI POP PUSH2 0xCEB JUMP JUMPDEST PUSH2 0x341 SWAP1 PUSH1 0x20 SWAP4 MLOAD SWAP4 DUP5 SWAP4 PUSH3 0x461BCD PUSH1 0xE5 SHL DUP6 MSTORE DUP5 ADD MSTORE PUSH1 0x24 DUP4 ADD SWAP1 PUSH2 0x113B JUMP JUMPDEST SWAP2 SWAP4 SWAP2 PUSH1 0x1 PUSH1 0x1 PUSH1 0xE0 SHL SUB NOT AND SUB PUSH2 0x398 JUMPI POP POP DUP2 DUP1 DUP1 DUP1 DUP1 DUP1 DUP1 DUP1 DUP9 DUP1 RETURN JUMPDEST PUSH2 0xD71 SWAP2 SWAP3 POP PUSH1 0x20 RETURNDATASIZE DUP2 GT PUSH2 0x3D9 JUMPI PUSH2 0x3CA DUP2 DUP4 PUSH2 0x11AD JUMP JUMPDEST SWAP1 DUP7 PUSH2 0xCD0 JUMP JUMPDEST DUP7 MLOAD PUSH3 0x461BCD PUSH1 0xE5 SHL DUP2 MSTORE PUSH1 0x20 DUP2 DUP5 ADD MSTORE PUSH1 0x28 PUSH1 0x24 DUP3 ADD MSTORE PUSH32 0x455243313135353A2069647320616E6420616D6F756E7473206C656E67746820 PUSH1 0x44 DUP3 ADD MSTORE PUSH8 0xDAD2E6DAC2E8C6D PUSH1 0xC3 SHL PUSH1 0x64 DUP3 ADD MSTORE PUSH1 0x84 SWAP1 REVERT JUMPDEST POP DUP4 DUP7 MSTORE PUSH1 0x1 PUSH1 0x20 SWAP1 DUP2 MSTORE DUP8 DUP8 KECCAK256 CALLER DUP9 MSTORE SWAP1 MSTORE DUP7 DUP7 KECCAK256 SLOAD PUSH1 0xFF AND PUSH2 0xB62 JUMP JUMPDEST DUP4 DUP1 REVERT JUMPDEST POP DUP3 SWAP1 CALLVALUE PUSH2 0x435 JUMPI DUP3 PUSH1 0x3 NOT CALLDATASIZE ADD SLT PUSH2 0x435 JUMPI PUSH8 0xFFFFFFFFFFFFFFFF PUSH1 0x24 CALLDATALOAD DUP2 DUP2 GT PUSH2 0xDEB JUMPI CALLDATASIZE PUSH1 0x23 DUP3 ADD SLT ISZERO PUSH2 0xDEB JUMPI PUSH2 0xE33 SWAP1 CALLDATASIZE SWAP1 PUSH1 0x24 DUP2 DUP7 ADD CALLDATALOAD SWAP2 ADD PUSH2 0x11CF JUMP JUMPDEST SWAP4 PUSH2 0xE3C PUSH2 0x12DE JUMP JUMPDEST DUP3 CALLDATALOAD DUP5 MSTORE PUSH1 0x20 SWAP1 PUSH1 0x6 DUP3 MSTORE DUP5 KECCAK256 SWAP3 DUP6 MLOAD SWAP3 DUP4 GT PUSH2 0xF47 JUMPI POP PUSH2 0xE5E DUP4 SLOAD PUSH2 0x16B0 JUMP JUMPDEST PUSH1 0x1F DUP2 GT PUSH2 0xF04 JUMPI JUMPDEST POP DUP1 PUSH1 0x1F DUP4 GT PUSH1 0x1 EQ PUSH2 0xEA2 JUMPI POP DUP4 SWAP5 DUP3 SWAP4 SWAP5 SWAP3 PUSH2 0xE97 JUMPI JUMPDEST POP POP DUP2 PUSH1 0x1 SHL SWAP2 PUSH1 0x0 NOT SWAP1 PUSH1 0x3 SHL SHR NOT AND OR SWAP1 SSTORE DUP1 RETURN JUMPDEST ADD MLOAD SWAP1 POP DUP5 DUP1 PUSH2 0xE80 JUMP JUMPDEST SWAP1 PUSH1 0x1F NOT DUP4 AND SWAP6 DUP5 DUP7 MSTORE DUP3 DUP7 KECCAK256 SWAP3 DUP7 SWAP1 JUMPDEST DUP9 DUP3 LT PUSH2 0xEEC JUMPI POP POP DUP4 PUSH1 0x1 SWAP6 SWAP7 SWAP8 LT PUSH2 0xED3 JUMPI JUMPDEST POP POP POP DUP2 SHL ADD SWAP1 SSTORE DUP1 RETURN JUMPDEST ADD MLOAD PUSH1 0x0 NOT PUSH1 0xF8 DUP5 PUSH1 0x3 SHL AND SHR NOT AND SWAP1 SSTORE DUP5 DUP1 DUP1 PUSH2 0xEC8 JUMP JUMPDEST DUP1 PUSH1 0x1 DUP6 SWAP7 DUP3 SWAP5 SWAP7 DUP7 ADD MLOAD DUP2 SSTORE ADD SWAP6 ADD SWAP4 ADD SWAP1 PUSH2 0xEB3 JUMP JUMPDEST DUP4 DUP6 MSTORE DUP2 DUP6 KECCAK256 PUSH1 0x1F DUP5 ADD PUSH1 0x5 SHR DUP2 ADD SWAP2 DUP4 DUP6 LT PUSH2 0xF3D JUMPI JUMPDEST PUSH1 0x1F ADD PUSH1 0x5 SHR ADD SWAP1 JUMPDEST DUP2 DUP2 LT PUSH2 0xF32 JUMPI POP PUSH2 0xE67 JUMP JUMPDEST DUP6 DUP2 SSTORE PUSH1 0x1 ADD PUSH2 0xF25 JUMP JUMPDEST SWAP1 SWAP2 POP DUP2 SWAP1 PUSH2 0xF1C JUMP JUMPDEST PUSH4 0x4E487B71 PUSH1 0xE0 SHL DUP6 MSTORE PUSH1 0x41 SWAP1 MSTORE PUSH1 0x24 DUP5 REVERT JUMPDEST POP SWAP1 CALLVALUE PUSH2 0x19A JUMPI PUSH1 0x20 SWAP2 DUP3 PUSH1 0x3 NOT CALLDATASIZE ADD SLT PUSH2 0xDEB JUMPI DUP1 CALLDATALOAD DUP5 MSTORE PUSH1 0x6 DUP4 MSTORE DUP2 DUP5 KECCAK256 DUP3 MLOAD DUP6 DUP2 SWAP7 SWAP1 DUP4 SLOAD SWAP1 PUSH2 0xF8C DUP3 PUSH2 0x16B0 JUMP JUMPDEST SWAP5 DUP6 DUP6 MSTORE PUSH1 0x1 SWAP3 DUP10 DUP5 DUP3 AND SWAP2 DUP3 PUSH1 0x0 EQ PUSH2 0x1049 JUMPI POP POP PUSH1 0x1 EQ PUSH2 0x100D JUMPI JUMPDEST POP POP POP PUSH2 0xFB9 SWAP3 POP SUB DUP6 PUSH2 0x11AD JUMP JUMPDEST DUP4 MLOAD ISZERO PUSH2 0xFD4 JUMPI POP PUSH2 0xA52 SWAP1 MLOAD SWAP3 DUP3 DUP5 SWAP4 DUP5 MSTORE DUP4 ADD SWAP1 PUSH2 0x113B JUMP JUMPDEST DUP3 PUSH1 0x64 SWAP3 MLOAD SWAP2 PUSH3 0x461BCD PUSH1 0xE5 SHL DUP4 MSTORE DUP3 ADD MSTORE PUSH1 0x15 PUSH1 0x24 DUP3 ADD MSTORE PUSH21 0x155492481B9BDD081CD95D08199BDC88195D995B9D PUSH1 0x5A SHL PUSH1 0x44 DUP3 ADD MSTORE REVERT JUMPDEST DUP9 SWAP4 POP DUP2 SWAP3 SWAP2 MSTORE DUP3 DUP3 KECCAK256 JUMPDEST DUP6 DUP4 LT PUSH2 0x1031 JUMPI POP POP PUSH2 0xFB9 SWAP4 POP DUP3 ADD ADD CODESIZE DUP1 DUP1 PUSH2 0xFAA JUMP JUMPDEST DUP1 SLOAD DUP4 DUP12 ADD DUP6 ADD MSTORE DUP10 SWAP5 POP DUP9 SWAP4 SWAP1 SWAP3 ADD SWAP2 DUP2 ADD PUSH2 0x1018 JUMP JUMPDEST SWAP4 POP SWAP5 POP POP POP PUSH2 0xFB9 SWAP5 SWAP2 POP PUSH1 0xFF NOT AND DUP3 DUP5 ADD MSTORE ISZERO ISZERO PUSH1 0x5 SHL DUP3 ADD ADD CODESIZE DUP1 DUP1 PUSH2 0xFAA JUMP JUMPDEST POP CALLVALUE PUSH2 0x19A JUMPI PUSH1 0x20 CALLDATASIZE PUSH1 0x3 NOT ADD SLT PUSH2 0x19A JUMPI CALLDATALOAD SWAP1 PUSH4 0xFFFFFFFF PUSH1 0xE0 SHL DUP3 AND DUP1 SWAP3 SUB PUSH2 0x19A JUMPI PUSH1 0x20 SWAP3 POP PUSH4 0x6CDB3D13 PUSH1 0xE1 SHL DUP3 EQ SWAP2 DUP3 ISZERO PUSH2 0x10C9 JUMPI JUMPDEST DUP3 ISZERO PUSH2 0x10B8 JUMPI JUMPDEST POP MLOAD SWAP1 ISZERO ISZERO DUP2 MSTORE RETURN JUMPDEST PUSH4 0x1FFC9A7 PUSH1 0xE0 SHL EQ SWAP2 POP CODESIZE PUSH2 0x10AF JUMP JUMPDEST PUSH4 0x3A24D07 PUSH1 0xE2 SHL DUP2 EQ SWAP3 POP PUSH2 0x10A8 JUMP JUMPDEST POP POP CALLVALUE PUSH2 0x435 JUMPI DUP1 PUSH1 0x3 NOT CALLDATASIZE ADD SLT PUSH2 0x435 JUMPI PUSH1 0x20 SWAP1 PUSH2 0x1103 PUSH2 0x10FA PUSH2 0x110A JUMP JUMPDEST PUSH1 0x24 CALLDATALOAD SWAP1 PUSH2 0x1336 JUMP JUMPDEST SWAP1 MLOAD SWAP1 DUP2 MSTORE RETURN JUMPDEST PUSH1 0x4 CALLDATALOAD SWAP1 PUSH1 0x1 PUSH1 0x1 PUSH1 0xA0 SHL SUB DUP3 AND DUP3 SUB PUSH2 0x1120 JUMPI JUMP JUMPDEST PUSH1 0x0 DUP1 REVERT JUMPDEST PUSH1 0x24 CALLDATALOAD SWAP1 PUSH1 0x1 PUSH1 0x1 PUSH1 0xA0 SHL SUB DUP3 AND DUP3 SUB PUSH2 0x1120 JUMPI JUMP JUMPDEST SWAP2 SWAP1 DUP3 MLOAD SWAP3 DUP4 DUP3 MSTORE PUSH1 0x0 JUMPDEST DUP5 DUP2 LT PUSH2 0x1167 JUMPI POP POP DUP3 PUSH1 0x0 PUSH1 0x20 DUP1 SWAP5 SWAP6 DUP5 ADD ADD MSTORE PUSH1 0x1F DUP1 NOT SWAP2 ADD AND ADD ADD SWAP1 JUMP JUMPDEST PUSH1 0x20 DUP2 DUP4 ADD DUP2 ADD MLOAD DUP5 DUP4 ADD DUP3 ADD MSTORE ADD PUSH2 0x1146 JUMP JUMPDEST PUSH1 0x40 DUP2 ADD SWAP1 DUP2 LT PUSH8 0xFFFFFFFFFFFFFFFF DUP3 GT OR PUSH2 0x1197 JUMPI PUSH1 0x40 MSTORE JUMP JUMPDEST PUSH4 0x4E487B71 PUSH1 0xE0 SHL PUSH1 0x0 MSTORE PUSH1 0x41 PUSH1 0x4 MSTORE PUSH1 0x24 PUSH1 0x0 REVERT JUMPDEST SWAP1 PUSH1 0x1F DUP1 NOT SWAP2 ADD AND DUP2 ADD SWAP1 DUP2 LT PUSH8 0xFFFFFFFFFFFFFFFF DUP3 GT OR PUSH2 0x1197 JUMPI PUSH1 0x40 MSTORE JUMP JUMPDEST SWAP3 SWAP2 SWAP3 PUSH8 0xFFFFFFFFFFFFFFFF DUP3 GT PUSH2 0x1197 JUMPI PUSH1 0x40 MLOAD SWAP2 PUSH2 0x11F9 PUSH1 0x1F DUP3 ADD PUSH1 0x1F NOT AND PUSH1 0x20 ADD DUP5 PUSH2 0x11AD JUMP JUMPDEST DUP3 SWAP5 DUP2 DUP5 MSTORE DUP2 DUP4 ADD GT PUSH2 0x1120 JUMPI DUP3 DUP2 PUSH1 0x20 SWAP4 DUP5 PUSH1 0x0 SWAP7 ADD CALLDATACOPY ADD ADD MSTORE JUMP JUMPDEST PUSH8 0xFFFFFFFFFFFFFFFF DUP2 GT PUSH2 0x1197 JUMPI PUSH1 0x5 SHL PUSH1 0x20 ADD SWAP1 JUMP JUMPDEST DUP2 PUSH1 0x1F DUP3 ADD SLT ISZERO PUSH2 0x1120 JUMPI DUP1 CALLDATALOAD SWAP2 PUSH2 0x1245 DUP4 PUSH2 0x1216 JUMP JUMPDEST SWAP3 PUSH2 0x1253 PUSH1 0x40 MLOAD SWAP5 DUP6 PUSH2 0x11AD JUMP JUMPDEST DUP1 DUP5 MSTORE PUSH1 0x20 SWAP3 DUP4 DUP1 DUP7 ADD SWAP3 PUSH1 0x5 SHL DUP3 ADD ADD SWAP3 DUP4 GT PUSH2 0x1120 JUMPI DUP4 ADD SWAP1 JUMPDEST DUP3 DUP3 LT PUSH2 0x127D JUMPI POP POP POP POP SWAP1 JUMP JUMPDEST DUP2 CALLDATALOAD DUP2 MSTORE SWAP1 DUP4 ADD SWAP1 DUP4 ADD PUSH2 0x126F JUMP JUMPDEST SWAP1 DUP1 PUSH1 0x1F DUP4 ADD SLT ISZERO PUSH2 0x1120 JUMPI DUP2 PUSH1 0x20 PUSH2 0x12A7 SWAP4 CALLDATALOAD SWAP2 ADD PUSH2 0x11CF JUMP JUMPDEST SWAP1 JUMP JUMPDEST SWAP1 DUP2 MLOAD DUP1 DUP3 MSTORE PUSH1 0x20 DUP1 DUP1 SWAP4 ADD SWAP4 ADD SWAP2 PUSH1 0x0 JUMPDEST DUP3 DUP2 LT PUSH2 0x12CA JUMPI POP POP POP POP SWAP1 JUMP JUMPDEST DUP4 MLOAD DUP6 MSTORE SWAP4 DUP2 ADD SWAP4 SWAP3 DUP2 ADD SWAP3 PUSH1 0x1 ADD PUSH2 0x12BC JUMP JUMPDEST PUSH1 0x3 SLOAD PUSH1 0x1 PUSH1 0x1 PUSH1 0xA0 SHL SUB AND CALLER SUB PUSH2 0x12F2 JUMPI JUMP JUMPDEST PUSH1 0x64 PUSH1 0x40 MLOAD PUSH3 0x461BCD PUSH1 0xE5 SHL DUP2 MSTORE PUSH1 0x20 PUSH1 0x4 DUP3 ADD MSTORE PUSH1 0x20 PUSH1 0x24 DUP3 ADD MSTORE PUSH32 0x4F776E61626C653A2063616C6C6572206973206E6F7420746865206F776E6572 PUSH1 0x44 DUP3 ADD MSTORE REVERT JUMPDEST PUSH1 0x1 PUSH1 0x1 PUSH1 0xA0 SHL SUB AND SWAP1 DUP2 ISZERO PUSH2 0x1363 JUMPI PUSH1 0x0 MSTORE PUSH1 0x0 PUSH1 0x20 MSTORE PUSH1 0x40 PUSH1 0x0 KECCAK256 SWAP1 PUSH1 0x0 MSTORE PUSH1 0x20 MSTORE PUSH1 0x40 PUSH1 0x0 KECCAK256 SLOAD SWAP1 JUMP JUMPDEST PUSH1 0x40 MLOAD PUSH3 0x461BCD PUSH1 0xE5 SHL DUP2 MSTORE PUSH1 0x20 PUSH1 0x4 DUP3 ADD MSTORE PUSH1 0x2A PUSH1 0x24 DUP3 ADD MSTORE PUSH32 0x455243313135353A2061646472657373207A65726F206973206E6F7420612076 PUSH1 0x44 DUP3 ADD MSTORE PUSH10 0x30B634B21037BBB732B9 PUSH1 0xB1 SHL PUSH1 0x64 DUP3 ADD MSTORE PUSH1 0x84 SWAP1 REVERT JUMPDEST PUSH1 0x0 NOT DUP2 EQ PUSH2 0x13CA JUMPI PUSH1 0x1 ADD SWAP1 JUMP JUMPDEST PUSH4 0x4E487B71 PUSH1 0xE0 SHL PUSH1 0x0 MSTORE PUSH1 0x11 PUSH1 0x4 MSTORE PUSH1 0x24 PUSH1 0x0 REVERT JUMPDEST DUP1 MLOAD ISZERO PUSH2 0x13ED JUMPI PUSH1 0x20 ADD SWAP1 JUMP JUMPDEST PUSH4 0x4E487B71 PUSH1 0xE0 SHL PUSH1 0x0 MSTORE PUSH1 0x32 PUSH1 0x4 MSTORE PUSH1 0x24 PUSH1 0x0 REVERT JUMPDEST DUP1 MLOAD DUP3 LT ISZERO PUSH2 0x13ED JUMPI PUSH1 0x20 SWAP2 PUSH1 0x5 SHL ADD ADD SWAP1 JUMP JUMPDEST ISZERO PUSH2 0x141E JUMPI JUMP JUMPDEST PUSH1 0x40 MLOAD PUSH3 0x461BCD PUSH1 0xE5 SHL DUP2 MSTORE PUSH1 0x20 PUSH1 0x4 DUP3 ADD MSTORE PUSH1 0x2E PUSH1 0x24 DUP3 ADD MSTORE PUSH32 0x455243313135353A2063616C6C6572206973206E6F7420746F6B656E206F776E PUSH1 0x44 DUP3 ADD MSTORE PUSH14 0x195C881BDC88185C1C1C9BDD9959 PUSH1 0x92 SHL PUSH1 0x64 DUP3 ADD MSTORE PUSH1 0x84 SWAP1 REVERT JUMPDEST ISZERO PUSH2 0x1481 JUMPI JUMP JUMPDEST PUSH1 0x40 MLOAD PUSH3 0x461BCD PUSH1 0xE5 SHL DUP2 MSTORE PUSH1 0x20 PUSH1 0x4 DUP3 ADD MSTORE PUSH1 0x25 PUSH1 0x24 DUP3 ADD MSTORE PUSH32 0x455243313135353A207472616E7366657220746F20746865207A65726F206164 PUSH1 0x44 DUP3 ADD MSTORE PUSH5 0x6472657373 PUSH1 0xD8 SHL PUSH1 0x64 DUP3 ADD MSTORE PUSH1 0x84 SWAP1 REVERT JUMPDEST ISZERO PUSH2 0x14DB JUMPI JUMP JUMPDEST PUSH1 0x40 MLOAD PUSH3 0x461BCD PUSH1 0xE5 SHL DUP2 MSTORE PUSH1 0x20 PUSH1 0x4 DUP3 ADD MSTORE PUSH1 0x2A PUSH1 0x24 DUP3 ADD MSTORE PUSH32 0x455243313135353A20696E73756666696369656E742062616C616E636520666F PUSH1 0x44 DUP3 ADD MSTORE PUSH10 0x39103A3930B739B332B9 PUSH1 0xB1 SHL PUSH1 0x64 DUP3 ADD MSTORE PUSH1 0x84 SWAP1 REVERT JUMPDEST SWAP2 SWAP1 DUP3 ADD DUP1 SWAP3 GT PUSH2 0x13CA JUMPI JUMP JUMPDEST SWAP1 DUP2 PUSH1 0x20 SWAP2 SUB SLT PUSH2 0x1120 JUMPI MLOAD PUSH1 0x1 PUSH1 0x1 PUSH1 0xE0 SHL SUB NOT DUP2 AND DUP2 SUB PUSH2 0x1120 JUMPI SWAP1 JUMP JUMPDEST PUSH1 0x80 SWAP1 PUSH1 0x20 DUP2 MSTORE PUSH1 0x28 PUSH1 0x20 DUP3 ADD MSTORE PUSH32 0x455243313135353A204552433131353552656365697665722072656A65637465 PUSH1 0x40 DUP3 ADD MSTORE PUSH8 0x6420746F6B656E73 PUSH1 0xC0 SHL PUSH1 0x60 DUP3 ADD MSTORE ADD SWAP1 JUMP JUMPDEST PUSH1 0x0 SWAP1 PUSH1 0x3 RETURNDATASIZE GT PUSH2 0x15B6 JUMPI JUMP JUMPDEST SWAP1 POP PUSH1 0x4 PUSH1 0x0 DUP1 RETURNDATACOPY PUSH1 0x0 MLOAD PUSH1 0xE0 SHR SWAP1 JUMP JUMPDEST PUSH1 0x0 PUSH1 0x44 RETURNDATASIZE LT PUSH2 0x12A7 JUMPI PUSH1 0x40 MLOAD PUSH1 0x3 NOT SWAP2 RETURNDATASIZE DUP4 ADD PUSH1 0x4 DUP4 RETURNDATACOPY DUP2 MLOAD PUSH8 0xFFFFFFFFFFFFFFFF SWAP2 DUP3 DUP3 GT RETURNDATASIZE PUSH1 0x24 DUP5 ADD GT OR PUSH2 0x1625 JUMPI DUP2 DUP5 ADD SWAP5 DUP6 MLOAD SWAP4 DUP5 GT PUSH2 0x162D JUMPI RETURNDATASIZE DUP6 ADD ADD PUSH1 0x20 DUP5 DUP8 ADD ADD GT PUSH2 0x1625 JUMPI POP PUSH2 0x12A7 SWAP3 SWAP2 ADD PUSH1 0x20 ADD SWAP1 PUSH2 0x11AD JUMP JUMPDEST SWAP5 SWAP4 POP POP POP POP JUMP JUMPDEST POP SWAP5 SWAP4 POP POP POP POP JUMP JUMPDEST PUSH1 0x80 SWAP1 PUSH1 0x20 DUP2 MSTORE PUSH1 0x34 PUSH1 0x20 DUP3 ADD MSTORE PUSH32 0x455243313135353A207472616E7366657220746F206E6F6E2D45524331313535 PUSH1 0x40 DUP3 ADD MSTORE PUSH20 0x2932B1B2B4BB32B91034B6B83632B6B2B73A32B9 PUSH1 0x61 SHL PUSH1 0x60 DUP3 ADD MSTORE ADD SWAP1 JUMP JUMPDEST PUSH1 0x40 MLOAD SWAP1 PUSH2 0x1698 DUP3 PUSH2 0x117B JUMP JUMPDEST PUSH1 0x1 DUP3 MSTORE PUSH1 0x20 CALLDATASIZE DUP2 DUP5 ADD CALLDATACOPY PUSH2 0x16AC DUP3 PUSH2 0x13E0 JUMP JUMPDEST MSTORE SWAP1 JUMP JUMPDEST SWAP1 PUSH1 0x1 DUP3 DUP2 SHR SWAP3 AND DUP1 ISZERO PUSH2 0x16E0 JUMPI JUMPDEST PUSH1 0x20 DUP4 LT EQ PUSH2 0x16CA JUMPI JUMP JUMPDEST PUSH4 0x4E487B71 PUSH1 0xE0 SHL PUSH1 0x0 MSTORE PUSH1 0x22 PUSH1 0x4 MSTORE PUSH1 0x24 PUSH1 0x0 REVERT JUMPDEST SWAP2 PUSH1 0x7F AND SWAP2 PUSH2 0x16BF JUMP JUMPDEST SWAP1 PUSH1 0x1 DUP1 PUSH1 0xA0 SHL SUB SWAP1 PUSH1 0x4 DUP3 DUP2 SLOAD AND PUSH1 0x40 SWAP4 DUP5 MLOAD SWAP6 PUSH4 0x70A08231 PUSH1 0xE0 SHL DUP8 MSTORE AND DUP1 DUP4 DUP8 ADD MSTORE PUSH1 0x20 SWAP1 PUSH1 0x24 DUP3 DUP9 DUP3 DUP2 DUP8 GAS STATICCALL SWAP8 DUP9 ISZERO PUSH2 0x18F1 JUMPI PUSH1 0x0 SWAP9 PUSH2 0x18C2 JUMPI JUMPDEST POP DUP8 ISZERO PUSH2 0x18B5 JUMPI PUSH1 0x0 JUMPDEST DUP9 DUP2 LT PUSH2 0x1749 JUMPI POP POP POP POP POP POP POP POP POP PUSH1 0x0 SWAP1 JUMP JUMPDEST DUP8 MLOAD PUSH4 0x2F745C59 PUSH1 0xE0 SHL DUP2 MSTORE DUP4 DUP8 DUP3 ADD MSTORE DUP2 DUP4 DUP3 ADD MSTORE DUP5 DUP2 PUSH1 0x44 DUP2 DUP10 GAS STATICCALL SWAP1 DUP2 ISZERO PUSH2 0x18AA JUMPI PUSH1 0x0 SWAP2 PUSH2 0x187D JUMPI JUMPDEST POP DUP9 MLOAD PUSH4 0x7510CFAF PUSH1 0xE0 SHL DUP2 MSTORE DUP8 DUP2 ADD DUP3 SWAP1 MSTORE DUP6 DUP2 DUP6 DUP2 DUP11 GAS STATICCALL PUSH1 0x0 SWAP2 DUP2 PUSH2 0x184E JUMPI JUMPDEST POP PUSH2 0x17AE JUMPI POP POP PUSH2 0x17A9 SWAP1 PUSH2 0x13BB JUMP JUMPDEST PUSH2 0x1734 JUMP JUMPDEST DUP10 MLOAD SWAP2 PUSH4 0xB3474D7 PUSH1 0xE2 SHL DUP4 MSTORE DUP9 DUP4 ADD MSTORE DUP6 DUP3 DUP6 DUP2 DUP11 GAS STATICCALL SWAP2 DUP3 ISZERO PUSH2 0x1843 JUMPI SWAP1 DUP10 SWAP2 PUSH1 0x0 SWAP4 PUSH2 0x1806 JUMPI JUMPDEST POP EQ SWAP1 DUP2 PUSH2 0x17FD JUMPI JUMPDEST POP PUSH2 0x17EF JUMPI PUSH2 0x17A9 SWAP1 PUSH2 0x13BB JUMP JUMPDEST POP POP POP POP POP POP POP POP POP PUSH1 0x1 SWAP1 JUMP JUMPDEST SWAP1 POP ISZERO CODESIZE PUSH2 0x17E1 JUMP JUMPDEST SWAP1 SWAP3 SWAP2 POP DUP7 DUP2 DUP2 RETURNDATASIZE DUP4 GT PUSH2 0x183C JUMPI JUMPDEST PUSH2 0x181F DUP2 DUP4 PUSH2 0x11AD JUMP JUMPDEST DUP2 ADD SUB SLT PUSH2 0x435 JUMPI MLOAD SWAP1 DUP2 ISZERO ISZERO DUP3 SUB PUSH2 0x909 JUMPI POP DUP9 SWAP1 SWAP2 CODESIZE PUSH2 0x17D8 JUMP JUMPDEST POP RETURNDATASIZE PUSH2 0x1815 JUMP JUMPDEST DUP11 MLOAD RETURNDATASIZE PUSH1 0x0 DUP3 RETURNDATACOPY RETURNDATASIZE SWAP1 REVERT JUMPDEST SWAP1 SWAP2 DUP8 DUP3 DUP2 RETURNDATASIZE DUP4 GT PUSH2 0x1876 JUMPI JUMPDEST PUSH2 0x1865 DUP2 DUP4 PUSH2 0x11AD JUMP JUMPDEST DUP2 ADD SUB SLT PUSH2 0x909 JUMPI POP MLOAD SWAP1 CODESIZE PUSH2 0x1799 JUMP JUMPDEST POP RETURNDATASIZE PUSH2 0x185B JUMP JUMPDEST SWAP1 DUP6 DUP3 DUP2 RETURNDATASIZE DUP4 GT PUSH2 0x18A3 JUMPI JUMPDEST PUSH2 0x1893 DUP2 DUP4 PUSH2 0x11AD JUMP JUMPDEST DUP2 ADD SUB SLT PUSH2 0x909 JUMPI POP MLOAD CODESIZE PUSH2 0x1776 JUMP JUMPDEST POP RETURNDATASIZE PUSH2 0x1889 JUMP JUMPDEST DUP10 MLOAD RETURNDATASIZE PUSH1 0x0 DUP3 RETURNDATACOPY RETURNDATASIZE SWAP1 REVERT JUMPDEST POP POP POP POP POP POP POP POP PUSH1 0x0 SWAP1 JUMP JUMPDEST SWAP1 SWAP8 DUP4 DUP3 DUP2 RETURNDATASIZE DUP4 GT PUSH2 0x18EA JUMPI JUMPDEST PUSH2 0x18D9 DUP2 DUP4 PUSH2 0x11AD JUMP JUMPDEST DUP2 ADD SUB SLT PUSH2 0x909 JUMPI POP MLOAD SWAP7 CODESIZE PUSH2 0x172A JUMP JUMPDEST POP RETURNDATASIZE PUSH2 0x18CF JUMP JUMPDEST DUP8 MLOAD RETURNDATASIZE PUSH1 0x0 DUP3 RETURNDATACOPY RETURNDATASIZE SWAP1 REVERT INVALID LOG2 PUSH5 0x6970667358 0x22 SLT KECCAK256 0x2C 0xD9 SLT SWAP5 PUSH30 0x72FF08C84E7BE9897A91B74A5EF2ECB0163989C7E7B1C8C44F12F664736F PUSH13 0x63430008140033000000000000 "},"methodIdentifiers":{"balanceOf(address,uint256)":"00fdd58e","balanceOfBatch(address[],uint256[])":"4e1273f4","claimPOAP(uint256)":"9365fc87","hasClaimed(uint256,address)":"873f6f9e","isApprovedForAll(address,address)":"e985e9c5","isVerifiedAttendee(address,uint256)":"ef049341","owner()":"8da5cb5b","renounceOwnership()":"715018a6","safeBatchTransferFrom(address,address,uint256[],uint256[],bytes)":"2eb2c2d6","safeTransferFrom(address,address,uint256,uint256,bytes)":"f242432a","setApprovalForAll(address,bool)":"a22cb465","setEventURI(uint256,string)":"16d35d71","supportsInterface(bytes4)":"01ffc9a7","ticketContract()":"58a86e1d","transferOwnership(address)":"f2fde38b","uri(uint256)":"0e89341c"}},"storageLayout":{"storage":[{"astId":184,"contract":"contracts/POAPDistributor.sol:POAPDistributor","label":"_balances","offset":0,"slot":"0","type":"t_mapping(t_uint256,t_mapping(t_address,t_uint256))"},{"astId":190,"contract":"contracts/POAPDistributor.sol:POAPDistributor","label":"_operatorApprovals","offset":0,"slot":"1","type":"t_mapping(t_address,t_mapping(t_address,t_bool))"},{"astId":192,"contract":"contracts/POAPDistributor.sol:POAPDistributor","label":"_uri","offset":0,"slot":"2","type":"t_string_storage"},{"astId":53,"contract":"contracts/POAPDistributor.sol:POAPDistributor","label":"_owner","offset":0,"slot":"3","type":"t_address"},{"astId":5198,"contract":"contracts/POAPDistributor.sol:POAPDistributor","label":"ticketContract","offset":0,"slot":"4","type":"t_contract(TicketNFT)5873"},{"astId":5204,"contract":"contracts/POAPDistributor.sol:POAPDistributor","label":"_hasClaimed","offset":0,"slot":"5","type":"t_mapping(t_uint256,t_mapping(t_address,t_bool))"},{"astId":5208,"contract":"contracts/POAPDistributor.sol:POAPDistributor","label":"_uris","offset":0,"slot":"6","type":"t_mapping(t_uint256,t_string_storage)"}],"types":{"t_address":{"encoding":"inplace","label":"address","numberOfBytes":"20"},"t_bool":{"encoding":"inplace","label":"bool","numberOfBytes":"1"},"t_contract(TicketNFT)5873":{"encoding":"inplace","label":"contract TicketNFT","numberOfBytes":"20"},"t_mapping(t_address,t_bool)":{"encoding":"mapping","key":"t_address","label":"mapping(address => bool)","numberOfBytes":"32","value":"t_bool"},"t_mapping(t_address,t_mapping(t_address,t_bool))":{"encoding":"mapping","key":"t_address","label":"mapping(address => mapping(address => bool))","numberOfBytes":"32","value":"t_mapping(t_address,t_bool)"},"t_mapping(t_address,t_uint256)":{"encoding":"mapping","key":"t_address","label":"mapping(address => uint256)","numberOfBytes":"32","value":"t_uint256"},"t_mapping(t_uint256,t_mapping(t_address,t_bool))":{"encoding":"mapping","key":"t_uint256","label":"mapping(uint256 => mapping(address => bool))","numberOfBytes":"32","value":"t_mapping(t_address,t_bool)"},"t_mapping(t_uint256,t_mapping(t_address,t_uint256))":{"encoding":"mapping","key":"t_uint256","label":"mapping(uint256 => mapping(address => uint256))","numberOfBytes":"32","value":"t_mapping(t_address,t_uint256)"},"t_mapping(t_uint256,t_string_storage)":{"encoding":"mapping","key":"t_uint256","label":"mapping(uint256 => string)","numberOfBytes":"32","value":"t_string_storage"},"t_string_storage":{"encoding":"bytes","label":"string","numberOfBytes":"32"},"t_uint256":{"encoding":"inplace","label":"uint256","numberOfBytes":"32"}}}}}}