{"contracts/TicketNFT.sol":{"TicketNFT":{"abi":[{"inputs":[{"internalType":"address","name":"eventFactoryAddress","type":"address"}],"stateMutability":"nonpayable","type":"constructor"},{"anonymous":false,"inputs":[{"indexed":true,"internalType":"address","name":"owner","type":"address"},{"indexed":true,"internalType":"address","name":"approved","type":"address"},{"indexed":true,"internalType":"uint256","name":"tokenId","type":"uint256"}],"name":"Approval","type":"event"},{"anonymous":false,"inputs":[{"indexed":true,"internalType":"address","name":"owner","type":"address"},{"indexed":true,"internalType":"address","name":"operator","type":"address"},{"indexed":false,"internalType":"bool","name":"approved","type":"bool"}],"name":"ApprovalForAll","type":"event"},{"anonymous":false,"inputs":[{"indexed":true,"internalType":"address","name":"previousOwner","type":"address"},{"indexed":true,"internalType":"address","name":"newOwner","type":"address"}],"name":"OwnershipTransferred","type":"event"},{"anonymous":false,"inputs":[{"indexed":true,"internalType":"uint256","name":"tokenId","type":"uint256"},{"indexed":true,"internalType":"uint256","name":"eventId","type":"uint256"},{"indexed":true,"internalType":"address","name":"owner","type":"address"}],"name":"TicketBurned","type":"event"},{"anonymous":false,"inputs":[{"indexed":true,"internalType":"uint256","name":"tokenId","type":"uint256"},{"indexed":true,"internalType":"address","name":"attendee","type":"address"},{"indexed":true,"internalType":"uint256","name":"eventId","type":"uint256"}],"name":"TicketMinted","type":"event"},{"anonymous":false,"inputs":[{"indexed":true,"internalType":"uint256","name":"tokenId","type":"uint256"},{"indexed":true,"internalType":"uint256","name":"eventId","type":"uint256"},{"indexed":true,"internalType":"address","name":"owner","type":"address"}],"name":"TicketUsed","type":"event"},{"anonymous":false,"inputs":[{"indexed":true,"internalType":"uint256","name":"eventId","type":"uint256"},{"indexed":true,"internalType":"address","name":"attendee","type":"address"},{"indexed":false,"internalType":"uint256","name":"amountConverted","type":"uint256"},{"indexed":false,"internalType":"uint256","name":"remainingERC1155Balance","type":"uint256"}],"name":"TicketsConverted","type":"event"},{"anonymous":false,"inputs":[{"indexed":true,"internalType":"address","name":"from","type":"address"},{"indexed":true,"internalType":"address","name":"to","type":"address"},{"indexed":true,"internalType":"uint256","name":"tokenId","type":"uint256"}],"name":"Transfer","type":"event"},{"inputs":[{"internalType":"address","name":"to","type":"address"},{"internalType":"uint256","name":"tokenId","type":"uint256"}],"name":"approve","outputs":[],"stateMutability":"nonpayable","type":"function"},{"inputs":[{"internalType":"address","name":"owner","type":"address"}],"name":"balanceOf","outputs":[{"internalType":"uint256","name":"","type":"uint256"}],"stateMutability":"view","type":"function"},{"inputs":[{"internalType":"uint256","name":"tokenId","type":"uint256"}],"name":"burnTicket","outputs":[],"stateMutability":"nonpayable","type":"function"},{"inputs":[],"name":"eventFactory","outputs":[{"internalType":"contract EventFactory","name":"","type":"address"}],"stateMutability":"view","type":"function"},{"inputs":[{"internalType":"uint256","name":"tokenId","type":"uint256"}],"name":"getApproved","outputs":[{"internalType":"address","name":"","type":"address"}],"stateMutability":"view","type":"function"},{"inputs":[{"internalType":"uint256","name":"tokenId","type":"uint256"}],"name":"getTicketEventId","outputs":[{"internalType":"uint256","name":"","type":"uint256"}],"stateMutability":"view","type":"function"},{"inputs":[{"internalType":"address","name":"owner","type":"address"},{"internalType":"address","name":"operator","type":"address"}],"name":"isApprovedForAll","outputs":[{"internalType":"bool","name":"","type":"bool"}],"stateMutability":"view","type":"function"},{"inputs":[{"internalType":"uint256","name":"tokenId","type":"uint256"}],"name":"isTicketUsed","outputs":[{"internalType":"bool","name":"","type":"bool"}],"stateMutability":"view","type":"function"},{"inputs":[{"internalType":"address","name":"attendee","type":"address"},{"internalType":"uint256","name":"eventId","type":"uint256"},{"internalType":"string","name":"ipfsCID","type":"string"}],"name":"mintTicket","outputs":[],"stateMutability":"nonpayable","type":"function"},{"inputs":[{"internalType":"uint256","name":"eventId","type":"uint256"},{"internalType":"uint256","name":"amount","type":"uint256"}],"name":"mintTicketsFromFactory","outputs":[],"stateMutability":"nonpayable","type":"function"},{"inputs":[],"name":"minter","outputs":[{"internalType":"address","name":"","type":"address"}],"stateMutability":"view","type":"function"},{"inputs":[],"name":"name","outputs":[{"internalType":"string","name":"","type":"string"}],"stateMutability":"view","type":"function"},{"inputs":[],"name":"owner","outputs":[{"internalType":"address","name":"","type":"address"}],"stateMutability":"view","type":"function"},{"inputs":[{"internalType":"uint256","name":"tokenId","type":"uint256"}],"name":"ownerOf","outputs":[{"internalType":"address","name":"","type":"address"}],"stateMutability":"view","type":"function"},{"inputs":[],"name":"renounceOwnership","outputs":[],"stateMutability":"nonpayable","type":"function"},{"inputs":[{"internalType":"address","name":"from","type":"address"},{"internalType":"address","name":"to","type":"address"},{"internalType":"uint256","name":"tokenId","type":"uint256"}],"name":"safeTransferFrom","outputs":[],"stateMutability":"nonpayable","type":"function"},{"inputs":[{"internalType":"address","name":"from","type":"address"},{"internalType":"address","name":"to","type":"address"},{"internalType":"uint256","name":"tokenId","type":"uint256"},{"internalType":"bytes","name":"data","type":"bytes"}],"name":"safeTransferFrom","outputs":[],"stateMutability":"nonpayable","type":"function"},{"inputs":[{"internalType":"address","name":"operator","type":"address"},{"internalType":"bool","name":"approved","type":"bool"}],"name":"setApprovalForAll","outputs":[],"stateMutability":"nonpayable","type":"function"},{"inputs":[{"internalType":"address","name":"_minter","type":"address"}],"name":"setMinter","outputs":[],"stateMutability":"nonpayable","type":"function"},{"inputs":[{"internalType":"bytes4","name":"interfaceId","type":"bytes4"}],"name":"supportsInterface","outputs":[{"internalType":"bool","name":"","type":"bool"}],"stateMutability":"view","type":"function"},{"inputs":[],"name":"symbol","outputs":[{"internalType":"string","name":"","type":"string"}],"stateMutability":"view","type":"function"},{"inputs":[{"internalType":"uint256","name":"","type":"uint256"}],"name":"tickets","outputs":[{"internalType":"uint256","name":"eventId","type":"uint256"},{"internalType":"string","name":"ipfsCID","type":"string"},{"internalType":"bool","name":"used","type":"bool"}],"stateMutability":"view","type":"function"},{"inputs":[{"internalType":"uint256","name":"index","type":"uint256"}],"name":"tokenByIndex","outputs":[{"internalType":"uint256","name":"","type":"uint256"}],"stateMutability":"view","type":"function"},{"inputs":[{"internalType":"address","name":"owner","type":"address"},{"internalType":"uint256","name":"index","type":"uint256"}],"name":"tokenOfOwnerByIndex","outputs":[{"internalType":"uint256","name":"","type":"uint256"}],"stateMutability":"view","type":"function"},{"inputs":[{"internalType":"uint256","name":"tokenId","type":"uint256"}],"name":"tokenURI","outputs":[{"internalType":"string","name":"","type":"string"}],"stateMutability":"view","type":"function"},{"inputs":[],"name":"totalSupply","outputs":[{"internalType":"uint256","name":"","type":"uint256"}],"stateMutability":"view","type":"function"},{"inputs":[{"internalType":"address","name":"from","type":"address"},{"internalType":"address","name":"to","type":"address"},{"internalType":"uint256","name":"tokenId","type":"uint256"}],"name":"transferFrom","outputs":[],"stateMutability":"nonpayable","type":"function"},{"inputs":[{"internalType":"address","name":"newOwner","type":"address"}],"name":"transferOwnership","outputs":[],"stateMutability":"nonpayable","type":"function"},{"inputs":[{"internalType":"uint256","name":"tokenId","type":"uint256"}],"name":"useTicket","outputs":[],"stateMutability":"nonpayable","type":"function"}],"evm":{"bytecode":{"linkReferences":{},"object":"608034620003a457601f906001600160401b0390601f19906200296f3881900385810184168301858111848210176200038e57839282916040528339602092839181010312620003a457516001600160a01b03948582169491859003620003a4576200006a620003a9565b92600c84526b115d995b9d08151a58dad95d60a21b818501526200008d620003a9565b906006825265151250d2d15560d21b818301528451958487116200038e576000968754966001978881811c9116801562000383575b858210146200036f579081878493116200031c575b508490878311600114620002bb578a92620002af575b5050600019600383901b1c191690871b1787555b82519485116200029b5785548681811c9116801562000290575b838210146200027c5790818587969594931162000223575b5081938511600114620001be5750508592620001b2575b5050600019600383901b1c191690821b1790555b600a5460018060a01b0319913383831617600a557f8be0079c531659141344cd1fd0a4f28419497f9722a3daafe3b4186f6b6457e0604051953393169180a3600c541617600c556125a59081620003ca8239f35b0151905038806200014a565b869593929193168588528388209388905b828210620002095750508411620001ef575b505050811b0190556200015e565b015160001960f88460031b161c19169055388080620001e1565b8484015186558897909501949384019390810190620001cf565b9091929394508688528288208580880160051c82019285891062000272575b9188978a9297969594930160051c01915b8281106200026357505062000133565b8a815588975089910162000253565b9250819262000242565b634e487b7160e01b88526022600452602488fd5b90607f16906200011b565b634e487b7160e01b87526041600452602487fd5b015190503880620000ed565b90848a9416918b8052868c20928c5b88828210620003055750508411620002eb575b505050811b01875562000101565b015160001960f88460031b161c19169055388080620002dd565b8385015186558d97909501949384019301620002ca565b909150898052848a208780850160051c82019287861062000365575b918b91869594930160051c01915b82811062000356575050620000d7565b8c81558594508b910162000346565b9250819262000338565b634e487b7160e01b8a52602260045260248afd5b90607f1690620000c2565b634e487b7160e01b600052604160045260246000fd5b600080fd5b60408051919082016001600160401b038111838210176200038e5760405256fe608080604052600436101561001357600080fd5b600090813560e01c90816301ffc9a7146119485750806303543fea1461169d57806306fdde03146115f957806307546172146115d0578063081812fc146115b1578063095ea7b31461143c57806318160ddd1461141e57806323b872dd146113f457806326606448146113055780632cd1d35c146112b15780632f745c591461120457806342842e0e146111b25780634f6ccce71461112057806350b447121461102b5780636352211e14610ffa5780636fdbd3f614610fd157806370a0823114610fa5578063715018a614610f485780637510cfaf14610efc5780638da5cb5b14610ed357806395d89b4114610df0578063a22cb46514610d17578063a476b73d1461099e578063b2a2faaf14610460578063b88d4fde146103f8578063c87b56dd146102bc578063e985e9c514610268578063f2fde38b146101a25763fca3b5aa1461016057600080fd5b3461019f57602036600319011261019f576101796119cf565b610181611b59565b60018060a01b03166001600160601b0360a01b600e541617600e5580f35b80fd5b503461019f57602036600319011261019f576101bc6119cf565b6101c4611b59565b6001600160a01b0390811690811561021457600a54826001600160601b0360a01b821617600a55167f8be0079c531659141344cd1fd0a4f28419497f9722a3daafe3b4186f6b6457e0600080a380f35b60405162461bcd60e51b815260206004820152602660248201527f4f776e61626c653a206e6577206f776e657220697320746865207a65726f206160448201526564647265737360d01b6064820152608490fd5b503461019f57604036600319011261019f576102826119cf565b604061028c6119e5565b9260018060a01b0380931681526005602052209116600052602052602060ff604060002054166040519015158152f35b503461019f576020806003193601126103f4576004356000818152600260205260409020546102fa906001600160a01b03161515611c28565b611c28565b8252600d81526001918260408220019260405193849266697066733a2f2f60c81b85850152809282549261032d84611b1f565b938281169081156103ca5750600114610385575b858761036d600e83896d17b6b2ba30b230ba30973539b7b760911b815203601119810185520183611a2d565b610381604051928284938452830190611ac5565b0390f35b9091809395945052848083205b8584106103b2575050505080602761036d93600e93010191819338610341565b80548885016027015287945092019185908201610392565b915050600e94506027925061036d9593915060ff1916828401528015150282010191819338610341565b5080fd5b503461019f57608036600319011261019f576104126119cf565b61041a6119e5565b6064359167ffffffffffffffff831161045c573660238401121561045c5761044f610459933690602481600401359101611a6b565b9160443591611d3a565b80f35b8380fd5b503461019f57604036600319011261019f57600c546040516349287c0b60e01b815260048035908201526001600160a01b0390911690602081602481855afa8015610958578390610963575b6104b69150612326565b604051638f118fe360e01b815233600480830191909152356024820152602081604481855afa908115610958578391610926575b50602435116108e1578082913b156108de578190606460405180948193637a94c56560e11b8352336004840152600435602484015260243560448401525af18015610634576108b2575b50600c54604051630761c6ad60e51b81526004803590820152908290829060249082906001600160a01b03165afa908115610634578291610813575b50815b602435811061063f57600c54604051638f118fe360e01b8152336004808301919091523560248201528491602090829060449082906001600160a01b03165afa9081156106345782916105fd575b50604051906024358252602082015233907f6a69bf77722441c5a59124f665722f0ad4c8cf4f7d97beafd09310d3e5d42b40604060043592a380f35b90506020813d60201161062c575b8161061860209383611a2d565b810103126106275751826105c1565b600080fd5b3d915061060b565b6040513d84823e3d90fd5b600b80549061064d82612560565b905560405161065b816119fb565b60043581526020810190848252856040820152828652600d6020526040862091815183555180519067ffffffffffffffff82116107ff5761069f6001850154611b1f565b90601f918281116107c4575b506020918311600114610749576107009383610739989796946002946040948d9261073e575b50508160011b916000199060031b1c19161760018501555b0151151591019060ff801983541691151516179055565b61070a81336123d5565b6004359033907f5c1c9352d51031acc9a558d7cdcca15b0ce5fe4f46d7315cca355248175b0a378780a4612560565b610573565b0151905038806106d1565b906001850189526020892091895b601f19851681106107ac575093600184600294604094610700986107399c9b9a98601f19811610610793575b505050811b0160018501556106e9565b015160001960f88460031b161c19169055388080610783565b91926020600181928685015181550194019201610757565b6107f090600187018b5260208b20600585808801821c830193602089106107f6575b01901c0190612372565b386106ab565b935082936107e6565b634e487b7160e01b88526041600452602488fd5b90503d8083833e6108248183611a2d565b810190610100818303126108aa57805167ffffffffffffffff908181116108ae578361085191840161251e565b5060408201518181116108ae578361086a91840161251e565b9260608301519182116108ae5761088291830161251e565b5060808101516001600160a01b038116036108aa5760a06108a39101612319565b5038610570565b8280fd5b8480fd5b67ffffffffffffffff81116108ca5760405238610534565b634e487b7160e01b82526041600452602482fd5b50fd5b60405162461bcd60e51b815260206004820152601c60248201527f496e73756666696369656e742045524331313535207469636b657473000000006044820152606490fd5b90506020813d602011610950575b8161094160209383611a2d565b810103126108aa5751386104ea565b3d9150610934565b6040513d85823e3d90fd5b506020813d602011610996575b8161097d60209383611a2d565b810103126108aa576109916104b691612319565b6104ac565b3d9150610970565b503461019f576020806003193601126103f457600435906109bd611b59565b6000828152600260205260409020546109e0906001600160a01b03161515611c28565b818352600d81526040832054906109f683611c74565b6109ff84611c74565b6001600160a01b03928184168015928315610c8d57505060085486885260098252806040892055600160401b8110156107ff5786610a46826001610a5f9401600855612287565b90919082549060031b91821b91600019901b1916179055565b6008546000199290838101908111610c795787895260098352610a8660408a205491612287565b90549060031b1c610a9a81610a4684612287565b89526009835260408920558688528760408120556008548015610c655788929184899201610ac781612287565b8782549160031b1b191690556008551580610c5e575b610be7575b8260029394610af083611c74565b838352600485528860408420916001600160601b0360a01b9283815416905516918284526003865260408420908154019055838352858552604083209081541690557fddf252ad1be2c89b69c2b068fc378daa952ba7f163c4a11628f55a4df523b3ef8280a4600d81528260408120918183556001830190610b728254611b1f565b9081610ba8575b50505050015516917f50d459b3df6d4d2831ef5996a57caa721fb381b00bf5309a64f099895047948c8480a480f35b8390601f8311600114610bc357505050555b82388080610b79565b8382528120929091610be090601f0160051c840160018501612372565b5555610bba565b90929152600d825260ff600260408920015416610c075790869086610ae2565b60405162461bcd60e51b815260048101839052602960248201527f5469636b65743a2075736564207469636b65742063616e6e6f74206265207472604482015268185b9cd9995c9c995960ba1b6064820152608490fd5b5082610add565b634e487b7160e01b89526031600452602489fd5b634e487b7160e01b89526011600452602489fd5b610c9690611bb1565b600019810191908211610c7957878952600783526040892054828103610cdb575b50878952886040812055885260068252604088209088528152866040812055610a5f565b818a526006845260408a20838b52845260408a2054828b526006855260408b20828c5285528060408c20558a526007845260408a205538610cb7565b503461019f57604036600319011261019f57610d316119cf565b602435908115159081830361045c576001600160a01b031691338314610dab57610d7c90338552600560205260408520848652602052604085209060ff801983541691151516179055565b6040519081527f17307eab39ab6107e8899845ad3d59bd9653f200f220920489ca2b5937696c3160203392a380f35b60405162461bcd60e51b815260206004820152601960248201527f4552433732313a20617070726f766520746f2063616c6c6572000000000000006044820152606490fd5b503461019f578060031936011261019f5760405190806001805491610e1483611b1f565b80865292828116908115610ea95750600114610e4f575b61038185610e3b81870382611a2d565b604051918291602083526020830190611ac5565b92508083527fb10e2d527612073b26eecdfd717e6a320cf44b4afac2b0732d9fcbe2b7fa0cf65b828410610e91575050508101602001610e3b82610381610e2b565b80546020858701810191909152909301928101610e76565b86955061038196935060209250610e3b94915060ff191682840152151560051b8201019293610e2b565b503461019f578060031936011261019f57600a546040516001600160a01b039091168152602090f35b503461019f57602036600319011261019f576040602091600435610f386102f582600052600260205260018060a01b0360406000205416151590565b8152600d83522054604051908152f35b503461019f578060031936011261019f57610f61611b59565b600a80546001600160a01b0319811690915581906001600160a01b03167f8be0079c531659141344cd1fd0a4f28419497f9722a3daafe3b4186f6b6457e08280a380f35b503461019f57602036600319011261019f576020610fc9610fc46119cf565b611bb1565b604051908152f35b503461019f578060031936011261019f57600c546040516001600160a01b039091168152602090f35b503461019f57602036600319011261019f576020611019600435611c74565b6040516001600160a01b039091168152f35b503461019f576020908160031936011261019f576004358152600d82526040812090815491600180820192856040519485938382549261106a84611b1f565b808852938381169081156110fb57506001146110bf575b848a886110b360ff60028d611098858e0386611a2d565b01541691606060405195869586528501526060840190611ac5565b90151560408301520390f35b9080949550528383205b8284106110e557505050820101856110988360026110b3611081565b80548885018601528795509284019281016110c9565b60ff19168689015250505050151560051b8301019050856110988360026110b3611081565b503461019f57602036600319011261019f576004356008548110156111585761114a602091612287565b90546040519160031b1c8152f35b60405162461bcd60e51b815260206004820152602c60248201527f455243373231456e756d657261626c653a20676c6f62616c20696e646578206f60448201526b7574206f6620626f756e647360a01b6064820152608490fd5b503461019f576111c136611aea565b60409392935191602083019483861067ffffffffffffffff8711176111f0576104599495604052858452611d3a565b634e487b7160e01b85526041600452602485fd5b503461019f57604036600319011261019f5761121e6119cf565b6024359161122b82611bb1565b8310156112585760209260409260018060a01b031682526006845282822090825283522054604051908152f35b60405162461bcd60e51b815260206004820152602b60248201527f455243373231456e756d657261626c653a206f776e657220696e646578206f7560448201526a74206f6620626f756e647360a81b6064820152608490fd5b503461019f57602036600319011261019f5760ff600260406020936004356112f16102f582600052600260205260018060a01b0360406000205416151590565b8152600d8552200154166040519015158152f35b503461019f57602036600319011261019f5760043560018060a01b0361133081600e541633146122d4565b600082815260026020526040902054611353906001600160a01b03161515611c28565b818352600d60205260ff6002604085200154166113b957818352600d6020526040832060028101805460ff19166001179055549061139083611c74565b16917fb35ebdfb9515b145e406c5c5a0846ec436db0b9560927af3af7a754d90c4f6ff8480a480f35b60405162461bcd60e51b8152602060048201526013602482015272151a58dad95d08185b1c9958591e481d5cd959606a1b6044820152606490fd5b503461019f5761045961140636611aea565b916114196114148433611dd5565b611cd8565b611e9d565b503461019f578060031936011261019f576020600854604051908152f35b503461019f57604036600319011261019f576114566119cf565b602435906001600160a01b03808061146d85611c74565b1692169180831461156257803314908115611541575b50156114d65782845260046020526040842080546001600160a01b031916831790556114ae83611c74565b167f8c5be1e5ebec7d5bd14f71427d1e84f3dd0314c0f7b2291e5b200ac8c7c3b9258480a480f35b60405162461bcd60e51b815260206004820152603d60248201527f4552433732313a20617070726f76652063616c6c6572206973206e6f7420746f60448201527f6b656e206f776e6572206f7220617070726f76656420666f7220616c6c0000006064820152608490fd5b9050845260056020526040842033855260205260ff60408520541638611483565b60405162461bcd60e51b815260206004820152602160248201527f4552433732313a20617070726f76616c20746f2063757272656e74206f776e656044820152603960f91b6064820152608490fd5b503461019f57602036600319011261019f576020611019600435611c9a565b503461019f578060031936011261019f57600e546040516001600160a01b039091168152602090f35b503461019f578060031936011261019f576040519080805461161a81611b1f565b80855291600191808316908115610ea957506001146116435761038185610e3b81870382611a2d565b80809450527f290decd9548b62a8d60345a988386fc84ba6bc95484008f6362f93160ef3e5635b828410611685575050508101602001610e3b82610381610e2b565b8054602085870181019190915290930192810161166a565b503461019f57606036600319011261019f576116b76119cf565b6024359067ffffffffffffffff6044358181116108ae57366023820112156108ae576116ed903690602481600401359101611a6b565b9160018060a01b039161170583600e541633146122d4565b82600c541660405180916349287c0b60e01b825287600483015281602460209485935afa801561193d578890611903575b6117409150612326565b600b54946001928387018088116118ef57600b5560405193611761856119fb565b88855283850192835260408501938a8552888b52600d815260408b2095518655818601935180519384116118db5790849392916117a18d98979654611b1f565b601f81116118a2575b5081601f85116001146118325750928092819260029796956117f49a94611827575b50501b916000199060031b1c19161790555b51151591019060ff801983541691151516179055565b6117fe83826123d5565b16907f5c1c9352d51031acc9a558d7cdcca15b0ce5fe4f46d7315cca355248175b0a378480a480f35b0151925038806117cc565b601f9893959697981985169087855280852094905b82821061188b575050916117f4989795939185600298969410611872575b505050811b0190556117de565b015160001960f88460031b161c19169055388080611865565b808886978294978701518155019601940190611847565b6118cb90868a52838a20601f870160051c8101918588106118d1575b601f0160051c0190612372565b386117aa565b90915081906118be565b634e487b7160e01b8c52604160045260248cfd5b634e487b7160e01b8a52601160045260248afd5b508181813d8311611936575b6119198183611a2d565b810103126119325761192d61174091612319565b611736565b8780fd5b503d61190f565b6040513d8a823e3d90fd5b9050346103f45760203660031901126103f45760043563ffffffff60e01b81168091036108aa576020925063780e9d6360e01b811490811561198c575b5015158152f35b6380ac58cd60e01b8114915081156119be575b81156119ad575b5038611985565b6301ffc9a760e01b149050386119a6565b635b5e139f60e01b8114915061199f565b600435906001600160a01b038216820361062757565b602435906001600160a01b038216820361062757565b6060810190811067ffffffffffffffff821117611a1757604052565b634e487b7160e01b600052604160045260246000fd5b90601f8019910116810190811067ffffffffffffffff821117611a1757604052565b67ffffffffffffffff8111611a1757601f01601f191660200190565b929192611a7782611a4f565b91611a856040519384611a2d565b829481845281830111610627578281602093846000960137010152565b60005b838110611ab55750506000910152565b8181015183820152602001611aa5565b90602091611ade81518092818552858086019101611aa2565b601f01601f1916010190565b6060906003190112610627576001600160a01b0390600435828116810361062757916024359081168103610627579060443590565b90600182811c92168015611b4f575b6020831014611b3957565b634e487b7160e01b600052602260045260246000fd5b91607f1691611b2e565b600a546001600160a01b03163303611b6d57565b606460405162461bcd60e51b815260206004820152602060248201527f4f776e61626c653a2063616c6c6572206973206e6f7420746865206f776e65726044820152fd5b6001600160a01b03168015611bd157600052600360205260406000205490565b60405162461bcd60e51b815260206004820152602960248201527f4552433732313a2061646472657373207a65726f206973206e6f7420612076616044820152683634b21037bbb732b960b91b6064820152608490fd5b15611c2f57565b60405162461bcd60e51b815260206004820152601860248201527f4552433732313a20696e76616c696420746f6b656e20494400000000000000006044820152606490fd5b6000908152600260205260409020546001600160a01b0316611c97811515611c28565b90565b600081815260026020526040902054611cbd906001600160a01b03161515611c28565b6000908152600460205260409020546001600160a01b031690565b15611cdf57565b60405162461bcd60e51b815260206004820152602d60248201527f4552433732313a2063616c6c6572206973206e6f7420746f6b656e206f776e6560448201526c1c881bdc88185c1c1c9bdd9959609a1b6064820152608490fd5b90611d5e939291611d4e6114148433611dd5565b611d59838383611e9d565b61216a565b15611d6557565b60405162461bcd60e51b815280611d7e60048201611d82565b0390fd5b60809060208152603260208201527f4552433732313a207472616e7366657220746f206e6f6e20455243373231526560408201527131b2b4bb32b91034b6b83632b6b2b73a32b960711b60608201520190565b906001600160a01b038080611de984611c74565b16931691838314938415611e1c575b508315611e06575b50505090565b611e1291929350611c9a565b1614388080611e00565b909350600052600560205260406000208260005260205260ff604060002054169238611df8565b15611e4a57565b60405162461bcd60e51b815260206004820152602560248201527f4552433732313a207472616e736665722066726f6d20696e636f72726563742060448201526437bbb732b960d91b6064820152608490fd5b90611ec390611eab84611c74565b6001600160a01b038481169390929183168414611e43565b8181169384156121195783801591826000146120665750506008549186600052600960205282604060002055600160401b831015611a1757611f1087610a46856001899701600855612287565b828603612033575b50158061202b575b611fb4575b611f3991611f3286611c74565b1614611e43565b7fddf252ad1be2c89b69c2b068fc378daa952ba7f163c4a11628f55a4df523b3ef60008481526004602052604081206001600160601b0360a01b9081815416905583825260036020526040822060001981540190558482526040822060018154019055858252600260205284604083209182541617905580a4565b5083600052600d60205260ff60026040600020015416611fd45781611f25565b60405162461bcd60e51b815260206004820152602960248201527f5469636b65743a2075736564207469636b65742063616e6e6f74206265207472604482015268185b9cd9995c9c995960ba1b6064820152608490fd5b506001611f20565b61203c90611bb1565b60406000878152600660205281812083825260205288828220558881526007602052205538611f18565b8682949203612076575b50611f10565b612081919350611bb1565b60001981019290831161210357849260009088825260209060078252604091828420548281036120cc575b508a84528383812055868452600681528284209184525281205538612070565b87855260068252838520838652825283852054888652600683528486208287528352808587205585526007825283852055386120ac565b634e487b7160e01b600052601160045260246000fd5b60405162461bcd60e51b8152602060048201526024808201527f4552433732313a207472616e7366657220746f20746865207a65726f206164646044820152637265737360e01b6064820152608490fd5b92939190803b1561227d576121bc946040518092630a85bd0160e11b9485835233600484015260018060a01b03809816602484015260448301526080606483015281806020998a956084830190611ac5565b03916000988991165af184918161223d575b5061222c575050503d600014612224573d6121e881611a4f565b906121f66040519283611a2d565b81528091833d92013e5b805191826122215760405162461bcd60e51b815280611d7e60048201611d82565b01fd5b506060612200565b6001600160e01b0319161492509050565b9091508581813d8311612276575b6122558183611a2d565b810103126108ae57516001600160e01b0319811681036108ae5790386121ce565b503d61224b565b5050915050600190565b6008548110156122be5760086000527ff3f7a9fe364faab93b216da50a3214154f22a0a2b415b23a84c8169e8b636ee30190600090565b634e487b7160e01b600052603260045260246000fd5b156122db57565b60405162461bcd60e51b8152602060048201526016602482015275139bdd08185d5d1a1bdc9a5e9959081d1bc81b5a5b9d60521b6044820152606490fd5b5190811515820361062757565b1561232d57565b60405162461bcd60e51b815260206004820152601860248201527f496e76616c6964206f722065787069726564206576656e7400000000000000006044820152606490fd5b81811061237d575050565b60008155600101612372565b1561239057565b60405162461bcd60e51b815260206004820152601c60248201527f4552433732313a20746f6b656e20616c7265616479206d696e746564000000006044820152606490fd5b6001600160a01b0381169081156124da5760008381526002602052604090205461240b906001600160a01b031615155b15612389565b600854600091848352602090600982526040928084862055600160401b8110156111f05760029291610fc488610a4684600161244a9601600855612287565b858552600682528385208186528252838520879055868552600782528385205560008681526002602052604090205461248d906001600160a01b03161515612405565b848452600381528284208054600101905585845252812080546001600160a01b031916831790557fddf252ad1be2c89b69c2b068fc378daa952ba7f163c4a11628f55a4df523b3ef8180a4565b606460405162461bcd60e51b815260206004820152602060248201527f4552433732313a206d696e7420746f20746865207a65726f20616464726573736044820152fd5b81601f8201121561062757805161253481611a4f565b926125426040519485611a2d565b8184526020828401011161062757611c979160208085019101611aa2565b6000198114612103576001019056fea2646970667358221220be08a9f7b6f6d7422826535ea77ab4e4edca2806141948d8aea56401ff242b4864736f6c63430008140033","opcodes":"PUSH1 0x80 CALLVALUE PUSH3 0x3A4 JUMPI PUSH1 0x1F SWAP1 PUSH1 0x1 PUSH1 0x1 PUSH1 0x40 SHL SUB SWAP1 PUSH1 0x1F NOT SWAP1 PUSH3 0x296F CODESIZE DUP2 SWAP1 SUB DUP6 DUP2 ADD DUP5 AND DUP4 ADD DUP6 DUP2 GT DUP5 DUP3 LT OR PUSH3 0x38E JUMPI DUP4 SWAP3 DUP3 SWAP2 PUSH1 0x40 MSTORE DUP4 CODECOPY PUSH1 0x20 SWAP3 DUP4 SWAP2 DUP2 ADD SUB SLT PUSH3 0x3A4 JUMPI MLOAD PUSH1 0x1 PUSH1 0x1 PUSH1 0xA0 SHL SUB SWAP5 DUP6 DUP3 AND SWAP5 SWAP2 DUP6 SWAP1 SUB PUSH3 0x3A4 JUMPI PUSH3 0x6A PUSH3 0x3A9 JUMP JUMPDEST SWAP3 PUSH1 0xC DUP5 MSTORE PUSH12 0x115D995B9D08151A58DAD95D PUSH1 0xA2 SHL DUP2 DUP6 ADD MSTORE PUSH3 0x8D PUSH3 0x3A9 JUMP JUMPDEST SWAP1 PUSH1 0x6 DUP3 MSTORE PUSH6 0x151250D2D155 PUSH1 0xD2 SHL DUP2 DUP4 ADD MSTORE DUP5 MLOAD SWAP6 DUP5 DUP8 GT PUSH3 0x38E JUMPI PUSH1 0x0 SWAP7 DUP8 SLOAD SWAP7 PUSH1 0x1 SWAP8 DUP9 DUP2 DUP2 SHR SWAP2 AND DUP1 ISZERO PUSH3 0x383 JUMPI JUMPDEST DUP6 DUP3 LT EQ PUSH3 0x36F JUMPI SWAP1 DUP2 DUP8 DUP5 SWAP4 GT PUSH3 0x31C JUMPI JUMPDEST POP DUP5 SWAP1 DUP8 DUP4 GT PUSH1 0x1 EQ PUSH3 0x2BB JUMPI DUP11 SWAP3 PUSH3 0x2AF JUMPI JUMPDEST POP POP PUSH1 0x0 NOT PUSH1 0x3 DUP4 SWAP1 SHL SHR NOT AND SWAP1 DUP8 SHL OR DUP8 SSTORE JUMPDEST DUP3 MLOAD SWAP5 DUP6 GT PUSH3 0x29B JUMPI DUP6 SLOAD DUP7 DUP2 DUP2 SHR SWAP2 AND DUP1 ISZERO PUSH3 0x290 JUMPI JUMPDEST DUP4 DUP3 LT EQ PUSH3 0x27C JUMPI SWAP1 DUP2 DUP6 DUP8 SWAP7 SWAP6 SWAP5 SWAP4 GT PUSH3 0x223 JUMPI JUMPDEST POP DUP2 SWAP4 DUP6 GT PUSH1 0x1 EQ PUSH3 0x1BE JUMPI POP POP DUP6 SWAP3 PUSH3 0x1B2 JUMPI JUMPDEST POP POP PUSH1 0x0 NOT PUSH1 0x3 DUP4 SWAP1 SHL SHR NOT AND SWAP1 DUP3 SHL OR SWAP1 SSTORE JUMPDEST PUSH1 0xA SLOAD PUSH1 0x1 DUP1 PUSH1 0xA0 SHL SUB NOT SWAP2 CALLER DUP4 DUP4 AND OR PUSH1 0xA SSTORE PUSH32 0x8BE0079C531659141344CD1FD0A4F28419497F9722A3DAAFE3B4186F6B6457E0 PUSH1 0x40 MLOAD SWAP6 CALLER SWAP4 AND SWAP2 DUP1 LOG3 PUSH1 0xC SLOAD AND OR PUSH1 0xC SSTORE PUSH2 0x25A5 SWAP1 DUP2 PUSH3 0x3CA DUP3 CODECOPY RETURN JUMPDEST ADD MLOAD SWAP1 POP CODESIZE DUP1 PUSH3 0x14A JUMP JUMPDEST DUP7 SWAP6 SWAP4 SWAP3 SWAP2 SWAP4 AND DUP6 DUP9 MSTORE DUP4 DUP9 KECCAK256 SWAP4 DUP9 SWAP1 JUMPDEST DUP3 DUP3 LT PUSH3 0x209 JUMPI POP POP DUP5 GT PUSH3 0x1EF JUMPI JUMPDEST POP POP POP DUP2 SHL ADD SWAP1 SSTORE PUSH3 0x15E JUMP JUMPDEST ADD MLOAD PUSH1 0x0 NOT PUSH1 0xF8 DUP5 PUSH1 0x3 SHL AND SHR NOT AND SWAP1 SSTORE CODESIZE DUP1 DUP1 PUSH3 0x1E1 JUMP JUMPDEST DUP5 DUP5 ADD MLOAD DUP7 SSTORE DUP9 SWAP8 SWAP1 SWAP6 ADD SWAP5 SWAP4 DUP5 ADD SWAP4 SWAP1 DUP2 ADD SWAP1 PUSH3 0x1CF JUMP JUMPDEST SWAP1 SWAP2 SWAP3 SWAP4 SWAP5 POP DUP7 DUP9 MSTORE DUP3 DUP9 KECCAK256 DUP6 DUP1 DUP9 ADD PUSH1 0x5 SHR DUP3 ADD SWAP3 DUP6 DUP10 LT PUSH3 0x272 JUMPI JUMPDEST SWAP2 DUP9 SWAP8 DUP11 SWAP3 SWAP8 SWAP7 SWAP6 SWAP5 SWAP4 ADD PUSH1 0x5 SHR ADD SWAP2 JUMPDEST DUP3 DUP2 LT PUSH3 0x263 JUMPI POP POP PUSH3 0x133 JUMP JUMPDEST DUP11 DUP2 SSTORE DUP9 SWAP8 POP DUP10 SWAP2 ADD PUSH3 0x253 JUMP JUMPDEST SWAP3 POP DUP2 SWAP3 PUSH3 0x242 JUMP JUMPDEST PUSH4 0x4E487B71 PUSH1 0xE0 SHL DUP9 MSTORE PUSH1 0x22 PUSH1 0x4 MSTORE PUSH1 0x24 DUP9 REVERT JUMPDEST SWAP1 PUSH1 0x7F AND SWAP1 PUSH3 0x11B JUMP JUMPDEST PUSH4 0x4E487B71 PUSH1 0xE0 SHL DUP8 MSTORE PUSH1 0x41 PUSH1 0x4 MSTORE PUSH1 0x24 DUP8 REVERT JUMPDEST ADD MLOAD SWAP1 POP CODESIZE DUP1 PUSH3 0xED JUMP JUMPDEST SWAP1 DUP5 DUP11 SWAP5 AND SWAP2 DUP12 DUP1 MSTORE DUP7 DUP13 KECCAK256 SWAP3 DUP13 JUMPDEST DUP9 DUP3 DUP3 LT PUSH3 0x305 JUMPI POP POP DUP5 GT PUSH3 0x2EB JUMPI JUMPDEST POP POP POP DUP2 SHL ADD DUP8 SSTORE PUSH3 0x101 JUMP JUMPDEST ADD MLOAD PUSH1 0x0 NOT PUSH1 0xF8 DUP5 PUSH1 0x3 SHL AND SHR NOT AND SWAP1 SSTORE CODESIZE DUP1 DUP1 PUSH3 0x2DD JUMP JUMPDEST DUP4 DUP6 ADD MLOAD DUP7 SSTORE DUP14 SWAP8 SWAP1 SWAP6 ADD SWAP5 SWAP4 DUP5 ADD SWAP4 ADD PUSH3 0x2CA JUMP JUMPDEST SWAP1 SWAP2 POP DUP10 DUP1 MSTORE DUP5 DUP11 KECCAK256 DUP8 DUP1 DUP6 ADD PUSH1 0x5 SHR DUP3 ADD SWAP3 DUP8 DUP7 LT PUSH3 0x365 JUMPI JUMPDEST SWAP2 DUP12 SWAP2 DUP7 SWAP6 SWAP5 SWAP4 ADD PUSH1 0x5 SHR ADD SWAP2 JUMPDEST DUP3 DUP2 LT PUSH3 0x356 JUMPI POP POP PUSH3 0xD7 JUMP JUMPDEST DUP13 DUP2 SSTORE DUP6 SWAP5 POP DUP12 SWAP2 ADD PUSH3 0x346 JUMP JUMPDEST SWAP3 POP DUP2 SWAP3 PUSH3 0x338 JUMP JUMPDEST PUSH4 0x4E487B71 PUSH1 0xE0 SHL DUP11 MSTORE PUSH1 0x22 PUSH1 0x4 MSTORE PUSH1 0x24 DUP11 REVERT JUMPDEST SWAP1 PUSH1 0x7F AND SWAP1 PUSH3 0xC2 JUMP JUMPDEST PUSH4 0x4E487B71 PUSH1 0xE0 SHL PUSH1 0x0 MSTORE PUSH1 0x41 PUSH1 0x4 MSTORE PUSH1 0x24 PUSH1 0x0 REVERT JUMPDEST PUSH1 0x0 DUP1 REVERT JUMPDEST PUSH1 0x40 DUP1 MLOAD SWAP2 SWAP1 DUP3 ADD PUSH1 0x1 PUSH1 0x1 PUSH1 0x40 SHL SUB DUP2 GT DUP4 DUP3 LT OR PUSH3 0x38E JUMPI PUSH1 0x40 MSTORE JUMP INVALID PUSH1 0x80 DUP1 PUSH1 0x40 MSTORE PUSH1 0x4 CALLDATASIZE LT ISZERO PUSH2 0x13 JUMPI PUSH1 0x0 DUP1 REVERT JUMPDEST PUSH1 0x0 SWAP1 DUP2 CALLDATALOAD PUSH1 0xE0 SHR SWAP1 DUP2 PUSH4 0x1FFC9A7 EQ PUSH2 0x1948 JUMPI POP DUP1 PUSH4 0x3543FEA EQ PUSH2 0x169D JUMPI DUP1 PUSH4 0x6FDDE03 EQ PUSH2 0x15F9 JUMPI DUP1 PUSH4 0x7546172 EQ PUSH2 0x15D0 JUMPI DUP1 PUSH4 0x81812FC EQ PUSH2 0x15B1 JUMPI DUP1 PUSH4 0x95EA7B3 EQ PUSH2 0x143C JUMPI DUP1 PUSH4 0x18160DDD EQ PUSH2 0x141E JUMPI DUP1 PUSH4 0x23B872DD EQ PUSH2 0x13F4 JUMPI DUP1 PUSH4 0x26606448 EQ PUSH2 0x1305 JUMPI DUP1 PUSH4 0x2CD1D35C EQ PUSH2 0x12B1 JUMPI DUP1 PUSH4 0x2F745C59 EQ PUSH2 0x1204 JUMPI DUP1 PUSH4 0x42842E0E EQ PUSH2 0x11B2 JUMPI DUP1 PUSH4 0x4F6CCCE7 EQ PUSH2 0x1120 JUMPI DUP1 PUSH4 0x50B44712 EQ PUSH2 0x102B JUMPI DUP1 PUSH4 0x6352211E EQ PUSH2 0xFFA JUMPI DUP1 PUSH4 0x6FDBD3F6 EQ PUSH2 0xFD1 JUMPI DUP1 PUSH4 0x70A08231 EQ PUSH2 0xFA5 JUMPI DUP1 PUSH4 0x715018A6 EQ PUSH2 0xF48 JUMPI DUP1 PUSH4 0x7510CFAF EQ PUSH2 0xEFC JUMPI DUP1 PUSH4 0x8DA5CB5B EQ PUSH2 0xED3 JUMPI DUP1 PUSH4 0x95D89B41 EQ PUSH2 0xDF0 JUMPI DUP1 PUSH4 0xA22CB465 EQ PUSH2 0xD17 JUMPI DUP1 PUSH4 0xA476B73D EQ PUSH2 0x99E JUMPI DUP1 PUSH4 0xB2A2FAAF EQ PUSH2 0x460 JUMPI DUP1 PUSH4 0xB88D4FDE EQ PUSH2 0x3F8 JUMPI DUP1 PUSH4 0xC87B56DD EQ PUSH2 0x2BC JUMPI DUP1 PUSH4 0xE985E9C5 EQ PUSH2 0x268 JUMPI DUP1 PUSH4 0xF2FDE38B EQ PUSH2 0x1A2 JUMPI PUSH4 0xFCA3B5AA EQ PUSH2 0x160 JUMPI PUSH1 0x0 DUP1 REVERT JUMPDEST CALLVALUE PUSH2 0x19F JUMPI PUSH1 0x20 CALLDATASIZE PUSH1 0x3 NOT ADD SLT PUSH2 0x19F JUMPI PUSH2 0x179 PUSH2 0x19CF JUMP JUMPDEST PUSH2 0x181 PUSH2 0x1B59 JUMP JUMPDEST PUSH1 0x1 DUP1 PUSH1 0xA0 SHL SUB AND PUSH1 0x1 PUSH1 0x1 PUSH1 0x60 SHL SUB PUSH1 0xA0 SHL PUSH1 0xE SLOAD AND OR PUSH1 0xE SSTORE DUP1 RETURN JUMPDEST DUP1 REVERT JUMPDEST POP CALLVALUE PUSH2 0x19F JUMPI PUSH1 0x20 CALLDATASIZE PUSH1 0x3 NOT ADD SLT PUSH2 0x19F JUMPI PUSH2 0x1BC PUSH2 0x19CF JUMP JUMPDEST PUSH2 0x1C4 PUSH2 0x1B59 JUMP JUMPDEST PUSH1 0x1 PUSH1 0x1 PUSH1 0xA0 SHL SUB SWAP1 DUP2 AND SWAP1 DUP2 ISZERO PUSH2 0x214 JUMPI PUSH1 0xA SLOAD DUP3 PUSH1 0x1 PUSH1 0x1 PUSH1 0x60 SHL SUB PUSH1 0xA0 SHL DUP3 AND OR PUSH1 0xA SSTORE AND PUSH32 0x8BE0079C531659141344CD1FD0A4F28419497F9722A3DAAFE3B4186F6B6457E0 PUSH1 0x0 DUP1 LOG3 DUP1 RETURN JUMPDEST PUSH1 0x40 MLOAD PUSH3 0x461BCD PUSH1 0xE5 SHL DUP2 MSTORE PUSH1 0x20 PUSH1 0x4 DUP3 ADD MSTORE PUSH1 0x26 PUSH1 0x24 DUP3 ADD MSTORE PUSH32 0x4F776E61626C653A206E6577206F776E657220697320746865207A65726F2061 PUSH1 0x44 DUP3 ADD MSTORE PUSH6 0x646472657373 PUSH1 0xD0 SHL PUSH1 0x64 DUP3 ADD MSTORE PUSH1 0x84 SWAP1 REVERT JUMPDEST POP CALLVALUE PUSH2 0x19F JUMPI PUSH1 0x40 CALLDATASIZE PUSH1 0x3 NOT ADD SLT PUSH2 0x19F JUMPI PUSH2 0x282 PUSH2 0x19CF JUMP JUMPDEST PUSH1 0x40 PUSH2 0x28C PUSH2 0x19E5 JUMP JUMPDEST SWAP3 PUSH1 0x1 DUP1 PUSH1 0xA0 SHL SUB DUP1 SWAP4 AND DUP2 MSTORE PUSH1 0x5 PUSH1 0x20 MSTORE KECCAK256 SWAP2 AND PUSH1 0x0 MSTORE PUSH1 0x20 MSTORE PUSH1 0x20 PUSH1 0xFF PUSH1 0x40 PUSH1 0x0 KECCAK256 SLOAD AND PUSH1 0x40 MLOAD SWAP1 ISZERO ISZERO DUP2 MSTORE RETURN JUMPDEST POP CALLVALUE PUSH2 0x19F JUMPI PUSH1 0x20 DUP1 PUSH1 0x3 NOT CALLDATASIZE ADD SLT PUSH2 0x3F4 JUMPI PUSH1 0x4 CALLDATALOAD PUSH1 0x0 DUP2 DUP2 MSTORE PUSH1 0x2 PUSH1 0x20 MSTORE PUSH1 0x40 SWAP1 KECCAK256 SLOAD PUSH2 0x2FA SWAP1 PUSH1 0x1 PUSH1 0x1 PUSH1 0xA0 SHL SUB AND ISZERO ISZERO PUSH2 0x1C28 JUMP JUMPDEST PUSH2 0x1C28 JUMP JUMPDEST DUP3 MSTORE PUSH1 0xD DUP2 MSTORE PUSH1 0x1 SWAP2 DUP3 PUSH1 0x40 DUP3 KECCAK256 ADD SWAP3 PUSH1 0x40 MLOAD SWAP4 DUP5 SWAP3 PUSH7 0x697066733A2F2F PUSH1 0xC8 SHL DUP6 DUP6 ADD MSTORE DUP1 SWAP3 DUP3 SLOAD SWAP3 PUSH2 0x32D DUP5 PUSH2 0x1B1F JUMP JUMPDEST SWAP4 DUP3 DUP2 AND SWAP1 DUP2 ISZERO PUSH2 0x3CA JUMPI POP PUSH1 0x1 EQ PUSH2 0x385 JUMPI JUMPDEST DUP6 DUP8 PUSH2 0x36D PUSH1 0xE DUP4 DUP10 PUSH14 0x17B6B2BA30B230BA30973539B7B7 PUSH1 0x91 SHL DUP2 MSTORE SUB PUSH1 0x11 NOT DUP2 ADD DUP6 MSTORE ADD DUP4 PUSH2 0x1A2D JUMP JUMPDEST PUSH2 0x381 PUSH1 0x40 MLOAD SWAP3 DUP3 DUP5 SWAP4 DUP5 MSTORE DUP4 ADD SWAP1 PUSH2 0x1AC5 JUMP JUMPDEST SUB SWAP1 RETURN JUMPDEST SWAP1 SWAP2 DUP1 SWAP4 SWAP6 SWAP5 POP MSTORE DUP5 DUP1 DUP4 KECCAK256 JUMPDEST DUP6 DUP5 LT PUSH2 0x3B2 JUMPI POP POP POP POP DUP1 PUSH1 0x27 PUSH2 0x36D SWAP4 PUSH1 0xE SWAP4 ADD ADD SWAP2 DUP2 SWAP4 CODESIZE PUSH2 0x341 JUMP JUMPDEST DUP1 SLOAD DUP9 DUP6 ADD PUSH1 0x27 ADD MSTORE DUP8 SWAP5 POP SWAP3 ADD SWAP2 DUP6 SWAP1 DUP3 ADD PUSH2 0x392 JUMP JUMPDEST SWAP2 POP POP PUSH1 0xE SWAP5 POP PUSH1 0x27 SWAP3 POP PUSH2 0x36D SWAP6 SWAP4 SWAP2 POP PUSH1 0xFF NOT AND DUP3 DUP5 ADD MSTORE DUP1 ISZERO ISZERO MUL DUP3 ADD ADD SWAP2 DUP2 SWAP4 CODESIZE PUSH2 0x341 JUMP JUMPDEST POP DUP1 REVERT JUMPDEST POP CALLVALUE PUSH2 0x19F JUMPI PUSH1 0x80 CALLDATASIZE PUSH1 0x3 NOT ADD SLT PUSH2 0x19F JUMPI PUSH2 0x412 PUSH2 0x19CF JUMP JUMPDEST PUSH2 0x41A PUSH2 0x19E5 JUMP JUMPDEST PUSH1 0x64 CALLDATALOAD SWAP2 PUSH8 0xFFFFFFFFFFFFFFFF DUP4 GT PUSH2 0x45C JUMPI CALLDATASIZE PUSH1 0x23 DUP5 ADD SLT ISZERO PUSH2 0x45C JUMPI PUSH2 0x44F PUSH2 0x459 SWAP4 CALLDATASIZE SWAP1 PUSH1 0x24 DUP2 PUSH1 0x4 ADD CALLDATALOAD SWAP2 ADD PUSH2 0x1A6B JUMP JUMPDEST SWAP2 PUSH1 0x44 CALLDATALOAD SWAP2 PUSH2 0x1D3A JUMP JUMPDEST DUP1 RETURN JUMPDEST DUP4 DUP1 REVERT JUMPDEST POP CALLVALUE PUSH2 0x19F JUMPI PUSH1 0x40 CALLDATASIZE PUSH1 0x3 NOT ADD SLT PUSH2 0x19F JUMPI PUSH1 0xC SLOAD PUSH1 0x40 MLOAD PUSH4 0x49287C0B PUSH1 0xE0 SHL DUP2 MSTORE PUSH1 0x4 DUP1 CALLDATALOAD SWAP1 DUP3 ADD MSTORE PUSH1 0x1 PUSH1 0x1 PUSH1 0xA0 SHL SUB SWAP1 SWAP2 AND SWAP1 PUSH1 0x20 DUP2 PUSH1 0x24 DUP2 DUP6 GAS STATICCALL DUP1 ISZERO PUSH2 0x958 JUMPI DUP4 SWAP1 PUSH2 0x963 JUMPI JUMPDEST PUSH2 0x4B6 SWAP2 POP PUSH2 0x2326 JUMP JUMPDEST PUSH1 0x40 MLOAD PUSH4 0x8F118FE3 PUSH1 0xE0 SHL DUP2 MSTORE CALLER PUSH1 0x4 DUP1 DUP4 ADD SWAP2 SWAP1 SWAP2 MSTORE CALLDATALOAD PUSH1 0x24 DUP3 ADD MSTORE PUSH1 0x20 DUP2 PUSH1 0x44 DUP2 DUP6 GAS STATICCALL SWAP1 DUP2 ISZERO PUSH2 0x958 JUMPI DUP4 SWAP2 PUSH2 0x926 JUMPI JUMPDEST POP PUSH1 0x24 CALLDATALOAD GT PUSH2 0x8E1 JUMPI DUP1 DUP3 SWAP2 EXTCODESIZE ISZERO PUSH2 0x8DE JUMPI DUP2 SWAP1 PUSH1 0x64 PUSH1 0x40 MLOAD DUP1 SWAP5 DUP2 SWAP4 PUSH4 0x7A94C565 PUSH1 0xE1 SHL DUP4 MSTORE CALLER PUSH1 0x4 DUP5 ADD MSTORE PUSH1 0x4 CALLDATALOAD PUSH1 0x24 DUP5 ADD MSTORE PUSH1 0x24 CALLDATALOAD PUSH1 0x44 DUP5 ADD MSTORE GAS CALL DUP1 ISZERO PUSH2 0x634 JUMPI PUSH2 0x8B2 JUMPI JUMPDEST POP PUSH1 0xC SLOAD PUSH1 0x40 MLOAD PUSH4 0x761C6AD PUSH1 0xE5 SHL DUP2 MSTORE PUSH1 0x4 DUP1 CALLDATALOAD SWAP1 DUP3 ADD MSTORE SWAP1 DUP3 SWAP1 DUP3 SWAP1 PUSH1 0x24 SWAP1 DUP3 SWAP1 PUSH1 0x1 PUSH1 0x1 PUSH1 0xA0 SHL SUB AND GAS STATICCALL SWAP1 DUP2 ISZERO PUSH2 0x634 JUMPI DUP3 SWAP2 PUSH2 0x813 JUMPI JUMPDEST POP DUP2 JUMPDEST PUSH1 0x24 CALLDATALOAD DUP2 LT PUSH2 0x63F JUMPI PUSH1 0xC SLOAD PUSH1 0x40 MLOAD PUSH4 0x8F118FE3 PUSH1 0xE0 SHL DUP2 MSTORE CALLER PUSH1 0x4 DUP1 DUP4 ADD SWAP2 SWAP1 SWAP2 MSTORE CALLDATALOAD PUSH1 0x24 DUP3 ADD MSTORE DUP5 SWAP2 PUSH1 0x20 SWAP1 DUP3 SWAP1 PUSH1 0x44 SWAP1 DUP3 SWAP1 PUSH1 0x1 PUSH1 0x1 PUSH1 0xA0 SHL SUB AND GAS STATICCALL SWAP1 DUP2 ISZERO PUSH2 0x634 JUMPI DUP3 SWAP2 PUSH2 0x5FD JUMPI JUMPDEST POP PUSH1 0x40 MLOAD SWAP1 PUSH1 0x24 CALLDATALOAD DUP3 MSTORE PUSH1 0x20 DUP3 ADD MSTORE CALLER SWAP1 PUSH32 0x6A69BF77722441C5A59124F665722F0AD4C8CF4F7D97BEAFD09310D3E5D42B40 PUSH1 0x40 PUSH1 0x4 CALLDATALOAD SWAP3 LOG3 DUP1 RETURN JUMPDEST SWAP1 POP PUSH1 0x20 DUP2 RETURNDATASIZE PUSH1 0x20 GT PUSH2 0x62C JUMPI JUMPDEST DUP2 PUSH2 0x618 PUSH1 0x20 SWAP4 DUP4 PUSH2 0x1A2D JUMP JUMPDEST DUP2 ADD SUB SLT PUSH2 0x627 JUMPI MLOAD DUP3 PUSH2 0x5C1 JUMP JUMPDEST PUSH1 0x0 DUP1 REVERT JUMPDEST RETURNDATASIZE SWAP2 POP PUSH2 0x60B JUMP JUMPDEST PUSH1 0x40 MLOAD RETURNDATASIZE DUP5 DUP3 RETURNDATACOPY RETURNDATASIZE SWAP1 REVERT JUMPDEST PUSH1 0xB DUP1 SLOAD SWAP1 PUSH2 0x64D DUP3 PUSH2 0x2560 JUMP JUMPDEST SWAP1 SSTORE PUSH1 0x40 MLOAD PUSH2 0x65B DUP2 PUSH2 0x19FB JUMP JUMPDEST PUSH1 0x4 CALLDATALOAD DUP2 MSTORE PUSH1 0x20 DUP2 ADD SWAP1 DUP5 DUP3 MSTORE DUP6 PUSH1 0x40 DUP3 ADD MSTORE DUP3 DUP7 MSTORE PUSH1 0xD PUSH1 0x20 MSTORE PUSH1 0x40 DUP7 KECCAK256 SWAP2 DUP2 MLOAD DUP4 SSTORE MLOAD DUP1 MLOAD SWAP1 PUSH8 0xFFFFFFFFFFFFFFFF DUP3 GT PUSH2 0x7FF JUMPI PUSH2 0x69F PUSH1 0x1 DUP6 ADD SLOAD PUSH2 0x1B1F JUMP JUMPDEST SWAP1 PUSH1 0x1F SWAP2 DUP3 DUP2 GT PUSH2 0x7C4 JUMPI JUMPDEST POP PUSH1 0x20 SWAP2 DUP4 GT PUSH1 0x1 EQ PUSH2 0x749 JUMPI PUSH2 0x700 SWAP4 DUP4 PUSH2 0x739 SWAP9 SWAP8 SWAP7 SWAP5 PUSH1 0x2 SWAP5 PUSH1 0x40 SWAP5 DUP14 SWAP3 PUSH2 0x73E JUMPI JUMPDEST POP POP DUP2 PUSH1 0x1 SHL SWAP2 PUSH1 0x0 NOT SWAP1 PUSH1 0x3 SHL SHR NOT AND OR PUSH1 0x1 DUP6 ADD SSTORE JUMPDEST ADD MLOAD ISZERO ISZERO SWAP2 ADD SWAP1 PUSH1 0xFF DUP1 NOT DUP4 SLOAD AND SWAP2 ISZERO ISZERO AND OR SWAP1 SSTORE JUMP JUMPDEST PUSH2 0x70A DUP2 CALLER PUSH2 0x23D5 JUMP JUMPDEST PUSH1 0x4 CALLDATALOAD SWAP1 CALLER SWAP1 PUSH32 0x5C1C9352D51031ACC9A558D7CDCCA15B0CE5FE4F46D7315CCA355248175B0A37 DUP8 DUP1 LOG4 PUSH2 0x2560 JUMP JUMPDEST PUSH2 0x573 JUMP JUMPDEST ADD MLOAD SWAP1 POP CODESIZE DUP1 PUSH2 0x6D1 JUMP JUMPDEST SWAP1 PUSH1 0x1 DUP6 ADD DUP10 MSTORE PUSH1 0x20 DUP10 KECCAK256 SWAP2 DUP10 JUMPDEST PUSH1 0x1F NOT DUP6 AND DUP2 LT PUSH2 0x7AC JUMPI POP SWAP4 PUSH1 0x1 DUP5 PUSH1 0x2 SWAP5 PUSH1 0x40 SWAP5 PUSH2 0x700 SWAP9 PUSH2 0x739 SWAP13 SWAP12 SWAP11 SWAP9 PUSH1 0x1F NOT DUP2 AND LT PUSH2 0x793 JUMPI JUMPDEST POP POP POP DUP2 SHL ADD PUSH1 0x1 DUP6 ADD SSTORE PUSH2 0x6E9 JUMP JUMPDEST ADD MLOAD PUSH1 0x0 NOT PUSH1 0xF8 DUP5 PUSH1 0x3 SHL AND SHR NOT AND SWAP1 SSTORE CODESIZE DUP1 DUP1 PUSH2 0x783 JUMP JUMPDEST SWAP2 SWAP3 PUSH1 0x20 PUSH1 0x1 DUP2 SWAP3 DUP7 DUP6 ADD MLOAD DUP2 SSTORE ADD SWAP5 ADD SWAP3 ADD PUSH2 0x757 JUMP JUMPDEST PUSH2 0x7F0 SWAP1 PUSH1 0x1 DUP8 ADD DUP12 MSTORE PUSH1 0x20 DUP12 KECCAK256 PUSH1 0x5 DUP6 DUP1 DUP9 ADD DUP3 SHR DUP4 ADD SWAP4 PUSH1 0x20 DUP10 LT PUSH2 0x7F6 JUMPI JUMPDEST ADD SWAP1 SHR ADD SWAP1 PUSH2 0x2372 JUMP JUMPDEST CODESIZE PUSH2 0x6AB JUMP JUMPDEST SWAP4 POP DUP3 SWAP4 PUSH2 0x7E6 JUMP JUMPDEST PUSH4 0x4E487B71 PUSH1 0xE0 SHL DUP9 MSTORE PUSH1 0x41 PUSH1 0x4 MSTORE PUSH1 0x24 DUP9 REVERT JUMPDEST SWAP1 POP RETURNDATASIZE DUP1 DUP4 DUP4 RETURNDATACOPY PUSH2 0x824 DUP2 DUP4 PUSH2 0x1A2D JUMP JUMPDEST DUP2 ADD SWAP1 PUSH2 0x100 DUP2 DUP4 SUB SLT PUSH2 0x8AA JUMPI DUP1 MLOAD PUSH8 0xFFFFFFFFFFFFFFFF SWAP1 DUP2 DUP2 GT PUSH2 0x8AE JUMPI DUP4 PUSH2 0x851 SWAP2 DUP5 ADD PUSH2 0x251E JUMP JUMPDEST POP PUSH1 0x40 DUP3 ADD MLOAD DUP2 DUP2 GT PUSH2 0x8AE JUMPI DUP4 PUSH2 0x86A SWAP2 DUP5 ADD PUSH2 0x251E JUMP JUMPDEST SWAP3 PUSH1 0x60 DUP4 ADD MLOAD SWAP2 DUP3 GT PUSH2 0x8AE JUMPI PUSH2 0x882 SWAP2 DUP4 ADD PUSH2 0x251E JUMP JUMPDEST POP PUSH1 0x80 DUP2 ADD MLOAD PUSH1 0x1 PUSH1 0x1 PUSH1 0xA0 SHL SUB DUP2 AND SUB PUSH2 0x8AA JUMPI PUSH1 0xA0 PUSH2 0x8A3 SWAP2 ADD PUSH2 0x2319 JUMP JUMPDEST POP CODESIZE PUSH2 0x570 JUMP JUMPDEST DUP3 DUP1 REVERT JUMPDEST DUP5 DUP1 REVERT JUMPDEST PUSH8 0xFFFFFFFFFFFFFFFF DUP2 GT PUSH2 0x8CA JUMPI PUSH1 0x40 MSTORE CODESIZE PUSH2 0x534 JUMP JUMPDEST PUSH4 0x4E487B71 PUSH1 0xE0 SHL DUP3 MSTORE PUSH1 0x41 PUSH1 0x4 MSTORE PUSH1 0x24 DUP3 REVERT JUMPDEST POP REVERT JUMPDEST PUSH1 0x40 MLOAD PUSH3 0x461BCD PUSH1 0xE5 SHL DUP2 MSTORE PUSH1 0x20 PUSH1 0x4 DUP3 ADD MSTORE PUSH1 0x1C PUSH1 0x24 DUP3 ADD MSTORE PUSH32 0x496E73756666696369656E742045524331313535207469636B65747300000000 PUSH1 0x44 DUP3 ADD MSTORE PUSH1 0x64 SWAP1 REVERT JUMPDEST SWAP1 POP PUSH1 0x20 DUP2 RETURNDATASIZE PUSH1 0x20 GT PUSH2 0x950 JUMPI JUMPDEST DUP2 PUSH2 0x941 PUSH1 0x20 SWAP4 DUP4 PUSH2 0x1A2D JUMP JUMPDEST DUP2 ADD SUB SLT PUSH2 0x8AA JUMPI MLOAD CODESIZE PUSH2 0x4EA JUMP JUMPDEST RETURNDATASIZE SWAP2 POP PUSH2 0x934 JUMP JUMPDEST PUSH1 0x40 MLOAD RETURNDATASIZE DUP6 DUP3 RETURNDATACOPY RETURNDATASIZE SWAP1 REVERT JUMPDEST POP PUSH1 0x20 DUP2 RETURNDATASIZE PUSH1 0x20 GT PUSH2 0x996 JUMPI JUMPDEST DUP2 PUSH2 0x97D PUSH1 0x20 SWAP4 DUP4 PUSH2 0x1A2D JUMP JUMPDEST DUP2 ADD SUB SLT PUSH2 0x8AA JUMPI PUSH2 0x991 PUSH2 0x4B6 SWAP2 PUSH2 0x2319 JUMP JUMPDEST PUSH2 0x4AC JUMP JUMPDEST RETURNDATASIZE SWAP2 POP PUSH2 0x970 JUMP JUMPDEST POP CALLVALUE PUSH2 0x19F JUMPI PUSH1 0x20 DUP1 PUSH1 0x3 NOT CALLDATASIZE ADD SLT PUSH2 0x3F4 JUMPI PUSH1 0x4 CALLDATALOAD SWAP1 PUSH2 0x9BD PUSH2 0x1B59 JUMP JUMPDEST PUSH1 0x0 DUP3 DUP2 MSTORE PUSH1 0x2 PUSH1 0x20 MSTORE PUSH1 0x40 SWAP1 KECCAK256 SLOAD PUSH2 0x9E0 SWAP1 PUSH1 0x1 PUSH1 0x1 PUSH1 0xA0 SHL SUB AND ISZERO ISZERO PUSH2 0x1C28 JUMP JUMPDEST DUP2 DUP4 MSTORE PUSH1 0xD DUP2 MSTORE PUSH1 0x40 DUP4 KECCAK256 SLOAD SWAP1 PUSH2 0x9F6 DUP4 PUSH2 0x1C74 JUMP JUMPDEST PUSH2 0x9FF DUP5 PUSH2 0x1C74 JUMP JUMPDEST PUSH1 0x1 PUSH1 0x1 PUSH1 0xA0 SHL SUB SWAP3 DUP2 DUP5 AND DUP1 ISZERO SWAP3 DUP4 ISZERO PUSH2 0xC8D JUMPI POP POP PUSH1 0x8 SLOAD DUP7 DUP9 MSTORE PUSH1 0x9 DUP3 MSTORE DUP1 PUSH1 0x40 DUP10 KECCAK256 SSTORE PUSH1 0x1 PUSH1 0x40 SHL DUP2 LT ISZERO PUSH2 0x7FF JUMPI DUP7 PUSH2 0xA46 DUP3 PUSH1 0x1 PUSH2 0xA5F SWAP5 ADD PUSH1 0x8 SSTORE PUSH2 0x2287 JUMP JUMPDEST SWAP1 SWAP2 SWAP1 DUP3 SLOAD SWAP1 PUSH1 0x3 SHL SWAP2 DUP3 SHL SWAP2 PUSH1 0x0 NOT SWAP1 SHL NOT AND OR SWAP1 SSTORE JUMP JUMPDEST PUSH1 0x8 SLOAD PUSH1 0x0 NOT SWAP3 SWAP1 DUP4 DUP2 ADD SWAP1 DUP2 GT PUSH2 0xC79 JUMPI DUP8 DUP10 MSTORE PUSH1 0x9 DUP4 MSTORE PUSH2 0xA86 PUSH1 0x40 DUP11 KECCAK256 SLOAD SWAP2 PUSH2 0x2287 JUMP JUMPDEST SWAP1 SLOAD SWAP1 PUSH1 0x3 SHL SHR PUSH2 0xA9A DUP2 PUSH2 0xA46 DUP5 PUSH2 0x2287 JUMP JUMPDEST DUP10 MSTORE PUSH1 0x9 DUP4 MSTORE PUSH1 0x40 DUP10 KECCAK256 SSTORE DUP7 DUP9 MSTORE DUP8 PUSH1 0x40 DUP2 KECCAK256 SSTORE PUSH1 0x8 SLOAD DUP1 ISZERO PUSH2 0xC65 JUMPI DUP9 SWAP3 SWAP2 DUP5 DUP10 SWAP3 ADD PUSH2 0xAC7 DUP2 PUSH2 0x2287 JUMP JUMPDEST DUP8 DUP3 SLOAD SWAP2 PUSH1 0x3 SHL SHL NOT AND SWAP1 SSTORE PUSH1 0x8 SSTORE ISZERO DUP1 PUSH2 0xC5E JUMPI JUMPDEST PUSH2 0xBE7 JUMPI JUMPDEST DUP3 PUSH1 0x2 SWAP4 SWAP5 PUSH2 0xAF0 DUP4 PUSH2 0x1C74 JUMP JUMPDEST DUP4 DUP4 MSTORE PUSH1 0x4 DUP6 MSTORE DUP9 PUSH1 0x40 DUP5 KECCAK256 SWAP2 PUSH1 0x1 PUSH1 0x1 PUSH1 0x60 SHL SUB PUSH1 0xA0 SHL SWAP3 DUP4 DUP2 SLOAD AND SWAP1 SSTORE AND SWAP2 DUP3 DUP5 MSTORE PUSH1 0x3 DUP7 MSTORE PUSH1 0x40 DUP5 KECCAK256 SWAP1 DUP2 SLOAD ADD SWAP1 SSTORE DUP4 DUP4 MSTORE DUP6 DUP6 MSTORE PUSH1 0x40 DUP4 KECCAK256 SWAP1 DUP2 SLOAD AND SWAP1 SSTORE PUSH32 0xDDF252AD1BE2C89B69C2B068FC378DAA952BA7F163C4A11628F55A4DF523B3EF DUP3 DUP1 LOG4 PUSH1 0xD DUP2 MSTORE DUP3 PUSH1 0x40 DUP2 KECCAK256 SWAP2 DUP2 DUP4 SSTORE PUSH1 0x1 DUP4 ADD SWAP1 PUSH2 0xB72 DUP3 SLOAD PUSH2 0x1B1F JUMP JUMPDEST SWAP1 DUP2 PUSH2 0xBA8 JUMPI JUMPDEST POP POP POP POP ADD SSTORE AND SWAP2 PUSH32 0x50D459B3DF6D4D2831EF5996A57CAA721FB381B00BF5309A64F099895047948C DUP5 DUP1 LOG4 DUP1 RETURN JUMPDEST DUP4 SWAP1 PUSH1 0x1F DUP4 GT PUSH1 0x1 EQ PUSH2 0xBC3 JUMPI POP POP POP SSTORE JUMPDEST DUP3 CODESIZE DUP1 DUP1 PUSH2 0xB79 JUMP JUMPDEST DUP4 DUP3 MSTORE DUP2 KECCAK256 SWAP3 SWAP1 SWAP2 PUSH2 0xBE0 SWAP1 PUSH1 0x1F ADD PUSH1 0x5 SHR DUP5 ADD PUSH1 0x1 DUP6 ADD PUSH2 0x2372 JUMP JUMPDEST SSTORE SSTORE PUSH2 0xBBA JUMP JUMPDEST SWAP1 SWAP3 SWAP2 MSTORE PUSH1 0xD DUP3 MSTORE PUSH1 0xFF PUSH1 0x2 PUSH1 0x40 DUP10 KECCAK256 ADD SLOAD AND PUSH2 0xC07 JUMPI SWAP1 DUP7 SWAP1 DUP7 PUSH2 0xAE2 JUMP JUMPDEST PUSH1 0x40 MLOAD PUSH3 0x461BCD PUSH1 0xE5 SHL DUP2 MSTORE PUSH1 0x4 DUP2 ADD DUP4 SWAP1 MSTORE PUSH1 0x29 PUSH1 0x24 DUP3 ADD MSTORE PUSH32 0x5469636B65743A2075736564207469636B65742063616E6E6F74206265207472 PUSH1 0x44 DUP3 ADD MSTORE PUSH9 0x185B9CD9995C9C9959 PUSH1 0xBA SHL PUSH1 0x64 DUP3 ADD MSTORE PUSH1 0x84 SWAP1 REVERT JUMPDEST POP DUP3 PUSH2 0xADD JUMP JUMPDEST PUSH4 0x4E487B71 PUSH1 0xE0 SHL DUP10 MSTORE PUSH1 0x31 PUSH1 0x4 MSTORE PUSH1 0x24 DUP10 REVERT JUMPDEST PUSH4 0x4E487B71 PUSH1 0xE0 SHL DUP10 MSTORE PUSH1 0x11 PUSH1 0x4 MSTORE PUSH1 0x24 DUP10 REVERT JUMPDEST PUSH2 0xC96 SWAP1 PUSH2 0x1BB1 JUMP JUMPDEST PUSH1 0x0 NOT DUP2 ADD SWAP2 SWAP1 DUP3 GT PUSH2 0xC79 JUMPI DUP8 DUP10 MSTORE PUSH1 0x7 DUP4 MSTORE PUSH1 0x40 DUP10 KECCAK256 SLOAD DUP3 DUP2 SUB PUSH2 0xCDB JUMPI JUMPDEST POP DUP8 DUP10 MSTORE DUP9 PUSH1 0x40 DUP2 KECCAK256 SSTORE DUP9 MSTORE PUSH1 0x6 DUP3 MSTORE PUSH1 0x40 DUP9 KECCAK256 SWAP1 DUP9 MSTORE DUP2 MSTORE DUP7 PUSH1 0x40 DUP2 KECCAK256 SSTORE PUSH2 0xA5F JUMP JUMPDEST DUP2 DUP11 MSTORE PUSH1 0x6 DUP5 MSTORE PUSH1 0x40 DUP11 KECCAK256 DUP4 DUP12 MSTORE DUP5 MSTORE PUSH1 0x40 DUP11 KECCAK256 SLOAD DUP3 DUP12 MSTORE PUSH1 0x6 DUP6 MSTORE PUSH1 0x40 DUP12 KECCAK256 DUP3 DUP13 MSTORE DUP6 MSTORE DUP1 PUSH1 0x40 DUP13 KECCAK256 SSTORE DUP11 MSTORE PUSH1 0x7 DUP5 MSTORE PUSH1 0x40 DUP11 KECCAK256 SSTORE CODESIZE PUSH2 0xCB7 JUMP JUMPDEST POP CALLVALUE PUSH2 0x19F JUMPI PUSH1 0x40 CALLDATASIZE PUSH1 0x3 NOT ADD SLT PUSH2 0x19F JUMPI PUSH2 0xD31 PUSH2 0x19CF JUMP JUMPDEST PUSH1 0x24 CALLDATALOAD SWAP1 DUP2 ISZERO ISZERO SWAP1 DUP2 DUP4 SUB PUSH2 0x45C JUMPI PUSH1 0x1 PUSH1 0x1 PUSH1 0xA0 SHL SUB AND SWAP2 CALLER DUP4 EQ PUSH2 0xDAB JUMPI PUSH2 0xD7C SWAP1 CALLER DUP6 MSTORE PUSH1 0x5 PUSH1 0x20 MSTORE PUSH1 0x40 DUP6 KECCAK256 DUP5 DUP7 MSTORE PUSH1 0x20 MSTORE PUSH1 0x40 DUP6 KECCAK256 SWAP1 PUSH1 0xFF DUP1 NOT DUP4 SLOAD AND SWAP2 ISZERO ISZERO AND OR SWAP1 SSTORE JUMP JUMPDEST PUSH1 0x40 MLOAD SWAP1 DUP2 MSTORE PUSH32 0x17307EAB39AB6107E8899845AD3D59BD9653F200F220920489CA2B5937696C31 PUSH1 0x20 CALLER SWAP3 LOG3 DUP1 RETURN JUMPDEST PUSH1 0x40 MLOAD PUSH3 0x461BCD PUSH1 0xE5 SHL DUP2 MSTORE PUSH1 0x20 PUSH1 0x4 DUP3 ADD MSTORE PUSH1 0x19 PUSH1 0x24 DUP3 ADD MSTORE PUSH32 0x4552433732313A20617070726F766520746F2063616C6C657200000000000000 PUSH1 0x44 DUP3 ADD MSTORE PUSH1 0x64 SWAP1 REVERT JUMPDEST POP CALLVALUE PUSH2 0x19F JUMPI DUP1 PUSH1 0x3 NOT CALLDATASIZE ADD SLT PUSH2 0x19F JUMPI PUSH1 0x40 MLOAD SWAP1 DUP1 PUSH1 0x1 DUP1 SLOAD SWAP2 PUSH2 0xE14 DUP4 PUSH2 0x1B1F JUMP JUMPDEST DUP1 DUP7 MSTORE SWAP3 DUP3 DUP2 AND SWAP1 DUP2 ISZERO PUSH2 0xEA9 JUMPI POP PUSH1 0x1 EQ PUSH2 0xE4F JUMPI JUMPDEST PUSH2 0x381 DUP6 PUSH2 0xE3B DUP2 DUP8 SUB DUP3 PUSH2 0x1A2D JUMP JUMPDEST PUSH1 0x40 MLOAD SWAP2 DUP3 SWAP2 PUSH1 0x20 DUP4 MSTORE PUSH1 0x20 DUP4 ADD SWAP1 PUSH2 0x1AC5 JUMP JUMPDEST SWAP3 POP DUP1 DUP4 MSTORE PUSH32 0xB10E2D527612073B26EECDFD717E6A320CF44B4AFAC2B0732D9FCBE2B7FA0CF6 JUMPDEST DUP3 DUP5 LT PUSH2 0xE91 JUMPI POP POP POP DUP2 ADD PUSH1 0x20 ADD PUSH2 0xE3B DUP3 PUSH2 0x381 PUSH2 0xE2B JUMP JUMPDEST DUP1 SLOAD PUSH1 0x20 DUP6 DUP8 ADD DUP2 ADD SWAP2 SWAP1 SWAP2 MSTORE SWAP1 SWAP4 ADD SWAP3 DUP2 ADD PUSH2 0xE76 JUMP JUMPDEST DUP7 SWAP6 POP PUSH2 0x381 SWAP7 SWAP4 POP PUSH1 0x20 SWAP3 POP PUSH2 0xE3B SWAP5 SWAP2 POP PUSH1 0xFF NOT AND DUP3 DUP5 ADD MSTORE ISZERO ISZERO PUSH1 0x5 SHL DUP3 ADD ADD SWAP3 SWAP4 PUSH2 0xE2B JUMP JUMPDEST POP CALLVALUE PUSH2 0x19F JUMPI DUP1 PUSH1 0x3 NOT CALLDATASIZE ADD SLT PUSH2 0x19F JUMPI PUSH1 0xA SLOAD PUSH1 0x40 MLOAD PUSH1 0x1 PUSH1 0x1 PUSH1 0xA0 SHL SUB SWAP1 SWAP2 AND DUP2 MSTORE PUSH1 0x20 SWAP1 RETURN JUMPDEST POP CALLVALUE PUSH2 0x19F JUMPI PUSH1 0x20 CALLDATASIZE PUSH1 0x3 NOT ADD SLT PUSH2 0x19F JUMPI PUSH1 0x40 PUSH1 0x20 SWAP2 PUSH1 0x4 CALLDATALOAD PUSH2 0xF38 PUSH2 0x2F5 DUP3 PUSH1 0x0 MSTORE PUSH1 0x2 PUSH1 0x20 MSTORE PUSH1 0x1 DUP1 PUSH1 0xA0 SHL SUB PUSH1 0x40 PUSH1 0x0 KECCAK256 SLOAD AND ISZERO ISZERO SWAP1 JUMP JUMPDEST DUP2 MSTORE PUSH1 0xD DUP4 MSTORE KECCAK256 SLOAD PUSH1 0x40 MLOAD SWAP1 DUP2 MSTORE RETURN JUMPDEST POP CALLVALUE PUSH2 0x19F JUMPI DUP1 PUSH1 0x3 NOT CALLDATASIZE ADD SLT PUSH2 0x19F JUMPI PUSH2 0xF61 PUSH2 0x1B59 JUMP JUMPDEST PUSH1 0xA DUP1 SLOAD PUSH1 0x1 PUSH1 0x1 PUSH1 0xA0 SHL SUB NOT DUP2 AND SWAP1 SWAP2 SSTORE DUP2 SWAP1 PUSH1 0x1 PUSH1 0x1 PUSH1 0xA0 SHL SUB AND PUSH32 0x8BE0079C531659141344CD1FD0A4F28419497F9722A3DAAFE3B4186F6B6457E0 DUP3 DUP1 LOG3 DUP1 RETURN JUMPDEST POP CALLVALUE PUSH2 0x19F JUMPI PUSH1 0x20 CALLDATASIZE PUSH1 0x3 NOT ADD SLT PUSH2 0x19F JUMPI PUSH1 0x20 PUSH2 0xFC9 PUSH2 0xFC4 PUSH2 0x19CF JUMP JUMPDEST PUSH2 0x1BB1 JUMP JUMPDEST PUSH1 0x40 MLOAD SWAP1 DUP2 MSTORE RETURN JUMPDEST POP CALLVALUE PUSH2 0x19F JUMPI DUP1 PUSH1 0x3 NOT CALLDATASIZE ADD SLT PUSH2 0x19F JUMPI PUSH1 0xC SLOAD PUSH1 0x40 MLOAD PUSH1 0x1 PUSH1 0x1 PUSH1 0xA0 SHL SUB SWAP1 SWAP2 AND DUP2 MSTORE PUSH1 0x20 SWAP1 RETURN JUMPDEST POP CALLVALUE PUSH2 0x19F JUMPI PUSH1 0x20 CALLDATASIZE PUSH1 0x3 NOT ADD SLT PUSH2 0x19F JUMPI PUSH1 0x20 PUSH2 0x1019 PUSH1 0x4 CALLDATALOAD PUSH2 0x1C74 JUMP JUMPDEST PUSH1 0x40 MLOAD PUSH1 0x1 PUSH1 0x1 PUSH1 0xA0 SHL SUB SWAP1 SWAP2 AND DUP2 MSTORE RETURN JUMPDEST POP CALLVALUE PUSH2 0x19F JUMPI PUSH1 0x20 SWAP1 DUP2 PUSH1 0x3 NOT CALLDATASIZE ADD SLT PUSH2 0x19F JUMPI PUSH1 0x4 CALLDATALOAD DUP2 MSTORE PUSH1 0xD DUP3 MSTORE PUSH1 0x40 DUP2 KECCAK256 SWAP1 DUP2 SLOAD SWAP2 PUSH1 0x1 DUP1 DUP3 ADD SWAP3 DUP6 PUSH1 0x40 MLOAD SWAP5 DUP6 SWAP4 DUP4 DUP3 SLOAD SWAP3 PUSH2 0x106A DUP5 PUSH2 0x1B1F JUMP JUMPDEST DUP1 DUP9 MSTORE SWAP4 DUP4 DUP2 AND SWAP1 DUP2 ISZERO PUSH2 0x10FB JUMPI POP PUSH1 0x1 EQ PUSH2 0x10BF JUMPI JUMPDEST DUP5 DUP11 DUP9 PUSH2 0x10B3 PUSH1 0xFF PUSH1 0x2 DUP14 PUSH2 0x1098 DUP6 DUP15 SUB DUP7 PUSH2 0x1A2D JUMP JUMPDEST ADD SLOAD AND SWAP2 PUSH1 0x60 PUSH1 0x40 MLOAD SWAP6 DUP7 SWAP6 DUP7 MSTORE DUP6 ADD MSTORE PUSH1 0x60 DUP5 ADD SWAP1 PUSH2 0x1AC5 JUMP JUMPDEST SWAP1 ISZERO ISZERO PUSH1 0x40 DUP4 ADD MSTORE SUB SWAP1 RETURN JUMPDEST SWAP1 DUP1 SWAP5 SWAP6 POP MSTORE DUP4 DUP4 KECCAK256 JUMPDEST DUP3 DUP5 LT PUSH2 0x10E5 JUMPI POP POP POP DUP3 ADD ADD DUP6 PUSH2 0x1098 DUP4 PUSH1 0x2 PUSH2 0x10B3 PUSH2 0x1081 JUMP JUMPDEST DUP1 SLOAD DUP9 DUP6 ADD DUP7 ADD MSTORE DUP8 SWAP6 POP SWAP3 DUP5 ADD SWAP3 DUP2 ADD PUSH2 0x10C9 JUMP JUMPDEST PUSH1 0xFF NOT AND DUP7 DUP10 ADD MSTORE POP POP POP POP ISZERO ISZERO PUSH1 0x5 SHL DUP4 ADD ADD SWAP1 POP DUP6 PUSH2 0x1098 DUP4 PUSH1 0x2 PUSH2 0x10B3 PUSH2 0x1081 JUMP JUMPDEST POP CALLVALUE PUSH2 0x19F JUMPI PUSH1 0x20 CALLDATASIZE PUSH1 0x3 NOT ADD SLT PUSH2 0x19F JUMPI PUSH1 0x4 CALLDATALOAD PUSH1 0x8 SLOAD DUP2 LT ISZERO PUSH2 0x1158 JUMPI PUSH2 0x114A PUSH1 0x20 SWAP2 PUSH2 0x2287 JUMP JUMPDEST SWAP1 SLOAD PUSH1 0x40 MLOAD SWAP2 PUSH1 0x3 SHL SHR DUP2 MSTORE RETURN JUMPDEST PUSH1 0x40 MLOAD PUSH3 0x461BCD PUSH1 0xE5 SHL DUP2 MSTORE PUSH1 0x20 PUSH1 0x4 DUP3 ADD MSTORE PUSH1 0x2C PUSH1 0x24 DUP3 ADD MSTORE PUSH32 0x455243373231456E756D657261626C653A20676C6F62616C20696E646578206F PUSH1 0x44 DUP3 ADD MSTORE PUSH12 0x7574206F6620626F756E6473 PUSH1 0xA0 SHL PUSH1 0x64 DUP3 ADD MSTORE PUSH1 0x84 SWAP1 REVERT JUMPDEST POP CALLVALUE PUSH2 0x19F JUMPI PUSH2 0x11C1 CALLDATASIZE PUSH2 0x1AEA JUMP JUMPDEST PUSH1 0x40 SWAP4 SWAP3 SWAP4 MLOAD SWAP2 PUSH1 0x20 DUP4 ADD SWAP5 DUP4 DUP7 LT PUSH8 0xFFFFFFFFFFFFFFFF DUP8 GT OR PUSH2 0x11F0 JUMPI PUSH2 0x459 SWAP5 SWAP6 PUSH1 0x40 MSTORE DUP6 DUP5 MSTORE PUSH2 0x1D3A JUMP JUMPDEST PUSH4 0x4E487B71 PUSH1 0xE0 SHL DUP6 MSTORE PUSH1 0x41 PUSH1 0x4 MSTORE PUSH1 0x24 DUP6 REVERT JUMPDEST POP CALLVALUE PUSH2 0x19F JUMPI PUSH1 0x40 CALLDATASIZE PUSH1 0x3 NOT ADD SLT PUSH2 0x19F JUMPI PUSH2 0x121E PUSH2 0x19CF JUMP JUMPDEST PUSH1 0x24 CALLDATALOAD SWAP2 PUSH2 0x122B DUP3 PUSH2 0x1BB1 JUMP JUMPDEST DUP4 LT ISZERO PUSH2 0x1258 JUMPI PUSH1 0x20 SWAP3 PUSH1 0x40 SWAP3 PUSH1 0x1 DUP1 PUSH1 0xA0 SHL SUB AND DUP3 MSTORE PUSH1 0x6 DUP5 MSTORE DUP3 DUP3 KECCAK256 SWAP1 DUP3 MSTORE DUP4 MSTORE KECCAK256 SLOAD PUSH1 0x40 MLOAD SWAP1 DUP2 MSTORE RETURN JUMPDEST PUSH1 0x40 MLOAD PUSH3 0x461BCD PUSH1 0xE5 SHL DUP2 MSTORE PUSH1 0x20 PUSH1 0x4 DUP3 ADD MSTORE PUSH1 0x2B PUSH1 0x24 DUP3 ADD MSTORE PUSH32 0x455243373231456E756D657261626C653A206F776E657220696E646578206F75 PUSH1 0x44 DUP3 ADD MSTORE PUSH11 0x74206F6620626F756E6473 PUSH1 0xA8 SHL PUSH1 0x64 DUP3 ADD MSTORE PUSH1 0x84 SWAP1 REVERT JUMPDEST POP CALLVALUE PUSH2 0x19F JUMPI PUSH1 0x20 CALLDATASIZE PUSH1 0x3 NOT ADD SLT PUSH2 0x19F JUMPI PUSH1 0xFF PUSH1 0x2 PUSH1 0x40 PUSH1 0x20 SWAP4 PUSH1 0x4 CALLDATALOAD PUSH2 0x12F1 PUSH2 0x2F5 DUP3 PUSH1 0x0 MSTORE PUSH1 0x2 PUSH1 0x20 MSTORE PUSH1 0x1 DUP1 PUSH1 0xA0 SHL SUB PUSH1 0x40 PUSH1 0x0 KECCAK256 SLOAD AND ISZERO ISZERO SWAP1 JUMP JUMPDEST DUP2 MSTORE PUSH1 0xD DUP6 MSTORE KECCAK256 ADD SLOAD AND PUSH1 0x40 MLOAD SWAP1 ISZERO ISZERO DUP2 MSTORE RETURN JUMPDEST POP CALLVALUE PUSH2 0x19F JUMPI PUSH1 0x20 CALLDATASIZE PUSH1 0x3 NOT ADD SLT PUSH2 0x19F JUMPI PUSH1 0x4 CALLDATALOAD PUSH1 0x1 DUP1 PUSH1 0xA0 SHL SUB PUSH2 0x1330 DUP2 PUSH1 0xE SLOAD AND CALLER EQ PUSH2 0x22D4 JUMP JUMPDEST PUSH1 0x0 DUP3 DUP2 MSTORE PUSH1 0x2 PUSH1 0x20 MSTORE PUSH1 0x40 SWAP1 KECCAK256 SLOAD PUSH2 0x1353 SWAP1 PUSH1 0x1 PUSH1 0x1 PUSH1 0xA0 SHL SUB AND ISZERO ISZERO PUSH2 0x1C28 JUMP JUMPDEST DUP2 DUP4 MSTORE PUSH1 0xD PUSH1 0x20 MSTORE PUSH1 0xFF PUSH1 0x2 PUSH1 0x40 DUP6 KECCAK256 ADD SLOAD AND PUSH2 0x13B9 JUMPI DUP2 DUP4 MSTORE PUSH1 0xD PUSH1 0x20 MSTORE PUSH1 0x40 DUP4 KECCAK256 PUSH1 0x2 DUP2 ADD DUP1 SLOAD PUSH1 0xFF NOT AND PUSH1 0x1 OR SWAP1 SSTORE SLOAD SWAP1 PUSH2 0x1390 DUP4 PUSH2 0x1C74 JUMP JUMPDEST AND SWAP2 PUSH32 0xB35EBDFB9515B145E406C5C5A0846EC436DB0B9560927AF3AF7A754D90C4F6FF DUP5 DUP1 LOG4 DUP1 RETURN JUMPDEST PUSH1 0x40 MLOAD PUSH3 0x461BCD PUSH1 0xE5 SHL DUP2 MSTORE PUSH1 0x20 PUSH1 0x4 DUP3 ADD MSTORE PUSH1 0x13 PUSH1 0x24 DUP3 ADD MSTORE PUSH19 0x151A58DAD95D08185B1C9958591E481D5CD959 PUSH1 0x6A SHL PUSH1 0x44 DUP3 ADD MSTORE PUSH1 0x64 SWAP1 REVERT JUMPDEST POP CALLVALUE PUSH2 0x19F JUMPI PUSH2 0x459 PUSH2 0x1406 CALLDATASIZE PUSH2 0x1AEA JUMP JUMPDEST SWAP2 PUSH2 0x1419 PUSH2 0x1414 DUP5 CALLER PUSH2 0x1DD5 JUMP JUMPDEST PUSH2 0x1CD8 JUMP JUMPDEST PUSH2 0x1E9D JUMP JUMPDEST POP CALLVALUE PUSH2 0x19F JUMPI DUP1 PUSH1 0x3 NOT CALLDATASIZE ADD SLT PUSH2 0x19F JUMPI PUSH1 0x20 PUSH1 0x8 SLOAD PUSH1 0x40 MLOAD SWAP1 DUP2 MSTORE RETURN JUMPDEST POP CALLVALUE PUSH2 0x19F JUMPI PUSH1 0x40 CALLDATASIZE PUSH1 0x3 NOT ADD SLT PUSH2 0x19F JUMPI PUSH2 0x1456 PUSH2 0x19CF JUMP JUMPDEST PUSH1 0x24 CALLDATALOAD SWAP1 PUSH1 0x1 PUSH1 0x1 PUSH1 0xA0 SHL SUB DUP1 DUP1 PUSH2 0x146D DUP6 PUSH2 0x1C74 JUMP JUMPDEST AND SWAP3 AND SWAP2 DUP1 DUP4 EQ PUSH2 0x1562 JUMPI DUP1 CALLER EQ SWAP1 DUP2 ISZERO PUSH2 0x1541 JUMPI JUMPDEST POP ISZERO PUSH2 0x14D6 JUMPI DUP3 DUP5 MSTORE PUSH1 0x4 PUSH1 0x20 MSTORE PUSH1 0x40 DUP5 KECCAK256 DUP1 SLOAD PUSH1 0x1 PUSH1 0x1 PUSH1 0xA0 SHL SUB NOT AND DUP4 OR SWAP1 SSTORE PUSH2 0x14AE DUP4 PUSH2 0x1C74 JUMP JUMPDEST AND PUSH32 0x8C5BE1E5EBEC7D5BD14F71427D1E84F3DD0314C0F7B2291E5B200AC8C7C3B925 DUP5 DUP1 LOG4 DUP1 RETURN JUMPDEST PUSH1 0x40 MLOAD PUSH3 0x461BCD PUSH1 0xE5 SHL DUP2 MSTORE PUSH1 0x20 PUSH1 0x4 DUP3 ADD MSTORE PUSH1 0x3D PUSH1 0x24 DUP3 ADD MSTORE PUSH32 0x4552433732313A20617070726F76652063616C6C6572206973206E6F7420746F PUSH1 0x44 DUP3 ADD MSTORE PUSH32 0x6B656E206F776E6572206F7220617070726F76656420666F7220616C6C000000 PUSH1 0x64 DUP3 ADD MSTORE PUSH1 0x84 SWAP1 REVERT JUMPDEST SWAP1 POP DUP5 MSTORE PUSH1 0x5 PUSH1 0x20 MSTORE PUSH1 0x40 DUP5 KECCAK256 CALLER DUP6 MSTORE PUSH1 0x20 MSTORE PUSH1 0xFF PUSH1 0x40 DUP6 KECCAK256 SLOAD AND CODESIZE PUSH2 0x1483 JUMP JUMPDEST PUSH1 0x40 MLOAD PUSH3 0x461BCD PUSH1 0xE5 SHL DUP2 MSTORE PUSH1 0x20 PUSH1 0x4 DUP3 ADD MSTORE PUSH1 0x21 PUSH1 0x24 DUP3 ADD MSTORE PUSH32 0x4552433732313A20617070726F76616C20746F2063757272656E74206F776E65 PUSH1 0x44 DUP3 ADD MSTORE PUSH1 0x39 PUSH1 0xF9 SHL PUSH1 0x64 DUP3 ADD MSTORE PUSH1 0x84 SWAP1 REVERT JUMPDEST POP CALLVALUE PUSH2 0x19F JUMPI PUSH1 0x20 CALLDATASIZE PUSH1 0x3 NOT ADD SLT PUSH2 0x19F JUMPI PUSH1 0x20 PUSH2 0x1019 PUSH1 0x4 CALLDATALOAD PUSH2 0x1C9A JUMP JUMPDEST POP CALLVALUE PUSH2 0x19F JUMPI DUP1 PUSH1 0x3 NOT CALLDATASIZE ADD SLT PUSH2 0x19F JUMPI PUSH1 0xE SLOAD PUSH1 0x40 MLOAD PUSH1 0x1 PUSH1 0x1 PUSH1 0xA0 SHL SUB SWAP1 SWAP2 AND DUP2 MSTORE PUSH1 0x20 SWAP1 RETURN JUMPDEST POP CALLVALUE PUSH2 0x19F JUMPI DUP1 PUSH1 0x3 NOT CALLDATASIZE ADD SLT PUSH2 0x19F JUMPI PUSH1 0x40 MLOAD SWAP1 DUP1 DUP1 SLOAD PUSH2 0x161A DUP2 PUSH2 0x1B1F JUMP JUMPDEST DUP1 DUP6 MSTORE SWAP2 PUSH1 0x1 SWAP2 DUP1 DUP4 AND SWAP1 DUP2 ISZERO PUSH2 0xEA9 JUMPI POP PUSH1 0x1 EQ PUSH2 0x1643 JUMPI PUSH2 0x381 DUP6 PUSH2 0xE3B DUP2 DUP8 SUB DUP3 PUSH2 0x1A2D JUMP JUMPDEST DUP1 DUP1 SWAP5 POP MSTORE PUSH32 0x290DECD9548B62A8D60345A988386FC84BA6BC95484008F6362F93160EF3E563 JUMPDEST DUP3 DUP5 LT PUSH2 0x1685 JUMPI POP POP POP DUP2 ADD PUSH1 0x20 ADD PUSH2 0xE3B DUP3 PUSH2 0x381 PUSH2 0xE2B JUMP JUMPDEST DUP1 SLOAD PUSH1 0x20 DUP6 DUP8 ADD DUP2 ADD SWAP2 SWAP1 SWAP2 MSTORE SWAP1 SWAP4 ADD SWAP3 DUP2 ADD PUSH2 0x166A JUMP JUMPDEST POP CALLVALUE PUSH2 0x19F JUMPI PUSH1 0x60 CALLDATASIZE PUSH1 0x3 NOT ADD SLT PUSH2 0x19F JUMPI PUSH2 0x16B7 PUSH2 0x19CF JUMP JUMPDEST PUSH1 0x24 CALLDATALOAD SWAP1 PUSH8 0xFFFFFFFFFFFFFFFF PUSH1 0x44 CALLDATALOAD DUP2 DUP2 GT PUSH2 0x8AE JUMPI CALLDATASIZE PUSH1 0x23 DUP3 ADD SLT ISZERO PUSH2 0x8AE JUMPI PUSH2 0x16ED SWAP1 CALLDATASIZE SWAP1 PUSH1 0x24 DUP2 PUSH1 0x4 ADD CALLDATALOAD SWAP2 ADD PUSH2 0x1A6B JUMP JUMPDEST SWAP2 PUSH1 0x1 DUP1 PUSH1 0xA0 SHL SUB SWAP2 PUSH2 0x1705 DUP4 PUSH1 0xE SLOAD AND CALLER EQ PUSH2 0x22D4 JUMP JUMPDEST DUP3 PUSH1 0xC SLOAD AND PUSH1 0x40 MLOAD DUP1 SWAP2 PUSH4 0x49287C0B PUSH1 0xE0 SHL DUP3 MSTORE DUP8 PUSH1 0x4 DUP4 ADD MSTORE DUP2 PUSH1 0x24 PUSH1 0x20 SWAP5 DUP6 SWAP4 GAS STATICCALL DUP1 ISZERO PUSH2 0x193D JUMPI DUP9 SWAP1 PUSH2 0x1903 JUMPI JUMPDEST PUSH2 0x1740 SWAP2 POP PUSH2 0x2326 JUMP JUMPDEST PUSH1 0xB SLOAD SWAP5 PUSH1 0x1 SWAP3 DUP4 DUP8 ADD DUP1 DUP9 GT PUSH2 0x18EF JUMPI PUSH1 0xB SSTORE PUSH1 0x40 MLOAD SWAP4 PUSH2 0x1761 DUP6 PUSH2 0x19FB JUMP JUMPDEST DUP9 DUP6 MSTORE DUP4 DUP6 ADD SWAP3 DUP4 MSTORE PUSH1 0x40 DUP6 ADD SWAP4 DUP11 DUP6 MSTORE DUP9 DUP12 MSTORE PUSH1 0xD DUP2 MSTORE PUSH1 0x40 DUP12 KECCAK256 SWAP6 MLOAD DUP7 SSTORE DUP2 DUP7 ADD SWAP4 MLOAD DUP1 MLOAD SWAP4 DUP5 GT PUSH2 0x18DB JUMPI SWAP1 DUP5 SWAP4 SWAP3 SWAP2 PUSH2 0x17A1 DUP14 SWAP9 SWAP8 SWAP7 SLOAD PUSH2 0x1B1F JUMP JUMPDEST PUSH1 0x1F DUP2 GT PUSH2 0x18A2 JUMPI JUMPDEST POP DUP2 PUSH1 0x1F DUP6 GT PUSH1 0x1 EQ PUSH2 0x1832 JUMPI POP SWAP3 DUP1 SWAP3 DUP2 SWAP3 PUSH1 0x2 SWAP8 SWAP7 SWAP6 PUSH2 0x17F4 SWAP11 SWAP5 PUSH2 0x1827 JUMPI JUMPDEST POP POP SHL SWAP2 PUSH1 0x0 NOT SWAP1 PUSH1 0x3 SHL SHR NOT AND OR SWAP1 SSTORE JUMPDEST MLOAD ISZERO ISZERO SWAP2 ADD SWAP1 PUSH1 0xFF DUP1 NOT DUP4 SLOAD AND SWAP2 ISZERO ISZERO AND OR SWAP1 SSTORE JUMP JUMPDEST PUSH2 0x17FE DUP4 DUP3 PUSH2 0x23D5 JUMP JUMPDEST AND SWAP1 PUSH32 0x5C1C9352D51031ACC9A558D7CDCCA15B0CE5FE4F46D7315CCA355248175B0A37 DUP5 DUP1 LOG4 DUP1 RETURN JUMPDEST ADD MLOAD SWAP3 POP CODESIZE DUP1 PUSH2 0x17CC JUMP JUMPDEST PUSH1 0x1F SWAP9 SWAP4 SWAP6 SWAP7 SWAP8 SWAP9 NOT DUP6 AND SWAP1 DUP8 DUP6 MSTORE DUP1 DUP6 KECCAK256 SWAP5 SWAP1 JUMPDEST DUP3 DUP3 LT PUSH2 0x188B JUMPI POP POP SWAP2 PUSH2 0x17F4 SWAP9 SWAP8 SWAP6 SWAP4 SWAP2 DUP6 PUSH1 0x2 SWAP9 SWAP7 SWAP5 LT PUSH2 0x1872 JUMPI JUMPDEST POP POP POP DUP2 SHL ADD SWAP1 SSTORE PUSH2 0x17DE JUMP JUMPDEST ADD MLOAD PUSH1 0x0 NOT PUSH1 0xF8 DUP5 PUSH1 0x3 SHL AND SHR NOT AND SWAP1 SSTORE CODESIZE DUP1 DUP1 PUSH2 0x1865 JUMP JUMPDEST DUP1 DUP9 DUP7 SWAP8 DUP3 SWAP5 SWAP8 DUP8 ADD MLOAD DUP2 SSTORE ADD SWAP7 ADD SWAP5 ADD SWAP1 PUSH2 0x1847 JUMP JUMPDEST PUSH2 0x18CB SWAP1 DUP7 DUP11 MSTORE DUP4 DUP11 KECCAK256 PUSH1 0x1F DUP8 ADD PUSH1 0x5 SHR DUP2 ADD SWAP2 DUP6 DUP9 LT PUSH2 0x18D1 JUMPI JUMPDEST PUSH1 0x1F ADD PUSH1 0x5 SHR ADD SWAP1 PUSH2 0x2372 JUMP JUMPDEST CODESIZE PUSH2 0x17AA JUMP JUMPDEST SWAP1 SWAP2 POP DUP2 SWAP1 PUSH2 0x18BE JUMP JUMPDEST PUSH4 0x4E487B71 PUSH1 0xE0 SHL DUP13 MSTORE PUSH1 0x41 PUSH1 0x4 MSTORE PUSH1 0x24 DUP13 REVERT JUMPDEST PUSH4 0x4E487B71 PUSH1 0xE0 SHL DUP11 MSTORE PUSH1 0x11 PUSH1 0x4 MSTORE PUSH1 0x24 DUP11 REVERT JUMPDEST POP DUP2 DUP2 DUP2 RETURNDATASIZE DUP4 GT PUSH2 0x1936 JUMPI JUMPDEST PUSH2 0x1919 DUP2 DUP4 PUSH2 0x1A2D JUMP JUMPDEST DUP2 ADD SUB SLT PUSH2 0x1932 JUMPI PUSH2 0x192D PUSH2 0x1740 SWAP2 PUSH2 0x2319 JUMP JUMPDEST PUSH2 0x1736 JUMP JUMPDEST DUP8 DUP1 REVERT JUMPDEST POP RETURNDATASIZE PUSH2 0x190F JUMP JUMPDEST PUSH1 0x40 MLOAD RETURNDATASIZE DUP11 DUP3 RETURNDATACOPY RETURNDATASIZE SWAP1 REVERT JUMPDEST SWAP1 POP CALLVALUE PUSH2 0x3F4 JUMPI PUSH1 0x20 CALLDATASIZE PUSH1 0x3 NOT ADD SLT PUSH2 0x3F4 JUMPI PUSH1 0x4 CALLDATALOAD PUSH4 0xFFFFFFFF PUSH1 0xE0 SHL DUP2 AND DUP1 SWAP2 SUB PUSH2 0x8AA JUMPI PUSH1 0x20 SWAP3 POP PUSH4 0x780E9D63 PUSH1 0xE0 SHL DUP2 EQ SWAP1 DUP2 ISZERO PUSH2 0x198C JUMPI JUMPDEST POP ISZERO ISZERO DUP2 MSTORE RETURN JUMPDEST PUSH4 0x80AC58CD PUSH1 0xE0 SHL DUP2 EQ SWAP2 POP DUP2 ISZERO PUSH2 0x19BE JUMPI JUMPDEST DUP2 ISZERO PUSH2 0x19AD JUMPI JUMPDEST POP CODESIZE PUSH2 0x1985 JUMP JUMPDEST PUSH4 0x1FFC9A7 PUSH1 0xE0 SHL EQ SWAP1 POP CODESIZE PUSH2 0x19A6 JUMP JUMPDEST PUSH4 0x5B5E139F PUSH1 0xE0 SHL DUP2 EQ SWAP2 POP PUSH2 0x199F JUMP JUMPDEST PUSH1 0x4 CALLDATALOAD SWAP1 PUSH1 0x1 PUSH1 0x1 PUSH1 0xA0 SHL SUB DUP3 AND DUP3 SUB PUSH2 0x627 JUMPI JUMP JUMPDEST PUSH1 0x24 CALLDATALOAD SWAP1 PUSH1 0x1 PUSH1 0x1 PUSH1 0xA0 SHL SUB DUP3 AND DUP3 SUB PUSH2 0x627 JUMPI JUMP JUMPDEST PUSH1 0x60 DUP2 ADD SWAP1 DUP2 LT PUSH8 0xFFFFFFFFFFFFFFFF DUP3 GT OR PUSH2 0x1A17 JUMPI PUSH1 0x40 MSTORE JUMP JUMPDEST PUSH4 0x4E487B71 PUSH1 0xE0 SHL PUSH1 0x0 MSTORE PUSH1 0x41 PUSH1 0x4 MSTORE PUSH1 0x24 PUSH1 0x0 REVERT JUMPDEST SWAP1 PUSH1 0x1F DUP1 NOT SWAP2 ADD AND DUP2 ADD SWAP1 DUP2 LT PUSH8 0xFFFFFFFFFFFFFFFF DUP3 GT OR PUSH2 0x1A17 JUMPI PUSH1 0x40 MSTORE JUMP JUMPDEST PUSH8 0xFFFFFFFFFFFFFFFF DUP2 GT PUSH2 0x1A17 JUMPI PUSH1 0x1F ADD PUSH1 0x1F NOT AND PUSH1 0x20 ADD SWAP1 JUMP JUMPDEST SWAP3 SWAP2 SWAP3 PUSH2 0x1A77 DUP3 PUSH2 0x1A4F JUMP JUMPDEST SWAP2 PUSH2 0x1A85 PUSH1 0x40 MLOAD SWAP4 DUP5 PUSH2 0x1A2D JUMP JUMPDEST DUP3 SWAP5 DUP2 DUP5 MSTORE DUP2 DUP4 ADD GT PUSH2 0x627 JUMPI DUP3 DUP2 PUSH1 0x20 SWAP4 DUP5 PUSH1 0x0 SWAP7 ADD CALLDATACOPY ADD ADD MSTORE JUMP JUMPDEST PUSH1 0x0 JUMPDEST DUP4 DUP2 LT PUSH2 0x1AB5 JUMPI POP POP PUSH1 0x0 SWAP2 ADD MSTORE JUMP JUMPDEST DUP2 DUP2 ADD MLOAD DUP4 DUP3 ADD MSTORE PUSH1 0x20 ADD PUSH2 0x1AA5 JUMP JUMPDEST SWAP1 PUSH1 0x20 SWAP2 PUSH2 0x1ADE DUP2 MLOAD DUP1 SWAP3 DUP2 DUP6 MSTORE DUP6 DUP1 DUP7 ADD SWAP2 ADD PUSH2 0x1AA2 JUMP JUMPDEST PUSH1 0x1F ADD PUSH1 0x1F NOT AND ADD ADD SWAP1 JUMP JUMPDEST PUSH1 0x60 SWAP1 PUSH1 0x3 NOT ADD SLT PUSH2 0x627 JUMPI PUSH1 0x1 PUSH1 0x1 PUSH1 0xA0 SHL SUB SWAP1 PUSH1 0x4 CALLDATALOAD DUP3 DUP2 AND DUP2 SUB PUSH2 0x627 JUMPI SWAP2 PUSH1 0x24 CALLDATALOAD SWAP1 DUP2 AND DUP2 SUB PUSH2 0x627 JUMPI SWAP1 PUSH1 0x44 CALLDATALOAD SWAP1 JUMP JUMPDEST SWAP1 PUSH1 0x1 DUP3 DUP2 SHR SWAP3 AND DUP1 ISZERO PUSH2 0x1B4F JUMPI JUMPDEST PUSH1 0x20 DUP4 LT EQ PUSH2 0x1B39 JUMPI JUMP JUMPDEST PUSH4 0x4E487B71 PUSH1 0xE0 SHL PUSH1 0x0 MSTORE PUSH1 0x22 PUSH1 0x4 MSTORE PUSH1 0x24 PUSH1 0x0 REVERT JUMPDEST SWAP2 PUSH1 0x7F AND SWAP2 PUSH2 0x1B2E JUMP JUMPDEST PUSH1 0xA SLOAD PUSH1 0x1 PUSH1 0x1 PUSH1 0xA0 SHL SUB AND CALLER SUB PUSH2 0x1B6D JUMPI JUMP JUMPDEST PUSH1 0x64 PUSH1 0x40 MLOAD PUSH3 0x461BCD PUSH1 0xE5 SHL DUP2 MSTORE PUSH1 0x20 PUSH1 0x4 DUP3 ADD MSTORE PUSH1 0x20 PUSH1 0x24 DUP3 ADD MSTORE PUSH32 0x4F776E61626C653A2063616C6C6572206973206E6F7420746865206F776E6572 PUSH1 0x44 DUP3 ADD MSTORE REVERT JUMPDEST PUSH1 0x1 PUSH1 0x1 PUSH1 0xA0 SHL SUB AND DUP1 ISZERO PUSH2 0x1BD1 JUMPI PUSH1 0x0 MSTORE PUSH1 0x3 PUSH1 0x20 MSTORE PUSH1 0x40 PUSH1 0x0 KECCAK256 SLOAD SWAP1 JUMP JUMPDEST PUSH1 0x40 MLOAD PUSH3 0x461BCD PUSH1 0xE5 SHL DUP2 MSTORE PUSH1 0x20 PUSH1 0x4 DUP3 ADD MSTORE PUSH1 0x29 PUSH1 0x24 DUP3 ADD MSTORE PUSH32 0x4552433732313A2061646472657373207A65726F206973206E6F742061207661 PUSH1 0x44 DUP3 ADD MSTORE PUSH9 0x3634B21037BBB732B9 PUSH1 0xB9 SHL PUSH1 0x64 DUP3 ADD MSTORE PUSH1 0x84 SWAP1 REVERT JUMPDEST ISZERO PUSH2 0x1C2F JUMPI JUMP JUMPDEST PUSH1 0x40 MLOAD PUSH3 0x461BCD PUSH1 0xE5 SHL DUP2 MSTORE PUSH1 0x20 PUSH1 0x4 DUP3 ADD MSTORE PUSH1 0x18 PUSH1 0x24 DUP3 ADD MSTORE PUSH32 0x4552433732313A20696E76616C696420746F6B656E2049440000000000000000 PUSH1 0x44 DUP3 ADD MSTORE PUSH1 0x64 SWAP1 REVERT JUMPDEST PUSH1 0x0 SWAP1 DUP2 MSTORE PUSH1 0x2 PUSH1 0x20 MSTORE PUSH1 0x40 SWAP1 KECCAK256 SLOAD PUSH1 0x1 PUSH1 0x1 PUSH1 0xA0 SHL SUB AND PUSH2 0x1C97 DUP2 ISZERO ISZERO PUSH2 0x1C28 JUMP JUMPDEST SWAP1 JUMP JUMPDEST PUSH1 0x0 DUP2 DUP2 MSTORE PUSH1 0x2 PUSH1 0x20 MSTORE PUSH1 0x40 SWAP1 KECCAK256 SLOAD PUSH2 0x1CBD SWAP1 PUSH1 0x1 PUSH1 0x1 PUSH1 0xA0 SHL SUB AND ISZERO ISZERO PUSH2 0x1C28 JUMP JUMPDEST PUSH1 0x0 SWAP1 DUP2 MSTORE PUSH1 0x4 PUSH1 0x20 MSTORE PUSH1 0x40 SWAP1 KECCAK256 SLOAD PUSH1 0x1 PUSH1 0x1 PUSH1 0xA0 SHL SUB AND SWAP1 JUMP JUMPDEST ISZERO PUSH2 0x1CDF JUMPI JUMP JUMPDEST PUSH1 0x40 MLOAD PUSH3 0x461BCD PUSH1 0xE5 SHL DUP2 MSTORE PUSH1 0x20 PUSH1 0x4 DUP3 ADD MSTORE PUSH1 0x2D PUSH1 0x24 DUP3 ADD MSTORE PUSH32 0x4552433732313A2063616C6C6572206973206E6F7420746F6B656E206F776E65 PUSH1 0x44 DUP3 ADD MSTORE PUSH13 0x1C881BDC88185C1C1C9BDD9959 PUSH1 0x9A SHL PUSH1 0x64 DUP3 ADD MSTORE PUSH1 0x84 SWAP1 REVERT JUMPDEST SWAP1 PUSH2 0x1D5E SWAP4 SWAP3 SWAP2 PUSH2 0x1D4E PUSH2 0x1414 DUP5 CALLER PUSH2 0x1DD5 JUMP JUMPDEST PUSH2 0x1D59 DUP4 DUP4 DUP4 PUSH2 0x1E9D JUMP JUMPDEST PUSH2 0x216A JUMP JUMPDEST ISZERO PUSH2 0x1D65 JUMPI JUMP JUMPDEST PUSH1 0x40 MLOAD PUSH3 0x461BCD PUSH1 0xE5 SHL DUP2 MSTORE DUP1 PUSH2 0x1D7E PUSH1 0x4 DUP3 ADD PUSH2 0x1D82 JUMP JUMPDEST SUB SWAP1 REVERT JUMPDEST PUSH1 0x80 SWAP1 PUSH1 0x20 DUP2 MSTORE PUSH1 0x32 PUSH1 0x20 DUP3 ADD MSTORE PUSH32 0x4552433732313A207472616E7366657220746F206E6F6E204552433732315265 PUSH1 0x40 DUP3 ADD MSTORE PUSH18 0x31B2B4BB32B91034B6B83632B6B2B73A32B9 PUSH1 0x71 SHL PUSH1 0x60 DUP3 ADD MSTORE ADD SWAP1 JUMP JUMPDEST SWAP1 PUSH1 0x1 PUSH1 0x1 PUSH1 0xA0 SHL SUB DUP1 DUP1 PUSH2 0x1DE9 DUP5 PUSH2 0x1C74 JUMP JUMPDEST AND SWAP4 AND SWAP2 DUP4 DUP4 EQ SWAP4 DUP5 ISZERO PUSH2 0x1E1C JUMPI JUMPDEST POP DUP4 ISZERO PUSH2 0x1E06 JUMPI JUMPDEST POP POP POP SWAP1 JUMP JUMPDEST PUSH2 0x1E12 SWAP2 SWAP3 SWAP4 POP PUSH2 0x1C9A JUMP JUMPDEST AND EQ CODESIZE DUP1 DUP1 PUSH2 0x1E00 JUMP JUMPDEST SWAP1 SWAP4 POP PUSH1 0x0 MSTORE PUSH1 0x5 PUSH1 0x20 MSTORE PUSH1 0x40 PUSH1 0x0 KECCAK256 DUP3 PUSH1 0x0 MSTORE PUSH1 0x20 MSTORE PUSH1 0xFF PUSH1 0x40 PUSH1 0x0 KECCAK256 SLOAD AND SWAP3 CODESIZE PUSH2 0x1DF8 JUMP JUMPDEST ISZERO PUSH2 0x1E4A JUMPI JUMP JUMPDEST PUSH1 0x40 MLOAD PUSH3 0x461BCD PUSH1 0xE5 SHL DUP2 MSTORE PUSH1 0x20 PUSH1 0x4 DUP3 ADD MSTORE PUSH1 0x25 PUSH1 0x24 DUP3 ADD MSTORE PUSH32 0x4552433732313A207472616E736665722066726F6D20696E636F727265637420 PUSH1 0x44 DUP3 ADD MSTORE PUSH5 0x37BBB732B9 PUSH1 0xD9 SHL PUSH1 0x64 DUP3 ADD MSTORE PUSH1 0x84 SWAP1 REVERT JUMPDEST SWAP1 PUSH2 0x1EC3 SWAP1 PUSH2 0x1EAB DUP5 PUSH2 0x1C74 JUMP JUMPDEST PUSH1 0x1 PUSH1 0x1 PUSH1 0xA0 SHL SUB DUP5 DUP2 AND SWAP4 SWAP1 SWAP3 SWAP2 DUP4 AND DUP5 EQ PUSH2 0x1E43 JUMP JUMPDEST DUP2 DUP2 AND SWAP4 DUP5 ISZERO PUSH2 0x2119 JUMPI DUP4 DUP1 ISZERO SWAP2 DUP3 PUSH1 0x0 EQ PUSH2 0x2066 JUMPI POP POP PUSH1 0x8 SLOAD SWAP2 DUP7 PUSH1 0x0 MSTORE PUSH1 0x9 PUSH1 0x20 MSTORE DUP3 PUSH1 0x40 PUSH1 0x0 KECCAK256 SSTORE PUSH1 0x1 PUSH1 0x40 SHL DUP4 LT ISZERO PUSH2 0x1A17 JUMPI PUSH2 0x1F10 DUP8 PUSH2 0xA46 DUP6 PUSH1 0x1 DUP10 SWAP8 ADD PUSH1 0x8 SSTORE PUSH2 0x2287 JUMP JUMPDEST DUP3 DUP7 SUB PUSH2 0x2033 JUMPI JUMPDEST POP ISZERO DUP1 PUSH2 0x202B JUMPI JUMPDEST PUSH2 0x1FB4 JUMPI JUMPDEST PUSH2 0x1F39 SWAP2 PUSH2 0x1F32 DUP7 PUSH2 0x1C74 JUMP JUMPDEST AND EQ PUSH2 0x1E43 JUMP JUMPDEST PUSH32 0xDDF252AD1BE2C89B69C2B068FC378DAA952BA7F163C4A11628F55A4DF523B3EF PUSH1 0x0 DUP5 DUP2 MSTORE PUSH1 0x4 PUSH1 0x20 MSTORE PUSH1 0x40 DUP2 KECCAK256 PUSH1 0x1 PUSH1 0x1 PUSH1 0x60 SHL SUB PUSH1 0xA0 SHL SWAP1 DUP2 DUP2 SLOAD AND SWAP1 SSTORE DUP4 DUP3 MSTORE PUSH1 0x3 PUSH1 0x20 MSTORE PUSH1 0x40 DUP3 KECCAK256 PUSH1 0x0 NOT DUP2 SLOAD ADD SWAP1 SSTORE DUP5 DUP3 MSTORE PUSH1 0x40 DUP3 KECCAK256 PUSH1 0x1 DUP2 SLOAD ADD SWAP1 SSTORE DUP6 DUP3 MSTORE PUSH1 0x2 PUSH1 0x20 MSTORE DUP5 PUSH1 0x40 DUP4 KECCAK256 SWAP2 DUP3 SLOAD AND OR SWAP1 SSTORE DUP1 LOG4 JUMP JUMPDEST POP DUP4 PUSH1 0x0 MSTORE PUSH1 0xD PUSH1 0x20 MSTORE PUSH1 0xFF PUSH1 0x2 PUSH1 0x40 PUSH1 0x0 KECCAK256 ADD SLOAD AND PUSH2 0x1FD4 JUMPI DUP2 PUSH2 0x1F25 JUMP JUMPDEST PUSH1 0x40 MLOAD PUSH3 0x461BCD PUSH1 0xE5 SHL DUP2 MSTORE PUSH1 0x20 PUSH1 0x4 DUP3 ADD MSTORE PUSH1 0x29 PUSH1 0x24 DUP3 ADD MSTORE PUSH32 0x5469636B65743A2075736564207469636B65742063616E6E6F74206265207472 PUSH1 0x44 DUP3 ADD MSTORE PUSH9 0x185B9CD9995C9C9959 PUSH1 0xBA SHL PUSH1 0x64 DUP3 ADD MSTORE PUSH1 0x84 SWAP1 REVERT JUMPDEST POP PUSH1 0x1 PUSH2 0x1F20 JUMP JUMPDEST PUSH2 0x203C SWAP1 PUSH2 0x1BB1 JUMP JUMPDEST PUSH1 0x40 PUSH1 0x0 DUP8 DUP2 MSTORE PUSH1 0x6 PUSH1 0x20 MSTORE DUP2 DUP2 KECCAK256 DUP4 DUP3 MSTORE PUSH1 0x20 MSTORE DUP9 DUP3 DUP3 KECCAK256 SSTORE DUP9 DUP2 MSTORE PUSH1 0x7 PUSH1 0x20 MSTORE KECCAK256 SSTORE CODESIZE PUSH2 0x1F18 JUMP JUMPDEST DUP7 DUP3 SWAP5 SWAP3 SUB PUSH2 0x2076 JUMPI JUMPDEST POP PUSH2 0x1F10 JUMP JUMPDEST PUSH2 0x2081 SWAP2 SWAP4 POP PUSH2 0x1BB1 JUMP JUMPDEST PUSH1 0x0 NOT DUP2 ADD SWAP3 SWAP1 DUP4 GT PUSH2 0x2103 JUMPI DUP5 SWAP3 PUSH1 0x0 SWAP1 DUP9 DUP3 MSTORE PUSH1 0x20 SWAP1 PUSH1 0x7 DUP3 MSTORE PUSH1 0x40 SWAP2 DUP3 DUP5 KECCAK256 SLOAD DUP3 DUP2 SUB PUSH2 0x20CC JUMPI JUMPDEST POP DUP11 DUP5 MSTORE DUP4 DUP4 DUP2 KECCAK256 SSTORE DUP7 DUP5 MSTORE PUSH1 0x6 DUP2 MSTORE DUP3 DUP5 KECCAK256 SWAP2 DUP5 MSTORE MSTORE DUP2 KECCAK256 SSTORE CODESIZE PUSH2 0x2070 JUMP JUMPDEST DUP8 DUP6 MSTORE PUSH1 0x6 DUP3 MSTORE DUP4 DUP6 KECCAK256 DUP4 DUP7 MSTORE DUP3 MSTORE DUP4 DUP6 KECCAK256 SLOAD DUP9 DUP7 MSTORE PUSH1 0x6 DUP4 MSTORE DUP5 DUP7 KECCAK256 DUP3 DUP8 MSTORE DUP4 MSTORE DUP1 DUP6 DUP8 KECCAK256 SSTORE DUP6 MSTORE PUSH1 0x7 DUP3 MSTORE DUP4 DUP6 KECCAK256 SSTORE CODESIZE PUSH2 0x20AC JUMP JUMPDEST PUSH4 0x4E487B71 PUSH1 0xE0 SHL PUSH1 0x0 MSTORE PUSH1 0x11 PUSH1 0x4 MSTORE PUSH1 0x24 PUSH1 0x0 REVERT JUMPDEST PUSH1 0x40 MLOAD PUSH3 0x461BCD PUSH1 0xE5 SHL DUP2 MSTORE PUSH1 0x20 PUSH1 0x4 DUP3 ADD MSTORE PUSH1 0x24 DUP1 DUP3 ADD MSTORE PUSH32 0x4552433732313A207472616E7366657220746F20746865207A65726F20616464 PUSH1 0x44 DUP3 ADD MSTORE PUSH4 0x72657373 PUSH1 0xE0 SHL PUSH1 0x64 DUP3 ADD MSTORE PUSH1 0x84 SWAP1 REVERT JUMPDEST SWAP3 SWAP4 SWAP2 SWAP1 DUP1 EXTCODESIZE ISZERO PUSH2 0x227D JUMPI PUSH2 0x21BC SWAP5 PUSH1 0x40 MLOAD DUP1 SWAP3 PUSH4 0xA85BD01 PUSH1 0xE1 SHL SWAP5 DUP6 DUP4 MSTORE CALLER PUSH1 0x4 DUP5 ADD MSTORE PUSH1 0x1 DUP1 PUSH1 0xA0 SHL SUB DUP1 SWAP9 AND PUSH1 0x24 DUP5 ADD MSTORE PUSH1 0x44 DUP4 ADD MSTORE PUSH1 0x80 PUSH1 0x64 DUP4 ADD MSTORE DUP2 DUP1 PUSH1 0x20 SWAP10 DUP11 SWAP6 PUSH1 0x84 DUP4 ADD SWAP1 PUSH2 0x1AC5 JUMP JUMPDEST SUB SWAP2 PUSH1 0x0 SWAP9 DUP10 SWAP2 AND GAS CALL DUP5 SWAP2 DUP2 PUSH2 0x223D JUMPI JUMPDEST POP PUSH2 0x222C JUMPI POP POP POP RETURNDATASIZE PUSH1 0x0 EQ PUSH2 0x2224 JUMPI RETURNDATASIZE PUSH2 0x21E8 DUP2 PUSH2 0x1A4F JUMP JUMPDEST SWAP1 PUSH2 0x21F6 PUSH1 0x40 MLOAD SWAP3 DUP4 PUSH2 0x1A2D JUMP JUMPDEST DUP2 MSTORE DUP1 SWAP2 DUP4 RETURNDATASIZE SWAP3 ADD RETURNDATACOPY JUMPDEST DUP1 MLOAD SWAP2 DUP3 PUSH2 0x2221 JUMPI PUSH1 0x40 MLOAD PUSH3 0x461BCD PUSH1 0xE5 SHL DUP2 MSTORE DUP1 PUSH2 0x1D7E PUSH1 0x4 DUP3 ADD PUSH2 0x1D82 JUMP JUMPDEST ADD REVERT JUMPDEST POP PUSH1 0x60 PUSH2 0x2200 JUMP JUMPDEST PUSH1 0x1 PUSH1 0x1 PUSH1 0xE0 SHL SUB NOT AND EQ SWAP3 POP SWAP1 POP JUMP JUMPDEST SWAP1 SWAP2 POP DUP6 DUP2 DUP2 RETURNDATASIZE DUP4 GT PUSH2 0x2276 JUMPI JUMPDEST PUSH2 0x2255 DUP2 DUP4 PUSH2 0x1A2D JUMP JUMPDEST DUP2 ADD SUB SLT PUSH2 0x8AE JUMPI MLOAD PUSH1 0x1 PUSH1 0x1 PUSH1 0xE0 SHL SUB NOT DUP2 AND DUP2 SUB PUSH2 0x8AE JUMPI SWAP1 CODESIZE PUSH2 0x21CE JUMP JUMPDEST POP RETURNDATASIZE PUSH2 0x224B JUMP JUMPDEST POP POP SWAP2 POP POP PUSH1 0x1 SWAP1 JUMP JUMPDEST PUSH1 0x8 SLOAD DUP2 LT ISZERO PUSH2 0x22BE JUMPI PUSH1 0x8 PUSH1 0x0 MSTORE PUSH32 0xF3F7A9FE364FAAB93B216DA50A3214154F22A0A2B415B23A84C8169E8B636EE3 ADD SWAP1 PUSH1 0x0 SWAP1 JUMP JUMPDEST PUSH4 0x4E487B71 PUSH1 0xE0 SHL PUSH1 0x0 MSTORE PUSH1 0x32 PUSH1 0x4 MSTORE PUSH1 0x24 PUSH1 0x0 REVERT JUMPDEST ISZERO PUSH2 0x22DB JUMPI JUMP JUMPDEST PUSH1 0x40 MLOAD PUSH3 0x461BCD PUSH1 0xE5 SHL DUP2 MSTORE PUSH1 0x20 PUSH1 0x4 DUP3 ADD MSTORE PUSH1 0x16 PUSH1 0x24 DUP3 ADD MSTORE PUSH22 0x139BDD08185D5D1A1BDC9A5E9959081D1BC81B5A5B9D PUSH1 0x52 SHL PUSH1 0x44 DUP3 ADD MSTORE PUSH1 0x64 SWAP1 REVERT JUMPDEST MLOAD SWAP1 DUP2 ISZERO ISZERO DUP3 SUB PUSH2 0x627 JUMPI JUMP JUMPDEST ISZERO PUSH2 0x232D JUMPI JUMP JUMPDEST PUSH1 0x40 MLOAD PUSH3 0x461BCD PUSH1 0xE5 SHL DUP2 MSTORE PUSH1 0x20 PUSH1 0x4 DUP3 ADD MSTORE PUSH1 0x18 PUSH1 0x24 DUP3 ADD MSTORE PUSH32 0x496E76616C6964206F722065787069726564206576656E740000000000000000 PUSH1 0x44 DUP3 ADD MSTORE PUSH1 0x64 SWAP1 REVERT JUMPDEST DUP2 DUP2 LT PUSH2 0x237D JUMPI POP POP JUMP JUMPDEST PUSH1 0x0 DUP2 SSTORE PUSH1 0x1 ADD PUSH2 0x2372 JUMP JUMPDEST ISZERO PUSH2 0x2390 JUMPI JUMP JUMPDEST PUSH1 0x40 MLOAD PUSH3 0x461BCD PUSH1 0xE5 SHL DUP2 MSTORE PUSH1 0x20 PUSH1 0x4 DUP3 ADD MSTORE PUSH1 0x1C PUSH1 0x24 DUP3 ADD MSTORE PUSH32 0x4552433732313A20746F6B656E20616C7265616479206D696E74656400000000 PUSH1 0x44 DUP3 ADD MSTORE PUSH1 0x64 SWAP1 REVERT JUMPDEST PUSH1 0x1 PUSH1 0x1 PUSH1 0xA0 SHL SUB DUP2 AND SWAP1 DUP2 ISZERO PUSH2 0x24DA JUMPI PUSH1 0x0 DUP4 DUP2 MSTORE PUSH1 0x2 PUSH1 0x20 MSTORE PUSH1 0x40 SWAP1 KECCAK256 SLOAD PUSH2 0x240B SWAP1 PUSH1 0x1 PUSH1 0x1 PUSH1 0xA0 SHL SUB AND ISZERO ISZERO JUMPDEST ISZERO PUSH2 0x2389 JUMP JUMPDEST PUSH1 0x8 SLOAD PUSH1 0x0 SWAP2 DUP5 DUP4 MSTORE PUSH1 0x20 SWAP1 PUSH1 0x9 DUP3 MSTORE PUSH1 0x40 SWAP3 DUP1 DUP5 DUP7 KECCAK256 SSTORE PUSH1 0x1 PUSH1 0x40 SHL DUP2 LT ISZERO PUSH2 0x11F0 JUMPI PUSH1 0x2 SWAP3 SWAP2 PUSH2 0xFC4 DUP9 PUSH2 0xA46 DUP5 PUSH1 0x1 PUSH2 0x244A SWAP7 ADD PUSH1 0x8 SSTORE PUSH2 0x2287 JUMP JUMPDEST DUP6 DUP6 MSTORE PUSH1 0x6 DUP3 MSTORE DUP4 DUP6 KECCAK256 DUP2 DUP7 MSTORE DUP3 MSTORE DUP4 DUP6 KECCAK256 DUP8 SWAP1 SSTORE DUP7 DUP6 MSTORE PUSH1 0x7 DUP3 MSTORE DUP4 DUP6 KECCAK256 SSTORE PUSH1 0x0 DUP7 DUP2 MSTORE PUSH1 0x2 PUSH1 0x20 MSTORE PUSH1 0x40 SWAP1 KECCAK256 SLOAD PUSH2 0x248D SWAP1 PUSH1 0x1 PUSH1 0x1 PUSH1 0xA0 SHL SUB AND ISZERO ISZERO PUSH2 0x2405 JUMP JUMPDEST DUP5 DUP5 MSTORE PUSH1 0x3 DUP2 MSTORE DUP3 DUP5 KECCAK256 DUP1 SLOAD PUSH1 0x1 ADD SWAP1 SSTORE DUP6 DUP5 MSTORE MSTORE DUP2 KECCAK256 DUP1 SLOAD PUSH1 0x1 PUSH1 0x1 PUSH1 0xA0 SHL SUB NOT AND DUP4 OR SWAP1 SSTORE PUSH32 0xDDF252AD1BE2C89B69C2B068FC378DAA952BA7F163C4A11628F55A4DF523B3EF DUP2 DUP1 LOG4 JUMP JUMPDEST PUSH1 0x64 PUSH1 0x40 MLOAD PUSH3 0x461BCD PUSH1 0xE5 SHL DUP2 MSTORE PUSH1 0x20 PUSH1 0x4 DUP3 ADD MSTORE PUSH1 0x20 PUSH1 0x24 DUP3 ADD MSTORE PUSH32 0x4552433732313A206D696E7420746F20746865207A65726F2061646472657373 PUSH1 0x44 DUP3 ADD MSTORE REVERT JUMPDEST DUP2 PUSH1 0x1F DUP3 ADD SLT ISZERO PUSH2 0x627 JUMPI DUP1 MLOAD PUSH2 0x2534 DUP2 PUSH2 0x1A4F JUMP JUMPDEST SWAP3 PUSH2 0x2542 PUSH1 0x40 MLOAD SWAP5 DUP6 PUSH2 0x1A2D JUMP JUMPDEST DUP2 DUP5 MSTORE PUSH1 0x20 DUP3 DUP5 ADD ADD GT PUSH2 0x627 JUMPI PUSH2 0x1C97 SWAP2 PUSH1 0x20 DUP1 DUP6 ADD SWAP2 ADD PUSH2 0x1AA2 JUMP JUMPDEST PUSH1 0x0 NOT DUP2 EQ PUSH2 0x2103 JUMPI PUSH1 0x1 ADD SWAP1 JUMP INVALID LOG2 PUSH5 0x6970667358 0x22 SLT KECCAK256 0xBE ADDMOD 0xA9 0xF7 0xB6 0xF6 0xD7 TIMESTAMP 0x28 0x26 MSTORE8 0x5E 0xA7 PUSH27 0xB4E4EDCA2806141948D8AEA56401FF242B4864736F6C6343000814 STOP CALLER "},"methodIdentifiers":{"approve(address,uint256)":"095ea7b3","balanceOf(address)":"70a08231","burnTicket(uint256)":"a476b73d","eventFactory()":"6fdbd3f6","getApproved(uint256)":"081812fc","getTicketEventId(uint256)":"7510cfaf","isApprovedForAll(address,address)":"e985e9c5","isTicketUsed(uint256)":"2cd1d35c","mintTicket(address,uint256,string)":"03543fea","mintTicketsFromFactory(uint256,uint256)":"b2a2faaf","minter()":"07546172","name()":"06fdde03","owner()":"8da5cb5b","ownerOf(uint256)":"6352211e","renounceOwnership()":"715018a6","safeTransferFrom(address,address,uint256)":"42842e0e","safeTransferFrom(address,address,uint256,bytes)":"b88d4fde","setApprovalForAll(address,bool)":"a22cb465","setMinter(address)":"fca3b5aa","supportsInterface(bytes4)":"01ffc9a7","symbol()":"95d89b41","tickets(uint256)":"50b44712","tokenByIndex(uint256)":"4f6ccce7","tokenOfOwnerByIndex(address,uint256)":"2f745c59","tokenURI(uint256)":"c87b56dd","totalSupply()":"18160ddd","transferFrom(address,address,uint256)":"23b872dd","transferOwnership(address)":"f2fde38b","useTicket(uint256)":"26606448"}},"storageLayout":{"storage":[{"astId":1585,"contract":"contracts/TicketNFT.sol:TicketNFT","label":"_name","offset":0,"slot":"0","type":"t_string_storage"},{"astId":1587,"contract":"contracts/TicketNFT.sol:TicketNFT","label":"_symbol","offset":0,"slot":"1","type":"t_string_storage"},{"astId":1591,"contract":"contracts/TicketNFT.sol:TicketNFT","label":"_owners","offset":0,"slot":"2","type":"t_mapping(t_uint256,t_address)"},{"astId":1595,"contract":"contracts/TicketNFT.sol:TicketNFT","label":"_balances","offset":0,"slot":"3","type":"t_mapping(t_address,t_uint256)"},{"astId":1599,"contract":"contracts/TicketNFT.sol:TicketNFT","label":"_tokenApprovals","offset":0,"slot":"4","type":"t_mapping(t_uint256,t_address)"},{"astId":1605,"contract":"contracts/TicketNFT.sol:TicketNFT","label":"_operatorApprovals","offset":0,"slot":"5","type":"t_mapping(t_address,t_mapping(t_address,t_bool))"},{"astId":2635,"contract":"contracts/TicketNFT.sol:TicketNFT","label":"_ownedTokens","offset":0,"slot":"6","type":"t_mapping(t_address,t_mapping(t_uint256,t_uint256))"},{"astId":2639,"contract":"contracts/TicketNFT.sol:TicketNFT","label":"_ownedTokensIndex","offset":0,"slot":"7","type":"t_mapping(t_uint256,t_uint256)"},{"astId":2642,"contract":"contracts/TicketNFT.sol:TicketNFT","label":"_allTokens","offset":0,"slot":"8","type":"t_array(t_uint256)dyn_storage"},{"astId":2646,"contract":"contracts/TicketNFT.sol:TicketNFT","label":"_allTokensIndex","offset":0,"slot":"9","type":"t_mapping(t_uint256,t_uint256)"},{"astId":53,"contract":"contracts/TicketNFT.sol:TicketNFT","label":"_owner","offset":0,"slot":"10","type":"t_address"},{"astId":5428,"contract":"contracts/TicketNFT.sol:TicketNFT","label":"_tokenIds","offset":0,"slot":"11","type":"t_uint256"},{"astId":5465,"contract":"contracts/TicketNFT.sol:TicketNFT","label":"eventFactory","offset":0,"slot":"12","type":"t_contract(EventFactory)5186"},{"astId":5477,"contract":"contracts/TicketNFT.sol:TicketNFT","label":"tickets","offset":0,"slot":"13","type":"t_mapping(t_uint256,t_struct(Ticket)5472_storage)"},{"astId":5497,"contract":"contracts/TicketNFT.sol:TicketNFT","label":"minter","offset":0,"slot":"14","type":"t_address"}],"types":{"t_address":{"encoding":"inplace","label":"address","numberOfBytes":"20"},"t_array(t_uint256)dyn_storage":{"base":"t_uint256","encoding":"dynamic_array","label":"uint256[]","numberOfBytes":"32"},"t_bool":{"encoding":"inplace","label":"bool","numberOfBytes":"1"},"t_contract(EventFactory)5186":{"encoding":"inplace","label":"contract EventFactory","numberOfBytes":"20"},"t_mapping(t_address,t_bool)":{"encoding":"mapping","key":"t_address","label":"mapping(address => bool)","numberOfBytes":"32","value":"t_bool"},"t_mapping(t_address,t_mapping(t_address,t_bool))":{"encoding":"mapping","key":"t_address","label":"mapping(address => mapping(address => bool))","numberOfBytes":"32","value":"t_mapping(t_address,t_bool)"},"t_mapping(t_address,t_mapping(t_uint256,t_uint256))":{"encoding":"mapping","key":"t_address","label":"mapping(address => mapping(uint256 => uint256))","numberOfBytes":"32","value":"t_mapping(t_uint256,t_uint256)"},"t_mapping(t_address,t_uint256)":{"encoding":"mapping","key":"t_address","label":"mapping(address => uint256)","numberOfBytes":"32","value":"t_uint256"},"t_mapping(t_uint256,t_address)":{"encoding":"mapping","key":"t_uint256","label":"mapping(uint256 => address)","numberOfBytes":"32","value":"t_address"},"t_mapping(t_uint256,t_struct(Ticket)5472_storage)":{"encoding":"mapping","key":"t_uint256","label":"mapping(uint256 => struct TicketNFT.Ticket)","numberOfBytes":"32","value":"t_struct(Ticket)5472_storage"},"t_mapping(t_uint256,t_uint256)":{"encoding":"mapping","key":"t_uint256","label":"mapping(uint256 => uint256)","numberOfBytes":"32","value":"t_uint256"},"t_string_storage":{"encoding":"bytes","label":"string","numberOfBytes":"32"},"t_struct(Ticket)5472_storage":{"encoding":"inplace","label":"struct TicketNFT.Ticket","members":[{"astId":5467,"contract":"contracts/TicketNFT.sol:TicketNFT","label":"eventId","offset":0,"slot":"0","type":"t_uint256"},{"astId":5469,"contract":"contracts/TicketNFT.sol:TicketNFT","label":"ipfsCID","offset":0,"slot":"1","type":"t_string_storage"},{"astId":5471,"contract":"contracts/TicketNFT.sol:TicketNFT","label":"used","offset":0,"slot":"2","type":"t_bool"}],"numberOfBytes":"96"},"t_uint256":{"encoding":"inplace","label":"uint256","numberOfBytes":"32"}}}}}}