{"contracts/EventFactory.sol":{"EventFactory":{"abi":[{"inputs":[],"stateMutability":"nonpayable","type":"constructor"},{"anonymous":false,"inputs":[{"indexed":true,"internalType":"address","name":"account","type":"address"},{"indexed":true,"internalType":"address","name":"operator","type":"address"},{"indexed":false,"internalType":"bool","name":"approved","type":"bool"}],"name":"ApprovalForAll","type":"event"},{"anonymous":false,"inputs":[{"indexed":false,"internalType":"uint256","name":"nowTime","type":"uint256"},{"indexed":false,"internalType":"uint256","name":"inputDate","type":"uint256"}],"name":"DebugTimestamps","type":"event"},{"anonymous":false,"inputs":[{"indexed":true,"internalType":"uint256","name":"eventId","type":"uint256"},{"indexed":true,"internalType":"address","name":"owner","type":"address"},{"indexed":false,"internalType":"string","name":"ipfsCID","type":"string"},{"indexed":false,"internalType":"string","name":"imageCID","type":"string"}],"name":"EventCreated","type":"event"},{"anonymous":false,"inputs":[{"indexed":true,"internalType":"address","name":"previousOwner","type":"address"},{"indexed":true,"internalType":"address","name":"newOwner","type":"address"}],"name":"OwnershipTransferred","type":"event"},{"anonymous":false,"inputs":[{"indexed":true,"internalType":"uint256","name":"eventId","type":"uint256"},{"indexed":true,"internalType":"address","name":"buyer","type":"address"},{"indexed":false,"internalType":"uint256","name":"amount","type":"uint256"}],"name":"TicketPurchased","type":"event"},{"anonymous":false,"inputs":[{"indexed":true,"internalType":"address","name":"operator","type":"address"},{"indexed":true,"internalType":"address","name":"from","type":"address"},{"indexed":true,"internalType":"address","name":"to","type":"address"},{"indexed":false,"internalType":"uint256[]","name":"ids","type":"uint256[]"},{"indexed":false,"internalType":"uint256[]","name":"values","type":"uint256[]"}],"name":"TransferBatch","type":"event"},{"anonymous":false,"inputs":[{"indexed":true,"internalType":"address","name":"operator","type":"address"},{"indexed":true,"internalType":"address","name":"from","type":"address"},{"indexed":true,"internalType":"address","name":"to","type":"address"},{"indexed":false,"internalType":"uint256","name":"id","type":"uint256"},{"indexed":false,"internalType":"uint256","name":"value","type":"uint256"}],"name":"TransferSingle","type":"event"},{"anonymous":false,"inputs":[{"indexed":false,"internalType":"string","name":"value","type":"string"},{"indexed":true,"internalType":"uint256","name":"id","type":"uint256"}],"name":"URI","type":"event"},{"inputs":[{"internalType":"address","name":"account","type":"address"},{"internalType":"uint256","name":"id","type":"uint256"}],"name":"balanceOf","outputs":[{"internalType":"uint256","name":"","type":"uint256"}],"stateMutability":"view","type":"function"},{"inputs":[{"internalType":"address[]","name":"accounts","type":"address[]"},{"internalType":"uint256[]","name":"ids","type":"uint256[]"}],"name":"balanceOfBatch","outputs":[{"internalType":"uint256[]","name":"","type":"uint256[]"}],"stateMutability":"view","type":"function"},{"inputs":[{"internalType":"address","name":"from","type":"address"},{"internalType":"uint256","name":"eventId","type":"uint256"},{"internalType":"uint256","name":"amount","type":"uint256"}],"name":"burn","outputs":[],"stateMutability":"nonpayable","type":"function"},{"inputs":[{"internalType":"string","name":"name","type":"string"},{"internalType":"uint256","name":"date","type":"uint256"},{"internalType":"string","name":"ipfsCID","type":"string"},{"internalType":"string","name":"imageCID","type":"string"},{"internalType":"uint256","name":"maxTickets","type":"uint256"},{"internalType":"uint256","name":"pricePerTicket","type":"uint256"}],"name":"createEvent","outputs":[{"internalType":"uint256","name":"","type":"uint256"}],"stateMutability":"nonpayable","type":"function"},{"inputs":[{"internalType":"uint256","name":"eventId","type":"uint256"}],"name":"deactivateEvent","outputs":[],"stateMutability":"nonpayable","type":"function"},{"inputs":[{"internalType":"uint256","name":"","type":"uint256"}],"name":"events","outputs":[{"internalType":"string","name":"name","type":"string"},{"internalType":"uint256","name":"date","type":"uint256"},{"internalType":"string","name":"ipfsCID","type":"string"},{"internalType":"string","name":"imageCID","type":"string"},{"internalType":"address","name":"owner","type":"address"},{"internalType":"bool","name":"active","type":"bool"},{"internalType":"uint256","name":"pricePerTicket","type":"uint256"}],"stateMutability":"view","type":"function"},{"inputs":[{"internalType":"uint256","name":"eventId","type":"uint256"}],"name":"getEventDetails","outputs":[{"internalType":"string","name":"name","type":"string"},{"internalType":"uint256","name":"date","type":"uint256"},{"internalType":"string","name":"ipfsCID","type":"string"},{"internalType":"string","name":"imageCID","type":"string"},{"internalType":"address","name":"owner","type":"address"},{"internalType":"bool","name":"active","type":"bool"},{"internalType":"uint256","name":"pricePerTicket","type":"uint256"},{"internalType":"uint256","name":"ticketsRemaining","type":"uint256"}],"stateMutability":"view","type":"function"},{"inputs":[{"internalType":"address","name":"account","type":"address"},{"internalType":"address","name":"operator","type":"address"}],"name":"isApprovedForAll","outputs":[{"internalType":"bool","name":"","type":"bool"}],"stateMutability":"view","type":"function"},{"inputs":[{"internalType":"uint256","name":"eventId","type":"uint256"}],"name":"isValidEvent","outputs":[{"internalType":"bool","name":"","type":"bool"}],"stateMutability":"view","type":"function"},{"inputs":[],"name":"owner","outputs":[{"internalType":"address","name":"","type":"address"}],"stateMutability":"view","type":"function"},{"inputs":[{"internalType":"uint256","name":"eventId","type":"uint256"},{"internalType":"uint256","name":"amount","type":"uint256"}],"name":"purchaseTicket","outputs":[],"stateMutability":"payable","type":"function"},{"inputs":[],"name":"renounceOwnership","outputs":[],"stateMutability":"nonpayable","type":"function"},{"inputs":[{"internalType":"address","name":"from","type":"address"},{"internalType":"address","name":"to","type":"address"},{"internalType":"uint256[]","name":"ids","type":"uint256[]"},{"internalType":"uint256[]","name":"amounts","type":"uint256[]"},{"internalType":"bytes","name":"data","type":"bytes"}],"name":"safeBatchTransferFrom","outputs":[],"stateMutability":"nonpayable","type":"function"},{"inputs":[{"internalType":"address","name":"from","type":"address"},{"internalType":"address","name":"to","type":"address"},{"internalType":"uint256","name":"id","type":"uint256"},{"internalType":"uint256","name":"amount","type":"uint256"},{"internalType":"bytes","name":"data","type":"bytes"}],"name":"safeTransferFrom","outputs":[],"stateMutability":"nonpayable","type":"function"},{"inputs":[{"internalType":"address","name":"operator","type":"address"},{"internalType":"bool","name":"approved","type":"bool"}],"name":"setApprovalForAll","outputs":[],"stateMutability":"nonpayable","type":"function"},{"inputs":[{"internalType":"address","name":"_ticketNFT","type":"address"}],"name":"setTicketNFTContract","outputs":[],"stateMutability":"nonpayable","type":"function"},{"inputs":[{"internalType":"bytes4","name":"interfaceId","type":"bytes4"}],"name":"supportsInterface","outputs":[{"internalType":"bool","name":"","type":"bool"}],"stateMutability":"view","type":"function"},{"inputs":[{"internalType":"address","name":"user","type":"address"},{"internalType":"uint256","name":"eventId","type":"uint256"}],"name":"ticketBalanceOf","outputs":[{"internalType":"uint256","name":"","type":"uint256"}],"stateMutability":"view","type":"function"},{"inputs":[],"name":"ticketNFTContract","outputs":[{"internalType":"address","name":"","type":"address"}],"stateMutability":"view","type":"function"},{"inputs":[{"internalType":"address","name":"newOwner","type":"address"}],"name":"transferOwnership","outputs":[],"stateMutability":"nonpayable","type":"function"},{"inputs":[{"internalType":"uint256","name":"eventId","type":"uint256"}],"name":"uri","outputs":[{"internalType":"string","name":"","type":"string"}],"stateMutability":"view","type":"function"}],"evm":{"bytecode":{"linkReferences":{},"object":"6080346200014b5760408101906001600160401b038211818310176200013557602091604052600781520166697066733a2f2f60c81b8152600254906001918281811c911680156200012a575b60208210146200011457601f8111620000c8575b81516001600160c81b031916600e17600255600380546001600160a01b031981163390811790925560405191906001600160a01b03167f8be0079c531659141344cd1fd0a4f28419497f9722a3daafe3b4186f6b6457e0600080a36123329081620001518239f35b6002600052601f0160051c7f405787fa12a823e0f2b7631cc41b3ba8828b3321ca811111fa75cd3aa3bb5ace908101905b81811062000108575062000060565b600081558301620000f9565b634e487b7160e01b600052602260045260246000fd5b90607f16906200004c565b634e487b7160e01b600052604160045260246000fd5b600080fdfe6080604052600436101561001257600080fd5b60003560e01c8062fdd58e1461126d57806301ffc9a7146119a95780630b791430146118f15780630e89341c146117e15780632eb2c2d61461151157806330c7b45f146114e857806349287c0b1461149a5780634e1273f4146112f8578063715018a61461129b5780638da5cb5b146112725780638f118fe31461126d578063957a632e146111d45780639cb3c70614611191578063a22cb46514611104578063acb98bf51461080b578063bdbbb0cb14610585578063e985e9c51461052f578063ec38d5a014610463578063f242432a14610410578063f2fde38b146103475763f5298aca1461010257600080fd5b346103425760603660031901126103425761011b611a16565b600554602491604435918335916001600160a01b0391821633036102fe57169133831480156102da575b1561028b57821561023b5761015982612297565b5061016381612297565b50600060405161017281611aab565b52816000526020600081526040600020846000528152604060002054948286106101ec5750816000958487528683526040872086885283520360408620556040519283528201527fc3d58168c5ae7397731d063d5bbf3d657854427343f4c083240f7aacaa2d0f6260403392a46101ea604051611aab565b005b608492506040519162461bcd60e51b83526004830152808201527f455243313135353a206275726e20616d6f756e7420657863656564732062616c604482015263616e636560e01b6064820152fd5b60405162461bcd60e51b8152602060048201526023818601527f455243313135353a206275726e2066726f6d20746865207a65726f206164647260448201526265737360e81b6064820152608490fd5b60405162461bcd60e51b8152602060048201526022818601527f43616c6c6572206e6f7420746f6b656e206f776e6572206f7220617070726f76604482015261195960f21b6064820152608490fd5b5082600052600160205260406000203360005260205260ff60406000205416610145565b60405162461bcd60e51b8152602060048201526017818701527f4f6e6c79205469636b65744e46542063616e206275726e0000000000000000006044820152606490fd5b600080fd5b3461034257602036600319011261034257610360611a16565b610368611cd8565b6001600160a01b039081169081156103bc57600354826bffffffffffffffffffffffff60a01b821617600355167f8be0079c531659141344cd1fd0a4f28419497f9722a3daafe3b4186f6b6457e0600080a3005b60405162461bcd60e51b815260206004820152602660248201527f4f776e61626c653a206e6577206f776e657220697320746865207a65726f206160448201526564647265737360d01b6064820152608490fd5b346103425760a036600319011261034257610429611a16565b610431611a2c565b90608435916001600160401b038311610342576104556101ea933690600401611c5d565b916064359160443591611e67565b34610342576020366003190112610342576104ef60043580600052600660205260406000209060018201549160048101549160ff60018060a01b038416936105106104b360058601549487611d30565b946105026104c082611ae7565b986104d960036104d260028601611ae7565b9401611ae7565b926040519b8c9b8c6101008091528d0190611b8d565b9160208c01528a820360408c0152611b8d565b9088820360608a0152611b8d565b94608087015260a01c16151560a085015260c084015260e08301520390f35b3461034257604036600319011261034257610548611a16565b610550611a2c565b9060018060a01b03809116600052600160205260406000209116600052602052602060ff604060002054166040519015158152f35b60403660031901126103425760043560249081359181600052602090600682526040600020600481019081549060ff8260a01c16156107d457600181015442101561079b576005015491868302928084048814901517156107865782341061074b576001600160a01b03918216876105fd8883611d30565b10610712576000848194829461062784958d8d6040519261061d84611aab565b8884523390611e67565b54165af16106336122cc565b50156106de57803411610670575b50507fdbaaf4c87ce30816c961a81d110622a3227ede77953d4383d514ff88ab2e0fd3906040519384523393a3005b34033481116106c957600080808093335af161068a6122cc565b50156106965780610641565b90600d6064926040519262461bcd60e51b845260048401528201526c1499599d5b990819985a5b1959609a1b6044820152fd5b50634e487b7160e01b60009081526011600452fd5b60405162461bcd60e51b815260048101849052600d818401526c14185e5bdd5d0819985a5b1959609a1b6044820152606490fd5b60405162461bcd60e51b815260048101879052601281870152714e6f7420656e6f756768207469636b65747360701b6044820152606490fd5b60405162461bcd60e51b81526004810186905260148186015273125b9cdd59999a58da595b9d081c185e5b595b9d60621b6044820152606490fd5b83634e487b7160e01b60005260116004526000fd5b60405162461bcd60e51b81526004810186905260128186015271115d995b9d081a185cc81bd8d8dd5c9c995960721b6044820152606490fd5b60405162461bcd60e51b8152600481018690526010818601526f4576656e74206e6f742061637469766560801b6044820152606490fd5b346103425760c0366003190112610342576004356001600160401b0381116103425761083b903690600401611c5d565b6044356001600160401b0381116103425761085a903690600401611c5d565b906064356001600160401b0381116103425761087a903690600401611c5d565b7ff6604d94064acaac8d13e1eb73176d55487e2f8abda34ab500ab76d24b0cda44604080514281526024356020820152a142602435106110bf578251156110865780511561104c5760843515611007576001600454019182600455604051908160e08101106001600160401b0360e084011117610e5f5760e0820160405281526024356020820152836040820152816060820152336080820152600160a082015260a43560c082015282600052600660205260406000209080518051906001600160401b038211610e5f5781906109518554611a71565b601f8111610fb7575b50602090601f8311600114610f4b57600092610f40575b50508160011b916000199060031b1c19161782555b6020810151600183015560408101518051906001600160401b038211610e5f5781906109b56002860154611a71565b601f8111610eed575b50602090601f8311600114610e8057600092610e75575b50508160011b916000199060031b1c19161760028301555b60608101518051906001600160401b038211610e5f57610a106003850154611a71565b601f8111610e18575b50602090601f8311600114610da55791806005949260c094600092610d9a575b50508160011b916000199060031b1c19161760038501555b6004840160018060a01b0360808301511681549060ff60a01b60a0850151151560a01b16916affffffffffffffffffffff60a81b16171790550151910155303314610d43573360005260016020526040600020306000526020526040600020600160ff198254161790556040516001815230907f17307eab39ab6107e8899845ad3d59bd9653f200f220920489ca2b5937696c3160203392a3604051610af681611aab565b600081523315610cf457610b0983612297565b50610b15608435612297565b508260005260006020526040600020336000526020526040600020610b3d608435825461213d565b90556040518381526084356020820152600033917fc3d58168c5ae7397731d063d5bbf3d657854427343f4c083240f7aacaa2d0f6260403392a4333b610bd7575b50817f74c22f9f773d1d8c02ddaa6deeeaa696cacbfea0be35360f9b2c253b13938f6f610bbe602095610bcc604051928392604084526040840190611b8d565b828103898401523396611b8d565b0390a3604051908152f35b60405160208180610c1963f23a6e6160e01b9586835233600484015260006024840152886044840152608435606484015260a0608484015260a4830190611b8d565b03816000335af160009181610cc3575b50610c9557610c366121b3565b6308c379a014610c5e575b60405162461bcd60e51b815280610c5a60048201612242565b0390fd5b610c666121d1565b80610c715750610c41565b60405162461bcd60e51b815260206004820152908190610c5a906024830190611b8d565b6001600160e01b03191603610caa5781610b7e565b60405162461bcd60e51b815280610c5a6004820161216a565b610ce691925060203d602011610ced575b610cde8183611ac6565b81019061214a565b9086610c29565b503d610cd4565b60405162461bcd60e51b815260206004820152602160248201527f455243313135353a206d696e7420746f20746865207a65726f206164647265736044820152607360f81b6064820152608490fd5b60405162461bcd60e51b815260206004820152602960248201527f455243313135353a2073657474696e6720617070726f76616c20737461747573604482015268103337b91039b2b63360b91b6064820152608490fd5b015190508980610a39565b90601f198316916003860160005260206000209260005b818110610e00575092600192859260c0966005989610610de7575b505050811b016003850155610a51565b015160001960f88460031b161c19169055898080610dd7565b92936020600181928786015181550195019301610dbc565b600385016000526020600020601f840160051c810160208510610e58575b601f830160051c82018110610e4c575050610a19565b60008155600101610e36565b5080610e36565b634e487b7160e01b600052604160045260246000fd5b0151905087806109d5565b600286016000908152602081209350601f198516905b818110610ed55750908460019594939210610ebc575b505050811b0160028301556109ed565b015160001960f88460031b161c19169055878080610eac565b92936020600181928786015181550195019301610e96565b909150600285016000526020600020601f840160051c810160208510610f39575b90849392915b601f830160051c82018110610f2a5750506109be565b60008155859450600101610f14565b5080610f0e565b015190508780610971565b9250846000526020600020906000935b601f1984168510610f9c576001945083601f19811610610f83575b505050811b018255610986565b015160001960f88460031b161c19169055878080610f76565b81810151835560209485019460019093019290910190610f5b565b909150846000526020600020601f840160051c810160208510611000575b90849392915b601f830160051c82018110610ff157505061095a565b60008155859450600101610fdb565b5080610fd5565b60405162461bcd60e51b815260206004820152601960248201527f5469636b657420737570706c79206d757374206265203e2030000000000000006044820152606490fd5b60405162461bcd60e51b8152602060048201526012602482015271125b5859d94810d251081c995c5d5a5c995960721b6044820152606490fd5b60405162461bcd60e51b815260206004820152601160248201527012541194c810d251081c995c5d5a5c9959607a1b6044820152606490fd5b60405162461bcd60e51b815260206004820152601960248201527f4576656e742064617465206d757374206265203e3d206e6f77000000000000006044820152606490fd5b346103425760403660031901126103425761111d611a16565b60243590811515809203610342576001600160a01b031690338214610d4357336000526001602052604060002082600052602052604060002060ff1981541660ff83161790556040519081527f17307eab39ab6107e8899845ad3d59bd9653f200f220920489ca2b5937696c3160203392a3005b34610342576020366003190112610342576111aa611a16565b6111b2611cd8565b600580546001600160a01b0319166001600160a01b0392909216919091179055005b3461034257602036600319011261034257600480356000818152600660205260409020909101546001600160a01b03163303611228576000908152600660205260409020600401805460ff60a01b19169055005b60405162461bcd60e51b815260206004820152601f60248201527f4f6e6c79206576656e74206f776e65722063616e2064656163746976617465006044820152606490fd5b611a42565b34610342576000366003190112610342576003546040516001600160a01b039091168152602090f35b34610342576000366003190112610342576112b4611cd8565b600380546001600160a01b031981169091556000906001600160a01b03167f8be0079c531659141344cd1fd0a4f28419497f9722a3daafe3b4186f6b6457e08280a3005b34610342576040366003190112610342576004356001600160401b0380821161034257366023830112156103425781600401359061133582611bcd565b926113436040519485611ac6565b82845260209260248486019160051b8301019136831161034257602401905b82821061147b5750505060243590811161034257611384903690600401611be4565b82518151036114245782519261139984611bcd565b936113a76040519586611ac6565b8085526113b6601f1991611bcd565b01368486013760005b815181101561140957611404906113f46001600160a01b036113e18386611dda565b51166113ed8387611dda565b5190611d30565b6113fe8288611dda565b52611db5565b6113bf565b505050611420604051928284938452830190611ca4565b0390f35b60405162461bcd60e51b815260048101839052602960248201527f455243313135353a206163636f756e747320616e6420696473206c656e677468604482015268040dad2e6dac2e8c6d60bb1b6064820152608490fd5b81356001600160a01b0381168103610342578152908401908401611362565b346103425760203660031901126103425760043560005260066020526020604060002060ff600482015460a01c1690816114da575b506040519015158152f35b6001915001544210826114cf565b34610342576000366003190112610342576005546040516001600160a01b039091168152602090f35b346103425760031960a0368201126103425761152b611a16565b90611534611a2c565b906001600160401b039060443582811161034257611556903690600401611be4565b6064358381116103425761156e903690600401611be4565b9260843590811161034257611587903690600401611c5d565b6001600160a01b039586169590929033871480156117b8575b6115a990611e04565b8251855103611762578516926115c0841515612084565b60005b835181101561165957806115da6116549286611dda565b516115e58289611dda565b5190806000526020906000825260406000208c600052825282604060002054611610828210156120de565b82600052600084528d60406000209060005284520360406000205560005260008152604060002090886000525261164d604060002091825461213d565b9055611db5565b6115c3565b509094939291938287604051604081527f4a39dc06d4c0dbc64b70af90fd698a233a518aa5d07e595d983b8c0526c8f7fb611697604083018a611ca4565b918083036020820152806116ac33948b611ca4565b0390a43b6116b657005b6000602094611717611708976116f894604051998a988997889663bc197c8160e01b9e8f89523360048a0152602489015260a0604489015260a4880190611ca4565b9084878303016064880152611ca4565b91848303016084850152611b8d565b03925af160009181611742575b5061173157610c366121b3565b6001600160e01b03191603610caa57005b61175b91925060203d8111610ced57610cde8183611ac6565b9083611724565b60405162461bcd60e51b815260206004820152602860248201527f455243313135353a2069647320616e6420616d6f756e7473206c656e677468206044820152670dad2e6dac2e8c6d60c31b6064820152608490fd5b508660005260016020526040600020336000526020526115a960ff6040600020541690506115a0565b34610342576020806003193601126103425760043560005260068152600260406000200190604051809266697066733a2f2f60c81b83830152600090805461182881611a71565b916001918083169081156118c95750600114611880575b50505061186c91816d17b6b2ba30b230ba30973539b7b760911b600e935203601119810185520183611ac6565b611420604051928284938452830190611b8d565b90919392506000528360002090846000925b8584106118b1575050505080602761186c93600e93010191819361183f565b80548885016027015287945092019185908201611892565b9050600e94506027925061186c9593915060ff1916828401528015150282010191819361183f565b34610342576020366003190112610342576004356000526006602052611965604060002061191e81611ae7565b90600181015460ff61198661193560028501611ae7565b9261197861194560038701611ae7565b916005600488015497015495604051998a9960e08b5260e08b0190611b8d565b9160208a015288820360408a0152611b8d565b908682036060880152611b8d565b9260018060a01b038116608086015260a01c16151560a084015260c08301520390f35b346103425760203660031901126103425760043563ffffffff60e01b811680910361034257602090636cdb3d1360e11b8114908115611a05575b81156119f457506040519015158152f35b6301ffc9a760e01b149050826114cf565b6303a24d0760e21b811491506119e3565b600435906001600160a01b038216820361034257565b602435906001600160a01b038216820361034257565b34610342576040366003190112610342576020611a69611a60611a16565b60243590611d30565b604051908152f35b90600182811c92168015611aa1575b6020831014611a8b57565b634e487b7160e01b600052602260045260246000fd5b91607f1691611a80565b602081019081106001600160401b03821117610e5f57604052565b90601f801991011681019081106001600160401b03821117610e5f57604052565b9060405191826000825492611afb84611a71565b908184526001948581169081600014611b6a5750600114611b27575b5050611b2592500383611ac6565b565b9093915060005260209081600020936000915b818310611b52575050611b2593508201013880611b17565b85548884018501529485019487945091830191611b3a565b915050611b2594506020925060ff191682840152151560051b8201013880611b17565b919082519283825260005b848110611bb9575050826000602080949584010152601f8019910116010190565b602081830181015184830182015201611b98565b6001600160401b038111610e5f5760051b60200190565b81601f8201121561034257803591611bfb83611bcd565b92611c096040519485611ac6565b808452602092838086019260051b820101928311610342578301905b828210611c33575050505090565b81358152908301908301611c25565b6001600160401b038111610e5f57601f01601f191660200190565b81601f8201121561034257803590611c7482611c42565b92611c826040519485611ac6565b8284526020838301011161034257816000926020809301838601378301015290565b90815180825260208080930193019160005b828110611cc4575050505090565b835185529381019392810192600101611cb6565b6003546001600160a01b03163303611cec57565b606460405162461bcd60e51b815260206004820152602060248201527f4f776e61626c653a2063616c6c6572206973206e6f7420746865206f776e65726044820152fd5b6001600160a01b0316908115611d5d57600052600060205260406000209060005260205260406000205490565b60405162461bcd60e51b815260206004820152602a60248201527f455243313135353a2061646472657373207a65726f206973206e6f742061207660448201526930b634b21037bbb732b960b11b6064820152608490fd5b6000198114611dc45760010190565b634e487b7160e01b600052601160045260246000fd5b8051821015611dee5760209160051b010190565b634e487b7160e01b600052603260045260246000fd5b15611e0b57565b60405162461bcd60e51b815260206004820152602e60248201527f455243313135353a2063616c6c6572206973206e6f7420746f6b656e206f776e60448201526d195c881bdc88185c1c1c9bdd995960921b6064820152608490fd5b909391926001600160a01b03918216929091338414801561205b575b611e8c90611e04565b8516611e99811515612084565b611ea285612297565b50611eac83612297565b5060009285845260209584875260409788862087875288528289872054611ed5828210156120de565b838852878a528a88208989528a5203898720558186528588528886208487528852888620611f0484825461213d565b905583878a51848152858b8201527fc3d58168c5ae7397731d063d5bbf3d657854427343f4c083240f7aacaa2d0f628c3392a43b611f47575b5050505050505050565b91849391611f8f9588999a98948b519788958694859363f23a6e6160e01b9c8d865233600487015260248601526044850152606484015260a0608484015260a4830190611b8d565b03925af190918161203c575b5061200257505050611fab6121b3565b6308c379a014611fce575b505162461bcd60e51b815280610c5a60048201612242565b611fd66121d1565b9081611fe25750611fb6565b610c5a835192839262461bcd60e51b845260048401526024830190611b8d565b919392506001600160e01b03199091160361202557503880808080808080611f3d565b5162461bcd60e51b815280610c5a6004820161216a565b612054919250853d8711610ced57610cde8183611ac6565b9038611f9b565b50836000526001602052604060002033600052602052611e8c60ff604060002054169050611e83565b1561208b57565b60405162461bcd60e51b815260206004820152602560248201527f455243313135353a207472616e7366657220746f20746865207a65726f206164604482015264647265737360d81b6064820152608490fd5b156120e557565b60405162461bcd60e51b815260206004820152602a60248201527f455243313135353a20696e73756666696369656e742062616c616e636520666f60448201526939103a3930b739b332b960b11b6064820152608490fd5b91908201809211611dc457565b9081602091031261034257516001600160e01b0319811681036103425790565b60809060208152602860208201527f455243313135353a204552433131353552656365697665722072656a656374656040820152676420746f6b656e7360c01b60608201520190565b60009060033d116121c057565b905060046000803e60005160e01c90565b600060443d1061222e57604051600319913d83016004833e81516001600160401b03918282113d60248401111761223157818401948551938411612239573d85010160208487010111612231575061222e92910160200190611ac6565b90565b949350505050565b50949350505050565b60809060208152603460208201527f455243313135353a207472616e7366657220746f206e6f6e2d455243313135356040820152732932b1b2b4bb32b91034b6b83632b6b2b73a32b960611b60608201520190565b60405190604082018281106001600160401b03821117610e5f5760405260018252602082016020368237825115611dee575290565b3d156122f7573d906122dd82611c42565b916122eb6040519384611ac6565b82523d6000602084013e565b60609056fea26469706673582212200828487106654332b8753d6235396ee1f7241941d10001695ab24c2c8613c1cf64736f6c63430008140033","opcodes":"PUSH1 0x80 CALLVALUE PUSH3 0x14B JUMPI PUSH1 0x40 DUP2 ADD SWAP1 PUSH1 0x1 PUSH1 0x1 PUSH1 0x40 SHL SUB DUP3 GT DUP2 DUP4 LT OR PUSH3 0x135 JUMPI PUSH1 0x20 SWAP2 PUSH1 0x40 MSTORE PUSH1 0x7 DUP2 MSTORE ADD PUSH7 0x697066733A2F2F PUSH1 0xC8 SHL DUP2 MSTORE PUSH1 0x2 SLOAD SWAP1 PUSH1 0x1 SWAP2 DUP3 DUP2 DUP2 SHR SWAP2 AND DUP1 ISZERO PUSH3 0x12A JUMPI JUMPDEST PUSH1 0x20 DUP3 LT EQ PUSH3 0x114 JUMPI PUSH1 0x1F DUP2 GT PUSH3 0xC8 JUMPI JUMPDEST DUP2 MLOAD PUSH1 0x1 PUSH1 0x1 PUSH1 0xC8 SHL SUB NOT AND PUSH1 0xE OR PUSH1 0x2 SSTORE PUSH1 0x3 DUP1 SLOAD PUSH1 0x1 PUSH1 0x1 PUSH1 0xA0 SHL SUB NOT DUP2 AND CALLER SWAP1 DUP2 OR SWAP1 SWAP3 SSTORE PUSH1 0x40 MLOAD SWAP2 SWAP1 PUSH1 0x1 PUSH1 0x1 PUSH1 0xA0 SHL SUB AND PUSH32 0x8BE0079C531659141344CD1FD0A4F28419497F9722A3DAAFE3B4186F6B6457E0 PUSH1 0x0 DUP1 LOG3 PUSH2 0x2332 SWAP1 DUP2 PUSH3 0x151 DUP3 CODECOPY RETURN JUMPDEST PUSH1 0x2 PUSH1 0x0 MSTORE PUSH1 0x1F ADD PUSH1 0x5 SHR PUSH32 0x405787FA12A823E0F2B7631CC41B3BA8828B3321CA811111FA75CD3AA3BB5ACE SWAP1 DUP2 ADD SWAP1 JUMPDEST DUP2 DUP2 LT PUSH3 0x108 JUMPI POP PUSH3 0x60 JUMP JUMPDEST PUSH1 0x0 DUP2 SSTORE DUP4 ADD PUSH3 0xF9 JUMP JUMPDEST PUSH4 0x4E487B71 PUSH1 0xE0 SHL PUSH1 0x0 MSTORE PUSH1 0x22 PUSH1 0x4 MSTORE PUSH1 0x24 PUSH1 0x0 REVERT JUMPDEST SWAP1 PUSH1 0x7F AND SWAP1 PUSH3 0x4C JUMP JUMPDEST PUSH4 0x4E487B71 PUSH1 0xE0 SHL PUSH1 0x0 MSTORE PUSH1 0x41 PUSH1 0x4 MSTORE PUSH1 0x24 PUSH1 0x0 REVERT JUMPDEST PUSH1 0x0 DUP1 REVERT INVALID PUSH1 0x80 PUSH1 0x40 MSTORE PUSH1 0x4 CALLDATASIZE LT ISZERO PUSH2 0x12 JUMPI PUSH1 0x0 DUP1 REVERT JUMPDEST PUSH1 0x0 CALLDATALOAD PUSH1 0xE0 SHR DUP1 PUSH3 0xFDD58E EQ PUSH2 0x126D JUMPI DUP1 PUSH4 0x1FFC9A7 EQ PUSH2 0x19A9 JUMPI DUP1 PUSH4 0xB791430 EQ PUSH2 0x18F1 JUMPI DUP1 PUSH4 0xE89341C EQ PUSH2 0x17E1 JUMPI DUP1 PUSH4 0x2EB2C2D6 EQ PUSH2 0x1511 JUMPI DUP1 PUSH4 0x30C7B45F EQ PUSH2 0x14E8 JUMPI DUP1 PUSH4 0x49287C0B EQ PUSH2 0x149A JUMPI DUP1 PUSH4 0x4E1273F4 EQ PUSH2 0x12F8 JUMPI DUP1 PUSH4 0x715018A6 EQ PUSH2 0x129B JUMPI DUP1 PUSH4 0x8DA5CB5B EQ PUSH2 0x1272 JUMPI DUP1 PUSH4 0x8F118FE3 EQ PUSH2 0x126D JUMPI DUP1 PUSH4 0x957A632E EQ PUSH2 0x11D4 JUMPI DUP1 PUSH4 0x9CB3C706 EQ PUSH2 0x1191 JUMPI DUP1 PUSH4 0xA22CB465 EQ PUSH2 0x1104 JUMPI DUP1 PUSH4 0xACB98BF5 EQ PUSH2 0x80B JUMPI DUP1 PUSH4 0xBDBBB0CB EQ PUSH2 0x585 JUMPI DUP1 PUSH4 0xE985E9C5 EQ PUSH2 0x52F JUMPI DUP1 PUSH4 0xEC38D5A0 EQ PUSH2 0x463 JUMPI DUP1 PUSH4 0xF242432A EQ PUSH2 0x410 JUMPI DUP1 PUSH4 0xF2FDE38B EQ PUSH2 0x347 JUMPI PUSH4 0xF5298ACA EQ PUSH2 0x102 JUMPI PUSH1 0x0 DUP1 REVERT JUMPDEST CALLVALUE PUSH2 0x342 JUMPI PUSH1 0x60 CALLDATASIZE PUSH1 0x3 NOT ADD SLT PUSH2 0x342 JUMPI PUSH2 0x11B PUSH2 0x1A16 JUMP JUMPDEST PUSH1 0x5 SLOAD PUSH1 0x24 SWAP2 PUSH1 0x44 CALLDATALOAD SWAP2 DUP4 CALLDATALOAD SWAP2 PUSH1 0x1 PUSH1 0x1 PUSH1 0xA0 SHL SUB SWAP2 DUP3 AND CALLER SUB PUSH2 0x2FE JUMPI AND SWAP2 CALLER DUP4 EQ DUP1 ISZERO PUSH2 0x2DA JUMPI JUMPDEST ISZERO PUSH2 0x28B JUMPI DUP3 ISZERO PUSH2 0x23B JUMPI PUSH2 0x159 DUP3 PUSH2 0x2297 JUMP JUMPDEST POP PUSH2 0x163 DUP2 PUSH2 0x2297 JUMP JUMPDEST POP PUSH1 0x0 PUSH1 0x40 MLOAD PUSH2 0x172 DUP2 PUSH2 0x1AAB JUMP JUMPDEST MSTORE DUP2 PUSH1 0x0 MSTORE PUSH1 0x20 PUSH1 0x0 DUP2 MSTORE PUSH1 0x40 PUSH1 0x0 KECCAK256 DUP5 PUSH1 0x0 MSTORE DUP2 MSTORE PUSH1 0x40 PUSH1 0x0 KECCAK256 SLOAD SWAP5 DUP3 DUP7 LT PUSH2 0x1EC JUMPI POP DUP2 PUSH1 0x0 SWAP6 DUP5 DUP8 MSTORE DUP7 DUP4 MSTORE PUSH1 0x40 DUP8 KECCAK256 DUP7 DUP9 MSTORE DUP4 MSTORE SUB PUSH1 0x40 DUP7 KECCAK256 SSTORE PUSH1 0x40 MLOAD SWAP3 DUP4 MSTORE DUP3 ADD MSTORE PUSH32 0xC3D58168C5AE7397731D063D5BBF3D657854427343F4C083240F7AACAA2D0F62 PUSH1 0x40 CALLER SWAP3 LOG4 PUSH2 0x1EA PUSH1 0x40 MLOAD PUSH2 0x1AAB JUMP JUMPDEST STOP JUMPDEST PUSH1 0x84 SWAP3 POP PUSH1 0x40 MLOAD SWAP2 PUSH3 0x461BCD PUSH1 0xE5 SHL DUP4 MSTORE PUSH1 0x4 DUP4 ADD MSTORE DUP1 DUP3 ADD MSTORE PUSH32 0x455243313135353A206275726E20616D6F756E7420657863656564732062616C PUSH1 0x44 DUP3 ADD MSTORE PUSH4 0x616E6365 PUSH1 0xE0 SHL PUSH1 0x64 DUP3 ADD MSTORE REVERT JUMPDEST PUSH1 0x40 MLOAD PUSH3 0x461BCD PUSH1 0xE5 SHL DUP2 MSTORE PUSH1 0x20 PUSH1 0x4 DUP3 ADD MSTORE PUSH1 0x23 DUP2 DUP7 ADD MSTORE PUSH32 0x455243313135353A206275726E2066726F6D20746865207A65726F2061646472 PUSH1 0x44 DUP3 ADD MSTORE PUSH3 0x657373 PUSH1 0xE8 SHL PUSH1 0x64 DUP3 ADD MSTORE PUSH1 0x84 SWAP1 REVERT JUMPDEST PUSH1 0x40 MLOAD PUSH3 0x461BCD PUSH1 0xE5 SHL DUP2 MSTORE PUSH1 0x20 PUSH1 0x4 DUP3 ADD MSTORE PUSH1 0x22 DUP2 DUP7 ADD MSTORE PUSH32 0x43616C6C6572206E6F7420746F6B656E206F776E6572206F7220617070726F76 PUSH1 0x44 DUP3 ADD MSTORE PUSH2 0x1959 PUSH1 0xF2 SHL PUSH1 0x64 DUP3 ADD MSTORE PUSH1 0x84 SWAP1 REVERT JUMPDEST POP DUP3 PUSH1 0x0 MSTORE PUSH1 0x1 PUSH1 0x20 MSTORE PUSH1 0x40 PUSH1 0x0 KECCAK256 CALLER PUSH1 0x0 MSTORE PUSH1 0x20 MSTORE PUSH1 0xFF PUSH1 0x40 PUSH1 0x0 KECCAK256 SLOAD AND PUSH2 0x145 JUMP JUMPDEST PUSH1 0x40 MLOAD PUSH3 0x461BCD PUSH1 0xE5 SHL DUP2 MSTORE PUSH1 0x20 PUSH1 0x4 DUP3 ADD MSTORE PUSH1 0x17 DUP2 DUP8 ADD MSTORE PUSH32 0x4F6E6C79205469636B65744E46542063616E206275726E000000000000000000 PUSH1 0x44 DUP3 ADD MSTORE PUSH1 0x64 SWAP1 REVERT JUMPDEST PUSH1 0x0 DUP1 REVERT JUMPDEST CALLVALUE PUSH2 0x342 JUMPI PUSH1 0x20 CALLDATASIZE PUSH1 0x3 NOT ADD SLT PUSH2 0x342 JUMPI PUSH2 0x360 PUSH2 0x1A16 JUMP JUMPDEST PUSH2 0x368 PUSH2 0x1CD8 JUMP JUMPDEST PUSH1 0x1 PUSH1 0x1 PUSH1 0xA0 SHL SUB SWAP1 DUP2 AND SWAP1 DUP2 ISZERO PUSH2 0x3BC JUMPI PUSH1 0x3 SLOAD DUP3 PUSH12 0xFFFFFFFFFFFFFFFFFFFFFFFF PUSH1 0xA0 SHL DUP3 AND OR PUSH1 0x3 SSTORE AND PUSH32 0x8BE0079C531659141344CD1FD0A4F28419497F9722A3DAAFE3B4186F6B6457E0 PUSH1 0x0 DUP1 LOG3 STOP JUMPDEST PUSH1 0x40 MLOAD PUSH3 0x461BCD PUSH1 0xE5 SHL DUP2 MSTORE PUSH1 0x20 PUSH1 0x4 DUP3 ADD MSTORE PUSH1 0x26 PUSH1 0x24 DUP3 ADD MSTORE PUSH32 0x4F776E61626C653A206E6577206F776E657220697320746865207A65726F2061 PUSH1 0x44 DUP3 ADD MSTORE PUSH6 0x646472657373 PUSH1 0xD0 SHL PUSH1 0x64 DUP3 ADD MSTORE PUSH1 0x84 SWAP1 REVERT JUMPDEST CALLVALUE PUSH2 0x342 JUMPI PUSH1 0xA0 CALLDATASIZE PUSH1 0x3 NOT ADD SLT PUSH2 0x342 JUMPI PUSH2 0x429 PUSH2 0x1A16 JUMP JUMPDEST PUSH2 0x431 PUSH2 0x1A2C JUMP JUMPDEST SWAP1 PUSH1 0x84 CALLDATALOAD SWAP2 PUSH1 0x1 PUSH1 0x1 PUSH1 0x40 SHL SUB DUP4 GT PUSH2 0x342 JUMPI PUSH2 0x455 PUSH2 0x1EA SWAP4 CALLDATASIZE SWAP1 PUSH1 0x4 ADD PUSH2 0x1C5D JUMP JUMPDEST SWAP2 PUSH1 0x64 CALLDATALOAD SWAP2 PUSH1 0x44 CALLDATALOAD SWAP2 PUSH2 0x1E67 JUMP JUMPDEST CALLVALUE PUSH2 0x342 JUMPI PUSH1 0x20 CALLDATASIZE PUSH1 0x3 NOT ADD SLT PUSH2 0x342 JUMPI PUSH2 0x4EF PUSH1 0x4 CALLDATALOAD DUP1 PUSH1 0x0 MSTORE PUSH1 0x6 PUSH1 0x20 MSTORE PUSH1 0x40 PUSH1 0x0 KECCAK256 SWAP1 PUSH1 0x1 DUP3 ADD SLOAD SWAP2 PUSH1 0x4 DUP2 ADD SLOAD SWAP2 PUSH1 0xFF PUSH1 0x1 DUP1 PUSH1 0xA0 SHL SUB DUP5 AND SWAP4 PUSH2 0x510 PUSH2 0x4B3 PUSH1 0x5 DUP7 ADD SLOAD SWAP5 DUP8 PUSH2 0x1D30 JUMP JUMPDEST SWAP5 PUSH2 0x502 PUSH2 0x4C0 DUP3 PUSH2 0x1AE7 JUMP JUMPDEST SWAP9 PUSH2 0x4D9 PUSH1 0x3 PUSH2 0x4D2 PUSH1 0x2 DUP7 ADD PUSH2 0x1AE7 JUMP JUMPDEST SWAP5 ADD PUSH2 0x1AE7 JUMP JUMPDEST SWAP3 PUSH1 0x40 MLOAD SWAP12 DUP13 SWAP12 DUP13 PUSH2 0x100 DUP1 SWAP2 MSTORE DUP14 ADD SWAP1 PUSH2 0x1B8D JUMP JUMPDEST SWAP2 PUSH1 0x20 DUP13 ADD MSTORE DUP11 DUP3 SUB PUSH1 0x40 DUP13 ADD MSTORE PUSH2 0x1B8D JUMP JUMPDEST SWAP1 DUP9 DUP3 SUB PUSH1 0x60 DUP11 ADD MSTORE PUSH2 0x1B8D JUMP JUMPDEST SWAP5 PUSH1 0x80 DUP8 ADD MSTORE PUSH1 0xA0 SHR AND ISZERO ISZERO PUSH1 0xA0 DUP6 ADD MSTORE PUSH1 0xC0 DUP5 ADD MSTORE PUSH1 0xE0 DUP4 ADD MSTORE SUB SWAP1 RETURN JUMPDEST CALLVALUE PUSH2 0x342 JUMPI PUSH1 0x40 CALLDATASIZE PUSH1 0x3 NOT ADD SLT PUSH2 0x342 JUMPI PUSH2 0x548 PUSH2 0x1A16 JUMP JUMPDEST PUSH2 0x550 PUSH2 0x1A2C JUMP JUMPDEST SWAP1 PUSH1 0x1 DUP1 PUSH1 0xA0 SHL SUB DUP1 SWAP2 AND PUSH1 0x0 MSTORE PUSH1 0x1 PUSH1 0x20 MSTORE PUSH1 0x40 PUSH1 0x0 KECCAK256 SWAP2 AND PUSH1 0x0 MSTORE PUSH1 0x20 MSTORE PUSH1 0x20 PUSH1 0xFF PUSH1 0x40 PUSH1 0x0 KECCAK256 SLOAD AND PUSH1 0x40 MLOAD SWAP1 ISZERO ISZERO DUP2 MSTORE RETURN JUMPDEST PUSH1 0x40 CALLDATASIZE PUSH1 0x3 NOT ADD SLT PUSH2 0x342 JUMPI PUSH1 0x4 CALLDATALOAD PUSH1 0x24 SWAP1 DUP2 CALLDATALOAD SWAP2 DUP2 PUSH1 0x0 MSTORE PUSH1 0x20 SWAP1 PUSH1 0x6 DUP3 MSTORE PUSH1 0x40 PUSH1 0x0 KECCAK256 PUSH1 0x4 DUP2 ADD SWAP1 DUP2 SLOAD SWAP1 PUSH1 0xFF DUP3 PUSH1 0xA0 SHR AND ISZERO PUSH2 0x7D4 JUMPI PUSH1 0x1 DUP2 ADD SLOAD TIMESTAMP LT ISZERO PUSH2 0x79B JUMPI PUSH1 0x5 ADD SLOAD SWAP2 DUP7 DUP4 MUL SWAP3 DUP1 DUP5 DIV DUP9 EQ SWAP1 ISZERO OR ISZERO PUSH2 0x786 JUMPI DUP3 CALLVALUE LT PUSH2 0x74B JUMPI PUSH1 0x1 PUSH1 0x1 PUSH1 0xA0 SHL SUB SWAP2 DUP3 AND DUP8 PUSH2 0x5FD DUP9 DUP4 PUSH2 0x1D30 JUMP JUMPDEST LT PUSH2 0x712 JUMPI PUSH1 0x0 DUP5 DUP2 SWAP5 DUP3 SWAP5 PUSH2 0x627 DUP5 SWAP6 DUP14 DUP14 PUSH1 0x40 MLOAD SWAP3 PUSH2 0x61D DUP5 PUSH2 0x1AAB JUMP JUMPDEST DUP9 DUP5 MSTORE CALLER SWAP1 PUSH2 0x1E67 JUMP JUMPDEST SLOAD AND GAS CALL PUSH2 0x633 PUSH2 0x22CC JUMP JUMPDEST POP ISZERO PUSH2 0x6DE JUMPI DUP1 CALLVALUE GT PUSH2 0x670 JUMPI JUMPDEST POP POP PUSH32 0xDBAAF4C87CE30816C961A81D110622A3227EDE77953D4383D514FF88AB2E0FD3 SWAP1 PUSH1 0x40 MLOAD SWAP4 DUP5 MSTORE CALLER SWAP4 LOG3 STOP JUMPDEST CALLVALUE SUB CALLVALUE DUP2 GT PUSH2 0x6C9 JUMPI PUSH1 0x0 DUP1 DUP1 DUP1 SWAP4 CALLER GAS CALL PUSH2 0x68A PUSH2 0x22CC JUMP JUMPDEST POP ISZERO PUSH2 0x696 JUMPI DUP1 PUSH2 0x641 JUMP JUMPDEST SWAP1 PUSH1 0xD PUSH1 0x64 SWAP3 PUSH1 0x40 MLOAD SWAP3 PUSH3 0x461BCD PUSH1 0xE5 SHL DUP5 MSTORE PUSH1 0x4 DUP5 ADD MSTORE DUP3 ADD MSTORE PUSH13 0x1499599D5B990819985A5B1959 PUSH1 0x9A SHL PUSH1 0x44 DUP3 ADD MSTORE REVERT JUMPDEST POP PUSH4 0x4E487B71 PUSH1 0xE0 SHL PUSH1 0x0 SWAP1 DUP2 MSTORE PUSH1 0x11 PUSH1 0x4 MSTORE REVERT JUMPDEST PUSH1 0x40 MLOAD PUSH3 0x461BCD PUSH1 0xE5 SHL DUP2 MSTORE PUSH1 0x4 DUP2 ADD DUP5 SWAP1 MSTORE PUSH1 0xD DUP2 DUP5 ADD MSTORE PUSH13 0x14185E5BDD5D0819985A5B1959 PUSH1 0x9A SHL PUSH1 0x44 DUP3 ADD MSTORE PUSH1 0x64 SWAP1 REVERT JUMPDEST PUSH1 0x40 MLOAD PUSH3 0x461BCD PUSH1 0xE5 SHL DUP2 MSTORE PUSH1 0x4 DUP2 ADD DUP8 SWAP1 MSTORE PUSH1 0x12 DUP2 DUP8 ADD MSTORE PUSH18 0x4E6F7420656E6F756768207469636B657473 PUSH1 0x70 SHL PUSH1 0x44 DUP3 ADD MSTORE PUSH1 0x64 SWAP1 REVERT JUMPDEST PUSH1 0x40 MLOAD PUSH3 0x461BCD PUSH1 0xE5 SHL DUP2 MSTORE PUSH1 0x4 DUP2 ADD DUP7 SWAP1 MSTORE PUSH1 0x14 DUP2 DUP7 ADD MSTORE PUSH20 0x125B9CDD59999A58DA595B9D081C185E5B595B9D PUSH1 0x62 SHL PUSH1 0x44 DUP3 ADD MSTORE PUSH1 0x64 SWAP1 REVERT JUMPDEST DUP4 PUSH4 0x4E487B71 PUSH1 0xE0 SHL PUSH1 0x0 MSTORE PUSH1 0x11 PUSH1 0x4 MSTORE PUSH1 0x0 REVERT JUMPDEST PUSH1 0x40 MLOAD PUSH3 0x461BCD PUSH1 0xE5 SHL DUP2 MSTORE PUSH1 0x4 DUP2 ADD DUP7 SWAP1 MSTORE PUSH1 0x12 DUP2 DUP7 ADD MSTORE PUSH18 0x115D995B9D081A185CC81BD8D8DD5C9C9959 PUSH1 0x72 SHL PUSH1 0x44 DUP3 ADD MSTORE PUSH1 0x64 SWAP1 REVERT JUMPDEST PUSH1 0x40 MLOAD PUSH3 0x461BCD PUSH1 0xE5 SHL DUP2 MSTORE PUSH1 0x4 DUP2 ADD DUP7 SWAP1 MSTORE PUSH1 0x10 DUP2 DUP7 ADD MSTORE PUSH16 0x4576656E74206E6F7420616374697665 PUSH1 0x80 SHL PUSH1 0x44 DUP3 ADD MSTORE PUSH1 0x64 SWAP1 REVERT JUMPDEST CALLVALUE PUSH2 0x342 JUMPI PUSH1 0xC0 CALLDATASIZE PUSH1 0x3 NOT ADD SLT PUSH2 0x342 JUMPI PUSH1 0x4 CALLDATALOAD PUSH1 0x1 PUSH1 0x1 PUSH1 0x40 SHL SUB DUP2 GT PUSH2 0x342 JUMPI PUSH2 0x83B SWAP1 CALLDATASIZE SWAP1 PUSH1 0x4 ADD PUSH2 0x1C5D JUMP JUMPDEST PUSH1 0x44 CALLDATALOAD PUSH1 0x1 PUSH1 0x1 PUSH1 0x40 SHL SUB DUP2 GT PUSH2 0x342 JUMPI PUSH2 0x85A SWAP1 CALLDATASIZE SWAP1 PUSH1 0x4 ADD PUSH2 0x1C5D JUMP JUMPDEST SWAP1 PUSH1 0x64 CALLDATALOAD PUSH1 0x1 PUSH1 0x1 PUSH1 0x40 SHL SUB DUP2 GT PUSH2 0x342 JUMPI PUSH2 0x87A SWAP1 CALLDATASIZE SWAP1 PUSH1 0x4 ADD PUSH2 0x1C5D JUMP JUMPDEST PUSH32 0xF6604D94064ACAAC8D13E1EB73176D55487E2F8ABDA34AB500AB76D24B0CDA44 PUSH1 0x40 DUP1 MLOAD TIMESTAMP DUP2 MSTORE PUSH1 0x24 CALLDATALOAD PUSH1 0x20 DUP3 ADD MSTORE LOG1 TIMESTAMP PUSH1 0x24 CALLDATALOAD LT PUSH2 0x10BF JUMPI DUP3 MLOAD ISZERO PUSH2 0x1086 JUMPI DUP1 MLOAD ISZERO PUSH2 0x104C JUMPI PUSH1 0x84 CALLDATALOAD ISZERO PUSH2 0x1007 JUMPI PUSH1 0x1 PUSH1 0x4 SLOAD ADD SWAP2 DUP3 PUSH1 0x4 SSTORE PUSH1 0x40 MLOAD SWAP1 DUP2 PUSH1 0xE0 DUP2 ADD LT PUSH1 0x1 PUSH1 0x1 PUSH1 0x40 SHL SUB PUSH1 0xE0 DUP5 ADD GT OR PUSH2 0xE5F JUMPI PUSH1 0xE0 DUP3 ADD PUSH1 0x40 MSTORE DUP2 MSTORE PUSH1 0x24 CALLDATALOAD PUSH1 0x20 DUP3 ADD MSTORE DUP4 PUSH1 0x40 DUP3 ADD MSTORE DUP2 PUSH1 0x60 DUP3 ADD MSTORE CALLER PUSH1 0x80 DUP3 ADD MSTORE PUSH1 0x1 PUSH1 0xA0 DUP3 ADD MSTORE PUSH1 0xA4 CALLDATALOAD PUSH1 0xC0 DUP3 ADD MSTORE DUP3 PUSH1 0x0 MSTORE PUSH1 0x6 PUSH1 0x20 MSTORE PUSH1 0x40 PUSH1 0x0 KECCAK256 SWAP1 DUP1 MLOAD DUP1 MLOAD SWAP1 PUSH1 0x1 PUSH1 0x1 PUSH1 0x40 SHL SUB DUP3 GT PUSH2 0xE5F JUMPI DUP2 SWAP1 PUSH2 0x951 DUP6 SLOAD PUSH2 0x1A71 JUMP JUMPDEST PUSH1 0x1F DUP2 GT PUSH2 0xFB7 JUMPI JUMPDEST POP PUSH1 0x20 SWAP1 PUSH1 0x1F DUP4 GT PUSH1 0x1 EQ PUSH2 0xF4B JUMPI PUSH1 0x0 SWAP3 PUSH2 0xF40 JUMPI JUMPDEST POP POP DUP2 PUSH1 0x1 SHL SWAP2 PUSH1 0x0 NOT SWAP1 PUSH1 0x3 SHL SHR NOT AND OR DUP3 SSTORE JUMPDEST PUSH1 0x20 DUP2 ADD MLOAD PUSH1 0x1 DUP4 ADD SSTORE PUSH1 0x40 DUP2 ADD MLOAD DUP1 MLOAD SWAP1 PUSH1 0x1 PUSH1 0x1 PUSH1 0x40 SHL SUB DUP3 GT PUSH2 0xE5F JUMPI DUP2 SWAP1 PUSH2 0x9B5 PUSH1 0x2 DUP7 ADD SLOAD PUSH2 0x1A71 JUMP JUMPDEST PUSH1 0x1F DUP2 GT PUSH2 0xEED JUMPI JUMPDEST POP PUSH1 0x20 SWAP1 PUSH1 0x1F DUP4 GT PUSH1 0x1 EQ PUSH2 0xE80 JUMPI PUSH1 0x0 SWAP3 PUSH2 0xE75 JUMPI JUMPDEST POP POP DUP2 PUSH1 0x1 SHL SWAP2 PUSH1 0x0 NOT SWAP1 PUSH1 0x3 SHL SHR NOT AND OR PUSH1 0x2 DUP4 ADD SSTORE JUMPDEST PUSH1 0x60 DUP2 ADD MLOAD DUP1 MLOAD SWAP1 PUSH1 0x1 PUSH1 0x1 PUSH1 0x40 SHL SUB DUP3 GT PUSH2 0xE5F JUMPI PUSH2 0xA10 PUSH1 0x3 DUP6 ADD SLOAD PUSH2 0x1A71 JUMP JUMPDEST PUSH1 0x1F DUP2 GT PUSH2 0xE18 JUMPI JUMPDEST POP PUSH1 0x20 SWAP1 PUSH1 0x1F DUP4 GT PUSH1 0x1 EQ PUSH2 0xDA5 JUMPI SWAP2 DUP1 PUSH1 0x5 SWAP5 SWAP3 PUSH1 0xC0 SWAP5 PUSH1 0x0 SWAP3 PUSH2 0xD9A JUMPI JUMPDEST POP POP DUP2 PUSH1 0x1 SHL SWAP2 PUSH1 0x0 NOT SWAP1 PUSH1 0x3 SHL SHR NOT AND OR PUSH1 0x3 DUP6 ADD SSTORE JUMPDEST PUSH1 0x4 DUP5 ADD PUSH1 0x1 DUP1 PUSH1 0xA0 SHL SUB PUSH1 0x80 DUP4 ADD MLOAD AND DUP2 SLOAD SWAP1 PUSH1 0xFF PUSH1 0xA0 SHL PUSH1 0xA0 DUP6 ADD MLOAD ISZERO ISZERO PUSH1 0xA0 SHL AND SWAP2 PUSH11 0xFFFFFFFFFFFFFFFFFFFFFF PUSH1 0xA8 SHL AND OR OR SWAP1 SSTORE ADD MLOAD SWAP2 ADD SSTORE ADDRESS CALLER EQ PUSH2 0xD43 JUMPI CALLER PUSH1 0x0 MSTORE PUSH1 0x1 PUSH1 0x20 MSTORE PUSH1 0x40 PUSH1 0x0 KECCAK256 ADDRESS PUSH1 0x0 MSTORE PUSH1 0x20 MSTORE PUSH1 0x40 PUSH1 0x0 KECCAK256 PUSH1 0x1 PUSH1 0xFF NOT DUP3 SLOAD AND OR SWAP1 SSTORE PUSH1 0x40 MLOAD PUSH1 0x1 DUP2 MSTORE ADDRESS SWAP1 PUSH32 0x17307EAB39AB6107E8899845AD3D59BD9653F200F220920489CA2B5937696C31 PUSH1 0x20 CALLER SWAP3 LOG3 PUSH1 0x40 MLOAD PUSH2 0xAF6 DUP2 PUSH2 0x1AAB JUMP JUMPDEST PUSH1 0x0 DUP2 MSTORE CALLER ISZERO PUSH2 0xCF4 JUMPI PUSH2 0xB09 DUP4 PUSH2 0x2297 JUMP JUMPDEST POP PUSH2 0xB15 PUSH1 0x84 CALLDATALOAD PUSH2 0x2297 JUMP JUMPDEST POP DUP3 PUSH1 0x0 MSTORE PUSH1 0x0 PUSH1 0x20 MSTORE PUSH1 0x40 PUSH1 0x0 KECCAK256 CALLER PUSH1 0x0 MSTORE PUSH1 0x20 MSTORE PUSH1 0x40 PUSH1 0x0 KECCAK256 PUSH2 0xB3D PUSH1 0x84 CALLDATALOAD DUP3 SLOAD PUSH2 0x213D JUMP JUMPDEST SWAP1 SSTORE PUSH1 0x40 MLOAD DUP4 DUP2 MSTORE PUSH1 0x84 CALLDATALOAD PUSH1 0x20 DUP3 ADD MSTORE PUSH1 0x0 CALLER SWAP2 PUSH32 0xC3D58168C5AE7397731D063D5BBF3D657854427343F4C083240F7AACAA2D0F62 PUSH1 0x40 CALLER SWAP3 LOG4 CALLER EXTCODESIZE PUSH2 0xBD7 JUMPI JUMPDEST POP DUP2 PUSH32 0x74C22F9F773D1D8C02DDAA6DEEEAA696CACBFEA0BE35360F9B2C253B13938F6F PUSH2 0xBBE PUSH1 0x20 SWAP6 PUSH2 0xBCC PUSH1 0x40 MLOAD SWAP3 DUP4 SWAP3 PUSH1 0x40 DUP5 MSTORE PUSH1 0x40 DUP5 ADD SWAP1 PUSH2 0x1B8D JUMP JUMPDEST DUP3 DUP2 SUB DUP10 DUP5 ADD MSTORE CALLER SWAP7 PUSH2 0x1B8D JUMP JUMPDEST SUB SWAP1 LOG3 PUSH1 0x40 MLOAD SWAP1 DUP2 MSTORE RETURN JUMPDEST PUSH1 0x40 MLOAD PUSH1 0x20 DUP2 DUP1 PUSH2 0xC19 PUSH4 0xF23A6E61 PUSH1 0xE0 SHL SWAP6 DUP7 DUP4 MSTORE CALLER PUSH1 0x4 DUP5 ADD MSTORE PUSH1 0x0 PUSH1 0x24 DUP5 ADD MSTORE DUP9 PUSH1 0x44 DUP5 ADD MSTORE PUSH1 0x84 CALLDATALOAD PUSH1 0x64 DUP5 ADD MSTORE PUSH1 0xA0 PUSH1 0x84 DUP5 ADD MSTORE PUSH1 0xA4 DUP4 ADD SWAP1 PUSH2 0x1B8D JUMP JUMPDEST SUB DUP2 PUSH1 0x0 CALLER GAS CALL PUSH1 0x0 SWAP2 DUP2 PUSH2 0xCC3 JUMPI JUMPDEST POP PUSH2 0xC95 JUMPI PUSH2 0xC36 PUSH2 0x21B3 JUMP JUMPDEST PUSH4 0x8C379A0 EQ PUSH2 0xC5E JUMPI JUMPDEST PUSH1 0x40 MLOAD PUSH3 0x461BCD PUSH1 0xE5 SHL DUP2 MSTORE DUP1 PUSH2 0xC5A PUSH1 0x4 DUP3 ADD PUSH2 0x2242 JUMP JUMPDEST SUB SWAP1 REVERT JUMPDEST PUSH2 0xC66 PUSH2 0x21D1 JUMP JUMPDEST DUP1 PUSH2 0xC71 JUMPI POP PUSH2 0xC41 JUMP JUMPDEST PUSH1 0x40 MLOAD PUSH3 0x461BCD PUSH1 0xE5 SHL DUP2 MSTORE PUSH1 0x20 PUSH1 0x4 DUP3 ADD MSTORE SWAP1 DUP2 SWAP1 PUSH2 0xC5A SWAP1 PUSH1 0x24 DUP4 ADD SWAP1 PUSH2 0x1B8D JUMP JUMPDEST PUSH1 0x1 PUSH1 0x1 PUSH1 0xE0 SHL SUB NOT AND SUB PUSH2 0xCAA JUMPI DUP2 PUSH2 0xB7E JUMP JUMPDEST PUSH1 0x40 MLOAD PUSH3 0x461BCD PUSH1 0xE5 SHL DUP2 MSTORE DUP1 PUSH2 0xC5A PUSH1 0x4 DUP3 ADD PUSH2 0x216A JUMP JUMPDEST PUSH2 0xCE6 SWAP2 SWAP3 POP PUSH1 0x20 RETURNDATASIZE PUSH1 0x20 GT PUSH2 0xCED JUMPI JUMPDEST PUSH2 0xCDE DUP2 DUP4 PUSH2 0x1AC6 JUMP JUMPDEST DUP2 ADD SWAP1 PUSH2 0x214A JUMP JUMPDEST SWAP1 DUP7 PUSH2 0xC29 JUMP JUMPDEST POP RETURNDATASIZE PUSH2 0xCD4 JUMP JUMPDEST PUSH1 0x40 MLOAD PUSH3 0x461BCD PUSH1 0xE5 SHL DUP2 MSTORE PUSH1 0x20 PUSH1 0x4 DUP3 ADD MSTORE PUSH1 0x21 PUSH1 0x24 DUP3 ADD MSTORE PUSH32 0x455243313135353A206D696E7420746F20746865207A65726F20616464726573 PUSH1 0x44 DUP3 ADD MSTORE PUSH1 0x73 PUSH1 0xF8 SHL PUSH1 0x64 DUP3 ADD MSTORE PUSH1 0x84 SWAP1 REVERT JUMPDEST PUSH1 0x40 MLOAD PUSH3 0x461BCD PUSH1 0xE5 SHL DUP2 MSTORE PUSH1 0x20 PUSH1 0x4 DUP3 ADD MSTORE PUSH1 0x29 PUSH1 0x24 DUP3 ADD MSTORE PUSH32 0x455243313135353A2073657474696E6720617070726F76616C20737461747573 PUSH1 0x44 DUP3 ADD MSTORE PUSH9 0x103337B91039B2B633 PUSH1 0xB9 SHL PUSH1 0x64 DUP3 ADD MSTORE PUSH1 0x84 SWAP1 REVERT JUMPDEST ADD MLOAD SWAP1 POP DUP10 DUP1 PUSH2 0xA39 JUMP JUMPDEST SWAP1 PUSH1 0x1F NOT DUP4 AND SWAP2 PUSH1 0x3 DUP7 ADD PUSH1 0x0 MSTORE PUSH1 0x20 PUSH1 0x0 KECCAK256 SWAP3 PUSH1 0x0 JUMPDEST DUP2 DUP2 LT PUSH2 0xE00 JUMPI POP SWAP3 PUSH1 0x1 SWAP3 DUP6 SWAP3 PUSH1 0xC0 SWAP7 PUSH1 0x5 SWAP9 SWAP7 LT PUSH2 0xDE7 JUMPI JUMPDEST POP POP POP DUP2 SHL ADD PUSH1 0x3 DUP6 ADD SSTORE PUSH2 0xA51 JUMP JUMPDEST ADD MLOAD PUSH1 0x0 NOT PUSH1 0xF8 DUP5 PUSH1 0x3 SHL AND SHR NOT AND SWAP1 SSTORE DUP10 DUP1 DUP1 PUSH2 0xDD7 JUMP JUMPDEST SWAP3 SWAP4 PUSH1 0x20 PUSH1 0x1 DUP2 SWAP3 DUP8 DUP7 ADD MLOAD DUP2 SSTORE ADD SWAP6 ADD SWAP4 ADD PUSH2 0xDBC JUMP JUMPDEST PUSH1 0x3 DUP6 ADD PUSH1 0x0 MSTORE PUSH1 0x20 PUSH1 0x0 KECCAK256 PUSH1 0x1F DUP5 ADD PUSH1 0x5 SHR DUP2 ADD PUSH1 0x20 DUP6 LT PUSH2 0xE58 JUMPI JUMPDEST PUSH1 0x1F DUP4 ADD PUSH1 0x5 SHR DUP3 ADD DUP2 LT PUSH2 0xE4C JUMPI POP POP PUSH2 0xA19 JUMP JUMPDEST PUSH1 0x0 DUP2 SSTORE PUSH1 0x1 ADD PUSH2 0xE36 JUMP JUMPDEST POP DUP1 PUSH2 0xE36 JUMP JUMPDEST PUSH4 0x4E487B71 PUSH1 0xE0 SHL PUSH1 0x0 MSTORE PUSH1 0x41 PUSH1 0x4 MSTORE PUSH1 0x24 PUSH1 0x0 REVERT JUMPDEST ADD MLOAD SWAP1 POP DUP8 DUP1 PUSH2 0x9D5 JUMP JUMPDEST PUSH1 0x2 DUP7 ADD PUSH1 0x0 SWAP1 DUP2 MSTORE PUSH1 0x20 DUP2 KECCAK256 SWAP4 POP PUSH1 0x1F NOT DUP6 AND SWAP1 JUMPDEST DUP2 DUP2 LT PUSH2 0xED5 JUMPI POP SWAP1 DUP5 PUSH1 0x1 SWAP6 SWAP5 SWAP4 SWAP3 LT PUSH2 0xEBC JUMPI JUMPDEST POP POP POP DUP2 SHL ADD PUSH1 0x2 DUP4 ADD SSTORE PUSH2 0x9ED JUMP JUMPDEST ADD MLOAD PUSH1 0x0 NOT PUSH1 0xF8 DUP5 PUSH1 0x3 SHL AND SHR NOT AND SWAP1 SSTORE DUP8 DUP1 DUP1 PUSH2 0xEAC JUMP JUMPDEST SWAP3 SWAP4 PUSH1 0x20 PUSH1 0x1 DUP2 SWAP3 DUP8 DUP7 ADD MLOAD DUP2 SSTORE ADD SWAP6 ADD SWAP4 ADD PUSH2 0xE96 JUMP JUMPDEST SWAP1 SWAP2 POP PUSH1 0x2 DUP6 ADD PUSH1 0x0 MSTORE PUSH1 0x20 PUSH1 0x0 KECCAK256 PUSH1 0x1F DUP5 ADD PUSH1 0x5 SHR DUP2 ADD PUSH1 0x20 DUP6 LT PUSH2 0xF39 JUMPI JUMPDEST SWAP1 DUP5 SWAP4 SWAP3 SWAP2 JUMPDEST PUSH1 0x1F DUP4 ADD PUSH1 0x5 SHR DUP3 ADD DUP2 LT PUSH2 0xF2A JUMPI POP POP PUSH2 0x9BE JUMP JUMPDEST PUSH1 0x0 DUP2 SSTORE DUP6 SWAP5 POP PUSH1 0x1 ADD PUSH2 0xF14 JUMP JUMPDEST POP DUP1 PUSH2 0xF0E JUMP JUMPDEST ADD MLOAD SWAP1 POP DUP8 DUP1 PUSH2 0x971 JUMP JUMPDEST SWAP3 POP DUP5 PUSH1 0x0 MSTORE PUSH1 0x20 PUSH1 0x0 KECCAK256 SWAP1 PUSH1 0x0 SWAP4 JUMPDEST PUSH1 0x1F NOT DUP5 AND DUP6 LT PUSH2 0xF9C JUMPI PUSH1 0x1 SWAP5 POP DUP4 PUSH1 0x1F NOT DUP2 AND LT PUSH2 0xF83 JUMPI JUMPDEST POP POP POP DUP2 SHL ADD DUP3 SSTORE PUSH2 0x986 JUMP JUMPDEST ADD MLOAD PUSH1 0x0 NOT PUSH1 0xF8 DUP5 PUSH1 0x3 SHL AND SHR NOT AND SWAP1 SSTORE DUP8 DUP1 DUP1 PUSH2 0xF76 JUMP JUMPDEST DUP2 DUP2 ADD MLOAD DUP4 SSTORE PUSH1 0x20 SWAP5 DUP6 ADD SWAP5 PUSH1 0x1 SWAP1 SWAP4 ADD SWAP3 SWAP1 SWAP2 ADD SWAP1 PUSH2 0xF5B JUMP JUMPDEST SWAP1 SWAP2 POP DUP5 PUSH1 0x0 MSTORE PUSH1 0x20 PUSH1 0x0 KECCAK256 PUSH1 0x1F DUP5 ADD PUSH1 0x5 SHR DUP2 ADD PUSH1 0x20 DUP6 LT PUSH2 0x1000 JUMPI JUMPDEST SWAP1 DUP5 SWAP4 SWAP3 SWAP2 JUMPDEST PUSH1 0x1F DUP4 ADD PUSH1 0x5 SHR DUP3 ADD DUP2 LT PUSH2 0xFF1 JUMPI POP POP PUSH2 0x95A JUMP JUMPDEST PUSH1 0x0 DUP2 SSTORE DUP6 SWAP5 POP PUSH1 0x1 ADD PUSH2 0xFDB JUMP JUMPDEST POP DUP1 PUSH2 0xFD5 JUMP JUMPDEST PUSH1 0x40 MLOAD PUSH3 0x461BCD PUSH1 0xE5 SHL DUP2 MSTORE PUSH1 0x20 PUSH1 0x4 DUP3 ADD MSTORE PUSH1 0x19 PUSH1 0x24 DUP3 ADD MSTORE PUSH32 0x5469636B657420737570706C79206D757374206265203E203000000000000000 PUSH1 0x44 DUP3 ADD MSTORE PUSH1 0x64 SWAP1 REVERT JUMPDEST PUSH1 0x40 MLOAD PUSH3 0x461BCD PUSH1 0xE5 SHL DUP2 MSTORE PUSH1 0x20 PUSH1 0x4 DUP3 ADD MSTORE PUSH1 0x12 PUSH1 0x24 DUP3 ADD MSTORE PUSH18 0x125B5859D94810D251081C995C5D5A5C9959 PUSH1 0x72 SHL PUSH1 0x44 DUP3 ADD MSTORE PUSH1 0x64 SWAP1 REVERT JUMPDEST PUSH1 0x40 MLOAD PUSH3 0x461BCD PUSH1 0xE5 SHL DUP2 MSTORE PUSH1 0x20 PUSH1 0x4 DUP3 ADD MSTORE PUSH1 0x11 PUSH1 0x24 DUP3 ADD MSTORE PUSH17 0x12541194C810D251081C995C5D5A5C9959 PUSH1 0x7A SHL PUSH1 0x44 DUP3 ADD MSTORE PUSH1 0x64 SWAP1 REVERT JUMPDEST PUSH1 0x40 MLOAD PUSH3 0x461BCD PUSH1 0xE5 SHL DUP2 MSTORE PUSH1 0x20 PUSH1 0x4 DUP3 ADD MSTORE PUSH1 0x19 PUSH1 0x24 DUP3 ADD MSTORE PUSH32 0x4576656E742064617465206D757374206265203E3D206E6F7700000000000000 PUSH1 0x44 DUP3 ADD MSTORE PUSH1 0x64 SWAP1 REVERT JUMPDEST CALLVALUE PUSH2 0x342 JUMPI PUSH1 0x40 CALLDATASIZE PUSH1 0x3 NOT ADD SLT PUSH2 0x342 JUMPI PUSH2 0x111D PUSH2 0x1A16 JUMP JUMPDEST PUSH1 0x24 CALLDATALOAD SWAP1 DUP2 ISZERO ISZERO DUP1 SWAP3 SUB PUSH2 0x342 JUMPI PUSH1 0x1 PUSH1 0x1 PUSH1 0xA0 SHL SUB AND SWAP1 CALLER DUP3 EQ PUSH2 0xD43 JUMPI CALLER PUSH1 0x0 MSTORE PUSH1 0x1 PUSH1 0x20 MSTORE PUSH1 0x40 PUSH1 0x0 KECCAK256 DUP3 PUSH1 0x0 MSTORE PUSH1 0x20 MSTORE PUSH1 0x40 PUSH1 0x0 KECCAK256 PUSH1 0xFF NOT DUP2 SLOAD AND PUSH1 0xFF DUP4 AND OR SWAP1 SSTORE PUSH1 0x40 MLOAD SWAP1 DUP2 MSTORE PUSH32 0x17307EAB39AB6107E8899845AD3D59BD9653F200F220920489CA2B5937696C31 PUSH1 0x20 CALLER SWAP3 LOG3 STOP JUMPDEST CALLVALUE PUSH2 0x342 JUMPI PUSH1 0x20 CALLDATASIZE PUSH1 0x3 NOT ADD SLT PUSH2 0x342 JUMPI PUSH2 0x11AA PUSH2 0x1A16 JUMP JUMPDEST PUSH2 0x11B2 PUSH2 0x1CD8 JUMP JUMPDEST PUSH1 0x5 DUP1 SLOAD PUSH1 0x1 PUSH1 0x1 PUSH1 0xA0 SHL SUB NOT AND PUSH1 0x1 PUSH1 0x1 PUSH1 0xA0 SHL SUB SWAP3 SWAP1 SWAP3 AND SWAP2 SWAP1 SWAP2 OR SWAP1 SSTORE STOP JUMPDEST CALLVALUE PUSH2 0x342 JUMPI PUSH1 0x20 CALLDATASIZE PUSH1 0x3 NOT ADD SLT PUSH2 0x342 JUMPI PUSH1 0x4 DUP1 CALLDATALOAD PUSH1 0x0 DUP2 DUP2 MSTORE PUSH1 0x6 PUSH1 0x20 MSTORE PUSH1 0x40 SWAP1 KECCAK256 SWAP1 SWAP2 ADD SLOAD PUSH1 0x1 PUSH1 0x1 PUSH1 0xA0 SHL SUB AND CALLER SUB PUSH2 0x1228 JUMPI PUSH1 0x0 SWAP1 DUP2 MSTORE PUSH1 0x6 PUSH1 0x20 MSTORE PUSH1 0x40 SWAP1 KECCAK256 PUSH1 0x4 ADD DUP1 SLOAD PUSH1 0xFF PUSH1 0xA0 SHL NOT AND SWAP1 SSTORE STOP JUMPDEST PUSH1 0x40 MLOAD PUSH3 0x461BCD PUSH1 0xE5 SHL DUP2 MSTORE PUSH1 0x20 PUSH1 0x4 DUP3 ADD MSTORE PUSH1 0x1F PUSH1 0x24 DUP3 ADD MSTORE PUSH32 0x4F6E6C79206576656E74206F776E65722063616E206465616374697661746500 PUSH1 0x44 DUP3 ADD MSTORE PUSH1 0x64 SWAP1 REVERT JUMPDEST PUSH2 0x1A42 JUMP JUMPDEST CALLVALUE PUSH2 0x342 JUMPI PUSH1 0x0 CALLDATASIZE PUSH1 0x3 NOT ADD SLT PUSH2 0x342 JUMPI PUSH1 0x3 SLOAD PUSH1 0x40 MLOAD PUSH1 0x1 PUSH1 0x1 PUSH1 0xA0 SHL SUB SWAP1 SWAP2 AND DUP2 MSTORE PUSH1 0x20 SWAP1 RETURN JUMPDEST CALLVALUE PUSH2 0x342 JUMPI PUSH1 0x0 CALLDATASIZE PUSH1 0x3 NOT ADD SLT PUSH2 0x342 JUMPI PUSH2 0x12B4 PUSH2 0x1CD8 JUMP JUMPDEST PUSH1 0x3 DUP1 SLOAD PUSH1 0x1 PUSH1 0x1 PUSH1 0xA0 SHL SUB NOT DUP2 AND SWAP1 SWAP2 SSTORE PUSH1 0x0 SWAP1 PUSH1 0x1 PUSH1 0x1 PUSH1 0xA0 SHL SUB AND PUSH32 0x8BE0079C531659141344CD1FD0A4F28419497F9722A3DAAFE3B4186F6B6457E0 DUP3 DUP1 LOG3 STOP JUMPDEST CALLVALUE PUSH2 0x342 JUMPI PUSH1 0x40 CALLDATASIZE PUSH1 0x3 NOT ADD SLT PUSH2 0x342 JUMPI PUSH1 0x4 CALLDATALOAD PUSH1 0x1 PUSH1 0x1 PUSH1 0x40 SHL SUB DUP1 DUP3 GT PUSH2 0x342 JUMPI CALLDATASIZE PUSH1 0x23 DUP4 ADD SLT ISZERO PUSH2 0x342 JUMPI DUP2 PUSH1 0x4 ADD CALLDATALOAD SWAP1 PUSH2 0x1335 DUP3 PUSH2 0x1BCD JUMP JUMPDEST SWAP3 PUSH2 0x1343 PUSH1 0x40 MLOAD SWAP5 DUP6 PUSH2 0x1AC6 JUMP JUMPDEST DUP3 DUP5 MSTORE PUSH1 0x20 SWAP3 PUSH1 0x24 DUP5 DUP7 ADD SWAP2 PUSH1 0x5 SHL DUP4 ADD ADD SWAP2 CALLDATASIZE DUP4 GT PUSH2 0x342 JUMPI PUSH1 0x24 ADD SWAP1 JUMPDEST DUP3 DUP3 LT PUSH2 0x147B JUMPI POP POP POP PUSH1 0x24 CALLDATALOAD SWAP1 DUP2 GT PUSH2 0x342 JUMPI PUSH2 0x1384 SWAP1 CALLDATASIZE SWAP1 PUSH1 0x4 ADD PUSH2 0x1BE4 JUMP JUMPDEST DUP3 MLOAD DUP2 MLOAD SUB PUSH2 0x1424 JUMPI DUP3 MLOAD SWAP3 PUSH2 0x1399 DUP5 PUSH2 0x1BCD JUMP JUMPDEST SWAP4 PUSH2 0x13A7 PUSH1 0x40 MLOAD SWAP6 DUP7 PUSH2 0x1AC6 JUMP JUMPDEST DUP1 DUP6 MSTORE PUSH2 0x13B6 PUSH1 0x1F NOT SWAP2 PUSH2 0x1BCD JUMP JUMPDEST ADD CALLDATASIZE DUP5 DUP7 ADD CALLDATACOPY PUSH1 0x0 JUMPDEST DUP2 MLOAD DUP2 LT ISZERO PUSH2 0x1409 JUMPI PUSH2 0x1404 SWAP1 PUSH2 0x13F4 PUSH1 0x1 PUSH1 0x1 PUSH1 0xA0 SHL SUB PUSH2 0x13E1 DUP4 DUP7 PUSH2 0x1DDA JUMP JUMPDEST MLOAD AND PUSH2 0x13ED DUP4 DUP8 PUSH2 0x1DDA JUMP JUMPDEST MLOAD SWAP1 PUSH2 0x1D30 JUMP JUMPDEST PUSH2 0x13FE DUP3 DUP9 PUSH2 0x1DDA JUMP JUMPDEST MSTORE PUSH2 0x1DB5 JUMP JUMPDEST PUSH2 0x13BF JUMP JUMPDEST POP POP POP PUSH2 0x1420 PUSH1 0x40 MLOAD SWAP3 DUP3 DUP5 SWAP4 DUP5 MSTORE DUP4 ADD SWAP1 PUSH2 0x1CA4 JUMP JUMPDEST SUB SWAP1 RETURN JUMPDEST PUSH1 0x40 MLOAD PUSH3 0x461BCD PUSH1 0xE5 SHL DUP2 MSTORE PUSH1 0x4 DUP2 ADD DUP4 SWAP1 MSTORE PUSH1 0x29 PUSH1 0x24 DUP3 ADD MSTORE PUSH32 0x455243313135353A206163636F756E747320616E6420696473206C656E677468 PUSH1 0x44 DUP3 ADD MSTORE PUSH9 0x40DAD2E6DAC2E8C6D PUSH1 0xBB SHL PUSH1 0x64 DUP3 ADD MSTORE PUSH1 0x84 SWAP1 REVERT JUMPDEST DUP2 CALLDATALOAD PUSH1 0x1 PUSH1 0x1 PUSH1 0xA0 SHL SUB DUP2 AND DUP2 SUB PUSH2 0x342 JUMPI DUP2 MSTORE SWAP1 DUP5 ADD SWAP1 DUP5 ADD PUSH2 0x1362 JUMP JUMPDEST CALLVALUE PUSH2 0x342 JUMPI PUSH1 0x20 CALLDATASIZE PUSH1 0x3 NOT ADD SLT PUSH2 0x342 JUMPI PUSH1 0x4 CALLDATALOAD PUSH1 0x0 MSTORE PUSH1 0x6 PUSH1 0x20 MSTORE PUSH1 0x20 PUSH1 0x40 PUSH1 0x0 KECCAK256 PUSH1 0xFF PUSH1 0x4 DUP3 ADD SLOAD PUSH1 0xA0 SHR AND SWAP1 DUP2 PUSH2 0x14DA JUMPI JUMPDEST POP PUSH1 0x40 MLOAD SWAP1 ISZERO ISZERO DUP2 MSTORE RETURN JUMPDEST PUSH1 0x1 SWAP2 POP ADD SLOAD TIMESTAMP LT DUP3 PUSH2 0x14CF JUMP JUMPDEST CALLVALUE PUSH2 0x342 JUMPI PUSH1 0x0 CALLDATASIZE PUSH1 0x3 NOT ADD SLT PUSH2 0x342 JUMPI PUSH1 0x5 SLOAD PUSH1 0x40 MLOAD PUSH1 0x1 PUSH1 0x1 PUSH1 0xA0 SHL SUB SWAP1 SWAP2 AND DUP2 MSTORE PUSH1 0x20 SWAP1 RETURN JUMPDEST CALLVALUE PUSH2 0x342 JUMPI PUSH1 0x3 NOT PUSH1 0xA0 CALLDATASIZE DUP3 ADD SLT PUSH2 0x342 JUMPI PUSH2 0x152B PUSH2 0x1A16 JUMP JUMPDEST SWAP1 PUSH2 0x1534 PUSH2 0x1A2C JUMP JUMPDEST SWAP1 PUSH1 0x1 PUSH1 0x1 PUSH1 0x40 SHL SUB SWAP1 PUSH1 0x44 CALLDATALOAD DUP3 DUP2 GT PUSH2 0x342 JUMPI PUSH2 0x1556 SWAP1 CALLDATASIZE SWAP1 PUSH1 0x4 ADD PUSH2 0x1BE4 JUMP JUMPDEST PUSH1 0x64 CALLDATALOAD DUP4 DUP2 GT PUSH2 0x342 JUMPI PUSH2 0x156E SWAP1 CALLDATASIZE SWAP1 PUSH1 0x4 ADD PUSH2 0x1BE4 JUMP JUMPDEST SWAP3 PUSH1 0x84 CALLDATALOAD SWAP1 DUP2 GT PUSH2 0x342 JUMPI PUSH2 0x1587 SWAP1 CALLDATASIZE SWAP1 PUSH1 0x4 ADD PUSH2 0x1C5D JUMP JUMPDEST PUSH1 0x1 PUSH1 0x1 PUSH1 0xA0 SHL SUB SWAP6 DUP7 AND SWAP6 SWAP1 SWAP3 SWAP1 CALLER DUP8 EQ DUP1 ISZERO PUSH2 0x17B8 JUMPI JUMPDEST PUSH2 0x15A9 SWAP1 PUSH2 0x1E04 JUMP JUMPDEST DUP3 MLOAD DUP6 MLOAD SUB PUSH2 0x1762 JUMPI DUP6 AND SWAP3 PUSH2 0x15C0 DUP5 ISZERO ISZERO PUSH2 0x2084 JUMP JUMPDEST PUSH1 0x0 JUMPDEST DUP4 MLOAD DUP2 LT ISZERO PUSH2 0x1659 JUMPI DUP1 PUSH2 0x15DA PUSH2 0x1654 SWAP3 DUP7 PUSH2 0x1DDA JUMP JUMPDEST MLOAD PUSH2 0x15E5 DUP3 DUP10 PUSH2 0x1DDA JUMP JUMPDEST MLOAD SWAP1 DUP1 PUSH1 0x0 MSTORE PUSH1 0x20 SWAP1 PUSH1 0x0 DUP3 MSTORE PUSH1 0x40 PUSH1 0x0 KECCAK256 DUP13 PUSH1 0x0 MSTORE DUP3 MSTORE DUP3 PUSH1 0x40 PUSH1 0x0 KECCAK256 SLOAD PUSH2 0x1610 DUP3 DUP3 LT ISZERO PUSH2 0x20DE JUMP JUMPDEST DUP3 PUSH1 0x0 MSTORE PUSH1 0x0 DUP5 MSTORE DUP14 PUSH1 0x40 PUSH1 0x0 KECCAK256 SWAP1 PUSH1 0x0 MSTORE DUP5 MSTORE SUB PUSH1 0x40 PUSH1 0x0 KECCAK256 SSTORE PUSH1 0x0 MSTORE PUSH1 0x0 DUP2 MSTORE PUSH1 0x40 PUSH1 0x0 KECCAK256 SWAP1 DUP9 PUSH1 0x0 MSTORE MSTORE PUSH2 0x164D PUSH1 0x40 PUSH1 0x0 KECCAK256 SWAP2 DUP3 SLOAD PUSH2 0x213D JUMP JUMPDEST SWAP1 SSTORE PUSH2 0x1DB5 JUMP JUMPDEST PUSH2 0x15C3 JUMP JUMPDEST POP SWAP1 SWAP5 SWAP4 SWAP3 SWAP2 SWAP4 DUP3 DUP8 PUSH1 0x40 MLOAD PUSH1 0x40 DUP2 MSTORE PUSH32 0x4A39DC06D4C0DBC64B70AF90FD698A233A518AA5D07E595D983B8C0526C8F7FB PUSH2 0x1697 PUSH1 0x40 DUP4 ADD DUP11 PUSH2 0x1CA4 JUMP JUMPDEST SWAP2 DUP1 DUP4 SUB PUSH1 0x20 DUP3 ADD MSTORE DUP1 PUSH2 0x16AC CALLER SWAP5 DUP12 PUSH2 0x1CA4 JUMP JUMPDEST SUB SWAP1 LOG4 EXTCODESIZE PUSH2 0x16B6 JUMPI STOP JUMPDEST PUSH1 0x0 PUSH1 0x20 SWAP5 PUSH2 0x1717 PUSH2 0x1708 SWAP8 PUSH2 0x16F8 SWAP5 PUSH1 0x40 MLOAD SWAP10 DUP11 SWAP9 DUP10 SWAP8 DUP9 SWAP7 PUSH4 0xBC197C81 PUSH1 0xE0 SHL SWAP15 DUP16 DUP10 MSTORE CALLER PUSH1 0x4 DUP11 ADD MSTORE PUSH1 0x24 DUP10 ADD MSTORE PUSH1 0xA0 PUSH1 0x44 DUP10 ADD MSTORE PUSH1 0xA4 DUP9 ADD SWAP1 PUSH2 0x1CA4 JUMP JUMPDEST SWAP1 DUP5 DUP8 DUP4 SUB ADD PUSH1 0x64 DUP9 ADD MSTORE PUSH2 0x1CA4 JUMP JUMPDEST SWAP2 DUP5 DUP4 SUB ADD PUSH1 0x84 DUP6 ADD MSTORE PUSH2 0x1B8D JUMP JUMPDEST SUB SWAP3 GAS CALL PUSH1 0x0 SWAP2 DUP2 PUSH2 0x1742 JUMPI JUMPDEST POP PUSH2 0x1731 JUMPI PUSH2 0xC36 PUSH2 0x21B3 JUMP JUMPDEST PUSH1 0x1 PUSH1 0x1 PUSH1 0xE0 SHL SUB NOT AND SUB PUSH2 0xCAA JUMPI STOP JUMPDEST PUSH2 0x175B SWAP2 SWAP3 POP PUSH1 0x20 RETURNDATASIZE DUP2 GT PUSH2 0xCED JUMPI PUSH2 0xCDE DUP2 DUP4 PUSH2 0x1AC6 JUMP JUMPDEST SWAP1 DUP4 PUSH2 0x1724 JUMP JUMPDEST PUSH1 0x40 MLOAD PUSH3 0x461BCD PUSH1 0xE5 SHL DUP2 MSTORE PUSH1 0x20 PUSH1 0x4 DUP3 ADD MSTORE PUSH1 0x28 PUSH1 0x24 DUP3 ADD MSTORE PUSH32 0x455243313135353A2069647320616E6420616D6F756E7473206C656E67746820 PUSH1 0x44 DUP3 ADD MSTORE PUSH8 0xDAD2E6DAC2E8C6D PUSH1 0xC3 SHL PUSH1 0x64 DUP3 ADD MSTORE PUSH1 0x84 SWAP1 REVERT JUMPDEST POP DUP7 PUSH1 0x0 MSTORE PUSH1 0x1 PUSH1 0x20 MSTORE PUSH1 0x40 PUSH1 0x0 KECCAK256 CALLER PUSH1 0x0 MSTORE PUSH1 0x20 MSTORE PUSH2 0x15A9 PUSH1 0xFF PUSH1 0x40 PUSH1 0x0 KECCAK256 SLOAD AND SWAP1 POP PUSH2 0x15A0 JUMP JUMPDEST CALLVALUE PUSH2 0x342 JUMPI PUSH1 0x20 DUP1 PUSH1 0x3 NOT CALLDATASIZE ADD SLT PUSH2 0x342 JUMPI PUSH1 0x4 CALLDATALOAD PUSH1 0x0 MSTORE PUSH1 0x6 DUP2 MSTORE PUSH1 0x2 PUSH1 0x40 PUSH1 0x0 KECCAK256 ADD SWAP1 PUSH1 0x40 MLOAD DUP1 SWAP3 PUSH7 0x697066733A2F2F PUSH1 0xC8 SHL DUP4 DUP4 ADD MSTORE PUSH1 0x0 SWAP1 DUP1 SLOAD PUSH2 0x1828 DUP2 PUSH2 0x1A71 JUMP JUMPDEST SWAP2 PUSH1 0x1 SWAP2 DUP1 DUP4 AND SWAP1 DUP2 ISZERO PUSH2 0x18C9 JUMPI POP PUSH1 0x1 EQ PUSH2 0x1880 JUMPI JUMPDEST POP POP POP PUSH2 0x186C SWAP2 DUP2 PUSH14 0x17B6B2BA30B230BA30973539B7B7 PUSH1 0x91 SHL PUSH1 0xE SWAP4 MSTORE SUB PUSH1 0x11 NOT DUP2 ADD DUP6 MSTORE ADD DUP4 PUSH2 0x1AC6 JUMP JUMPDEST PUSH2 0x1420 PUSH1 0x40 MLOAD SWAP3 DUP3 DUP5 SWAP4 DUP5 MSTORE DUP4 ADD SWAP1 PUSH2 0x1B8D JUMP JUMPDEST SWAP1 SWAP2 SWAP4 SWAP3 POP PUSH1 0x0 MSTORE DUP4 PUSH1 0x0 KECCAK256 SWAP1 DUP5 PUSH1 0x0 SWAP3 JUMPDEST DUP6 DUP5 LT PUSH2 0x18B1 JUMPI POP POP POP POP DUP1 PUSH1 0x27 PUSH2 0x186C SWAP4 PUSH1 0xE SWAP4 ADD ADD SWAP2 DUP2 SWAP4 PUSH2 0x183F JUMP JUMPDEST DUP1 SLOAD DUP9 DUP6 ADD PUSH1 0x27 ADD MSTORE DUP8 SWAP5 POP SWAP3 ADD SWAP2 DUP6 SWAP1 DUP3 ADD PUSH2 0x1892 JUMP JUMPDEST SWAP1 POP PUSH1 0xE SWAP5 POP PUSH1 0x27 SWAP3 POP PUSH2 0x186C SWAP6 SWAP4 SWAP2 POP PUSH1 0xFF NOT AND DUP3 DUP5 ADD MSTORE DUP1 ISZERO ISZERO MUL DUP3 ADD ADD SWAP2 DUP2 SWAP4 PUSH2 0x183F JUMP JUMPDEST CALLVALUE PUSH2 0x342 JUMPI PUSH1 0x20 CALLDATASIZE PUSH1 0x3 NOT ADD SLT PUSH2 0x342 JUMPI PUSH1 0x4 CALLDATALOAD PUSH1 0x0 MSTORE PUSH1 0x6 PUSH1 0x20 MSTORE PUSH2 0x1965 PUSH1 0x40 PUSH1 0x0 KECCAK256 PUSH2 0x191E DUP2 PUSH2 0x1AE7 JUMP JUMPDEST SWAP1 PUSH1 0x1 DUP2 ADD SLOAD PUSH1 0xFF PUSH2 0x1986 PUSH2 0x1935 PUSH1 0x2 DUP6 ADD PUSH2 0x1AE7 JUMP JUMPDEST SWAP3 PUSH2 0x1978 PUSH2 0x1945 PUSH1 0x3 DUP8 ADD PUSH2 0x1AE7 JUMP JUMPDEST SWAP2 PUSH1 0x5 PUSH1 0x4 DUP9 ADD SLOAD SWAP8 ADD SLOAD SWAP6 PUSH1 0x40 MLOAD SWAP10 DUP11 SWAP10 PUSH1 0xE0 DUP12 MSTORE PUSH1 0xE0 DUP12 ADD SWAP1 PUSH2 0x1B8D JUMP JUMPDEST SWAP2 PUSH1 0x20 DUP11 ADD MSTORE DUP9 DUP3 SUB PUSH1 0x40 DUP11 ADD MSTORE PUSH2 0x1B8D JUMP JUMPDEST SWAP1 DUP7 DUP3 SUB PUSH1 0x60 DUP9 ADD MSTORE PUSH2 0x1B8D JUMP JUMPDEST SWAP3 PUSH1 0x1 DUP1 PUSH1 0xA0 SHL SUB DUP2 AND PUSH1 0x80 DUP7 ADD MSTORE PUSH1 0xA0 SHR AND ISZERO ISZERO PUSH1 0xA0 DUP5 ADD MSTORE PUSH1 0xC0 DUP4 ADD MSTORE SUB SWAP1 RETURN JUMPDEST CALLVALUE PUSH2 0x342 JUMPI PUSH1 0x20 CALLDATASIZE PUSH1 0x3 NOT ADD SLT PUSH2 0x342 JUMPI PUSH1 0x4 CALLDATALOAD PUSH4 0xFFFFFFFF PUSH1 0xE0 SHL DUP2 AND DUP1 SWAP2 SUB PUSH2 0x342 JUMPI PUSH1 0x20 SWAP1 PUSH4 0x6CDB3D13 PUSH1 0xE1 SHL DUP2 EQ SWAP1 DUP2 ISZERO PUSH2 0x1A05 JUMPI JUMPDEST DUP2 ISZERO PUSH2 0x19F4 JUMPI POP PUSH1 0x40 MLOAD SWAP1 ISZERO ISZERO DUP2 MSTORE RETURN JUMPDEST PUSH4 0x1FFC9A7 PUSH1 0xE0 SHL EQ SWAP1 POP DUP3 PUSH2 0x14CF JUMP JUMPDEST PUSH4 0x3A24D07 PUSH1 0xE2 SHL DUP2 EQ SWAP2 POP PUSH2 0x19E3 JUMP JUMPDEST PUSH1 0x4 CALLDATALOAD SWAP1 PUSH1 0x1 PUSH1 0x1 PUSH1 0xA0 SHL SUB DUP3 AND DUP3 SUB PUSH2 0x342 JUMPI JUMP JUMPDEST PUSH1 0x24 CALLDATALOAD SWAP1 PUSH1 0x1 PUSH1 0x1 PUSH1 0xA0 SHL SUB DUP3 AND DUP3 SUB PUSH2 0x342 JUMPI JUMP JUMPDEST CALLVALUE PUSH2 0x342 JUMPI PUSH1 0x40 CALLDATASIZE PUSH1 0x3 NOT ADD SLT PUSH2 0x342 JUMPI PUSH1 0x20 PUSH2 0x1A69 PUSH2 0x1A60 PUSH2 0x1A16 JUMP JUMPDEST PUSH1 0x24 CALLDATALOAD SWAP1 PUSH2 0x1D30 JUMP JUMPDEST PUSH1 0x40 MLOAD SWAP1 DUP2 MSTORE RETURN JUMPDEST SWAP1 PUSH1 0x1 DUP3 DUP2 SHR SWAP3 AND DUP1 ISZERO PUSH2 0x1AA1 JUMPI JUMPDEST PUSH1 0x20 DUP4 LT EQ PUSH2 0x1A8B JUMPI JUMP JUMPDEST PUSH4 0x4E487B71 PUSH1 0xE0 SHL PUSH1 0x0 MSTORE PUSH1 0x22 PUSH1 0x4 MSTORE PUSH1 0x24 PUSH1 0x0 REVERT JUMPDEST SWAP2 PUSH1 0x7F AND SWAP2 PUSH2 0x1A80 JUMP JUMPDEST PUSH1 0x20 DUP2 ADD SWAP1 DUP2 LT PUSH1 0x1 PUSH1 0x1 PUSH1 0x40 SHL SUB DUP3 GT OR PUSH2 0xE5F JUMPI PUSH1 0x40 MSTORE JUMP JUMPDEST SWAP1 PUSH1 0x1F DUP1 NOT SWAP2 ADD AND DUP2 ADD SWAP1 DUP2 LT PUSH1 0x1 PUSH1 0x1 PUSH1 0x40 SHL SUB DUP3 GT OR PUSH2 0xE5F JUMPI PUSH1 0x40 MSTORE JUMP JUMPDEST SWAP1 PUSH1 0x40 MLOAD SWAP2 DUP3 PUSH1 0x0 DUP3 SLOAD SWAP3 PUSH2 0x1AFB DUP5 PUSH2 0x1A71 JUMP JUMPDEST SWAP1 DUP2 DUP5 MSTORE PUSH1 0x1 SWAP5 DUP6 DUP2 AND SWAP1 DUP2 PUSH1 0x0 EQ PUSH2 0x1B6A JUMPI POP PUSH1 0x1 EQ PUSH2 0x1B27 JUMPI JUMPDEST POP POP PUSH2 0x1B25 SWAP3 POP SUB DUP4 PUSH2 0x1AC6 JUMP JUMPDEST JUMP JUMPDEST SWAP1 SWAP4 SWAP2 POP PUSH1 0x0 MSTORE PUSH1 0x20 SWAP1 DUP2 PUSH1 0x0 KECCAK256 SWAP4 PUSH1 0x0 SWAP2 JUMPDEST DUP2 DUP4 LT PUSH2 0x1B52 JUMPI POP POP PUSH2 0x1B25 SWAP4 POP DUP3 ADD ADD CODESIZE DUP1 PUSH2 0x1B17 JUMP JUMPDEST DUP6 SLOAD DUP9 DUP5 ADD DUP6 ADD MSTORE SWAP5 DUP6 ADD SWAP5 DUP8 SWAP5 POP SWAP2 DUP4 ADD SWAP2 PUSH2 0x1B3A JUMP JUMPDEST SWAP2 POP POP PUSH2 0x1B25 SWAP5 POP PUSH1 0x20 SWAP3 POP PUSH1 0xFF NOT AND DUP3 DUP5 ADD MSTORE ISZERO ISZERO PUSH1 0x5 SHL DUP3 ADD ADD CODESIZE DUP1 PUSH2 0x1B17 JUMP JUMPDEST SWAP2 SWAP1 DUP3 MLOAD SWAP3 DUP4 DUP3 MSTORE PUSH1 0x0 JUMPDEST DUP5 DUP2 LT PUSH2 0x1BB9 JUMPI POP POP DUP3 PUSH1 0x0 PUSH1 0x20 DUP1 SWAP5 SWAP6 DUP5 ADD ADD MSTORE PUSH1 0x1F DUP1 NOT SWAP2 ADD AND ADD ADD SWAP1 JUMP JUMPDEST PUSH1 0x20 DUP2 DUP4 ADD DUP2 ADD MLOAD DUP5 DUP4 ADD DUP3 ADD MSTORE ADD PUSH2 0x1B98 JUMP JUMPDEST PUSH1 0x1 PUSH1 0x1 PUSH1 0x40 SHL SUB DUP2 GT PUSH2 0xE5F JUMPI PUSH1 0x5 SHL PUSH1 0x20 ADD SWAP1 JUMP JUMPDEST DUP2 PUSH1 0x1F DUP3 ADD SLT ISZERO PUSH2 0x342 JUMPI DUP1 CALLDATALOAD SWAP2 PUSH2 0x1BFB DUP4 PUSH2 0x1BCD JUMP JUMPDEST SWAP3 PUSH2 0x1C09 PUSH1 0x40 MLOAD SWAP5 DUP6 PUSH2 0x1AC6 JUMP JUMPDEST DUP1 DUP5 MSTORE PUSH1 0x20 SWAP3 DUP4 DUP1 DUP7 ADD SWAP3 PUSH1 0x5 SHL DUP3 ADD ADD SWAP3 DUP4 GT PUSH2 0x342 JUMPI DUP4 ADD SWAP1 JUMPDEST DUP3 DUP3 LT PUSH2 0x1C33 JUMPI POP POP POP POP SWAP1 JUMP JUMPDEST DUP2 CALLDATALOAD DUP2 MSTORE SWAP1 DUP4 ADD SWAP1 DUP4 ADD PUSH2 0x1C25 JUMP JUMPDEST PUSH1 0x1 PUSH1 0x1 PUSH1 0x40 SHL SUB DUP2 GT PUSH2 0xE5F JUMPI PUSH1 0x1F ADD PUSH1 0x1F NOT AND PUSH1 0x20 ADD SWAP1 JUMP JUMPDEST DUP2 PUSH1 0x1F DUP3 ADD SLT ISZERO PUSH2 0x342 JUMPI DUP1 CALLDATALOAD SWAP1 PUSH2 0x1C74 DUP3 PUSH2 0x1C42 JUMP JUMPDEST SWAP3 PUSH2 0x1C82 PUSH1 0x40 MLOAD SWAP5 DUP6 PUSH2 0x1AC6 JUMP JUMPDEST DUP3 DUP5 MSTORE PUSH1 0x20 DUP4 DUP4 ADD ADD GT PUSH2 0x342 JUMPI DUP2 PUSH1 0x0 SWAP3 PUSH1 0x20 DUP1 SWAP4 ADD DUP4 DUP7 ADD CALLDATACOPY DUP4 ADD ADD MSTORE SWAP1 JUMP JUMPDEST SWAP1 DUP2 MLOAD DUP1 DUP3 MSTORE PUSH1 0x20 DUP1 DUP1 SWAP4 ADD SWAP4 ADD SWAP2 PUSH1 0x0 JUMPDEST DUP3 DUP2 LT PUSH2 0x1CC4 JUMPI POP POP POP POP SWAP1 JUMP JUMPDEST DUP4 MLOAD DUP6 MSTORE SWAP4 DUP2 ADD SWAP4 SWAP3 DUP2 ADD SWAP3 PUSH1 0x1 ADD PUSH2 0x1CB6 JUMP JUMPDEST PUSH1 0x3 SLOAD PUSH1 0x1 PUSH1 0x1 PUSH1 0xA0 SHL SUB AND CALLER SUB PUSH2 0x1CEC JUMPI JUMP JUMPDEST PUSH1 0x64 PUSH1 0x40 MLOAD PUSH3 0x461BCD PUSH1 0xE5 SHL DUP2 MSTORE PUSH1 0x20 PUSH1 0x4 DUP3 ADD MSTORE PUSH1 0x20 PUSH1 0x24 DUP3 ADD MSTORE PUSH32 0x4F776E61626C653A2063616C6C6572206973206E6F7420746865206F776E6572 PUSH1 0x44 DUP3 ADD MSTORE REVERT JUMPDEST PUSH1 0x1 PUSH1 0x1 PUSH1 0xA0 SHL SUB AND SWAP1 DUP2 ISZERO PUSH2 0x1D5D JUMPI PUSH1 0x0 MSTORE PUSH1 0x0 PUSH1 0x20 MSTORE PUSH1 0x40 PUSH1 0x0 KECCAK256 SWAP1 PUSH1 0x0 MSTORE PUSH1 0x20 MSTORE PUSH1 0x40 PUSH1 0x0 KECCAK256 SLOAD SWAP1 JUMP JUMPDEST PUSH1 0x40 MLOAD PUSH3 0x461BCD PUSH1 0xE5 SHL DUP2 MSTORE PUSH1 0x20 PUSH1 0x4 DUP3 ADD MSTORE PUSH1 0x2A PUSH1 0x24 DUP3 ADD MSTORE PUSH32 0x455243313135353A2061646472657373207A65726F206973206E6F7420612076 PUSH1 0x44 DUP3 ADD MSTORE PUSH10 0x30B634B21037BBB732B9 PUSH1 0xB1 SHL PUSH1 0x64 DUP3 ADD MSTORE PUSH1 0x84 SWAP1 REVERT JUMPDEST PUSH1 0x0 NOT DUP2 EQ PUSH2 0x1DC4 JUMPI PUSH1 0x1 ADD SWAP1 JUMP JUMPDEST PUSH4 0x4E487B71 PUSH1 0xE0 SHL PUSH1 0x0 MSTORE PUSH1 0x11 PUSH1 0x4 MSTORE PUSH1 0x24 PUSH1 0x0 REVERT JUMPDEST DUP1 MLOAD DUP3 LT ISZERO PUSH2 0x1DEE JUMPI PUSH1 0x20 SWAP2 PUSH1 0x5 SHL ADD ADD SWAP1 JUMP JUMPDEST PUSH4 0x4E487B71 PUSH1 0xE0 SHL PUSH1 0x0 MSTORE PUSH1 0x32 PUSH1 0x4 MSTORE PUSH1 0x24 PUSH1 0x0 REVERT JUMPDEST ISZERO PUSH2 0x1E0B JUMPI JUMP JUMPDEST PUSH1 0x40 MLOAD PUSH3 0x461BCD PUSH1 0xE5 SHL DUP2 MSTORE PUSH1 0x20 PUSH1 0x4 DUP3 ADD MSTORE PUSH1 0x2E PUSH1 0x24 DUP3 ADD MSTORE PUSH32 0x455243313135353A2063616C6C6572206973206E6F7420746F6B656E206F776E PUSH1 0x44 DUP3 ADD MSTORE PUSH14 0x195C881BDC88185C1C1C9BDD9959 PUSH1 0x92 SHL PUSH1 0x64 DUP3 ADD MSTORE PUSH1 0x84 SWAP1 REVERT JUMPDEST SWAP1 SWAP4 SWAP2 SWAP3 PUSH1 0x1 PUSH1 0x1 PUSH1 0xA0 SHL SUB SWAP2 DUP3 AND SWAP3 SWAP1 SWAP2 CALLER DUP5 EQ DUP1 ISZERO PUSH2 0x205B JUMPI JUMPDEST PUSH2 0x1E8C SWAP1 PUSH2 0x1E04 JUMP JUMPDEST DUP6 AND PUSH2 0x1E99 DUP2 ISZERO ISZERO PUSH2 0x2084 JUMP JUMPDEST PUSH2 0x1EA2 DUP6 PUSH2 0x2297 JUMP JUMPDEST POP PUSH2 0x1EAC DUP4 PUSH2 0x2297 JUMP JUMPDEST POP PUSH1 0x0 SWAP3 DUP6 DUP5 MSTORE PUSH1 0x20 SWAP6 DUP5 DUP8 MSTORE PUSH1 0x40 SWAP8 DUP9 DUP7 KECCAK256 DUP8 DUP8 MSTORE DUP9 MSTORE DUP3 DUP10 DUP8 KECCAK256 SLOAD PUSH2 0x1ED5 DUP3 DUP3 LT ISZERO PUSH2 0x20DE JUMP JUMPDEST DUP4 DUP9 MSTORE DUP8 DUP11 MSTORE DUP11 DUP9 KECCAK256 DUP10 DUP10 MSTORE DUP11 MSTORE SUB DUP10 DUP8 KECCAK256 SSTORE DUP2 DUP7 MSTORE DUP6 DUP9 MSTORE DUP9 DUP7 KECCAK256 DUP5 DUP8 MSTORE DUP9 MSTORE DUP9 DUP7 KECCAK256 PUSH2 0x1F04 DUP5 DUP3 SLOAD PUSH2 0x213D JUMP JUMPDEST SWAP1 SSTORE DUP4 DUP8 DUP11 MLOAD DUP5 DUP2 MSTORE DUP6 DUP12 DUP3 ADD MSTORE PUSH32 0xC3D58168C5AE7397731D063D5BBF3D657854427343F4C083240F7AACAA2D0F62 DUP13 CALLER SWAP3 LOG4 EXTCODESIZE PUSH2 0x1F47 JUMPI JUMPDEST POP POP POP POP POP POP POP POP JUMP JUMPDEST SWAP2 DUP5 SWAP4 SWAP2 PUSH2 0x1F8F SWAP6 DUP9 SWAP10 SWAP11 SWAP9 SWAP5 DUP12 MLOAD SWAP8 DUP9 SWAP6 DUP7 SWAP5 DUP6 SWAP4 PUSH4 0xF23A6E61 PUSH1 0xE0 SHL SWAP13 DUP14 DUP7 MSTORE CALLER PUSH1 0x4 DUP8 ADD MSTORE PUSH1 0x24 DUP7 ADD MSTORE PUSH1 0x44 DUP6 ADD MSTORE PUSH1 0x64 DUP5 ADD MSTORE PUSH1 0xA0 PUSH1 0x84 DUP5 ADD MSTORE PUSH1 0xA4 DUP4 ADD SWAP1 PUSH2 0x1B8D JUMP JUMPDEST SUB SWAP3 GAS CALL SWAP1 SWAP2 DUP2 PUSH2 0x203C JUMPI JUMPDEST POP PUSH2 0x2002 JUMPI POP POP POP PUSH2 0x1FAB PUSH2 0x21B3 JUMP JUMPDEST PUSH4 0x8C379A0 EQ PUSH2 0x1FCE JUMPI JUMPDEST POP MLOAD PUSH3 0x461BCD PUSH1 0xE5 SHL DUP2 MSTORE DUP1 PUSH2 0xC5A PUSH1 0x4 DUP3 ADD PUSH2 0x2242 JUMP JUMPDEST PUSH2 0x1FD6 PUSH2 0x21D1 JUMP JUMPDEST SWAP1 DUP2 PUSH2 0x1FE2 JUMPI POP PUSH2 0x1FB6 JUMP JUMPDEST PUSH2 0xC5A DUP4 MLOAD SWAP3 DUP4 SWAP3 PUSH3 0x461BCD PUSH1 0xE5 SHL DUP5 MSTORE PUSH1 0x4 DUP5 ADD MSTORE PUSH1 0x24 DUP4 ADD SWAP1 PUSH2 0x1B8D JUMP JUMPDEST SWAP2 SWAP4 SWAP3 POP PUSH1 0x1 PUSH1 0x1 PUSH1 0xE0 SHL SUB NOT SWAP1 SWAP2 AND SUB PUSH2 0x2025 JUMPI POP CODESIZE DUP1 DUP1 DUP1 DUP1 DUP1 DUP1 DUP1 PUSH2 0x1F3D JUMP JUMPDEST MLOAD PUSH3 0x461BCD PUSH1 0xE5 SHL DUP2 MSTORE DUP1 PUSH2 0xC5A PUSH1 0x4 DUP3 ADD PUSH2 0x216A JUMP JUMPDEST PUSH2 0x2054 SWAP2 SWAP3 POP DUP6 RETURNDATASIZE DUP8 GT PUSH2 0xCED JUMPI PUSH2 0xCDE DUP2 DUP4 PUSH2 0x1AC6 JUMP JUMPDEST SWAP1 CODESIZE PUSH2 0x1F9B JUMP JUMPDEST POP DUP4 PUSH1 0x0 MSTORE PUSH1 0x1 PUSH1 0x20 MSTORE PUSH1 0x40 PUSH1 0x0 KECCAK256 CALLER PUSH1 0x0 MSTORE PUSH1 0x20 MSTORE PUSH2 0x1E8C PUSH1 0xFF PUSH1 0x40 PUSH1 0x0 KECCAK256 SLOAD AND SWAP1 POP PUSH2 0x1E83 JUMP JUMPDEST ISZERO PUSH2 0x208B JUMPI JUMP JUMPDEST PUSH1 0x40 MLOAD PUSH3 0x461BCD PUSH1 0xE5 SHL DUP2 MSTORE PUSH1 0x20 PUSH1 0x4 DUP3 ADD MSTORE PUSH1 0x25 PUSH1 0x24 DUP3 ADD MSTORE PUSH32 0x455243313135353A207472616E7366657220746F20746865207A65726F206164 PUSH1 0x44 DUP3 ADD MSTORE PUSH5 0x6472657373 PUSH1 0xD8 SHL PUSH1 0x64 DUP3 ADD MSTORE PUSH1 0x84 SWAP1 REVERT JUMPDEST ISZERO PUSH2 0x20E5 JUMPI JUMP JUMPDEST PUSH1 0x40 MLOAD PUSH3 0x461BCD PUSH1 0xE5 SHL DUP2 MSTORE PUSH1 0x20 PUSH1 0x4 DUP3 ADD MSTORE PUSH1 0x2A PUSH1 0x24 DUP3 ADD MSTORE PUSH32 0x455243313135353A20696E73756666696369656E742062616C616E636520666F PUSH1 0x44 DUP3 ADD MSTORE PUSH10 0x39103A3930B739B332B9 PUSH1 0xB1 SHL PUSH1 0x64 DUP3 ADD MSTORE PUSH1 0x84 SWAP1 REVERT JUMPDEST SWAP2 SWAP1 DUP3 ADD DUP1 SWAP3 GT PUSH2 0x1DC4 JUMPI JUMP JUMPDEST SWAP1 DUP2 PUSH1 0x20 SWAP2 SUB SLT PUSH2 0x342 JUMPI MLOAD PUSH1 0x1 PUSH1 0x1 PUSH1 0xE0 SHL SUB NOT DUP2 AND DUP2 SUB PUSH2 0x342 JUMPI SWAP1 JUMP JUMPDEST PUSH1 0x80 SWAP1 PUSH1 0x20 DUP2 MSTORE PUSH1 0x28 PUSH1 0x20 DUP3 ADD MSTORE PUSH32 0x455243313135353A204552433131353552656365697665722072656A65637465 PUSH1 0x40 DUP3 ADD MSTORE PUSH8 0x6420746F6B656E73 PUSH1 0xC0 SHL PUSH1 0x60 DUP3 ADD MSTORE ADD SWAP1 JUMP JUMPDEST PUSH1 0x0 SWAP1 PUSH1 0x3 RETURNDATASIZE GT PUSH2 0x21C0 JUMPI JUMP JUMPDEST SWAP1 POP PUSH1 0x4 PUSH1 0x0 DUP1 RETURNDATACOPY PUSH1 0x0 MLOAD PUSH1 0xE0 SHR SWAP1 JUMP JUMPDEST PUSH1 0x0 PUSH1 0x44 RETURNDATASIZE LT PUSH2 0x222E JUMPI PUSH1 0x40 MLOAD PUSH1 0x3 NOT SWAP2 RETURNDATASIZE DUP4 ADD PUSH1 0x4 DUP4 RETURNDATACOPY DUP2 MLOAD PUSH1 0x1 PUSH1 0x1 PUSH1 0x40 SHL SUB SWAP2 DUP3 DUP3 GT RETURNDATASIZE PUSH1 0x24 DUP5 ADD GT OR PUSH2 0x2231 JUMPI DUP2 DUP5 ADD SWAP5 DUP6 MLOAD SWAP4 DUP5 GT PUSH2 0x2239 JUMPI RETURNDATASIZE DUP6 ADD ADD PUSH1 0x20 DUP5 DUP8 ADD ADD GT PUSH2 0x2231 JUMPI POP PUSH2 0x222E SWAP3 SWAP2 ADD PUSH1 0x20 ADD SWAP1 PUSH2 0x1AC6 JUMP JUMPDEST SWAP1 JUMP JUMPDEST SWAP5 SWAP4 POP POP POP POP JUMP JUMPDEST POP SWAP5 SWAP4 POP POP POP POP JUMP JUMPDEST PUSH1 0x80 SWAP1 PUSH1 0x20 DUP2 MSTORE PUSH1 0x34 PUSH1 0x20 DUP3 ADD MSTORE PUSH32 0x455243313135353A207472616E7366657220746F206E6F6E2D45524331313535 PUSH1 0x40 DUP3 ADD MSTORE PUSH20 0x2932B1B2B4BB32B91034B6B83632B6B2B73A32B9 PUSH1 0x61 SHL PUSH1 0x60 DUP3 ADD MSTORE ADD SWAP1 JUMP JUMPDEST PUSH1 0x40 MLOAD SWAP1 PUSH1 0x40 DUP3 ADD DUP3 DUP2 LT PUSH1 0x1 PUSH1 0x1 PUSH1 0x40 SHL SUB DUP3 GT OR PUSH2 0xE5F JUMPI PUSH1 0x40 MSTORE PUSH1 0x1 DUP3 MSTORE PUSH1 0x20 DUP3 ADD PUSH1 0x20 CALLDATASIZE DUP3 CALLDATACOPY DUP3 MLOAD ISZERO PUSH2 0x1DEE JUMPI MSTORE SWAP1 JUMP JUMPDEST RETURNDATASIZE ISZERO PUSH2 0x22F7 JUMPI RETURNDATASIZE SWAP1 PUSH2 0x22DD DUP3 PUSH2 0x1C42 JUMP JUMPDEST SWAP2 PUSH2 0x22EB PUSH1 0x40 MLOAD SWAP4 DUP5 PUSH2 0x1AC6 JUMP JUMPDEST DUP3 MSTORE RETURNDATASIZE PUSH1 0x0 PUSH1 0x20 DUP5 ADD RETURNDATACOPY JUMP JUMPDEST PUSH1 0x60 SWAP1 JUMP INVALID LOG2 PUSH5 0x6970667358 0x22 SLT KECCAK256 ADDMOD 0x28 BASEFEE PUSH18 0x6654332B8753D6235396EE1F7241941D100 ADD PUSH10 0x5AB24C2C8613C1CF6473 PUSH16 0x6C634300081400330000000000000000 "},"methodIdentifiers":{"balanceOf(address,uint256)":"00fdd58e","balanceOfBatch(address[],uint256[])":"4e1273f4","burn(address,uint256,uint256)":"f5298aca","createEvent(string,uint256,string,string,uint256,uint256)":"acb98bf5","deactivateEvent(uint256)":"957a632e","events(uint256)":"0b791430","getEventDetails(uint256)":"ec38d5a0","isApprovedForAll(address,address)":"e985e9c5","isValidEvent(uint256)":"49287c0b","owner()":"8da5cb5b","purchaseTicket(uint256,uint256)":"bdbbb0cb","renounceOwnership()":"715018a6","safeBatchTransferFrom(address,address,uint256[],uint256[],bytes)":"2eb2c2d6","safeTransferFrom(address,address,uint256,uint256,bytes)":"f242432a","setApprovalForAll(address,bool)":"a22cb465","setTicketNFTContract(address)":"9cb3c706","supportsInterface(bytes4)":"01ffc9a7","ticketBalanceOf(address,uint256)":"8f118fe3","ticketNFTContract()":"30c7b45f","transferOwnership(address)":"f2fde38b","uri(uint256)":"0e89341c"}},"storageLayout":{"storage":[{"astId":138,"contract":"contracts/EventFactory.sol:EventFactory","label":"_balances","offset":0,"slot":"0","type":"t_mapping(t_uint256,t_mapping(t_address,t_uint256))"},{"astId":144,"contract":"contracts/EventFactory.sol:EventFactory","label":"_operatorApprovals","offset":0,"slot":"1","type":"t_mapping(t_address,t_mapping(t_address,t_bool))"},{"astId":146,"contract":"contracts/EventFactory.sol:EventFactory","label":"_uri","offset":0,"slot":"2","type":"t_string_storage"},{"astId":7,"contract":"contracts/EventFactory.sol:EventFactory","label":"_owner","offset":0,"slot":"3","type":"t_address"},{"astId":4734,"contract":"contracts/EventFactory.sol:EventFactory","label":"_eventIds","offset":0,"slot":"4","type":"t_struct(Counter)3413_storage"},{"astId":4736,"contract":"contracts/EventFactory.sol:EventFactory","label":"ticketNFTContract","offset":0,"slot":"5","type":"t_address"},{"astId":4756,"contract":"contracts/EventFactory.sol:EventFactory","label":"events","offset":0,"slot":"6","type":"t_mapping(t_uint256,t_struct(Event)4751_storage)"}],"types":{"t_address":{"encoding":"inplace","label":"address","numberOfBytes":"20"},"t_bool":{"encoding":"inplace","label":"bool","numberOfBytes":"1"},"t_mapping(t_address,t_bool)":{"encoding":"mapping","key":"t_address","label":"mapping(address => bool)","numberOfBytes":"32","value":"t_bool"},"t_mapping(t_address,t_mapping(t_address,t_bool))":{"encoding":"mapping","key":"t_address","label":"mapping(address => mapping(address => bool))","numberOfBytes":"32","value":"t_mapping(t_address,t_bool)"},"t_mapping(t_address,t_uint256)":{"encoding":"mapping","key":"t_address","label":"mapping(address => uint256)","numberOfBytes":"32","value":"t_uint256"},"t_mapping(t_uint256,t_mapping(t_address,t_uint256))":{"encoding":"mapping","key":"t_uint256","label":"mapping(uint256 => mapping(address => uint256))","numberOfBytes":"32","value":"t_mapping(t_address,t_uint256)"},"t_mapping(t_uint256,t_struct(Event)4751_storage)":{"encoding":"mapping","key":"t_uint256","label":"mapping(uint256 => struct EventFactory.Event)","numberOfBytes":"32","value":"t_struct(Event)4751_storage"},"t_string_storage":{"encoding":"bytes","label":"string","numberOfBytes":"32"},"t_struct(Counter)3413_storage":{"encoding":"inplace","label":"struct Counters.Counter","members":[{"astId":3412,"contract":"contracts/EventFactory.sol:EventFactory","label":"_value","offset":0,"slot":"0","type":"t_uint256"}],"numberOfBytes":"32"},"t_struct(Event)4751_storage":{"encoding":"inplace","label":"struct EventFactory.Event","members":[{"astId":4738,"contract":"contracts/EventFactory.sol:EventFactory","label":"name","offset":0,"slot":"0","type":"t_string_storage"},{"astId":4740,"contract":"contracts/EventFactory.sol:EventFactory","label":"date","offset":0,"slot":"1","type":"t_uint256"},{"astId":4742,"contract":"contracts/EventFactory.sol:EventFactory","label":"ipfsCID","offset":0,"slot":"2","type":"t_string_storage"},{"astId":4744,"contract":"contracts/EventFactory.sol:EventFactory","label":"imageCID","offset":0,"slot":"3","type":"t_string_storage"},{"astId":4746,"contract":"contracts/EventFactory.sol:EventFactory","label":"owner","offset":0,"slot":"4","type":"t_address"},{"astId":4748,"contract":"contracts/EventFactory.sol:EventFactory","label":"active","offset":20,"slot":"4","type":"t_bool"},{"astId":4750,"contract":"contracts/EventFactory.sol:EventFactory","label":"pricePerTicket","offset":0,"slot":"5","type":"t_uint256"}],"numberOfBytes":"192"},"t_uint256":{"encoding":"inplace","label":"uint256","numberOfBytes":"32"}}}}}}