{"contracts/POAPDistributor.sol":{"POAPDistributor":{"abi":[{"inputs":[{"internalType":"address","name":"ticketAddress","type":"address"}],"stateMutability":"nonpayable","type":"constructor"},{"anonymous":false,"inputs":[{"indexed":true,"internalType":"address","name":"account","type":"address"},{"indexed":true,"internalType":"address","name":"operator","type":"address"},{"indexed":false,"internalType":"bool","name":"approved","type":"bool"}],"name":"ApprovalForAll","type":"event"},{"anonymous":false,"inputs":[{"indexed":true,"internalType":"address","name":"previousOwner","type":"address"},{"indexed":true,"internalType":"address","name":"newOwner","type":"address"}],"name":"OwnershipTransferred","type":"event"},{"anonymous":false,"inputs":[{"indexed":true,"internalType":"uint256","name":"eventId","type":"uint256"},{"indexed":true,"internalType":"address","name":"attendee","type":"address"}],"name":"POAPMinted","type":"event"},{"anonymous":false,"inputs":[{"indexed":true,"internalType":"address","name":"operator","type":"address"},{"indexed":true,"internalType":"address","name":"from","type":"address"},{"indexed":true,"internalType":"address","name":"to","type":"address"},{"indexed":false,"internalType":"uint256[]","name":"ids","type":"uint256[]"},{"indexed":false,"internalType":"uint256[]","name":"values","type":"uint256[]"}],"name":"TransferBatch","type":"event"},{"anonymous":false,"inputs":[{"indexed":true,"internalType":"address","name":"operator","type":"address"},{"indexed":true,"internalType":"address","name":"from","type":"address"},{"indexed":true,"internalType":"address","name":"to","type":"address"},{"indexed":false,"internalType":"uint256","name":"id","type":"uint256"},{"indexed":false,"internalType":"uint256","name":"value","type":"uint256"}],"name":"TransferSingle","type":"event"},{"anonymous":false,"inputs":[{"indexed":false,"internalType":"string","name":"value","type":"string"},{"indexed":true,"internalType":"uint256","name":"id","type":"uint256"}],"name":"URI","type":"event"},{"inputs":[{"internalType":"address","name":"account","type":"address"},{"internalType":"uint256","name":"id","type":"uint256"}],"name":"balanceOf","outputs":[{"internalType":"uint256","name":"","type":"uint256"}],"stateMutability":"view","type":"function"},{"inputs":[{"internalType":"address[]","name":"accounts","type":"address[]"},{"internalType":"uint256[]","name":"ids","type":"uint256[]"}],"name":"balanceOfBatch","outputs":[{"internalType":"uint256[]","name":"","type":"uint256[]"}],"stateMutability":"view","type":"function"},{"inputs":[{"internalType":"uint256","name":"eventId","type":"uint256"}],"name":"claimPOAP","outputs":[],"stateMutability":"nonpayable","type":"function"},{"inputs":[{"internalType":"uint256","name":"eventId","type":"uint256"},{"internalType":"address","name":"attendee","type":"address"}],"name":"hasClaimed","outputs":[{"internalType":"bool","name":"","type":"bool"}],"stateMutability":"view","type":"function"},{"inputs":[{"internalType":"address","name":"account","type":"address"},{"internalType":"address","name":"operator","type":"address"}],"name":"isApprovedForAll","outputs":[{"internalType":"bool","name":"","type":"bool"}],"stateMutability":"view","type":"function"},{"inputs":[],"name":"owner","outputs":[{"internalType":"address","name":"","type":"address"}],"stateMutability":"view","type":"function"},{"inputs":[],"name":"renounceOwnership","outputs":[],"stateMutability":"nonpayable","type":"function"},{"inputs":[{"internalType":"address","name":"from","type":"address"},{"internalType":"address","name":"to","type":"address"},{"internalType":"uint256[]","name":"ids","type":"uint256[]"},{"internalType":"uint256[]","name":"amounts","type":"uint256[]"},{"internalType":"bytes","name":"data","type":"bytes"}],"name":"safeBatchTransferFrom","outputs":[],"stateMutability":"nonpayable","type":"function"},{"inputs":[{"internalType":"address","name":"from","type":"address"},{"internalType":"address","name":"to","type":"address"},{"internalType":"uint256","name":"id","type":"uint256"},{"internalType":"uint256","name":"amount","type":"uint256"},{"internalType":"bytes","name":"data","type":"bytes"}],"name":"safeTransferFrom","outputs":[],"stateMutability":"nonpayable","type":"function"},{"inputs":[{"internalType":"address","name":"operator","type":"address"},{"internalType":"bool","name":"approved","type":"bool"}],"name":"setApprovalForAll","outputs":[],"stateMutability":"nonpayable","type":"function"},{"inputs":[{"internalType":"uint256","name":"eventId","type":"uint256"},{"internalType":"string","name":"cid","type":"string"}],"name":"setEventURI","outputs":[],"stateMutability":"nonpayable","type":"function"},{"inputs":[{"internalType":"bytes4","name":"interfaceId","type":"bytes4"}],"name":"supportsInterface","outputs":[{"internalType":"bool","name":"","type":"bool"}],"stateMutability":"view","type":"function"},{"inputs":[],"name":"ticketContract","outputs":[{"internalType":"contract TicketNFT","name":"","type":"address"}],"stateMutability":"view","type":"function"},{"inputs":[{"internalType":"address","name":"newOwner","type":"address"}],"name":"transferOwnership","outputs":[],"stateMutability":"nonpayable","type":"function"},{"inputs":[{"internalType":"uint256","name":"eventId","type":"uint256"}],"name":"uri","outputs":[{"internalType":"string","name":"","type":"string"}],"stateMutability":"view","type":"function"}],"evm":{"bytecode":{"linkReferences":{},"object":"6080346200019d576001600160401b0390601f62001b1738819003918201601f19168301918483118484101762000187578084926020946040528339810103126200019d57516001600160a01b0391828216918290036200019d576040516040810191818310908311176200018757602091604052600781520166697066733a2f2f60c81b81526002546001908181811c911680156200017c575b60208210146200016657601f81116200011a575b5050516001600160c81b031916600e17600255600380546001600160a01b03198082163390811790935560405194909291167f8be0079c531659141344cd1fd0a4f28419497f9722a3daafe3b4186f6b6457e0600080a360045416176004556119749081620001a38239f35b6002600052601f0160051c7f405787fa12a823e0f2b7631cc41b3ba8828b3321ca811111fa75cd3aa3bb5ace908101905b8181106200015a5750620000ae565b6000815582016200014b565b634e487b7160e01b600052602260045260246000fd5b90607f16906200009a565b634e487b7160e01b600052604160045260246000fd5b600080fdfe6040608081526004908136101561001557600080fd5b600091823560e01c8062fdd58e1461112357806301ffc9a7146110b65780630e89341c14610f4e57806316d35d7114610da45780632eb2c2d614610a895780634e1273f4146108e857806358a86e1d146108c1578063715018a614610861578063873f6f9e1461081b5780638da5cb5b146107f25780639365fc871461052b578063a22cb4651461044a578063e985e9c5146103f8578063f242432a146101935763f2fde38b146100c557600080fd5b3461018f57602036600319011261018f576100de611153565b906100e761132f565b6001600160a01b0391821692831561013d575050600354826bffffffffffffffffffffffff60a01b821617600355167f8be0079c531659141344cd1fd0a4f28419497f9722a3daafe3b4186f6b6457e08380a380f35b906020608492519162461bcd60e51b8352820152602660248201527f4f776e61626c653a206e6577206f776e657220697320746865207a65726f206160448201526564647265737360d01b6064820152fd5b8280fd5b503461018f5760a036600319011261018f576101ad611153565b916101b661116e565b92604435906064359060843567ffffffffffffffff81116103f4576101de90369087016112dd565b926001600160a01b039182169133831480156103d5575b6101fe90611468565b87169161020c8315156114cb565b610215826116dc565b5061021f846116dc565b50818952602097898952868a20828b52895284878b205461024282821015611525565b848c528b8b52888c20848d528b5203878b2055828a52898952868a20848b528952868a20610271868254611584565b905583828851858152878c8201527fc3d58168c5ae7397731d063d5bbf3d657854427343f4c083240f7aacaa2d0f628a3392a43b6102ad578880f35b918697989596949391868a946102f68a519788968795869463f23a6e6160e01b9c8d8752339087015260248601526044850152606484015260a0608484015260a48301906111a7565b03925af18391816103a6575b5061036b575050506103126115fa565b6308c379a01461033a575b5162461bcd60e51b815291508190610336908201611687565b0390fd5b610342611618565b8061034d575061031d565b610336915193849362461bcd60e51b855284015260248301906111a7565b9194506001600160e01b03199091160361038d57505038808080808080808880f35b5162461bcd60e51b8152915081906103369082016115b1565b6103c7919250873d89116103ce575b6103bf81836111fe565b810190611591565b9038610302565b503d6103b5565b5082895260016020908152868a20338b5290528589205460ff166101f5565b8780fd5b50503461044657806003193601126104465760ff81602093610418611153565b61042061116e565b6001600160a01b0391821683526001875283832091168252855220549151911615158152f35b5080fd5b50903461018f578060031936011261018f57610464611153565b9060243591821515809303610527576001600160a01b0316923384146104d35750338452600160205280842083855260205280842060ff1981541660ff8416179055519081527f17307eab39ab6107e8899845ad3d59bd9653f200f220920489ca2b5937696c3160203392a380f35b6020608492519162461bcd60e51b8352820152602960248201527f455243313135353a2073657474696e6720617070726f76616c20737461747573604482015268103337b91039b2b63360b91b6064820152fd5b8480fd5b50919034610446576020908160031936011261018f5783359182845260058152818420338552815260ff82852054166107be57610568833361173b565b156107855781519481860186811067ffffffffffffffff8211176107725783528486523315610727578394956105a06105bf956116dc565b5083516105ac816111cc565b6001958187809352853681830137611431565b5285875286835283872033885283528387208054908682018092116107145755835186815285848201528733917fc3d58168c5ae7397731d063d5bbf3d657854427343f4c083240f7aacaa2d0f62873392a4333b61065e575b505083855260058152818520903386525283209060ff1982541617905533907f5ddca7d5809a6830dda8f5547a130099be44f5e1f6ab4773cbe795c10c0f605e8380a380f35b83949195929693518781806106a063f23a6e6160e01b95868352338c84015289602484015288604484015287606484015260a0608484015260a48301906111a7565b038188335af18591816106f5575b506106be578787876103126115fa565b939692959194936001600160e01b031916036106dc57503880610618565b825162461bcd60e51b81529081906103369082016115b1565b61070d919250893d8b116103ce576103bf81836111fe565b90386106ae565b634e487b7160e01b895260118452602489fd5b915162461bcd60e51b815291820152602160248201527f455243313135353a206d696e7420746f20746865207a65726f206164647265736044820152607360f81b6064820152608490fd5b634e487b7160e01b865260418252602486fd5b8490606492519162461bcd60e51b835282015260146024820152734e6f7420612076616c696420617474656e64656560601b6044820152fd5b8490606492519162461bcd60e51b8352820152600f60248201526e105b1c9958591e4818db185a5b5959608a1b6044820152fd5b50503461044657816003193601126104465760035490516001600160a01b039091168152602090f35b503461018f578160031936011261018f578160209360ff9261083b61116e565b90358252600586528282206001600160a01b039091168252855220549151911615158152f35b83346108be57806003193601126108be5761087a61132f565b600380546001600160a01b0319811690915581906001600160a01b03167f8be0079c531659141344cd1fd0a4f28419497f9722a3daafe3b4186f6b6457e08280a380f35b80fd5b503461018f578260031936011261018f575490516001600160a01b03909116815260209150f35b503461018f578160031936011261018f57803567ffffffffffffffff808211610527573660238301121561052757818301359061092482611267565b92610931865194856111fe565b82845260209260248486019160051b83010191368311610a8557602401905b828210610a6257505050602435908111610a5e57610971903690850161127f565b928251845103610a0b575081519461098886611267565b95610995865197886111fe565b8087526109a4601f1991611267565b0136838801375b82518110156109f5576109f0906109e06001600160a01b036109cd8387611454565b51166109d98388611454565b5190611387565b6109ea8289611454565b5261140c565b6109ab565b845182815280610a07818501896112fb565b0390f35b60849185519162461bcd60e51b8352820152602960248201527f455243313135353a206163636f756e747320616e6420696473206c656e677468604482015268040dad2e6dac2e8c6d60bb1b6064820152fd5b8580fd5b81356001600160a01b0381168103610a81578152908401908401610950565b8980fd5b8880fd5b5082346108be576003199260a03685011261044657610aa6611153565b91610aaf61116e565b9467ffffffffffffffff93604435858111610da057610ad1903690880161127f565b60643586811161052757610ae8903690890161127f565b9560843590811161052757610b0090369089016112dd565b966001600160a01b03928316923384148015610d81575b610b2090611468565b8251885103610d2d57891693610b378515156114cb565b855b8351811015610bbb5780610b50610bb69286611454565b51610b5b828c611454565b5190808a526020908a82528b8b20898c528252828c8c8b8282205492610b8385851015611525565b858352828752822091528452038c8c20558a528981528a8a2090898b5252610baf8a8a20918254611584565b905561140c565b610b39565b50949897909692959784878a518b81527f4a39dc06d4c0dbc64b70af90fd698a233a518aa5d07e595d983b8c0526c8f7fb610bf88d8301886112fb565b91808303602082015280610c0d33948b6112fb565b0390a43b610c19578880f35b8798969751948593849363bc197c8160e01b98898652338c87015260248601526044850160a0905260a48501610c4e916112fb565b82858203016064860152610c61916112fb565b90838203016084840152610c74916111a7565b0381865a94602095f1839181610d0d575b50610ced57505050610c956115fa565b6308c379a014610cb9575b905162461bcd60e51b8152908190610336908201611687565b610cc1611618565b80610ccc5750610ca0565b610336906020935193849362461bcd60e51b855284015260248301906111a7565b9193916001600160e01b0319160361038d57505081808080808080808880f35b610d2691925060203d81116103ce576103bf81836111fe565b9086610c85565b865162461bcd60e51b8152602081840152602860248201527f455243313135353a2069647320616e6420616d6f756e7473206c656e677468206044820152670dad2e6dac2e8c6d60c31b6064820152608490fd5b508386526001602090815287872033885290528686205460ff16610b17565b8380fd5b5082903461044657826003193601126104465767ffffffffffffffff602435818111610da05736602382011215610da057610de89036906024818601359101611220565b93610df161132f565b845115610f165782358452602090600682528420928551928311610f035750610e1a8354611701565b601f8111610ec0575b5080601f8311600114610e5e5750839482939492610e53575b50508160011b916000199060031b1c191617905580f35b015190508480610e3c565b90601f198316958486528286209286905b888210610ea857505083600195969710610e8f575b505050811b01905580f35b015160001960f88460031b161c19169055848080610e84565b80600185968294968601518155019501930190610e6f565b838552818520601f840160051c810191838510610ef9575b601f0160051c01905b818110610eee5750610e23565b858155600101610ee1565b9091508190610ed8565b634e487b7160e01b855260419052602484fd5b5162461bcd60e51b815260208184015260136024820152724349442063616e6e6f7420626520656d70747960681b6044820152606490fd5b5082346108be57602091826003193601126104465780358252600683528382209084519283818454610f7f81611701565b93848452888401966001928a8482169182600014611094575050600114611058575b505050610fb0925003846111fe565b82511561101d57509261100e6035610a0793610fe796845197889266697066733a2f2f60c81b898501525180926027850190611184565b81016d17b6b2ba30b230ba30973539b7b760911b60278201520360158101875201856111fe565b519282849384528301906111a7565b845162461bcd60e51b81529081018490526015602482015274155492481b9bdd081cd95d08199bdc88195d995b9d605a1b6044820152606490fd5b899350819291528282205b85831061107c575050610fb09350820101888080610fa1565b8054838a018501528894508993909201918101611063565b935094505050610fb094915060ff19168652151560051b820101888080610fa1565b503461018f57602036600319011261018f57359063ffffffff60e01b821680920361018f5760209250636cdb3d1360e11b8214918215611112575b8215611101575b50519015158152f35b6301ffc9a760e01b149150386110f8565b6303a24d0760e21b811492506110f1565b50503461044657806003193601126104465760209061114c611143611153565b60243590611387565b9051908152f35b600435906001600160a01b038216820361116957565b600080fd5b602435906001600160a01b038216820361116957565b60005b8381106111975750506000910152565b8181015183820152602001611187565b906020916111c081518092818552858086019101611184565b601f01601f1916010190565b6040810190811067ffffffffffffffff8211176111e857604052565b634e487b7160e01b600052604160045260246000fd5b90601f8019910116810190811067ffffffffffffffff8211176111e857604052565b92919267ffffffffffffffff82116111e8576040519161124a601f8201601f1916602001846111fe565b829481845281830111611169578281602093846000960137010152565b67ffffffffffffffff81116111e85760051b60200190565b81601f820112156111695780359161129683611267565b926112a460405194856111fe565b808452602092838086019260051b820101928311611169578301905b8282106112ce575050505090565b813581529083019083016112c0565b9080601f83011215611169578160206112f893359101611220565b90565b90815180825260208080930193019160005b82811061131b575050505090565b83518552938101939281019260010161130d565b6003546001600160a01b0316330361134357565b606460405162461bcd60e51b815260206004820152602060248201527f4f776e61626c653a2063616c6c6572206973206e6f7420746865206f776e65726044820152fd5b6001600160a01b03169081156113b457600052600060205260406000209060005260205260406000205490565b60405162461bcd60e51b815260206004820152602a60248201527f455243313135353a2061646472657373207a65726f206973206e6f742061207660448201526930b634b21037bbb732b960b11b6064820152608490fd5b600019811461141b5760010190565b634e487b7160e01b600052601160045260246000fd5b80511561143e5760200190565b634e487b7160e01b600052603260045260246000fd5b805182101561143e5760209160051b010190565b1561146f57565b60405162461bcd60e51b815260206004820152602e60248201527f455243313135353a2063616c6c6572206973206e6f7420746f6b656e206f776e60448201526d195c881bdc88185c1c1c9bdd995960921b6064820152608490fd5b156114d257565b60405162461bcd60e51b815260206004820152602560248201527f455243313135353a207472616e7366657220746f20746865207a65726f206164604482015264647265737360d81b6064820152608490fd5b1561152c57565b60405162461bcd60e51b815260206004820152602a60248201527f455243313135353a20696e73756666696369656e742062616c616e636520666f60448201526939103a3930b739b332b960b11b6064820152608490fd5b9190820180921161141b57565b9081602091031261116957516001600160e01b0319811681036111695790565b60809060208152602860208201527f455243313135353a204552433131353552656365697665722072656a656374656040820152676420746f6b656e7360c01b60608201520190565b60009060033d1161160757565b905060046000803e60005160e01c90565b600060443d106112f857604051600319913d83016004833e815167ffffffffffffffff918282113d6024840111176116765781840194855193841161167e573d8501016020848701011161167657506112f8929101602001906111fe565b949350505050565b50949350505050565b60809060208152603460208201527f455243313135353a207472616e7366657220746f206e6f6e2d455243313135356040820152732932b1b2b4bb32b91034b6b83632b6b2b73a32b960611b60608201520190565b604051906116e9826111cc565b60018252602036818401376116fd82611431565b5290565b90600182811c92168015611731575b602083101461171b57565b634e487b7160e01b600052602260045260246000fd5b91607f1691611710565b9060018060a01b0360049181835416906040928351956370a0823160e01b875216808587015260209160249083888381885afa97881561193357600098611904575b5087156118f75760005b88811061179c57505050505050505050600090565b8651632f745c5960e01b81528489820152818482015285816044818a5afa90811561188d576000916118ca575b50828851637510cfaf60e01b8152828b820152878187818c5afa60009181611898575b50611802575050506117fd9061140c565b611787565b149081611826575b50611818576117fd9061140c565b505050505050505050600190565b9050875190630b3474d760e21b825289820152858185818a5afa90811561188d57600091611857575b50153861180a565b8681813d8311611886575b61186c81836111fe565b8101031261044657519081151582036108be57503861184f565b503d611862565b88513d6000823e3d90fd5b919092508882813d83116118c3575b6118b181836111fe565b810103126108be5750518491386117ec565b503d6118a7565b908682813d83116118f0575b6118e081836111fe565b810103126108be575051386117c9565b503d6118d6565b5050505050505050600090565b90978482813d831161192c575b61191b81836111fe565b810103126108be575051963861177d565b503d611911565b86513d6000823e3d90fdfea26469706673582212207ef6622e22441bf863d692ec0050d4e15f2fc14f818f1540ccf55a0fba30ca7264736f6c63430008140033","opcodes":"PUSH1 0x80 CALLVALUE PUSH3 0x19D JUMPI PUSH1 0x1 PUSH1 0x1 PUSH1 0x40 SHL SUB SWAP1 PUSH1 0x1F PUSH3 0x1B17 CODESIZE DUP2 SWAP1 SUB SWAP2 DUP3 ADD PUSH1 0x1F NOT AND DUP4 ADD SWAP2 DUP5 DUP4 GT DUP5 DUP5 LT OR PUSH3 0x187 JUMPI DUP1 DUP5 SWAP3 PUSH1 0x20 SWAP5 PUSH1 0x40 MSTORE DUP4 CODECOPY DUP2 ADD SUB SLT PUSH3 0x19D JUMPI MLOAD PUSH1 0x1 PUSH1 0x1 PUSH1 0xA0 SHL SUB SWAP2 DUP3 DUP3 AND SWAP2 DUP3 SWAP1 SUB PUSH3 0x19D JUMPI PUSH1 0x40 MLOAD PUSH1 0x40 DUP2 ADD SWAP2 DUP2 DUP4 LT SWAP1 DUP4 GT OR PUSH3 0x187 JUMPI PUSH1 0x20 SWAP2 PUSH1 0x40 MSTORE PUSH1 0x7 DUP2 MSTORE ADD PUSH7 0x697066733A2F2F PUSH1 0xC8 SHL DUP2 MSTORE PUSH1 0x2 SLOAD PUSH1 0x1 SWAP1 DUP2 DUP2 DUP2 SHR SWAP2 AND DUP1 ISZERO PUSH3 0x17C JUMPI JUMPDEST PUSH1 0x20 DUP3 LT EQ PUSH3 0x166 JUMPI PUSH1 0x1F DUP2 GT PUSH3 0x11A JUMPI JUMPDEST POP POP MLOAD PUSH1 0x1 PUSH1 0x1 PUSH1 0xC8 SHL SUB NOT AND PUSH1 0xE OR PUSH1 0x2 SSTORE PUSH1 0x3 DUP1 SLOAD PUSH1 0x1 PUSH1 0x1 PUSH1 0xA0 SHL SUB NOT DUP1 DUP3 AND CALLER SWAP1 DUP2 OR SWAP1 SWAP4 SSTORE PUSH1 0x40 MLOAD SWAP5 SWAP1 SWAP3 SWAP2 AND PUSH32 0x8BE0079C531659141344CD1FD0A4F28419497F9722A3DAAFE3B4186F6B6457E0 PUSH1 0x0 DUP1 LOG3 PUSH1 0x4 SLOAD AND OR PUSH1 0x4 SSTORE PUSH2 0x1974 SWAP1 DUP2 PUSH3 0x1A3 DUP3 CODECOPY RETURN JUMPDEST PUSH1 0x2 PUSH1 0x0 MSTORE PUSH1 0x1F ADD PUSH1 0x5 SHR PUSH32 0x405787FA12A823E0F2B7631CC41B3BA8828B3321CA811111FA75CD3AA3BB5ACE SWAP1 DUP2 ADD SWAP1 JUMPDEST DUP2 DUP2 LT PUSH3 0x15A JUMPI POP PUSH3 0xAE JUMP JUMPDEST PUSH1 0x0 DUP2 SSTORE DUP3 ADD PUSH3 0x14B JUMP JUMPDEST PUSH4 0x4E487B71 PUSH1 0xE0 SHL PUSH1 0x0 MSTORE PUSH1 0x22 PUSH1 0x4 MSTORE PUSH1 0x24 PUSH1 0x0 REVERT JUMPDEST SWAP1 PUSH1 0x7F AND SWAP1 PUSH3 0x9A JUMP JUMPDEST PUSH4 0x4E487B71 PUSH1 0xE0 SHL PUSH1 0x0 MSTORE PUSH1 0x41 PUSH1 0x4 MSTORE PUSH1 0x24 PUSH1 0x0 REVERT JUMPDEST PUSH1 0x0 DUP1 REVERT INVALID PUSH1 0x40 PUSH1 0x80 DUP2 MSTORE PUSH1 0x4 SWAP1 DUP2 CALLDATASIZE LT ISZERO PUSH2 0x15 JUMPI PUSH1 0x0 DUP1 REVERT JUMPDEST PUSH1 0x0 SWAP2 DUP3 CALLDATALOAD PUSH1 0xE0 SHR DUP1 PUSH3 0xFDD58E EQ PUSH2 0x1123 JUMPI DUP1 PUSH4 0x1FFC9A7 EQ PUSH2 0x10B6 JUMPI DUP1 PUSH4 0xE89341C EQ PUSH2 0xF4E JUMPI DUP1 PUSH4 0x16D35D71 EQ PUSH2 0xDA4 JUMPI DUP1 PUSH4 0x2EB2C2D6 EQ PUSH2 0xA89 JUMPI DUP1 PUSH4 0x4E1273F4 EQ PUSH2 0x8E8 JUMPI DUP1 PUSH4 0x58A86E1D EQ PUSH2 0x8C1 JUMPI DUP1 PUSH4 0x715018A6 EQ PUSH2 0x861 JUMPI DUP1 PUSH4 0x873F6F9E EQ PUSH2 0x81B JUMPI DUP1 PUSH4 0x8DA5CB5B EQ PUSH2 0x7F2 JUMPI DUP1 PUSH4 0x9365FC87 EQ PUSH2 0x52B JUMPI DUP1 PUSH4 0xA22CB465 EQ PUSH2 0x44A JUMPI DUP1 PUSH4 0xE985E9C5 EQ PUSH2 0x3F8 JUMPI DUP1 PUSH4 0xF242432A EQ PUSH2 0x193 JUMPI PUSH4 0xF2FDE38B EQ PUSH2 0xC5 JUMPI PUSH1 0x0 DUP1 REVERT JUMPDEST CALLVALUE PUSH2 0x18F JUMPI PUSH1 0x20 CALLDATASIZE PUSH1 0x3 NOT ADD SLT PUSH2 0x18F JUMPI PUSH2 0xDE PUSH2 0x1153 JUMP JUMPDEST SWAP1 PUSH2 0xE7 PUSH2 0x132F JUMP JUMPDEST PUSH1 0x1 PUSH1 0x1 PUSH1 0xA0 SHL SUB SWAP2 DUP3 AND SWAP3 DUP4 ISZERO PUSH2 0x13D JUMPI POP POP PUSH1 0x3 SLOAD DUP3 PUSH12 0xFFFFFFFFFFFFFFFFFFFFFFFF PUSH1 0xA0 SHL DUP3 AND OR PUSH1 0x3 SSTORE AND PUSH32 0x8BE0079C531659141344CD1FD0A4F28419497F9722A3DAAFE3B4186F6B6457E0 DUP4 DUP1 LOG3 DUP1 RETURN JUMPDEST SWAP1 PUSH1 0x20 PUSH1 0x84 SWAP3 MLOAD SWAP2 PUSH3 0x461BCD PUSH1 0xE5 SHL DUP4 MSTORE DUP3 ADD MSTORE PUSH1 0x26 PUSH1 0x24 DUP3 ADD MSTORE PUSH32 0x4F776E61626C653A206E6577206F776E657220697320746865207A65726F2061 PUSH1 0x44 DUP3 ADD MSTORE PUSH6 0x646472657373 PUSH1 0xD0 SHL PUSH1 0x64 DUP3 ADD MSTORE REVERT JUMPDEST DUP3 DUP1 REVERT JUMPDEST POP CALLVALUE PUSH2 0x18F JUMPI PUSH1 0xA0 CALLDATASIZE PUSH1 0x3 NOT ADD SLT PUSH2 0x18F JUMPI PUSH2 0x1AD PUSH2 0x1153 JUMP JUMPDEST SWAP2 PUSH2 0x1B6 PUSH2 0x116E JUMP JUMPDEST SWAP3 PUSH1 0x44 CALLDATALOAD SWAP1 PUSH1 0x64 CALLDATALOAD SWAP1 PUSH1 0x84 CALLDATALOAD PUSH8 0xFFFFFFFFFFFFFFFF DUP2 GT PUSH2 0x3F4 JUMPI PUSH2 0x1DE SWAP1 CALLDATASIZE SWAP1 DUP8 ADD PUSH2 0x12DD JUMP JUMPDEST SWAP3 PUSH1 0x1 PUSH1 0x1 PUSH1 0xA0 SHL SUB SWAP2 DUP3 AND SWAP2 CALLER DUP4 EQ DUP1 ISZERO PUSH2 0x3D5 JUMPI JUMPDEST PUSH2 0x1FE SWAP1 PUSH2 0x1468 JUMP JUMPDEST DUP8 AND SWAP2 PUSH2 0x20C DUP4 ISZERO ISZERO PUSH2 0x14CB JUMP JUMPDEST PUSH2 0x215 DUP3 PUSH2 0x16DC JUMP JUMPDEST POP PUSH2 0x21F DUP5 PUSH2 0x16DC JUMP JUMPDEST POP DUP2 DUP10 MSTORE PUSH1 0x20 SWAP8 DUP10 DUP10 MSTORE DUP7 DUP11 KECCAK256 DUP3 DUP12 MSTORE DUP10 MSTORE DUP5 DUP8 DUP12 KECCAK256 SLOAD PUSH2 0x242 DUP3 DUP3 LT ISZERO PUSH2 0x1525 JUMP JUMPDEST DUP5 DUP13 MSTORE DUP12 DUP12 MSTORE DUP9 DUP13 KECCAK256 DUP5 DUP14 MSTORE DUP12 MSTORE SUB DUP8 DUP12 KECCAK256 SSTORE DUP3 DUP11 MSTORE DUP10 DUP10 MSTORE DUP7 DUP11 KECCAK256 DUP5 DUP12 MSTORE DUP10 MSTORE DUP7 DUP11 KECCAK256 PUSH2 0x271 DUP7 DUP3 SLOAD PUSH2 0x1584 JUMP JUMPDEST SWAP1 SSTORE DUP4 DUP3 DUP9 MLOAD DUP6 DUP2 MSTORE DUP8 DUP13 DUP3 ADD MSTORE PUSH32 0xC3D58168C5AE7397731D063D5BBF3D657854427343F4C083240F7AACAA2D0F62 DUP11 CALLER SWAP3 LOG4 EXTCODESIZE PUSH2 0x2AD JUMPI DUP9 DUP1 RETURN JUMPDEST SWAP2 DUP7 SWAP8 SWAP9 SWAP6 SWAP7 SWAP5 SWAP4 SWAP2 DUP7 DUP11 SWAP5 PUSH2 0x2F6 DUP11 MLOAD SWAP8 DUP9 SWAP7 DUP8 SWAP6 DUP7 SWAP5 PUSH4 0xF23A6E61 PUSH1 0xE0 SHL SWAP13 DUP14 DUP8 MSTORE CALLER SWAP1 DUP8 ADD MSTORE PUSH1 0x24 DUP7 ADD MSTORE PUSH1 0x44 DUP6 ADD MSTORE PUSH1 0x64 DUP5 ADD MSTORE PUSH1 0xA0 PUSH1 0x84 DUP5 ADD MSTORE PUSH1 0xA4 DUP4 ADD SWAP1 PUSH2 0x11A7 JUMP JUMPDEST SUB SWAP3 GAS CALL DUP4 SWAP2 DUP2 PUSH2 0x3A6 JUMPI JUMPDEST POP PUSH2 0x36B JUMPI POP POP POP PUSH2 0x312 PUSH2 0x15FA JUMP JUMPDEST PUSH4 0x8C379A0 EQ PUSH2 0x33A JUMPI JUMPDEST MLOAD PUSH3 0x461BCD PUSH1 0xE5 SHL DUP2 MSTORE SWAP2 POP DUP2 SWAP1 PUSH2 0x336 SWAP1 DUP3 ADD PUSH2 0x1687 JUMP JUMPDEST SUB SWAP1 REVERT JUMPDEST PUSH2 0x342 PUSH2 0x1618 JUMP JUMPDEST DUP1 PUSH2 0x34D JUMPI POP PUSH2 0x31D JUMP JUMPDEST PUSH2 0x336 SWAP2 MLOAD SWAP4 DUP5 SWAP4 PUSH3 0x461BCD PUSH1 0xE5 SHL DUP6 MSTORE DUP5 ADD MSTORE PUSH1 0x24 DUP4 ADD SWAP1 PUSH2 0x11A7 JUMP JUMPDEST SWAP2 SWAP5 POP PUSH1 0x1 PUSH1 0x1 PUSH1 0xE0 SHL SUB NOT SWAP1 SWAP2 AND SUB PUSH2 0x38D JUMPI POP POP CODESIZE DUP1 DUP1 DUP1 DUP1 DUP1 DUP1 DUP1 DUP9 DUP1 RETURN JUMPDEST MLOAD PUSH3 0x461BCD PUSH1 0xE5 SHL DUP2 MSTORE SWAP2 POP DUP2 SWAP1 PUSH2 0x336 SWAP1 DUP3 ADD PUSH2 0x15B1 JUMP JUMPDEST PUSH2 0x3C7 SWAP2 SWAP3 POP DUP8 RETURNDATASIZE DUP10 GT PUSH2 0x3CE JUMPI JUMPDEST PUSH2 0x3BF DUP2 DUP4 PUSH2 0x11FE JUMP JUMPDEST DUP2 ADD SWAP1 PUSH2 0x1591 JUMP JUMPDEST SWAP1 CODESIZE PUSH2 0x302 JUMP JUMPDEST POP RETURNDATASIZE PUSH2 0x3B5 JUMP JUMPDEST POP DUP3 DUP10 MSTORE PUSH1 0x1 PUSH1 0x20 SWAP1 DUP2 MSTORE DUP7 DUP11 KECCAK256 CALLER DUP12 MSTORE SWAP1 MSTORE DUP6 DUP10 KECCAK256 SLOAD PUSH1 0xFF AND PUSH2 0x1F5 JUMP JUMPDEST DUP8 DUP1 REVERT JUMPDEST POP POP CALLVALUE PUSH2 0x446 JUMPI DUP1 PUSH1 0x3 NOT CALLDATASIZE ADD SLT PUSH2 0x446 JUMPI PUSH1 0xFF DUP2 PUSH1 0x20 SWAP4 PUSH2 0x418 PUSH2 0x1153 JUMP JUMPDEST PUSH2 0x420 PUSH2 0x116E JUMP JUMPDEST PUSH1 0x1 PUSH1 0x1 PUSH1 0xA0 SHL SUB SWAP2 DUP3 AND DUP4 MSTORE PUSH1 0x1 DUP8 MSTORE DUP4 DUP4 KECCAK256 SWAP2 AND DUP3 MSTORE DUP6 MSTORE KECCAK256 SLOAD SWAP2 MLOAD SWAP2 AND ISZERO ISZERO DUP2 MSTORE RETURN JUMPDEST POP DUP1 REVERT JUMPDEST POP SWAP1 CALLVALUE PUSH2 0x18F JUMPI DUP1 PUSH1 0x3 NOT CALLDATASIZE ADD SLT PUSH2 0x18F JUMPI PUSH2 0x464 PUSH2 0x1153 JUMP JUMPDEST SWAP1 PUSH1 0x24 CALLDATALOAD SWAP2 DUP3 ISZERO ISZERO DUP1 SWAP4 SUB PUSH2 0x527 JUMPI PUSH1 0x1 PUSH1 0x1 PUSH1 0xA0 SHL SUB AND SWAP3 CALLER DUP5 EQ PUSH2 0x4D3 JUMPI POP CALLER DUP5 MSTORE PUSH1 0x1 PUSH1 0x20 MSTORE DUP1 DUP5 KECCAK256 DUP4 DUP6 MSTORE PUSH1 0x20 MSTORE DUP1 DUP5 KECCAK256 PUSH1 0xFF NOT DUP2 SLOAD AND PUSH1 0xFF DUP5 AND OR SWAP1 SSTORE MLOAD SWAP1 DUP2 MSTORE PUSH32 0x17307EAB39AB6107E8899845AD3D59BD9653F200F220920489CA2B5937696C31 PUSH1 0x20 CALLER SWAP3 LOG3 DUP1 RETURN JUMPDEST PUSH1 0x20 PUSH1 0x84 SWAP3 MLOAD SWAP2 PUSH3 0x461BCD PUSH1 0xE5 SHL DUP4 MSTORE DUP3 ADD MSTORE PUSH1 0x29 PUSH1 0x24 DUP3 ADD MSTORE PUSH32 0x455243313135353A2073657474696E6720617070726F76616C20737461747573 PUSH1 0x44 DUP3 ADD MSTORE PUSH9 0x103337B91039B2B633 PUSH1 0xB9 SHL PUSH1 0x64 DUP3 ADD MSTORE REVERT JUMPDEST DUP5 DUP1 REVERT JUMPDEST POP SWAP2 SWAP1 CALLVALUE PUSH2 0x446 JUMPI PUSH1 0x20 SWAP1 DUP2 PUSH1 0x3 NOT CALLDATASIZE ADD SLT PUSH2 0x18F JUMPI DUP4 CALLDATALOAD SWAP2 DUP3 DUP5 MSTORE PUSH1 0x5 DUP2 MSTORE DUP2 DUP5 KECCAK256 CALLER DUP6 MSTORE DUP2 MSTORE PUSH1 0xFF DUP3 DUP6 KECCAK256 SLOAD AND PUSH2 0x7BE JUMPI PUSH2 0x568 DUP4 CALLER PUSH2 0x173B JUMP JUMPDEST ISZERO PUSH2 0x785 JUMPI DUP2 MLOAD SWAP5 DUP2 DUP7 ADD DUP7 DUP2 LT PUSH8 0xFFFFFFFFFFFFFFFF DUP3 GT OR PUSH2 0x772 JUMPI DUP4 MSTORE DUP5 DUP7 MSTORE CALLER ISZERO PUSH2 0x727 JUMPI DUP4 SWAP5 SWAP6 PUSH2 0x5A0 PUSH2 0x5BF SWAP6 PUSH2 0x16DC JUMP JUMPDEST POP DUP4 MLOAD PUSH2 0x5AC DUP2 PUSH2 0x11CC JUMP JUMPDEST PUSH1 0x1 SWAP6 DUP2 DUP8 DUP1 SWAP4 MSTORE DUP6 CALLDATASIZE DUP2 DUP4 ADD CALLDATACOPY PUSH2 0x1431 JUMP JUMPDEST MSTORE DUP6 DUP8 MSTORE DUP7 DUP4 MSTORE DUP4 DUP8 KECCAK256 CALLER DUP9 MSTORE DUP4 MSTORE DUP4 DUP8 KECCAK256 DUP1 SLOAD SWAP1 DUP7 DUP3 ADD DUP1 SWAP3 GT PUSH2 0x714 JUMPI SSTORE DUP4 MLOAD DUP7 DUP2 MSTORE DUP6 DUP5 DUP3 ADD MSTORE DUP8 CALLER SWAP2 PUSH32 0xC3D58168C5AE7397731D063D5BBF3D657854427343F4C083240F7AACAA2D0F62 DUP8 CALLER SWAP3 LOG4 CALLER EXTCODESIZE PUSH2 0x65E JUMPI JUMPDEST POP POP DUP4 DUP6 MSTORE PUSH1 0x5 DUP2 MSTORE DUP2 DUP6 KECCAK256 SWAP1 CALLER DUP7 MSTORE MSTORE DUP4 KECCAK256 SWAP1 PUSH1 0xFF NOT DUP3 SLOAD AND OR SWAP1 SSTORE CALLER SWAP1 PUSH32 0x5DDCA7D5809A6830DDA8F5547A130099BE44F5E1F6AB4773CBE795C10C0F605E DUP4 DUP1 LOG3 DUP1 RETURN JUMPDEST DUP4 SWAP5 SWAP2 SWAP6 SWAP3 SWAP7 SWAP4 MLOAD DUP8 DUP2 DUP1 PUSH2 0x6A0 PUSH4 0xF23A6E61 PUSH1 0xE0 SHL SWAP6 DUP7 DUP4 MSTORE CALLER DUP13 DUP5 ADD MSTORE DUP10 PUSH1 0x24 DUP5 ADD MSTORE DUP9 PUSH1 0x44 DUP5 ADD MSTORE DUP8 PUSH1 0x64 DUP5 ADD MSTORE PUSH1 0xA0 PUSH1 0x84 DUP5 ADD MSTORE PUSH1 0xA4 DUP4 ADD SWAP1 PUSH2 0x11A7 JUMP JUMPDEST SUB DUP2 DUP9 CALLER GAS CALL DUP6 SWAP2 DUP2 PUSH2 0x6F5 JUMPI JUMPDEST POP PUSH2 0x6BE JUMPI DUP8 DUP8 DUP8 PUSH2 0x312 PUSH2 0x15FA JUMP JUMPDEST SWAP4 SWAP7 SWAP3 SWAP6 SWAP2 SWAP5 SWAP4 PUSH1 0x1 PUSH1 0x1 PUSH1 0xE0 SHL SUB NOT AND SUB PUSH2 0x6DC JUMPI POP CODESIZE DUP1 PUSH2 0x618 JUMP JUMPDEST DUP3 MLOAD PUSH3 0x461BCD PUSH1 0xE5 SHL DUP2 MSTORE SWAP1 DUP2 SWAP1 PUSH2 0x336 SWAP1 DUP3 ADD PUSH2 0x15B1 JUMP JUMPDEST PUSH2 0x70D SWAP2 SWAP3 POP DUP10 RETURNDATASIZE DUP12 GT PUSH2 0x3CE JUMPI PUSH2 0x3BF DUP2 DUP4 PUSH2 0x11FE JUMP JUMPDEST SWAP1 CODESIZE PUSH2 0x6AE JUMP JUMPDEST PUSH4 0x4E487B71 PUSH1 0xE0 SHL DUP10 MSTORE PUSH1 0x11 DUP5 MSTORE PUSH1 0x24 DUP10 REVERT JUMPDEST SWAP2 MLOAD PUSH3 0x461BCD PUSH1 0xE5 SHL DUP2 MSTORE SWAP2 DUP3 ADD MSTORE PUSH1 0x21 PUSH1 0x24 DUP3 ADD MSTORE PUSH32 0x455243313135353A206D696E7420746F20746865207A65726F20616464726573 PUSH1 0x44 DUP3 ADD MSTORE PUSH1 0x73 PUSH1 0xF8 SHL PUSH1 0x64 DUP3 ADD MSTORE PUSH1 0x84 SWAP1 REVERT JUMPDEST PUSH4 0x4E487B71 PUSH1 0xE0 SHL DUP7 MSTORE PUSH1 0x41 DUP3 MSTORE PUSH1 0x24 DUP7 REVERT JUMPDEST DUP5 SWAP1 PUSH1 0x64 SWAP3 MLOAD SWAP2 PUSH3 0x461BCD PUSH1 0xE5 SHL DUP4 MSTORE DUP3 ADD MSTORE PUSH1 0x14 PUSH1 0x24 DUP3 ADD MSTORE PUSH20 0x4E6F7420612076616C696420617474656E646565 PUSH1 0x60 SHL PUSH1 0x44 DUP3 ADD MSTORE REVERT JUMPDEST DUP5 SWAP1 PUSH1 0x64 SWAP3 MLOAD SWAP2 PUSH3 0x461BCD PUSH1 0xE5 SHL DUP4 MSTORE DUP3 ADD MSTORE PUSH1 0xF PUSH1 0x24 DUP3 ADD MSTORE PUSH15 0x105B1C9958591E4818DB185A5B5959 PUSH1 0x8A SHL PUSH1 0x44 DUP3 ADD MSTORE REVERT JUMPDEST POP POP CALLVALUE PUSH2 0x446 JUMPI DUP2 PUSH1 0x3 NOT CALLDATASIZE ADD SLT PUSH2 0x446 JUMPI PUSH1 0x3 SLOAD SWAP1 MLOAD PUSH1 0x1 PUSH1 0x1 PUSH1 0xA0 SHL SUB SWAP1 SWAP2 AND DUP2 MSTORE PUSH1 0x20 SWAP1 RETURN JUMPDEST POP CALLVALUE PUSH2 0x18F JUMPI DUP2 PUSH1 0x3 NOT CALLDATASIZE ADD SLT PUSH2 0x18F JUMPI DUP2 PUSH1 0x20 SWAP4 PUSH1 0xFF SWAP3 PUSH2 0x83B PUSH2 0x116E JUMP JUMPDEST SWAP1 CALLDATALOAD DUP3 MSTORE PUSH1 0x5 DUP7 MSTORE DUP3 DUP3 KECCAK256 PUSH1 0x1 PUSH1 0x1 PUSH1 0xA0 SHL SUB SWAP1 SWAP2 AND DUP3 MSTORE DUP6 MSTORE KECCAK256 SLOAD SWAP2 MLOAD SWAP2 AND ISZERO ISZERO DUP2 MSTORE RETURN JUMPDEST DUP4 CALLVALUE PUSH2 0x8BE JUMPI DUP1 PUSH1 0x3 NOT CALLDATASIZE ADD SLT PUSH2 0x8BE JUMPI PUSH2 0x87A PUSH2 0x132F JUMP JUMPDEST PUSH1 0x3 DUP1 SLOAD PUSH1 0x1 PUSH1 0x1 PUSH1 0xA0 SHL SUB NOT DUP2 AND SWAP1 SWAP2 SSTORE DUP2 SWAP1 PUSH1 0x1 PUSH1 0x1 PUSH1 0xA0 SHL SUB AND PUSH32 0x8BE0079C531659141344CD1FD0A4F28419497F9722A3DAAFE3B4186F6B6457E0 DUP3 DUP1 LOG3 DUP1 RETURN JUMPDEST DUP1 REVERT JUMPDEST POP CALLVALUE PUSH2 0x18F JUMPI DUP3 PUSH1 0x3 NOT CALLDATASIZE ADD SLT PUSH2 0x18F JUMPI SLOAD SWAP1 MLOAD PUSH1 0x1 PUSH1 0x1 PUSH1 0xA0 SHL SUB SWAP1 SWAP2 AND DUP2 MSTORE PUSH1 0x20 SWAP2 POP RETURN JUMPDEST POP CALLVALUE PUSH2 0x18F JUMPI DUP2 PUSH1 0x3 NOT CALLDATASIZE ADD SLT PUSH2 0x18F JUMPI DUP1 CALLDATALOAD PUSH8 0xFFFFFFFFFFFFFFFF DUP1 DUP3 GT PUSH2 0x527 JUMPI CALLDATASIZE PUSH1 0x23 DUP4 ADD SLT ISZERO PUSH2 0x527 JUMPI DUP2 DUP4 ADD CALLDATALOAD SWAP1 PUSH2 0x924 DUP3 PUSH2 0x1267 JUMP JUMPDEST SWAP3 PUSH2 0x931 DUP7 MLOAD SWAP5 DUP6 PUSH2 0x11FE JUMP JUMPDEST DUP3 DUP5 MSTORE PUSH1 0x20 SWAP3 PUSH1 0x24 DUP5 DUP7 ADD SWAP2 PUSH1 0x5 SHL DUP4 ADD ADD SWAP2 CALLDATASIZE DUP4 GT PUSH2 0xA85 JUMPI PUSH1 0x24 ADD SWAP1 JUMPDEST DUP3 DUP3 LT PUSH2 0xA62 JUMPI POP POP POP PUSH1 0x24 CALLDATALOAD SWAP1 DUP2 GT PUSH2 0xA5E JUMPI PUSH2 0x971 SWAP1 CALLDATASIZE SWAP1 DUP6 ADD PUSH2 0x127F JUMP JUMPDEST SWAP3 DUP3 MLOAD DUP5 MLOAD SUB PUSH2 0xA0B JUMPI POP DUP2 MLOAD SWAP5 PUSH2 0x988 DUP7 PUSH2 0x1267 JUMP JUMPDEST SWAP6 PUSH2 0x995 DUP7 MLOAD SWAP8 DUP9 PUSH2 0x11FE JUMP JUMPDEST DUP1 DUP8 MSTORE PUSH2 0x9A4 PUSH1 0x1F NOT SWAP2 PUSH2 0x1267 JUMP JUMPDEST ADD CALLDATASIZE DUP4 DUP9 ADD CALLDATACOPY JUMPDEST DUP3 MLOAD DUP2 LT ISZERO PUSH2 0x9F5 JUMPI PUSH2 0x9F0 SWAP1 PUSH2 0x9E0 PUSH1 0x1 PUSH1 0x1 PUSH1 0xA0 SHL SUB PUSH2 0x9CD DUP4 DUP8 PUSH2 0x1454 JUMP JUMPDEST MLOAD AND PUSH2 0x9D9 DUP4 DUP9 PUSH2 0x1454 JUMP JUMPDEST MLOAD SWAP1 PUSH2 0x1387 JUMP JUMPDEST PUSH2 0x9EA DUP3 DUP10 PUSH2 0x1454 JUMP JUMPDEST MSTORE PUSH2 0x140C JUMP JUMPDEST PUSH2 0x9AB JUMP JUMPDEST DUP5 MLOAD DUP3 DUP2 MSTORE DUP1 PUSH2 0xA07 DUP2 DUP6 ADD DUP10 PUSH2 0x12FB JUMP JUMPDEST SUB SWAP1 RETURN JUMPDEST PUSH1 0x84 SWAP2 DUP6 MLOAD SWAP2 PUSH3 0x461BCD PUSH1 0xE5 SHL DUP4 MSTORE DUP3 ADD MSTORE PUSH1 0x29 PUSH1 0x24 DUP3 ADD MSTORE PUSH32 0x455243313135353A206163636F756E747320616E6420696473206C656E677468 PUSH1 0x44 DUP3 ADD MSTORE PUSH9 0x40DAD2E6DAC2E8C6D PUSH1 0xBB SHL PUSH1 0x64 DUP3 ADD MSTORE REVERT JUMPDEST DUP6 DUP1 REVERT JUMPDEST DUP2 CALLDATALOAD PUSH1 0x1 PUSH1 0x1 PUSH1 0xA0 SHL SUB DUP2 AND DUP2 SUB PUSH2 0xA81 JUMPI DUP2 MSTORE SWAP1 DUP5 ADD SWAP1 DUP5 ADD PUSH2 0x950 JUMP JUMPDEST DUP10 DUP1 REVERT JUMPDEST DUP9 DUP1 REVERT JUMPDEST POP DUP3 CALLVALUE PUSH2 0x8BE JUMPI PUSH1 0x3 NOT SWAP3 PUSH1 0xA0 CALLDATASIZE DUP6 ADD SLT PUSH2 0x446 JUMPI PUSH2 0xAA6 PUSH2 0x1153 JUMP JUMPDEST SWAP2 PUSH2 0xAAF PUSH2 0x116E JUMP JUMPDEST SWAP5 PUSH8 0xFFFFFFFFFFFFFFFF SWAP4 PUSH1 0x44 CALLDATALOAD DUP6 DUP2 GT PUSH2 0xDA0 JUMPI PUSH2 0xAD1 SWAP1 CALLDATASIZE SWAP1 DUP9 ADD PUSH2 0x127F JUMP JUMPDEST PUSH1 0x64 CALLDATALOAD DUP7 DUP2 GT PUSH2 0x527 JUMPI PUSH2 0xAE8 SWAP1 CALLDATASIZE SWAP1 DUP10 ADD PUSH2 0x127F JUMP JUMPDEST SWAP6 PUSH1 0x84 CALLDATALOAD SWAP1 DUP2 GT PUSH2 0x527 JUMPI PUSH2 0xB00 SWAP1 CALLDATASIZE SWAP1 DUP10 ADD PUSH2 0x12DD JUMP JUMPDEST SWAP7 PUSH1 0x1 PUSH1 0x1 PUSH1 0xA0 SHL SUB SWAP3 DUP4 AND SWAP3 CALLER DUP5 EQ DUP1 ISZERO PUSH2 0xD81 JUMPI JUMPDEST PUSH2 0xB20 SWAP1 PUSH2 0x1468 JUMP JUMPDEST DUP3 MLOAD DUP9 MLOAD SUB PUSH2 0xD2D JUMPI DUP10 AND SWAP4 PUSH2 0xB37 DUP6 ISZERO ISZERO PUSH2 0x14CB JUMP JUMPDEST DUP6 JUMPDEST DUP4 MLOAD DUP2 LT ISZERO PUSH2 0xBBB JUMPI DUP1 PUSH2 0xB50 PUSH2 0xBB6 SWAP3 DUP7 PUSH2 0x1454 JUMP JUMPDEST MLOAD PUSH2 0xB5B DUP3 DUP13 PUSH2 0x1454 JUMP JUMPDEST MLOAD SWAP1 DUP1 DUP11 MSTORE PUSH1 0x20 SWAP1 DUP11 DUP3 MSTORE DUP12 DUP12 KECCAK256 DUP10 DUP13 MSTORE DUP3 MSTORE DUP3 DUP13 DUP13 DUP12 DUP3 DUP3 KECCAK256 SLOAD SWAP3 PUSH2 0xB83 DUP6 DUP6 LT ISZERO PUSH2 0x1525 JUMP JUMPDEST DUP6 DUP4 MSTORE DUP3 DUP8 MSTORE DUP3 KECCAK256 SWAP2 MSTORE DUP5 MSTORE SUB DUP13 DUP13 KECCAK256 SSTORE DUP11 MSTORE DUP10 DUP2 MSTORE DUP11 DUP11 KECCAK256 SWAP1 DUP10 DUP12 MSTORE MSTORE PUSH2 0xBAF DUP11 DUP11 KECCAK256 SWAP2 DUP3 SLOAD PUSH2 0x1584 JUMP JUMPDEST SWAP1 SSTORE PUSH2 0x140C JUMP JUMPDEST PUSH2 0xB39 JUMP JUMPDEST POP SWAP5 SWAP9 SWAP8 SWAP1 SWAP7 SWAP3 SWAP6 SWAP8 DUP5 DUP8 DUP11 MLOAD DUP12 DUP2 MSTORE PUSH32 0x4A39DC06D4C0DBC64B70AF90FD698A233A518AA5D07E595D983B8C0526C8F7FB PUSH2 0xBF8 DUP14 DUP4 ADD DUP9 PUSH2 0x12FB JUMP JUMPDEST SWAP2 DUP1 DUP4 SUB PUSH1 0x20 DUP3 ADD MSTORE DUP1 PUSH2 0xC0D CALLER SWAP5 DUP12 PUSH2 0x12FB JUMP JUMPDEST SUB SWAP1 LOG4 EXTCODESIZE PUSH2 0xC19 JUMPI DUP9 DUP1 RETURN JUMPDEST DUP8 SWAP9 SWAP7 SWAP8 MLOAD SWAP5 DUP6 SWAP4 DUP5 SWAP4 PUSH4 0xBC197C81 PUSH1 0xE0 SHL SWAP9 DUP10 DUP7 MSTORE CALLER DUP13 DUP8 ADD MSTORE PUSH1 0x24 DUP7 ADD MSTORE PUSH1 0x44 DUP6 ADD PUSH1 0xA0 SWAP1 MSTORE PUSH1 0xA4 DUP6 ADD PUSH2 0xC4E SWAP2 PUSH2 0x12FB JUMP JUMPDEST DUP3 DUP6 DUP3 SUB ADD PUSH1 0x64 DUP7 ADD MSTORE PUSH2 0xC61 SWAP2 PUSH2 0x12FB JUMP JUMPDEST SWAP1 DUP4 DUP3 SUB ADD PUSH1 0x84 DUP5 ADD MSTORE PUSH2 0xC74 SWAP2 PUSH2 0x11A7 JUMP JUMPDEST SUB DUP2 DUP7 GAS SWAP5 PUSH1 0x20 SWAP6 CALL DUP4 SWAP2 DUP2 PUSH2 0xD0D JUMPI JUMPDEST POP PUSH2 0xCED JUMPI POP POP POP PUSH2 0xC95 PUSH2 0x15FA JUMP JUMPDEST PUSH4 0x8C379A0 EQ PUSH2 0xCB9 JUMPI JUMPDEST SWAP1 MLOAD PUSH3 0x461BCD PUSH1 0xE5 SHL DUP2 MSTORE SWAP1 DUP2 SWAP1 PUSH2 0x336 SWAP1 DUP3 ADD PUSH2 0x1687 JUMP JUMPDEST PUSH2 0xCC1 PUSH2 0x1618 JUMP JUMPDEST DUP1 PUSH2 0xCCC JUMPI POP PUSH2 0xCA0 JUMP JUMPDEST PUSH2 0x336 SWAP1 PUSH1 0x20 SWAP4 MLOAD SWAP4 DUP5 SWAP4 PUSH3 0x461BCD PUSH1 0xE5 SHL DUP6 MSTORE DUP5 ADD MSTORE PUSH1 0x24 DUP4 ADD SWAP1 PUSH2 0x11A7 JUMP JUMPDEST SWAP2 SWAP4 SWAP2 PUSH1 0x1 PUSH1 0x1 PUSH1 0xE0 SHL SUB NOT AND SUB PUSH2 0x38D JUMPI POP POP DUP2 DUP1 DUP1 DUP1 DUP1 DUP1 DUP1 DUP1 DUP9 DUP1 RETURN JUMPDEST PUSH2 0xD26 SWAP2 SWAP3 POP PUSH1 0x20 RETURNDATASIZE DUP2 GT PUSH2 0x3CE JUMPI PUSH2 0x3BF DUP2 DUP4 PUSH2 0x11FE JUMP JUMPDEST SWAP1 DUP7 PUSH2 0xC85 JUMP JUMPDEST DUP7 MLOAD PUSH3 0x461BCD PUSH1 0xE5 SHL DUP2 MSTORE PUSH1 0x20 DUP2 DUP5 ADD MSTORE PUSH1 0x28 PUSH1 0x24 DUP3 ADD MSTORE PUSH32 0x455243313135353A2069647320616E6420616D6F756E7473206C656E67746820 PUSH1 0x44 DUP3 ADD MSTORE PUSH8 0xDAD2E6DAC2E8C6D PUSH1 0xC3 SHL PUSH1 0x64 DUP3 ADD MSTORE PUSH1 0x84 SWAP1 REVERT JUMPDEST POP DUP4 DUP7 MSTORE PUSH1 0x1 PUSH1 0x20 SWAP1 DUP2 MSTORE DUP8 DUP8 KECCAK256 CALLER DUP9 MSTORE SWAP1 MSTORE DUP7 DUP7 KECCAK256 SLOAD PUSH1 0xFF AND PUSH2 0xB17 JUMP JUMPDEST DUP4 DUP1 REVERT JUMPDEST POP DUP3 SWAP1 CALLVALUE PUSH2 0x446 JUMPI DUP3 PUSH1 0x3 NOT CALLDATASIZE ADD SLT PUSH2 0x446 JUMPI PUSH8 0xFFFFFFFFFFFFFFFF PUSH1 0x24 CALLDATALOAD DUP2 DUP2 GT PUSH2 0xDA0 JUMPI CALLDATASIZE PUSH1 0x23 DUP3 ADD SLT ISZERO PUSH2 0xDA0 JUMPI PUSH2 0xDE8 SWAP1 CALLDATASIZE SWAP1 PUSH1 0x24 DUP2 DUP7 ADD CALLDATALOAD SWAP2 ADD PUSH2 0x1220 JUMP JUMPDEST SWAP4 PUSH2 0xDF1 PUSH2 0x132F JUMP JUMPDEST DUP5 MLOAD ISZERO PUSH2 0xF16 JUMPI DUP3 CALLDATALOAD DUP5 MSTORE PUSH1 0x20 SWAP1 PUSH1 0x6 DUP3 MSTORE DUP5 KECCAK256 SWAP3 DUP6 MLOAD SWAP3 DUP4 GT PUSH2 0xF03 JUMPI POP PUSH2 0xE1A DUP4 SLOAD PUSH2 0x1701 JUMP JUMPDEST PUSH1 0x1F DUP2 GT PUSH2 0xEC0 JUMPI JUMPDEST POP DUP1 PUSH1 0x1F DUP4 GT PUSH1 0x1 EQ PUSH2 0xE5E JUMPI POP DUP4 SWAP5 DUP3 SWAP4 SWAP5 SWAP3 PUSH2 0xE53 JUMPI JUMPDEST POP POP DUP2 PUSH1 0x1 SHL SWAP2 PUSH1 0x0 NOT SWAP1 PUSH1 0x3 SHL SHR NOT AND OR SWAP1 SSTORE DUP1 RETURN JUMPDEST ADD MLOAD SWAP1 POP DUP5 DUP1 PUSH2 0xE3C JUMP JUMPDEST SWAP1 PUSH1 0x1F NOT DUP4 AND SWAP6 DUP5 DUP7 MSTORE DUP3 DUP7 KECCAK256 SWAP3 DUP7 SWAP1 JUMPDEST DUP9 DUP3 LT PUSH2 0xEA8 JUMPI POP POP DUP4 PUSH1 0x1 SWAP6 SWAP7 SWAP8 LT PUSH2 0xE8F JUMPI JUMPDEST POP POP POP DUP2 SHL ADD SWAP1 SSTORE DUP1 RETURN JUMPDEST ADD MLOAD PUSH1 0x0 NOT PUSH1 0xF8 DUP5 PUSH1 0x3 SHL AND SHR NOT AND SWAP1 SSTORE DUP5 DUP1 DUP1 PUSH2 0xE84 JUMP JUMPDEST DUP1 PUSH1 0x1 DUP6 SWAP7 DUP3 SWAP5 SWAP7 DUP7 ADD MLOAD DUP2 SSTORE ADD SWAP6 ADD SWAP4 ADD SWAP1 PUSH2 0xE6F JUMP JUMPDEST DUP4 DUP6 MSTORE DUP2 DUP6 KECCAK256 PUSH1 0x1F DUP5 ADD PUSH1 0x5 SHR DUP2 ADD SWAP2 DUP4 DUP6 LT PUSH2 0xEF9 JUMPI JUMPDEST PUSH1 0x1F ADD PUSH1 0x5 SHR ADD SWAP1 JUMPDEST DUP2 DUP2 LT PUSH2 0xEEE JUMPI POP PUSH2 0xE23 JUMP JUMPDEST DUP6 DUP2 SSTORE PUSH1 0x1 ADD PUSH2 0xEE1 JUMP JUMPDEST SWAP1 SWAP2 POP DUP2 SWAP1 PUSH2 0xED8 JUMP JUMPDEST PUSH4 0x4E487B71 PUSH1 0xE0 SHL DUP6 MSTORE PUSH1 0x41 SWAP1 MSTORE PUSH1 0x24 DUP5 REVERT JUMPDEST MLOAD PUSH3 0x461BCD PUSH1 0xE5 SHL DUP2 MSTORE PUSH1 0x20 DUP2 DUP5 ADD MSTORE PUSH1 0x13 PUSH1 0x24 DUP3 ADD MSTORE PUSH19 0x4349442063616E6E6F7420626520656D707479 PUSH1 0x68 SHL PUSH1 0x44 DUP3 ADD MSTORE PUSH1 0x64 SWAP1 REVERT JUMPDEST POP DUP3 CALLVALUE PUSH2 0x8BE JUMPI PUSH1 0x20 SWAP2 DUP3 PUSH1 0x3 NOT CALLDATASIZE ADD SLT PUSH2 0x446 JUMPI DUP1 CALLDATALOAD DUP3 MSTORE PUSH1 0x6 DUP4 MSTORE DUP4 DUP3 KECCAK256 SWAP1 DUP5 MLOAD SWAP3 DUP4 DUP2 DUP5 SLOAD PUSH2 0xF7F DUP2 PUSH2 0x1701 JUMP JUMPDEST SWAP4 DUP5 DUP5 MSTORE DUP9 DUP5 ADD SWAP7 PUSH1 0x1 SWAP3 DUP11 DUP5 DUP3 AND SWAP2 DUP3 PUSH1 0x0 EQ PUSH2 0x1094 JUMPI POP POP PUSH1 0x1 EQ PUSH2 0x1058 JUMPI JUMPDEST POP POP POP PUSH2 0xFB0 SWAP3 POP SUB DUP5 PUSH2 0x11FE JUMP JUMPDEST DUP3 MLOAD ISZERO PUSH2 0x101D JUMPI POP SWAP3 PUSH2 0x100E PUSH1 0x35 PUSH2 0xA07 SWAP4 PUSH2 0xFE7 SWAP7 DUP5 MLOAD SWAP8 DUP9 SWAP3 PUSH7 0x697066733A2F2F PUSH1 0xC8 SHL DUP10 DUP6 ADD MSTORE MLOAD DUP1 SWAP3 PUSH1 0x27 DUP6 ADD SWAP1 PUSH2 0x1184 JUMP JUMPDEST DUP2 ADD PUSH14 0x17B6B2BA30B230BA30973539B7B7 PUSH1 0x91 SHL PUSH1 0x27 DUP3 ADD MSTORE SUB PUSH1 0x15 DUP2 ADD DUP8 MSTORE ADD DUP6 PUSH2 0x11FE JUMP JUMPDEST MLOAD SWAP3 DUP3 DUP5 SWAP4 DUP5 MSTORE DUP4 ADD SWAP1 PUSH2 0x11A7 JUMP JUMPDEST DUP5 MLOAD PUSH3 0x461BCD PUSH1 0xE5 SHL DUP2 MSTORE SWAP1 DUP2 ADD DUP5 SWAP1 MSTORE PUSH1 0x15 PUSH1 0x24 DUP3 ADD MSTORE PUSH21 0x155492481B9BDD081CD95D08199BDC88195D995B9D PUSH1 0x5A SHL PUSH1 0x44 DUP3 ADD MSTORE PUSH1 0x64 SWAP1 REVERT JUMPDEST DUP10 SWAP4 POP DUP2 SWAP3 SWAP2 MSTORE DUP3 DUP3 KECCAK256 JUMPDEST DUP6 DUP4 LT PUSH2 0x107C JUMPI POP POP PUSH2 0xFB0 SWAP4 POP DUP3 ADD ADD DUP9 DUP1 DUP1 PUSH2 0xFA1 JUMP JUMPDEST DUP1 SLOAD DUP4 DUP11 ADD DUP6 ADD MSTORE DUP9 SWAP5 POP DUP10 SWAP4 SWAP1 SWAP3 ADD SWAP2 DUP2 ADD PUSH2 0x1063 JUMP JUMPDEST SWAP4 POP SWAP5 POP POP POP PUSH2 0xFB0 SWAP5 SWAP2 POP PUSH1 0xFF NOT AND DUP7 MSTORE ISZERO ISZERO PUSH1 0x5 SHL DUP3 ADD ADD DUP9 DUP1 DUP1 PUSH2 0xFA1 JUMP JUMPDEST POP CALLVALUE PUSH2 0x18F JUMPI PUSH1 0x20 CALLDATASIZE PUSH1 0x3 NOT ADD SLT PUSH2 0x18F JUMPI CALLDATALOAD SWAP1 PUSH4 0xFFFFFFFF PUSH1 0xE0 SHL DUP3 AND DUP1 SWAP3 SUB PUSH2 0x18F JUMPI PUSH1 0x20 SWAP3 POP PUSH4 0x6CDB3D13 PUSH1 0xE1 SHL DUP3 EQ SWAP2 DUP3 ISZERO PUSH2 0x1112 JUMPI JUMPDEST DUP3 ISZERO PUSH2 0x1101 JUMPI JUMPDEST POP MLOAD SWAP1 ISZERO ISZERO DUP2 MSTORE RETURN JUMPDEST PUSH4 0x1FFC9A7 PUSH1 0xE0 SHL EQ SWAP2 POP CODESIZE PUSH2 0x10F8 JUMP JUMPDEST PUSH4 0x3A24D07 PUSH1 0xE2 SHL DUP2 EQ SWAP3 POP PUSH2 0x10F1 JUMP JUMPDEST POP POP CALLVALUE PUSH2 0x446 JUMPI DUP1 PUSH1 0x3 NOT CALLDATASIZE ADD SLT PUSH2 0x446 JUMPI PUSH1 0x20 SWAP1 PUSH2 0x114C PUSH2 0x1143 PUSH2 0x1153 JUMP JUMPDEST PUSH1 0x24 CALLDATALOAD SWAP1 PUSH2 0x1387 JUMP JUMPDEST SWAP1 MLOAD SWAP1 DUP2 MSTORE RETURN JUMPDEST PUSH1 0x4 CALLDATALOAD SWAP1 PUSH1 0x1 PUSH1 0x1 PUSH1 0xA0 SHL SUB DUP3 AND DUP3 SUB PUSH2 0x1169 JUMPI JUMP JUMPDEST PUSH1 0x0 DUP1 REVERT JUMPDEST PUSH1 0x24 CALLDATALOAD SWAP1 PUSH1 0x1 PUSH1 0x1 PUSH1 0xA0 SHL SUB DUP3 AND DUP3 SUB PUSH2 0x1169 JUMPI JUMP JUMPDEST PUSH1 0x0 JUMPDEST DUP4 DUP2 LT PUSH2 0x1197 JUMPI POP POP PUSH1 0x0 SWAP2 ADD MSTORE JUMP JUMPDEST DUP2 DUP2 ADD MLOAD DUP4 DUP3 ADD MSTORE PUSH1 0x20 ADD PUSH2 0x1187 JUMP JUMPDEST SWAP1 PUSH1 0x20 SWAP2 PUSH2 0x11C0 DUP2 MLOAD DUP1 SWAP3 DUP2 DUP6 MSTORE DUP6 DUP1 DUP7 ADD SWAP2 ADD PUSH2 0x1184 JUMP JUMPDEST PUSH1 0x1F ADD PUSH1 0x1F NOT AND ADD ADD SWAP1 JUMP JUMPDEST PUSH1 0x40 DUP2 ADD SWAP1 DUP2 LT PUSH8 0xFFFFFFFFFFFFFFFF DUP3 GT OR PUSH2 0x11E8 JUMPI PUSH1 0x40 MSTORE JUMP JUMPDEST PUSH4 0x4E487B71 PUSH1 0xE0 SHL PUSH1 0x0 MSTORE PUSH1 0x41 PUSH1 0x4 MSTORE PUSH1 0x24 PUSH1 0x0 REVERT JUMPDEST SWAP1 PUSH1 0x1F DUP1 NOT SWAP2 ADD AND DUP2 ADD SWAP1 DUP2 LT PUSH8 0xFFFFFFFFFFFFFFFF DUP3 GT OR PUSH2 0x11E8 JUMPI PUSH1 0x40 MSTORE JUMP JUMPDEST SWAP3 SWAP2 SWAP3 PUSH8 0xFFFFFFFFFFFFFFFF DUP3 GT PUSH2 0x11E8 JUMPI PUSH1 0x40 MLOAD SWAP2 PUSH2 0x124A PUSH1 0x1F DUP3 ADD PUSH1 0x1F NOT AND PUSH1 0x20 ADD DUP5 PUSH2 0x11FE JUMP JUMPDEST DUP3 SWAP5 DUP2 DUP5 MSTORE DUP2 DUP4 ADD GT PUSH2 0x1169 JUMPI DUP3 DUP2 PUSH1 0x20 SWAP4 DUP5 PUSH1 0x0 SWAP7 ADD CALLDATACOPY ADD ADD MSTORE JUMP JUMPDEST PUSH8 0xFFFFFFFFFFFFFFFF DUP2 GT PUSH2 0x11E8 JUMPI PUSH1 0x5 SHL PUSH1 0x20 ADD SWAP1 JUMP JUMPDEST DUP2 PUSH1 0x1F DUP3 ADD SLT ISZERO PUSH2 0x1169 JUMPI DUP1 CALLDATALOAD SWAP2 PUSH2 0x1296 DUP4 PUSH2 0x1267 JUMP JUMPDEST SWAP3 PUSH2 0x12A4 PUSH1 0x40 MLOAD SWAP5 DUP6 PUSH2 0x11FE JUMP JUMPDEST DUP1 DUP5 MSTORE PUSH1 0x20 SWAP3 DUP4 DUP1 DUP7 ADD SWAP3 PUSH1 0x5 SHL DUP3 ADD ADD SWAP3 DUP4 GT PUSH2 0x1169 JUMPI DUP4 ADD SWAP1 JUMPDEST DUP3 DUP3 LT PUSH2 0x12CE JUMPI POP POP POP POP SWAP1 JUMP JUMPDEST DUP2 CALLDATALOAD DUP2 MSTORE SWAP1 DUP4 ADD SWAP1 DUP4 ADD PUSH2 0x12C0 JUMP JUMPDEST SWAP1 DUP1 PUSH1 0x1F DUP4 ADD SLT ISZERO PUSH2 0x1169 JUMPI DUP2 PUSH1 0x20 PUSH2 0x12F8 SWAP4 CALLDATALOAD SWAP2 ADD PUSH2 0x1220 JUMP JUMPDEST SWAP1 JUMP JUMPDEST SWAP1 DUP2 MLOAD DUP1 DUP3 MSTORE PUSH1 0x20 DUP1 DUP1 SWAP4 ADD SWAP4 ADD SWAP2 PUSH1 0x0 JUMPDEST DUP3 DUP2 LT PUSH2 0x131B JUMPI POP POP POP POP SWAP1 JUMP JUMPDEST DUP4 MLOAD DUP6 MSTORE SWAP4 DUP2 ADD SWAP4 SWAP3 DUP2 ADD SWAP3 PUSH1 0x1 ADD PUSH2 0x130D JUMP JUMPDEST PUSH1 0x3 SLOAD PUSH1 0x1 PUSH1 0x1 PUSH1 0xA0 SHL SUB AND CALLER SUB PUSH2 0x1343 JUMPI JUMP JUMPDEST PUSH1 0x64 PUSH1 0x40 MLOAD PUSH3 0x461BCD PUSH1 0xE5 SHL DUP2 MSTORE PUSH1 0x20 PUSH1 0x4 DUP3 ADD MSTORE PUSH1 0x20 PUSH1 0x24 DUP3 ADD MSTORE PUSH32 0x4F776E61626C653A2063616C6C6572206973206E6F7420746865206F776E6572 PUSH1 0x44 DUP3 ADD MSTORE REVERT JUMPDEST PUSH1 0x1 PUSH1 0x1 PUSH1 0xA0 SHL SUB AND SWAP1 DUP2 ISZERO PUSH2 0x13B4 JUMPI PUSH1 0x0 MSTORE PUSH1 0x0 PUSH1 0x20 MSTORE PUSH1 0x40 PUSH1 0x0 KECCAK256 SWAP1 PUSH1 0x0 MSTORE PUSH1 0x20 MSTORE PUSH1 0x40 PUSH1 0x0 KECCAK256 SLOAD SWAP1 JUMP JUMPDEST PUSH1 0x40 MLOAD PUSH3 0x461BCD PUSH1 0xE5 SHL DUP2 MSTORE PUSH1 0x20 PUSH1 0x4 DUP3 ADD MSTORE PUSH1 0x2A PUSH1 0x24 DUP3 ADD MSTORE PUSH32 0x455243313135353A2061646472657373207A65726F206973206E6F7420612076 PUSH1 0x44 DUP3 ADD MSTORE PUSH10 0x30B634B21037BBB732B9 PUSH1 0xB1 SHL PUSH1 0x64 DUP3 ADD MSTORE PUSH1 0x84 SWAP1 REVERT JUMPDEST PUSH1 0x0 NOT DUP2 EQ PUSH2 0x141B JUMPI PUSH1 0x1 ADD SWAP1 JUMP JUMPDEST PUSH4 0x4E487B71 PUSH1 0xE0 SHL PUSH1 0x0 MSTORE PUSH1 0x11 PUSH1 0x4 MSTORE PUSH1 0x24 PUSH1 0x0 REVERT JUMPDEST DUP1 MLOAD ISZERO PUSH2 0x143E JUMPI PUSH1 0x20 ADD SWAP1 JUMP JUMPDEST PUSH4 0x4E487B71 PUSH1 0xE0 SHL PUSH1 0x0 MSTORE PUSH1 0x32 PUSH1 0x4 MSTORE PUSH1 0x24 PUSH1 0x0 REVERT JUMPDEST DUP1 MLOAD DUP3 LT ISZERO PUSH2 0x143E JUMPI PUSH1 0x20 SWAP2 PUSH1 0x5 SHL ADD ADD SWAP1 JUMP JUMPDEST ISZERO PUSH2 0x146F JUMPI JUMP JUMPDEST PUSH1 0x40 MLOAD PUSH3 0x461BCD PUSH1 0xE5 SHL DUP2 MSTORE PUSH1 0x20 PUSH1 0x4 DUP3 ADD MSTORE PUSH1 0x2E PUSH1 0x24 DUP3 ADD MSTORE PUSH32 0x455243313135353A2063616C6C6572206973206E6F7420746F6B656E206F776E PUSH1 0x44 DUP3 ADD MSTORE PUSH14 0x195C881BDC88185C1C1C9BDD9959 PUSH1 0x92 SHL PUSH1 0x64 DUP3 ADD MSTORE PUSH1 0x84 SWAP1 REVERT JUMPDEST ISZERO PUSH2 0x14D2 JUMPI JUMP JUMPDEST PUSH1 0x40 MLOAD PUSH3 0x461BCD PUSH1 0xE5 SHL DUP2 MSTORE PUSH1 0x20 PUSH1 0x4 DUP3 ADD MSTORE PUSH1 0x25 PUSH1 0x24 DUP3 ADD MSTORE PUSH32 0x455243313135353A207472616E7366657220746F20746865207A65726F206164 PUSH1 0x44 DUP3 ADD MSTORE PUSH5 0x6472657373 PUSH1 0xD8 SHL PUSH1 0x64 DUP3 ADD MSTORE PUSH1 0x84 SWAP1 REVERT JUMPDEST ISZERO PUSH2 0x152C JUMPI JUMP JUMPDEST PUSH1 0x40 MLOAD PUSH3 0x461BCD PUSH1 0xE5 SHL DUP2 MSTORE PUSH1 0x20 PUSH1 0x4 DUP3 ADD MSTORE PUSH1 0x2A PUSH1 0x24 DUP3 ADD MSTORE PUSH32 0x455243313135353A20696E73756666696369656E742062616C616E636520666F PUSH1 0x44 DUP3 ADD MSTORE PUSH10 0x39103A3930B739B332B9 PUSH1 0xB1 SHL PUSH1 0x64 DUP3 ADD MSTORE PUSH1 0x84 SWAP1 REVERT JUMPDEST SWAP2 SWAP1 DUP3 ADD DUP1 SWAP3 GT PUSH2 0x141B JUMPI JUMP JUMPDEST SWAP1 DUP2 PUSH1 0x20 SWAP2 SUB SLT PUSH2 0x1169 JUMPI MLOAD PUSH1 0x1 PUSH1 0x1 PUSH1 0xE0 SHL SUB NOT DUP2 AND DUP2 SUB PUSH2 0x1169 JUMPI SWAP1 JUMP JUMPDEST PUSH1 0x80 SWAP1 PUSH1 0x20 DUP2 MSTORE PUSH1 0x28 PUSH1 0x20 DUP3 ADD MSTORE PUSH32 0x455243313135353A204552433131353552656365697665722072656A65637465 PUSH1 0x40 DUP3 ADD MSTORE PUSH8 0x6420746F6B656E73 PUSH1 0xC0 SHL PUSH1 0x60 DUP3 ADD MSTORE ADD SWAP1 JUMP JUMPDEST PUSH1 0x0 SWAP1 PUSH1 0x3 RETURNDATASIZE GT PUSH2 0x1607 JUMPI JUMP JUMPDEST SWAP1 POP PUSH1 0x4 PUSH1 0x0 DUP1 RETURNDATACOPY PUSH1 0x0 MLOAD PUSH1 0xE0 SHR SWAP1 JUMP JUMPDEST PUSH1 0x0 PUSH1 0x44 RETURNDATASIZE LT PUSH2 0x12F8 JUMPI PUSH1 0x40 MLOAD PUSH1 0x3 NOT SWAP2 RETURNDATASIZE DUP4 ADD PUSH1 0x4 DUP4 RETURNDATACOPY DUP2 MLOAD PUSH8 0xFFFFFFFFFFFFFFFF SWAP2 DUP3 DUP3 GT RETURNDATASIZE PUSH1 0x24 DUP5 ADD GT OR PUSH2 0x1676 JUMPI DUP2 DUP5 ADD SWAP5 DUP6 MLOAD SWAP4 DUP5 GT PUSH2 0x167E JUMPI RETURNDATASIZE DUP6 ADD ADD PUSH1 0x20 DUP5 DUP8 ADD ADD GT PUSH2 0x1676 JUMPI POP PUSH2 0x12F8 SWAP3 SWAP2 ADD PUSH1 0x20 ADD SWAP1 PUSH2 0x11FE JUMP JUMPDEST SWAP5 SWAP4 POP POP POP POP JUMP JUMPDEST POP SWAP5 SWAP4 POP POP POP POP JUMP JUMPDEST PUSH1 0x80 SWAP1 PUSH1 0x20 DUP2 MSTORE PUSH1 0x34 PUSH1 0x20 DUP3 ADD MSTORE PUSH32 0x455243313135353A207472616E7366657220746F206E6F6E2D45524331313535 PUSH1 0x40 DUP3 ADD MSTORE PUSH20 0x2932B1B2B4BB32B91034B6B83632B6B2B73A32B9 PUSH1 0x61 SHL PUSH1 0x60 DUP3 ADD MSTORE ADD SWAP1 JUMP JUMPDEST PUSH1 0x40 MLOAD SWAP1 PUSH2 0x16E9 DUP3 PUSH2 0x11CC JUMP JUMPDEST PUSH1 0x1 DUP3 MSTORE PUSH1 0x20 CALLDATASIZE DUP2 DUP5 ADD CALLDATACOPY PUSH2 0x16FD DUP3 PUSH2 0x1431 JUMP JUMPDEST MSTORE SWAP1 JUMP JUMPDEST SWAP1 PUSH1 0x1 DUP3 DUP2 SHR SWAP3 AND DUP1 ISZERO PUSH2 0x1731 JUMPI JUMPDEST PUSH1 0x20 DUP4 LT EQ PUSH2 0x171B JUMPI JUMP JUMPDEST PUSH4 0x4E487B71 PUSH1 0xE0 SHL PUSH1 0x0 MSTORE PUSH1 0x22 PUSH1 0x4 MSTORE PUSH1 0x24 PUSH1 0x0 REVERT JUMPDEST SWAP2 PUSH1 0x7F AND SWAP2 PUSH2 0x1710 JUMP JUMPDEST SWAP1 PUSH1 0x1 DUP1 PUSH1 0xA0 SHL SUB PUSH1 0x4 SWAP2 DUP2 DUP4 SLOAD AND SWAP1 PUSH1 0x40 SWAP3 DUP4 MLOAD SWAP6 PUSH4 0x70A08231 PUSH1 0xE0 SHL DUP8 MSTORE AND DUP1 DUP6 DUP8 ADD MSTORE PUSH1 0x20 SWAP2 PUSH1 0x24 SWAP1 DUP4 DUP9 DUP4 DUP2 DUP9 GAS STATICCALL SWAP8 DUP9 ISZERO PUSH2 0x1933 JUMPI PUSH1 0x0 SWAP9 PUSH2 0x1904 JUMPI JUMPDEST POP DUP8 ISZERO PUSH2 0x18F7 JUMPI PUSH1 0x0 JUMPDEST DUP9 DUP2 LT PUSH2 0x179C JUMPI POP POP POP POP POP POP POP POP POP PUSH1 0x0 SWAP1 JUMP JUMPDEST DUP7 MLOAD PUSH4 0x2F745C59 PUSH1 0xE0 SHL DUP2 MSTORE DUP5 DUP10 DUP3 ADD MSTORE DUP2 DUP5 DUP3 ADD MSTORE DUP6 DUP2 PUSH1 0x44 DUP2 DUP11 GAS STATICCALL SWAP1 DUP2 ISZERO PUSH2 0x188D JUMPI PUSH1 0x0 SWAP2 PUSH2 0x18CA JUMPI JUMPDEST POP DUP3 DUP9 MLOAD PUSH4 0x7510CFAF PUSH1 0xE0 SHL DUP2 MSTORE DUP3 DUP12 DUP3 ADD MSTORE DUP8 DUP2 DUP8 DUP2 DUP13 GAS STATICCALL PUSH1 0x0 SWAP2 DUP2 PUSH2 0x1898 JUMPI JUMPDEST POP PUSH2 0x1802 JUMPI POP POP POP PUSH2 0x17FD SWAP1 PUSH2 0x140C JUMP JUMPDEST PUSH2 0x1787 JUMP JUMPDEST EQ SWAP1 DUP2 PUSH2 0x1826 JUMPI JUMPDEST POP PUSH2 0x1818 JUMPI PUSH2 0x17FD SWAP1 PUSH2 0x140C JUMP JUMPDEST POP POP POP POP POP POP POP POP POP PUSH1 0x1 SWAP1 JUMP JUMPDEST SWAP1 POP DUP8 MLOAD SWAP1 PUSH4 0xB3474D7 PUSH1 0xE2 SHL DUP3 MSTORE DUP10 DUP3 ADD MSTORE DUP6 DUP2 DUP6 DUP2 DUP11 GAS STATICCALL SWAP1 DUP2 ISZERO PUSH2 0x188D JUMPI PUSH1 0x0 SWAP2 PUSH2 0x1857 JUMPI JUMPDEST POP ISZERO CODESIZE PUSH2 0x180A JUMP JUMPDEST DUP7 DUP2 DUP2 RETURNDATASIZE DUP4 GT PUSH2 0x1886 JUMPI JUMPDEST PUSH2 0x186C DUP2 DUP4 PUSH2 0x11FE JUMP JUMPDEST DUP2 ADD SUB SLT PUSH2 0x446 JUMPI MLOAD SWAP1 DUP2 ISZERO ISZERO DUP3 SUB PUSH2 0x8BE JUMPI POP CODESIZE PUSH2 0x184F JUMP JUMPDEST POP RETURNDATASIZE PUSH2 0x1862 JUMP JUMPDEST DUP9 MLOAD RETURNDATASIZE PUSH1 0x0 DUP3 RETURNDATACOPY RETURNDATASIZE SWAP1 REVERT JUMPDEST SWAP2 SWAP1 SWAP3 POP DUP9 DUP3 DUP2 RETURNDATASIZE DUP4 GT PUSH2 0x18C3 JUMPI JUMPDEST PUSH2 0x18B1 DUP2 DUP4 PUSH2 0x11FE JUMP JUMPDEST DUP2 ADD SUB SLT PUSH2 0x8BE JUMPI POP MLOAD DUP5 SWAP2 CODESIZE PUSH2 0x17EC JUMP JUMPDEST POP RETURNDATASIZE PUSH2 0x18A7 JUMP JUMPDEST SWAP1 DUP7 DUP3 DUP2 RETURNDATASIZE DUP4 GT PUSH2 0x18F0 JUMPI JUMPDEST PUSH2 0x18E0 DUP2 DUP4 PUSH2 0x11FE JUMP JUMPDEST DUP2 ADD SUB SLT PUSH2 0x8BE JUMPI POP MLOAD CODESIZE PUSH2 0x17C9 JUMP JUMPDEST POP RETURNDATASIZE PUSH2 0x18D6 JUMP JUMPDEST POP POP POP POP POP POP POP POP PUSH1 0x0 SWAP1 JUMP JUMPDEST SWAP1 SWAP8 DUP5 DUP3 DUP2 RETURNDATASIZE DUP4 GT PUSH2 0x192C JUMPI JUMPDEST PUSH2 0x191B DUP2 DUP4 PUSH2 0x11FE JUMP JUMPDEST DUP2 ADD SUB SLT PUSH2 0x8BE JUMPI POP MLOAD SWAP7 CODESIZE PUSH2 0x177D JUMP JUMPDEST POP RETURNDATASIZE PUSH2 0x1911 JUMP JUMPDEST DUP7 MLOAD RETURNDATASIZE PUSH1 0x0 DUP3 RETURNDATACOPY RETURNDATASIZE SWAP1 REVERT INVALID LOG2 PUSH5 0x6970667358 0x22 SLT KECCAK256 PUSH31 0xF6622E22441BF863D692EC0050D4E15F2FC14F818F1540CCF55A0FBA30CA72 PUSH5 0x736F6C6343 STOP ADDMOD EQ STOP CALLER "},"methodIdentifiers":{"balanceOf(address,uint256)":"00fdd58e","balanceOfBatch(address[],uint256[])":"4e1273f4","claimPOAP(uint256)":"9365fc87","hasClaimed(uint256,address)":"873f6f9e","isApprovedForAll(address,address)":"e985e9c5","owner()":"8da5cb5b","renounceOwnership()":"715018a6","safeBatchTransferFrom(address,address,uint256[],uint256[],bytes)":"2eb2c2d6","safeTransferFrom(address,address,uint256,uint256,bytes)":"f242432a","setApprovalForAll(address,bool)":"a22cb465","setEventURI(uint256,string)":"16d35d71","supportsInterface(bytes4)":"01ffc9a7","ticketContract()":"58a86e1d","transferOwnership(address)":"f2fde38b","uri(uint256)":"0e89341c"}},"storageLayout":{"storage":[{"astId":138,"contract":"contracts/POAPDistributor.sol:POAPDistributor","label":"_balances","offset":0,"slot":"0","type":"t_mapping(t_uint256,t_mapping(t_address,t_uint256))"},{"astId":144,"contract":"contracts/POAPDistributor.sol:POAPDistributor","label":"_operatorApprovals","offset":0,"slot":"1","type":"t_mapping(t_address,t_mapping(t_address,t_bool))"},{"astId":146,"contract":"contracts/POAPDistributor.sol:POAPDistributor","label":"_uri","offset":0,"slot":"2","type":"t_string_storage"},{"astId":7,"contract":"contracts/POAPDistributor.sol:POAPDistributor","label":"_owner","offset":0,"slot":"3","type":"t_address"},{"astId":5222,"contract":"contracts/POAPDistributor.sol:POAPDistributor","label":"ticketContract","offset":0,"slot":"4","type":"t_contract(TicketNFT)5915"},{"astId":5228,"contract":"contracts/POAPDistributor.sol:POAPDistributor","label":"_hasClaimed","offset":0,"slot":"5","type":"t_mapping(t_uint256,t_mapping(t_address,t_bool))"},{"astId":5232,"contract":"contracts/POAPDistributor.sol:POAPDistributor","label":"_eventCIDs","offset":0,"slot":"6","type":"t_mapping(t_uint256,t_string_storage)"}],"types":{"t_address":{"encoding":"inplace","label":"address","numberOfBytes":"20"},"t_bool":{"encoding":"inplace","label":"bool","numberOfBytes":"1"},"t_contract(TicketNFT)5915":{"encoding":"inplace","label":"contract TicketNFT","numberOfBytes":"20"},"t_mapping(t_address,t_bool)":{"encoding":"mapping","key":"t_address","label":"mapping(address => bool)","numberOfBytes":"32","value":"t_bool"},"t_mapping(t_address,t_mapping(t_address,t_bool))":{"encoding":"mapping","key":"t_address","label":"mapping(address => mapping(address => bool))","numberOfBytes":"32","value":"t_mapping(t_address,t_bool)"},"t_mapping(t_address,t_uint256)":{"encoding":"mapping","key":"t_address","label":"mapping(address => uint256)","numberOfBytes":"32","value":"t_uint256"},"t_mapping(t_uint256,t_mapping(t_address,t_bool))":{"encoding":"mapping","key":"t_uint256","label":"mapping(uint256 => mapping(address => bool))","numberOfBytes":"32","value":"t_mapping(t_address,t_bool)"},"t_mapping(t_uint256,t_mapping(t_address,t_uint256))":{"encoding":"mapping","key":"t_uint256","label":"mapping(uint256 => mapping(address => uint256))","numberOfBytes":"32","value":"t_mapping(t_address,t_uint256)"},"t_mapping(t_uint256,t_string_storage)":{"encoding":"mapping","key":"t_uint256","label":"mapping(uint256 => string)","numberOfBytes":"32","value":"t_string_storage"},"t_string_storage":{"encoding":"bytes","label":"string","numberOfBytes":"32"},"t_uint256":{"encoding":"inplace","label":"uint256","numberOfBytes":"32"}}}}}}