{"contracts/TicketNFT.sol":{"TicketNFT":{"abi":[{"inputs":[{"internalType":"address","name":"eventFactoryAddress","type":"address"}],"stateMutability":"nonpayable","type":"constructor"},{"anonymous":false,"inputs":[{"indexed":true,"internalType":"address","name":"owner","type":"address"},{"indexed":true,"internalType":"address","name":"approved","type":"address"},{"indexed":true,"internalType":"uint256","name":"tokenId","type":"uint256"}],"name":"Approval","type":"event"},{"anonymous":false,"inputs":[{"indexed":true,"internalType":"address","name":"owner","type":"address"},{"indexed":true,"internalType":"address","name":"operator","type":"address"},{"indexed":false,"internalType":"bool","name":"approved","type":"bool"}],"name":"ApprovalForAll","type":"event"},{"anonymous":false,"inputs":[{"indexed":true,"internalType":"address","name":"previousOwner","type":"address"},{"indexed":true,"internalType":"address","name":"newOwner","type":"address"}],"name":"OwnershipTransferred","type":"event"},{"anonymous":false,"inputs":[{"indexed":true,"internalType":"uint256","name":"tokenId","type":"uint256"},{"indexed":true,"internalType":"uint256","name":"eventId","type":"uint256"},{"indexed":true,"internalType":"address","name":"owner","type":"address"}],"name":"TicketBurned","type":"event"},{"anonymous":false,"inputs":[{"indexed":true,"internalType":"uint256","name":"tokenId","type":"uint256"},{"indexed":true,"internalType":"address","name":"attendee","type":"address"},{"indexed":true,"internalType":"uint256","name":"eventId","type":"uint256"}],"name":"TicketMinted","type":"event"},{"anonymous":false,"inputs":[{"indexed":true,"internalType":"uint256","name":"tokenId","type":"uint256"},{"indexed":true,"internalType":"uint256","name":"eventId","type":"uint256"},{"indexed":true,"internalType":"address","name":"owner","type":"address"}],"name":"TicketUsed","type":"event"},{"anonymous":false,"inputs":[{"indexed":true,"internalType":"uint256","name":"eventId","type":"uint256"},{"indexed":true,"internalType":"address","name":"attendee","type":"address"},{"indexed":false,"internalType":"uint256","name":"amountConverted","type":"uint256"},{"indexed":false,"internalType":"uint256","name":"remainingERC1155Balance","type":"uint256"}],"name":"TicketsConverted","type":"event"},{"anonymous":false,"inputs":[{"indexed":true,"internalType":"address","name":"from","type":"address"},{"indexed":true,"internalType":"address","name":"to","type":"address"},{"indexed":true,"internalType":"uint256","name":"tokenId","type":"uint256"}],"name":"Transfer","type":"event"},{"inputs":[{"internalType":"address","name":"to","type":"address"},{"internalType":"uint256","name":"tokenId","type":"uint256"}],"name":"approve","outputs":[],"stateMutability":"nonpayable","type":"function"},{"inputs":[{"internalType":"address","name":"owner","type":"address"}],"name":"balanceOf","outputs":[{"internalType":"uint256","name":"","type":"uint256"}],"stateMutability":"view","type":"function"},{"inputs":[{"internalType":"uint256","name":"tokenId","type":"uint256"}],"name":"burnTicket","outputs":[],"stateMutability":"nonpayable","type":"function"},{"inputs":[],"name":"eventFactory","outputs":[{"internalType":"contract EventFactory","name":"","type":"address"}],"stateMutability":"view","type":"function"},{"inputs":[{"internalType":"uint256","name":"tokenId","type":"uint256"}],"name":"getApproved","outputs":[{"internalType":"address","name":"","type":"address"}],"stateMutability":"view","type":"function"},{"inputs":[{"internalType":"uint256","name":"tokenId","type":"uint256"}],"name":"getTicketEventId","outputs":[{"internalType":"uint256","name":"","type":"uint256"}],"stateMutability":"view","type":"function"},{"inputs":[{"internalType":"address","name":"owner","type":"address"},{"internalType":"address","name":"operator","type":"address"}],"name":"isApprovedForAll","outputs":[{"internalType":"bool","name":"","type":"bool"}],"stateMutability":"view","type":"function"},{"inputs":[{"internalType":"uint256","name":"tokenId","type":"uint256"}],"name":"isTicketUsed","outputs":[{"internalType":"bool","name":"","type":"bool"}],"stateMutability":"view","type":"function"},{"inputs":[{"internalType":"address","name":"attendee","type":"address"},{"internalType":"uint256","name":"eventId","type":"uint256"},{"internalType":"string","name":"ipfsCID","type":"string"}],"name":"mintTicket","outputs":[],"stateMutability":"nonpayable","type":"function"},{"inputs":[{"internalType":"uint256","name":"eventId","type":"uint256"},{"internalType":"uint256","name":"amount","type":"uint256"}],"name":"mintTicketsFromFactory","outputs":[],"stateMutability":"nonpayable","type":"function"},{"inputs":[],"name":"minter","outputs":[{"internalType":"address","name":"","type":"address"}],"stateMutability":"view","type":"function"},{"inputs":[],"name":"name","outputs":[{"internalType":"string","name":"","type":"string"}],"stateMutability":"view","type":"function"},{"inputs":[],"name":"owner","outputs":[{"internalType":"address","name":"","type":"address"}],"stateMutability":"view","type":"function"},{"inputs":[{"internalType":"uint256","name":"tokenId","type":"uint256"}],"name":"ownerOf","outputs":[{"internalType":"address","name":"","type":"address"}],"stateMutability":"view","type":"function"},{"inputs":[],"name":"renounceOwnership","outputs":[],"stateMutability":"nonpayable","type":"function"},{"inputs":[{"internalType":"address","name":"from","type":"address"},{"internalType":"address","name":"to","type":"address"},{"internalType":"uint256","name":"tokenId","type":"uint256"}],"name":"safeTransferFrom","outputs":[],"stateMutability":"nonpayable","type":"function"},{"inputs":[{"internalType":"address","name":"from","type":"address"},{"internalType":"address","name":"to","type":"address"},{"internalType":"uint256","name":"tokenId","type":"uint256"},{"internalType":"bytes","name":"data","type":"bytes"}],"name":"safeTransferFrom","outputs":[],"stateMutability":"nonpayable","type":"function"},{"inputs":[{"internalType":"address","name":"operator","type":"address"},{"internalType":"bool","name":"approved","type":"bool"}],"name":"setApprovalForAll","outputs":[],"stateMutability":"nonpayable","type":"function"},{"inputs":[{"internalType":"address","name":"m","type":"address"}],"name":"setMinter","outputs":[],"stateMutability":"nonpayable","type":"function"},{"inputs":[{"internalType":"bytes4","name":"interfaceId","type":"bytes4"}],"name":"supportsInterface","outputs":[{"internalType":"bool","name":"","type":"bool"}],"stateMutability":"view","type":"function"},{"inputs":[],"name":"symbol","outputs":[{"internalType":"string","name":"","type":"string"}],"stateMutability":"view","type":"function"},{"inputs":[{"internalType":"uint256","name":"","type":"uint256"}],"name":"tickets","outputs":[{"internalType":"uint256","name":"eventId","type":"uint256"},{"internalType":"string","name":"ipfsCID","type":"string"},{"internalType":"bool","name":"used","type":"bool"}],"stateMutability":"view","type":"function"},{"inputs":[{"internalType":"uint256","name":"index","type":"uint256"}],"name":"tokenByIndex","outputs":[{"internalType":"uint256","name":"","type":"uint256"}],"stateMutability":"view","type":"function"},{"inputs":[{"internalType":"address","name":"owner","type":"address"},{"internalType":"uint256","name":"index","type":"uint256"}],"name":"tokenOfOwnerByIndex","outputs":[{"internalType":"uint256","name":"","type":"uint256"}],"stateMutability":"view","type":"function"},{"inputs":[{"internalType":"uint256","name":"tokenId","type":"uint256"}],"name":"tokenURI","outputs":[{"internalType":"string","name":"","type":"string"}],"stateMutability":"view","type":"function"},{"inputs":[],"name":"totalSupply","outputs":[{"internalType":"uint256","name":"","type":"uint256"}],"stateMutability":"view","type":"function"},{"inputs":[{"internalType":"address","name":"from","type":"address"},{"internalType":"address","name":"to","type":"address"},{"internalType":"uint256","name":"tokenId","type":"uint256"}],"name":"transferFrom","outputs":[],"stateMutability":"nonpayable","type":"function"},{"inputs":[{"internalType":"address","name":"newOwner","type":"address"}],"name":"transferOwnership","outputs":[],"stateMutability":"nonpayable","type":"function"},{"inputs":[{"internalType":"uint256","name":"tokenId","type":"uint256"}],"name":"useTicket","outputs":[],"stateMutability":"nonpayable","type":"function"}],"evm":{"bytecode":{"linkReferences":{},"object":"608034620003a457601f906001600160401b0390601f19906200297f3881900385810184168301858111848210176200038e57839282916040528339602092839181010312620003a457516001600160a01b03948582169491859003620003a4576200006a620003a9565b92600c84526b115d995b9d08151a58dad95d60a21b818501526200008d620003a9565b906006825265151250d2d15560d21b818301528451958487116200038e576000968754966001978881811c9116801562000383575b858210146200036f579081878493116200031c575b508490878311600114620002bb578a92620002af575b5050600019600383901b1c191690871b1787555b82519485116200029b5785548681811c9116801562000290575b838210146200027c5790818587969594931162000223575b5081938511600114620001be5750508592620001b2575b5050600019600383901b1c191690821b1790555b600a5460018060a01b0319913383831617600a557f8be0079c531659141344cd1fd0a4f28419497f9722a3daafe3b4186f6b6457e0604051953393169180a3600c541617600c556125b59081620003ca8239f35b0151905038806200014a565b869593929193168588528388209388905b828210620002095750508411620001ef575b505050811b0190556200015e565b015160001960f88460031b161c19169055388080620001e1565b8484015186558897909501949384019390810190620001cf565b9091929394508688528288208580880160051c82019285891062000272575b9188978a9297969594930160051c01915b8281106200026357505062000133565b8a815588975089910162000253565b9250819262000242565b634e487b7160e01b88526022600452602488fd5b90607f16906200011b565b634e487b7160e01b87526041600452602487fd5b015190503880620000ed565b90848a9416918b8052868c20928c5b88828210620003055750508411620002eb575b505050811b01875562000101565b015160001960f88460031b161c19169055388080620002dd565b8385015186558d97909501949384019301620002ca565b909150898052848a208780850160051c82019287861062000365575b918b91869594930160051c01915b82811062000356575050620000d7565b8c81558594508b910162000346565b9250819262000338565b634e487b7160e01b8a52602260045260248afd5b90607f1690620000c2565b634e487b7160e01b600052604160045260246000fd5b600080fd5b60408051919082016001600160401b038111838210176200038e5760405256fe608080604052600436101561001357600080fd5b600090813560e01c90816301ffc9a7146119ac5750806303543fea146116de57806306fdde031461163a5780630754617214611611578063081812fc146115f2578063095ea7b31461147d57806318160ddd1461145f57806323b872dd1461143557806326606448146113465780632cd1d35c146112f25780632f745c591461124557806342842e0e146111f35780634f6ccce71461116157806350b447121461106c5780636352211e1461103b5780636fdbd3f61461101257806370a0823114610fe6578063715018a614610f895780637510cfaf14610f3d5780638da5cb5b14610f1457806395d89b4114610e31578063a22cb46514610d58578063a476b73d146109df578063b2a2faaf14610460578063b88d4fde146103f8578063c87b56dd146102bc578063e985e9c514610268578063f2fde38b146101a25763fca3b5aa1461016057600080fd5b3461019f57602036600319011261019f57610179611a33565b610181611bbd565b60018060a01b03166001600160601b0360a01b600e541617600e5580f35b80fd5b503461019f57602036600319011261019f576101bc611a33565b6101c4611bbd565b6001600160a01b0390811690811561021457600a54826001600160601b0360a01b821617600a55167f8be0079c531659141344cd1fd0a4f28419497f9722a3daafe3b4186f6b6457e0600080a380f35b60405162461bcd60e51b815260206004820152602660248201527f4f776e61626c653a206e6577206f776e657220697320746865207a65726f206160448201526564647265737360d01b6064820152608490fd5b503461019f57604036600319011261019f57610282611a33565b604061028c611a49565b9260018060a01b0380931681526005602052209116600052602052602060ff604060002054166040519015158152f35b503461019f576020806003193601126103f4576004356000818152600260205260409020546102fa906001600160a01b03161515611c8c565b611c8c565b8252600d81526001918260408220019260405193849266697066733a2f2f60c81b85850152809282549261032d84611b83565b938281169081156103ca5750600114610385575b858761036d600e83896d17b6b2ba30b230ba30973539b7b760911b815203601119810185520183611a91565b610381604051928284938452830190611b29565b0390f35b9091809395945052848083205b8584106103b2575050505080602761036d93600e93010191819338610341565b80548885016027015287945092019185908201610392565b915050600e94506027925061036d9593915060ff1916828401528015150282010191819338610341565b5080fd5b503461019f57608036600319011261019f57610412611a33565b61041a611a49565b6064359167ffffffffffffffff831161045c573660238401121561045c5761044f610459933690602481600401359101611acf565b9160443591611d9e565b80f35b8380fd5b503461019f57604036600319011261019f57600c546040516349287c0b60e01b815260048035908201526001600160a01b0390911690602081602481855afa9081156109555783916109a5575b501561096057604051638f118fe360e01b815233600480830191909152356024820152602081604481855afa908115610955578391610923575b50602435116108de578082913b156108db578190606460405180948193637a94c56560e11b8352336004840152600435602484015260243560448401525af18015610631576108af575b50600c54604051630761c6ad60e51b81526004803590820152908290829060249082906001600160a01b03165afa908115610631578291610810575b50815b602435811061063c57600c54604051638f118fe360e01b8152336004808301919091523560248201528491602090829060449082906001600160a01b03165afa9081156106315782916105fa575b50604051906024358252602082015233907f6a69bf77722441c5a59124f665722f0ad4c8cf4f7d97beafd09310d3e5d42b40604060043592a380f35b90506020813d602011610629575b8161061560209383611a91565b810103126106245751826105be565b600080fd5b3d9150610608565b6040513d84823e3d90fd5b600b80549061064a82612382565b905560405161065881611a5f565b60043581526020810190848252856040820152828652600d6020526040862091815183555180519067ffffffffffffffff82116107fc5761069c6001850154611b83565b90601f918281116107c1575b506020918311600114610746576106fd9383610736989796946002946040948d9261073b575b50508160011b916000199060031b1c19161760018501555b0151151591019060ff801983541691151516179055565b61070781336123f4565b6004359033907f5c1c9352d51031acc9a558d7cdcca15b0ce5fe4f46d7315cca355248175b0a378780a4612382565b610570565b0151905038806106ce565b906001850189526020892091895b601f19851681106107a95750936001846002946040946106fd986107369c9b9a98601f19811610610790575b505050811b0160018501556106e6565b015160001960f88460031b161c19169055388080610780565b91926020600181928685015181550194019201610754565b6107ed90600187018b5260208b20600585808801821c830193602089106107f3575b01901c0190612391565b386106a8565b935082936107e3565b634e487b7160e01b88526041600452602488fd5b90503d8083833e6108218183611a91565b810190610100818303126108a757805167ffffffffffffffff908181116108ab578361084e91840161253d565b5060408201518181116108ab578361086791840161253d565b9260608301519182116108ab5761087f91830161253d565b5060808101516001600160a01b038116036108a75760a06108a09101612375565b503861056d565b8280fd5b8480fd5b67ffffffffffffffff81116108c75760405238610531565b634e487b7160e01b82526041600452602482fd5b50fd5b60405162461bcd60e51b815260206004820152601c60248201527f496e73756666696369656e742045524331313535207469636b657473000000006044820152606490fd5b90506020813d60201161094d575b8161093e60209383611a91565b810103126108a75751386104e7565b3d9150610931565b6040513d85823e3d90fd5b60405162461bcd60e51b815260206004820152601860248201527f496e76616c6964206f722065787069726564206576656e7400000000000000006044820152606490fd5b90506020813d6020116109d7575b816109c060209383611a91565b810103126108a7576109d190612375565b386104ad565b3d91506109b3565b503461019f576020806003193601126103f457600435906109fe611bbd565b600082815260026020526040902054610a21906001600160a01b03161515611c8c565b818352600d8152604083205490610a3783611cd8565b610a4084611cd8565b6001600160a01b03928184168015928315610cce57505060085486885260098252806040892055600160401b8110156107fc5786610a87826001610aa094016008556122eb565b90919082549060031b91821b91600019901b1916179055565b6008546000199290838101908111610cba5787895260098352610ac760408a2054916122eb565b90549060031b1c610adb81610a87846122eb565b89526009835260408920558688528760408120556008548015610ca65788929184899201610b08816122eb565b8782549160031b1b191690556008551580610c9f575b610c28575b8260029394610b3183611cd8565b838352600485528860408420916001600160601b0360a01b9283815416905516918284526003865260408420908154019055838352858552604083209081541690557fddf252ad1be2c89b69c2b068fc378daa952ba7f163c4a11628f55a4df523b3ef8280a4600d81528260408120918183556001830190610bb38254611b83565b9081610be9575b50505050015516917f50d459b3df6d4d2831ef5996a57caa721fb381b00bf5309a64f099895047948c8480a480f35b8390601f8311600114610c0457505050555b82388080610bba565b8382528120929091610c2190601f0160051c840160018501612391565b5555610bfb565b90929152600d825260ff600260408920015416610c485790869086610b23565b60405162461bcd60e51b815260048101839052602960248201527f5469636b65743a2075736564207469636b65742063616e6e6f74206265207472604482015268185b9cd9995c9c995960ba1b6064820152608490fd5b5082610b1e565b634e487b7160e01b89526031600452602489fd5b634e487b7160e01b89526011600452602489fd5b610cd790611c15565b600019810191908211610cba57878952600783526040892054828103610d1c575b50878952886040812055885260068252604088209088528152866040812055610aa0565b818a526006845260408a20838b52845260408a2054828b526006855260408b20828c5285528060408c20558a526007845260408a205538610cf8565b503461019f57604036600319011261019f57610d72611a33565b602435908115159081830361045c576001600160a01b031691338314610dec57610dbd90338552600560205260408520848652602052604085209060ff801983541691151516179055565b6040519081527f17307eab39ab6107e8899845ad3d59bd9653f200f220920489ca2b5937696c3160203392a380f35b60405162461bcd60e51b815260206004820152601960248201527f4552433732313a20617070726f766520746f2063616c6c6572000000000000006044820152606490fd5b503461019f578060031936011261019f5760405190806001805491610e5583611b83565b80865292828116908115610eea5750600114610e90575b61038185610e7c81870382611a91565b604051918291602083526020830190611b29565b92508083527fb10e2d527612073b26eecdfd717e6a320cf44b4afac2b0732d9fcbe2b7fa0cf65b828410610ed2575050508101602001610e7c82610381610e6c565b80546020858701810191909152909301928101610eb7565b86955061038196935060209250610e7c94915060ff191682840152151560051b8201019293610e6c565b503461019f578060031936011261019f57600a546040516001600160a01b039091168152602090f35b503461019f57602036600319011261019f576040602091600435610f796102f582600052600260205260018060a01b0360406000205416151590565b8152600d83522054604051908152f35b503461019f578060031936011261019f57610fa2611bbd565b600a80546001600160a01b0319811690915581906001600160a01b03167f8be0079c531659141344cd1fd0a4f28419497f9722a3daafe3b4186f6b6457e08280a380f35b503461019f57602036600319011261019f57602061100a611005611a33565b611c15565b604051908152f35b503461019f578060031936011261019f57600c546040516001600160a01b039091168152602090f35b503461019f57602036600319011261019f57602061105a600435611cd8565b6040516001600160a01b039091168152f35b503461019f576020908160031936011261019f576004358152600d8252604081209081549160018082019285604051948593838254926110ab84611b83565b8088529383811690811561113c5750600114611100575b848a886110f460ff60028d6110d9858e0386611a91565b01541691606060405195869586528501526060840190611b29565b90151560408301520390f35b9080949550528383205b82841061112657505050820101856110d98360026110f46110c2565b805488850186015287955092840192810161110a565b60ff19168689015250505050151560051b8301019050856110d98360026110f46110c2565b503461019f57602036600319011261019f576004356008548110156111995761118b6020916122eb565b90546040519160031b1c8152f35b60405162461bcd60e51b815260206004820152602c60248201527f455243373231456e756d657261626c653a20676c6f62616c20696e646578206f60448201526b7574206f6620626f756e647360a01b6064820152608490fd5b503461019f5761120236611b4e565b60409392935191602083019483861067ffffffffffffffff871117611231576104599495604052858452611d9e565b634e487b7160e01b85526041600452602485fd5b503461019f57604036600319011261019f5761125f611a33565b6024359161126c82611c15565b8310156112995760209260409260018060a01b031682526006845282822090825283522054604051908152f35b60405162461bcd60e51b815260206004820152602b60248201527f455243373231456e756d657261626c653a206f776e657220696e646578206f7560448201526a74206f6620626f756e647360a81b6064820152608490fd5b503461019f57602036600319011261019f5760ff600260406020936004356113326102f582600052600260205260018060a01b0360406000205416151590565b8152600d8552200154166040519015158152f35b503461019f57602036600319011261019f5760043560018060a01b0361137181600e54163314612338565b600082815260026020526040902054611394906001600160a01b03161515611c8c565b818352600d60205260ff6002604085200154166113fa57818352600d6020526040832060028101805460ff1916600117905554906113d183611cd8565b16917fb35ebdfb9515b145e406c5c5a0846ec436db0b9560927af3af7a754d90c4f6ff8480a480f35b60405162461bcd60e51b8152602060048201526013602482015272151a58dad95d08185b1c9958591e481d5cd959606a1b6044820152606490fd5b503461019f5761045961144736611b4e565b9161145a6114558433611e39565b611d3c565b611f01565b503461019f578060031936011261019f576020600854604051908152f35b503461019f57604036600319011261019f57611497611a33565b602435906001600160a01b0380806114ae85611cd8565b169216918083146115a357803314908115611582575b50156115175782845260046020526040842080546001600160a01b031916831790556114ef83611cd8565b167f8c5be1e5ebec7d5bd14f71427d1e84f3dd0314c0f7b2291e5b200ac8c7c3b9258480a480f35b60405162461bcd60e51b815260206004820152603d60248201527f4552433732313a20617070726f76652063616c6c6572206973206e6f7420746f60448201527f6b656e206f776e6572206f7220617070726f76656420666f7220616c6c0000006064820152608490fd5b9050845260056020526040842033855260205260ff604085205416386114c4565b60405162461bcd60e51b815260206004820152602160248201527f4552433732313a20617070726f76616c20746f2063757272656e74206f776e656044820152603960f91b6064820152608490fd5b503461019f57602036600319011261019f57602061105a600435611cfe565b503461019f578060031936011261019f57600e546040516001600160a01b039091168152602090f35b503461019f578060031936011261019f576040519080805461165b81611b83565b80855291600191808316908115610eea57506001146116845761038185610e7c81870382611a91565b80809450527f290decd9548b62a8d60345a988386fc84ba6bc95484008f6362f93160ef3e5635b8284106116c6575050508101602001610e7c82610381610e6c565b805460208587018101919091529093019281016116ab565b503461019f57606036600319011261019f576116f8611a33565b6024359067ffffffffffffffff6044358181116108ab57366023820112156108ab5761172e903690602481600401359101611acf565b9160018060a01b039161174683600e54163314612338565b82600c541660405180916349287c0b60e01b825287600483015281602460209485935afa9081156119a1578891611968575b501561192c57600b549461178b86612382565b600b556040519261179b84611a5f565b8784528284019182526040840192898452878a52600d815260408a2094518555600190818601935180519384116119185790849392916117de8d98979654611b83565b601f81116118df575b5081601f851160011461186f5750928092819260029796956118319a94611864575b50501b916000199060031b1c19161790555b51151591019060ff801983541691151516179055565b61183b83826123f4565b16907f5c1c9352d51031acc9a558d7cdcca15b0ce5fe4f46d7315cca355248175b0a378480a480f35b015192503880611809565b601f9893959697981985169087855280852094905b8282106118c8575050916118319897959391856002989694106118af575b505050811b01905561181b565b015160001960f88460031b161c191690553880806118a2565b808886978294978701518155019601940190611884565b61190890868a52838a20601f870160051c81019185881061190e575b601f0160051c0190612391565b386117e7565b90915081906118fb565b634e487b7160e01b8c52604160045260248cfd5b6064906040519062461bcd60e51b825260048201526015602482015274125b9d985b1a590bd95e1c1a5c995908195d995b9d605a1b6044820152fd5b90508181813d831161199a575b61197f8183611a91565b810103126119965761199090612375565b38611778565b8780fd5b503d611975565b6040513d8a823e3d90fd5b9050346103f45760203660031901126103f45760043563ffffffff60e01b81168091036108a7576020925063780e9d6360e01b81149081156119f0575b5015158152f35b6380ac58cd60e01b811491508115611a22575b8115611a11575b50386119e9565b6301ffc9a760e01b14905038611a0a565b635b5e139f60e01b81149150611a03565b600435906001600160a01b038216820361062457565b602435906001600160a01b038216820361062457565b6060810190811067ffffffffffffffff821117611a7b57604052565b634e487b7160e01b600052604160045260246000fd5b90601f8019910116810190811067ffffffffffffffff821117611a7b57604052565b67ffffffffffffffff8111611a7b57601f01601f191660200190565b929192611adb82611ab3565b91611ae96040519384611a91565b829481845281830111610624578281602093846000960137010152565b60005b838110611b195750506000910152565b8181015183820152602001611b09565b90602091611b4281518092818552858086019101611b06565b601f01601f1916010190565b6060906003190112610624576001600160a01b0390600435828116810361062457916024359081168103610624579060443590565b90600182811c92168015611bb3575b6020831014611b9d57565b634e487b7160e01b600052602260045260246000fd5b91607f1691611b92565b600a546001600160a01b03163303611bd157565b606460405162461bcd60e51b815260206004820152602060248201527f4f776e61626c653a2063616c6c6572206973206e6f7420746865206f776e65726044820152fd5b6001600160a01b03168015611c3557600052600360205260406000205490565b60405162461bcd60e51b815260206004820152602960248201527f4552433732313a2061646472657373207a65726f206973206e6f7420612076616044820152683634b21037bbb732b960b91b6064820152608490fd5b15611c9357565b60405162461bcd60e51b815260206004820152601860248201527f4552433732313a20696e76616c696420746f6b656e20494400000000000000006044820152606490fd5b6000908152600260205260409020546001600160a01b0316611cfb811515611c8c565b90565b600081815260026020526040902054611d21906001600160a01b03161515611c8c565b6000908152600460205260409020546001600160a01b031690565b15611d4357565b60405162461bcd60e51b815260206004820152602d60248201527f4552433732313a2063616c6c6572206973206e6f7420746f6b656e206f776e6560448201526c1c881bdc88185c1c1c9bdd9959609a1b6064820152608490fd5b90611dc2939291611db26114558433611e39565b611dbd838383611f01565b6121ce565b15611dc957565b60405162461bcd60e51b815280611de260048201611de6565b0390fd5b60809060208152603260208201527f4552433732313a207472616e7366657220746f206e6f6e20455243373231526560408201527131b2b4bb32b91034b6b83632b6b2b73a32b960711b60608201520190565b906001600160a01b038080611e4d84611cd8565b16931691838314938415611e80575b508315611e6a575b50505090565b611e7691929350611cfe565b1614388080611e64565b909350600052600560205260406000208260005260205260ff604060002054169238611e5c565b15611eae57565b60405162461bcd60e51b815260206004820152602560248201527f4552433732313a207472616e736665722066726f6d20696e636f72726563742060448201526437bbb732b960d91b6064820152608490fd5b90611f2790611f0f84611cd8565b6001600160a01b038481169390929183168414611ea7565b81811693841561217d5783801591826000146120ca5750506008549186600052600960205282604060002055600160401b831015611a7b57611f7487610a878560018997016008556122eb565b828603612097575b50158061208f575b612018575b611f9d91611f9686611cd8565b1614611ea7565b7fddf252ad1be2c89b69c2b068fc378daa952ba7f163c4a11628f55a4df523b3ef60008481526004602052604081206001600160601b0360a01b9081815416905583825260036020526040822060001981540190558482526040822060018154019055858252600260205284604083209182541617905580a4565b5083600052600d60205260ff600260406000200154166120385781611f89565b60405162461bcd60e51b815260206004820152602960248201527f5469636b65743a2075736564207469636b65742063616e6e6f74206265207472604482015268185b9cd9995c9c995960ba1b6064820152608490fd5b506001611f84565b6120a090611c15565b60406000878152600660205281812083825260205288828220558881526007602052205538611f7c565b86829492036120da575b50611f74565b6120e5919350611c15565b6000198101929083116121675784926000908882526020906007825260409182842054828103612130575b508a845283838120558684526006815282842091845252812055386120d4565b8785526006825283852083865282528385205488865260068352848620828752835280858720558552600782528385205538612110565b634e487b7160e01b600052601160045260246000fd5b60405162461bcd60e51b8152602060048201526024808201527f4552433732313a207472616e7366657220746f20746865207a65726f206164646044820152637265737360e01b6064820152608490fd5b92939190803b156122e157612220946040518092630a85bd0160e11b9485835233600484015260018060a01b03809816602484015260448301526080606483015281806020998a956084830190611b29565b03916000988991165af18491816122a1575b50612290575050503d600014612288573d61224c81611ab3565b9061225a6040519283611a91565b81528091833d92013e5b805191826122855760405162461bcd60e51b815280611de260048201611de6565b01fd5b506060612264565b6001600160e01b0319161492509050565b9091508581813d83116122da575b6122b98183611a91565b810103126108ab57516001600160e01b0319811681036108ab579038612232565b503d6122af565b5050915050600190565b6008548110156123225760086000527ff3f7a9fe364faab93b216da50a3214154f22a0a2b415b23a84c8169e8b636ee30190600090565b634e487b7160e01b600052603260045260246000fd5b1561233f57565b60405162461bcd60e51b815260206004820152600e60248201526d139bdd08185d5d1a1bdc9a5e995960921b6044820152606490fd5b5190811515820361062457565b60001981146121675760010190565b81811061239c575050565b60008155600101612391565b156123af57565b60405162461bcd60e51b815260206004820152601c60248201527f4552433732313a20746f6b656e20616c7265616479206d696e746564000000006044820152606490fd5b6001600160a01b0381169081156124f95760008381526002602052604090205461242a906001600160a01b031615155b156123a8565b600854600091848352602090600982526040928084862055600160401b811015611231576002929161100588610a8784600161246996016008556122eb565b85855260068252838520818652825283852087905586855260078252838520556000868152600260205260409020546124ac906001600160a01b03161515612424565b848452600381528284208054600101905585845252812080546001600160a01b031916831790557fddf252ad1be2c89b69c2b068fc378daa952ba7f163c4a11628f55a4df523b3ef8180a4565b606460405162461bcd60e51b815260206004820152602060248201527f4552433732313a206d696e7420746f20746865207a65726f20616464726573736044820152fd5b81601f8201121561062457805161255381611ab3565b926125616040519485611a91565b8184526020828401011161062457611cfb9160208085019101611b0656fea2646970667358221220e4ba09ad8dacc095a95d261a3e364a87b9ddcba6ff593ee11fe4ebbeb639cacd64736f6c63430008140033","opcodes":"PUSH1 0x80 CALLVALUE PUSH3 0x3A4 JUMPI PUSH1 0x1F SWAP1 PUSH1 0x1 PUSH1 0x1 PUSH1 0x40 SHL SUB SWAP1 PUSH1 0x1F NOT SWAP1 PUSH3 0x297F CODESIZE DUP2 SWAP1 SUB DUP6 DUP2 ADD DUP5 AND DUP4 ADD DUP6 DUP2 GT DUP5 DUP3 LT OR PUSH3 0x38E JUMPI DUP4 SWAP3 DUP3 SWAP2 PUSH1 0x40 MSTORE DUP4 CODECOPY PUSH1 0x20 SWAP3 DUP4 SWAP2 DUP2 ADD SUB SLT PUSH3 0x3A4 JUMPI MLOAD PUSH1 0x1 PUSH1 0x1 PUSH1 0xA0 SHL SUB SWAP5 DUP6 DUP3 AND SWAP5 SWAP2 DUP6 SWAP1 SUB PUSH3 0x3A4 JUMPI PUSH3 0x6A PUSH3 0x3A9 JUMP JUMPDEST SWAP3 PUSH1 0xC DUP5 MSTORE PUSH12 0x115D995B9D08151A58DAD95D PUSH1 0xA2 SHL DUP2 DUP6 ADD MSTORE PUSH3 0x8D PUSH3 0x3A9 JUMP JUMPDEST SWAP1 PUSH1 0x6 DUP3 MSTORE PUSH6 0x151250D2D155 PUSH1 0xD2 SHL DUP2 DUP4 ADD MSTORE DUP5 MLOAD SWAP6 DUP5 DUP8 GT PUSH3 0x38E JUMPI PUSH1 0x0 SWAP7 DUP8 SLOAD SWAP7 PUSH1 0x1 SWAP8 DUP9 DUP2 DUP2 SHR SWAP2 AND DUP1 ISZERO PUSH3 0x383 JUMPI JUMPDEST DUP6 DUP3 LT EQ PUSH3 0x36F JUMPI SWAP1 DUP2 DUP8 DUP5 SWAP4 GT PUSH3 0x31C JUMPI JUMPDEST POP DUP5 SWAP1 DUP8 DUP4 GT PUSH1 0x1 EQ PUSH3 0x2BB JUMPI DUP11 SWAP3 PUSH3 0x2AF JUMPI JUMPDEST POP POP PUSH1 0x0 NOT PUSH1 0x3 DUP4 SWAP1 SHL SHR NOT AND SWAP1 DUP8 SHL OR DUP8 SSTORE JUMPDEST DUP3 MLOAD SWAP5 DUP6 GT PUSH3 0x29B JUMPI DUP6 SLOAD DUP7 DUP2 DUP2 SHR SWAP2 AND DUP1 ISZERO PUSH3 0x290 JUMPI JUMPDEST DUP4 DUP3 LT EQ PUSH3 0x27C JUMPI SWAP1 DUP2 DUP6 DUP8 SWAP7 SWAP6 SWAP5 SWAP4 GT PUSH3 0x223 JUMPI JUMPDEST POP DUP2 SWAP4 DUP6 GT PUSH1 0x1 EQ PUSH3 0x1BE JUMPI POP POP DUP6 SWAP3 PUSH3 0x1B2 JUMPI JUMPDEST POP POP PUSH1 0x0 NOT PUSH1 0x3 DUP4 SWAP1 SHL SHR NOT AND SWAP1 DUP3 SHL OR SWAP1 SSTORE JUMPDEST PUSH1 0xA SLOAD PUSH1 0x1 DUP1 PUSH1 0xA0 SHL SUB NOT SWAP2 CALLER DUP4 DUP4 AND OR PUSH1 0xA SSTORE PUSH32 0x8BE0079C531659141344CD1FD0A4F28419497F9722A3DAAFE3B4186F6B6457E0 PUSH1 0x40 MLOAD SWAP6 CALLER SWAP4 AND SWAP2 DUP1 LOG3 PUSH1 0xC SLOAD AND OR PUSH1 0xC SSTORE PUSH2 0x25B5 SWAP1 DUP2 PUSH3 0x3CA DUP3 CODECOPY RETURN JUMPDEST ADD MLOAD SWAP1 POP CODESIZE DUP1 PUSH3 0x14A JUMP JUMPDEST DUP7 SWAP6 SWAP4 SWAP3 SWAP2 SWAP4 AND DUP6 DUP9 MSTORE DUP4 DUP9 KECCAK256 SWAP4 DUP9 SWAP1 JUMPDEST DUP3 DUP3 LT PUSH3 0x209 JUMPI POP POP DUP5 GT PUSH3 0x1EF JUMPI JUMPDEST POP POP POP DUP2 SHL ADD SWAP1 SSTORE PUSH3 0x15E JUMP JUMPDEST ADD MLOAD PUSH1 0x0 NOT PUSH1 0xF8 DUP5 PUSH1 0x3 SHL AND SHR NOT AND SWAP1 SSTORE CODESIZE DUP1 DUP1 PUSH3 0x1E1 JUMP JUMPDEST DUP5 DUP5 ADD MLOAD DUP7 SSTORE DUP9 SWAP8 SWAP1 SWAP6 ADD SWAP5 SWAP4 DUP5 ADD SWAP4 SWAP1 DUP2 ADD SWAP1 PUSH3 0x1CF JUMP JUMPDEST SWAP1 SWAP2 SWAP3 SWAP4 SWAP5 POP DUP7 DUP9 MSTORE DUP3 DUP9 KECCAK256 DUP6 DUP1 DUP9 ADD PUSH1 0x5 SHR DUP3 ADD SWAP3 DUP6 DUP10 LT PUSH3 0x272 JUMPI JUMPDEST SWAP2 DUP9 SWAP8 DUP11 SWAP3 SWAP8 SWAP7 SWAP6 SWAP5 SWAP4 ADD PUSH1 0x5 SHR ADD SWAP2 JUMPDEST DUP3 DUP2 LT PUSH3 0x263 JUMPI POP POP PUSH3 0x133 JUMP JUMPDEST DUP11 DUP2 SSTORE DUP9 SWAP8 POP DUP10 SWAP2 ADD PUSH3 0x253 JUMP JUMPDEST SWAP3 POP DUP2 SWAP3 PUSH3 0x242 JUMP JUMPDEST PUSH4 0x4E487B71 PUSH1 0xE0 SHL DUP9 MSTORE PUSH1 0x22 PUSH1 0x4 MSTORE PUSH1 0x24 DUP9 REVERT JUMPDEST SWAP1 PUSH1 0x7F AND SWAP1 PUSH3 0x11B JUMP JUMPDEST PUSH4 0x4E487B71 PUSH1 0xE0 SHL DUP8 MSTORE PUSH1 0x41 PUSH1 0x4 MSTORE PUSH1 0x24 DUP8 REVERT JUMPDEST ADD MLOAD SWAP1 POP CODESIZE DUP1 PUSH3 0xED JUMP JUMPDEST SWAP1 DUP5 DUP11 SWAP5 AND SWAP2 DUP12 DUP1 MSTORE DUP7 DUP13 KECCAK256 SWAP3 DUP13 JUMPDEST DUP9 DUP3 DUP3 LT PUSH3 0x305 JUMPI POP POP DUP5 GT PUSH3 0x2EB JUMPI JUMPDEST POP POP POP DUP2 SHL ADD DUP8 SSTORE PUSH3 0x101 JUMP JUMPDEST ADD MLOAD PUSH1 0x0 NOT PUSH1 0xF8 DUP5 PUSH1 0x3 SHL AND SHR NOT AND SWAP1 SSTORE CODESIZE DUP1 DUP1 PUSH3 0x2DD JUMP JUMPDEST DUP4 DUP6 ADD MLOAD DUP7 SSTORE DUP14 SWAP8 SWAP1 SWAP6 ADD SWAP5 SWAP4 DUP5 ADD SWAP4 ADD PUSH3 0x2CA JUMP JUMPDEST SWAP1 SWAP2 POP DUP10 DUP1 MSTORE DUP5 DUP11 KECCAK256 DUP8 DUP1 DUP6 ADD PUSH1 0x5 SHR DUP3 ADD SWAP3 DUP8 DUP7 LT PUSH3 0x365 JUMPI JUMPDEST SWAP2 DUP12 SWAP2 DUP7 SWAP6 SWAP5 SWAP4 ADD PUSH1 0x5 SHR ADD SWAP2 JUMPDEST DUP3 DUP2 LT PUSH3 0x356 JUMPI POP POP PUSH3 0xD7 JUMP JUMPDEST DUP13 DUP2 SSTORE DUP6 SWAP5 POP DUP12 SWAP2 ADD PUSH3 0x346 JUMP JUMPDEST SWAP3 POP DUP2 SWAP3 PUSH3 0x338 JUMP JUMPDEST PUSH4 0x4E487B71 PUSH1 0xE0 SHL DUP11 MSTORE PUSH1 0x22 PUSH1 0x4 MSTORE PUSH1 0x24 DUP11 REVERT JUMPDEST SWAP1 PUSH1 0x7F AND SWAP1 PUSH3 0xC2 JUMP JUMPDEST PUSH4 0x4E487B71 PUSH1 0xE0 SHL PUSH1 0x0 MSTORE PUSH1 0x41 PUSH1 0x4 MSTORE PUSH1 0x24 PUSH1 0x0 REVERT JUMPDEST PUSH1 0x0 DUP1 REVERT JUMPDEST PUSH1 0x40 DUP1 MLOAD SWAP2 SWAP1 DUP3 ADD PUSH1 0x1 PUSH1 0x1 PUSH1 0x40 SHL SUB DUP2 GT DUP4 DUP3 LT OR PUSH3 0x38E JUMPI PUSH1 0x40 MSTORE JUMP INVALID PUSH1 0x80 DUP1 PUSH1 0x40 MSTORE PUSH1 0x4 CALLDATASIZE LT ISZERO PUSH2 0x13 JUMPI PUSH1 0x0 DUP1 REVERT JUMPDEST PUSH1 0x0 SWAP1 DUP2 CALLDATALOAD PUSH1 0xE0 SHR SWAP1 DUP2 PUSH4 0x1FFC9A7 EQ PUSH2 0x19AC JUMPI POP DUP1 PUSH4 0x3543FEA EQ PUSH2 0x16DE JUMPI DUP1 PUSH4 0x6FDDE03 EQ PUSH2 0x163A JUMPI DUP1 PUSH4 0x7546172 EQ PUSH2 0x1611 JUMPI DUP1 PUSH4 0x81812FC EQ PUSH2 0x15F2 JUMPI DUP1 PUSH4 0x95EA7B3 EQ PUSH2 0x147D JUMPI DUP1 PUSH4 0x18160DDD EQ PUSH2 0x145F JUMPI DUP1 PUSH4 0x23B872DD EQ PUSH2 0x1435 JUMPI DUP1 PUSH4 0x26606448 EQ PUSH2 0x1346 JUMPI DUP1 PUSH4 0x2CD1D35C EQ PUSH2 0x12F2 JUMPI DUP1 PUSH4 0x2F745C59 EQ PUSH2 0x1245 JUMPI DUP1 PUSH4 0x42842E0E EQ PUSH2 0x11F3 JUMPI DUP1 PUSH4 0x4F6CCCE7 EQ PUSH2 0x1161 JUMPI DUP1 PUSH4 0x50B44712 EQ PUSH2 0x106C JUMPI DUP1 PUSH4 0x6352211E EQ PUSH2 0x103B JUMPI DUP1 PUSH4 0x6FDBD3F6 EQ PUSH2 0x1012 JUMPI DUP1 PUSH4 0x70A08231 EQ PUSH2 0xFE6 JUMPI DUP1 PUSH4 0x715018A6 EQ PUSH2 0xF89 JUMPI DUP1 PUSH4 0x7510CFAF EQ PUSH2 0xF3D JUMPI DUP1 PUSH4 0x8DA5CB5B EQ PUSH2 0xF14 JUMPI DUP1 PUSH4 0x95D89B41 EQ PUSH2 0xE31 JUMPI DUP1 PUSH4 0xA22CB465 EQ PUSH2 0xD58 JUMPI DUP1 PUSH4 0xA476B73D EQ PUSH2 0x9DF JUMPI DUP1 PUSH4 0xB2A2FAAF EQ PUSH2 0x460 JUMPI DUP1 PUSH4 0xB88D4FDE EQ PUSH2 0x3F8 JUMPI DUP1 PUSH4 0xC87B56DD EQ PUSH2 0x2BC JUMPI DUP1 PUSH4 0xE985E9C5 EQ PUSH2 0x268 JUMPI DUP1 PUSH4 0xF2FDE38B EQ PUSH2 0x1A2 JUMPI PUSH4 0xFCA3B5AA EQ PUSH2 0x160 JUMPI PUSH1 0x0 DUP1 REVERT JUMPDEST CALLVALUE PUSH2 0x19F JUMPI PUSH1 0x20 CALLDATASIZE PUSH1 0x3 NOT ADD SLT PUSH2 0x19F JUMPI PUSH2 0x179 PUSH2 0x1A33 JUMP JUMPDEST PUSH2 0x181 PUSH2 0x1BBD JUMP JUMPDEST PUSH1 0x1 DUP1 PUSH1 0xA0 SHL SUB AND PUSH1 0x1 PUSH1 0x1 PUSH1 0x60 SHL SUB PUSH1 0xA0 SHL PUSH1 0xE SLOAD AND OR PUSH1 0xE SSTORE DUP1 RETURN JUMPDEST DUP1 REVERT JUMPDEST POP CALLVALUE PUSH2 0x19F JUMPI PUSH1 0x20 CALLDATASIZE PUSH1 0x3 NOT ADD SLT PUSH2 0x19F JUMPI PUSH2 0x1BC PUSH2 0x1A33 JUMP JUMPDEST PUSH2 0x1C4 PUSH2 0x1BBD JUMP JUMPDEST PUSH1 0x1 PUSH1 0x1 PUSH1 0xA0 SHL SUB SWAP1 DUP2 AND SWAP1 DUP2 ISZERO PUSH2 0x214 JUMPI PUSH1 0xA SLOAD DUP3 PUSH1 0x1 PUSH1 0x1 PUSH1 0x60 SHL SUB PUSH1 0xA0 SHL DUP3 AND OR PUSH1 0xA SSTORE AND PUSH32 0x8BE0079C531659141344CD1FD0A4F28419497F9722A3DAAFE3B4186F6B6457E0 PUSH1 0x0 DUP1 LOG3 DUP1 RETURN JUMPDEST PUSH1 0x40 MLOAD PUSH3 0x461BCD PUSH1 0xE5 SHL DUP2 MSTORE PUSH1 0x20 PUSH1 0x4 DUP3 ADD MSTORE PUSH1 0x26 PUSH1 0x24 DUP3 ADD MSTORE PUSH32 0x4F776E61626C653A206E6577206F776E657220697320746865207A65726F2061 PUSH1 0x44 DUP3 ADD MSTORE PUSH6 0x646472657373 PUSH1 0xD0 SHL PUSH1 0x64 DUP3 ADD MSTORE PUSH1 0x84 SWAP1 REVERT JUMPDEST POP CALLVALUE PUSH2 0x19F JUMPI PUSH1 0x40 CALLDATASIZE PUSH1 0x3 NOT ADD SLT PUSH2 0x19F JUMPI PUSH2 0x282 PUSH2 0x1A33 JUMP JUMPDEST PUSH1 0x40 PUSH2 0x28C PUSH2 0x1A49 JUMP JUMPDEST SWAP3 PUSH1 0x1 DUP1 PUSH1 0xA0 SHL SUB DUP1 SWAP4 AND DUP2 MSTORE PUSH1 0x5 PUSH1 0x20 MSTORE KECCAK256 SWAP2 AND PUSH1 0x0 MSTORE PUSH1 0x20 MSTORE PUSH1 0x20 PUSH1 0xFF PUSH1 0x40 PUSH1 0x0 KECCAK256 SLOAD AND PUSH1 0x40 MLOAD SWAP1 ISZERO ISZERO DUP2 MSTORE RETURN JUMPDEST POP CALLVALUE PUSH2 0x19F JUMPI PUSH1 0x20 DUP1 PUSH1 0x3 NOT CALLDATASIZE ADD SLT PUSH2 0x3F4 JUMPI PUSH1 0x4 CALLDATALOAD PUSH1 0x0 DUP2 DUP2 MSTORE PUSH1 0x2 PUSH1 0x20 MSTORE PUSH1 0x40 SWAP1 KECCAK256 SLOAD PUSH2 0x2FA SWAP1 PUSH1 0x1 PUSH1 0x1 PUSH1 0xA0 SHL SUB AND ISZERO ISZERO PUSH2 0x1C8C JUMP JUMPDEST PUSH2 0x1C8C JUMP JUMPDEST DUP3 MSTORE PUSH1 0xD DUP2 MSTORE PUSH1 0x1 SWAP2 DUP3 PUSH1 0x40 DUP3 KECCAK256 ADD SWAP3 PUSH1 0x40 MLOAD SWAP4 DUP5 SWAP3 PUSH7 0x697066733A2F2F PUSH1 0xC8 SHL DUP6 DUP6 ADD MSTORE DUP1 SWAP3 DUP3 SLOAD SWAP3 PUSH2 0x32D DUP5 PUSH2 0x1B83 JUMP JUMPDEST SWAP4 DUP3 DUP2 AND SWAP1 DUP2 ISZERO PUSH2 0x3CA JUMPI POP PUSH1 0x1 EQ PUSH2 0x385 JUMPI JUMPDEST DUP6 DUP8 PUSH2 0x36D PUSH1 0xE DUP4 DUP10 PUSH14 0x17B6B2BA30B230BA30973539B7B7 PUSH1 0x91 SHL DUP2 MSTORE SUB PUSH1 0x11 NOT DUP2 ADD DUP6 MSTORE ADD DUP4 PUSH2 0x1A91 JUMP JUMPDEST PUSH2 0x381 PUSH1 0x40 MLOAD SWAP3 DUP3 DUP5 SWAP4 DUP5 MSTORE DUP4 ADD SWAP1 PUSH2 0x1B29 JUMP JUMPDEST SUB SWAP1 RETURN JUMPDEST SWAP1 SWAP2 DUP1 SWAP4 SWAP6 SWAP5 POP MSTORE DUP5 DUP1 DUP4 KECCAK256 JUMPDEST DUP6 DUP5 LT PUSH2 0x3B2 JUMPI POP POP POP POP DUP1 PUSH1 0x27 PUSH2 0x36D SWAP4 PUSH1 0xE SWAP4 ADD ADD SWAP2 DUP2 SWAP4 CODESIZE PUSH2 0x341 JUMP JUMPDEST DUP1 SLOAD DUP9 DUP6 ADD PUSH1 0x27 ADD MSTORE DUP8 SWAP5 POP SWAP3 ADD SWAP2 DUP6 SWAP1 DUP3 ADD PUSH2 0x392 JUMP JUMPDEST SWAP2 POP POP PUSH1 0xE SWAP5 POP PUSH1 0x27 SWAP3 POP PUSH2 0x36D SWAP6 SWAP4 SWAP2 POP PUSH1 0xFF NOT AND DUP3 DUP5 ADD MSTORE DUP1 ISZERO ISZERO MUL DUP3 ADD ADD SWAP2 DUP2 SWAP4 CODESIZE PUSH2 0x341 JUMP JUMPDEST POP DUP1 REVERT JUMPDEST POP CALLVALUE PUSH2 0x19F JUMPI PUSH1 0x80 CALLDATASIZE PUSH1 0x3 NOT ADD SLT PUSH2 0x19F JUMPI PUSH2 0x412 PUSH2 0x1A33 JUMP JUMPDEST PUSH2 0x41A PUSH2 0x1A49 JUMP JUMPDEST PUSH1 0x64 CALLDATALOAD SWAP2 PUSH8 0xFFFFFFFFFFFFFFFF DUP4 GT PUSH2 0x45C JUMPI CALLDATASIZE PUSH1 0x23 DUP5 ADD SLT ISZERO PUSH2 0x45C JUMPI PUSH2 0x44F PUSH2 0x459 SWAP4 CALLDATASIZE SWAP1 PUSH1 0x24 DUP2 PUSH1 0x4 ADD CALLDATALOAD SWAP2 ADD PUSH2 0x1ACF JUMP JUMPDEST SWAP2 PUSH1 0x44 CALLDATALOAD SWAP2 PUSH2 0x1D9E JUMP JUMPDEST DUP1 RETURN JUMPDEST DUP4 DUP1 REVERT JUMPDEST POP CALLVALUE PUSH2 0x19F JUMPI PUSH1 0x40 CALLDATASIZE PUSH1 0x3 NOT ADD SLT PUSH2 0x19F JUMPI PUSH1 0xC SLOAD PUSH1 0x40 MLOAD PUSH4 0x49287C0B PUSH1 0xE0 SHL DUP2 MSTORE PUSH1 0x4 DUP1 CALLDATALOAD SWAP1 DUP3 ADD MSTORE PUSH1 0x1 PUSH1 0x1 PUSH1 0xA0 SHL SUB SWAP1 SWAP2 AND SWAP1 PUSH1 0x20 DUP2 PUSH1 0x24 DUP2 DUP6 GAS STATICCALL SWAP1 DUP2 ISZERO PUSH2 0x955 JUMPI DUP4 SWAP2 PUSH2 0x9A5 JUMPI JUMPDEST POP ISZERO PUSH2 0x960 JUMPI PUSH1 0x40 MLOAD PUSH4 0x8F118FE3 PUSH1 0xE0 SHL DUP2 MSTORE CALLER PUSH1 0x4 DUP1 DUP4 ADD SWAP2 SWAP1 SWAP2 MSTORE CALLDATALOAD PUSH1 0x24 DUP3 ADD MSTORE PUSH1 0x20 DUP2 PUSH1 0x44 DUP2 DUP6 GAS STATICCALL SWAP1 DUP2 ISZERO PUSH2 0x955 JUMPI DUP4 SWAP2 PUSH2 0x923 JUMPI JUMPDEST POP PUSH1 0x24 CALLDATALOAD GT PUSH2 0x8DE JUMPI DUP1 DUP3 SWAP2 EXTCODESIZE ISZERO PUSH2 0x8DB JUMPI DUP2 SWAP1 PUSH1 0x64 PUSH1 0x40 MLOAD DUP1 SWAP5 DUP2 SWAP4 PUSH4 0x7A94C565 PUSH1 0xE1 SHL DUP4 MSTORE CALLER PUSH1 0x4 DUP5 ADD MSTORE PUSH1 0x4 CALLDATALOAD PUSH1 0x24 DUP5 ADD MSTORE PUSH1 0x24 CALLDATALOAD PUSH1 0x44 DUP5 ADD MSTORE GAS CALL DUP1 ISZERO PUSH2 0x631 JUMPI PUSH2 0x8AF JUMPI JUMPDEST POP PUSH1 0xC SLOAD PUSH1 0x40 MLOAD PUSH4 0x761C6AD PUSH1 0xE5 SHL DUP2 MSTORE PUSH1 0x4 DUP1 CALLDATALOAD SWAP1 DUP3 ADD MSTORE SWAP1 DUP3 SWAP1 DUP3 SWAP1 PUSH1 0x24 SWAP1 DUP3 SWAP1 PUSH1 0x1 PUSH1 0x1 PUSH1 0xA0 SHL SUB AND GAS STATICCALL SWAP1 DUP2 ISZERO PUSH2 0x631 JUMPI DUP3 SWAP2 PUSH2 0x810 JUMPI JUMPDEST POP DUP2 JUMPDEST PUSH1 0x24 CALLDATALOAD DUP2 LT PUSH2 0x63C JUMPI PUSH1 0xC SLOAD PUSH1 0x40 MLOAD PUSH4 0x8F118FE3 PUSH1 0xE0 SHL DUP2 MSTORE CALLER PUSH1 0x4 DUP1 DUP4 ADD SWAP2 SWAP1 SWAP2 MSTORE CALLDATALOAD PUSH1 0x24 DUP3 ADD MSTORE DUP5 SWAP2 PUSH1 0x20 SWAP1 DUP3 SWAP1 PUSH1 0x44 SWAP1 DUP3 SWAP1 PUSH1 0x1 PUSH1 0x1 PUSH1 0xA0 SHL SUB AND GAS STATICCALL SWAP1 DUP2 ISZERO PUSH2 0x631 JUMPI DUP3 SWAP2 PUSH2 0x5FA JUMPI JUMPDEST POP PUSH1 0x40 MLOAD SWAP1 PUSH1 0x24 CALLDATALOAD DUP3 MSTORE PUSH1 0x20 DUP3 ADD MSTORE CALLER SWAP1 PUSH32 0x6A69BF77722441C5A59124F665722F0AD4C8CF4F7D97BEAFD09310D3E5D42B40 PUSH1 0x40 PUSH1 0x4 CALLDATALOAD SWAP3 LOG3 DUP1 RETURN JUMPDEST SWAP1 POP PUSH1 0x20 DUP2 RETURNDATASIZE PUSH1 0x20 GT PUSH2 0x629 JUMPI JUMPDEST DUP2 PUSH2 0x615 PUSH1 0x20 SWAP4 DUP4 PUSH2 0x1A91 JUMP JUMPDEST DUP2 ADD SUB SLT PUSH2 0x624 JUMPI MLOAD DUP3 PUSH2 0x5BE JUMP JUMPDEST PUSH1 0x0 DUP1 REVERT JUMPDEST RETURNDATASIZE SWAP2 POP PUSH2 0x608 JUMP JUMPDEST PUSH1 0x40 MLOAD RETURNDATASIZE DUP5 DUP3 RETURNDATACOPY RETURNDATASIZE SWAP1 REVERT JUMPDEST PUSH1 0xB DUP1 SLOAD SWAP1 PUSH2 0x64A DUP3 PUSH2 0x2382 JUMP JUMPDEST SWAP1 SSTORE PUSH1 0x40 MLOAD PUSH2 0x658 DUP2 PUSH2 0x1A5F JUMP JUMPDEST PUSH1 0x4 CALLDATALOAD DUP2 MSTORE PUSH1 0x20 DUP2 ADD SWAP1 DUP5 DUP3 MSTORE DUP6 PUSH1 0x40 DUP3 ADD MSTORE DUP3 DUP7 MSTORE PUSH1 0xD PUSH1 0x20 MSTORE PUSH1 0x40 DUP7 KECCAK256 SWAP2 DUP2 MLOAD DUP4 SSTORE MLOAD DUP1 MLOAD SWAP1 PUSH8 0xFFFFFFFFFFFFFFFF DUP3 GT PUSH2 0x7FC JUMPI PUSH2 0x69C PUSH1 0x1 DUP6 ADD SLOAD PUSH2 0x1B83 JUMP JUMPDEST SWAP1 PUSH1 0x1F SWAP2 DUP3 DUP2 GT PUSH2 0x7C1 JUMPI JUMPDEST POP PUSH1 0x20 SWAP2 DUP4 GT PUSH1 0x1 EQ PUSH2 0x746 JUMPI PUSH2 0x6FD SWAP4 DUP4 PUSH2 0x736 SWAP9 SWAP8 SWAP7 SWAP5 PUSH1 0x2 SWAP5 PUSH1 0x40 SWAP5 DUP14 SWAP3 PUSH2 0x73B JUMPI JUMPDEST POP POP DUP2 PUSH1 0x1 SHL SWAP2 PUSH1 0x0 NOT SWAP1 PUSH1 0x3 SHL SHR NOT AND OR PUSH1 0x1 DUP6 ADD SSTORE JUMPDEST ADD MLOAD ISZERO ISZERO SWAP2 ADD SWAP1 PUSH1 0xFF DUP1 NOT DUP4 SLOAD AND SWAP2 ISZERO ISZERO AND OR SWAP1 SSTORE JUMP JUMPDEST PUSH2 0x707 DUP2 CALLER PUSH2 0x23F4 JUMP JUMPDEST PUSH1 0x4 CALLDATALOAD SWAP1 CALLER SWAP1 PUSH32 0x5C1C9352D51031ACC9A558D7CDCCA15B0CE5FE4F46D7315CCA355248175B0A37 DUP8 DUP1 LOG4 PUSH2 0x2382 JUMP JUMPDEST PUSH2 0x570 JUMP JUMPDEST ADD MLOAD SWAP1 POP CODESIZE DUP1 PUSH2 0x6CE JUMP JUMPDEST SWAP1 PUSH1 0x1 DUP6 ADD DUP10 MSTORE PUSH1 0x20 DUP10 KECCAK256 SWAP2 DUP10 JUMPDEST PUSH1 0x1F NOT DUP6 AND DUP2 LT PUSH2 0x7A9 JUMPI POP SWAP4 PUSH1 0x1 DUP5 PUSH1 0x2 SWAP5 PUSH1 0x40 SWAP5 PUSH2 0x6FD SWAP9 PUSH2 0x736 SWAP13 SWAP12 SWAP11 SWAP9 PUSH1 0x1F NOT DUP2 AND LT PUSH2 0x790 JUMPI JUMPDEST POP POP POP DUP2 SHL ADD PUSH1 0x1 DUP6 ADD SSTORE PUSH2 0x6E6 JUMP JUMPDEST ADD MLOAD PUSH1 0x0 NOT PUSH1 0xF8 DUP5 PUSH1 0x3 SHL AND SHR NOT AND SWAP1 SSTORE CODESIZE DUP1 DUP1 PUSH2 0x780 JUMP JUMPDEST SWAP2 SWAP3 PUSH1 0x20 PUSH1 0x1 DUP2 SWAP3 DUP7 DUP6 ADD MLOAD DUP2 SSTORE ADD SWAP5 ADD SWAP3 ADD PUSH2 0x754 JUMP JUMPDEST PUSH2 0x7ED SWAP1 PUSH1 0x1 DUP8 ADD DUP12 MSTORE PUSH1 0x20 DUP12 KECCAK256 PUSH1 0x5 DUP6 DUP1 DUP9 ADD DUP3 SHR DUP4 ADD SWAP4 PUSH1 0x20 DUP10 LT PUSH2 0x7F3 JUMPI JUMPDEST ADD SWAP1 SHR ADD SWAP1 PUSH2 0x2391 JUMP JUMPDEST CODESIZE PUSH2 0x6A8 JUMP JUMPDEST SWAP4 POP DUP3 SWAP4 PUSH2 0x7E3 JUMP JUMPDEST PUSH4 0x4E487B71 PUSH1 0xE0 SHL DUP9 MSTORE PUSH1 0x41 PUSH1 0x4 MSTORE PUSH1 0x24 DUP9 REVERT JUMPDEST SWAP1 POP RETURNDATASIZE DUP1 DUP4 DUP4 RETURNDATACOPY PUSH2 0x821 DUP2 DUP4 PUSH2 0x1A91 JUMP JUMPDEST DUP2 ADD SWAP1 PUSH2 0x100 DUP2 DUP4 SUB SLT PUSH2 0x8A7 JUMPI DUP1 MLOAD PUSH8 0xFFFFFFFFFFFFFFFF SWAP1 DUP2 DUP2 GT PUSH2 0x8AB JUMPI DUP4 PUSH2 0x84E SWAP2 DUP5 ADD PUSH2 0x253D JUMP JUMPDEST POP PUSH1 0x40 DUP3 ADD MLOAD DUP2 DUP2 GT PUSH2 0x8AB JUMPI DUP4 PUSH2 0x867 SWAP2 DUP5 ADD PUSH2 0x253D JUMP JUMPDEST SWAP3 PUSH1 0x60 DUP4 ADD MLOAD SWAP2 DUP3 GT PUSH2 0x8AB JUMPI PUSH2 0x87F SWAP2 DUP4 ADD PUSH2 0x253D JUMP JUMPDEST POP PUSH1 0x80 DUP2 ADD MLOAD PUSH1 0x1 PUSH1 0x1 PUSH1 0xA0 SHL SUB DUP2 AND SUB PUSH2 0x8A7 JUMPI PUSH1 0xA0 PUSH2 0x8A0 SWAP2 ADD PUSH2 0x2375 JUMP JUMPDEST POP CODESIZE PUSH2 0x56D JUMP JUMPDEST DUP3 DUP1 REVERT JUMPDEST DUP5 DUP1 REVERT JUMPDEST PUSH8 0xFFFFFFFFFFFFFFFF DUP2 GT PUSH2 0x8C7 JUMPI PUSH1 0x40 MSTORE CODESIZE PUSH2 0x531 JUMP JUMPDEST PUSH4 0x4E487B71 PUSH1 0xE0 SHL DUP3 MSTORE PUSH1 0x41 PUSH1 0x4 MSTORE PUSH1 0x24 DUP3 REVERT JUMPDEST POP REVERT JUMPDEST PUSH1 0x40 MLOAD PUSH3 0x461BCD PUSH1 0xE5 SHL DUP2 MSTORE PUSH1 0x20 PUSH1 0x4 DUP3 ADD MSTORE PUSH1 0x1C PUSH1 0x24 DUP3 ADD MSTORE PUSH32 0x496E73756666696369656E742045524331313535207469636B65747300000000 PUSH1 0x44 DUP3 ADD MSTORE PUSH1 0x64 SWAP1 REVERT JUMPDEST SWAP1 POP PUSH1 0x20 DUP2 RETURNDATASIZE PUSH1 0x20 GT PUSH2 0x94D JUMPI JUMPDEST DUP2 PUSH2 0x93E PUSH1 0x20 SWAP4 DUP4 PUSH2 0x1A91 JUMP JUMPDEST DUP2 ADD SUB SLT PUSH2 0x8A7 JUMPI MLOAD CODESIZE PUSH2 0x4E7 JUMP JUMPDEST RETURNDATASIZE SWAP2 POP PUSH2 0x931 JUMP JUMPDEST PUSH1 0x40 MLOAD RETURNDATASIZE DUP6 DUP3 RETURNDATACOPY RETURNDATASIZE SWAP1 REVERT JUMPDEST PUSH1 0x40 MLOAD PUSH3 0x461BCD PUSH1 0xE5 SHL DUP2 MSTORE PUSH1 0x20 PUSH1 0x4 DUP3 ADD MSTORE PUSH1 0x18 PUSH1 0x24 DUP3 ADD MSTORE PUSH32 0x496E76616C6964206F722065787069726564206576656E740000000000000000 PUSH1 0x44 DUP3 ADD MSTORE PUSH1 0x64 SWAP1 REVERT JUMPDEST SWAP1 POP PUSH1 0x20 DUP2 RETURNDATASIZE PUSH1 0x20 GT PUSH2 0x9D7 JUMPI JUMPDEST DUP2 PUSH2 0x9C0 PUSH1 0x20 SWAP4 DUP4 PUSH2 0x1A91 JUMP JUMPDEST DUP2 ADD SUB SLT PUSH2 0x8A7 JUMPI PUSH2 0x9D1 SWAP1 PUSH2 0x2375 JUMP JUMPDEST CODESIZE PUSH2 0x4AD JUMP JUMPDEST RETURNDATASIZE SWAP2 POP PUSH2 0x9B3 JUMP JUMPDEST POP CALLVALUE PUSH2 0x19F JUMPI PUSH1 0x20 DUP1 PUSH1 0x3 NOT CALLDATASIZE ADD SLT PUSH2 0x3F4 JUMPI PUSH1 0x4 CALLDATALOAD SWAP1 PUSH2 0x9FE PUSH2 0x1BBD JUMP JUMPDEST PUSH1 0x0 DUP3 DUP2 MSTORE PUSH1 0x2 PUSH1 0x20 MSTORE PUSH1 0x40 SWAP1 KECCAK256 SLOAD PUSH2 0xA21 SWAP1 PUSH1 0x1 PUSH1 0x1 PUSH1 0xA0 SHL SUB AND ISZERO ISZERO PUSH2 0x1C8C JUMP JUMPDEST DUP2 DUP4 MSTORE PUSH1 0xD DUP2 MSTORE PUSH1 0x40 DUP4 KECCAK256 SLOAD SWAP1 PUSH2 0xA37 DUP4 PUSH2 0x1CD8 JUMP JUMPDEST PUSH2 0xA40 DUP5 PUSH2 0x1CD8 JUMP JUMPDEST PUSH1 0x1 PUSH1 0x1 PUSH1 0xA0 SHL SUB SWAP3 DUP2 DUP5 AND DUP1 ISZERO SWAP3 DUP4 ISZERO PUSH2 0xCCE JUMPI POP POP PUSH1 0x8 SLOAD DUP7 DUP9 MSTORE PUSH1 0x9 DUP3 MSTORE DUP1 PUSH1 0x40 DUP10 KECCAK256 SSTORE PUSH1 0x1 PUSH1 0x40 SHL DUP2 LT ISZERO PUSH2 0x7FC JUMPI DUP7 PUSH2 0xA87 DUP3 PUSH1 0x1 PUSH2 0xAA0 SWAP5 ADD PUSH1 0x8 SSTORE PUSH2 0x22EB JUMP JUMPDEST SWAP1 SWAP2 SWAP1 DUP3 SLOAD SWAP1 PUSH1 0x3 SHL SWAP2 DUP3 SHL SWAP2 PUSH1 0x0 NOT SWAP1 SHL NOT AND OR SWAP1 SSTORE JUMP JUMPDEST PUSH1 0x8 SLOAD PUSH1 0x0 NOT SWAP3 SWAP1 DUP4 DUP2 ADD SWAP1 DUP2 GT PUSH2 0xCBA JUMPI DUP8 DUP10 MSTORE PUSH1 0x9 DUP4 MSTORE PUSH2 0xAC7 PUSH1 0x40 DUP11 KECCAK256 SLOAD SWAP2 PUSH2 0x22EB JUMP JUMPDEST SWAP1 SLOAD SWAP1 PUSH1 0x3 SHL SHR PUSH2 0xADB DUP2 PUSH2 0xA87 DUP5 PUSH2 0x22EB JUMP JUMPDEST DUP10 MSTORE PUSH1 0x9 DUP4 MSTORE PUSH1 0x40 DUP10 KECCAK256 SSTORE DUP7 DUP9 MSTORE DUP8 PUSH1 0x40 DUP2 KECCAK256 SSTORE PUSH1 0x8 SLOAD DUP1 ISZERO PUSH2 0xCA6 JUMPI DUP9 SWAP3 SWAP2 DUP5 DUP10 SWAP3 ADD PUSH2 0xB08 DUP2 PUSH2 0x22EB JUMP JUMPDEST DUP8 DUP3 SLOAD SWAP2 PUSH1 0x3 SHL SHL NOT AND SWAP1 SSTORE PUSH1 0x8 SSTORE ISZERO DUP1 PUSH2 0xC9F JUMPI JUMPDEST PUSH2 0xC28 JUMPI JUMPDEST DUP3 PUSH1 0x2 SWAP4 SWAP5 PUSH2 0xB31 DUP4 PUSH2 0x1CD8 JUMP JUMPDEST DUP4 DUP4 MSTORE PUSH1 0x4 DUP6 MSTORE DUP9 PUSH1 0x40 DUP5 KECCAK256 SWAP2 PUSH1 0x1 PUSH1 0x1 PUSH1 0x60 SHL SUB PUSH1 0xA0 SHL SWAP3 DUP4 DUP2 SLOAD AND SWAP1 SSTORE AND SWAP2 DUP3 DUP5 MSTORE PUSH1 0x3 DUP7 MSTORE PUSH1 0x40 DUP5 KECCAK256 SWAP1 DUP2 SLOAD ADD SWAP1 SSTORE DUP4 DUP4 MSTORE DUP6 DUP6 MSTORE PUSH1 0x40 DUP4 KECCAK256 SWAP1 DUP2 SLOAD AND SWAP1 SSTORE PUSH32 0xDDF252AD1BE2C89B69C2B068FC378DAA952BA7F163C4A11628F55A4DF523B3EF DUP3 DUP1 LOG4 PUSH1 0xD DUP2 MSTORE DUP3 PUSH1 0x40 DUP2 KECCAK256 SWAP2 DUP2 DUP4 SSTORE PUSH1 0x1 DUP4 ADD SWAP1 PUSH2 0xBB3 DUP3 SLOAD PUSH2 0x1B83 JUMP JUMPDEST SWAP1 DUP2 PUSH2 0xBE9 JUMPI JUMPDEST POP POP POP POP ADD SSTORE AND SWAP2 PUSH32 0x50D459B3DF6D4D2831EF5996A57CAA721FB381B00BF5309A64F099895047948C DUP5 DUP1 LOG4 DUP1 RETURN JUMPDEST DUP4 SWAP1 PUSH1 0x1F DUP4 GT PUSH1 0x1 EQ PUSH2 0xC04 JUMPI POP POP POP SSTORE JUMPDEST DUP3 CODESIZE DUP1 DUP1 PUSH2 0xBBA JUMP JUMPDEST DUP4 DUP3 MSTORE DUP2 KECCAK256 SWAP3 SWAP1 SWAP2 PUSH2 0xC21 SWAP1 PUSH1 0x1F ADD PUSH1 0x5 SHR DUP5 ADD PUSH1 0x1 DUP6 ADD PUSH2 0x2391 JUMP JUMPDEST SSTORE SSTORE PUSH2 0xBFB JUMP JUMPDEST SWAP1 SWAP3 SWAP2 MSTORE PUSH1 0xD DUP3 MSTORE PUSH1 0xFF PUSH1 0x2 PUSH1 0x40 DUP10 KECCAK256 ADD SLOAD AND PUSH2 0xC48 JUMPI SWAP1 DUP7 SWAP1 DUP7 PUSH2 0xB23 JUMP JUMPDEST PUSH1 0x40 MLOAD PUSH3 0x461BCD PUSH1 0xE5 SHL DUP2 MSTORE PUSH1 0x4 DUP2 ADD DUP4 SWAP1 MSTORE PUSH1 0x29 PUSH1 0x24 DUP3 ADD MSTORE PUSH32 0x5469636B65743A2075736564207469636B65742063616E6E6F74206265207472 PUSH1 0x44 DUP3 ADD MSTORE PUSH9 0x185B9CD9995C9C9959 PUSH1 0xBA SHL PUSH1 0x64 DUP3 ADD MSTORE PUSH1 0x84 SWAP1 REVERT JUMPDEST POP DUP3 PUSH2 0xB1E JUMP JUMPDEST PUSH4 0x4E487B71 PUSH1 0xE0 SHL DUP10 MSTORE PUSH1 0x31 PUSH1 0x4 MSTORE PUSH1 0x24 DUP10 REVERT JUMPDEST PUSH4 0x4E487B71 PUSH1 0xE0 SHL DUP10 MSTORE PUSH1 0x11 PUSH1 0x4 MSTORE PUSH1 0x24 DUP10 REVERT JUMPDEST PUSH2 0xCD7 SWAP1 PUSH2 0x1C15 JUMP JUMPDEST PUSH1 0x0 NOT DUP2 ADD SWAP2 SWAP1 DUP3 GT PUSH2 0xCBA JUMPI DUP8 DUP10 MSTORE PUSH1 0x7 DUP4 MSTORE PUSH1 0x40 DUP10 KECCAK256 SLOAD DUP3 DUP2 SUB PUSH2 0xD1C JUMPI JUMPDEST POP DUP8 DUP10 MSTORE DUP9 PUSH1 0x40 DUP2 KECCAK256 SSTORE DUP9 MSTORE PUSH1 0x6 DUP3 MSTORE PUSH1 0x40 DUP9 KECCAK256 SWAP1 DUP9 MSTORE DUP2 MSTORE DUP7 PUSH1 0x40 DUP2 KECCAK256 SSTORE PUSH2 0xAA0 JUMP JUMPDEST DUP2 DUP11 MSTORE PUSH1 0x6 DUP5 MSTORE PUSH1 0x40 DUP11 KECCAK256 DUP4 DUP12 MSTORE DUP5 MSTORE PUSH1 0x40 DUP11 KECCAK256 SLOAD DUP3 DUP12 MSTORE PUSH1 0x6 DUP6 MSTORE PUSH1 0x40 DUP12 KECCAK256 DUP3 DUP13 MSTORE DUP6 MSTORE DUP1 PUSH1 0x40 DUP13 KECCAK256 SSTORE DUP11 MSTORE PUSH1 0x7 DUP5 MSTORE PUSH1 0x40 DUP11 KECCAK256 SSTORE CODESIZE PUSH2 0xCF8 JUMP JUMPDEST POP CALLVALUE PUSH2 0x19F JUMPI PUSH1 0x40 CALLDATASIZE PUSH1 0x3 NOT ADD SLT PUSH2 0x19F JUMPI PUSH2 0xD72 PUSH2 0x1A33 JUMP JUMPDEST PUSH1 0x24 CALLDATALOAD SWAP1 DUP2 ISZERO ISZERO SWAP1 DUP2 DUP4 SUB PUSH2 0x45C JUMPI PUSH1 0x1 PUSH1 0x1 PUSH1 0xA0 SHL SUB AND SWAP2 CALLER DUP4 EQ PUSH2 0xDEC JUMPI PUSH2 0xDBD SWAP1 CALLER DUP6 MSTORE PUSH1 0x5 PUSH1 0x20 MSTORE PUSH1 0x40 DUP6 KECCAK256 DUP5 DUP7 MSTORE PUSH1 0x20 MSTORE PUSH1 0x40 DUP6 KECCAK256 SWAP1 PUSH1 0xFF DUP1 NOT DUP4 SLOAD AND SWAP2 ISZERO ISZERO AND OR SWAP1 SSTORE JUMP JUMPDEST PUSH1 0x40 MLOAD SWAP1 DUP2 MSTORE PUSH32 0x17307EAB39AB6107E8899845AD3D59BD9653F200F220920489CA2B5937696C31 PUSH1 0x20 CALLER SWAP3 LOG3 DUP1 RETURN JUMPDEST PUSH1 0x40 MLOAD PUSH3 0x461BCD PUSH1 0xE5 SHL DUP2 MSTORE PUSH1 0x20 PUSH1 0x4 DUP3 ADD MSTORE PUSH1 0x19 PUSH1 0x24 DUP3 ADD MSTORE PUSH32 0x4552433732313A20617070726F766520746F2063616C6C657200000000000000 PUSH1 0x44 DUP3 ADD MSTORE PUSH1 0x64 SWAP1 REVERT JUMPDEST POP CALLVALUE PUSH2 0x19F JUMPI DUP1 PUSH1 0x3 NOT CALLDATASIZE ADD SLT PUSH2 0x19F JUMPI PUSH1 0x40 MLOAD SWAP1 DUP1 PUSH1 0x1 DUP1 SLOAD SWAP2 PUSH2 0xE55 DUP4 PUSH2 0x1B83 JUMP JUMPDEST DUP1 DUP7 MSTORE SWAP3 DUP3 DUP2 AND SWAP1 DUP2 ISZERO PUSH2 0xEEA JUMPI POP PUSH1 0x1 EQ PUSH2 0xE90 JUMPI JUMPDEST PUSH2 0x381 DUP6 PUSH2 0xE7C DUP2 DUP8 SUB DUP3 PUSH2 0x1A91 JUMP JUMPDEST PUSH1 0x40 MLOAD SWAP2 DUP3 SWAP2 PUSH1 0x20 DUP4 MSTORE PUSH1 0x20 DUP4 ADD SWAP1 PUSH2 0x1B29 JUMP JUMPDEST SWAP3 POP DUP1 DUP4 MSTORE PUSH32 0xB10E2D527612073B26EECDFD717E6A320CF44B4AFAC2B0732D9FCBE2B7FA0CF6 JUMPDEST DUP3 DUP5 LT PUSH2 0xED2 JUMPI POP POP POP DUP2 ADD PUSH1 0x20 ADD PUSH2 0xE7C DUP3 PUSH2 0x381 PUSH2 0xE6C JUMP JUMPDEST DUP1 SLOAD PUSH1 0x20 DUP6 DUP8 ADD DUP2 ADD SWAP2 SWAP1 SWAP2 MSTORE SWAP1 SWAP4 ADD SWAP3 DUP2 ADD PUSH2 0xEB7 JUMP JUMPDEST DUP7 SWAP6 POP PUSH2 0x381 SWAP7 SWAP4 POP PUSH1 0x20 SWAP3 POP PUSH2 0xE7C SWAP5 SWAP2 POP PUSH1 0xFF NOT AND DUP3 DUP5 ADD MSTORE ISZERO ISZERO PUSH1 0x5 SHL DUP3 ADD ADD SWAP3 SWAP4 PUSH2 0xE6C JUMP JUMPDEST POP CALLVALUE PUSH2 0x19F JUMPI DUP1 PUSH1 0x3 NOT CALLDATASIZE ADD SLT PUSH2 0x19F JUMPI PUSH1 0xA SLOAD PUSH1 0x40 MLOAD PUSH1 0x1 PUSH1 0x1 PUSH1 0xA0 SHL SUB SWAP1 SWAP2 AND DUP2 MSTORE PUSH1 0x20 SWAP1 RETURN JUMPDEST POP CALLVALUE PUSH2 0x19F JUMPI PUSH1 0x20 CALLDATASIZE PUSH1 0x3 NOT ADD SLT PUSH2 0x19F JUMPI PUSH1 0x40 PUSH1 0x20 SWAP2 PUSH1 0x4 CALLDATALOAD PUSH2 0xF79 PUSH2 0x2F5 DUP3 PUSH1 0x0 MSTORE PUSH1 0x2 PUSH1 0x20 MSTORE PUSH1 0x1 DUP1 PUSH1 0xA0 SHL SUB PUSH1 0x40 PUSH1 0x0 KECCAK256 SLOAD AND ISZERO ISZERO SWAP1 JUMP JUMPDEST DUP2 MSTORE PUSH1 0xD DUP4 MSTORE KECCAK256 SLOAD PUSH1 0x40 MLOAD SWAP1 DUP2 MSTORE RETURN JUMPDEST POP CALLVALUE PUSH2 0x19F JUMPI DUP1 PUSH1 0x3 NOT CALLDATASIZE ADD SLT PUSH2 0x19F JUMPI PUSH2 0xFA2 PUSH2 0x1BBD JUMP JUMPDEST PUSH1 0xA DUP1 SLOAD PUSH1 0x1 PUSH1 0x1 PUSH1 0xA0 SHL SUB NOT DUP2 AND SWAP1 SWAP2 SSTORE DUP2 SWAP1 PUSH1 0x1 PUSH1 0x1 PUSH1 0xA0 SHL SUB AND PUSH32 0x8BE0079C531659141344CD1FD0A4F28419497F9722A3DAAFE3B4186F6B6457E0 DUP3 DUP1 LOG3 DUP1 RETURN JUMPDEST POP CALLVALUE PUSH2 0x19F JUMPI PUSH1 0x20 CALLDATASIZE PUSH1 0x3 NOT ADD SLT PUSH2 0x19F JUMPI PUSH1 0x20 PUSH2 0x100A PUSH2 0x1005 PUSH2 0x1A33 JUMP JUMPDEST PUSH2 0x1C15 JUMP JUMPDEST PUSH1 0x40 MLOAD SWAP1 DUP2 MSTORE RETURN JUMPDEST POP CALLVALUE PUSH2 0x19F JUMPI DUP1 PUSH1 0x3 NOT CALLDATASIZE ADD SLT PUSH2 0x19F JUMPI PUSH1 0xC SLOAD PUSH1 0x40 MLOAD PUSH1 0x1 PUSH1 0x1 PUSH1 0xA0 SHL SUB SWAP1 SWAP2 AND DUP2 MSTORE PUSH1 0x20 SWAP1 RETURN JUMPDEST POP CALLVALUE PUSH2 0x19F JUMPI PUSH1 0x20 CALLDATASIZE PUSH1 0x3 NOT ADD SLT PUSH2 0x19F JUMPI PUSH1 0x20 PUSH2 0x105A PUSH1 0x4 CALLDATALOAD PUSH2 0x1CD8 JUMP JUMPDEST PUSH1 0x40 MLOAD PUSH1 0x1 PUSH1 0x1 PUSH1 0xA0 SHL SUB SWAP1 SWAP2 AND DUP2 MSTORE RETURN JUMPDEST POP CALLVALUE PUSH2 0x19F JUMPI PUSH1 0x20 SWAP1 DUP2 PUSH1 0x3 NOT CALLDATASIZE ADD SLT PUSH2 0x19F JUMPI PUSH1 0x4 CALLDATALOAD DUP2 MSTORE PUSH1 0xD DUP3 MSTORE PUSH1 0x40 DUP2 KECCAK256 SWAP1 DUP2 SLOAD SWAP2 PUSH1 0x1 DUP1 DUP3 ADD SWAP3 DUP6 PUSH1 0x40 MLOAD SWAP5 DUP6 SWAP4 DUP4 DUP3 SLOAD SWAP3 PUSH2 0x10AB DUP5 PUSH2 0x1B83 JUMP JUMPDEST DUP1 DUP9 MSTORE SWAP4 DUP4 DUP2 AND SWAP1 DUP2 ISZERO PUSH2 0x113C JUMPI POP PUSH1 0x1 EQ PUSH2 0x1100 JUMPI JUMPDEST DUP5 DUP11 DUP9 PUSH2 0x10F4 PUSH1 0xFF PUSH1 0x2 DUP14 PUSH2 0x10D9 DUP6 DUP15 SUB DUP7 PUSH2 0x1A91 JUMP JUMPDEST ADD SLOAD AND SWAP2 PUSH1 0x60 PUSH1 0x40 MLOAD SWAP6 DUP7 SWAP6 DUP7 MSTORE DUP6 ADD MSTORE PUSH1 0x60 DUP5 ADD SWAP1 PUSH2 0x1B29 JUMP JUMPDEST SWAP1 ISZERO ISZERO PUSH1 0x40 DUP4 ADD MSTORE SUB SWAP1 RETURN JUMPDEST SWAP1 DUP1 SWAP5 SWAP6 POP MSTORE DUP4 DUP4 KECCAK256 JUMPDEST DUP3 DUP5 LT PUSH2 0x1126 JUMPI POP POP POP DUP3 ADD ADD DUP6 PUSH2 0x10D9 DUP4 PUSH1 0x2 PUSH2 0x10F4 PUSH2 0x10C2 JUMP JUMPDEST DUP1 SLOAD DUP9 DUP6 ADD DUP7 ADD MSTORE DUP8 SWAP6 POP SWAP3 DUP5 ADD SWAP3 DUP2 ADD PUSH2 0x110A JUMP JUMPDEST PUSH1 0xFF NOT AND DUP7 DUP10 ADD MSTORE POP POP POP POP ISZERO ISZERO PUSH1 0x5 SHL DUP4 ADD ADD SWAP1 POP DUP6 PUSH2 0x10D9 DUP4 PUSH1 0x2 PUSH2 0x10F4 PUSH2 0x10C2 JUMP JUMPDEST POP CALLVALUE PUSH2 0x19F JUMPI PUSH1 0x20 CALLDATASIZE PUSH1 0x3 NOT ADD SLT PUSH2 0x19F JUMPI PUSH1 0x4 CALLDATALOAD PUSH1 0x8 SLOAD DUP2 LT ISZERO PUSH2 0x1199 JUMPI PUSH2 0x118B PUSH1 0x20 SWAP2 PUSH2 0x22EB JUMP JUMPDEST SWAP1 SLOAD PUSH1 0x40 MLOAD SWAP2 PUSH1 0x3 SHL SHR DUP2 MSTORE RETURN JUMPDEST PUSH1 0x40 MLOAD PUSH3 0x461BCD PUSH1 0xE5 SHL DUP2 MSTORE PUSH1 0x20 PUSH1 0x4 DUP3 ADD MSTORE PUSH1 0x2C PUSH1 0x24 DUP3 ADD MSTORE PUSH32 0x455243373231456E756D657261626C653A20676C6F62616C20696E646578206F PUSH1 0x44 DUP3 ADD MSTORE PUSH12 0x7574206F6620626F756E6473 PUSH1 0xA0 SHL PUSH1 0x64 DUP3 ADD MSTORE PUSH1 0x84 SWAP1 REVERT JUMPDEST POP CALLVALUE PUSH2 0x19F JUMPI PUSH2 0x1202 CALLDATASIZE PUSH2 0x1B4E JUMP JUMPDEST PUSH1 0x40 SWAP4 SWAP3 SWAP4 MLOAD SWAP2 PUSH1 0x20 DUP4 ADD SWAP5 DUP4 DUP7 LT PUSH8 0xFFFFFFFFFFFFFFFF DUP8 GT OR PUSH2 0x1231 JUMPI PUSH2 0x459 SWAP5 SWAP6 PUSH1 0x40 MSTORE DUP6 DUP5 MSTORE PUSH2 0x1D9E JUMP JUMPDEST PUSH4 0x4E487B71 PUSH1 0xE0 SHL DUP6 MSTORE PUSH1 0x41 PUSH1 0x4 MSTORE PUSH1 0x24 DUP6 REVERT JUMPDEST POP CALLVALUE PUSH2 0x19F JUMPI PUSH1 0x40 CALLDATASIZE PUSH1 0x3 NOT ADD SLT PUSH2 0x19F JUMPI PUSH2 0x125F PUSH2 0x1A33 JUMP JUMPDEST PUSH1 0x24 CALLDATALOAD SWAP2 PUSH2 0x126C DUP3 PUSH2 0x1C15 JUMP JUMPDEST DUP4 LT ISZERO PUSH2 0x1299 JUMPI PUSH1 0x20 SWAP3 PUSH1 0x40 SWAP3 PUSH1 0x1 DUP1 PUSH1 0xA0 SHL SUB AND DUP3 MSTORE PUSH1 0x6 DUP5 MSTORE DUP3 DUP3 KECCAK256 SWAP1 DUP3 MSTORE DUP4 MSTORE KECCAK256 SLOAD PUSH1 0x40 MLOAD SWAP1 DUP2 MSTORE RETURN JUMPDEST PUSH1 0x40 MLOAD PUSH3 0x461BCD PUSH1 0xE5 SHL DUP2 MSTORE PUSH1 0x20 PUSH1 0x4 DUP3 ADD MSTORE PUSH1 0x2B PUSH1 0x24 DUP3 ADD MSTORE PUSH32 0x455243373231456E756D657261626C653A206F776E657220696E646578206F75 PUSH1 0x44 DUP3 ADD MSTORE PUSH11 0x74206F6620626F756E6473 PUSH1 0xA8 SHL PUSH1 0x64 DUP3 ADD MSTORE PUSH1 0x84 SWAP1 REVERT JUMPDEST POP CALLVALUE PUSH2 0x19F JUMPI PUSH1 0x20 CALLDATASIZE PUSH1 0x3 NOT ADD SLT PUSH2 0x19F JUMPI PUSH1 0xFF PUSH1 0x2 PUSH1 0x40 PUSH1 0x20 SWAP4 PUSH1 0x4 CALLDATALOAD PUSH2 0x1332 PUSH2 0x2F5 DUP3 PUSH1 0x0 MSTORE PUSH1 0x2 PUSH1 0x20 MSTORE PUSH1 0x1 DUP1 PUSH1 0xA0 SHL SUB PUSH1 0x40 PUSH1 0x0 KECCAK256 SLOAD AND ISZERO ISZERO SWAP1 JUMP JUMPDEST DUP2 MSTORE PUSH1 0xD DUP6 MSTORE KECCAK256 ADD SLOAD AND PUSH1 0x40 MLOAD SWAP1 ISZERO ISZERO DUP2 MSTORE RETURN JUMPDEST POP CALLVALUE PUSH2 0x19F JUMPI PUSH1 0x20 CALLDATASIZE PUSH1 0x3 NOT ADD SLT PUSH2 0x19F JUMPI PUSH1 0x4 CALLDATALOAD PUSH1 0x1 DUP1 PUSH1 0xA0 SHL SUB PUSH2 0x1371 DUP2 PUSH1 0xE SLOAD AND CALLER EQ PUSH2 0x2338 JUMP JUMPDEST PUSH1 0x0 DUP3 DUP2 MSTORE PUSH1 0x2 PUSH1 0x20 MSTORE PUSH1 0x40 SWAP1 KECCAK256 SLOAD PUSH2 0x1394 SWAP1 PUSH1 0x1 PUSH1 0x1 PUSH1 0xA0 SHL SUB AND ISZERO ISZERO PUSH2 0x1C8C JUMP JUMPDEST DUP2 DUP4 MSTORE PUSH1 0xD PUSH1 0x20 MSTORE PUSH1 0xFF PUSH1 0x2 PUSH1 0x40 DUP6 KECCAK256 ADD SLOAD AND PUSH2 0x13FA JUMPI DUP2 DUP4 MSTORE PUSH1 0xD PUSH1 0x20 MSTORE PUSH1 0x40 DUP4 KECCAK256 PUSH1 0x2 DUP2 ADD DUP1 SLOAD PUSH1 0xFF NOT AND PUSH1 0x1 OR SWAP1 SSTORE SLOAD SWAP1 PUSH2 0x13D1 DUP4 PUSH2 0x1CD8 JUMP JUMPDEST AND SWAP2 PUSH32 0xB35EBDFB9515B145E406C5C5A0846EC436DB0B9560927AF3AF7A754D90C4F6FF DUP5 DUP1 LOG4 DUP1 RETURN JUMPDEST PUSH1 0x40 MLOAD PUSH3 0x461BCD PUSH1 0xE5 SHL DUP2 MSTORE PUSH1 0x20 PUSH1 0x4 DUP3 ADD MSTORE PUSH1 0x13 PUSH1 0x24 DUP3 ADD MSTORE PUSH19 0x151A58DAD95D08185B1C9958591E481D5CD959 PUSH1 0x6A SHL PUSH1 0x44 DUP3 ADD MSTORE PUSH1 0x64 SWAP1 REVERT JUMPDEST POP CALLVALUE PUSH2 0x19F JUMPI PUSH2 0x459 PUSH2 0x1447 CALLDATASIZE PUSH2 0x1B4E JUMP JUMPDEST SWAP2 PUSH2 0x145A PUSH2 0x1455 DUP5 CALLER PUSH2 0x1E39 JUMP JUMPDEST PUSH2 0x1D3C JUMP JUMPDEST PUSH2 0x1F01 JUMP JUMPDEST POP CALLVALUE PUSH2 0x19F JUMPI DUP1 PUSH1 0x3 NOT CALLDATASIZE ADD SLT PUSH2 0x19F JUMPI PUSH1 0x20 PUSH1 0x8 SLOAD PUSH1 0x40 MLOAD SWAP1 DUP2 MSTORE RETURN JUMPDEST POP CALLVALUE PUSH2 0x19F JUMPI PUSH1 0x40 CALLDATASIZE PUSH1 0x3 NOT ADD SLT PUSH2 0x19F JUMPI PUSH2 0x1497 PUSH2 0x1A33 JUMP JUMPDEST PUSH1 0x24 CALLDATALOAD SWAP1 PUSH1 0x1 PUSH1 0x1 PUSH1 0xA0 SHL SUB DUP1 DUP1 PUSH2 0x14AE DUP6 PUSH2 0x1CD8 JUMP JUMPDEST AND SWAP3 AND SWAP2 DUP1 DUP4 EQ PUSH2 0x15A3 JUMPI DUP1 CALLER EQ SWAP1 DUP2 ISZERO PUSH2 0x1582 JUMPI JUMPDEST POP ISZERO PUSH2 0x1517 JUMPI DUP3 DUP5 MSTORE PUSH1 0x4 PUSH1 0x20 MSTORE PUSH1 0x40 DUP5 KECCAK256 DUP1 SLOAD PUSH1 0x1 PUSH1 0x1 PUSH1 0xA0 SHL SUB NOT AND DUP4 OR SWAP1 SSTORE PUSH2 0x14EF DUP4 PUSH2 0x1CD8 JUMP JUMPDEST AND PUSH32 0x8C5BE1E5EBEC7D5BD14F71427D1E84F3DD0314C0F7B2291E5B200AC8C7C3B925 DUP5 DUP1 LOG4 DUP1 RETURN JUMPDEST PUSH1 0x40 MLOAD PUSH3 0x461BCD PUSH1 0xE5 SHL DUP2 MSTORE PUSH1 0x20 PUSH1 0x4 DUP3 ADD MSTORE PUSH1 0x3D PUSH1 0x24 DUP3 ADD MSTORE PUSH32 0x4552433732313A20617070726F76652063616C6C6572206973206E6F7420746F PUSH1 0x44 DUP3 ADD MSTORE PUSH32 0x6B656E206F776E6572206F7220617070726F76656420666F7220616C6C000000 PUSH1 0x64 DUP3 ADD MSTORE PUSH1 0x84 SWAP1 REVERT JUMPDEST SWAP1 POP DUP5 MSTORE PUSH1 0x5 PUSH1 0x20 MSTORE PUSH1 0x40 DUP5 KECCAK256 CALLER DUP6 MSTORE PUSH1 0x20 MSTORE PUSH1 0xFF PUSH1 0x40 DUP6 KECCAK256 SLOAD AND CODESIZE PUSH2 0x14C4 JUMP JUMPDEST PUSH1 0x40 MLOAD PUSH3 0x461BCD PUSH1 0xE5 SHL DUP2 MSTORE PUSH1 0x20 PUSH1 0x4 DUP3 ADD MSTORE PUSH1 0x21 PUSH1 0x24 DUP3 ADD MSTORE PUSH32 0x4552433732313A20617070726F76616C20746F2063757272656E74206F776E65 PUSH1 0x44 DUP3 ADD MSTORE PUSH1 0x39 PUSH1 0xF9 SHL PUSH1 0x64 DUP3 ADD MSTORE PUSH1 0x84 SWAP1 REVERT JUMPDEST POP CALLVALUE PUSH2 0x19F JUMPI PUSH1 0x20 CALLDATASIZE PUSH1 0x3 NOT ADD SLT PUSH2 0x19F JUMPI PUSH1 0x20 PUSH2 0x105A PUSH1 0x4 CALLDATALOAD PUSH2 0x1CFE JUMP JUMPDEST POP CALLVALUE PUSH2 0x19F JUMPI DUP1 PUSH1 0x3 NOT CALLDATASIZE ADD SLT PUSH2 0x19F JUMPI PUSH1 0xE SLOAD PUSH1 0x40 MLOAD PUSH1 0x1 PUSH1 0x1 PUSH1 0xA0 SHL SUB SWAP1 SWAP2 AND DUP2 MSTORE PUSH1 0x20 SWAP1 RETURN JUMPDEST POP CALLVALUE PUSH2 0x19F JUMPI DUP1 PUSH1 0x3 NOT CALLDATASIZE ADD SLT PUSH2 0x19F JUMPI PUSH1 0x40 MLOAD SWAP1 DUP1 DUP1 SLOAD PUSH2 0x165B DUP2 PUSH2 0x1B83 JUMP JUMPDEST DUP1 DUP6 MSTORE SWAP2 PUSH1 0x1 SWAP2 DUP1 DUP4 AND SWAP1 DUP2 ISZERO PUSH2 0xEEA JUMPI POP PUSH1 0x1 EQ PUSH2 0x1684 JUMPI PUSH2 0x381 DUP6 PUSH2 0xE7C DUP2 DUP8 SUB DUP3 PUSH2 0x1A91 JUMP JUMPDEST DUP1 DUP1 SWAP5 POP MSTORE PUSH32 0x290DECD9548B62A8D60345A988386FC84BA6BC95484008F6362F93160EF3E563 JUMPDEST DUP3 DUP5 LT PUSH2 0x16C6 JUMPI POP POP POP DUP2 ADD PUSH1 0x20 ADD PUSH2 0xE7C DUP3 PUSH2 0x381 PUSH2 0xE6C JUMP JUMPDEST DUP1 SLOAD PUSH1 0x20 DUP6 DUP8 ADD DUP2 ADD SWAP2 SWAP1 SWAP2 MSTORE SWAP1 SWAP4 ADD SWAP3 DUP2 ADD PUSH2 0x16AB JUMP JUMPDEST POP CALLVALUE PUSH2 0x19F JUMPI PUSH1 0x60 CALLDATASIZE PUSH1 0x3 NOT ADD SLT PUSH2 0x19F JUMPI PUSH2 0x16F8 PUSH2 0x1A33 JUMP JUMPDEST PUSH1 0x24 CALLDATALOAD SWAP1 PUSH8 0xFFFFFFFFFFFFFFFF PUSH1 0x44 CALLDATALOAD DUP2 DUP2 GT PUSH2 0x8AB JUMPI CALLDATASIZE PUSH1 0x23 DUP3 ADD SLT ISZERO PUSH2 0x8AB JUMPI PUSH2 0x172E SWAP1 CALLDATASIZE SWAP1 PUSH1 0x24 DUP2 PUSH1 0x4 ADD CALLDATALOAD SWAP2 ADD PUSH2 0x1ACF JUMP JUMPDEST SWAP2 PUSH1 0x1 DUP1 PUSH1 0xA0 SHL SUB SWAP2 PUSH2 0x1746 DUP4 PUSH1 0xE SLOAD AND CALLER EQ PUSH2 0x2338 JUMP JUMPDEST DUP3 PUSH1 0xC SLOAD AND PUSH1 0x40 MLOAD DUP1 SWAP2 PUSH4 0x49287C0B PUSH1 0xE0 SHL DUP3 MSTORE DUP8 PUSH1 0x4 DUP4 ADD MSTORE DUP2 PUSH1 0x24 PUSH1 0x20 SWAP5 DUP6 SWAP4 GAS STATICCALL SWAP1 DUP2 ISZERO PUSH2 0x19A1 JUMPI DUP9 SWAP2 PUSH2 0x1968 JUMPI JUMPDEST POP ISZERO PUSH2 0x192C JUMPI PUSH1 0xB SLOAD SWAP5 PUSH2 0x178B DUP7 PUSH2 0x2382 JUMP JUMPDEST PUSH1 0xB SSTORE PUSH1 0x40 MLOAD SWAP3 PUSH2 0x179B DUP5 PUSH2 0x1A5F JUMP JUMPDEST DUP8 DUP5 MSTORE DUP3 DUP5 ADD SWAP2 DUP3 MSTORE PUSH1 0x40 DUP5 ADD SWAP3 DUP10 DUP5 MSTORE DUP8 DUP11 MSTORE PUSH1 0xD DUP2 MSTORE PUSH1 0x40 DUP11 KECCAK256 SWAP5 MLOAD DUP6 SSTORE PUSH1 0x1 SWAP1 DUP2 DUP7 ADD SWAP4 MLOAD DUP1 MLOAD SWAP4 DUP5 GT PUSH2 0x1918 JUMPI SWAP1 DUP5 SWAP4 SWAP3 SWAP2 PUSH2 0x17DE DUP14 SWAP9 SWAP8 SWAP7 SLOAD PUSH2 0x1B83 JUMP JUMPDEST PUSH1 0x1F DUP2 GT PUSH2 0x18DF JUMPI JUMPDEST POP DUP2 PUSH1 0x1F DUP6 GT PUSH1 0x1 EQ PUSH2 0x186F JUMPI POP SWAP3 DUP1 SWAP3 DUP2 SWAP3 PUSH1 0x2 SWAP8 SWAP7 SWAP6 PUSH2 0x1831 SWAP11 SWAP5 PUSH2 0x1864 JUMPI JUMPDEST POP POP SHL SWAP2 PUSH1 0x0 NOT SWAP1 PUSH1 0x3 SHL SHR NOT AND OR SWAP1 SSTORE JUMPDEST MLOAD ISZERO ISZERO SWAP2 ADD SWAP1 PUSH1 0xFF DUP1 NOT DUP4 SLOAD AND SWAP2 ISZERO ISZERO AND OR SWAP1 SSTORE JUMP JUMPDEST PUSH2 0x183B DUP4 DUP3 PUSH2 0x23F4 JUMP JUMPDEST AND SWAP1 PUSH32 0x5C1C9352D51031ACC9A558D7CDCCA15B0CE5FE4F46D7315CCA355248175B0A37 DUP5 DUP1 LOG4 DUP1 RETURN JUMPDEST ADD MLOAD SWAP3 POP CODESIZE DUP1 PUSH2 0x1809 JUMP JUMPDEST PUSH1 0x1F SWAP9 SWAP4 SWAP6 SWAP7 SWAP8 SWAP9 NOT DUP6 AND SWAP1 DUP8 DUP6 MSTORE DUP1 DUP6 KECCAK256 SWAP5 SWAP1 JUMPDEST DUP3 DUP3 LT PUSH2 0x18C8 JUMPI POP POP SWAP2 PUSH2 0x1831 SWAP9 SWAP8 SWAP6 SWAP4 SWAP2 DUP6 PUSH1 0x2 SWAP9 SWAP7 SWAP5 LT PUSH2 0x18AF JUMPI JUMPDEST POP POP POP DUP2 SHL ADD SWAP1 SSTORE PUSH2 0x181B JUMP JUMPDEST ADD MLOAD PUSH1 0x0 NOT PUSH1 0xF8 DUP5 PUSH1 0x3 SHL AND SHR NOT AND SWAP1 SSTORE CODESIZE DUP1 DUP1 PUSH2 0x18A2 JUMP JUMPDEST DUP1 DUP9 DUP7 SWAP8 DUP3 SWAP5 SWAP8 DUP8 ADD MLOAD DUP2 SSTORE ADD SWAP7 ADD SWAP5 ADD SWAP1 PUSH2 0x1884 JUMP JUMPDEST PUSH2 0x1908 SWAP1 DUP7 DUP11 MSTORE DUP4 DUP11 KECCAK256 PUSH1 0x1F DUP8 ADD PUSH1 0x5 SHR DUP2 ADD SWAP2 DUP6 DUP9 LT PUSH2 0x190E JUMPI JUMPDEST PUSH1 0x1F ADD PUSH1 0x5 SHR ADD SWAP1 PUSH2 0x2391 JUMP JUMPDEST CODESIZE PUSH2 0x17E7 JUMP JUMPDEST SWAP1 SWAP2 POP DUP2 SWAP1 PUSH2 0x18FB JUMP JUMPDEST PUSH4 0x4E487B71 PUSH1 0xE0 SHL DUP13 MSTORE PUSH1 0x41 PUSH1 0x4 MSTORE PUSH1 0x24 DUP13 REVERT JUMPDEST PUSH1 0x64 SWAP1 PUSH1 0x40 MLOAD SWAP1 PUSH3 0x461BCD PUSH1 0xE5 SHL DUP3 MSTORE PUSH1 0x4 DUP3 ADD MSTORE PUSH1 0x15 PUSH1 0x24 DUP3 ADD MSTORE PUSH21 0x125B9D985B1A590BD95E1C1A5C995908195D995B9D PUSH1 0x5A SHL PUSH1 0x44 DUP3 ADD MSTORE REVERT JUMPDEST SWAP1 POP DUP2 DUP2 DUP2 RETURNDATASIZE DUP4 GT PUSH2 0x199A JUMPI JUMPDEST PUSH2 0x197F DUP2 DUP4 PUSH2 0x1A91 JUMP JUMPDEST DUP2 ADD SUB SLT PUSH2 0x1996 JUMPI PUSH2 0x1990 SWAP1 PUSH2 0x2375 JUMP JUMPDEST CODESIZE PUSH2 0x1778 JUMP JUMPDEST DUP8 DUP1 REVERT JUMPDEST POP RETURNDATASIZE PUSH2 0x1975 JUMP JUMPDEST PUSH1 0x40 MLOAD RETURNDATASIZE DUP11 DUP3 RETURNDATACOPY RETURNDATASIZE SWAP1 REVERT JUMPDEST SWAP1 POP CALLVALUE PUSH2 0x3F4 JUMPI PUSH1 0x20 CALLDATASIZE PUSH1 0x3 NOT ADD SLT PUSH2 0x3F4 JUMPI PUSH1 0x4 CALLDATALOAD PUSH4 0xFFFFFFFF PUSH1 0xE0 SHL DUP2 AND DUP1 SWAP2 SUB PUSH2 0x8A7 JUMPI PUSH1 0x20 SWAP3 POP PUSH4 0x780E9D63 PUSH1 0xE0 SHL DUP2 EQ SWAP1 DUP2 ISZERO PUSH2 0x19F0 JUMPI JUMPDEST POP ISZERO ISZERO DUP2 MSTORE RETURN JUMPDEST PUSH4 0x80AC58CD PUSH1 0xE0 SHL DUP2 EQ SWAP2 POP DUP2 ISZERO PUSH2 0x1A22 JUMPI JUMPDEST DUP2 ISZERO PUSH2 0x1A11 JUMPI JUMPDEST POP CODESIZE PUSH2 0x19E9 JUMP JUMPDEST PUSH4 0x1FFC9A7 PUSH1 0xE0 SHL EQ SWAP1 POP CODESIZE PUSH2 0x1A0A JUMP JUMPDEST PUSH4 0x5B5E139F PUSH1 0xE0 SHL DUP2 EQ SWAP2 POP PUSH2 0x1A03 JUMP JUMPDEST PUSH1 0x4 CALLDATALOAD SWAP1 PUSH1 0x1 PUSH1 0x1 PUSH1 0xA0 SHL SUB DUP3 AND DUP3 SUB PUSH2 0x624 JUMPI JUMP JUMPDEST PUSH1 0x24 CALLDATALOAD SWAP1 PUSH1 0x1 PUSH1 0x1 PUSH1 0xA0 SHL SUB DUP3 AND DUP3 SUB PUSH2 0x624 JUMPI JUMP JUMPDEST PUSH1 0x60 DUP2 ADD SWAP1 DUP2 LT PUSH8 0xFFFFFFFFFFFFFFFF DUP3 GT OR PUSH2 0x1A7B JUMPI PUSH1 0x40 MSTORE JUMP JUMPDEST PUSH4 0x4E487B71 PUSH1 0xE0 SHL PUSH1 0x0 MSTORE PUSH1 0x41 PUSH1 0x4 MSTORE PUSH1 0x24 PUSH1 0x0 REVERT JUMPDEST SWAP1 PUSH1 0x1F DUP1 NOT SWAP2 ADD AND DUP2 ADD SWAP1 DUP2 LT PUSH8 0xFFFFFFFFFFFFFFFF DUP3 GT OR PUSH2 0x1A7B JUMPI PUSH1 0x40 MSTORE JUMP JUMPDEST PUSH8 0xFFFFFFFFFFFFFFFF DUP2 GT PUSH2 0x1A7B JUMPI PUSH1 0x1F ADD PUSH1 0x1F NOT AND PUSH1 0x20 ADD SWAP1 JUMP JUMPDEST SWAP3 SWAP2 SWAP3 PUSH2 0x1ADB DUP3 PUSH2 0x1AB3 JUMP JUMPDEST SWAP2 PUSH2 0x1AE9 PUSH1 0x40 MLOAD SWAP4 DUP5 PUSH2 0x1A91 JUMP JUMPDEST DUP3 SWAP5 DUP2 DUP5 MSTORE DUP2 DUP4 ADD GT PUSH2 0x624 JUMPI DUP3 DUP2 PUSH1 0x20 SWAP4 DUP5 PUSH1 0x0 SWAP7 ADD CALLDATACOPY ADD ADD MSTORE JUMP JUMPDEST PUSH1 0x0 JUMPDEST DUP4 DUP2 LT PUSH2 0x1B19 JUMPI POP POP PUSH1 0x0 SWAP2 ADD MSTORE JUMP JUMPDEST DUP2 DUP2 ADD MLOAD DUP4 DUP3 ADD MSTORE PUSH1 0x20 ADD PUSH2 0x1B09 JUMP JUMPDEST SWAP1 PUSH1 0x20 SWAP2 PUSH2 0x1B42 DUP2 MLOAD DUP1 SWAP3 DUP2 DUP6 MSTORE DUP6 DUP1 DUP7 ADD SWAP2 ADD PUSH2 0x1B06 JUMP JUMPDEST PUSH1 0x1F ADD PUSH1 0x1F NOT AND ADD ADD SWAP1 JUMP JUMPDEST PUSH1 0x60 SWAP1 PUSH1 0x3 NOT ADD SLT PUSH2 0x624 JUMPI PUSH1 0x1 PUSH1 0x1 PUSH1 0xA0 SHL SUB SWAP1 PUSH1 0x4 CALLDATALOAD DUP3 DUP2 AND DUP2 SUB PUSH2 0x624 JUMPI SWAP2 PUSH1 0x24 CALLDATALOAD SWAP1 DUP2 AND DUP2 SUB PUSH2 0x624 JUMPI SWAP1 PUSH1 0x44 CALLDATALOAD SWAP1 JUMP JUMPDEST SWAP1 PUSH1 0x1 DUP3 DUP2 SHR SWAP3 AND DUP1 ISZERO PUSH2 0x1BB3 JUMPI JUMPDEST PUSH1 0x20 DUP4 LT EQ PUSH2 0x1B9D JUMPI JUMP JUMPDEST PUSH4 0x4E487B71 PUSH1 0xE0 SHL PUSH1 0x0 MSTORE PUSH1 0x22 PUSH1 0x4 MSTORE PUSH1 0x24 PUSH1 0x0 REVERT JUMPDEST SWAP2 PUSH1 0x7F AND SWAP2 PUSH2 0x1B92 JUMP JUMPDEST PUSH1 0xA SLOAD PUSH1 0x1 PUSH1 0x1 PUSH1 0xA0 SHL SUB AND CALLER SUB PUSH2 0x1BD1 JUMPI JUMP JUMPDEST PUSH1 0x64 PUSH1 0x40 MLOAD PUSH3 0x461BCD PUSH1 0xE5 SHL DUP2 MSTORE PUSH1 0x20 PUSH1 0x4 DUP3 ADD MSTORE PUSH1 0x20 PUSH1 0x24 DUP3 ADD MSTORE PUSH32 0x4F776E61626C653A2063616C6C6572206973206E6F7420746865206F776E6572 PUSH1 0x44 DUP3 ADD MSTORE REVERT JUMPDEST PUSH1 0x1 PUSH1 0x1 PUSH1 0xA0 SHL SUB AND DUP1 ISZERO PUSH2 0x1C35 JUMPI PUSH1 0x0 MSTORE PUSH1 0x3 PUSH1 0x20 MSTORE PUSH1 0x40 PUSH1 0x0 KECCAK256 SLOAD SWAP1 JUMP JUMPDEST PUSH1 0x40 MLOAD PUSH3 0x461BCD PUSH1 0xE5 SHL DUP2 MSTORE PUSH1 0x20 PUSH1 0x4 DUP3 ADD MSTORE PUSH1 0x29 PUSH1 0x24 DUP3 ADD MSTORE PUSH32 0x4552433732313A2061646472657373207A65726F206973206E6F742061207661 PUSH1 0x44 DUP3 ADD MSTORE PUSH9 0x3634B21037BBB732B9 PUSH1 0xB9 SHL PUSH1 0x64 DUP3 ADD MSTORE PUSH1 0x84 SWAP1 REVERT JUMPDEST ISZERO PUSH2 0x1C93 JUMPI JUMP JUMPDEST PUSH1 0x40 MLOAD PUSH3 0x461BCD PUSH1 0xE5 SHL DUP2 MSTORE PUSH1 0x20 PUSH1 0x4 DUP3 ADD MSTORE PUSH1 0x18 PUSH1 0x24 DUP3 ADD MSTORE PUSH32 0x4552433732313A20696E76616C696420746F6B656E2049440000000000000000 PUSH1 0x44 DUP3 ADD MSTORE PUSH1 0x64 SWAP1 REVERT JUMPDEST PUSH1 0x0 SWAP1 DUP2 MSTORE PUSH1 0x2 PUSH1 0x20 MSTORE PUSH1 0x40 SWAP1 KECCAK256 SLOAD PUSH1 0x1 PUSH1 0x1 PUSH1 0xA0 SHL SUB AND PUSH2 0x1CFB DUP2 ISZERO ISZERO PUSH2 0x1C8C JUMP JUMPDEST SWAP1 JUMP JUMPDEST PUSH1 0x0 DUP2 DUP2 MSTORE PUSH1 0x2 PUSH1 0x20 MSTORE PUSH1 0x40 SWAP1 KECCAK256 SLOAD PUSH2 0x1D21 SWAP1 PUSH1 0x1 PUSH1 0x1 PUSH1 0xA0 SHL SUB AND ISZERO ISZERO PUSH2 0x1C8C JUMP JUMPDEST PUSH1 0x0 SWAP1 DUP2 MSTORE PUSH1 0x4 PUSH1 0x20 MSTORE PUSH1 0x40 SWAP1 KECCAK256 SLOAD PUSH1 0x1 PUSH1 0x1 PUSH1 0xA0 SHL SUB AND SWAP1 JUMP JUMPDEST ISZERO PUSH2 0x1D43 JUMPI JUMP JUMPDEST PUSH1 0x40 MLOAD PUSH3 0x461BCD PUSH1 0xE5 SHL DUP2 MSTORE PUSH1 0x20 PUSH1 0x4 DUP3 ADD MSTORE PUSH1 0x2D PUSH1 0x24 DUP3 ADD MSTORE PUSH32 0x4552433732313A2063616C6C6572206973206E6F7420746F6B656E206F776E65 PUSH1 0x44 DUP3 ADD MSTORE PUSH13 0x1C881BDC88185C1C1C9BDD9959 PUSH1 0x9A SHL PUSH1 0x64 DUP3 ADD MSTORE PUSH1 0x84 SWAP1 REVERT JUMPDEST SWAP1 PUSH2 0x1DC2 SWAP4 SWAP3 SWAP2 PUSH2 0x1DB2 PUSH2 0x1455 DUP5 CALLER PUSH2 0x1E39 JUMP JUMPDEST PUSH2 0x1DBD DUP4 DUP4 DUP4 PUSH2 0x1F01 JUMP JUMPDEST PUSH2 0x21CE JUMP JUMPDEST ISZERO PUSH2 0x1DC9 JUMPI JUMP JUMPDEST PUSH1 0x40 MLOAD PUSH3 0x461BCD PUSH1 0xE5 SHL DUP2 MSTORE DUP1 PUSH2 0x1DE2 PUSH1 0x4 DUP3 ADD PUSH2 0x1DE6 JUMP JUMPDEST SUB SWAP1 REVERT JUMPDEST PUSH1 0x80 SWAP1 PUSH1 0x20 DUP2 MSTORE PUSH1 0x32 PUSH1 0x20 DUP3 ADD MSTORE PUSH32 0x4552433732313A207472616E7366657220746F206E6F6E204552433732315265 PUSH1 0x40 DUP3 ADD MSTORE PUSH18 0x31B2B4BB32B91034B6B83632B6B2B73A32B9 PUSH1 0x71 SHL PUSH1 0x60 DUP3 ADD MSTORE ADD SWAP1 JUMP JUMPDEST SWAP1 PUSH1 0x1 PUSH1 0x1 PUSH1 0xA0 SHL SUB DUP1 DUP1 PUSH2 0x1E4D DUP5 PUSH2 0x1CD8 JUMP JUMPDEST AND SWAP4 AND SWAP2 DUP4 DUP4 EQ SWAP4 DUP5 ISZERO PUSH2 0x1E80 JUMPI JUMPDEST POP DUP4 ISZERO PUSH2 0x1E6A JUMPI JUMPDEST POP POP POP SWAP1 JUMP JUMPDEST PUSH2 0x1E76 SWAP2 SWAP3 SWAP4 POP PUSH2 0x1CFE JUMP JUMPDEST AND EQ CODESIZE DUP1 DUP1 PUSH2 0x1E64 JUMP JUMPDEST SWAP1 SWAP4 POP PUSH1 0x0 MSTORE PUSH1 0x5 PUSH1 0x20 MSTORE PUSH1 0x40 PUSH1 0x0 KECCAK256 DUP3 PUSH1 0x0 MSTORE PUSH1 0x20 MSTORE PUSH1 0xFF PUSH1 0x40 PUSH1 0x0 KECCAK256 SLOAD AND SWAP3 CODESIZE PUSH2 0x1E5C JUMP JUMPDEST ISZERO PUSH2 0x1EAE JUMPI JUMP JUMPDEST PUSH1 0x40 MLOAD PUSH3 0x461BCD PUSH1 0xE5 SHL DUP2 MSTORE PUSH1 0x20 PUSH1 0x4 DUP3 ADD MSTORE PUSH1 0x25 PUSH1 0x24 DUP3 ADD MSTORE PUSH32 0x4552433732313A207472616E736665722066726F6D20696E636F727265637420 PUSH1 0x44 DUP3 ADD MSTORE PUSH5 0x37BBB732B9 PUSH1 0xD9 SHL PUSH1 0x64 DUP3 ADD MSTORE PUSH1 0x84 SWAP1 REVERT JUMPDEST SWAP1 PUSH2 0x1F27 SWAP1 PUSH2 0x1F0F DUP5 PUSH2 0x1CD8 JUMP JUMPDEST PUSH1 0x1 PUSH1 0x1 PUSH1 0xA0 SHL SUB DUP5 DUP2 AND SWAP4 SWAP1 SWAP3 SWAP2 DUP4 AND DUP5 EQ PUSH2 0x1EA7 JUMP JUMPDEST DUP2 DUP2 AND SWAP4 DUP5 ISZERO PUSH2 0x217D JUMPI DUP4 DUP1 ISZERO SWAP2 DUP3 PUSH1 0x0 EQ PUSH2 0x20CA JUMPI POP POP PUSH1 0x8 SLOAD SWAP2 DUP7 PUSH1 0x0 MSTORE PUSH1 0x9 PUSH1 0x20 MSTORE DUP3 PUSH1 0x40 PUSH1 0x0 KECCAK256 SSTORE PUSH1 0x1 PUSH1 0x40 SHL DUP4 LT ISZERO PUSH2 0x1A7B JUMPI PUSH2 0x1F74 DUP8 PUSH2 0xA87 DUP6 PUSH1 0x1 DUP10 SWAP8 ADD PUSH1 0x8 SSTORE PUSH2 0x22EB JUMP JUMPDEST DUP3 DUP7 SUB PUSH2 0x2097 JUMPI JUMPDEST POP ISZERO DUP1 PUSH2 0x208F JUMPI JUMPDEST PUSH2 0x2018 JUMPI JUMPDEST PUSH2 0x1F9D SWAP2 PUSH2 0x1F96 DUP7 PUSH2 0x1CD8 JUMP JUMPDEST AND EQ PUSH2 0x1EA7 JUMP JUMPDEST PUSH32 0xDDF252AD1BE2C89B69C2B068FC378DAA952BA7F163C4A11628F55A4DF523B3EF PUSH1 0x0 DUP5 DUP2 MSTORE PUSH1 0x4 PUSH1 0x20 MSTORE PUSH1 0x40 DUP2 KECCAK256 PUSH1 0x1 PUSH1 0x1 PUSH1 0x60 SHL SUB PUSH1 0xA0 SHL SWAP1 DUP2 DUP2 SLOAD AND SWAP1 SSTORE DUP4 DUP3 MSTORE PUSH1 0x3 PUSH1 0x20 MSTORE PUSH1 0x40 DUP3 KECCAK256 PUSH1 0x0 NOT DUP2 SLOAD ADD SWAP1 SSTORE DUP5 DUP3 MSTORE PUSH1 0x40 DUP3 KECCAK256 PUSH1 0x1 DUP2 SLOAD ADD SWAP1 SSTORE DUP6 DUP3 MSTORE PUSH1 0x2 PUSH1 0x20 MSTORE DUP5 PUSH1 0x40 DUP4 KECCAK256 SWAP2 DUP3 SLOAD AND OR SWAP1 SSTORE DUP1 LOG4 JUMP JUMPDEST POP DUP4 PUSH1 0x0 MSTORE PUSH1 0xD PUSH1 0x20 MSTORE PUSH1 0xFF PUSH1 0x2 PUSH1 0x40 PUSH1 0x0 KECCAK256 ADD SLOAD AND PUSH2 0x2038 JUMPI DUP2 PUSH2 0x1F89 JUMP JUMPDEST PUSH1 0x40 MLOAD PUSH3 0x461BCD PUSH1 0xE5 SHL DUP2 MSTORE PUSH1 0x20 PUSH1 0x4 DUP3 ADD MSTORE PUSH1 0x29 PUSH1 0x24 DUP3 ADD MSTORE PUSH32 0x5469636B65743A2075736564207469636B65742063616E6E6F74206265207472 PUSH1 0x44 DUP3 ADD MSTORE PUSH9 0x185B9CD9995C9C9959 PUSH1 0xBA SHL PUSH1 0x64 DUP3 ADD MSTORE PUSH1 0x84 SWAP1 REVERT JUMPDEST POP PUSH1 0x1 PUSH2 0x1F84 JUMP JUMPDEST PUSH2 0x20A0 SWAP1 PUSH2 0x1C15 JUMP JUMPDEST PUSH1 0x40 PUSH1 0x0 DUP8 DUP2 MSTORE PUSH1 0x6 PUSH1 0x20 MSTORE DUP2 DUP2 KECCAK256 DUP4 DUP3 MSTORE PUSH1 0x20 MSTORE DUP9 DUP3 DUP3 KECCAK256 SSTORE DUP9 DUP2 MSTORE PUSH1 0x7 PUSH1 0x20 MSTORE KECCAK256 SSTORE CODESIZE PUSH2 0x1F7C JUMP JUMPDEST DUP7 DUP3 SWAP5 SWAP3 SUB PUSH2 0x20DA JUMPI JUMPDEST POP PUSH2 0x1F74 JUMP JUMPDEST PUSH2 0x20E5 SWAP2 SWAP4 POP PUSH2 0x1C15 JUMP JUMPDEST PUSH1 0x0 NOT DUP2 ADD SWAP3 SWAP1 DUP4 GT PUSH2 0x2167 JUMPI DUP5 SWAP3 PUSH1 0x0 SWAP1 DUP9 DUP3 MSTORE PUSH1 0x20 SWAP1 PUSH1 0x7 DUP3 MSTORE PUSH1 0x40 SWAP2 DUP3 DUP5 KECCAK256 SLOAD DUP3 DUP2 SUB PUSH2 0x2130 JUMPI JUMPDEST POP DUP11 DUP5 MSTORE DUP4 DUP4 DUP2 KECCAK256 SSTORE DUP7 DUP5 MSTORE PUSH1 0x6 DUP2 MSTORE DUP3 DUP5 KECCAK256 SWAP2 DUP5 MSTORE MSTORE DUP2 KECCAK256 SSTORE CODESIZE PUSH2 0x20D4 JUMP JUMPDEST DUP8 DUP6 MSTORE PUSH1 0x6 DUP3 MSTORE DUP4 DUP6 KECCAK256 DUP4 DUP7 MSTORE DUP3 MSTORE DUP4 DUP6 KECCAK256 SLOAD DUP9 DUP7 MSTORE PUSH1 0x6 DUP4 MSTORE DUP5 DUP7 KECCAK256 DUP3 DUP8 MSTORE DUP4 MSTORE DUP1 DUP6 DUP8 KECCAK256 SSTORE DUP6 MSTORE PUSH1 0x7 DUP3 MSTORE DUP4 DUP6 KECCAK256 SSTORE CODESIZE PUSH2 0x2110 JUMP JUMPDEST PUSH4 0x4E487B71 PUSH1 0xE0 SHL PUSH1 0x0 MSTORE PUSH1 0x11 PUSH1 0x4 MSTORE PUSH1 0x24 PUSH1 0x0 REVERT JUMPDEST PUSH1 0x40 MLOAD PUSH3 0x461BCD PUSH1 0xE5 SHL DUP2 MSTORE PUSH1 0x20 PUSH1 0x4 DUP3 ADD MSTORE PUSH1 0x24 DUP1 DUP3 ADD MSTORE PUSH32 0x4552433732313A207472616E7366657220746F20746865207A65726F20616464 PUSH1 0x44 DUP3 ADD MSTORE PUSH4 0x72657373 PUSH1 0xE0 SHL PUSH1 0x64 DUP3 ADD MSTORE PUSH1 0x84 SWAP1 REVERT JUMPDEST SWAP3 SWAP4 SWAP2 SWAP1 DUP1 EXTCODESIZE ISZERO PUSH2 0x22E1 JUMPI PUSH2 0x2220 SWAP5 PUSH1 0x40 MLOAD DUP1 SWAP3 PUSH4 0xA85BD01 PUSH1 0xE1 SHL SWAP5 DUP6 DUP4 MSTORE CALLER PUSH1 0x4 DUP5 ADD MSTORE PUSH1 0x1 DUP1 PUSH1 0xA0 SHL SUB DUP1 SWAP9 AND PUSH1 0x24 DUP5 ADD MSTORE PUSH1 0x44 DUP4 ADD MSTORE PUSH1 0x80 PUSH1 0x64 DUP4 ADD MSTORE DUP2 DUP1 PUSH1 0x20 SWAP10 DUP11 SWAP6 PUSH1 0x84 DUP4 ADD SWAP1 PUSH2 0x1B29 JUMP JUMPDEST SUB SWAP2 PUSH1 0x0 SWAP9 DUP10 SWAP2 AND GAS CALL DUP5 SWAP2 DUP2 PUSH2 0x22A1 JUMPI JUMPDEST POP PUSH2 0x2290 JUMPI POP POP POP RETURNDATASIZE PUSH1 0x0 EQ PUSH2 0x2288 JUMPI RETURNDATASIZE PUSH2 0x224C DUP2 PUSH2 0x1AB3 JUMP JUMPDEST SWAP1 PUSH2 0x225A PUSH1 0x40 MLOAD SWAP3 DUP4 PUSH2 0x1A91 JUMP JUMPDEST DUP2 MSTORE DUP1 SWAP2 DUP4 RETURNDATASIZE SWAP3 ADD RETURNDATACOPY JUMPDEST DUP1 MLOAD SWAP2 DUP3 PUSH2 0x2285 JUMPI PUSH1 0x40 MLOAD PUSH3 0x461BCD PUSH1 0xE5 SHL DUP2 MSTORE DUP1 PUSH2 0x1DE2 PUSH1 0x4 DUP3 ADD PUSH2 0x1DE6 JUMP JUMPDEST ADD REVERT JUMPDEST POP PUSH1 0x60 PUSH2 0x2264 JUMP JUMPDEST PUSH1 0x1 PUSH1 0x1 PUSH1 0xE0 SHL SUB NOT AND EQ SWAP3 POP SWAP1 POP JUMP JUMPDEST SWAP1 SWAP2 POP DUP6 DUP2 DUP2 RETURNDATASIZE DUP4 GT PUSH2 0x22DA JUMPI JUMPDEST PUSH2 0x22B9 DUP2 DUP4 PUSH2 0x1A91 JUMP JUMPDEST DUP2 ADD SUB SLT PUSH2 0x8AB JUMPI MLOAD PUSH1 0x1 PUSH1 0x1 PUSH1 0xE0 SHL SUB NOT DUP2 AND DUP2 SUB PUSH2 0x8AB JUMPI SWAP1 CODESIZE PUSH2 0x2232 JUMP JUMPDEST POP RETURNDATASIZE PUSH2 0x22AF JUMP JUMPDEST POP POP SWAP2 POP POP PUSH1 0x1 SWAP1 JUMP JUMPDEST PUSH1 0x8 SLOAD DUP2 LT ISZERO PUSH2 0x2322 JUMPI PUSH1 0x8 PUSH1 0x0 MSTORE PUSH32 0xF3F7A9FE364FAAB93B216DA50A3214154F22A0A2B415B23A84C8169E8B636EE3 ADD SWAP1 PUSH1 0x0 SWAP1 JUMP JUMPDEST PUSH4 0x4E487B71 PUSH1 0xE0 SHL PUSH1 0x0 MSTORE PUSH1 0x32 PUSH1 0x4 MSTORE PUSH1 0x24 PUSH1 0x0 REVERT JUMPDEST ISZERO PUSH2 0x233F JUMPI JUMP JUMPDEST PUSH1 0x40 MLOAD PUSH3 0x461BCD PUSH1 0xE5 SHL DUP2 MSTORE PUSH1 0x20 PUSH1 0x4 DUP3 ADD MSTORE PUSH1 0xE PUSH1 0x24 DUP3 ADD MSTORE PUSH14 0x139BDD08185D5D1A1BDC9A5E9959 PUSH1 0x92 SHL PUSH1 0x44 DUP3 ADD MSTORE PUSH1 0x64 SWAP1 REVERT JUMPDEST MLOAD SWAP1 DUP2 ISZERO ISZERO DUP3 SUB PUSH2 0x624 JUMPI JUMP JUMPDEST PUSH1 0x0 NOT DUP2 EQ PUSH2 0x2167 JUMPI PUSH1 0x1 ADD SWAP1 JUMP JUMPDEST DUP2 DUP2 LT PUSH2 0x239C JUMPI POP POP JUMP JUMPDEST PUSH1 0x0 DUP2 SSTORE PUSH1 0x1 ADD PUSH2 0x2391 JUMP JUMPDEST ISZERO PUSH2 0x23AF JUMPI JUMP JUMPDEST PUSH1 0x40 MLOAD PUSH3 0x461BCD PUSH1 0xE5 SHL DUP2 MSTORE PUSH1 0x20 PUSH1 0x4 DUP3 ADD MSTORE PUSH1 0x1C PUSH1 0x24 DUP3 ADD MSTORE PUSH32 0x4552433732313A20746F6B656E20616C7265616479206D696E74656400000000 PUSH1 0x44 DUP3 ADD MSTORE PUSH1 0x64 SWAP1 REVERT JUMPDEST PUSH1 0x1 PUSH1 0x1 PUSH1 0xA0 SHL SUB DUP2 AND SWAP1 DUP2 ISZERO PUSH2 0x24F9 JUMPI PUSH1 0x0 DUP4 DUP2 MSTORE PUSH1 0x2 PUSH1 0x20 MSTORE PUSH1 0x40 SWAP1 KECCAK256 SLOAD PUSH2 0x242A SWAP1 PUSH1 0x1 PUSH1 0x1 PUSH1 0xA0 SHL SUB AND ISZERO ISZERO JUMPDEST ISZERO PUSH2 0x23A8 JUMP JUMPDEST PUSH1 0x8 SLOAD PUSH1 0x0 SWAP2 DUP5 DUP4 MSTORE PUSH1 0x20 SWAP1 PUSH1 0x9 DUP3 MSTORE PUSH1 0x40 SWAP3 DUP1 DUP5 DUP7 KECCAK256 SSTORE PUSH1 0x1 PUSH1 0x40 SHL DUP2 LT ISZERO PUSH2 0x1231 JUMPI PUSH1 0x2 SWAP3 SWAP2 PUSH2 0x1005 DUP9 PUSH2 0xA87 DUP5 PUSH1 0x1 PUSH2 0x2469 SWAP7 ADD PUSH1 0x8 SSTORE PUSH2 0x22EB JUMP JUMPDEST DUP6 DUP6 MSTORE PUSH1 0x6 DUP3 MSTORE DUP4 DUP6 KECCAK256 DUP2 DUP7 MSTORE DUP3 MSTORE DUP4 DUP6 KECCAK256 DUP8 SWAP1 SSTORE DUP7 DUP6 MSTORE PUSH1 0x7 DUP3 MSTORE DUP4 DUP6 KECCAK256 SSTORE PUSH1 0x0 DUP7 DUP2 MSTORE PUSH1 0x2 PUSH1 0x20 MSTORE PUSH1 0x40 SWAP1 KECCAK256 SLOAD PUSH2 0x24AC SWAP1 PUSH1 0x1 PUSH1 0x1 PUSH1 0xA0 SHL SUB AND ISZERO ISZERO PUSH2 0x2424 JUMP JUMPDEST DUP5 DUP5 MSTORE PUSH1 0x3 DUP2 MSTORE DUP3 DUP5 KECCAK256 DUP1 SLOAD PUSH1 0x1 ADD SWAP1 SSTORE DUP6 DUP5 MSTORE MSTORE DUP2 KECCAK256 DUP1 SLOAD PUSH1 0x1 PUSH1 0x1 PUSH1 0xA0 SHL SUB NOT AND DUP4 OR SWAP1 SSTORE PUSH32 0xDDF252AD1BE2C89B69C2B068FC378DAA952BA7F163C4A11628F55A4DF523B3EF DUP2 DUP1 LOG4 JUMP JUMPDEST PUSH1 0x64 PUSH1 0x40 MLOAD PUSH3 0x461BCD PUSH1 0xE5 SHL DUP2 MSTORE PUSH1 0x20 PUSH1 0x4 DUP3 ADD MSTORE PUSH1 0x20 PUSH1 0x24 DUP3 ADD MSTORE PUSH32 0x4552433732313A206D696E7420746F20746865207A65726F2061646472657373 PUSH1 0x44 DUP3 ADD MSTORE REVERT JUMPDEST DUP2 PUSH1 0x1F DUP3 ADD SLT ISZERO PUSH2 0x624 JUMPI DUP1 MLOAD PUSH2 0x2553 DUP2 PUSH2 0x1AB3 JUMP JUMPDEST SWAP3 PUSH2 0x2561 PUSH1 0x40 MLOAD SWAP5 DUP6 PUSH2 0x1A91 JUMP JUMPDEST DUP2 DUP5 MSTORE PUSH1 0x20 DUP3 DUP5 ADD ADD GT PUSH2 0x624 JUMPI PUSH2 0x1CFB SWAP2 PUSH1 0x20 DUP1 DUP6 ADD SWAP2 ADD PUSH2 0x1B06 JUMP INVALID LOG2 PUSH5 0x6970667358 0x22 SLT KECCAK256 0xE4 0xBA MULMOD 0xAD DUP14 0xAC 0xC0 SWAP6 0xA9 0x5D 0x26 BYTE RETURNDATACOPY CALLDATASIZE 0x4A DUP8 0xB9 0xDD 0xCB 0xA6 SELFDESTRUCT MSIZE RETURNDATACOPY 0xE1 0x1F 0xE4 0xEB 0xBE 0xB6 CODECOPY 0xCA 0xCD PUSH5 0x736F6C6343 STOP ADDMOD EQ STOP CALLER "},"methodIdentifiers":{"approve(address,uint256)":"095ea7b3","balanceOf(address)":"70a08231","burnTicket(uint256)":"a476b73d","eventFactory()":"6fdbd3f6","getApproved(uint256)":"081812fc","getTicketEventId(uint256)":"7510cfaf","isApprovedForAll(address,address)":"e985e9c5","isTicketUsed(uint256)":"2cd1d35c","mintTicket(address,uint256,string)":"03543fea","mintTicketsFromFactory(uint256,uint256)":"b2a2faaf","minter()":"07546172","name()":"06fdde03","owner()":"8da5cb5b","ownerOf(uint256)":"6352211e","renounceOwnership()":"715018a6","safeTransferFrom(address,address,uint256)":"42842e0e","safeTransferFrom(address,address,uint256,bytes)":"b88d4fde","setApprovalForAll(address,bool)":"a22cb465","setMinter(address)":"fca3b5aa","supportsInterface(bytes4)":"01ffc9a7","symbol()":"95d89b41","tickets(uint256)":"50b44712","tokenByIndex(uint256)":"4f6ccce7","tokenOfOwnerByIndex(address,uint256)":"2f745c59","tokenURI(uint256)":"c87b56dd","totalSupply()":"18160ddd","transferFrom(address,address,uint256)":"23b872dd","transferOwnership(address)":"f2fde38b","useTicket(uint256)":"26606448"}},"storageLayout":{"storage":[{"astId":1608,"contract":"contracts/TicketNFT.sol:TicketNFT","label":"_name","offset":0,"slot":"0","type":"t_string_storage"},{"astId":1610,"contract":"contracts/TicketNFT.sol:TicketNFT","label":"_symbol","offset":0,"slot":"1","type":"t_string_storage"},{"astId":1614,"contract":"contracts/TicketNFT.sol:TicketNFT","label":"_owners","offset":0,"slot":"2","type":"t_mapping(t_uint256,t_address)"},{"astId":1618,"contract":"contracts/TicketNFT.sol:TicketNFT","label":"_balances","offset":0,"slot":"3","type":"t_mapping(t_address,t_uint256)"},{"astId":1622,"contract":"contracts/TicketNFT.sol:TicketNFT","label":"_tokenApprovals","offset":0,"slot":"4","type":"t_mapping(t_uint256,t_address)"},{"astId":1628,"contract":"contracts/TicketNFT.sol:TicketNFT","label":"_operatorApprovals","offset":0,"slot":"5","type":"t_mapping(t_address,t_mapping(t_address,t_bool))"},{"astId":2658,"contract":"contracts/TicketNFT.sol:TicketNFT","label":"_ownedTokens","offset":0,"slot":"6","type":"t_mapping(t_address,t_mapping(t_uint256,t_uint256))"},{"astId":2662,"contract":"contracts/TicketNFT.sol:TicketNFT","label":"_ownedTokensIndex","offset":0,"slot":"7","type":"t_mapping(t_uint256,t_uint256)"},{"astId":2665,"contract":"contracts/TicketNFT.sol:TicketNFT","label":"_allTokens","offset":0,"slot":"8","type":"t_array(t_uint256)dyn_storage"},{"astId":2669,"contract":"contracts/TicketNFT.sol:TicketNFT","label":"_allTokensIndex","offset":0,"slot":"9","type":"t_mapping(t_uint256,t_uint256)"},{"astId":7,"contract":"contracts/TicketNFT.sol:TicketNFT","label":"_owner","offset":0,"slot":"10","type":"t_address"},{"astId":5473,"contract":"contracts/TicketNFT.sol:TicketNFT","label":"_tokenIds","offset":0,"slot":"11","type":"t_uint256"},{"astId":5510,"contract":"contracts/TicketNFT.sol:TicketNFT","label":"eventFactory","offset":0,"slot":"12","type":"t_contract(EventFactory)5210"},{"astId":5522,"contract":"contracts/TicketNFT.sol:TicketNFT","label":"tickets","offset":0,"slot":"13","type":"t_mapping(t_uint256,t_struct(Ticket)5517_storage)"},{"astId":5542,"contract":"contracts/TicketNFT.sol:TicketNFT","label":"minter","offset":0,"slot":"14","type":"t_address"}],"types":{"t_address":{"encoding":"inplace","label":"address","numberOfBytes":"20"},"t_array(t_uint256)dyn_storage":{"base":"t_uint256","encoding":"dynamic_array","label":"uint256[]","numberOfBytes":"32"},"t_bool":{"encoding":"inplace","label":"bool","numberOfBytes":"1"},"t_contract(EventFactory)5210":{"encoding":"inplace","label":"contract EventFactory","numberOfBytes":"20"},"t_mapping(t_address,t_bool)":{"encoding":"mapping","key":"t_address","label":"mapping(address => bool)","numberOfBytes":"32","value":"t_bool"},"t_mapping(t_address,t_mapping(t_address,t_bool))":{"encoding":"mapping","key":"t_address","label":"mapping(address => mapping(address => bool))","numberOfBytes":"32","value":"t_mapping(t_address,t_bool)"},"t_mapping(t_address,t_mapping(t_uint256,t_uint256))":{"encoding":"mapping","key":"t_address","label":"mapping(address => mapping(uint256 => uint256))","numberOfBytes":"32","value":"t_mapping(t_uint256,t_uint256)"},"t_mapping(t_address,t_uint256)":{"encoding":"mapping","key":"t_address","label":"mapping(address => uint256)","numberOfBytes":"32","value":"t_uint256"},"t_mapping(t_uint256,t_address)":{"encoding":"mapping","key":"t_uint256","label":"mapping(uint256 => address)","numberOfBytes":"32","value":"t_address"},"t_mapping(t_uint256,t_struct(Ticket)5517_storage)":{"encoding":"mapping","key":"t_uint256","label":"mapping(uint256 => struct TicketNFT.Ticket)","numberOfBytes":"32","value":"t_struct(Ticket)5517_storage"},"t_mapping(t_uint256,t_uint256)":{"encoding":"mapping","key":"t_uint256","label":"mapping(uint256 => uint256)","numberOfBytes":"32","value":"t_uint256"},"t_string_storage":{"encoding":"bytes","label":"string","numberOfBytes":"32"},"t_struct(Ticket)5517_storage":{"encoding":"inplace","label":"struct TicketNFT.Ticket","members":[{"astId":5512,"contract":"contracts/TicketNFT.sol:TicketNFT","label":"eventId","offset":0,"slot":"0","type":"t_uint256"},{"astId":5514,"contract":"contracts/TicketNFT.sol:TicketNFT","label":"ipfsCID","offset":0,"slot":"1","type":"t_string_storage"},{"astId":5516,"contract":"contracts/TicketNFT.sol:TicketNFT","label":"used","offset":0,"slot":"2","type":"t_bool"}],"numberOfBytes":"96"},"t_uint256":{"encoding":"inplace","label":"uint256","numberOfBytes":"32"}}}}}}