{
  "_format": "hh-sol-artifact-1",
  "contractName": "TicketNFT",
  "sourceName": "contracts/TicketNFT.sol",
  "abi": [
    {
      "inputs": [
        {
          "internalType": "address",
          "name": "eventFactoryAddress",
          "type": "address"
        }
      ],
      "stateMutability": "nonpayable",
      "type": "constructor"
    },
    {
      "anonymous": false,
      "inputs": [
        {
          "indexed": true,
          "internalType": "address",
          "name": "owner",
          "type": "address"
        },
        {
          "indexed": true,
          "internalType": "address",
          "name": "approved",
          "type": "address"
        },
        {
          "indexed": true,
          "internalType": "uint256",
          "name": "tokenId",
          "type": "uint256"
        }
      ],
      "name": "Approval",
      "type": "event"
    },
    {
      "anonymous": false,
      "inputs": [
        {
          "indexed": true,
          "internalType": "address",
          "name": "owner",
          "type": "address"
        },
        {
          "indexed": true,
          "internalType": "address",
          "name": "operator",
          "type": "address"
        },
        {
          "indexed": false,
          "internalType": "bool",
          "name": "approved",
          "type": "bool"
        }
      ],
      "name": "ApprovalForAll",
      "type": "event"
    },
    {
      "anonymous": false,
      "inputs": [
        {
          "indexed": true,
          "internalType": "address",
          "name": "previousOwner",
          "type": "address"
        },
        {
          "indexed": true,
          "internalType": "address",
          "name": "newOwner",
          "type": "address"
        }
      ],
      "name": "OwnershipTransferred",
      "type": "event"
    },
    {
      "anonymous": false,
      "inputs": [
        {
          "indexed": true,
          "internalType": "uint256",
          "name": "tokenId",
          "type": "uint256"
        },
        {
          "indexed": true,
          "internalType": "uint256",
          "name": "eventId",
          "type": "uint256"
        },
        {
          "indexed": true,
          "internalType": "address",
          "name": "owner",
          "type": "address"
        }
      ],
      "name": "TicketBurned",
      "type": "event"
    },
    {
      "anonymous": false,
      "inputs": [
        {
          "indexed": true,
          "internalType": "uint256",
          "name": "tokenId",
          "type": "uint256"
        },
        {
          "indexed": true,
          "internalType": "address",
          "name": "attendee",
          "type": "address"
        },
        {
          "indexed": true,
          "internalType": "uint256",
          "name": "eventId",
          "type": "uint256"
        }
      ],
      "name": "TicketMinted",
      "type": "event"
    },
    {
      "anonymous": false,
      "inputs": [
        {
          "indexed": true,
          "internalType": "uint256",
          "name": "tokenId",
          "type": "uint256"
        },
        {
          "indexed": true,
          "internalType": "uint256",
          "name": "eventId",
          "type": "uint256"
        },
        {
          "indexed": true,
          "internalType": "address",
          "name": "owner",
          "type": "address"
        }
      ],
      "name": "TicketUsed",
      "type": "event"
    },
    {
      "anonymous": false,
      "inputs": [
        {
          "indexed": true,
          "internalType": "uint256",
          "name": "eventId",
          "type": "uint256"
        },
        {
          "indexed": true,
          "internalType": "address",
          "name": "attendee",
          "type": "address"
        },
        {
          "indexed": false,
          "internalType": "uint256",
          "name": "amountConverted",
          "type": "uint256"
        },
        {
          "indexed": false,
          "internalType": "uint256",
          "name": "remainingERC1155Balance",
          "type": "uint256"
        }
      ],
      "name": "TicketsConverted",
      "type": "event"
    },
    {
      "anonymous": false,
      "inputs": [
        {
          "indexed": true,
          "internalType": "address",
          "name": "from",
          "type": "address"
        },
        {
          "indexed": true,
          "internalType": "address",
          "name": "to",
          "type": "address"
        },
        {
          "indexed": true,
          "internalType": "uint256",
          "name": "tokenId",
          "type": "uint256"
        }
      ],
      "name": "Transfer",
      "type": "event"
    },
    {
      "inputs": [
        {
          "internalType": "address",
          "name": "to",
          "type": "address"
        },
        {
          "internalType": "uint256",
          "name": "tokenId",
          "type": "uint256"
        }
      ],
      "name": "approve",
      "outputs": [],
      "stateMutability": "nonpayable",
      "type": "function"
    },
    {
      "inputs": [
        {
          "internalType": "address",
          "name": "owner",
          "type": "address"
        }
      ],
      "name": "balanceOf",
      "outputs": [
        {
          "internalType": "uint256",
          "name": "",
          "type": "uint256"
        }
      ],
      "stateMutability": "view",
      "type": "function"
    },
    {
      "inputs": [
        {
          "internalType": "uint256",
          "name": "tokenId",
          "type": "uint256"
        }
      ],
      "name": "burnTicket",
      "outputs": [],
      "stateMutability": "nonpayable",
      "type": "function"
    },
    {
      "inputs": [],
      "name": "eventFactory",
      "outputs": [
        {
          "internalType": "contract EventFactory",
          "name": "",
          "type": "address"
        }
      ],
      "stateMutability": "view",
      "type": "function"
    },
    {
      "inputs": [
        {
          "internalType": "uint256",
          "name": "tokenId",
          "type": "uint256"
        }
      ],
      "name": "getApproved",
      "outputs": [
        {
          "internalType": "address",
          "name": "",
          "type": "address"
        }
      ],
      "stateMutability": "view",
      "type": "function"
    },
    {
      "inputs": [
        {
          "internalType": "uint256",
          "name": "tokenId",
          "type": "uint256"
        }
      ],
      "name": "getTicketEventId",
      "outputs": [
        {
          "internalType": "uint256",
          "name": "",
          "type": "uint256"
        }
      ],
      "stateMutability": "view",
      "type": "function"
    },
    {
      "inputs": [
        {
          "internalType": "address",
          "name": "owner",
          "type": "address"
        },
        {
          "internalType": "address",
          "name": "operator",
          "type": "address"
        }
      ],
      "name": "isApprovedForAll",
      "outputs": [
        {
          "internalType": "bool",
          "name": "",
          "type": "bool"
        }
      ],
      "stateMutability": "view",
      "type": "function"
    },
    {
      "inputs": [
        {
          "internalType": "uint256",
          "name": "tokenId",
          "type": "uint256"
        }
      ],
      "name": "isTicketUsed",
      "outputs": [
        {
          "internalType": "bool",
          "name": "",
          "type": "bool"
        }
      ],
      "stateMutability": "view",
      "type": "function"
    },
    {
      "inputs": [
        {
          "internalType": "address",
          "name": "attendee",
          "type": "address"
        },
        {
          "internalType": "uint256",
          "name": "eventId",
          "type": "uint256"
        },
        {
          "internalType": "string",
          "name": "ipfsCID",
          "type": "string"
        }
      ],
      "name": "mintTicket",
      "outputs": [],
      "stateMutability": "nonpayable",
      "type": "function"
    },
    {
      "inputs": [
        {
          "internalType": "uint256",
          "name": "eventId",
          "type": "uint256"
        },
        {
          "internalType": "uint256",
          "name": "amount",
          "type": "uint256"
        }
      ],
      "name": "mintTicketsFromFactory",
      "outputs": [],
      "stateMutability": "nonpayable",
      "type": "function"
    },
    {
      "inputs": [],
      "name": "minter",
      "outputs": [
        {
          "internalType": "address",
          "name": "",
          "type": "address"
        }
      ],
      "stateMutability": "view",
      "type": "function"
    },
    {
      "inputs": [],
      "name": "name",
      "outputs": [
        {
          "internalType": "string",
          "name": "",
          "type": "string"
        }
      ],
      "stateMutability": "view",
      "type": "function"
    },
    {
      "inputs": [],
      "name": "owner",
      "outputs": [
        {
          "internalType": "address",
          "name": "",
          "type": "address"
        }
      ],
      "stateMutability": "view",
      "type": "function"
    },
    {
      "inputs": [
        {
          "internalType": "uint256",
          "name": "tokenId",
          "type": "uint256"
        }
      ],
      "name": "ownerOf",
      "outputs": [
        {
          "internalType": "address",
          "name": "",
          "type": "address"
        }
      ],
      "stateMutability": "view",
      "type": "function"
    },
    {
      "inputs": [],
      "name": "renounceOwnership",
      "outputs": [],
      "stateMutability": "nonpayable",
      "type": "function"
    },
    {
      "inputs": [
        {
          "internalType": "address",
          "name": "from",
          "type": "address"
        },
        {
          "internalType": "address",
          "name": "to",
          "type": "address"
        },
        {
          "internalType": "uint256",
          "name": "tokenId",
          "type": "uint256"
        }
      ],
      "name": "safeTransferFrom",
      "outputs": [],
      "stateMutability": "nonpayable",
      "type": "function"
    },
    {
      "inputs": [
        {
          "internalType": "address",
          "name": "from",
          "type": "address"
        },
        {
          "internalType": "address",
          "name": "to",
          "type": "address"
        },
        {
          "internalType": "uint256",
          "name": "tokenId",
          "type": "uint256"
        },
        {
          "internalType": "bytes",
          "name": "data",
          "type": "bytes"
        }
      ],
      "name": "safeTransferFrom",
      "outputs": [],
      "stateMutability": "nonpayable",
      "type": "function"
    },
    {
      "inputs": [
        {
          "internalType": "address",
          "name": "operator",
          "type": "address"
        },
        {
          "internalType": "bool",
          "name": "approved",
          "type": "bool"
        }
      ],
      "name": "setApprovalForAll",
      "outputs": [],
      "stateMutability": "nonpayable",
      "type": "function"
    },
    {
      "inputs": [
        {
          "internalType": "address",
          "name": "m",
          "type": "address"
        }
      ],
      "name": "setMinter",
      "outputs": [],
      "stateMutability": "nonpayable",
      "type": "function"
    },
    {
      "inputs": [
        {
          "internalType": "bytes4",
          "name": "interfaceId",
          "type": "bytes4"
        }
      ],
      "name": "supportsInterface",
      "outputs": [
        {
          "internalType": "bool",
          "name": "",
          "type": "bool"
        }
      ],
      "stateMutability": "view",
      "type": "function"
    },
    {
      "inputs": [],
      "name": "symbol",
      "outputs": [
        {
          "internalType": "string",
          "name": "",
          "type": "string"
        }
      ],
      "stateMutability": "view",
      "type": "function"
    },
    {
      "inputs": [
        {
          "internalType": "uint256",
          "name": "",
          "type": "uint256"
        }
      ],
      "name": "tickets",
      "outputs": [
        {
          "internalType": "uint256",
          "name": "eventId",
          "type": "uint256"
        },
        {
          "internalType": "string",
          "name": "ipfsCID",
          "type": "string"
        },
        {
          "internalType": "bool",
          "name": "used",
          "type": "bool"
        }
      ],
      "stateMutability": "view",
      "type": "function"
    },
    {
      "inputs": [
        {
          "internalType": "uint256",
          "name": "index",
          "type": "uint256"
        }
      ],
      "name": "tokenByIndex",
      "outputs": [
        {
          "internalType": "uint256",
          "name": "",
          "type": "uint256"
        }
      ],
      "stateMutability": "view",
      "type": "function"
    },
    {
      "inputs": [
        {
          "internalType": "address",
          "name": "owner",
          "type": "address"
        },
        {
          "internalType": "uint256",
          "name": "index",
          "type": "uint256"
        }
      ],
      "name": "tokenOfOwnerByIndex",
      "outputs": [
        {
          "internalType": "uint256",
          "name": "",
          "type": "uint256"
        }
      ],
      "stateMutability": "view",
      "type": "function"
    },
    {
      "inputs": [
        {
          "internalType": "uint256",
          "name": "tokenId",
          "type": "uint256"
        }
      ],
      "name": "tokenURI",
      "outputs": [
        {
          "internalType": "string",
          "name": "",
          "type": "string"
        }
      ],
      "stateMutability": "view",
      "type": "function"
    },
    {
      "inputs": [],
      "name": "totalSupply",
      "outputs": [
        {
          "internalType": "uint256",
          "name": "",
          "type": "uint256"
        }
      ],
      "stateMutability": "view",
      "type": "function"
    },
    {
      "inputs": [
        {
          "internalType": "address",
          "name": "from",
          "type": "address"
        },
        {
          "internalType": "address",
          "name": "to",
          "type": "address"
        },
        {
          "internalType": "uint256",
          "name": "tokenId",
          "type": "uint256"
        }
      ],
      "name": "transferFrom",
      "outputs": [],
      "stateMutability": "nonpayable",
      "type": "function"
    },
    {
      "inputs": [
        {
          "internalType": "address",
          "name": "newOwner",
          "type": "address"
        }
      ],
      "name": "transferOwnership",
      "outputs": [],
      "stateMutability": "nonpayable",
      "type": "function"
    },
    {
      "inputs": [
        {
          "internalType": "uint256",
          "name": "tokenId",
          "type": "uint256"
        }
      ],
      "name": "useTicket",
      "outputs": [],
      "stateMutability": "nonpayable",
      "type": "function"
    }
  ],
  "bytecode": "0x608034620003a457601f906001600160401b0390601f19906200297f3881900385810184168301858111848210176200038e57839282916040528339602092839181010312620003a457516001600160a01b03948582169491859003620003a4576200006a620003a9565b92600c84526b115d995b9d08151a58dad95d60a21b818501526200008d620003a9565b906006825265151250d2d15560d21b818301528451958487116200038e576000968754966001978881811c9116801562000383575b858210146200036f579081878493116200031c575b508490878311600114620002bb578a92620002af575b5050600019600383901b1c191690871b1787555b82519485116200029b5785548681811c9116801562000290575b838210146200027c5790818587969594931162000223575b5081938511600114620001be5750508592620001b2575b5050600019600383901b1c191690821b1790555b600a5460018060a01b0319913383831617600a557f8be0079c531659141344cd1fd0a4f28419497f9722a3daafe3b4186f6b6457e0604051953393169180a3600c541617600c556125b59081620003ca8239f35b0151905038806200014a565b869593929193168588528388209388905b828210620002095750508411620001ef575b505050811b0190556200015e565b015160001960f88460031b161c19169055388080620001e1565b8484015186558897909501949384019390810190620001cf565b9091929394508688528288208580880160051c82019285891062000272575b9188978a9297969594930160051c01915b8281106200026357505062000133565b8a815588975089910162000253565b9250819262000242565b634e487b7160e01b88526022600452602488fd5b90607f16906200011b565b634e487b7160e01b87526041600452602487fd5b015190503880620000ed565b90848a9416918b8052868c20928c5b88828210620003055750508411620002eb575b505050811b01875562000101565b015160001960f88460031b161c19169055388080620002dd565b8385015186558d97909501949384019301620002ca565b909150898052848a208780850160051c82019287861062000365575b918b91869594930160051c01915b82811062000356575050620000d7565b8c81558594508b910162000346565b9250819262000338565b634e487b7160e01b8a52602260045260248afd5b90607f1690620000c2565b634e487b7160e01b600052604160045260246000fd5b600080fd5b60408051919082016001600160401b038111838210176200038e5760405256fe608080604052600436101561001357600080fd5b600090813560e01c90816301ffc9a7146119ac5750806303543fea146116de57806306fdde031461163a5780630754617214611611578063081812fc146115f2578063095ea7b31461147d57806318160ddd1461145f57806323b872dd1461143557806326606448146113465780632cd1d35c146112f25780632f745c591461124557806342842e0e146111f35780634f6ccce71461116157806350b447121461106c5780636352211e1461103b5780636fdbd3f61461101257806370a0823114610fe6578063715018a614610f895780637510cfaf14610f3d5780638da5cb5b14610f1457806395d89b4114610e31578063a22cb46514610d58578063a476b73d146109df578063b2a2faaf14610460578063b88d4fde146103f8578063c87b56dd146102bc578063e985e9c514610268578063f2fde38b146101a25763fca3b5aa1461016057600080fd5b3461019f57602036600319011261019f57610179611a33565b610181611bbd565b60018060a01b03166001600160601b0360a01b600e541617600e5580f35b80fd5b503461019f57602036600319011261019f576101bc611a33565b6101c4611bbd565b6001600160a01b0390811690811561021457600a54826001600160601b0360a01b821617600a55167f8be0079c531659141344cd1fd0a4f28419497f9722a3daafe3b4186f6b6457e0600080a380f35b60405162461bcd60e51b815260206004820152602660248201527f4f776e61626c653a206e6577206f776e657220697320746865207a65726f206160448201526564647265737360d01b6064820152608490fd5b503461019f57604036600319011261019f57610282611a33565b604061028c611a49565b9260018060a01b0380931681526005602052209116600052602052602060ff604060002054166040519015158152f35b503461019f576020806003193601126103f4576004356000818152600260205260409020546102fa906001600160a01b03161515611c8c565b611c8c565b8252600d81526001918260408220019260405193849266697066733a2f2f60c81b85850152809282549261032d84611b83565b938281169081156103ca5750600114610385575b858761036d600e83896d17b6b2ba30b230ba30973539b7b760911b815203601119810185520183611a91565b610381604051928284938452830190611b29565b0390f35b9091809395945052848083205b8584106103b2575050505080602761036d93600e93010191819338610341565b80548885016027015287945092019185908201610392565b915050600e94506027925061036d9593915060ff1916828401528015150282010191819338610341565b5080fd5b503461019f57608036600319011261019f57610412611a33565b61041a611a49565b6064359167ffffffffffffffff831161045c573660238401121561045c5761044f610459933690602481600401359101611acf565b9160443591611d9e565b80f35b8380fd5b503461019f57604036600319011261019f57600c546040516349287c0b60e01b815260048035908201526001600160a01b0390911690602081602481855afa9081156109555783916109a5575b501561096057604051638f118fe360e01b815233600480830191909152356024820152602081604481855afa908115610955578391610923575b50602435116108de578082913b156108db578190606460405180948193637a94c56560e11b8352336004840152600435602484015260243560448401525af18015610631576108af575b50600c54604051630761c6ad60e51b81526004803590820152908290829060249082906001600160a01b03165afa908115610631578291610810575b50815b602435811061063c57600c54604051638f118fe360e01b8152336004808301919091523560248201528491602090829060449082906001600160a01b03165afa9081156106315782916105fa575b50604051906024358252602082015233907f6a69bf77722441c5a59124f665722f0ad4c8cf4f7d97beafd09310d3e5d42b40604060043592a380f35b90506020813d602011610629575b8161061560209383611a91565b810103126106245751826105be565b600080fd5b3d9150610608565b6040513d84823e3d90fd5b600b80549061064a82612382565b905560405161065881611a5f565b60043581526020810190848252856040820152828652600d6020526040862091815183555180519067ffffffffffffffff82116107fc5761069c6001850154611b83565b90601f918281116107c1575b506020918311600114610746576106fd9383610736989796946002946040948d9261073b575b50508160011b916000199060031b1c19161760018501555b0151151591019060ff801983541691151516179055565b61070781336123f4565b6004359033907f5c1c9352d51031acc9a558d7cdcca15b0ce5fe4f46d7315cca355248175b0a378780a4612382565b610570565b0151905038806106ce565b906001850189526020892091895b601f19851681106107a95750936001846002946040946106fd986107369c9b9a98601f19811610610790575b505050811b0160018501556106e6565b015160001960f88460031b161c19169055388080610780565b91926020600181928685015181550194019201610754565b6107ed90600187018b5260208b20600585808801821c830193602089106107f3575b01901c0190612391565b386106a8565b935082936107e3565b634e487b7160e01b88526041600452602488fd5b90503d8083833e6108218183611a91565b810190610100818303126108a757805167ffffffffffffffff908181116108ab578361084e91840161253d565b5060408201518181116108ab578361086791840161253d565b9260608301519182116108ab5761087f91830161253d565b5060808101516001600160a01b038116036108a75760a06108a09101612375565b503861056d565b8280fd5b8480fd5b67ffffffffffffffff81116108c75760405238610531565b634e487b7160e01b82526041600452602482fd5b50fd5b60405162461bcd60e51b815260206004820152601c60248201527f496e73756666696369656e742045524331313535207469636b657473000000006044820152606490fd5b90506020813d60201161094d575b8161093e60209383611a91565b810103126108a75751386104e7565b3d9150610931565b6040513d85823e3d90fd5b60405162461bcd60e51b815260206004820152601860248201527f496e76616c6964206f722065787069726564206576656e7400000000000000006044820152606490fd5b90506020813d6020116109d7575b816109c060209383611a91565b810103126108a7576109d190612375565b386104ad565b3d91506109b3565b503461019f576020806003193601126103f457600435906109fe611bbd565b600082815260026020526040902054610a21906001600160a01b03161515611c8c565b818352600d8152604083205490610a3783611cd8565b610a4084611cd8565b6001600160a01b03928184168015928315610cce57505060085486885260098252806040892055600160401b8110156107fc5786610a87826001610aa094016008556122eb565b90919082549060031b91821b91600019901b1916179055565b6008546000199290838101908111610cba5787895260098352610ac760408a2054916122eb565b90549060031b1c610adb81610a87846122eb565b89526009835260408920558688528760408120556008548015610ca65788929184899201610b08816122eb565b8782549160031b1b191690556008551580610c9f575b610c28575b8260029394610b3183611cd8565b838352600485528860408420916001600160601b0360a01b9283815416905516918284526003865260408420908154019055838352858552604083209081541690557fddf252ad1be2c89b69c2b068fc378daa952ba7f163c4a11628f55a4df523b3ef8280a4600d81528260408120918183556001830190610bb38254611b83565b9081610be9575b50505050015516917f50d459b3df6d4d2831ef5996a57caa721fb381b00bf5309a64f099895047948c8480a480f35b8390601f8311600114610c0457505050555b82388080610bba565b8382528120929091610c2190601f0160051c840160018501612391565b5555610bfb565b90929152600d825260ff600260408920015416610c485790869086610b23565b60405162461bcd60e51b815260048101839052602960248201527f5469636b65743a2075736564207469636b65742063616e6e6f74206265207472604482015268185b9cd9995c9c995960ba1b6064820152608490fd5b5082610b1e565b634e487b7160e01b89526031600452602489fd5b634e487b7160e01b89526011600452602489fd5b610cd790611c15565b600019810191908211610cba57878952600783526040892054828103610d1c575b50878952886040812055885260068252604088209088528152866040812055610aa0565b818a526006845260408a20838b52845260408a2054828b526006855260408b20828c5285528060408c20558a526007845260408a205538610cf8565b503461019f57604036600319011261019f57610d72611a33565b602435908115159081830361045c576001600160a01b031691338314610dec57610dbd90338552600560205260408520848652602052604085209060ff801983541691151516179055565b6040519081527f17307eab39ab6107e8899845ad3d59bd9653f200f220920489ca2b5937696c3160203392a380f35b60405162461bcd60e51b815260206004820152601960248201527f4552433732313a20617070726f766520746f2063616c6c6572000000000000006044820152606490fd5b503461019f578060031936011261019f5760405190806001805491610e5583611b83565b80865292828116908115610eea5750600114610e90575b61038185610e7c81870382611a91565b604051918291602083526020830190611b29565b92508083527fb10e2d527612073b26eecdfd717e6a320cf44b4afac2b0732d9fcbe2b7fa0cf65b828410610ed2575050508101602001610e7c82610381610e6c565b80546020858701810191909152909301928101610eb7565b86955061038196935060209250610e7c94915060ff191682840152151560051b8201019293610e6c565b503461019f578060031936011261019f57600a546040516001600160a01b039091168152602090f35b503461019f57602036600319011261019f576040602091600435610f796102f582600052600260205260018060a01b0360406000205416151590565b8152600d83522054604051908152f35b503461019f578060031936011261019f57610fa2611bbd565b600a80546001600160a01b0319811690915581906001600160a01b03167f8be0079c531659141344cd1fd0a4f28419497f9722a3daafe3b4186f6b6457e08280a380f35b503461019f57602036600319011261019f57602061100a611005611a33565b611c15565b604051908152f35b503461019f578060031936011261019f57600c546040516001600160a01b039091168152602090f35b503461019f57602036600319011261019f57602061105a600435611cd8565b6040516001600160a01b039091168152f35b503461019f576020908160031936011261019f576004358152600d8252604081209081549160018082019285604051948593838254926110ab84611b83565b8088529383811690811561113c5750600114611100575b848a886110f460ff60028d6110d9858e0386611a91565b01541691606060405195869586528501526060840190611b29565b90151560408301520390f35b9080949550528383205b82841061112657505050820101856110d98360026110f46110c2565b805488850186015287955092840192810161110a565b60ff19168689015250505050151560051b8301019050856110d98360026110f46110c2565b503461019f57602036600319011261019f576004356008548110156111995761118b6020916122eb565b90546040519160031b1c8152f35b60405162461bcd60e51b815260206004820152602c60248201527f455243373231456e756d657261626c653a20676c6f62616c20696e646578206f60448201526b7574206f6620626f756e647360a01b6064820152608490fd5b503461019f5761120236611b4e565b60409392935191602083019483861067ffffffffffffffff871117611231576104599495604052858452611d9e565b634e487b7160e01b85526041600452602485fd5b503461019f57604036600319011261019f5761125f611a33565b6024359161126c82611c15565b8310156112995760209260409260018060a01b031682526006845282822090825283522054604051908152f35b60405162461bcd60e51b815260206004820152602b60248201527f455243373231456e756d657261626c653a206f776e657220696e646578206f7560448201526a74206f6620626f756e647360a81b6064820152608490fd5b503461019f57602036600319011261019f5760ff600260406020936004356113326102f582600052600260205260018060a01b0360406000205416151590565b8152600d8552200154166040519015158152f35b503461019f57602036600319011261019f5760043560018060a01b0361137181600e54163314612338565b600082815260026020526040902054611394906001600160a01b03161515611c8c565b818352600d60205260ff6002604085200154166113fa57818352600d6020526040832060028101805460ff1916600117905554906113d183611cd8565b16917fb35ebdfb9515b145e406c5c5a0846ec436db0b9560927af3af7a754d90c4f6ff8480a480f35b60405162461bcd60e51b8152602060048201526013602482015272151a58dad95d08185b1c9958591e481d5cd959606a1b6044820152606490fd5b503461019f5761045961144736611b4e565b9161145a6114558433611e39565b611d3c565b611f01565b503461019f578060031936011261019f576020600854604051908152f35b503461019f57604036600319011261019f57611497611a33565b602435906001600160a01b0380806114ae85611cd8565b169216918083146115a357803314908115611582575b50156115175782845260046020526040842080546001600160a01b031916831790556114ef83611cd8565b167f8c5be1e5ebec7d5bd14f71427d1e84f3dd0314c0f7b2291e5b200ac8c7c3b9258480a480f35b60405162461bcd60e51b815260206004820152603d60248201527f4552433732313a20617070726f76652063616c6c6572206973206e6f7420746f60448201527f6b656e206f776e6572206f7220617070726f76656420666f7220616c6c0000006064820152608490fd5b9050845260056020526040842033855260205260ff604085205416386114c4565b60405162461bcd60e51b815260206004820152602160248201527f4552433732313a20617070726f76616c20746f2063757272656e74206f776e656044820152603960f91b6064820152608490fd5b503461019f57602036600319011261019f57602061105a600435611cfe565b503461019f578060031936011261019f57600e546040516001600160a01b039091168152602090f35b503461019f578060031936011261019f576040519080805461165b81611b83565b80855291600191808316908115610eea57506001146116845761038185610e7c81870382611a91565b80809450527f290decd9548b62a8d60345a988386fc84ba6bc95484008f6362f93160ef3e5635b8284106116c6575050508101602001610e7c82610381610e6c565b805460208587018101919091529093019281016116ab565b503461019f57606036600319011261019f576116f8611a33565b6024359067ffffffffffffffff6044358181116108ab57366023820112156108ab5761172e903690602481600401359101611acf565b9160018060a01b039161174683600e54163314612338565b82600c541660405180916349287c0b60e01b825287600483015281602460209485935afa9081156119a1578891611968575b501561192c57600b549461178b86612382565b600b556040519261179b84611a5f565b8784528284019182526040840192898452878a52600d815260408a2094518555600190818601935180519384116119185790849392916117de8d98979654611b83565b601f81116118df575b5081601f851160011461186f5750928092819260029796956118319a94611864575b50501b916000199060031b1c19161790555b51151591019060ff801983541691151516179055565b61183b83826123f4565b16907f5c1c9352d51031acc9a558d7cdcca15b0ce5fe4f46d7315cca355248175b0a378480a480f35b015192503880611809565b601f9893959697981985169087855280852094905b8282106118c8575050916118319897959391856002989694106118af575b505050811b01905561181b565b015160001960f88460031b161c191690553880806118a2565b808886978294978701518155019601940190611884565b61190890868a52838a20601f870160051c81019185881061190e575b601f0160051c0190612391565b386117e7565b90915081906118fb565b634e487b7160e01b8c52604160045260248cfd5b6064906040519062461bcd60e51b825260048201526015602482015274125b9d985b1a590bd95e1c1a5c995908195d995b9d605a1b6044820152fd5b90508181813d831161199a575b61197f8183611a91565b810103126119965761199090612375565b38611778565b8780fd5b503d611975565b6040513d8a823e3d90fd5b9050346103f45760203660031901126103f45760043563ffffffff60e01b81168091036108a7576020925063780e9d6360e01b81149081156119f0575b5015158152f35b6380ac58cd60e01b811491508115611a22575b8115611a11575b50386119e9565b6301ffc9a760e01b14905038611a0a565b635b5e139f60e01b81149150611a03565b600435906001600160a01b038216820361062457565b602435906001600160a01b038216820361062457565b6060810190811067ffffffffffffffff821117611a7b57604052565b634e487b7160e01b600052604160045260246000fd5b90601f8019910116810190811067ffffffffffffffff821117611a7b57604052565b67ffffffffffffffff8111611a7b57601f01601f191660200190565b929192611adb82611ab3565b91611ae96040519384611a91565b829481845281830111610624578281602093846000960137010152565b60005b838110611b195750506000910152565b8181015183820152602001611b09565b90602091611b4281518092818552858086019101611b06565b601f01601f1916010190565b6060906003190112610624576001600160a01b0390600435828116810361062457916024359081168103610624579060443590565b90600182811c92168015611bb3575b6020831014611b9d57565b634e487b7160e01b600052602260045260246000fd5b91607f1691611b92565b600a546001600160a01b03163303611bd157565b606460405162461bcd60e51b815260206004820152602060248201527f4f776e61626c653a2063616c6c6572206973206e6f7420746865206f776e65726044820152fd5b6001600160a01b03168015611c3557600052600360205260406000205490565b60405162461bcd60e51b815260206004820152602960248201527f4552433732313a2061646472657373207a65726f206973206e6f7420612076616044820152683634b21037bbb732b960b91b6064820152608490fd5b15611c9357565b60405162461bcd60e51b815260206004820152601860248201527f4552433732313a20696e76616c696420746f6b656e20494400000000000000006044820152606490fd5b6000908152600260205260409020546001600160a01b0316611cfb811515611c8c565b90565b600081815260026020526040902054611d21906001600160a01b03161515611c8c565b6000908152600460205260409020546001600160a01b031690565b15611d4357565b60405162461bcd60e51b815260206004820152602d60248201527f4552433732313a2063616c6c6572206973206e6f7420746f6b656e206f776e6560448201526c1c881bdc88185c1c1c9bdd9959609a1b6064820152608490fd5b90611dc2939291611db26114558433611e39565b611dbd838383611f01565b6121ce565b15611dc957565b60405162461bcd60e51b815280611de260048201611de6565b0390fd5b60809060208152603260208201527f4552433732313a207472616e7366657220746f206e6f6e20455243373231526560408201527131b2b4bb32b91034b6b83632b6b2b73a32b960711b60608201520190565b906001600160a01b038080611e4d84611cd8565b16931691838314938415611e80575b508315611e6a575b50505090565b611e7691929350611cfe565b1614388080611e64565b909350600052600560205260406000208260005260205260ff604060002054169238611e5c565b15611eae57565b60405162461bcd60e51b815260206004820152602560248201527f4552433732313a207472616e736665722066726f6d20696e636f72726563742060448201526437bbb732b960d91b6064820152608490fd5b90611f2790611f0f84611cd8565b6001600160a01b038481169390929183168414611ea7565b81811693841561217d5783801591826000146120ca5750506008549186600052600960205282604060002055600160401b831015611a7b57611f7487610a878560018997016008556122eb565b828603612097575b50158061208f575b612018575b611f9d91611f9686611cd8565b1614611ea7565b7fddf252ad1be2c89b69c2b068fc378daa952ba7f163c4a11628f55a4df523b3ef60008481526004602052604081206001600160601b0360a01b9081815416905583825260036020526040822060001981540190558482526040822060018154019055858252600260205284604083209182541617905580a4565b5083600052600d60205260ff600260406000200154166120385781611f89565b60405162461bcd60e51b815260206004820152602960248201527f5469636b65743a2075736564207469636b65742063616e6e6f74206265207472604482015268185b9cd9995c9c995960ba1b6064820152608490fd5b506001611f84565b6120a090611c15565b60406000878152600660205281812083825260205288828220558881526007602052205538611f7c565b86829492036120da575b50611f74565b6120e5919350611c15565b6000198101929083116121675784926000908882526020906007825260409182842054828103612130575b508a845283838120558684526006815282842091845252812055386120d4565b8785526006825283852083865282528385205488865260068352848620828752835280858720558552600782528385205538612110565b634e487b7160e01b600052601160045260246000fd5b60405162461bcd60e51b8152602060048201526024808201527f4552433732313a207472616e7366657220746f20746865207a65726f206164646044820152637265737360e01b6064820152608490fd5b92939190803b156122e157612220946040518092630a85bd0160e11b9485835233600484015260018060a01b03809816602484015260448301526080606483015281806020998a956084830190611b29565b03916000988991165af18491816122a1575b50612290575050503d600014612288573d61224c81611ab3565b9061225a6040519283611a91565b81528091833d92013e5b805191826122855760405162461bcd60e51b815280611de260048201611de6565b01fd5b506060612264565b6001600160e01b0319161492509050565b9091508581813d83116122da575b6122b98183611a91565b810103126108ab57516001600160e01b0319811681036108ab579038612232565b503d6122af565b5050915050600190565b6008548110156123225760086000527ff3f7a9fe364faab93b216da50a3214154f22a0a2b415b23a84c8169e8b636ee30190600090565b634e487b7160e01b600052603260045260246000fd5b1561233f57565b60405162461bcd60e51b815260206004820152600e60248201526d139bdd08185d5d1a1bdc9a5e995960921b6044820152606490fd5b5190811515820361062457565b60001981146121675760010190565b81811061239c575050565b60008155600101612391565b156123af57565b60405162461bcd60e51b815260206004820152601c60248201527f4552433732313a20746f6b656e20616c7265616479206d696e746564000000006044820152606490fd5b6001600160a01b0381169081156124f95760008381526002602052604090205461242a906001600160a01b031615155b156123a8565b600854600091848352602090600982526040928084862055600160401b811015611231576002929161100588610a8784600161246996016008556122eb565b85855260068252838520818652825283852087905586855260078252838520556000868152600260205260409020546124ac906001600160a01b03161515612424565b848452600381528284208054600101905585845252812080546001600160a01b031916831790557fddf252ad1be2c89b69c2b068fc378daa952ba7f163c4a11628f55a4df523b3ef8180a4565b606460405162461bcd60e51b815260206004820152602060248201527f4552433732313a206d696e7420746f20746865207a65726f20616464726573736044820152fd5b81601f8201121561062457805161255381611ab3565b926125616040519485611a91565b8184526020828401011161062457611cfb9160208085019101611b0656fea2646970667358221220ca9b8edaeb1f1db35d38f11accb1a3f8aa6147139d19668441756a58d86d6bc164736f6c63430008140033",
  "linkReferences": {},
  "deployedLinkReferences": {}
}