{
  "_format": "hh-sol-artifact-1",
  "contractName": "TicketNFT",
  "sourceName": "contracts/TicketNFT.sol",
  "abi": [
    {
      "inputs": [
        {
          "internalType": "address",
          "name": "_eventFactory",
          "type": "address"
        }
      ],
      "stateMutability": "nonpayable",
      "type": "constructor"
    },
    {
      "anonymous": false,
      "inputs": [
        {
          "indexed": true,
          "internalType": "address",
          "name": "owner",
          "type": "address"
        },
        {
          "indexed": true,
          "internalType": "address",
          "name": "approved",
          "type": "address"
        },
        {
          "indexed": true,
          "internalType": "uint256",
          "name": "tokenId",
          "type": "uint256"
        }
      ],
      "name": "Approval",
      "type": "event"
    },
    {
      "anonymous": false,
      "inputs": [
        {
          "indexed": true,
          "internalType": "address",
          "name": "owner",
          "type": "address"
        },
        {
          "indexed": true,
          "internalType": "address",
          "name": "operator",
          "type": "address"
        },
        {
          "indexed": false,
          "internalType": "bool",
          "name": "approved",
          "type": "bool"
        }
      ],
      "name": "ApprovalForAll",
      "type": "event"
    },
    {
      "anonymous": false,
      "inputs": [
        {
          "indexed": true,
          "internalType": "address",
          "name": "previousOwner",
          "type": "address"
        },
        {
          "indexed": true,
          "internalType": "address",
          "name": "newOwner",
          "type": "address"
        }
      ],
      "name": "OwnershipTransferred",
      "type": "event"
    },
    {
      "anonymous": false,
      "inputs": [
        {
          "indexed": true,
          "internalType": "uint256",
          "name": "tokenId",
          "type": "uint256"
        },
        {
          "indexed": true,
          "internalType": "uint256",
          "name": "eventId",
          "type": "uint256"
        },
        {
          "indexed": true,
          "internalType": "address",
          "name": "owner",
          "type": "address"
        }
      ],
      "name": "TicketBurned",
      "type": "event"
    },
    {
      "anonymous": false,
      "inputs": [
        {
          "indexed": true,
          "internalType": "uint256",
          "name": "tokenId",
          "type": "uint256"
        },
        {
          "indexed": true,
          "internalType": "address",
          "name": "attendee",
          "type": "address"
        },
        {
          "indexed": true,
          "internalType": "uint256",
          "name": "eventId",
          "type": "uint256"
        }
      ],
      "name": "TicketMinted",
      "type": "event"
    },
    {
      "anonymous": false,
      "inputs": [
        {
          "indexed": true,
          "internalType": "uint256",
          "name": "tokenId",
          "type": "uint256"
        },
        {
          "indexed": true,
          "internalType": "uint256",
          "name": "eventId",
          "type": "uint256"
        },
        {
          "indexed": true,
          "internalType": "address",
          "name": "owner",
          "type": "address"
        }
      ],
      "name": "TicketUsed",
      "type": "event"
    },
    {
      "anonymous": false,
      "inputs": [
        {
          "indexed": true,
          "internalType": "address",
          "name": "from",
          "type": "address"
        },
        {
          "indexed": true,
          "internalType": "address",
          "name": "to",
          "type": "address"
        },
        {
          "indexed": true,
          "internalType": "uint256",
          "name": "tokenId",
          "type": "uint256"
        }
      ],
      "name": "Transfer",
      "type": "event"
    },
    {
      "inputs": [
        {
          "internalType": "address",
          "name": "to",
          "type": "address"
        },
        {
          "internalType": "uint256",
          "name": "tokenId",
          "type": "uint256"
        }
      ],
      "name": "approve",
      "outputs": [],
      "stateMutability": "nonpayable",
      "type": "function"
    },
    {
      "inputs": [
        {
          "internalType": "address",
          "name": "owner",
          "type": "address"
        }
      ],
      "name": "balanceOf",
      "outputs": [
        {
          "internalType": "uint256",
          "name": "",
          "type": "uint256"
        }
      ],
      "stateMutability": "view",
      "type": "function"
    },
    {
      "inputs": [
        {
          "internalType": "uint256",
          "name": "tokenId",
          "type": "uint256"
        }
      ],
      "name": "burnTicket",
      "outputs": [],
      "stateMutability": "nonpayable",
      "type": "function"
    },
    {
      "inputs": [],
      "name": "eventFactory",
      "outputs": [
        {
          "internalType": "contract EventFactory",
          "name": "",
          "type": "address"
        }
      ],
      "stateMutability": "view",
      "type": "function"
    },
    {
      "inputs": [
        {
          "internalType": "uint256",
          "name": "tokenId",
          "type": "uint256"
        }
      ],
      "name": "getApproved",
      "outputs": [
        {
          "internalType": "address",
          "name": "",
          "type": "address"
        }
      ],
      "stateMutability": "view",
      "type": "function"
    },
    {
      "inputs": [
        {
          "internalType": "uint256",
          "name": "tokenId",
          "type": "uint256"
        }
      ],
      "name": "getTicketEventId",
      "outputs": [
        {
          "internalType": "uint256",
          "name": "",
          "type": "uint256"
        }
      ],
      "stateMutability": "view",
      "type": "function"
    },
    {
      "inputs": [
        {
          "internalType": "address",
          "name": "owner",
          "type": "address"
        },
        {
          "internalType": "address",
          "name": "operator",
          "type": "address"
        }
      ],
      "name": "isApprovedForAll",
      "outputs": [
        {
          "internalType": "bool",
          "name": "",
          "type": "bool"
        }
      ],
      "stateMutability": "view",
      "type": "function"
    },
    {
      "inputs": [
        {
          "internalType": "uint256",
          "name": "tokenId",
          "type": "uint256"
        }
      ],
      "name": "isTicketUsed",
      "outputs": [
        {
          "internalType": "bool",
          "name": "",
          "type": "bool"
        }
      ],
      "stateMutability": "view",
      "type": "function"
    },
    {
      "inputs": [
        {
          "internalType": "address",
          "name": "attendee",
          "type": "address"
        },
        {
          "internalType": "uint256",
          "name": "eventId",
          "type": "uint256"
        },
        {
          "internalType": "string",
          "name": "ipfsCID",
          "type": "string"
        }
      ],
      "name": "mintTicket",
      "outputs": [],
      "stateMutability": "nonpayable",
      "type": "function"
    },
    {
      "inputs": [],
      "name": "name",
      "outputs": [
        {
          "internalType": "string",
          "name": "",
          "type": "string"
        }
      ],
      "stateMutability": "view",
      "type": "function"
    },
    {
      "inputs": [],
      "name": "owner",
      "outputs": [
        {
          "internalType": "address",
          "name": "",
          "type": "address"
        }
      ],
      "stateMutability": "view",
      "type": "function"
    },
    {
      "inputs": [
        {
          "internalType": "uint256",
          "name": "tokenId",
          "type": "uint256"
        }
      ],
      "name": "ownerOf",
      "outputs": [
        {
          "internalType": "address",
          "name": "",
          "type": "address"
        }
      ],
      "stateMutability": "view",
      "type": "function"
    },
    {
      "inputs": [],
      "name": "renounceOwnership",
      "outputs": [],
      "stateMutability": "nonpayable",
      "type": "function"
    },
    {
      "inputs": [
        {
          "internalType": "address",
          "name": "from",
          "type": "address"
        },
        {
          "internalType": "address",
          "name": "to",
          "type": "address"
        },
        {
          "internalType": "uint256",
          "name": "tokenId",
          "type": "uint256"
        }
      ],
      "name": "safeTransferFrom",
      "outputs": [],
      "stateMutability": "nonpayable",
      "type": "function"
    },
    {
      "inputs": [
        {
          "internalType": "address",
          "name": "from",
          "type": "address"
        },
        {
          "internalType": "address",
          "name": "to",
          "type": "address"
        },
        {
          "internalType": "uint256",
          "name": "tokenId",
          "type": "uint256"
        },
        {
          "internalType": "bytes",
          "name": "data",
          "type": "bytes"
        }
      ],
      "name": "safeTransferFrom",
      "outputs": [],
      "stateMutability": "nonpayable",
      "type": "function"
    },
    {
      "inputs": [
        {
          "internalType": "address",
          "name": "operator",
          "type": "address"
        },
        {
          "internalType": "bool",
          "name": "approved",
          "type": "bool"
        }
      ],
      "name": "setApprovalForAll",
      "outputs": [],
      "stateMutability": "nonpayable",
      "type": "function"
    },
    {
      "inputs": [
        {
          "internalType": "bytes4",
          "name": "interfaceId",
          "type": "bytes4"
        }
      ],
      "name": "supportsInterface",
      "outputs": [
        {
          "internalType": "bool",
          "name": "",
          "type": "bool"
        }
      ],
      "stateMutability": "view",
      "type": "function"
    },
    {
      "inputs": [],
      "name": "symbol",
      "outputs": [
        {
          "internalType": "string",
          "name": "",
          "type": "string"
        }
      ],
      "stateMutability": "view",
      "type": "function"
    },
    {
      "inputs": [
        {
          "internalType": "uint256",
          "name": "",
          "type": "uint256"
        }
      ],
      "name": "tickets",
      "outputs": [
        {
          "internalType": "uint256",
          "name": "eventId",
          "type": "uint256"
        },
        {
          "internalType": "string",
          "name": "ipfsCID",
          "type": "string"
        },
        {
          "internalType": "bool",
          "name": "used",
          "type": "bool"
        }
      ],
      "stateMutability": "view",
      "type": "function"
    },
    {
      "inputs": [
        {
          "internalType": "uint256",
          "name": "index",
          "type": "uint256"
        }
      ],
      "name": "tokenByIndex",
      "outputs": [
        {
          "internalType": "uint256",
          "name": "",
          "type": "uint256"
        }
      ],
      "stateMutability": "view",
      "type": "function"
    },
    {
      "inputs": [
        {
          "internalType": "address",
          "name": "owner",
          "type": "address"
        },
        {
          "internalType": "uint256",
          "name": "index",
          "type": "uint256"
        }
      ],
      "name": "tokenOfOwnerByIndex",
      "outputs": [
        {
          "internalType": "uint256",
          "name": "",
          "type": "uint256"
        }
      ],
      "stateMutability": "view",
      "type": "function"
    },
    {
      "inputs": [
        {
          "internalType": "uint256",
          "name": "tokenId",
          "type": "uint256"
        }
      ],
      "name": "tokenURI",
      "outputs": [
        {
          "internalType": "string",
          "name": "",
          "type": "string"
        }
      ],
      "stateMutability": "view",
      "type": "function"
    },
    {
      "inputs": [],
      "name": "totalSupply",
      "outputs": [
        {
          "internalType": "uint256",
          "name": "",
          "type": "uint256"
        }
      ],
      "stateMutability": "view",
      "type": "function"
    },
    {
      "inputs": [
        {
          "internalType": "address",
          "name": "from",
          "type": "address"
        },
        {
          "internalType": "address",
          "name": "to",
          "type": "address"
        },
        {
          "internalType": "uint256",
          "name": "tokenId",
          "type": "uint256"
        }
      ],
      "name": "transferFrom",
      "outputs": [],
      "stateMutability": "nonpayable",
      "type": "function"
    },
    {
      "inputs": [
        {
          "internalType": "address",
          "name": "newOwner",
          "type": "address"
        }
      ],
      "name": "transferOwnership",
      "outputs": [],
      "stateMutability": "nonpayable",
      "type": "function"
    },
    {
      "inputs": [
        {
          "internalType": "uint256",
          "name": "tokenId",
          "type": "uint256"
        }
      ],
      "name": "useTicket",
      "outputs": [],
      "stateMutability": "nonpayable",
      "type": "function"
    }
  ],
  "bytecode": "0x608034620003ea57601f90601f19906001600160401b039062002348388190038581018516830184811184821017620003d457839282916040528339602092839181010312620003ea57516001600160a01b038082169590939091869003620003ea576200006c620003ef565b91600c83526b115d995b9d08151a58dad95d60a21b848401526200008f620003ef565b6006815265151250d2d15560d21b85820152835196838811620003d4576000978854956001968781811c91168015620003c9575b89821014620003b55790818684931162000362575b50889086831160011462000301578b92620002f5575b5050600019600383901b1c191690861b1788555b8151938411620002e15784548581811c91168015620002d6575b87821014620002c25790818486959493116200026b575b50869284116001146200020a57508792620001fe575b5050600019600383901b1c191690821b1790555b600a5460018060a01b0319933385831617600a557f8be0079c531659141344cd1fd0a4f28419497f9722a3daafe3b4186f6b6457e0604051943393169180a38315620001bd575050600c541617600c55604051611f389081620004108239f35b62461bcd60e51b82526004820152601c60248201527f496e76616c6964204576656e74466163746f7279206164647265737300000000604482015260649150fd5b01519050388062000149565b85895286892086959093929116895b888282106200025457505084116200023a575b505050811b0190556200015d565b015160001960f88460031b161c191690553880806200022c565b838501518655889790950194938401930162000219565b90919293508589528689208480870160051c820192898810620002b8575b9187968992969594930160051c01915b828110620002a957505062000133565b8b815587965088910162000299565b9250819262000289565b634e487b7160e01b89526022600452602489fd5b90607f16906200011c565b634e487b7160e01b88526041600452602488fd5b015190503880620000ee565b9084899416918c80528a8d20928d5b8c8282106200034b575050841162000331575b505050811b01885562000102565b015160001960f88460031b161c1916905538808062000323565b8385015186558c9790950194938401930162000310565b9091508a8052888b208680850160051c8201928b8610620003ab575b918a91869594930160051c01915b8281106200039c575050620000d8565b8d81558594508a91016200038c565b925081926200037e565b634e487b7160e01b8b52602260045260248bfd5b90607f1690620000c3565b634e487b7160e01b600052604160045260246000fd5b600080fd5b60408051919082016001600160401b03811183821017620003d45760405256fe6080604081815260048036101561001557600080fd5b600092833560e01c90816301ffc9a7146114ef5750806303543fea146110cb57806306fdde0314611023578063081812fc14611003578063095ea7b314610e9657806318160ddd14610e7757806323b872dd14610e4d5780632660644814610d625780632cd1d35c14610d115780632f745c5914610c6557806342842e0e14610c165780634f6ccce714610b8357806350b4471214610a915780636352211e14610a605780636fdbd3f614610a3757806370a0823114610a0a578063715018a6146109aa5780637510cfaf146109615780638da5cb5b1461093857806395d89b4114610855578063a22cb4651461077d578063a476b73d14610404578063b88d4fde1461039c578063c87b56dd1461025c578063e985e9c51461020a5763f2fde38b1461014157600080fd5b346102065760203660031901126102065761015a611575565b906101636116e0565b6001600160a01b039182169283156101b4575050600a54826001600160601b0360a01b821617600a55167f8be0079c531659141344cd1fd0a4f28419497f9722a3daafe3b4186f6b6457e08380a380f35b906020608492519162461bcd60e51b8352820152602660248201527f4f776e61626c653a206e6577206f776e657220697320746865207a65726f206160448201526564647265737360d01b6064820152fd5b8280fd5b50503461025857806003193601126102585760ff8160209361022a611575565b610232611590565b6001600160a01b0391821683526005875283832091168252855220549151911615158152f35b5080fd5b5090346102065760209182600319360112610398573560008181526002602052604090205461029a906001600160a01b031615156117af565b6117af565b8352600d8252600192838282200193825194859266697066733a2f2f60c81b8685015280928254926102cb846116a6565b938281169081156103695750600114610322575b858861031e8961030f600e858b6d17b6b2ba30b230ba30973539b7b760911b8152036011198101875201856115a6565b51928284938452830190611631565b0390f35b879695945082528582205b838310610350575093945091925082016027019050600e8261030f61031e6102df565b80546027848b010152879689955090920191810161032d565b905061030f955061031e9796935060279250600e94915060ff19168284015280151502820101928194956102df565b8380fd5b838234610258576080366003190112610258576103b7611575565b6103bf611590565b9060643567ffffffffffffffff81116104005736602382011215610400576103fd938160246103f3933693013591016115fa565b91604435916118c1565b80f35b8480fd5b5090346102065760209182600319360112610398578035926104246116e0565b600084815260026020526040902054610447906001600160a01b031615156117af565b610450846117fb565b90848652600d81528386205493610466866117fb565b6001600160a01b039481861680159283156106fa575050600854888a526009855280848b2055600160401b8110156106e757886104ac8260016104c59401600855611e06565b90919082549060031b91821b91600019901b1916179055565b60085460001992908381019081116106d457898b52600986526104eb858c205491611e06565b90549060031b1c6104ff816104ac84611e06565b8b5260098652848b2055888a52898481205560085480156106c1579183918b9695948b940161052d81611e06565b8582549160031b1b1916905560085515806106ba575b61064a575b91856002959492819461055a846117fb565b9084845287528a858420916001600160601b0360a01b928381541690551691828452600388528584209081540190558383528787528483209081541690557fddf252ad1be2c89b69c2b068fc378daa952ba7f163c4a11628f55a4df523b3ef8280a4600d835281209181835560018301906105d582546116a6565b908161060b575b50505050015516917f50d459b3df6d4d2831ef5996a57caa721fb381b00bf5309a64f099895047948c8480a480f35b8390601f831160011461062657505050555b823880806105dc565b838252812092909161064390601f0160051c840160018501611e9f565b555561061d565b919092939452600d845260ff6002848b2001541661066d57889392918891610548565b825162461bcd60e51b8152908101849052602160248201527f55736564207469636b65742063616e6e6f74206265207472616e7366657272656044820152601960fa1b6064820152608490fd5b5085610543565b634e487b7160e01b8b526031835260248bfd5b634e487b7160e01b8b526011835260248bfd5b634e487b7160e01b8a526041825260248afd5b61070390611738565b6000198101919082116106d457898b5260078652848b2054828103610744575b50898b528a858120558a5260068552838a20908a52845288838120556104c5565b818c5260068752858c20838d528752858c8181205491818584935260068b528181208582528b5220558c5260078752858c205538610723565b509034610206578060031936011261020657610797611575565b9060243580151592838203610851576001600160a01b03169333851461080e57506107e19033865260056020528286208587526020528286209060ff801983541691151516179055565b519081527f17307eab39ab6107e8899845ad3d59bd9653f200f220920489ca2b5937696c3160203392a380f35b606490602084519162461bcd60e51b8352820152601960248201527f4552433732313a20617070726f766520746f2063616c6c6572000000000000006044820152fd5b8580fd5b505034610258578160031936011261025857805190826001805491610879836116a6565b8086529282811690811561091057506001146108b4575b5050506108a28261031e9403836115a6565b51918291602083526020830190611631565b94508085527fb10e2d527612073b26eecdfd717e6a320cf44b4afac2b0732d9fcbe2b7fa0cf65b8286106108f8575050506108a282602061031e9582010194610890565b805460208787018101919091529095019481016108db565b61031e9750869350602092506108a294915060ff191682840152151560051b82010194610890565b505034610258578160031936011261025857600a5490516001600160a01b039091168152602090f35b50346102065760203660031901126102065760209282913561099b61029582600052600260205260018060a01b0360406000205416151590565b8152600d845220549051908152f35b8334610a075780600319360112610a07576109c36116e0565b600a80546001600160a01b0319811690915581906001600160a01b03167f8be0079c531659141344cd1fd0a4f28419497f9722a3daafe3b4186f6b6457e08280a380f35b80fd5b50503461025857602036600319011261025857602090610a30610a2b611575565b611738565b9051908152f35b505034610258578160031936011261025857600c5490516001600160a01b039091168152602090f35b509134610a07576020366003190112610a075750610a80602092356117fb565b90516001600160a01b039091168152f35b509134610a07576020928360031936011261025857358152600d83528181209182549260018082019386845195869383825492610acd846116a6565b80885293838116908115610b5e5750600114610b22575b5050505050610b1792610afd60ff9360029303876115a6565b015416926060835196879687528601526060850190611631565b911515908301520390f35b9080949550528383205b828410610b485750505082010186610afd836002610b17610ae4565b8054898501860152889550928401928101610b2c565b60ff19168689015250505050151560051b830101905086610afd836002610b17610ae4565b508234610a07576020366003190112610a075750803590600854821015610bbe57602083610bb084611e06565b91905490519160031b1c8152f35b608490602084519162461bcd60e51b8352820152602c60248201527f455243373231456e756d657261626c653a20676c6f62616c20696e646578206f60448201526b7574206f6620626f756e647360a01b6064820152fd5b5091903461025857610c2736611671565b91835193602085019085821067ffffffffffffffff831117610c52576103fd969750528584526118c1565b634e487b7160e01b875260418852602487fd5b509134610a075781600319360112610a0757610c7f611575565b60243590610c8c81611738565b821015610cba576001600160a01b031682526006602090815283832091835290815290829020548251908152f35b835162461bcd60e51b8152602081870152602b60248201527f455243373231456e756d657261626c653a206f776e657220696e646578206f7560448201526a74206f6620626f756e647360a81b6064820152608490fd5b50346102065760203660031901126102065760028260209460ff9335610d4f61029582600052600260205260018060a01b0360406000205416151590565b8152600d86522001541690519015158152f35b50346102065760203660031901126102065780359160018060a01b0391610d8e83600c54163314611e53565b600084815260026020526040902054610db1906001600160a01b031615156117af565b838552600d60205260ff6002838720015416610e155750828452600d602052832060028101805460ff191660011790555490610dec836117fb565b16917fb35ebdfb9515b145e406c5c5a0846ec436db0b9560927af3af7a754d90c4f6ff8480a480f35b6020606492519162461bcd60e51b83528201526013602482015272151a58dad95d08185b1c9958591e481d5cd959606a1b6044820152fd5b8334610a07576103fd610e5f36611671565b91610e72610e6d843361195c565b61185f565b611a24565b5050346102585781600319360112610258576020906008549051908152f35b5034610206578160031936011261020657610eaf611575565b6024359290916001600160a01b0391908280610eca876117fb565b16941693808514610fb657803314908115610f97575b5015610f2f57848652602052842080546001600160a01b03191683179055610f07836117fb565b167f8c5be1e5ebec7d5bd14f71427d1e84f3dd0314c0f7b2291e5b200ac8c7c3b9258480a480f35b6020608492519162461bcd60e51b8352820152603d60248201527f4552433732313a20617070726f76652063616c6c6572206973206e6f7420746f60448201527f6b656e206f776e6572206f7220617070726f76656420666f7220616c6c0000006064820152fd5b90508652600560205281862033875260205260ff828720541638610ee0565b506020608492519162461bcd60e51b8352820152602160248201527f4552433732313a20617070726f76616c20746f2063757272656e74206f776e656044820152603960f91b6064820152fd5b509134610a07576020366003190112610a075750610a8060209235611821565b505034610258578160031936011261025857805190828054611044816116a6565b80855291600191808316908115610910575060011461106f575050506108a28261031e9403836115a6565b80809650527f290decd9548b62a8d60345a988386fc84ba6bc95484008f6362f93160ef3e5635b8286106110b3575050506108a282602061031e9582010194610890565b80546020878701810191909152909501948101611096565b509034610206576060366003190112610206576110e6611575565b60249182359360443567ffffffffffffffff908181116114eb57366023820112156114eb5761111d903690878186013591016115fa565b600c5490946001600160a01b0391821693909161113b338614611e53565b855180956349287c0b60e01b82528a84830152818a60209889935afa9081156114e1578b916114a7575b50156114655782169687156114235760019384600b54019788600b5587519160608301838110828211176114115789528b83528783019182528289018d81528a8e52600d8952898e2093518455915180518885019290919082116113ff578e906111cf84546116a6565b8b601f82116113c6575b50508a91601f841160011461135757926002949281926112259897959261134c575b5050600019600383901b1c1916908a1b1790555b51151591019060ff801983541691151516179055565b60008781526002602052604090205461124a906001600160a01b031615155b15611eb6565b60085491878b526009865282878c2055600160401b83101561133b5750508291610a2b876104ac84600298976112839601600855611e06565b86895260068352848920818a52835284892086905585895260078352848920556000858152600260205260409020546112c6906001600160a01b03161515611244565b858852600382528388208054909101905583875252842080546001600160a01b031916831790558082857fddf252ad1be2c89b69c2b068fc378daa952ba7f163c4a11628f55a4df523b3ef8180a47f5c1c9352d51031acc9a558d7cdcca15b0ce5fe4f46d7315cca355248175b0a378480a480f35b634e487b7160e01b8b526041905289fd5b0151905038806111fb565b90918a9392601f1984168684528d80852094905b8282106113af57505091611225989795939185600298969410611396575b505050811b01905561120f565b015160001960f88460031b161c19169055388080611389565b8385015186558e979095019493840193018e61136b565b8584528084206113ee92601f870160051c82019287106113f5575b601f0160051c0190611e9f565b388b6111d9565b90915081906113e1565b634e487b7160e01b8f5260418752858ffd5b634e487b7160e01b8e5260418652848efd5b855162461bcd60e51b81529182018590526018908201527f496e76616c696420617474656e646565206164647265737300000000000000006044820152606490fd5b855162461bcd60e51b81528083018690526018818a01527f496e76616c6964206f722065787069726564206576656e7400000000000000006044820152606490fd5b90508581813d83116114da575b6114be81836115a6565b810103126114d6575180151581036114d65738611165565b8a80fd5b503d6114b4565b87513d8d823e3d90fd5b8780fd5b92505034610206576020366003190112610206573563ffffffff60e01b8116809103610206576020925063780e9d6360e01b8114908115611532575b5015158152f35b6380ac58cd60e01b811491508115611564575b8115611553575b503861152b565b6301ffc9a760e01b1490503861154c565b635b5e139f60e01b81149150611545565b600435906001600160a01b038216820361158b57565b600080fd5b602435906001600160a01b038216820361158b57565b90601f8019910116810190811067ffffffffffffffff8211176115c857604052565b634e487b7160e01b600052604160045260246000fd5b67ffffffffffffffff81116115c857601f01601f191660200190565b929192611606826115de565b9161161460405193846115a6565b82948184528183011161158b578281602093846000960137010152565b919082519283825260005b84811061165d575050826000602080949584010152601f8019910116010190565b60208183018101518483018201520161163c565b606090600319011261158b576001600160a01b0390600435828116810361158b5791602435908116810361158b579060443590565b90600182811c921680156116d6575b60208310146116c057565b634e487b7160e01b600052602260045260246000fd5b91607f16916116b5565b600a546001600160a01b031633036116f457565b606460405162461bcd60e51b815260206004820152602060248201527f4f776e61626c653a2063616c6c6572206973206e6f7420746865206f776e65726044820152fd5b6001600160a01b0316801561175857600052600360205260406000205490565b60405162461bcd60e51b815260206004820152602960248201527f4552433732313a2061646472657373207a65726f206973206e6f7420612076616044820152683634b21037bbb732b960b91b6064820152608490fd5b156117b657565b60405162461bcd60e51b815260206004820152601860248201527f4552433732313a20696e76616c696420746f6b656e20494400000000000000006044820152606490fd5b6000908152600260205260409020546001600160a01b031661181e8115156117af565b90565b600081815260026020526040902054611844906001600160a01b031615156117af565b6000908152600460205260409020546001600160a01b031690565b1561186657565b60405162461bcd60e51b815260206004820152602d60248201527f4552433732313a2063616c6c6572206973206e6f7420746f6b656e206f776e6560448201526c1c881bdc88185c1c1c9bdd9959609a1b6064820152608490fd5b906118e59392916118d5610e6d843361195c565b6118e0838383611a24565b611ce9565b156118ec57565b60405162461bcd60e51b81528061190560048201611909565b0390fd5b60809060208152603260208201527f4552433732313a207472616e7366657220746f206e6f6e20455243373231526560408201527131b2b4bb32b91034b6b83632b6b2b73a32b960711b60608201520190565b906001600160a01b038080611970846117fb565b169316918383149384156119a3575b50831561198d575b50505090565b61199991929350611821565b1614388080611987565b909350600052600560205260406000208260005260205260ff60406000205416923861197f565b156119d157565b60405162461bcd60e51b815260206004820152602560248201527f4552433732313a207472616e736665722066726f6d20696e636f72726563742060448201526437bbb732b960d91b6064820152608490fd5b90611a4a90611a32846117fb565b6001600160a01b0384811693909291831684146119ca565b818116938415611c98578380159182600014611be55750506008549186600052600960205282604060002055600160401b8310156115c857611a97876104ac856001899701600855611e06565b828603611bb2575b501580611baa575b611b3b575b611ac091611ab9866117fb565b16146119ca565b7fddf252ad1be2c89b69c2b068fc378daa952ba7f163c4a11628f55a4df523b3ef60008481526004602052604081206001600160601b0360a01b9081815416905583825260036020526040822060001981540190558482526040822060018154019055858252600260205284604083209182541617905580a4565b5083600052600d60205260ff60026040600020015416611b5b5781611aac565b60405162461bcd60e51b815260206004820152602160248201527f55736564207469636b65742063616e6e6f74206265207472616e7366657272656044820152601960fa1b6064820152608490fd5b506001611aa7565b611bbb90611738565b60406000878152600660205281812083825260205288828220558881526007602052205538611a9f565b8682949203611bf5575b50611a97565b611c00919350611738565b600019810192908311611c825784926000908882526020906007825260409182842054828103611c4b575b508a84528383812055868452600681528284209184525281205538611bef565b8785526006825283852083865282528385205488865260068352848620828752835280858720558552600782528385205538611c2b565b634e487b7160e01b600052601160045260246000fd5b60405162461bcd60e51b8152602060048201526024808201527f4552433732313a207472616e7366657220746f20746865207a65726f206164646044820152637265737360e01b6064820152608490fd5b92939190803b15611dfc57611d3b946040518092630a85bd0160e11b9485835233600484015260018060a01b03809816602484015260448301526080606483015281806020998a956084830190611631565b03916000988991165af1849181611dbc575b50611dab575050503d600014611da3573d611d67816115de565b90611d7560405192836115a6565b81528091833d92013e5b80519182611da05760405162461bcd60e51b81528061190560048201611909565b01fd5b506060611d7f565b6001600160e01b0319161492509050565b9091508581813d8311611df5575b611dd481836115a6565b8101031261040057516001600160e01b031981168103610400579038611d4d565b503d611dca565b5050915050600190565b600854811015611e3d5760086000527ff3f7a9fe364faab93b216da50a3214154f22a0a2b415b23a84c8169e8b636ee30190600090565b634e487b7160e01b600052603260045260246000fd5b15611e5a57565b60405162461bcd60e51b815260206004820152601c60248201527f4e6f7420617574686f72697a65643a204f6e6c7920666163746f7279000000006044820152606490fd5b818110611eaa575050565b60008155600101611e9f565b15611ebd57565b60405162461bcd60e51b815260206004820152601c60248201527f4552433732313a20746f6b656e20616c7265616479206d696e746564000000006044820152606490fdfea26469706673582212205df85e355cbca7e1bc9d65331ebe9c1f85e961f579a5a3861dce9031220222e164736f6c63430008140033",
  "linkReferences": {},
  "deployedLinkReferences": {}
}