{
  "_format": "hh-sol-artifact-1",
  "contractName": "TicketNFT",
  "sourceName": "contracts/TicketNFT.sol",
  "abi": [
    {
      "inputs": [
        {
          "internalType": "address",
          "name": "eventFactoryAddress",
          "type": "address"
        }
      ],
      "stateMutability": "nonpayable",
      "type": "constructor"
    },
    {
      "anonymous": false,
      "inputs": [
        {
          "indexed": true,
          "internalType": "address",
          "name": "owner",
          "type": "address"
        },
        {
          "indexed": true,
          "internalType": "address",
          "name": "approved",
          "type": "address"
        },
        {
          "indexed": true,
          "internalType": "uint256",
          "name": "tokenId",
          "type": "uint256"
        }
      ],
      "name": "Approval",
      "type": "event"
    },
    {
      "anonymous": false,
      "inputs": [
        {
          "indexed": true,
          "internalType": "address",
          "name": "owner",
          "type": "address"
        },
        {
          "indexed": true,
          "internalType": "address",
          "name": "operator",
          "type": "address"
        },
        {
          "indexed": false,
          "internalType": "bool",
          "name": "approved",
          "type": "bool"
        }
      ],
      "name": "ApprovalForAll",
      "type": "event"
    },
    {
      "anonymous": false,
      "inputs": [
        {
          "indexed": true,
          "internalType": "address",
          "name": "previousOwner",
          "type": "address"
        },
        {
          "indexed": true,
          "internalType": "address",
          "name": "newOwner",
          "type": "address"
        }
      ],
      "name": "OwnershipTransferred",
      "type": "event"
    },
    {
      "anonymous": false,
      "inputs": [
        {
          "indexed": true,
          "internalType": "uint256",
          "name": "tokenId",
          "type": "uint256"
        },
        {
          "indexed": true,
          "internalType": "uint256",
          "name": "eventId",
          "type": "uint256"
        },
        {
          "indexed": true,
          "internalType": "address",
          "name": "owner",
          "type": "address"
        }
      ],
      "name": "TicketBurned",
      "type": "event"
    },
    {
      "anonymous": false,
      "inputs": [
        {
          "indexed": true,
          "internalType": "uint256",
          "name": "tokenId",
          "type": "uint256"
        },
        {
          "indexed": true,
          "internalType": "address",
          "name": "attendee",
          "type": "address"
        },
        {
          "indexed": true,
          "internalType": "uint256",
          "name": "eventId",
          "type": "uint256"
        }
      ],
      "name": "TicketMinted",
      "type": "event"
    },
    {
      "anonymous": false,
      "inputs": [
        {
          "indexed": true,
          "internalType": "uint256",
          "name": "tokenId",
          "type": "uint256"
        },
        {
          "indexed": true,
          "internalType": "uint256",
          "name": "eventId",
          "type": "uint256"
        },
        {
          "indexed": true,
          "internalType": "address",
          "name": "owner",
          "type": "address"
        }
      ],
      "name": "TicketUsed",
      "type": "event"
    },
    {
      "anonymous": false,
      "inputs": [
        {
          "indexed": true,
          "internalType": "uint256",
          "name": "eventId",
          "type": "uint256"
        },
        {
          "indexed": true,
          "internalType": "address",
          "name": "attendee",
          "type": "address"
        },
        {
          "indexed": false,
          "internalType": "uint256",
          "name": "amountConverted",
          "type": "uint256"
        },
        {
          "indexed": false,
          "internalType": "uint256",
          "name": "remainingERC1155Balance",
          "type": "uint256"
        }
      ],
      "name": "TicketsConverted",
      "type": "event"
    },
    {
      "anonymous": false,
      "inputs": [
        {
          "indexed": true,
          "internalType": "address",
          "name": "from",
          "type": "address"
        },
        {
          "indexed": true,
          "internalType": "address",
          "name": "to",
          "type": "address"
        },
        {
          "indexed": true,
          "internalType": "uint256",
          "name": "tokenId",
          "type": "uint256"
        }
      ],
      "name": "Transfer",
      "type": "event"
    },
    {
      "inputs": [
        {
          "internalType": "address",
          "name": "to",
          "type": "address"
        },
        {
          "internalType": "uint256",
          "name": "tokenId",
          "type": "uint256"
        }
      ],
      "name": "approve",
      "outputs": [],
      "stateMutability": "nonpayable",
      "type": "function"
    },
    {
      "inputs": [
        {
          "internalType": "address",
          "name": "owner",
          "type": "address"
        }
      ],
      "name": "balanceOf",
      "outputs": [
        {
          "internalType": "uint256",
          "name": "",
          "type": "uint256"
        }
      ],
      "stateMutability": "view",
      "type": "function"
    },
    {
      "inputs": [
        {
          "internalType": "uint256",
          "name": "tokenId",
          "type": "uint256"
        }
      ],
      "name": "burnTicket",
      "outputs": [],
      "stateMutability": "nonpayable",
      "type": "function"
    },
    {
      "inputs": [],
      "name": "eventFactory",
      "outputs": [
        {
          "internalType": "contract EventFactory",
          "name": "",
          "type": "address"
        }
      ],
      "stateMutability": "view",
      "type": "function"
    },
    {
      "inputs": [
        {
          "internalType": "uint256",
          "name": "tokenId",
          "type": "uint256"
        }
      ],
      "name": "getApproved",
      "outputs": [
        {
          "internalType": "address",
          "name": "",
          "type": "address"
        }
      ],
      "stateMutability": "view",
      "type": "function"
    },
    {
      "inputs": [
        {
          "internalType": "uint256",
          "name": "tokenId",
          "type": "uint256"
        }
      ],
      "name": "getTicketEventId",
      "outputs": [
        {
          "internalType": "uint256",
          "name": "",
          "type": "uint256"
        }
      ],
      "stateMutability": "view",
      "type": "function"
    },
    {
      "inputs": [
        {
          "internalType": "address",
          "name": "owner",
          "type": "address"
        },
        {
          "internalType": "address",
          "name": "operator",
          "type": "address"
        }
      ],
      "name": "isApprovedForAll",
      "outputs": [
        {
          "internalType": "bool",
          "name": "",
          "type": "bool"
        }
      ],
      "stateMutability": "view",
      "type": "function"
    },
    {
      "inputs": [
        {
          "internalType": "uint256",
          "name": "tokenId",
          "type": "uint256"
        }
      ],
      "name": "isTicketUsed",
      "outputs": [
        {
          "internalType": "bool",
          "name": "",
          "type": "bool"
        }
      ],
      "stateMutability": "view",
      "type": "function"
    },
    {
      "inputs": [
        {
          "internalType": "address",
          "name": "attendee",
          "type": "address"
        },
        {
          "internalType": "uint256",
          "name": "eventId",
          "type": "uint256"
        },
        {
          "internalType": "string",
          "name": "ipfsCID",
          "type": "string"
        }
      ],
      "name": "mintTicket",
      "outputs": [],
      "stateMutability": "nonpayable",
      "type": "function"
    },
    {
      "inputs": [
        {
          "internalType": "uint256",
          "name": "eventId",
          "type": "uint256"
        },
        {
          "internalType": "uint256",
          "name": "amount",
          "type": "uint256"
        }
      ],
      "name": "mintTicketsFromFactory",
      "outputs": [],
      "stateMutability": "nonpayable",
      "type": "function"
    },
    {
      "inputs": [],
      "name": "minter",
      "outputs": [
        {
          "internalType": "address",
          "name": "",
          "type": "address"
        }
      ],
      "stateMutability": "view",
      "type": "function"
    },
    {
      "inputs": [],
      "name": "name",
      "outputs": [
        {
          "internalType": "string",
          "name": "",
          "type": "string"
        }
      ],
      "stateMutability": "view",
      "type": "function"
    },
    {
      "inputs": [],
      "name": "owner",
      "outputs": [
        {
          "internalType": "address",
          "name": "",
          "type": "address"
        }
      ],
      "stateMutability": "view",
      "type": "function"
    },
    {
      "inputs": [
        {
          "internalType": "uint256",
          "name": "tokenId",
          "type": "uint256"
        }
      ],
      "name": "ownerOf",
      "outputs": [
        {
          "internalType": "address",
          "name": "",
          "type": "address"
        }
      ],
      "stateMutability": "view",
      "type": "function"
    },
    {
      "inputs": [],
      "name": "renounceOwnership",
      "outputs": [],
      "stateMutability": "nonpayable",
      "type": "function"
    },
    {
      "inputs": [
        {
          "internalType": "address",
          "name": "from",
          "type": "address"
        },
        {
          "internalType": "address",
          "name": "to",
          "type": "address"
        },
        {
          "internalType": "uint256",
          "name": "tokenId",
          "type": "uint256"
        }
      ],
      "name": "safeTransferFrom",
      "outputs": [],
      "stateMutability": "nonpayable",
      "type": "function"
    },
    {
      "inputs": [
        {
          "internalType": "address",
          "name": "from",
          "type": "address"
        },
        {
          "internalType": "address",
          "name": "to",
          "type": "address"
        },
        {
          "internalType": "uint256",
          "name": "tokenId",
          "type": "uint256"
        },
        {
          "internalType": "bytes",
          "name": "data",
          "type": "bytes"
        }
      ],
      "name": "safeTransferFrom",
      "outputs": [],
      "stateMutability": "nonpayable",
      "type": "function"
    },
    {
      "inputs": [
        {
          "internalType": "address",
          "name": "operator",
          "type": "address"
        },
        {
          "internalType": "bool",
          "name": "approved",
          "type": "bool"
        }
      ],
      "name": "setApprovalForAll",
      "outputs": [],
      "stateMutability": "nonpayable",
      "type": "function"
    },
    {
      "inputs": [
        {
          "internalType": "address",
          "name": "_minter",
          "type": "address"
        }
      ],
      "name": "setMinter",
      "outputs": [],
      "stateMutability": "nonpayable",
      "type": "function"
    },
    {
      "inputs": [
        {
          "internalType": "bytes4",
          "name": "interfaceId",
          "type": "bytes4"
        }
      ],
      "name": "supportsInterface",
      "outputs": [
        {
          "internalType": "bool",
          "name": "",
          "type": "bool"
        }
      ],
      "stateMutability": "view",
      "type": "function"
    },
    {
      "inputs": [],
      "name": "symbol",
      "outputs": [
        {
          "internalType": "string",
          "name": "",
          "type": "string"
        }
      ],
      "stateMutability": "view",
      "type": "function"
    },
    {
      "inputs": [
        {
          "internalType": "uint256",
          "name": "",
          "type": "uint256"
        }
      ],
      "name": "tickets",
      "outputs": [
        {
          "internalType": "uint256",
          "name": "eventId",
          "type": "uint256"
        },
        {
          "internalType": "string",
          "name": "ipfsCID",
          "type": "string"
        },
        {
          "internalType": "bool",
          "name": "used",
          "type": "bool"
        }
      ],
      "stateMutability": "view",
      "type": "function"
    },
    {
      "inputs": [
        {
          "internalType": "uint256",
          "name": "index",
          "type": "uint256"
        }
      ],
      "name": "tokenByIndex",
      "outputs": [
        {
          "internalType": "uint256",
          "name": "",
          "type": "uint256"
        }
      ],
      "stateMutability": "view",
      "type": "function"
    },
    {
      "inputs": [
        {
          "internalType": "address",
          "name": "owner",
          "type": "address"
        },
        {
          "internalType": "uint256",
          "name": "index",
          "type": "uint256"
        }
      ],
      "name": "tokenOfOwnerByIndex",
      "outputs": [
        {
          "internalType": "uint256",
          "name": "",
          "type": "uint256"
        }
      ],
      "stateMutability": "view",
      "type": "function"
    },
    {
      "inputs": [
        {
          "internalType": "uint256",
          "name": "tokenId",
          "type": "uint256"
        }
      ],
      "name": "tokenURI",
      "outputs": [
        {
          "internalType": "string",
          "name": "",
          "type": "string"
        }
      ],
      "stateMutability": "view",
      "type": "function"
    },
    {
      "inputs": [],
      "name": "totalSupply",
      "outputs": [
        {
          "internalType": "uint256",
          "name": "",
          "type": "uint256"
        }
      ],
      "stateMutability": "view",
      "type": "function"
    },
    {
      "inputs": [
        {
          "internalType": "address",
          "name": "from",
          "type": "address"
        },
        {
          "internalType": "address",
          "name": "to",
          "type": "address"
        },
        {
          "internalType": "uint256",
          "name": "tokenId",
          "type": "uint256"
        }
      ],
      "name": "transferFrom",
      "outputs": [],
      "stateMutability": "nonpayable",
      "type": "function"
    },
    {
      "inputs": [
        {
          "internalType": "address",
          "name": "newOwner",
          "type": "address"
        }
      ],
      "name": "transferOwnership",
      "outputs": [],
      "stateMutability": "nonpayable",
      "type": "function"
    },
    {
      "inputs": [
        {
          "internalType": "uint256",
          "name": "tokenId",
          "type": "uint256"
        }
      ],
      "name": "useTicket",
      "outputs": [],
      "stateMutability": "nonpayable",
      "type": "function"
    }
  ],
  "bytecode": "0x608034620003a457601f906001600160401b0390601f19906200296f3881900385810184168301858111848210176200038e57839282916040528339602092839181010312620003a457516001600160a01b03948582169491859003620003a4576200006a620003a9565b92600c84526b115d995b9d08151a58dad95d60a21b818501526200008d620003a9565b906006825265151250d2d15560d21b818301528451958487116200038e576000968754966001978881811c9116801562000383575b858210146200036f579081878493116200031c575b508490878311600114620002bb578a92620002af575b5050600019600383901b1c191690871b1787555b82519485116200029b5785548681811c9116801562000290575b838210146200027c5790818587969594931162000223575b5081938511600114620001be5750508592620001b2575b5050600019600383901b1c191690821b1790555b600a5460018060a01b0319913383831617600a557f8be0079c531659141344cd1fd0a4f28419497f9722a3daafe3b4186f6b6457e0604051953393169180a3600c541617600c556125a59081620003ca8239f35b0151905038806200014a565b869593929193168588528388209388905b828210620002095750508411620001ef575b505050811b0190556200015e565b015160001960f88460031b161c19169055388080620001e1565b8484015186558897909501949384019390810190620001cf565b9091929394508688528288208580880160051c82019285891062000272575b9188978a9297969594930160051c01915b8281106200026357505062000133565b8a815588975089910162000253565b9250819262000242565b634e487b7160e01b88526022600452602488fd5b90607f16906200011b565b634e487b7160e01b87526041600452602487fd5b015190503880620000ed565b90848a9416918b8052868c20928c5b88828210620003055750508411620002eb575b505050811b01875562000101565b015160001960f88460031b161c19169055388080620002dd565b8385015186558d97909501949384019301620002ca565b909150898052848a208780850160051c82019287861062000365575b918b91869594930160051c01915b82811062000356575050620000d7565b8c81558594508b910162000346565b9250819262000338565b634e487b7160e01b8a52602260045260248afd5b90607f1690620000c2565b634e487b7160e01b600052604160045260246000fd5b600080fd5b60408051919082016001600160401b038111838210176200038e5760405256fe608080604052600436101561001357600080fd5b600090813560e01c90816301ffc9a7146119485750806303543fea1461169d57806306fdde03146115f957806307546172146115d0578063081812fc146115b1578063095ea7b31461143c57806318160ddd1461141e57806323b872dd146113f457806326606448146113055780632cd1d35c146112b15780632f745c591461120457806342842e0e146111b25780634f6ccce71461112057806350b447121461102b5780636352211e14610ffa5780636fdbd3f614610fd157806370a0823114610fa5578063715018a614610f485780637510cfaf14610efc5780638da5cb5b14610ed357806395d89b4114610df0578063a22cb46514610d17578063a476b73d1461099e578063b2a2faaf14610460578063b88d4fde146103f8578063c87b56dd146102bc578063e985e9c514610268578063f2fde38b146101a25763fca3b5aa1461016057600080fd5b3461019f57602036600319011261019f576101796119cf565b610181611b59565b60018060a01b03166001600160601b0360a01b600e541617600e5580f35b80fd5b503461019f57602036600319011261019f576101bc6119cf565b6101c4611b59565b6001600160a01b0390811690811561021457600a54826001600160601b0360a01b821617600a55167f8be0079c531659141344cd1fd0a4f28419497f9722a3daafe3b4186f6b6457e0600080a380f35b60405162461bcd60e51b815260206004820152602660248201527f4f776e61626c653a206e6577206f776e657220697320746865207a65726f206160448201526564647265737360d01b6064820152608490fd5b503461019f57604036600319011261019f576102826119cf565b604061028c6119e5565b9260018060a01b0380931681526005602052209116600052602052602060ff604060002054166040519015158152f35b503461019f576020806003193601126103f4576004356000818152600260205260409020546102fa906001600160a01b03161515611c28565b611c28565b8252600d81526001918260408220019260405193849266697066733a2f2f60c81b85850152809282549261032d84611b1f565b938281169081156103ca5750600114610385575b858761036d600e83896d17b6b2ba30b230ba30973539b7b760911b815203601119810185520183611a2d565b610381604051928284938452830190611ac5565b0390f35b9091809395945052848083205b8584106103b2575050505080602761036d93600e93010191819338610341565b80548885016027015287945092019185908201610392565b915050600e94506027925061036d9593915060ff1916828401528015150282010191819338610341565b5080fd5b503461019f57608036600319011261019f576104126119cf565b61041a6119e5565b6064359167ffffffffffffffff831161045c573660238401121561045c5761044f610459933690602481600401359101611a6b565b9160443591611d3a565b80f35b8380fd5b503461019f57604036600319011261019f57600c546040516349287c0b60e01b815260048035908201526001600160a01b0390911690602081602481855afa8015610958578390610963575b6104b69150612326565b604051638f118fe360e01b815233600480830191909152356024820152602081604481855afa908115610958578391610926575b50602435116108e1578082913b156108de578190606460405180948193637a94c56560e11b8352336004840152600435602484015260243560448401525af18015610634576108b2575b50600c54604051630761c6ad60e51b81526004803590820152908290829060249082906001600160a01b03165afa908115610634578291610813575b50815b602435811061063f57600c54604051638f118fe360e01b8152336004808301919091523560248201528491602090829060449082906001600160a01b03165afa9081156106345782916105fd575b50604051906024358252602082015233907f6a69bf77722441c5a59124f665722f0ad4c8cf4f7d97beafd09310d3e5d42b40604060043592a380f35b90506020813d60201161062c575b8161061860209383611a2d565b810103126106275751826105c1565b600080fd5b3d915061060b565b6040513d84823e3d90fd5b600b80549061064d82612560565b905560405161065b816119fb565b60043581526020810190848252856040820152828652600d6020526040862091815183555180519067ffffffffffffffff82116107ff5761069f6001850154611b1f565b90601f918281116107c4575b506020918311600114610749576107009383610739989796946002946040948d9261073e575b50508160011b916000199060031b1c19161760018501555b0151151591019060ff801983541691151516179055565b61070a81336123d5565b6004359033907f5c1c9352d51031acc9a558d7cdcca15b0ce5fe4f46d7315cca355248175b0a378780a4612560565b610573565b0151905038806106d1565b906001850189526020892091895b601f19851681106107ac575093600184600294604094610700986107399c9b9a98601f19811610610793575b505050811b0160018501556106e9565b015160001960f88460031b161c19169055388080610783565b91926020600181928685015181550194019201610757565b6107f090600187018b5260208b20600585808801821c830193602089106107f6575b01901c0190612372565b386106ab565b935082936107e6565b634e487b7160e01b88526041600452602488fd5b90503d8083833e6108248183611a2d565b810190610100818303126108aa57805167ffffffffffffffff908181116108ae578361085191840161251e565b5060408201518181116108ae578361086a91840161251e565b9260608301519182116108ae5761088291830161251e565b5060808101516001600160a01b038116036108aa5760a06108a39101612319565b5038610570565b8280fd5b8480fd5b67ffffffffffffffff81116108ca5760405238610534565b634e487b7160e01b82526041600452602482fd5b50fd5b60405162461bcd60e51b815260206004820152601c60248201527f496e73756666696369656e742045524331313535207469636b657473000000006044820152606490fd5b90506020813d602011610950575b8161094160209383611a2d565b810103126108aa5751386104ea565b3d9150610934565b6040513d85823e3d90fd5b506020813d602011610996575b8161097d60209383611a2d565b810103126108aa576109916104b691612319565b6104ac565b3d9150610970565b503461019f576020806003193601126103f457600435906109bd611b59565b6000828152600260205260409020546109e0906001600160a01b03161515611c28565b818352600d81526040832054906109f683611c74565b6109ff84611c74565b6001600160a01b03928184168015928315610c8d57505060085486885260098252806040892055600160401b8110156107ff5786610a46826001610a5f9401600855612287565b90919082549060031b91821b91600019901b1916179055565b6008546000199290838101908111610c795787895260098352610a8660408a205491612287565b90549060031b1c610a9a81610a4684612287565b89526009835260408920558688528760408120556008548015610c655788929184899201610ac781612287565b8782549160031b1b191690556008551580610c5e575b610be7575b8260029394610af083611c74565b838352600485528860408420916001600160601b0360a01b9283815416905516918284526003865260408420908154019055838352858552604083209081541690557fddf252ad1be2c89b69c2b068fc378daa952ba7f163c4a11628f55a4df523b3ef8280a4600d81528260408120918183556001830190610b728254611b1f565b9081610ba8575b50505050015516917f50d459b3df6d4d2831ef5996a57caa721fb381b00bf5309a64f099895047948c8480a480f35b8390601f8311600114610bc357505050555b82388080610b79565b8382528120929091610be090601f0160051c840160018501612372565b5555610bba565b90929152600d825260ff600260408920015416610c075790869086610ae2565b60405162461bcd60e51b815260048101839052602960248201527f5469636b65743a2075736564207469636b65742063616e6e6f74206265207472604482015268185b9cd9995c9c995960ba1b6064820152608490fd5b5082610add565b634e487b7160e01b89526031600452602489fd5b634e487b7160e01b89526011600452602489fd5b610c9690611bb1565b600019810191908211610c7957878952600783526040892054828103610cdb575b50878952886040812055885260068252604088209088528152866040812055610a5f565b818a526006845260408a20838b52845260408a2054828b526006855260408b20828c5285528060408c20558a526007845260408a205538610cb7565b503461019f57604036600319011261019f57610d316119cf565b602435908115159081830361045c576001600160a01b031691338314610dab57610d7c90338552600560205260408520848652602052604085209060ff801983541691151516179055565b6040519081527f17307eab39ab6107e8899845ad3d59bd9653f200f220920489ca2b5937696c3160203392a380f35b60405162461bcd60e51b815260206004820152601960248201527f4552433732313a20617070726f766520746f2063616c6c6572000000000000006044820152606490fd5b503461019f578060031936011261019f5760405190806001805491610e1483611b1f565b80865292828116908115610ea95750600114610e4f575b61038185610e3b81870382611a2d565b604051918291602083526020830190611ac5565b92508083527fb10e2d527612073b26eecdfd717e6a320cf44b4afac2b0732d9fcbe2b7fa0cf65b828410610e91575050508101602001610e3b82610381610e2b565b80546020858701810191909152909301928101610e76565b86955061038196935060209250610e3b94915060ff191682840152151560051b8201019293610e2b565b503461019f578060031936011261019f57600a546040516001600160a01b039091168152602090f35b503461019f57602036600319011261019f576040602091600435610f386102f582600052600260205260018060a01b0360406000205416151590565b8152600d83522054604051908152f35b503461019f578060031936011261019f57610f61611b59565b600a80546001600160a01b0319811690915581906001600160a01b03167f8be0079c531659141344cd1fd0a4f28419497f9722a3daafe3b4186f6b6457e08280a380f35b503461019f57602036600319011261019f576020610fc9610fc46119cf565b611bb1565b604051908152f35b503461019f578060031936011261019f57600c546040516001600160a01b039091168152602090f35b503461019f57602036600319011261019f576020611019600435611c74565b6040516001600160a01b039091168152f35b503461019f576020908160031936011261019f576004358152600d82526040812090815491600180820192856040519485938382549261106a84611b1f565b808852938381169081156110fb57506001146110bf575b848a886110b360ff60028d611098858e0386611a2d565b01541691606060405195869586528501526060840190611ac5565b90151560408301520390f35b9080949550528383205b8284106110e557505050820101856110988360026110b3611081565b80548885018601528795509284019281016110c9565b60ff19168689015250505050151560051b8301019050856110988360026110b3611081565b503461019f57602036600319011261019f576004356008548110156111585761114a602091612287565b90546040519160031b1c8152f35b60405162461bcd60e51b815260206004820152602c60248201527f455243373231456e756d657261626c653a20676c6f62616c20696e646578206f60448201526b7574206f6620626f756e647360a01b6064820152608490fd5b503461019f576111c136611aea565b60409392935191602083019483861067ffffffffffffffff8711176111f0576104599495604052858452611d3a565b634e487b7160e01b85526041600452602485fd5b503461019f57604036600319011261019f5761121e6119cf565b6024359161122b82611bb1565b8310156112585760209260409260018060a01b031682526006845282822090825283522054604051908152f35b60405162461bcd60e51b815260206004820152602b60248201527f455243373231456e756d657261626c653a206f776e657220696e646578206f7560448201526a74206f6620626f756e647360a81b6064820152608490fd5b503461019f57602036600319011261019f5760ff600260406020936004356112f16102f582600052600260205260018060a01b0360406000205416151590565b8152600d8552200154166040519015158152f35b503461019f57602036600319011261019f5760043560018060a01b0361133081600e541633146122d4565b600082815260026020526040902054611353906001600160a01b03161515611c28565b818352600d60205260ff6002604085200154166113b957818352600d6020526040832060028101805460ff19166001179055549061139083611c74565b16917fb35ebdfb9515b145e406c5c5a0846ec436db0b9560927af3af7a754d90c4f6ff8480a480f35b60405162461bcd60e51b8152602060048201526013602482015272151a58dad95d08185b1c9958591e481d5cd959606a1b6044820152606490fd5b503461019f5761045961140636611aea565b916114196114148433611dd5565b611cd8565b611e9d565b503461019f578060031936011261019f576020600854604051908152f35b503461019f57604036600319011261019f576114566119cf565b602435906001600160a01b03808061146d85611c74565b1692169180831461156257803314908115611541575b50156114d65782845260046020526040842080546001600160a01b031916831790556114ae83611c74565b167f8c5be1e5ebec7d5bd14f71427d1e84f3dd0314c0f7b2291e5b200ac8c7c3b9258480a480f35b60405162461bcd60e51b815260206004820152603d60248201527f4552433732313a20617070726f76652063616c6c6572206973206e6f7420746f60448201527f6b656e206f776e6572206f7220617070726f76656420666f7220616c6c0000006064820152608490fd5b9050845260056020526040842033855260205260ff60408520541638611483565b60405162461bcd60e51b815260206004820152602160248201527f4552433732313a20617070726f76616c20746f2063757272656e74206f776e656044820152603960f91b6064820152608490fd5b503461019f57602036600319011261019f576020611019600435611c9a565b503461019f578060031936011261019f57600e546040516001600160a01b039091168152602090f35b503461019f578060031936011261019f576040519080805461161a81611b1f565b80855291600191808316908115610ea957506001146116435761038185610e3b81870382611a2d565b80809450527f290decd9548b62a8d60345a988386fc84ba6bc95484008f6362f93160ef3e5635b828410611685575050508101602001610e3b82610381610e2b565b8054602085870181019190915290930192810161166a565b503461019f57606036600319011261019f576116b76119cf565b6024359067ffffffffffffffff6044358181116108ae57366023820112156108ae576116ed903690602481600401359101611a6b565b9160018060a01b039161170583600e541633146122d4565b82600c541660405180916349287c0b60e01b825287600483015281602460209485935afa801561193d578890611903575b6117409150612326565b600b54946001928387018088116118ef57600b5560405193611761856119fb565b88855283850192835260408501938a8552888b52600d815260408b2095518655818601935180519384116118db5790849392916117a18d98979654611b1f565b601f81116118a2575b5081601f85116001146118325750928092819260029796956117f49a94611827575b50501b916000199060031b1c19161790555b51151591019060ff801983541691151516179055565b6117fe83826123d5565b16907f5c1c9352d51031acc9a558d7cdcca15b0ce5fe4f46d7315cca355248175b0a378480a480f35b0151925038806117cc565b601f9893959697981985169087855280852094905b82821061188b575050916117f4989795939185600298969410611872575b505050811b0190556117de565b015160001960f88460031b161c19169055388080611865565b808886978294978701518155019601940190611847565b6118cb90868a52838a20601f870160051c8101918588106118d1575b601f0160051c0190612372565b386117aa565b90915081906118be565b634e487b7160e01b8c52604160045260248cfd5b634e487b7160e01b8a52601160045260248afd5b508181813d8311611936575b6119198183611a2d565b810103126119325761192d61174091612319565b611736565b8780fd5b503d61190f565b6040513d8a823e3d90fd5b9050346103f45760203660031901126103f45760043563ffffffff60e01b81168091036108aa576020925063780e9d6360e01b811490811561198c575b5015158152f35b6380ac58cd60e01b8114915081156119be575b81156119ad575b5038611985565b6301ffc9a760e01b149050386119a6565b635b5e139f60e01b8114915061199f565b600435906001600160a01b038216820361062757565b602435906001600160a01b038216820361062757565b6060810190811067ffffffffffffffff821117611a1757604052565b634e487b7160e01b600052604160045260246000fd5b90601f8019910116810190811067ffffffffffffffff821117611a1757604052565b67ffffffffffffffff8111611a1757601f01601f191660200190565b929192611a7782611a4f565b91611a856040519384611a2d565b829481845281830111610627578281602093846000960137010152565b60005b838110611ab55750506000910152565b8181015183820152602001611aa5565b90602091611ade81518092818552858086019101611aa2565b601f01601f1916010190565b6060906003190112610627576001600160a01b0390600435828116810361062757916024359081168103610627579060443590565b90600182811c92168015611b4f575b6020831014611b3957565b634e487b7160e01b600052602260045260246000fd5b91607f1691611b2e565b600a546001600160a01b03163303611b6d57565b606460405162461bcd60e51b815260206004820152602060248201527f4f776e61626c653a2063616c6c6572206973206e6f7420746865206f776e65726044820152fd5b6001600160a01b03168015611bd157600052600360205260406000205490565b60405162461bcd60e51b815260206004820152602960248201527f4552433732313a2061646472657373207a65726f206973206e6f7420612076616044820152683634b21037bbb732b960b91b6064820152608490fd5b15611c2f57565b60405162461bcd60e51b815260206004820152601860248201527f4552433732313a20696e76616c696420746f6b656e20494400000000000000006044820152606490fd5b6000908152600260205260409020546001600160a01b0316611c97811515611c28565b90565b600081815260026020526040902054611cbd906001600160a01b03161515611c28565b6000908152600460205260409020546001600160a01b031690565b15611cdf57565b60405162461bcd60e51b815260206004820152602d60248201527f4552433732313a2063616c6c6572206973206e6f7420746f6b656e206f776e6560448201526c1c881bdc88185c1c1c9bdd9959609a1b6064820152608490fd5b90611d5e939291611d4e6114148433611dd5565b611d59838383611e9d565b61216a565b15611d6557565b60405162461bcd60e51b815280611d7e60048201611d82565b0390fd5b60809060208152603260208201527f4552433732313a207472616e7366657220746f206e6f6e20455243373231526560408201527131b2b4bb32b91034b6b83632b6b2b73a32b960711b60608201520190565b906001600160a01b038080611de984611c74565b16931691838314938415611e1c575b508315611e06575b50505090565b611e1291929350611c9a565b1614388080611e00565b909350600052600560205260406000208260005260205260ff604060002054169238611df8565b15611e4a57565b60405162461bcd60e51b815260206004820152602560248201527f4552433732313a207472616e736665722066726f6d20696e636f72726563742060448201526437bbb732b960d91b6064820152608490fd5b90611ec390611eab84611c74565b6001600160a01b038481169390929183168414611e43565b8181169384156121195783801591826000146120665750506008549186600052600960205282604060002055600160401b831015611a1757611f1087610a46856001899701600855612287565b828603612033575b50158061202b575b611fb4575b611f3991611f3286611c74565b1614611e43565b7fddf252ad1be2c89b69c2b068fc378daa952ba7f163c4a11628f55a4df523b3ef60008481526004602052604081206001600160601b0360a01b9081815416905583825260036020526040822060001981540190558482526040822060018154019055858252600260205284604083209182541617905580a4565b5083600052600d60205260ff60026040600020015416611fd45781611f25565b60405162461bcd60e51b815260206004820152602960248201527f5469636b65743a2075736564207469636b65742063616e6e6f74206265207472604482015268185b9cd9995c9c995960ba1b6064820152608490fd5b506001611f20565b61203c90611bb1565b60406000878152600660205281812083825260205288828220558881526007602052205538611f18565b8682949203612076575b50611f10565b612081919350611bb1565b60001981019290831161210357849260009088825260209060078252604091828420548281036120cc575b508a84528383812055868452600681528284209184525281205538612070565b87855260068252838520838652825283852054888652600683528486208287528352808587205585526007825283852055386120ac565b634e487b7160e01b600052601160045260246000fd5b60405162461bcd60e51b8152602060048201526024808201527f4552433732313a207472616e7366657220746f20746865207a65726f206164646044820152637265737360e01b6064820152608490fd5b92939190803b1561227d576121bc946040518092630a85bd0160e11b9485835233600484015260018060a01b03809816602484015260448301526080606483015281806020998a956084830190611ac5565b03916000988991165af184918161223d575b5061222c575050503d600014612224573d6121e881611a4f565b906121f66040519283611a2d565b81528091833d92013e5b805191826122215760405162461bcd60e51b815280611d7e60048201611d82565b01fd5b506060612200565b6001600160e01b0319161492509050565b9091508581813d8311612276575b6122558183611a2d565b810103126108ae57516001600160e01b0319811681036108ae5790386121ce565b503d61224b565b5050915050600190565b6008548110156122be5760086000527ff3f7a9fe364faab93b216da50a3214154f22a0a2b415b23a84c8169e8b636ee30190600090565b634e487b7160e01b600052603260045260246000fd5b156122db57565b60405162461bcd60e51b8152602060048201526016602482015275139bdd08185d5d1a1bdc9a5e9959081d1bc81b5a5b9d60521b6044820152606490fd5b5190811515820361062757565b1561232d57565b60405162461bcd60e51b815260206004820152601860248201527f496e76616c6964206f722065787069726564206576656e7400000000000000006044820152606490fd5b81811061237d575050565b60008155600101612372565b1561239057565b60405162461bcd60e51b815260206004820152601c60248201527f4552433732313a20746f6b656e20616c7265616479206d696e746564000000006044820152606490fd5b6001600160a01b0381169081156124da5760008381526002602052604090205461240b906001600160a01b031615155b15612389565b600854600091848352602090600982526040928084862055600160401b8110156111f05760029291610fc488610a4684600161244a9601600855612287565b858552600682528385208186528252838520879055868552600782528385205560008681526002602052604090205461248d906001600160a01b03161515612405565b848452600381528284208054600101905585845252812080546001600160a01b031916831790557fddf252ad1be2c89b69c2b068fc378daa952ba7f163c4a11628f55a4df523b3ef8180a4565b606460405162461bcd60e51b815260206004820152602060248201527f4552433732313a206d696e7420746f20746865207a65726f20616464726573736044820152fd5b81601f8201121561062757805161253481611a4f565b926125426040519485611a2d565b8184526020828401011161062757611c979160208085019101611aa2565b6000198114612103576001019056fea26469706673582212209d0a8d9c7fd89fc2fe0d7172a5985797b9a903718b03a0549b320f4f23eff37264736f6c63430008140033",
  "linkReferences": {},
  "deployedLinkReferences": {}
}