{
  "_format": "hh-sol-artifact-1",
  "contractName": "TicketNFT",
  "sourceName": "contracts/TicketNFT.sol",
  "abi": [
    {
      "inputs": [
        {
          "internalType": "address",
          "name": "eventFactoryAddress",
          "type": "address"
        }
      ],
      "stateMutability": "nonpayable",
      "type": "constructor"
    },
    {
      "anonymous": false,
      "inputs": [
        {
          "indexed": true,
          "internalType": "address",
          "name": "owner",
          "type": "address"
        },
        {
          "indexed": true,
          "internalType": "address",
          "name": "approved",
          "type": "address"
        },
        {
          "indexed": true,
          "internalType": "uint256",
          "name": "tokenId",
          "type": "uint256"
        }
      ],
      "name": "Approval",
      "type": "event"
    },
    {
      "anonymous": false,
      "inputs": [
        {
          "indexed": true,
          "internalType": "address",
          "name": "owner",
          "type": "address"
        },
        {
          "indexed": true,
          "internalType": "address",
          "name": "operator",
          "type": "address"
        },
        {
          "indexed": false,
          "internalType": "bool",
          "name": "approved",
          "type": "bool"
        }
      ],
      "name": "ApprovalForAll",
      "type": "event"
    },
    {
      "anonymous": false,
      "inputs": [
        {
          "indexed": true,
          "internalType": "address",
          "name": "previousOwner",
          "type": "address"
        },
        {
          "indexed": true,
          "internalType": "address",
          "name": "newOwner",
          "type": "address"
        }
      ],
      "name": "OwnershipTransferred",
      "type": "event"
    },
    {
      "anonymous": false,
      "inputs": [
        {
          "indexed": true,
          "internalType": "uint256",
          "name": "tokenId",
          "type": "uint256"
        },
        {
          "indexed": true,
          "internalType": "address",
          "name": "attendee",
          "type": "address"
        },
        {
          "indexed": true,
          "internalType": "uint256",
          "name": "eventId",
          "type": "uint256"
        }
      ],
      "name": "TicketMinted",
      "type": "event"
    },
    {
      "anonymous": false,
      "inputs": [
        {
          "indexed": true,
          "internalType": "address",
          "name": "from",
          "type": "address"
        },
        {
          "indexed": true,
          "internalType": "address",
          "name": "to",
          "type": "address"
        },
        {
          "indexed": true,
          "internalType": "uint256",
          "name": "tokenId",
          "type": "uint256"
        }
      ],
      "name": "Transfer",
      "type": "event"
    },
    {
      "inputs": [
        {
          "internalType": "address",
          "name": "to",
          "type": "address"
        },
        {
          "internalType": "uint256",
          "name": "tokenId",
          "type": "uint256"
        }
      ],
      "name": "approve",
      "outputs": [],
      "stateMutability": "nonpayable",
      "type": "function"
    },
    {
      "inputs": [
        {
          "internalType": "address",
          "name": "owner",
          "type": "address"
        }
      ],
      "name": "balanceOf",
      "outputs": [
        {
          "internalType": "uint256",
          "name": "",
          "type": "uint256"
        }
      ],
      "stateMutability": "view",
      "type": "function"
    },
    {
      "inputs": [],
      "name": "eventFactory",
      "outputs": [
        {
          "internalType": "contract EventFactory",
          "name": "",
          "type": "address"
        }
      ],
      "stateMutability": "view",
      "type": "function"
    },
    {
      "inputs": [
        {
          "internalType": "uint256",
          "name": "tokenId",
          "type": "uint256"
        }
      ],
      "name": "getApproved",
      "outputs": [
        {
          "internalType": "address",
          "name": "",
          "type": "address"
        }
      ],
      "stateMutability": "view",
      "type": "function"
    },
    {
      "inputs": [
        {
          "internalType": "address",
          "name": "owner",
          "type": "address"
        },
        {
          "internalType": "address",
          "name": "operator",
          "type": "address"
        }
      ],
      "name": "isApprovedForAll",
      "outputs": [
        {
          "internalType": "bool",
          "name": "",
          "type": "bool"
        }
      ],
      "stateMutability": "view",
      "type": "function"
    },
    {
      "inputs": [
        {
          "internalType": "address",
          "name": "attendee",
          "type": "address"
        },
        {
          "internalType": "uint256",
          "name": "eventId",
          "type": "uint256"
        },
        {
          "internalType": "string",
          "name": "ipfsCID",
          "type": "string"
        }
      ],
      "name": "mintTicket",
      "outputs": [],
      "stateMutability": "nonpayable",
      "type": "function"
    },
    {
      "inputs": [],
      "name": "name",
      "outputs": [
        {
          "internalType": "string",
          "name": "",
          "type": "string"
        }
      ],
      "stateMutability": "view",
      "type": "function"
    },
    {
      "inputs": [],
      "name": "owner",
      "outputs": [
        {
          "internalType": "address",
          "name": "",
          "type": "address"
        }
      ],
      "stateMutability": "view",
      "type": "function"
    },
    {
      "inputs": [
        {
          "internalType": "uint256",
          "name": "tokenId",
          "type": "uint256"
        }
      ],
      "name": "ownerOf",
      "outputs": [
        {
          "internalType": "address",
          "name": "",
          "type": "address"
        }
      ],
      "stateMutability": "view",
      "type": "function"
    },
    {
      "inputs": [],
      "name": "renounceOwnership",
      "outputs": [],
      "stateMutability": "nonpayable",
      "type": "function"
    },
    {
      "inputs": [
        {
          "internalType": "address",
          "name": "from",
          "type": "address"
        },
        {
          "internalType": "address",
          "name": "to",
          "type": "address"
        },
        {
          "internalType": "uint256",
          "name": "tokenId",
          "type": "uint256"
        }
      ],
      "name": "safeTransferFrom",
      "outputs": [],
      "stateMutability": "nonpayable",
      "type": "function"
    },
    {
      "inputs": [
        {
          "internalType": "address",
          "name": "from",
          "type": "address"
        },
        {
          "internalType": "address",
          "name": "to",
          "type": "address"
        },
        {
          "internalType": "uint256",
          "name": "tokenId",
          "type": "uint256"
        },
        {
          "internalType": "bytes",
          "name": "data",
          "type": "bytes"
        }
      ],
      "name": "safeTransferFrom",
      "outputs": [],
      "stateMutability": "nonpayable",
      "type": "function"
    },
    {
      "inputs": [
        {
          "internalType": "address",
          "name": "operator",
          "type": "address"
        },
        {
          "internalType": "bool",
          "name": "approved",
          "type": "bool"
        }
      ],
      "name": "setApprovalForAll",
      "outputs": [],
      "stateMutability": "nonpayable",
      "type": "function"
    },
    {
      "inputs": [
        {
          "internalType": "bytes4",
          "name": "interfaceId",
          "type": "bytes4"
        }
      ],
      "name": "supportsInterface",
      "outputs": [
        {
          "internalType": "bool",
          "name": "",
          "type": "bool"
        }
      ],
      "stateMutability": "view",
      "type": "function"
    },
    {
      "inputs": [],
      "name": "symbol",
      "outputs": [
        {
          "internalType": "string",
          "name": "",
          "type": "string"
        }
      ],
      "stateMutability": "view",
      "type": "function"
    },
    {
      "inputs": [
        {
          "internalType": "uint256",
          "name": "",
          "type": "uint256"
        }
      ],
      "name": "tickets",
      "outputs": [
        {
          "internalType": "uint256",
          "name": "eventId",
          "type": "uint256"
        },
        {
          "internalType": "string",
          "name": "ipfsCID",
          "type": "string"
        },
        {
          "internalType": "bool",
          "name": "used",
          "type": "bool"
        }
      ],
      "stateMutability": "view",
      "type": "function"
    },
    {
      "inputs": [
        {
          "internalType": "uint256",
          "name": "tokenId",
          "type": "uint256"
        }
      ],
      "name": "tokenURI",
      "outputs": [
        {
          "internalType": "string",
          "name": "",
          "type": "string"
        }
      ],
      "stateMutability": "view",
      "type": "function"
    },
    {
      "inputs": [
        {
          "internalType": "address",
          "name": "from",
          "type": "address"
        },
        {
          "internalType": "address",
          "name": "to",
          "type": "address"
        },
        {
          "internalType": "uint256",
          "name": "tokenId",
          "type": "uint256"
        }
      ],
      "name": "transferFrom",
      "outputs": [],
      "stateMutability": "nonpayable",
      "type": "function"
    },
    {
      "inputs": [
        {
          "internalType": "address",
          "name": "newOwner",
          "type": "address"
        }
      ],
      "name": "transferOwnership",
      "outputs": [],
      "stateMutability": "nonpayable",
      "type": "function"
    }
  ],
  "bytecode": "0x60806040523480156200001157600080fd5b506040516200344038038062003440833981810160405281019062000037919062000269565b6040518060400160405280600c81526020017f4576656e74205469636b657400000000000000000000000000000000000000008152506040518060400160405280600681526020017f5449434b455400000000000000000000000000000000000000000000000000008152508160009081620000b4919062000515565b508060019081620000c6919062000515565b505050620000e9620000dd6200013160201b60201c565b6200013960201b60201c565b80600860006101000a81548173ffffffffffffffffffffffffffffffffffffffff021916908373ffffffffffffffffffffffffffffffffffffffff16021790555050620005fc565b600033905090565b6000600660009054906101000a900473ffffffffffffffffffffffffffffffffffffffff16905081600660006101000a81548173ffffffffffffffffffffffffffffffffffffffff021916908373ffffffffffffffffffffffffffffffffffffffff1602179055508173ffffffffffffffffffffffffffffffffffffffff168173ffffffffffffffffffffffffffffffffffffffff167f8be0079c531659141344cd1fd0a4f28419497f9722a3daafe3b4186f6b6457e060405160405180910390a35050565b600080fd5b600073ffffffffffffffffffffffffffffffffffffffff82169050919050565b6000620002318262000204565b9050919050565b620002438162000224565b81146200024f57600080fd5b50565b600081519050620002638162000238565b92915050565b600060208284031215620002825762000281620001ff565b5b6000620002928482850162000252565b91505092915050565b600081519050919050565b7f4e487b7100000000000000000000000000000000000000000000000000000000600052604160045260246000fd5b7f4e487b7100000000000000000000000000000000000000000000000000000000600052602260045260246000fd5b600060028204905060018216806200031d57607f821691505b602082108103620003335762000332620002d5565b5b50919050565b60008190508160005260206000209050919050565b60006020601f8301049050919050565b600082821b905092915050565b6000600883026200039d7fffffffffffffffffffffffffffffffffffffffffffffffffffffffffffffffff826200035e565b620003a986836200035e565b95508019841693508086168417925050509392505050565b6000819050919050565b6000819050919050565b6000620003f6620003f0620003ea84620003c1565b620003cb565b620003c1565b9050919050565b6000819050919050565b6200041283620003d5565b6200042a6200042182620003fd565b8484546200036b565b825550505050565b600090565b6200044162000432565b6200044e81848462000407565b505050565b5b8181101562000476576200046a60008262000437565b60018101905062000454565b5050565b601f821115620004c5576200048f8162000339565b6200049a846200034e565b81016020851015620004aa578190505b620004c2620004b9856200034e565b83018262000453565b50505b505050565b600082821c905092915050565b6000620004ea60001984600802620004ca565b1980831691505092915050565b6000620005058383620004d7565b9150826002028217905092915050565b62000520826200029b565b67ffffffffffffffff8111156200053c576200053b620002a6565b5b62000548825462000304565b620005558282856200047a565b600060209050601f8311600181146200058d576000841562000578578287015190505b620005848582620004f7565b865550620005f4565b601f1984166200059d8662000339565b60005b82811015620005c757848901518255600182019150602085019450602081019050620005a0565b86831015620005e75784890151620005e3601f891682620004d7565b8355505b6001600288020188555050505b505050505050565b612e34806200060c6000396000f3fe608060405234801561001057600080fd5b50600436106101215760003560e01c80636fdbd3f6116100ad578063a22cb46511610071578063a22cb4651461030a578063b88d4fde14610326578063c87b56dd14610342578063e985e9c514610372578063f2fde38b146103a257610121565b80636fdbd3f61461027657806370a0823114610294578063715018a6146102c45780638da5cb5b146102ce57806395d89b41146102ec57610121565b8063095ea7b3116100f4578063095ea7b3146101c057806323b872dd146101dc57806342842e0e146101f857806350b44712146102145780636352211e1461024657610121565b806301ffc9a71461012657806303543fea1461015657806306fdde0314610172578063081812fc14610190575b600080fd5b610140600480360381019061013b9190611a84565b6103be565b60405161014d9190611acc565b60405180910390f35b610170600480360381019061016b9190611cc1565b6104a0565b005b61017a61065c565b6040516101879190611daf565b60405180910390f35b6101aa60048036038101906101a59190611dd1565b6106ee565b6040516101b79190611e0d565b60405180910390f35b6101da60048036038101906101d59190611e28565b610734565b005b6101f660048036038101906101f19190611e68565b61084b565b005b610212600480360381019061020d9190611e68565b6108ab565b005b61022e60048036038101906102299190611dd1565b6108cb565b60405161023d93929190611eca565b60405180910390f35b610260600480360381019061025b9190611dd1565b61098a565b60405161026d9190611e0d565b60405180910390f35b61027e610a10565b60405161028b9190611f67565b60405180910390f35b6102ae60048036038101906102a99190611f82565b610a36565b6040516102bb9190611faf565b60405180910390f35b6102cc610aed565b005b6102d6610b01565b6040516102e39190611e0d565b60405180910390f35b6102f4610b2b565b6040516103019190611daf565b60405180910390f35b610324600480360381019061031f9190611ff6565b610bbd565b005b610340600480360381019061033b91906120d7565b610bd3565b005b61035c60048036038101906103579190611dd1565b610c35565b6040516103699190611daf565b60405180910390f35b61038c6004803603810190610387919061215a565b610c7c565b6040516103999190611acc565b60405180910390f35b6103bc60048036038101906103b79190611f82565b610d10565b005b60007f80ac58cd000000000000000000000000000000000000000000000000000000007bffffffffffffffffffffffffffffffffffffffffffffffffffffffff1916827bffffffffffffffffffffffffffffffffffffffffffffffffffffffff1916148061048957507f5b5e139f000000000000000000000000000000000000000000000000000000007bffffffffffffffffffffffffffffffffffffffffffffffffffffffff1916827bffffffffffffffffffffffffffffffffffffffffffffffffffffffff1916145b80610499575061049882610d93565b5b9050919050565b600860009054906101000a900473ffffffffffffffffffffffffffffffffffffffff1673ffffffffffffffffffffffffffffffffffffffff166349287c0b836040518263ffffffff1660e01b81526004016104fb9190611faf565b602060405180830381865afa158015610518573d6000803e3d6000fd5b505050506040513d601f19601f8201168201806040525081019061053c91906121af565b61057b576040517f08c379a000000000000000000000000000000000000000000000000000000000815260040161057290612228565b60405180910390fd5b6105856007610dfd565b60006105916007610e13565b9050604051806060016040528084815260200183815260200160001515815250600960008381526020019081526020016000206000820151816000015560208201518160010190816105e3919061244a565b5060408201518160020160006101000a81548160ff0219169083151502179055509050506106118482610e21565b828473ffffffffffffffffffffffffffffffffffffffff16827f5c1c9352d51031acc9a558d7cdcca15b0ce5fe4f46d7315cca355248175b0a3760405160405180910390a450505050565b60606000805461066b90612277565b80601f016020809104026020016040519081016040528092919081815260200182805461069790612277565b80156106e45780601f106106b9576101008083540402835291602001916106e4565b820191906000526020600020905b8154815290600101906020018083116106c757829003601f168201915b5050505050905090565b60006106f98261103e565b6004600083815260200190815260200160002060009054906101000a900473ffffffffffffffffffffffffffffffffffffffff169050919050565b600061073f8261098a565b90508073ffffffffffffffffffffffffffffffffffffffff168373ffffffffffffffffffffffffffffffffffffffff16036107af576040517f08c379a00000000000000000000000000000000000000000000000000000000081526004016107a69061258e565b60405180910390fd5b8073ffffffffffffffffffffffffffffffffffffffff166107ce611089565b73ffffffffffffffffffffffffffffffffffffffff1614806107fd57506107fc816107f7611089565b610c7c565b5b61083c576040517f08c379a000000000000000000000000000000000000000000000000000000000815260040161083390612620565b60405180910390fd5b6108468383611091565b505050565b61085c610856611089565b8261114a565b61089b576040517f08c379a0000000000000000000000000000000000000000000000000000000008152600401610892906126b2565b60405180910390fd5b6108a68383836111df565b505050565b6108c683838360405180602001604052806000815250610bd3565b505050565b60096020528060005260406000206000915090508060000154908060010180546108f490612277565b80601f016020809104026020016040519081016040528092919081815260200182805461092090612277565b801561096d5780601f106109425761010080835404028352916020019161096d565b820191906000526020600020905b81548152906001019060200180831161095057829003601f168201915b5050505050908060020160009054906101000a900460ff16905083565b600080610996836114d8565b9050600073ffffffffffffffffffffffffffffffffffffffff168173ffffffffffffffffffffffffffffffffffffffff1603610a07576040517f08c379a00000000000000000000000000000000000000000000000000000000081526004016109fe9061271e565b60405180910390fd5b80915050919050565b600860009054906101000a900473ffffffffffffffffffffffffffffffffffffffff1681565b60008073ffffffffffffffffffffffffffffffffffffffff168273ffffffffffffffffffffffffffffffffffffffff1603610aa6576040517f08c379a0000000000000000000000000000000000000000000000000000000008152600401610a9d906127b0565b60405180910390fd5b600360008373ffffffffffffffffffffffffffffffffffffffff1673ffffffffffffffffffffffffffffffffffffffff168152602001908152602001600020549050919050565b610af5611515565b610aff6000611593565b565b6000600660009054906101000a900473ffffffffffffffffffffffffffffffffffffffff16905090565b606060018054610b3a90612277565b80601f0160208091040260200160405190810160405280929190818152602001828054610b6690612277565b8015610bb35780601f10610b8857610100808354040283529160200191610bb3565b820191906000526020600020905b815481529060010190602001808311610b9657829003601f168201915b5050505050905090565b610bcf610bc8611089565b8383611659565b5050565b610be4610bde611089565b8361114a565b610c23576040517f08c379a0000000000000000000000000000000000000000000000000000000008152600401610c1a906126b2565b60405180910390fd5b610c2f848484846117c5565b50505050565b6060610c408261103e565b60096000838152602001908152602001600020600101604051602001610c6691906128f6565b6040516020818303038152906040529050919050565b6000600560008473ffffffffffffffffffffffffffffffffffffffff1673ffffffffffffffffffffffffffffffffffffffff16815260200190815260200160002060008373ffffffffffffffffffffffffffffffffffffffff1673ffffffffffffffffffffffffffffffffffffffff16815260200190815260200160002060009054906101000a900460ff16905092915050565b610d18611515565b600073ffffffffffffffffffffffffffffffffffffffff168173ffffffffffffffffffffffffffffffffffffffff1603610d87576040517f08c379a0000000000000000000000000000000000000000000000000000000008152600401610d7e90612995565b60405180910390fd5b610d9081611593565b50565b60007f01ffc9a7000000000000000000000000000000000000000000000000000000007bffffffffffffffffffffffffffffffffffffffffffffffffffffffff1916827bffffffffffffffffffffffffffffffffffffffffffffffffffffffff1916149050919050565b6001816000016000828254019250508190555050565b600081600001549050919050565b600073ffffffffffffffffffffffffffffffffffffffff168273ffffffffffffffffffffffffffffffffffffffff1603610e90576040517f08c379a0000000000000000000000000000000000000000000000000000000008152600401610e8790612a01565b60405180910390fd5b610e9981611821565b15610ed9576040517f08c379a0000000000000000000000000000000000000000000000000000000008152600401610ed090612a6d565b60405180910390fd5b610ee7600083836001611862565b610ef081611821565b15610f30576040517f08c379a0000000000000000000000000000000000000000000000000000000008152600401610f2790612a6d565b60405180910390fd5b6001600360008473ffffffffffffffffffffffffffffffffffffffff1673ffffffffffffffffffffffffffffffffffffffff16815260200190815260200160002060008282540192505081905550816002600083815260200190815260200160002060006101000a81548173ffffffffffffffffffffffffffffffffffffffff021916908373ffffffffffffffffffffffffffffffffffffffff160217905550808273ffffffffffffffffffffffffffffffffffffffff16600073ffffffffffffffffffffffffffffffffffffffff167fddf252ad1be2c89b69c2b068fc378daa952ba7f163c4a11628f55a4df523b3ef60405160405180910390a461103a600083836001611868565b5050565b61104781611821565b611086576040517f08c379a000000000000000000000000000000000000000000000000000000000815260040161107d9061271e565b60405180910390fd5b50565b600033905090565b816004600083815260200190815260200160002060006101000a81548173ffffffffffffffffffffffffffffffffffffffff021916908373ffffffffffffffffffffffffffffffffffffffff160217905550808273ffffffffffffffffffffffffffffffffffffffff166111048361098a565b73ffffffffffffffffffffffffffffffffffffffff167f8c5be1e5ebec7d5bd14f71427d1e84f3dd0314c0f7b2291e5b200ac8c7c3b92560405160405180910390a45050565b6000806111568361098a565b90508073ffffffffffffffffffffffffffffffffffffffff168473ffffffffffffffffffffffffffffffffffffffff16148061119857506111978185610c7c565b5b806111d657508373ffffffffffffffffffffffffffffffffffffffff166111be846106ee565b73ffffffffffffffffffffffffffffffffffffffff16145b91505092915050565b8273ffffffffffffffffffffffffffffffffffffffff166111ff8261098a565b73ffffffffffffffffffffffffffffffffffffffff1614611255576040517f08c379a000000000000000000000000000000000000000000000000000000000815260040161124c90612aff565b60405180910390fd5b600073ffffffffffffffffffffffffffffffffffffffff168273ffffffffffffffffffffffffffffffffffffffff16036112c4576040517f08c379a00000000000000000000000000000000000000000000000000000000081526004016112bb90612b91565b60405180910390fd5b6112d18383836001611862565b8273ffffffffffffffffffffffffffffffffffffffff166112f18261098a565b73ffffffffffffffffffffffffffffffffffffffff1614611347576040517f08c379a000000000000000000000000000000000000000000000000000000000815260040161133e90612aff565b60405180910390fd5b6004600082815260200190815260200160002060006101000a81549073ffffffffffffffffffffffffffffffffffffffff02191690556001600360008573ffffffffffffffffffffffffffffffffffffffff1673ffffffffffffffffffffffffffffffffffffffff168152602001908152602001600020600082825403925050819055506001600360008473ffffffffffffffffffffffffffffffffffffffff1673ffffffffffffffffffffffffffffffffffffffff16815260200190815260200160002060008282540192505081905550816002600083815260200190815260200160002060006101000a81548173ffffffffffffffffffffffffffffffffffffffff021916908373ffffffffffffffffffffffffffffffffffffffff160217905550808273ffffffffffffffffffffffffffffffffffffffff168473ffffffffffffffffffffffffffffffffffffffff167fddf252ad1be2c89b69c2b068fc378daa952ba7f163c4a11628f55a4df523b3ef60405160405180910390a46114d38383836001611868565b505050565b60006002600083815260200190815260200160002060009054906101000a900473ffffffffffffffffffffffffffffffffffffffff169050919050565b61151d611089565b73ffffffffffffffffffffffffffffffffffffffff1661153b610b01565b73ffffffffffffffffffffffffffffffffffffffff1614611591576040517f08c379a000000000000000000000000000000000000000000000000000000000815260040161158890612bfd565b60405180910390fd5b565b6000600660009054906101000a900473ffffffffffffffffffffffffffffffffffffffff16905081600660006101000a81548173ffffffffffffffffffffffffffffffffffffffff021916908373ffffffffffffffffffffffffffffffffffffffff1602179055508173ffffffffffffffffffffffffffffffffffffffff168173ffffffffffffffffffffffffffffffffffffffff167f8be0079c531659141344cd1fd0a4f28419497f9722a3daafe3b4186f6b6457e060405160405180910390a35050565b8173ffffffffffffffffffffffffffffffffffffffff168373ffffffffffffffffffffffffffffffffffffffff16036116c7576040517f08c379a00000000000000000000000000000000000000000000000000000000081526004016116be90612c69565b60405180910390fd5b80600560008573ffffffffffffffffffffffffffffffffffffffff1673ffffffffffffffffffffffffffffffffffffffff16815260200190815260200160002060008473ffffffffffffffffffffffffffffffffffffffff1673ffffffffffffffffffffffffffffffffffffffff16815260200190815260200160002060006101000a81548160ff0219169083151502179055508173ffffffffffffffffffffffffffffffffffffffff168373ffffffffffffffffffffffffffffffffffffffff167f17307eab39ab6107e8899845ad3d59bd9653f200f220920489ca2b5937696c31836040516117b89190611acc565b60405180910390a3505050565b6117d08484846111df565b6117dc8484848461186e565b61181b576040517f08c379a000000000000000000000000000000000000000000000000000000000815260040161181290612cfb565b60405180910390fd5b50505050565b60008073ffffffffffffffffffffffffffffffffffffffff16611843836114d8565b73ffffffffffffffffffffffffffffffffffffffff1614159050919050565b50505050565b50505050565b600061188f8473ffffffffffffffffffffffffffffffffffffffff166119f5565b156119e8578373ffffffffffffffffffffffffffffffffffffffff1663150b7a026118b8611089565b8786866040518563ffffffff1660e01b81526004016118da9493929190612d70565b6020604051808303816000875af192505050801561191657506040513d601f19601f820116820180604052508101906119139190612dd1565b60015b611998573d8060008114611946576040519150601f19603f3d011682016040523d82523d6000602084013e61194b565b606091505b506000815103611990576040517f08c379a000000000000000000000000000000000000000000000000000000000815260040161198790612cfb565b60405180910390fd5b805181602001fd5b63150b7a0260e01b7bffffffffffffffffffffffffffffffffffffffffffffffffffffffff1916817bffffffffffffffffffffffffffffffffffffffffffffffffffffffff1916149150506119ed565b600190505b949350505050565b6000808273ffffffffffffffffffffffffffffffffffffffff163b119050919050565b6000604051905090565b600080fd5b600080fd5b60007fffffffff0000000000000000000000000000000000000000000000000000000082169050919050565b611a6181611a2c565b8114611a6c57600080fd5b50565b600081359050611a7e81611a58565b92915050565b600060208284031215611a9a57611a99611a22565b5b6000611aa884828501611a6f565b91505092915050565b60008115159050919050565b611ac681611ab1565b82525050565b6000602082019050611ae16000830184611abd565b92915050565b600073ffffffffffffffffffffffffffffffffffffffff82169050919050565b6000611b1282611ae7565b9050919050565b611b2281611b07565b8114611b2d57600080fd5b50565b600081359050611b3f81611b19565b92915050565b6000819050919050565b611b5881611b45565b8114611b6357600080fd5b50565b600081359050611b7581611b4f565b92915050565b600080fd5b600080fd5b6000601f19601f8301169050919050565b7f4e487b7100000000000000000000000000000000000000000000000000000000600052604160045260246000fd5b611bce82611b85565b810181811067ffffffffffffffff82111715611bed57611bec611b96565b5b80604052505050565b6000611c00611a18565b9050611c0c8282611bc5565b919050565b600067ffffffffffffffff821115611c2c57611c2b611b96565b5b611c3582611b85565b9050602081019050919050565b82818337600083830152505050565b6000611c64611c5f84611c11565b611bf6565b905082815260208101848484011115611c8057611c7f611b80565b5b611c8b848285611c42565b509392505050565b600082601f830112611ca857611ca7611b7b565b5b8135611cb8848260208601611c51565b91505092915050565b600080600060608486031215611cda57611cd9611a22565b5b6000611ce886828701611b30565b9350506020611cf986828701611b66565b925050604084013567ffffffffffffffff811115611d1a57611d19611a27565b5b611d2686828701611c93565b9150509250925092565b600081519050919050565b600082825260208201905092915050565b60005b83811015611d6a578082015181840152602081019050611d4f565b60008484015250505050565b6000611d8182611d30565b611d8b8185611d3b565b9350611d9b818560208601611d4c565b611da481611b85565b840191505092915050565b60006020820190508181036000830152611dc98184611d76565b905092915050565b600060208284031215611de757611de6611a22565b5b6000611df584828501611b66565b91505092915050565b611e0781611b07565b82525050565b6000602082019050611e226000830184611dfe565b92915050565b60008060408385031215611e3f57611e3e611a22565b5b6000611e4d85828601611b30565b9250506020611e5e85828601611b66565b9150509250929050565b600080600060608486031215611e8157611e80611a22565b5b6000611e8f86828701611b30565b9350506020611ea086828701611b30565b9250506040611eb186828701611b66565b9150509250925092565b611ec481611b45565b82525050565b6000606082019050611edf6000830186611ebb565b8181036020830152611ef18185611d76565b9050611f006040830184611abd565b949350505050565b6000819050919050565b6000611f2d611f28611f2384611ae7565b611f08565b611ae7565b9050919050565b6000611f3f82611f12565b9050919050565b6000611f5182611f34565b9050919050565b611f6181611f46565b82525050565b6000602082019050611f7c6000830184611f58565b92915050565b600060208284031215611f9857611f97611a22565b5b6000611fa684828501611b30565b91505092915050565b6000602082019050611fc46000830184611ebb565b92915050565b611fd381611ab1565b8114611fde57600080fd5b50565b600081359050611ff081611fca565b92915050565b6000806040838503121561200d5761200c611a22565b5b600061201b85828601611b30565b925050602061202c85828601611fe1565b9150509250929050565b600067ffffffffffffffff82111561205157612050611b96565b5b61205a82611b85565b9050602081019050919050565b600061207a61207584612036565b611bf6565b90508281526020810184848401111561209657612095611b80565b5b6120a1848285611c42565b509392505050565b600082601f8301126120be576120bd611b7b565b5b81356120ce848260208601612067565b91505092915050565b600080600080608085870312156120f1576120f0611a22565b5b60006120ff87828801611b30565b945050602061211087828801611b30565b935050604061212187828801611b66565b925050606085013567ffffffffffffffff81111561214257612141611a27565b5b61214e878288016120a9565b91505092959194509250565b6000806040838503121561217157612170611a22565b5b600061217f85828601611b30565b925050602061219085828601611b30565b9150509250929050565b6000815190506121a981611fca565b92915050565b6000602082840312156121c5576121c4611a22565b5b60006121d38482850161219a565b91505092915050565b7f496e76616c6964206f722065787069726564206576656e740000000000000000600082015250565b6000612212601883611d3b565b915061221d826121dc565b602082019050919050565b6000602082019050818103600083015261224181612205565b9050919050565b7f4e487b7100000000000000000000000000000000000000000000000000000000600052602260045260246000fd5b6000600282049050600182168061228f57607f821691505b6020821081036122a2576122a1612248565b5b50919050565b60008190508160005260206000209050919050565b60006020601f8301049050919050565b600082821b905092915050565b60006008830261230a7fffffffffffffffffffffffffffffffffffffffffffffffffffffffffffffffff826122cd565b61231486836122cd565b95508019841693508086168417925050509392505050565b600061234761234261233d84611b45565b611f08565b611b45565b9050919050565b6000819050919050565b6123618361232c565b61237561236d8261234e565b8484546122da565b825550505050565b600090565b61238a61237d565b612395818484612358565b505050565b5b818110156123b9576123ae600082612382565b60018101905061239b565b5050565b601f8211156123fe576123cf816122a8565b6123d8846122bd565b810160208510156123e7578190505b6123fb6123f3856122bd565b83018261239a565b50505b505050565b600082821c905092915050565b600061242160001984600802612403565b1980831691505092915050565b600061243a8383612410565b9150826002028217905092915050565b61245382611d30565b67ffffffffffffffff81111561246c5761246b611b96565b5b6124768254612277565b6124818282856123bd565b600060209050601f8311600181146124b457600084156124a2578287015190505b6124ac858261242e565b865550612514565b601f1984166124c2866122a8565b60005b828110156124ea578489015182556001820191506020850194506020810190506124c5565b868310156125075784890151612503601f891682612410565b8355505b6001600288020188555050505b505050505050565b7f4552433732313a20617070726f76616c20746f2063757272656e74206f776e6560008201527f7200000000000000000000000000000000000000000000000000000000000000602082015250565b6000612578602183611d3b565b91506125838261251c565b604082019050919050565b600060208201905081810360008301526125a78161256b565b9050919050565b7f4552433732313a20617070726f76652063616c6c6572206973206e6f7420746f60008201527f6b656e206f776e6572206f7220617070726f76656420666f7220616c6c000000602082015250565b600061260a603d83611d3b565b9150612615826125ae565b604082019050919050565b60006020820190508181036000830152612639816125fd565b9050919050565b7f4552433732313a2063616c6c6572206973206e6f7420746f6b656e206f776e6560008201527f72206f7220617070726f76656400000000000000000000000000000000000000602082015250565b600061269c602d83611d3b565b91506126a782612640565b604082019050919050565b600060208201905081810360008301526126cb8161268f565b9050919050565b7f4552433732313a20696e76616c696420746f6b656e2049440000000000000000600082015250565b6000612708601883611d3b565b9150612713826126d2565b602082019050919050565b60006020820190508181036000830152612737816126fb565b9050919050565b7f4552433732313a2061646472657373207a65726f206973206e6f74206120766160008201527f6c6964206f776e65720000000000000000000000000000000000000000000000602082015250565b600061279a602983611d3b565b91506127a58261273e565b604082019050919050565b600060208201905081810360008301526127c98161278d565b9050919050565b600081905092915050565b7f697066733a2f2f00000000000000000000000000000000000000000000000000600082015250565b60006128116007836127d0565b915061281c826127db565b600782019050919050565b6000815461283481612277565b61283e81866127d0565b94506001821660008114612859576001811461286e576128a1565b60ff19831686528115158202860193506128a1565b612877856122a8565b60005b838110156128995781548189015260018201915060208101905061287a565b838801955050505b50505092915050565b7f2f6d657461646174612e6a736f6e000000000000000000000000000000000000600082015250565b60006128e0600e836127d0565b91506128eb826128aa565b600e82019050919050565b600061290182612804565b915061290d8284612827565b9150612918826128d3565b915081905092915050565b7f4f776e61626c653a206e6577206f776e657220697320746865207a65726f206160008201527f6464726573730000000000000000000000000000000000000000000000000000602082015250565b600061297f602683611d3b565b915061298a82612923565b604082019050919050565b600060208201905081810360008301526129ae81612972565b9050919050565b7f4552433732313a206d696e7420746f20746865207a65726f2061646472657373600082015250565b60006129eb602083611d3b565b91506129f6826129b5565b602082019050919050565b60006020820190508181036000830152612a1a816129de565b9050919050565b7f4552433732313a20746f6b656e20616c7265616479206d696e74656400000000600082015250565b6000612a57601c83611d3b565b9150612a6282612a21565b602082019050919050565b60006020820190508181036000830152612a8681612a4a565b9050919050565b7f4552433732313a207472616e736665722066726f6d20696e636f72726563742060008201527f6f776e6572000000000000000000000000000000000000000000000000000000602082015250565b6000612ae9602583611d3b565b9150612af482612a8d565b604082019050919050565b60006020820190508181036000830152612b1881612adc565b9050919050565b7f4552433732313a207472616e7366657220746f20746865207a65726f2061646460008201527f7265737300000000000000000000000000000000000000000000000000000000602082015250565b6000612b7b602483611d3b565b9150612b8682612b1f565b604082019050919050565b60006020820190508181036000830152612baa81612b6e565b9050919050565b7f4f776e61626c653a2063616c6c6572206973206e6f7420746865206f776e6572600082015250565b6000612be7602083611d3b565b9150612bf282612bb1565b602082019050919050565b60006020820190508181036000830152612c1681612bda565b9050919050565b7f4552433732313a20617070726f766520746f2063616c6c657200000000000000600082015250565b6000612c53601983611d3b565b9150612c5e82612c1d565b602082019050919050565b60006020820190508181036000830152612c8281612c46565b9050919050565b7f4552433732313a207472616e7366657220746f206e6f6e20455243373231526560008201527f63656976657220696d706c656d656e7465720000000000000000000000000000602082015250565b6000612ce5603283611d3b565b9150612cf082612c89565b604082019050919050565b60006020820190508181036000830152612d1481612cd8565b9050919050565b600081519050919050565b600082825260208201905092915050565b6000612d4282612d1b565b612d4c8185612d26565b9350612d5c818560208601611d4c565b612d6581611b85565b840191505092915050565b6000608082019050612d856000830187611dfe565b612d926020830186611dfe565b612d9f6040830185611ebb565b8181036060830152612db18184612d37565b905095945050505050565b600081519050612dcb81611a58565b92915050565b600060208284031215612de757612de6611a22565b5b6000612df584828501612dbc565b9150509291505056fea264697066735822122004392b20ab9fb3bf969f4e22fe04b6c38fc1244d3120a4535988567cffa7371b64736f6c63430008140033",
  "linkReferences": {},
  "deployedLinkReferences": {}
}