{
  "_format": "hh-sol-artifact-1",
  "contractName": "POAPDistributor",
  "sourceName": "contracts/POAPDistributor.sol",
  "abi": [
    {
      "inputs": [
        {
          "internalType": "address",
          "name": "ticketAddress",
          "type": "address"
        }
      ],
      "stateMutability": "nonpayable",
      "type": "constructor"
    },
    {
      "anonymous": false,
      "inputs": [
        {
          "indexed": true,
          "internalType": "address",
          "name": "account",
          "type": "address"
        },
        {
          "indexed": true,
          "internalType": "address",
          "name": "operator",
          "type": "address"
        },
        {
          "indexed": false,
          "internalType": "bool",
          "name": "approved",
          "type": "bool"
        }
      ],
      "name": "ApprovalForAll",
      "type": "event"
    },
    {
      "anonymous": false,
      "inputs": [
        {
          "indexed": true,
          "internalType": "address",
          "name": "previousOwner",
          "type": "address"
        },
        {
          "indexed": true,
          "internalType": "address",
          "name": "newOwner",
          "type": "address"
        }
      ],
      "name": "OwnershipTransferred",
      "type": "event"
    },
    {
      "anonymous": false,
      "inputs": [
        {
          "indexed": true,
          "internalType": "uint256",
          "name": "eventId",
          "type": "uint256"
        },
        {
          "indexed": true,
          "internalType": "address",
          "name": "attendee",
          "type": "address"
        }
      ],
      "name": "POAPMinted",
      "type": "event"
    },
    {
      "anonymous": false,
      "inputs": [
        {
          "indexed": true,
          "internalType": "address",
          "name": "operator",
          "type": "address"
        },
        {
          "indexed": true,
          "internalType": "address",
          "name": "from",
          "type": "address"
        },
        {
          "indexed": true,
          "internalType": "address",
          "name": "to",
          "type": "address"
        },
        {
          "indexed": false,
          "internalType": "uint256[]",
          "name": "ids",
          "type": "uint256[]"
        },
        {
          "indexed": false,
          "internalType": "uint256[]",
          "name": "values",
          "type": "uint256[]"
        }
      ],
      "name": "TransferBatch",
      "type": "event"
    },
    {
      "anonymous": false,
      "inputs": [
        {
          "indexed": true,
          "internalType": "address",
          "name": "operator",
          "type": "address"
        },
        {
          "indexed": true,
          "internalType": "address",
          "name": "from",
          "type": "address"
        },
        {
          "indexed": true,
          "internalType": "address",
          "name": "to",
          "type": "address"
        },
        {
          "indexed": false,
          "internalType": "uint256",
          "name": "id",
          "type": "uint256"
        },
        {
          "indexed": false,
          "internalType": "uint256",
          "name": "value",
          "type": "uint256"
        }
      ],
      "name": "TransferSingle",
      "type": "event"
    },
    {
      "anonymous": false,
      "inputs": [
        {
          "indexed": false,
          "internalType": "string",
          "name": "value",
          "type": "string"
        },
        {
          "indexed": true,
          "internalType": "uint256",
          "name": "id",
          "type": "uint256"
        }
      ],
      "name": "URI",
      "type": "event"
    },
    {
      "inputs": [
        {
          "internalType": "address",
          "name": "account",
          "type": "address"
        },
        {
          "internalType": "uint256",
          "name": "id",
          "type": "uint256"
        }
      ],
      "name": "balanceOf",
      "outputs": [
        {
          "internalType": "uint256",
          "name": "",
          "type": "uint256"
        }
      ],
      "stateMutability": "view",
      "type": "function"
    },
    {
      "inputs": [
        {
          "internalType": "address[]",
          "name": "accounts",
          "type": "address[]"
        },
        {
          "internalType": "uint256[]",
          "name": "ids",
          "type": "uint256[]"
        }
      ],
      "name": "balanceOfBatch",
      "outputs": [
        {
          "internalType": "uint256[]",
          "name": "",
          "type": "uint256[]"
        }
      ],
      "stateMutability": "view",
      "type": "function"
    },
    {
      "inputs": [
        {
          "internalType": "uint256",
          "name": "eventId",
          "type": "uint256"
        }
      ],
      "name": "claimPOAP",
      "outputs": [],
      "stateMutability": "nonpayable",
      "type": "function"
    },
    {
      "inputs": [
        {
          "internalType": "uint256",
          "name": "eventId",
          "type": "uint256"
        },
        {
          "internalType": "address",
          "name": "attendee",
          "type": "address"
        }
      ],
      "name": "hasClaimed",
      "outputs": [
        {
          "internalType": "bool",
          "name": "",
          "type": "bool"
        }
      ],
      "stateMutability": "view",
      "type": "function"
    },
    {
      "inputs": [
        {
          "internalType": "address",
          "name": "account",
          "type": "address"
        },
        {
          "internalType": "address",
          "name": "operator",
          "type": "address"
        }
      ],
      "name": "isApprovedForAll",
      "outputs": [
        {
          "internalType": "bool",
          "name": "",
          "type": "bool"
        }
      ],
      "stateMutability": "view",
      "type": "function"
    },
    {
      "inputs": [],
      "name": "owner",
      "outputs": [
        {
          "internalType": "address",
          "name": "",
          "type": "address"
        }
      ],
      "stateMutability": "view",
      "type": "function"
    },
    {
      "inputs": [],
      "name": "renounceOwnership",
      "outputs": [],
      "stateMutability": "nonpayable",
      "type": "function"
    },
    {
      "inputs": [
        {
          "internalType": "address",
          "name": "from",
          "type": "address"
        },
        {
          "internalType": "address",
          "name": "to",
          "type": "address"
        },
        {
          "internalType": "uint256[]",
          "name": "ids",
          "type": "uint256[]"
        },
        {
          "internalType": "uint256[]",
          "name": "amounts",
          "type": "uint256[]"
        },
        {
          "internalType": "bytes",
          "name": "data",
          "type": "bytes"
        }
      ],
      "name": "safeBatchTransferFrom",
      "outputs": [],
      "stateMutability": "nonpayable",
      "type": "function"
    },
    {
      "inputs": [
        {
          "internalType": "address",
          "name": "from",
          "type": "address"
        },
        {
          "internalType": "address",
          "name": "to",
          "type": "address"
        },
        {
          "internalType": "uint256",
          "name": "id",
          "type": "uint256"
        },
        {
          "internalType": "uint256",
          "name": "amount",
          "type": "uint256"
        },
        {
          "internalType": "bytes",
          "name": "data",
          "type": "bytes"
        }
      ],
      "name": "safeTransferFrom",
      "outputs": [],
      "stateMutability": "nonpayable",
      "type": "function"
    },
    {
      "inputs": [
        {
          "internalType": "address",
          "name": "operator",
          "type": "address"
        },
        {
          "internalType": "bool",
          "name": "approved",
          "type": "bool"
        }
      ],
      "name": "setApprovalForAll",
      "outputs": [],
      "stateMutability": "nonpayable",
      "type": "function"
    },
    {
      "inputs": [
        {
          "internalType": "uint256",
          "name": "eventId",
          "type": "uint256"
        },
        {
          "internalType": "string",
          "name": "cid",
          "type": "string"
        }
      ],
      "name": "setEventURI",
      "outputs": [],
      "stateMutability": "nonpayable",
      "type": "function"
    },
    {
      "inputs": [
        {
          "internalType": "bytes4",
          "name": "interfaceId",
          "type": "bytes4"
        }
      ],
      "name": "supportsInterface",
      "outputs": [
        {
          "internalType": "bool",
          "name": "",
          "type": "bool"
        }
      ],
      "stateMutability": "view",
      "type": "function"
    },
    {
      "inputs": [],
      "name": "ticketContract",
      "outputs": [
        {
          "internalType": "contract TicketNFT",
          "name": "",
          "type": "address"
        }
      ],
      "stateMutability": "view",
      "type": "function"
    },
    {
      "inputs": [
        {
          "internalType": "address",
          "name": "newOwner",
          "type": "address"
        }
      ],
      "name": "transferOwnership",
      "outputs": [],
      "stateMutability": "nonpayable",
      "type": "function"
    },
    {
      "inputs": [
        {
          "internalType": "uint256",
          "name": "eventId",
          "type": "uint256"
        }
      ],
      "name": "uri",
      "outputs": [
        {
          "internalType": "string",
          "name": "",
          "type": "string"
        }
      ],
      "stateMutability": "view",
      "type": "function"
    }
  ],
  "bytecode": "0x6080346200019d576001600160401b0390601f62001b1738819003918201601f19168301918483118484101762000187578084926020946040528339810103126200019d57516001600160a01b0391828216918290036200019d576040516040810191818310908311176200018757602091604052600781520166697066733a2f2f60c81b81526002546001908181811c911680156200017c575b60208210146200016657601f81116200011a575b5050516001600160c81b031916600e17600255600380546001600160a01b03198082163390811790935560405194909291167f8be0079c531659141344cd1fd0a4f28419497f9722a3daafe3b4186f6b6457e0600080a360045416176004556119749081620001a38239f35b6002600052601f0160051c7f405787fa12a823e0f2b7631cc41b3ba8828b3321ca811111fa75cd3aa3bb5ace908101905b8181106200015a5750620000ae565b6000815582016200014b565b634e487b7160e01b600052602260045260246000fd5b90607f16906200009a565b634e487b7160e01b600052604160045260246000fd5b600080fdfe6040608081526004908136101561001557600080fd5b600091823560e01c8062fdd58e1461112357806301ffc9a7146110b65780630e89341c14610f4e57806316d35d7114610da45780632eb2c2d614610a895780634e1273f4146108e857806358a86e1d146108c1578063715018a614610861578063873f6f9e1461081b5780638da5cb5b146107f25780639365fc871461052b578063a22cb4651461044a578063e985e9c5146103f8578063f242432a146101935763f2fde38b146100c557600080fd5b3461018f57602036600319011261018f576100de611153565b906100e761132f565b6001600160a01b0391821692831561013d575050600354826bffffffffffffffffffffffff60a01b821617600355167f8be0079c531659141344cd1fd0a4f28419497f9722a3daafe3b4186f6b6457e08380a380f35b906020608492519162461bcd60e51b8352820152602660248201527f4f776e61626c653a206e6577206f776e657220697320746865207a65726f206160448201526564647265737360d01b6064820152fd5b8280fd5b503461018f5760a036600319011261018f576101ad611153565b916101b661116e565b92604435906064359060843567ffffffffffffffff81116103f4576101de90369087016112dd565b926001600160a01b039182169133831480156103d5575b6101fe90611468565b87169161020c8315156114cb565b610215826116dc565b5061021f846116dc565b50818952602097898952868a20828b52895284878b205461024282821015611525565b848c528b8b52888c20848d528b5203878b2055828a52898952868a20848b528952868a20610271868254611584565b905583828851858152878c8201527fc3d58168c5ae7397731d063d5bbf3d657854427343f4c083240f7aacaa2d0f628a3392a43b6102ad578880f35b918697989596949391868a946102f68a519788968795869463f23a6e6160e01b9c8d8752339087015260248601526044850152606484015260a0608484015260a48301906111a7565b03925af18391816103a6575b5061036b575050506103126115fa565b6308c379a01461033a575b5162461bcd60e51b815291508190610336908201611687565b0390fd5b610342611618565b8061034d575061031d565b610336915193849362461bcd60e51b855284015260248301906111a7565b9194506001600160e01b03199091160361038d57505038808080808080808880f35b5162461bcd60e51b8152915081906103369082016115b1565b6103c7919250873d89116103ce575b6103bf81836111fe565b810190611591565b9038610302565b503d6103b5565b5082895260016020908152868a20338b5290528589205460ff166101f5565b8780fd5b50503461044657806003193601126104465760ff81602093610418611153565b61042061116e565b6001600160a01b0391821683526001875283832091168252855220549151911615158152f35b5080fd5b50903461018f578060031936011261018f57610464611153565b9060243591821515809303610527576001600160a01b0316923384146104d35750338452600160205280842083855260205280842060ff1981541660ff8416179055519081527f17307eab39ab6107e8899845ad3d59bd9653f200f220920489ca2b5937696c3160203392a380f35b6020608492519162461bcd60e51b8352820152602960248201527f455243313135353a2073657474696e6720617070726f76616c20737461747573604482015268103337b91039b2b63360b91b6064820152fd5b8480fd5b50919034610446576020908160031936011261018f5783359182845260058152818420338552815260ff82852054166107be57610568833361173b565b156107855781519481860186811067ffffffffffffffff8211176107725783528486523315610727578394956105a06105bf956116dc565b5083516105ac816111cc565b6001958187809352853681830137611431565b5285875286835283872033885283528387208054908682018092116107145755835186815285848201528733917fc3d58168c5ae7397731d063d5bbf3d657854427343f4c083240f7aacaa2d0f62873392a4333b61065e575b505083855260058152818520903386525283209060ff1982541617905533907f5ddca7d5809a6830dda8f5547a130099be44f5e1f6ab4773cbe795c10c0f605e8380a380f35b83949195929693518781806106a063f23a6e6160e01b95868352338c84015289602484015288604484015287606484015260a0608484015260a48301906111a7565b038188335af18591816106f5575b506106be578787876103126115fa565b939692959194936001600160e01b031916036106dc57503880610618565b825162461bcd60e51b81529081906103369082016115b1565b61070d919250893d8b116103ce576103bf81836111fe565b90386106ae565b634e487b7160e01b895260118452602489fd5b915162461bcd60e51b815291820152602160248201527f455243313135353a206d696e7420746f20746865207a65726f206164647265736044820152607360f81b6064820152608490fd5b634e487b7160e01b865260418252602486fd5b8490606492519162461bcd60e51b835282015260146024820152734e6f7420612076616c696420617474656e64656560601b6044820152fd5b8490606492519162461bcd60e51b8352820152600f60248201526e105b1c9958591e4818db185a5b5959608a1b6044820152fd5b50503461044657816003193601126104465760035490516001600160a01b039091168152602090f35b503461018f578160031936011261018f578160209360ff9261083b61116e565b90358252600586528282206001600160a01b039091168252855220549151911615158152f35b83346108be57806003193601126108be5761087a61132f565b600380546001600160a01b0319811690915581906001600160a01b03167f8be0079c531659141344cd1fd0a4f28419497f9722a3daafe3b4186f6b6457e08280a380f35b80fd5b503461018f578260031936011261018f575490516001600160a01b03909116815260209150f35b503461018f578160031936011261018f57803567ffffffffffffffff808211610527573660238301121561052757818301359061092482611267565b92610931865194856111fe565b82845260209260248486019160051b83010191368311610a8557602401905b828210610a6257505050602435908111610a5e57610971903690850161127f565b928251845103610a0b575081519461098886611267565b95610995865197886111fe565b8087526109a4601f1991611267565b0136838801375b82518110156109f5576109f0906109e06001600160a01b036109cd8387611454565b51166109d98388611454565b5190611387565b6109ea8289611454565b5261140c565b6109ab565b845182815280610a07818501896112fb565b0390f35b60849185519162461bcd60e51b8352820152602960248201527f455243313135353a206163636f756e747320616e6420696473206c656e677468604482015268040dad2e6dac2e8c6d60bb1b6064820152fd5b8580fd5b81356001600160a01b0381168103610a81578152908401908401610950565b8980fd5b8880fd5b5082346108be576003199260a03685011261044657610aa6611153565b91610aaf61116e565b9467ffffffffffffffff93604435858111610da057610ad1903690880161127f565b60643586811161052757610ae8903690890161127f565b9560843590811161052757610b0090369089016112dd565b966001600160a01b03928316923384148015610d81575b610b2090611468565b8251885103610d2d57891693610b378515156114cb565b855b8351811015610bbb5780610b50610bb69286611454565b51610b5b828c611454565b5190808a526020908a82528b8b20898c528252828c8c8b8282205492610b8385851015611525565b858352828752822091528452038c8c20558a528981528a8a2090898b5252610baf8a8a20918254611584565b905561140c565b610b39565b50949897909692959784878a518b81527f4a39dc06d4c0dbc64b70af90fd698a233a518aa5d07e595d983b8c0526c8f7fb610bf88d8301886112fb565b91808303602082015280610c0d33948b6112fb565b0390a43b610c19578880f35b8798969751948593849363bc197c8160e01b98898652338c87015260248601526044850160a0905260a48501610c4e916112fb565b82858203016064860152610c61916112fb565b90838203016084840152610c74916111a7565b0381865a94602095f1839181610d0d575b50610ced57505050610c956115fa565b6308c379a014610cb9575b905162461bcd60e51b8152908190610336908201611687565b610cc1611618565b80610ccc5750610ca0565b610336906020935193849362461bcd60e51b855284015260248301906111a7565b9193916001600160e01b0319160361038d57505081808080808080808880f35b610d2691925060203d81116103ce576103bf81836111fe565b9086610c85565b865162461bcd60e51b8152602081840152602860248201527f455243313135353a2069647320616e6420616d6f756e7473206c656e677468206044820152670dad2e6dac2e8c6d60c31b6064820152608490fd5b508386526001602090815287872033885290528686205460ff16610b17565b8380fd5b5082903461044657826003193601126104465767ffffffffffffffff602435818111610da05736602382011215610da057610de89036906024818601359101611220565b93610df161132f565b845115610f165782358452602090600682528420928551928311610f035750610e1a8354611701565b601f8111610ec0575b5080601f8311600114610e5e5750839482939492610e53575b50508160011b916000199060031b1c191617905580f35b015190508480610e3c565b90601f198316958486528286209286905b888210610ea857505083600195969710610e8f575b505050811b01905580f35b015160001960f88460031b161c19169055848080610e84565b80600185968294968601518155019501930190610e6f565b838552818520601f840160051c810191838510610ef9575b601f0160051c01905b818110610eee5750610e23565b858155600101610ee1565b9091508190610ed8565b634e487b7160e01b855260419052602484fd5b5162461bcd60e51b815260208184015260136024820152724349442063616e6e6f7420626520656d70747960681b6044820152606490fd5b5082346108be57602091826003193601126104465780358252600683528382209084519283818454610f7f81611701565b93848452888401966001928a8482169182600014611094575050600114611058575b505050610fb0925003846111fe565b82511561101d57509261100e6035610a0793610fe796845197889266697066733a2f2f60c81b898501525180926027850190611184565b81016d17b6b2ba30b230ba30973539b7b760911b60278201520360158101875201856111fe565b519282849384528301906111a7565b845162461bcd60e51b81529081018490526015602482015274155492481b9bdd081cd95d08199bdc88195d995b9d605a1b6044820152606490fd5b899350819291528282205b85831061107c575050610fb09350820101888080610fa1565b8054838a018501528894508993909201918101611063565b935094505050610fb094915060ff19168652151560051b820101888080610fa1565b503461018f57602036600319011261018f57359063ffffffff60e01b821680920361018f5760209250636cdb3d1360e11b8214918215611112575b8215611101575b50519015158152f35b6301ffc9a760e01b149150386110f8565b6303a24d0760e21b811492506110f1565b50503461044657806003193601126104465760209061114c611143611153565b60243590611387565b9051908152f35b600435906001600160a01b038216820361116957565b600080fd5b602435906001600160a01b038216820361116957565b60005b8381106111975750506000910152565b8181015183820152602001611187565b906020916111c081518092818552858086019101611184565b601f01601f1916010190565b6040810190811067ffffffffffffffff8211176111e857604052565b634e487b7160e01b600052604160045260246000fd5b90601f8019910116810190811067ffffffffffffffff8211176111e857604052565b92919267ffffffffffffffff82116111e8576040519161124a601f8201601f1916602001846111fe565b829481845281830111611169578281602093846000960137010152565b67ffffffffffffffff81116111e85760051b60200190565b81601f820112156111695780359161129683611267565b926112a460405194856111fe565b808452602092838086019260051b820101928311611169578301905b8282106112ce575050505090565b813581529083019083016112c0565b9080601f83011215611169578160206112f893359101611220565b90565b90815180825260208080930193019160005b82811061131b575050505090565b83518552938101939281019260010161130d565b6003546001600160a01b0316330361134357565b606460405162461bcd60e51b815260206004820152602060248201527f4f776e61626c653a2063616c6c6572206973206e6f7420746865206f776e65726044820152fd5b6001600160a01b03169081156113b457600052600060205260406000209060005260205260406000205490565b60405162461bcd60e51b815260206004820152602a60248201527f455243313135353a2061646472657373207a65726f206973206e6f742061207660448201526930b634b21037bbb732b960b11b6064820152608490fd5b600019811461141b5760010190565b634e487b7160e01b600052601160045260246000fd5b80511561143e5760200190565b634e487b7160e01b600052603260045260246000fd5b805182101561143e5760209160051b010190565b1561146f57565b60405162461bcd60e51b815260206004820152602e60248201527f455243313135353a2063616c6c6572206973206e6f7420746f6b656e206f776e60448201526d195c881bdc88185c1c1c9bdd995960921b6064820152608490fd5b156114d257565b60405162461bcd60e51b815260206004820152602560248201527f455243313135353a207472616e7366657220746f20746865207a65726f206164604482015264647265737360d81b6064820152608490fd5b1561152c57565b60405162461bcd60e51b815260206004820152602a60248201527f455243313135353a20696e73756666696369656e742062616c616e636520666f60448201526939103a3930b739b332b960b11b6064820152608490fd5b9190820180921161141b57565b9081602091031261116957516001600160e01b0319811681036111695790565b60809060208152602860208201527f455243313135353a204552433131353552656365697665722072656a656374656040820152676420746f6b656e7360c01b60608201520190565b60009060033d1161160757565b905060046000803e60005160e01c90565b600060443d106112f857604051600319913d83016004833e815167ffffffffffffffff918282113d6024840111176116765781840194855193841161167e573d8501016020848701011161167657506112f8929101602001906111fe565b949350505050565b50949350505050565b60809060208152603460208201527f455243313135353a207472616e7366657220746f206e6f6e2d455243313135356040820152732932b1b2b4bb32b91034b6b83632b6b2b73a32b960611b60608201520190565b604051906116e9826111cc565b60018252602036818401376116fd82611431565b5290565b90600182811c92168015611731575b602083101461171b57565b634e487b7160e01b600052602260045260246000fd5b91607f1691611710565b9060018060a01b0360049181835416906040928351956370a0823160e01b875216808587015260209160249083888381885afa97881561193357600098611904575b5087156118f75760005b88811061179c57505050505050505050600090565b8651632f745c5960e01b81528489820152818482015285816044818a5afa90811561188d576000916118ca575b50828851637510cfaf60e01b8152828b820152878187818c5afa60009181611898575b50611802575050506117fd9061140c565b611787565b149081611826575b50611818576117fd9061140c565b505050505050505050600190565b9050875190630b3474d760e21b825289820152858185818a5afa90811561188d57600091611857575b50153861180a565b8681813d8311611886575b61186c81836111fe565b8101031261044657519081151582036108be57503861184f565b503d611862565b88513d6000823e3d90fd5b919092508882813d83116118c3575b6118b181836111fe565b810103126108be5750518491386117ec565b503d6118a7565b908682813d83116118f0575b6118e081836111fe565b810103126108be575051386117c9565b503d6118d6565b5050505050505050600090565b90978482813d831161192c575b61191b81836111fe565b810103126108be575051963861177d565b503d611911565b86513d6000823e3d90fdfea264697066735822122044f57fecfce5845a02a96e26c2c7a679bd27476609ccab6f7987a685dc08dd8964736f6c63430008140033",
  "linkReferences": {},
  "deployedLinkReferences": {}
}