{
  "_format": "hh-sol-artifact-1",
  "contractName": "POAPDistributor",
  "sourceName": "contracts/POAPDistributor.sol",
  "abi": [
    {
      "inputs": [
        {
          "internalType": "address",
          "name": "ticketAddress",
          "type": "address"
        }
      ],
      "stateMutability": "nonpayable",
      "type": "constructor"
    },
    {
      "anonymous": false,
      "inputs": [
        {
          "indexed": true,
          "internalType": "address",
          "name": "account",
          "type": "address"
        },
        {
          "indexed": true,
          "internalType": "address",
          "name": "operator",
          "type": "address"
        },
        {
          "indexed": false,
          "internalType": "bool",
          "name": "approved",
          "type": "bool"
        }
      ],
      "name": "ApprovalForAll",
      "type": "event"
    },
    {
      "anonymous": false,
      "inputs": [
        {
          "indexed": true,
          "internalType": "address",
          "name": "previousOwner",
          "type": "address"
        },
        {
          "indexed": true,
          "internalType": "address",
          "name": "newOwner",
          "type": "address"
        }
      ],
      "name": "OwnershipTransferred",
      "type": "event"
    },
    {
      "anonymous": false,
      "inputs": [
        {
          "indexed": true,
          "internalType": "uint256",
          "name": "eventId",
          "type": "uint256"
        },
        {
          "indexed": true,
          "internalType": "address",
          "name": "attendee",
          "type": "address"
        }
      ],
      "name": "POAPMinted",
      "type": "event"
    },
    {
      "anonymous": false,
      "inputs": [
        {
          "indexed": true,
          "internalType": "address",
          "name": "operator",
          "type": "address"
        },
        {
          "indexed": true,
          "internalType": "address",
          "name": "from",
          "type": "address"
        },
        {
          "indexed": true,
          "internalType": "address",
          "name": "to",
          "type": "address"
        },
        {
          "indexed": false,
          "internalType": "uint256[]",
          "name": "ids",
          "type": "uint256[]"
        },
        {
          "indexed": false,
          "internalType": "uint256[]",
          "name": "values",
          "type": "uint256[]"
        }
      ],
      "name": "TransferBatch",
      "type": "event"
    },
    {
      "anonymous": false,
      "inputs": [
        {
          "indexed": true,
          "internalType": "address",
          "name": "operator",
          "type": "address"
        },
        {
          "indexed": true,
          "internalType": "address",
          "name": "from",
          "type": "address"
        },
        {
          "indexed": true,
          "internalType": "address",
          "name": "to",
          "type": "address"
        },
        {
          "indexed": false,
          "internalType": "uint256",
          "name": "id",
          "type": "uint256"
        },
        {
          "indexed": false,
          "internalType": "uint256",
          "name": "value",
          "type": "uint256"
        }
      ],
      "name": "TransferSingle",
      "type": "event"
    },
    {
      "anonymous": false,
      "inputs": [
        {
          "indexed": false,
          "internalType": "string",
          "name": "value",
          "type": "string"
        },
        {
          "indexed": true,
          "internalType": "uint256",
          "name": "id",
          "type": "uint256"
        }
      ],
      "name": "URI",
      "type": "event"
    },
    {
      "inputs": [
        {
          "internalType": "address",
          "name": "account",
          "type": "address"
        },
        {
          "internalType": "uint256",
          "name": "id",
          "type": "uint256"
        }
      ],
      "name": "balanceOf",
      "outputs": [
        {
          "internalType": "uint256",
          "name": "",
          "type": "uint256"
        }
      ],
      "stateMutability": "view",
      "type": "function"
    },
    {
      "inputs": [
        {
          "internalType": "address[]",
          "name": "accounts",
          "type": "address[]"
        },
        {
          "internalType": "uint256[]",
          "name": "ids",
          "type": "uint256[]"
        }
      ],
      "name": "balanceOfBatch",
      "outputs": [
        {
          "internalType": "uint256[]",
          "name": "",
          "type": "uint256[]"
        }
      ],
      "stateMutability": "view",
      "type": "function"
    },
    {
      "inputs": [
        {
          "internalType": "uint256",
          "name": "eventId",
          "type": "uint256"
        }
      ],
      "name": "claimPOAP",
      "outputs": [],
      "stateMutability": "nonpayable",
      "type": "function"
    },
    {
      "inputs": [
        {
          "internalType": "uint256",
          "name": "eventId",
          "type": "uint256"
        }
      ],
      "name": "getEventCID",
      "outputs": [
        {
          "internalType": "string",
          "name": "",
          "type": "string"
        }
      ],
      "stateMutability": "view",
      "type": "function"
    },
    {
      "inputs": [
        {
          "internalType": "uint256",
          "name": "eventId",
          "type": "uint256"
        },
        {
          "internalType": "address",
          "name": "attendee",
          "type": "address"
        }
      ],
      "name": "hasClaimed",
      "outputs": [
        {
          "internalType": "bool",
          "name": "",
          "type": "bool"
        }
      ],
      "stateMutability": "view",
      "type": "function"
    },
    {
      "inputs": [
        {
          "internalType": "address",
          "name": "account",
          "type": "address"
        },
        {
          "internalType": "address",
          "name": "operator",
          "type": "address"
        }
      ],
      "name": "isApprovedForAll",
      "outputs": [
        {
          "internalType": "bool",
          "name": "",
          "type": "bool"
        }
      ],
      "stateMutability": "view",
      "type": "function"
    },
    {
      "inputs": [],
      "name": "owner",
      "outputs": [
        {
          "internalType": "address",
          "name": "",
          "type": "address"
        }
      ],
      "stateMutability": "view",
      "type": "function"
    },
    {
      "inputs": [],
      "name": "renounceOwnership",
      "outputs": [],
      "stateMutability": "nonpayable",
      "type": "function"
    },
    {
      "inputs": [
        {
          "internalType": "address",
          "name": "from",
          "type": "address"
        },
        {
          "internalType": "address",
          "name": "to",
          "type": "address"
        },
        {
          "internalType": "uint256[]",
          "name": "ids",
          "type": "uint256[]"
        },
        {
          "internalType": "uint256[]",
          "name": "amounts",
          "type": "uint256[]"
        },
        {
          "internalType": "bytes",
          "name": "data",
          "type": "bytes"
        }
      ],
      "name": "safeBatchTransferFrom",
      "outputs": [],
      "stateMutability": "nonpayable",
      "type": "function"
    },
    {
      "inputs": [
        {
          "internalType": "address",
          "name": "from",
          "type": "address"
        },
        {
          "internalType": "address",
          "name": "to",
          "type": "address"
        },
        {
          "internalType": "uint256",
          "name": "id",
          "type": "uint256"
        },
        {
          "internalType": "uint256",
          "name": "amount",
          "type": "uint256"
        },
        {
          "internalType": "bytes",
          "name": "data",
          "type": "bytes"
        }
      ],
      "name": "safeTransferFrom",
      "outputs": [],
      "stateMutability": "nonpayable",
      "type": "function"
    },
    {
      "inputs": [
        {
          "internalType": "address",
          "name": "operator",
          "type": "address"
        },
        {
          "internalType": "bool",
          "name": "approved",
          "type": "bool"
        }
      ],
      "name": "setApprovalForAll",
      "outputs": [],
      "stateMutability": "nonpayable",
      "type": "function"
    },
    {
      "inputs": [
        {
          "internalType": "uint256",
          "name": "eventId",
          "type": "uint256"
        },
        {
          "internalType": "string",
          "name": "cid",
          "type": "string"
        }
      ],
      "name": "setEventURI",
      "outputs": [],
      "stateMutability": "nonpayable",
      "type": "function"
    },
    {
      "inputs": [
        {
          "internalType": "bytes4",
          "name": "interfaceId",
          "type": "bytes4"
        }
      ],
      "name": "supportsInterface",
      "outputs": [
        {
          "internalType": "bool",
          "name": "",
          "type": "bool"
        }
      ],
      "stateMutability": "view",
      "type": "function"
    },
    {
      "inputs": [],
      "name": "ticketContract",
      "outputs": [
        {
          "internalType": "contract TicketNFT",
          "name": "",
          "type": "address"
        }
      ],
      "stateMutability": "view",
      "type": "function"
    },
    {
      "inputs": [
        {
          "internalType": "address",
          "name": "newOwner",
          "type": "address"
        }
      ],
      "name": "transferOwnership",
      "outputs": [],
      "stateMutability": "nonpayable",
      "type": "function"
    },
    {
      "inputs": [
        {
          "internalType": "uint256",
          "name": "eventId",
          "type": "uint256"
        }
      ],
      "name": "uri",
      "outputs": [
        {
          "internalType": "string",
          "name": "",
          "type": "string"
        }
      ],
      "stateMutability": "view",
      "type": "function"
    }
  ],
  "bytecode": "0x608034620001e957601f62001c8638819003918201601f19168301926001600160401b0392909183851183861017620001d3578160209284926040978852833981010312620001e957516001600160a01b03808216929091839003620001e957835180850191821181831017620001d3576020918552600781520166697066733a2f2f60c81b81526002546001908181811c91168015620001c8575b6020821014620001b257601f811162000166575b5050516001600160c81b031916600e17600255600380546001600160a01b03198082163390811790935585519093909291167f8be0079c531659141344cd1fd0a4f28419497f9722a3daafe3b4186f6b6457e0600080a38215620001245750600454161760045551611a979081620001ef8239f35b62461bcd60e51b815260206004820152601f60248201527f496e76616c6964207469636b657420636f6e74726163742061646472657373006044820152606490fd5b6002600052601f0160051c7f405787fa12a823e0f2b7631cc41b3ba8828b3321ca811111fa75cd3aa3bb5ace908101905b818110620001a65750620000af565b60008155820162000197565b634e487b7160e01b600052602260045260246000fd5b90607f16906200009b565b634e487b7160e01b600052604160045260246000fd5b600080fdfe6040608081526004908136101561001557600080fd5b600091823560e01c8062fdd58e146111fc57806301ffc9a71461118f5780630e89341c1461107d57806316d35d7114610ec95780632eb2c2d614610bb25780634e1273f414610a1557806358a86e1d146109ee578063715018a61461098e578063873f6f9e146109485780638d565d6c146108525780638da5cb5b146108295780639365fc8714610536578063a22cb46514610455578063e985e9c514610403578063f242432a1461019e5763f2fde38b146100d057600080fd5b3461019a57602036600319011261019a576100e961122c565b906100f2611400565b6001600160a01b03918216928315610148575050600354826bffffffffffffffffffffffff60a01b821617600355167f8be0079c531659141344cd1fd0a4f28419497f9722a3daafe3b4186f6b6457e08380a380f35b906020608492519162461bcd60e51b8352820152602660248201527f4f776e61626c653a206e6577206f776e657220697320746865207a65726f206160448201526564647265737360d01b6064820152fd5b8280fd5b503461019a5760a036600319011261019a576101b861122c565b916101c1611247565b92604435906064359060843567ffffffffffffffff81116103ff576101e990369087016113ae565b926001600160a01b039182169133831480156103e0575b61020990611539565b87169161021783151561159c565b610220826117ad565b5061022a846117ad565b50818952602097898952868a20828b52895284878b205461024d828210156115f6565b848c528b8b52888c20848d528b5203878b2055828a52898952868a20848b528952868a2061027c868254611655565b905583828851858152878c8201527fc3d58168c5ae7397731d063d5bbf3d657854427343f4c083240f7aacaa2d0f628a3392a43b6102b8578880f35b918697989596949391868a946103018a519788968795869463f23a6e6160e01b9c8d8752339087015260248601526044850152606484015260a0608484015260a483019061125d565b03925af18391816103b1575b506103765750505061031d6116cb565b6308c379a014610345575b5162461bcd60e51b815291508190610341908201611758565b0390fd5b61034d6116e9565b806103585750610328565b610341915193849362461bcd60e51b8552840152602483019061125d565b9194506001600160e01b03199091160361039857505038808080808080808880f35b5162461bcd60e51b815291508190610341908201611682565b6103d2919250873d89116103d9575b6103ca81836112cf565b810190611662565b903861030d565b503d6103c0565b5082895260016020908152868a20338b5290528589205460ff16610200565b8780fd5b50503461045157806003193601126104515760ff8160209361042361122c565b61042b611247565b6001600160a01b0391821683526001875283832091168252855220549151911615158152f35b5080fd5b50903461019a578060031936011261019a5761046f61122c565b9060243591821515809303610532576001600160a01b0316923384146104de5750338452600160205280842083855260205280842060ff1981541660ff8416179055519081527f17307eab39ab6107e8899845ad3d59bd9653f200f220920489ca2b5937696c3160203392a380f35b6020608492519162461bcd60e51b8352820152602960248201527f455243313135353a2073657474696e6720617070726f76616c20737461747573604482015268103337b91039b2b63360b91b6064820152fd5b8480fd5b50919034610451576020908160031936011261019a578335918284526006815261056c610565838620546117d2565b151561180c565b82845260058152818420338552815260ff82852054166107ef576105908333611858565b156107ad5781519481860186811067ffffffffffffffff82111761079a578352848652331561074f578394956105c86105e7956117ad565b5083516105d48161129d565b6001958187809352853681830137611502565b52858752868352838720338852835283872080549086820180921161073c5755835186815285848201528733917fc3d58168c5ae7397731d063d5bbf3d657854427343f4c083240f7aacaa2d0f62873392a4333b610686575b505083855260058152818520903386525283209060ff1982541617905533907f5ddca7d5809a6830dda8f5547a130099be44f5e1f6ab4773cbe795c10c0f605e8380a380f35b83949195929693518781806106c863f23a6e6160e01b95868352338c84015289602484015288604484015287606484015260a0608484015260a483019061125d565b038188335af185918161071d575b506106e65787878761031d6116cb565b939692959194936001600160e01b0319160361070457503880610640565b825162461bcd60e51b8152908190610341908201611682565b610735919250893d8b116103d9576103ca81836112cf565b90386106d6565b634e487b7160e01b895260118452602489fd5b915162461bcd60e51b815291820152602160248201527f455243313135353a206d696e7420746f20746865207a65726f206164647265736044820152607360f81b6064820152608490fd5b634e487b7160e01b865260418252602486fd5b8490606492519162461bcd60e51b8352820152601c60248201527f504f41503a20496e76616c6964206f722075736564207469636b6574000000006044820152fd5b8490606492519162461bcd60e51b835282015260156024820152741413d0540e88105b1c9958591e4818db185a5b5959605a1b6044820152fd5b50503461045157816003193601126104515760035490516001600160a01b039091168152602090f35b50903461019a576020918260031936011261094457358084526006835261087e610565838620546117d2565b835260068252808320815193849181815490610899826117d2565b9283865260019288848216918260001461091a5750506001146108dc575b85886108d8896108c9848a03856112cf565b5192828493845283019061125d565b0390f35b87945081939291528383205b82841061090257505050820101816108c96108d8386108b7565b8054848a0186015288955087949093019281016108e8565b60ff19168882015294151560051b870190940194508593506108c992506108d891503890506108b7565b8380fd5b503461019a578160031936011261019a578160209360ff92610968611247565b90358252600586528282206001600160a01b039091168252855220549151911615158152f35b83346109eb57806003193601126109eb576109a7611400565b600380546001600160a01b0319811690915581906001600160a01b03167f8be0079c531659141344cd1fd0a4f28419497f9722a3daafe3b4186f6b6457e08280a380f35b80fd5b503461019a578260031936011261019a575490516001600160a01b03909116815260209150f35b503461019a578160031936011261019a57803567ffffffffffffffff8082116105325736602383011215610532578183013590610a5182611338565b92610a5e865194856112cf565b82845260209260248486019160051b83010191368311610bae57602401905b828210610b8b57505050602435908111610b8757610a9e9036908501611350565b928251845103610b345750815194610ab586611338565b95610ac2865197886112cf565b808752610ad1601f1991611338565b0136838801375b8251811015610b2257610b1d90610b0d6001600160a01b03610afa8387611525565b5116610b068388611525565b5190611458565b610b178289611525565b526114dd565b610ad8565b8451828152806108d8818501896113cc565b60849185519162461bcd60e51b8352820152602960248201527f455243313135353a206163636f756e747320616e6420696473206c656e677468604482015268040dad2e6dac2e8c6d60bb1b6064820152fd5b8580fd5b81356001600160a01b0381168103610baa578152908401908401610a7d565b8980fd5b8880fd5b5082346109eb576003199260a03685011261045157610bcf61122c565b91610bd8611247565b9467ffffffffffffffff9360443585811161094457610bfa9036908801611350565b60643586811161053257610c119036908901611350565b9560843590811161053257610c2990369089016113ae565b966001600160a01b03928316923384148015610eaa575b610c4990611539565b8251885103610e5657891693610c6085151561159c565b855b8351811015610ce45780610c79610cdf9286611525565b51610c84828c611525565b5190808a526020908a82528b8b20898c528252828c8c8b8282205492610cac858510156115f6565b858352828752822091528452038c8c20558a528981528a8a2090898b5252610cd88a8a20918254611655565b90556114dd565b610c62565b50949897909692959784878a518b81527f4a39dc06d4c0dbc64b70af90fd698a233a518aa5d07e595d983b8c0526c8f7fb610d218d8301886113cc565b91808303602082015280610d3633948b6113cc565b0390a43b610d42578880f35b8798969751948593849363bc197c8160e01b98898652338c87015260248601526044850160a0905260a48501610d77916113cc565b82858203016064860152610d8a916113cc565b90838203016084840152610d9d9161125d565b0381865a94602095f1839181610e36575b50610e1657505050610dbe6116cb565b6308c379a014610de2575b905162461bcd60e51b8152908190610341908201611758565b610dea6116e9565b80610df55750610dc9565b610341906020935193849362461bcd60e51b8552840152602483019061125d565b9193916001600160e01b0319160361039857505081808080808080808880f35b610e4f91925060203d81116103d9576103ca81836112cf565b9086610dae565b865162461bcd60e51b8152602081840152602860248201527f455243313135353a2069647320616e6420616d6f756e7473206c656e677468206044820152670dad2e6dac2e8c6d60c31b6064820152608490fd5b508386526001602090815287872033885290528686205460ff16610c40565b5082903461045157826003193601126104515767ffffffffffffffff602435818111610944573660238201121561094457610f0d90369060248186013591016112f1565b93610f16611400565b84511561103b57823584526020906006825284209285519283116110285750610f3f83546117d2565b601f8111610fe5575b5080601f8311600114610f835750839482939492610f78575b50508160011b916000199060031b1c191617905580f35b015190508480610f61565b90601f198316958486528286209286905b888210610fcd57505083600195969710610fb4575b505050811b01905580f35b015160001960f88460031b161c19169055848080610fa9565b80600185968294968601518155019501930190610f94565b838552818520601f840160051c81019183851061101e575b601f0160051c01905b8181106110135750610f48565b858155600101611006565b9091508190610ffd565b634e487b7160e01b855260419052602484fd5b5162461bcd60e51b8152602081840152601960248201527f504f41503a204349442063616e6e6f7420626520656d707479000000000000006044820152606490fd5b50903461019a57602091826003193601126109445735808452600683526110a9610565838620546117d2565b835260068252808320815193849166697066733a2f2f60c81b858401528181546110d2816117d2565b926001918083169081156111605750600114611119575b85886108d8896108c9600e858b6d17b6b2ba30b230ba30973539b7b760911b8152036011198101875201856112cf565b879695945082528582205b838310611147575093945091925082016027019050600e826108c96108d86110e9565b80546027848b0101528796899550909201918101611124565b90506108c995506108d89796935060279250600e94915060ff19168284015280151502820101928194956110e9565b503461019a57602036600319011261019a57359063ffffffff60e01b821680920361019a5760209250636cdb3d1360e11b82149182156111eb575b82156111da575b50519015158152f35b6301ffc9a760e01b149150386111d1565b6303a24d0760e21b811492506111ca565b50503461045157806003193601126104515760209061122561121c61122c565b60243590611458565b9051908152f35b600435906001600160a01b038216820361124257565b600080fd5b602435906001600160a01b038216820361124257565b919082519283825260005b848110611289575050826000602080949584010152601f8019910116010190565b602081830181015184830182015201611268565b6040810190811067ffffffffffffffff8211176112b957604052565b634e487b7160e01b600052604160045260246000fd5b90601f8019910116810190811067ffffffffffffffff8211176112b957604052565b92919267ffffffffffffffff82116112b9576040519161131b601f8201601f1916602001846112cf565b829481845281830111611242578281602093846000960137010152565b67ffffffffffffffff81116112b95760051b60200190565b81601f820112156112425780359161136783611338565b9261137560405194856112cf565b808452602092838086019260051b820101928311611242578301905b82821061139f575050505090565b81358152908301908301611391565b9080601f83011215611242578160206113c9933591016112f1565b90565b90815180825260208080930193019160005b8281106113ec575050505090565b8351855293810193928101926001016113de565b6003546001600160a01b0316330361141457565b606460405162461bcd60e51b815260206004820152602060248201527f4f776e61626c653a2063616c6c6572206973206e6f7420746865206f776e65726044820152fd5b6001600160a01b031690811561148557600052600060205260406000209060005260205260406000205490565b60405162461bcd60e51b815260206004820152602a60248201527f455243313135353a2061646472657373207a65726f206973206e6f742061207660448201526930b634b21037bbb732b960b11b6064820152608490fd5b60001981146114ec5760010190565b634e487b7160e01b600052601160045260246000fd5b80511561150f5760200190565b634e487b7160e01b600052603260045260246000fd5b805182101561150f5760209160051b010190565b1561154057565b60405162461bcd60e51b815260206004820152602e60248201527f455243313135353a2063616c6c6572206973206e6f7420746f6b656e206f776e60448201526d195c881bdc88185c1c1c9bdd995960921b6064820152608490fd5b156115a357565b60405162461bcd60e51b815260206004820152602560248201527f455243313135353a207472616e7366657220746f20746865207a65726f206164604482015264647265737360d81b6064820152608490fd5b156115fd57565b60405162461bcd60e51b815260206004820152602a60248201527f455243313135353a20696e73756666696369656e742062616c616e636520666f60448201526939103a3930b739b332b960b11b6064820152608490fd5b919082018092116114ec57565b9081602091031261124257516001600160e01b0319811681036112425790565b60809060208152602860208201527f455243313135353a204552433131353552656365697665722072656a656374656040820152676420746f6b656e7360c01b60608201520190565b60009060033d116116d857565b905060046000803e60005160e01c90565b600060443d106113c957604051600319913d83016004833e815167ffffffffffffffff918282113d6024840111176117475781840194855193841161174f573d8501016020848701011161174757506113c9929101602001906112cf565b949350505050565b50949350505050565b60809060208152603460208201527f455243313135353a207472616e7366657220746f206e6f6e2d455243313135356040820152732932b1b2b4bb32b91034b6b83632b6b2b73a32b960611b60608201520190565b604051906117ba8261129d565b60018252602036818401376117ce82611502565b5290565b90600182811c92168015611802575b60208310146117ec57565b634e487b7160e01b600052602260045260246000fd5b91607f16916117e1565b1561181357565b60405162461bcd60e51b815260206004820152601a60248201527f504f41503a204576656e74206e6f7420726567697374657265640000000000006044820152606490fd5b9060018060a01b0360049181835416906040928351956370a0823160e01b875216808587015260209160249083888381885afa978815611a5657600098611a27575b508715611a1a5760005b8881106118b957505050505050505050600090565b8651632f745c5960e01b81528489820152818482015285816044818a5afa600091816119eb575b506118f5575b506118f0906114dd565b6118a4565b828851637510cfaf60e01b8152828b820152878187818c5afa600091816119b9575b50611924575b50506118e6565b149081611947575b506119395738828161191d565b505050505050505050600190565b9050875190630b3474d760e21b825289820152858185818a5afa9081156119ae57600091611978575b50153861192c565b8681813d83116119a7575b61198d81836112cf565b8101031261045157519081151582036109eb575038611970565b503d611983565b88513d6000823e3d90fd5b919092508882813d83116119e4575b6119d281836112cf565b810103126109eb575051849138611917565b503d6119c8565b90918782813d8311611a13575b611a0281836112cf565b810103126109eb57505190386118e0565b503d6119f8565b5050505050505050600090565b90978482813d8311611a4f575b611a3e81836112cf565b810103126109eb575051963861189a565b503d611a34565b86513d6000823e3d90fdfea2646970667358221220da44e8cb0daa84b492f6683c6ccb44a9dffb5f802ec6cec94259871008727a1564736f6c63430008140033",
  "linkReferences": {},
  "deployedLinkReferences": {}
}