{
  "_format": "hh-sol-artifact-1",
  "contractName": "POAPDistributor",
  "sourceName": "contracts/POAPDistributor.sol",
  "abi": [
    {
      "inputs": [
        {
          "internalType": "address",
          "name": "ticketAddress",
          "type": "address"
        }
      ],
      "stateMutability": "nonpayable",
      "type": "constructor"
    },
    {
      "anonymous": false,
      "inputs": [
        {
          "indexed": true,
          "internalType": "address",
          "name": "account",
          "type": "address"
        },
        {
          "indexed": true,
          "internalType": "address",
          "name": "operator",
          "type": "address"
        },
        {
          "indexed": false,
          "internalType": "bool",
          "name": "approved",
          "type": "bool"
        }
      ],
      "name": "ApprovalForAll",
      "type": "event"
    },
    {
      "anonymous": false,
      "inputs": [
        {
          "indexed": true,
          "internalType": "address",
          "name": "previousOwner",
          "type": "address"
        },
        {
          "indexed": true,
          "internalType": "address",
          "name": "newOwner",
          "type": "address"
        }
      ],
      "name": "OwnershipTransferred",
      "type": "event"
    },
    {
      "anonymous": false,
      "inputs": [
        {
          "indexed": true,
          "internalType": "uint256",
          "name": "eventId",
          "type": "uint256"
        },
        {
          "indexed": true,
          "internalType": "address",
          "name": "attendee",
          "type": "address"
        }
      ],
      "name": "POAPMinted",
      "type": "event"
    },
    {
      "anonymous": false,
      "inputs": [
        {
          "indexed": true,
          "internalType": "address",
          "name": "operator",
          "type": "address"
        },
        {
          "indexed": true,
          "internalType": "address",
          "name": "from",
          "type": "address"
        },
        {
          "indexed": true,
          "internalType": "address",
          "name": "to",
          "type": "address"
        },
        {
          "indexed": false,
          "internalType": "uint256[]",
          "name": "ids",
          "type": "uint256[]"
        },
        {
          "indexed": false,
          "internalType": "uint256[]",
          "name": "values",
          "type": "uint256[]"
        }
      ],
      "name": "TransferBatch",
      "type": "event"
    },
    {
      "anonymous": false,
      "inputs": [
        {
          "indexed": true,
          "internalType": "address",
          "name": "operator",
          "type": "address"
        },
        {
          "indexed": true,
          "internalType": "address",
          "name": "from",
          "type": "address"
        },
        {
          "indexed": true,
          "internalType": "address",
          "name": "to",
          "type": "address"
        },
        {
          "indexed": false,
          "internalType": "uint256",
          "name": "id",
          "type": "uint256"
        },
        {
          "indexed": false,
          "internalType": "uint256",
          "name": "value",
          "type": "uint256"
        }
      ],
      "name": "TransferSingle",
      "type": "event"
    },
    {
      "anonymous": false,
      "inputs": [
        {
          "indexed": false,
          "internalType": "string",
          "name": "value",
          "type": "string"
        },
        {
          "indexed": true,
          "internalType": "uint256",
          "name": "id",
          "type": "uint256"
        }
      ],
      "name": "URI",
      "type": "event"
    },
    {
      "inputs": [
        {
          "internalType": "address",
          "name": "account",
          "type": "address"
        },
        {
          "internalType": "uint256",
          "name": "id",
          "type": "uint256"
        }
      ],
      "name": "balanceOf",
      "outputs": [
        {
          "internalType": "uint256",
          "name": "",
          "type": "uint256"
        }
      ],
      "stateMutability": "view",
      "type": "function"
    },
    {
      "inputs": [
        {
          "internalType": "address[]",
          "name": "accounts",
          "type": "address[]"
        },
        {
          "internalType": "uint256[]",
          "name": "ids",
          "type": "uint256[]"
        }
      ],
      "name": "balanceOfBatch",
      "outputs": [
        {
          "internalType": "uint256[]",
          "name": "",
          "type": "uint256[]"
        }
      ],
      "stateMutability": "view",
      "type": "function"
    },
    {
      "inputs": [
        {
          "internalType": "uint256",
          "name": "",
          "type": "uint256"
        },
        {
          "internalType": "address",
          "name": "",
          "type": "address"
        }
      ],
      "name": "hasClaimed",
      "outputs": [
        {
          "internalType": "bool",
          "name": "",
          "type": "bool"
        }
      ],
      "stateMutability": "view",
      "type": "function"
    },
    {
      "inputs": [
        {
          "internalType": "address",
          "name": "account",
          "type": "address"
        },
        {
          "internalType": "address",
          "name": "operator",
          "type": "address"
        }
      ],
      "name": "isApprovedForAll",
      "outputs": [
        {
          "internalType": "bool",
          "name": "",
          "type": "bool"
        }
      ],
      "stateMutability": "view",
      "type": "function"
    },
    {
      "inputs": [
        {
          "internalType": "address",
          "name": "attendee",
          "type": "address"
        },
        {
          "internalType": "uint256",
          "name": "eventId",
          "type": "uint256"
        }
      ],
      "name": "isVerifiedAttendee",
      "outputs": [
        {
          "internalType": "bool",
          "name": "",
          "type": "bool"
        }
      ],
      "stateMutability": "view",
      "type": "function"
    },
    {
      "inputs": [
        {
          "internalType": "address",
          "name": "attendee",
          "type": "address"
        },
        {
          "internalType": "uint256",
          "name": "eventId",
          "type": "uint256"
        },
        {
          "internalType": "string",
          "name": "tokenURI",
          "type": "string"
        }
      ],
      "name": "mintPOAP",
      "outputs": [],
      "stateMutability": "nonpayable",
      "type": "function"
    },
    {
      "inputs": [],
      "name": "owner",
      "outputs": [
        {
          "internalType": "address",
          "name": "",
          "type": "address"
        }
      ],
      "stateMutability": "view",
      "type": "function"
    },
    {
      "inputs": [],
      "name": "renounceOwnership",
      "outputs": [],
      "stateMutability": "nonpayable",
      "type": "function"
    },
    {
      "inputs": [
        {
          "internalType": "address",
          "name": "from",
          "type": "address"
        },
        {
          "internalType": "address",
          "name": "to",
          "type": "address"
        },
        {
          "internalType": "uint256[]",
          "name": "ids",
          "type": "uint256[]"
        },
        {
          "internalType": "uint256[]",
          "name": "amounts",
          "type": "uint256[]"
        },
        {
          "internalType": "bytes",
          "name": "data",
          "type": "bytes"
        }
      ],
      "name": "safeBatchTransferFrom",
      "outputs": [],
      "stateMutability": "nonpayable",
      "type": "function"
    },
    {
      "inputs": [
        {
          "internalType": "address",
          "name": "from",
          "type": "address"
        },
        {
          "internalType": "address",
          "name": "to",
          "type": "address"
        },
        {
          "internalType": "uint256",
          "name": "id",
          "type": "uint256"
        },
        {
          "internalType": "uint256",
          "name": "amount",
          "type": "uint256"
        },
        {
          "internalType": "bytes",
          "name": "data",
          "type": "bytes"
        }
      ],
      "name": "safeTransferFrom",
      "outputs": [],
      "stateMutability": "nonpayable",
      "type": "function"
    },
    {
      "inputs": [
        {
          "internalType": "address",
          "name": "operator",
          "type": "address"
        },
        {
          "internalType": "bool",
          "name": "approved",
          "type": "bool"
        }
      ],
      "name": "setApprovalForAll",
      "outputs": [],
      "stateMutability": "nonpayable",
      "type": "function"
    },
    {
      "inputs": [
        {
          "internalType": "bytes4",
          "name": "interfaceId",
          "type": "bytes4"
        }
      ],
      "name": "supportsInterface",
      "outputs": [
        {
          "internalType": "bool",
          "name": "",
          "type": "bool"
        }
      ],
      "stateMutability": "view",
      "type": "function"
    },
    {
      "inputs": [],
      "name": "ticketContract",
      "outputs": [
        {
          "internalType": "contract TicketNFT",
          "name": "",
          "type": "address"
        }
      ],
      "stateMutability": "view",
      "type": "function"
    },
    {
      "inputs": [
        {
          "internalType": "address",
          "name": "newOwner",
          "type": "address"
        }
      ],
      "name": "transferOwnership",
      "outputs": [],
      "stateMutability": "nonpayable",
      "type": "function"
    },
    {
      "inputs": [
        {
          "internalType": "uint256",
          "name": "eventId",
          "type": "uint256"
        }
      ],
      "name": "uri",
      "outputs": [
        {
          "internalType": "string",
          "name": "",
          "type": "string"
        }
      ],
      "stateMutability": "view",
      "type": "function"
    }
  ],
  "bytecode": "0x60806040523480156200001157600080fd5b50604051620038e6380380620038e683398181016040528101906200003791906200020e565b604051806020016040528060008152506200005881620000c160201b60201c565b50620000796200006d620000d660201b60201c565b620000de60201b60201c565b80600460006101000a81548173ffffffffffffffffffffffffffffffffffffffff021916908373ffffffffffffffffffffffffffffffffffffffff16021790555050620005a1565b8060029081620000d29190620004ba565b5050565b600033905090565b6000600360009054906101000a900473ffffffffffffffffffffffffffffffffffffffff16905081600360006101000a81548173ffffffffffffffffffffffffffffffffffffffff021916908373ffffffffffffffffffffffffffffffffffffffff1602179055508173ffffffffffffffffffffffffffffffffffffffff168173ffffffffffffffffffffffffffffffffffffffff167f8be0079c531659141344cd1fd0a4f28419497f9722a3daafe3b4186f6b6457e060405160405180910390a35050565b600080fd5b600073ffffffffffffffffffffffffffffffffffffffff82169050919050565b6000620001d682620001a9565b9050919050565b620001e881620001c9565b8114620001f457600080fd5b50565b6000815190506200020881620001dd565b92915050565b600060208284031215620002275762000226620001a4565b5b60006200023784828501620001f7565b91505092915050565b600081519050919050565b7f4e487b7100000000000000000000000000000000000000000000000000000000600052604160045260246000fd5b7f4e487b7100000000000000000000000000000000000000000000000000000000600052602260045260246000fd5b60006002820490506001821680620002c257607f821691505b602082108103620002d857620002d76200027a565b5b50919050565b60008190508160005260206000209050919050565b60006020601f8301049050919050565b600082821b905092915050565b600060088302620003427fffffffffffffffffffffffffffffffffffffffffffffffffffffffffffffffff8262000303565b6200034e868362000303565b95508019841693508086168417925050509392505050565b6000819050919050565b6000819050919050565b60006200039b620003956200038f8462000366565b62000370565b62000366565b9050919050565b6000819050919050565b620003b7836200037a565b620003cf620003c682620003a2565b84845462000310565b825550505050565b600090565b620003e6620003d7565b620003f3818484620003ac565b505050565b5b818110156200041b576200040f600082620003dc565b600181019050620003f9565b5050565b601f8211156200046a576200043481620002de565b6200043f84620002f3565b810160208510156200044f578190505b620004676200045e85620002f3565b830182620003f8565b50505b505050565b600082821c905092915050565b60006200048f600019846008026200046f565b1980831691505092915050565b6000620004aa83836200047c565b9150826002028217905092915050565b620004c58262000240565b67ffffffffffffffff811115620004e157620004e06200024b565b5b620004ed8254620002a9565b620004fa8282856200041f565b600060209050601f8311600181146200053257600084156200051d578287015190505b6200052985826200049c565b86555062000599565b601f1984166200054286620002de565b60005b828110156200056c5784890151825560018201915060208501945060208101905062000545565b868310156200058c578489015162000588601f8916826200047c565b8355505b6001600288020188555050505b505050505050565b61333580620005b16000396000f3fe608060405234801561001057600080fd5b50600436106100f45760003560e01c8063715018a611610097578063e985e9c511610066578063e985e9c514610283578063ef049341146102b3578063f242432a146102e3578063f2fde38b146102ff576100f4565b8063715018a61461020f578063873f6f9e146102195780638da5cb5b14610249578063a22cb46514610267576100f4565b80632d4a55e0116100d35780632d4a55e0146101895780632eb2c2d6146101a55780634e1273f4146101c157806358a86e1d146101f1576100f4565b8062fdd58e146100f957806301ffc9a7146101295780630e89341c14610159575b600080fd5b610113600480360381019061010e9190611b00565b61031b565b6040516101209190611b4f565b60405180910390f35b610143600480360381019061013e9190611bc2565b6103e3565b6040516101509190611c0a565b60405180910390f35b610173600480360381019061016e9190611c25565b6104c5565b6040516101809190611ce2565b60405180910390f35b6101a3600480360381019061019e9190611e39565b61056a565b005b6101bf60048036038101906101ba9190612011565b610748565b005b6101db60048036038101906101d691906121a3565b6107e9565b6040516101e891906122d9565b60405180910390f35b6101f9610902565b604051610206919061235a565b60405180910390f35b610217610928565b005b610233600480360381019061022e9190612375565b61093c565b6040516102409190611c0a565b60405180910390f35b61025161096b565b60405161025e91906123c4565b60405180910390f35b610281600480360381019061027c919061240b565b610995565b005b61029d6004803603810190610298919061244b565b6109ab565b6040516102aa9190611c0a565b60405180910390f35b6102cd60048036038101906102c89190611b00565b610a3f565b6040516102da9190611c0a565b60405180910390f35b6102fd60048036038101906102f8919061248b565b610a4b565b005b61031960048036038101906103149190612522565b610aec565b005b60008073ffffffffffffffffffffffffffffffffffffffff168373ffffffffffffffffffffffffffffffffffffffff160361038b576040517f08c379a0000000000000000000000000000000000000000000000000000000008152600401610382906125c1565b60405180910390fd5b60008083815260200190815260200160002060008473ffffffffffffffffffffffffffffffffffffffff1673ffffffffffffffffffffffffffffffffffffffff16815260200190815260200160002054905092915050565b60007fd9b67a26000000000000000000000000000000000000000000000000000000007bffffffffffffffffffffffffffffffffffffffffffffffffffffffff1916827bffffffffffffffffffffffffffffffffffffffffffffffffffffffff191614806104ae57507f0e89341c000000000000000000000000000000000000000000000000000000007bffffffffffffffffffffffffffffffffffffffffffffffffffffffff1916827bffffffffffffffffffffffffffffffffffffffffffffffffffffffff1916145b806104be57506104bd82610b6f565b5b9050919050565b60606006600083815260200190815260200160002080546104e590612610565b80601f016020809104026020016040519081016040528092919081815260200182805461051190612610565b801561055e5780601f106105335761010080835404028352916020019161055e565b820191906000526020600020905b81548152906001019060200180831161054157829003601f168201915b50505050509050919050565b610572610bd9565b6005600083815260200190815260200160002060008473ffffffffffffffffffffffffffffffffffffffff1673ffffffffffffffffffffffffffffffffffffffff16815260200190815260200160002060009054906101000a900460ff1615610610576040517f08c379a00000000000000000000000000000000000000000000000000000000081526004016106079061268d565b60405180910390fd5b61061a8383610a3f565b610659576040517f08c379a0000000000000000000000000000000000000000000000000000000008152600401610650906126f9565b60405180910390fd5b6106758383600160405180602001604052806000815250610c57565b8060066000848152602001908152602001600020908161069591906128bb565b5060016005600084815260200190815260200160002060008573ffffffffffffffffffffffffffffffffffffffff1673ffffffffffffffffffffffffffffffffffffffff16815260200190815260200160002060006101000a81548160ff0219169083151502179055508273ffffffffffffffffffffffffffffffffffffffff16827f5ddca7d5809a6830dda8f5547a130099be44f5e1f6ab4773cbe795c10c0f605e60405160405180910390a3505050565b610750610e07565b73ffffffffffffffffffffffffffffffffffffffff168573ffffffffffffffffffffffffffffffffffffffff161480610796575061079585610790610e07565b6109ab565b5b6107d5576040517f08c379a00000000000000000000000000000000000000000000000000000000081526004016107cc906129ff565b60405180910390fd5b6107e28585858585610e0f565b5050505050565b6060815183511461082f576040517f08c379a000000000000000000000000000000000000000000000000000000000815260040161082690612a91565b60405180910390fd5b6000835167ffffffffffffffff81111561084c5761084b611d0e565b5b60405190808252806020026020018201604052801561087a5781602001602082028036833780820191505090505b50905060005b84518110156108f7576108c785828151811061089f5761089e612ab1565b5b60200260200101518583815181106108ba576108b9612ab1565b5b602002602001015161031b565b8282815181106108da576108d9612ab1565b5b602002602001018181525050806108f090612b0f565b9050610880565b508091505092915050565b600460009054906101000a900473ffffffffffffffffffffffffffffffffffffffff1681565b610930610bd9565b61093a6000611130565b565b60056020528160005260406000206020528060005260406000206000915091509054906101000a900460ff1681565b6000600360009054906101000a900473ffffffffffffffffffffffffffffffffffffffff16905090565b6109a76109a0610e07565b83836111f6565b5050565b6000600160008473ffffffffffffffffffffffffffffffffffffffff1673ffffffffffffffffffffffffffffffffffffffff16815260200190815260200160002060008373ffffffffffffffffffffffffffffffffffffffff1673ffffffffffffffffffffffffffffffffffffffff16815260200190815260200160002060009054906101000a900460ff16905092915050565b60006001905092915050565b610a53610e07565b73ffffffffffffffffffffffffffffffffffffffff168573ffffffffffffffffffffffffffffffffffffffff161480610a995750610a9885610a93610e07565b6109ab565b5b610ad8576040517f08c379a0000000000000000000000000000000000000000000000000000000008152600401610acf906129ff565b60405180910390fd5b610ae58585858585611362565b5050505050565b610af4610bd9565b600073ffffffffffffffffffffffffffffffffffffffff168173ffffffffffffffffffffffffffffffffffffffff1603610b63576040517f08c379a0000000000000000000000000000000000000000000000000000000008152600401610b5a90612bc9565b60405180910390fd5b610b6c81611130565b50565b60007f01ffc9a7000000000000000000000000000000000000000000000000000000007bffffffffffffffffffffffffffffffffffffffffffffffffffffffff1916827bffffffffffffffffffffffffffffffffffffffffffffffffffffffff1916149050919050565b610be1610e07565b73ffffffffffffffffffffffffffffffffffffffff16610bff61096b565b73ffffffffffffffffffffffffffffffffffffffff1614610c55576040517f08c379a0000000000000000000000000000000000000000000000000000000008152600401610c4c90612c35565b60405180910390fd5b565b600073ffffffffffffffffffffffffffffffffffffffff168473ffffffffffffffffffffffffffffffffffffffff1603610cc6576040517f08c379a0000000000000000000000000000000000000000000000000000000008152600401610cbd90612cc7565b60405180910390fd5b6000610cd0610e07565b90506000610cdd856115fd565b90506000610cea856115fd565b9050610cfb83600089858589611677565b8460008088815260200190815260200160002060008973ffffffffffffffffffffffffffffffffffffffff1673ffffffffffffffffffffffffffffffffffffffff1681526020019081526020016000206000828254610d5a9190612ce7565b925050819055508673ffffffffffffffffffffffffffffffffffffffff16600073ffffffffffffffffffffffffffffffffffffffff168473ffffffffffffffffffffffffffffffffffffffff167fc3d58168c5ae7397731d063d5bbf3d657854427343f4c083240f7aacaa2d0f628989604051610dd8929190612d1b565b60405180910390a4610def8360008985858961167f565b610dfe83600089898989611687565b50505050505050565b600033905090565b8151835114610e53576040517f08c379a0000000000000000000000000000000000000000000000000000000008152600401610e4a90612db6565b60405180910390fd5b600073ffffffffffffffffffffffffffffffffffffffff168473ffffffffffffffffffffffffffffffffffffffff1603610ec2576040517f08c379a0000000000000000000000000000000000000000000000000000000008152600401610eb990612e48565b60405180910390fd5b6000610ecc610e07565b9050610edc818787878787611677565b60005b845181101561108d576000858281518110610efd57610efc612ab1565b5b602002602001015190506000858381518110610f1c57610f1b612ab1565b5b60200260200101519050600080600084815260200190815260200160002060008b73ffffffffffffffffffffffffffffffffffffffff1673ffffffffffffffffffffffffffffffffffffffff16815260200190815260200160002054905081811015610fbd576040517f08c379a0000000000000000000000000000000000000000000000000000000008152600401610fb490612eda565b60405180910390fd5b81810360008085815260200190815260200160002060008c73ffffffffffffffffffffffffffffffffffffffff1673ffffffffffffffffffffffffffffffffffffffff168152602001908152602001600020819055508160008085815260200190815260200160002060008b73ffffffffffffffffffffffffffffffffffffffff1673ffffffffffffffffffffffffffffffffffffffff16815260200190815260200160002060008282546110729190612ce7565b925050819055505050508061108690612b0f565b9050610edf565b508473ffffffffffffffffffffffffffffffffffffffff168673ffffffffffffffffffffffffffffffffffffffff168273ffffffffffffffffffffffffffffffffffffffff167f4a39dc06d4c0dbc64b70af90fd698a233a518aa5d07e595d983b8c0526c8f7fb8787604051611104929190612efa565b60405180910390a461111a81878787878761167f565b61112881878787878761185e565b505050505050565b6000600360009054906101000a900473ffffffffffffffffffffffffffffffffffffffff16905081600360006101000a81548173ffffffffffffffffffffffffffffffffffffffff021916908373ffffffffffffffffffffffffffffffffffffffff1602179055508173ffffffffffffffffffffffffffffffffffffffff168173ffffffffffffffffffffffffffffffffffffffff167f8be0079c531659141344cd1fd0a4f28419497f9722a3daafe3b4186f6b6457e060405160405180910390a35050565b8173ffffffffffffffffffffffffffffffffffffffff168373ffffffffffffffffffffffffffffffffffffffff1603611264576040517f08c379a000000000000000000000000000000000000000000000000000000000815260040161125b90612fa3565b60405180910390fd5b80600160008573ffffffffffffffffffffffffffffffffffffffff1673ffffffffffffffffffffffffffffffffffffffff16815260200190815260200160002060008473ffffffffffffffffffffffffffffffffffffffff1673ffffffffffffffffffffffffffffffffffffffff16815260200190815260200160002060006101000a81548160ff0219169083151502179055508173ffffffffffffffffffffffffffffffffffffffff168373ffffffffffffffffffffffffffffffffffffffff167f17307eab39ab6107e8899845ad3d59bd9653f200f220920489ca2b5937696c31836040516113559190611c0a565b60405180910390a3505050565b600073ffffffffffffffffffffffffffffffffffffffff168473ffffffffffffffffffffffffffffffffffffffff16036113d1576040517f08c379a00000000000000000000000000000000000000000000000000000000081526004016113c890612e48565b60405180910390fd5b60006113db610e07565b905060006113e8856115fd565b905060006113f5856115fd565b9050611405838989858589611677565b600080600088815260200190815260200160002060008a73ffffffffffffffffffffffffffffffffffffffff1673ffffffffffffffffffffffffffffffffffffffff1681526020019081526020016000205490508581101561149c576040517f08c379a000000000000000000000000000000000000000000000000000000000815260040161149390612eda565b60405180910390fd5b85810360008089815260200190815260200160002060008b73ffffffffffffffffffffffffffffffffffffffff1673ffffffffffffffffffffffffffffffffffffffff168152602001908152602001600020819055508560008089815260200190815260200160002060008a73ffffffffffffffffffffffffffffffffffffffff1673ffffffffffffffffffffffffffffffffffffffff16815260200190815260200160002060008282546115519190612ce7565b925050819055508773ffffffffffffffffffffffffffffffffffffffff168973ffffffffffffffffffffffffffffffffffffffff168573ffffffffffffffffffffffffffffffffffffffff167fc3d58168c5ae7397731d063d5bbf3d657854427343f4c083240f7aacaa2d0f628a8a6040516115ce929190612d1b565b60405180910390a46115e4848a8a86868a61167f565b6115f2848a8a8a8a8a611687565b505050505050505050565b60606000600167ffffffffffffffff81111561161c5761161b611d0e565b5b60405190808252806020026020018201604052801561164a5781602001602082028036833780820191505090505b509050828160008151811061166257611661612ab1565b5b60200260200101818152505080915050919050565b505050505050565b505050505050565b6116a68473ffffffffffffffffffffffffffffffffffffffff16611a35565b15611856578373ffffffffffffffffffffffffffffffffffffffff1663f23a6e6187878686866040518663ffffffff1660e01b81526004016116ec959493929190613018565b6020604051808303816000875af192505050801561172857506040513d601f19601f820116820180604052508101906117259190613087565b60015b6117cd576117346130c1565b806308c379a00361179057506117486130e3565b806117535750611792565b806040517f08c379a00000000000000000000000000000000000000000000000000000000081526004016117879190611ce2565b60405180910390fd5b505b6040517f08c379a00000000000000000000000000000000000000000000000000000000081526004016117c4906131e5565b60405180910390fd5b63f23a6e6160e01b7bffffffffffffffffffffffffffffffffffffffffffffffffffffffff1916817bffffffffffffffffffffffffffffffffffffffffffffffffffffffff191614611854576040517f08c379a000000000000000000000000000000000000000000000000000000000815260040161184b90613277565b60405180910390fd5b505b505050505050565b61187d8473ffffffffffffffffffffffffffffffffffffffff16611a35565b15611a2d578373ffffffffffffffffffffffffffffffffffffffff1663bc197c8187878686866040518663ffffffff1660e01b81526004016118c3959493929190613297565b6020604051808303816000875af19250505080156118ff57506040513d601f19601f820116820180604052508101906118fc9190613087565b60015b6119a45761190b6130c1565b806308c379a003611967575061191f6130e3565b8061192a5750611969565b806040517f08c379a000000000000000000000000000000000000000000000000000000000815260040161195e9190611ce2565b60405180910390fd5b505b6040517f08c379a000000000000000000000000000000000000000000000000000000000815260040161199b906131e5565b60405180910390fd5b63bc197c8160e01b7bffffffffffffffffffffffffffffffffffffffffffffffffffffffff1916817bffffffffffffffffffffffffffffffffffffffffffffffffffffffff191614611a2b576040517f08c379a0000000000000000000000000000000000000000000000000000000008152600401611a2290613277565b60405180910390fd5b505b505050505050565b6000808273ffffffffffffffffffffffffffffffffffffffff163b119050919050565b6000604051905090565b600080fd5b600080fd5b600073ffffffffffffffffffffffffffffffffffffffff82169050919050565b6000611a9782611a6c565b9050919050565b611aa781611a8c565b8114611ab257600080fd5b50565b600081359050611ac481611a9e565b92915050565b6000819050919050565b611add81611aca565b8114611ae857600080fd5b50565b600081359050611afa81611ad4565b92915050565b60008060408385031215611b1757611b16611a62565b5b6000611b2585828601611ab5565b9250506020611b3685828601611aeb565b9150509250929050565b611b4981611aca565b82525050565b6000602082019050611b646000830184611b40565b92915050565b60007fffffffff0000000000000000000000000000000000000000000000000000000082169050919050565b611b9f81611b6a565b8114611baa57600080fd5b50565b600081359050611bbc81611b96565b92915050565b600060208284031215611bd857611bd7611a62565b5b6000611be684828501611bad565b91505092915050565b60008115159050919050565b611c0481611bef565b82525050565b6000602082019050611c1f6000830184611bfb565b92915050565b600060208284031215611c3b57611c3a611a62565b5b6000611c4984828501611aeb565b91505092915050565b600081519050919050565b600082825260208201905092915050565b60005b83811015611c8c578082015181840152602081019050611c71565b60008484015250505050565b6000601f19601f8301169050919050565b6000611cb482611c52565b611cbe8185611c5d565b9350611cce818560208601611c6e565b611cd781611c98565b840191505092915050565b60006020820190508181036000830152611cfc8184611ca9565b905092915050565b600080fd5b600080fd5b7f4e487b7100000000000000000000000000000000000000000000000000000000600052604160045260246000fd5b611d4682611c98565b810181811067ffffffffffffffff82111715611d6557611d64611d0e565b5b80604052505050565b6000611d78611a58565b9050611d848282611d3d565b919050565b600067ffffffffffffffff821115611da457611da3611d0e565b5b611dad82611c98565b9050602081019050919050565b82818337600083830152505050565b6000611ddc611dd784611d89565b611d6e565b905082815260208101848484011115611df857611df7611d09565b5b611e03848285611dba565b509392505050565b600082601f830112611e2057611e1f611d04565b5b8135611e30848260208601611dc9565b91505092915050565b600080600060608486031215611e5257611e51611a62565b5b6000611e6086828701611ab5565b9350506020611e7186828701611aeb565b925050604084013567ffffffffffffffff811115611e9257611e91611a67565b5b611e9e86828701611e0b565b9150509250925092565b600067ffffffffffffffff821115611ec357611ec2611d0e565b5b602082029050602081019050919050565b600080fd5b6000611eec611ee784611ea8565b611d6e565b90508083825260208201905060208402830185811115611f0f57611f0e611ed4565b5b835b81811015611f385780611f248882611aeb565b845260208401935050602081019050611f11565b5050509392505050565b600082601f830112611f5757611f56611d04565b5b8135611f67848260208601611ed9565b91505092915050565b600067ffffffffffffffff821115611f8b57611f8a611d0e565b5b611f9482611c98565b9050602081019050919050565b6000611fb4611faf84611f70565b611d6e565b905082815260208101848484011115611fd057611fcf611d09565b5b611fdb848285611dba565b509392505050565b600082601f830112611ff857611ff7611d04565b5b8135612008848260208601611fa1565b91505092915050565b600080600080600060a0868803121561202d5761202c611a62565b5b600061203b88828901611ab5565b955050602061204c88828901611ab5565b945050604086013567ffffffffffffffff81111561206d5761206c611a67565b5b61207988828901611f42565b935050606086013567ffffffffffffffff81111561209a57612099611a67565b5b6120a688828901611f42565b925050608086013567ffffffffffffffff8111156120c7576120c6611a67565b5b6120d388828901611fe3565b9150509295509295909350565b600067ffffffffffffffff8211156120fb576120fa611d0e565b5b602082029050602081019050919050565b600061211f61211a846120e0565b611d6e565b9050808382526020820190506020840283018581111561214257612141611ed4565b5b835b8181101561216b57806121578882611ab5565b845260208401935050602081019050612144565b5050509392505050565b600082601f83011261218a57612189611d04565b5b813561219a84826020860161210c565b91505092915050565b600080604083850312156121ba576121b9611a62565b5b600083013567ffffffffffffffff8111156121d8576121d7611a67565b5b6121e485828601612175565b925050602083013567ffffffffffffffff81111561220557612204611a67565b5b61221185828601611f42565b9150509250929050565b600081519050919050565b600082825260208201905092915050565b6000819050602082019050919050565b61225081611aca565b82525050565b60006122628383612247565b60208301905092915050565b6000602082019050919050565b60006122868261221b565b6122908185612226565b935061229b83612237565b8060005b838110156122cc5781516122b38882612256565b97506122be8361226e565b92505060018101905061229f565b5085935050505092915050565b600060208201905081810360008301526122f3818461227b565b905092915050565b6000819050919050565b600061232061231b61231684611a6c565b6122fb565b611a6c565b9050919050565b600061233282612305565b9050919050565b600061234482612327565b9050919050565b61235481612339565b82525050565b600060208201905061236f600083018461234b565b92915050565b6000806040838503121561238c5761238b611a62565b5b600061239a85828601611aeb565b92505060206123ab85828601611ab5565b9150509250929050565b6123be81611a8c565b82525050565b60006020820190506123d960008301846123b5565b92915050565b6123e881611bef565b81146123f357600080fd5b50565b600081359050612405816123df565b92915050565b6000806040838503121561242257612421611a62565b5b600061243085828601611ab5565b9250506020612441858286016123f6565b9150509250929050565b6000806040838503121561246257612461611a62565b5b600061247085828601611ab5565b925050602061248185828601611ab5565b9150509250929050565b600080600080600060a086880312156124a7576124a6611a62565b5b60006124b588828901611ab5565b95505060206124c688828901611ab5565b94505060406124d788828901611aeb565b93505060606124e888828901611aeb565b925050608086013567ffffffffffffffff81111561250957612508611a67565b5b61251588828901611fe3565b9150509295509295909350565b60006020828403121561253857612537611a62565b5b600061254684828501611ab5565b91505092915050565b7f455243313135353a2061646472657373207a65726f206973206e6f742061207660008201527f616c6964206f776e657200000000000000000000000000000000000000000000602082015250565b60006125ab602a83611c5d565b91506125b68261254f565b604082019050919050565b600060208201905081810360008301526125da8161259e565b9050919050565b7f4e487b7100000000000000000000000000000000000000000000000000000000600052602260045260246000fd5b6000600282049050600182168061262857607f821691505b60208210810361263b5761263a6125e1565b5b50919050565b7f504f415020616c726561647920636c61696d6564000000000000000000000000600082015250565b6000612677601483611c5d565b915061268282612641565b602082019050919050565b600060208201905081810360008301526126a68161266a565b9050919050565b7f4e6f74206120766572696669656420617474656e646565000000000000000000600082015250565b60006126e3601783611c5d565b91506126ee826126ad565b602082019050919050565b60006020820190508181036000830152612712816126d6565b9050919050565b60008190508160005260206000209050919050565b60006020601f8301049050919050565b600082821b905092915050565b60006008830261277b7fffffffffffffffffffffffffffffffffffffffffffffffffffffffffffffffff8261273e565b612785868361273e565b95508019841693508086168417925050509392505050565b60006127b86127b36127ae84611aca565b6122fb565b611aca565b9050919050565b6000819050919050565b6127d28361279d565b6127e66127de826127bf565b84845461274b565b825550505050565b600090565b6127fb6127ee565b6128068184846127c9565b505050565b5b8181101561282a5761281f6000826127f3565b60018101905061280c565b5050565b601f82111561286f5761284081612719565b6128498461272e565b81016020851015612858578190505b61286c6128648561272e565b83018261280b565b50505b505050565b600082821c905092915050565b600061289260001984600802612874565b1980831691505092915050565b60006128ab8383612881565b9150826002028217905092915050565b6128c482611c52565b67ffffffffffffffff8111156128dd576128dc611d0e565b5b6128e78254612610565b6128f282828561282e565b600060209050601f8311600181146129255760008415612913578287015190505b61291d858261289f565b865550612985565b601f19841661293386612719565b60005b8281101561295b57848901518255600182019150602085019450602081019050612936565b868310156129785784890151612974601f891682612881565b8355505b6001600288020188555050505b505050505050565b7f455243313135353a2063616c6c6572206973206e6f7420746f6b656e206f776e60008201527f6572206f7220617070726f766564000000000000000000000000000000000000602082015250565b60006129e9602e83611c5d565b91506129f48261298d565b604082019050919050565b60006020820190508181036000830152612a18816129dc565b9050919050565b7f455243313135353a206163636f756e747320616e6420696473206c656e67746860008201527f206d69736d617463680000000000000000000000000000000000000000000000602082015250565b6000612a7b602983611c5d565b9150612a8682612a1f565b604082019050919050565b60006020820190508181036000830152612aaa81612a6e565b9050919050565b7f4e487b7100000000000000000000000000000000000000000000000000000000600052603260045260246000fd5b7f4e487b7100000000000000000000000000000000000000000000000000000000600052601160045260246000fd5b6000612b1a82611aca565b91507fffffffffffffffffffffffffffffffffffffffffffffffffffffffffffffffff8203612b4c57612b4b612ae0565b5b600182019050919050565b7f4f776e61626c653a206e6577206f776e657220697320746865207a65726f206160008201527f6464726573730000000000000000000000000000000000000000000000000000602082015250565b6000612bb3602683611c5d565b9150612bbe82612b57565b604082019050919050565b60006020820190508181036000830152612be281612ba6565b9050919050565b7f4f776e61626c653a2063616c6c6572206973206e6f7420746865206f776e6572600082015250565b6000612c1f602083611c5d565b9150612c2a82612be9565b602082019050919050565b60006020820190508181036000830152612c4e81612c12565b9050919050565b7f455243313135353a206d696e7420746f20746865207a65726f2061646472657360008201527f7300000000000000000000000000000000000000000000000000000000000000602082015250565b6000612cb1602183611c5d565b9150612cbc82612c55565b604082019050919050565b60006020820190508181036000830152612ce081612ca4565b9050919050565b6000612cf282611aca565b9150612cfd83611aca565b9250828201905080821115612d1557612d14612ae0565b5b92915050565b6000604082019050612d306000830185611b40565b612d3d6020830184611b40565b9392505050565b7f455243313135353a2069647320616e6420616d6f756e7473206c656e6774682060008201527f6d69736d61746368000000000000000000000000000000000000000000000000602082015250565b6000612da0602883611c5d565b9150612dab82612d44565b604082019050919050565b60006020820190508181036000830152612dcf81612d93565b9050919050565b7f455243313135353a207472616e7366657220746f20746865207a65726f20616460008201527f6472657373000000000000000000000000000000000000000000000000000000602082015250565b6000612e32602583611c5d565b9150612e3d82612dd6565b604082019050919050565b60006020820190508181036000830152612e6181612e25565b9050919050565b7f455243313135353a20696e73756666696369656e742062616c616e636520666f60008201527f72207472616e7366657200000000000000000000000000000000000000000000602082015250565b6000612ec4602a83611c5d565b9150612ecf82612e68565b604082019050919050565b60006020820190508181036000830152612ef381612eb7565b9050919050565b60006040820190508181036000830152612f14818561227b565b90508181036020830152612f28818461227b565b90509392505050565b7f455243313135353a2073657474696e6720617070726f76616c2073746174757360008201527f20666f722073656c660000000000000000000000000000000000000000000000602082015250565b6000612f8d602983611c5d565b9150612f9882612f31565b604082019050919050565b60006020820190508181036000830152612fbc81612f80565b9050919050565b600081519050919050565b600082825260208201905092915050565b6000612fea82612fc3565b612ff48185612fce565b9350613004818560208601611c6e565b61300d81611c98565b840191505092915050565b600060a08201905061302d60008301886123b5565b61303a60208301876123b5565b6130476040830186611b40565b6130546060830185611b40565b81810360808301526130668184612fdf565b90509695505050505050565b60008151905061308181611b96565b92915050565b60006020828403121561309d5761309c611a62565b5b60006130ab84828501613072565b91505092915050565b60008160e01c9050919050565b600060033d11156130e05760046000803e6130dd6000516130b4565b90505b90565b600060443d10613170576130f5611a58565b60043d036004823e80513d602482011167ffffffffffffffff8211171561311d575050613170565b808201805167ffffffffffffffff81111561313b5750505050613170565b80602083010160043d038501811115613158575050505050613170565b61316782602001850186611d3d565b82955050505050505b90565b7f455243313135353a207472616e7366657220746f206e6f6e2d4552433131353560008201527f526563656976657220696d706c656d656e746572000000000000000000000000602082015250565b60006131cf603483611c5d565b91506131da82613173565b604082019050919050565b600060208201905081810360008301526131fe816131c2565b9050919050565b7f455243313135353a204552433131353552656365697665722072656a6563746560008201527f6420746f6b656e73000000000000000000000000000000000000000000000000602082015250565b6000613261602883611c5d565b915061326c82613205565b604082019050919050565b6000602082019050818103600083015261329081613254565b9050919050565b600060a0820190506132ac60008301886123b5565b6132b960208301876123b5565b81810360408301526132cb818661227b565b905081810360608301526132df818561227b565b905081810360808301526132f38184612fdf565b9050969550505050505056fea2646970667358221220049b8a93fe4816dc1c078f673ef93792adbd335f3584558e5912e46ae692084464736f6c63430008140033",
  "linkReferences": {},
  "deployedLinkReferences": {}
}