{
  "_format": "hh-sol-artifact-1",
  "contractName": "POAPDistributor",
  "sourceName": "contracts/POAPDistributor.sol",
  "abi": [
    {
      "inputs": [
        {
          "internalType": "address",
          "name": "ticketAddress",
          "type": "address"
        }
      ],
      "stateMutability": "nonpayable",
      "type": "constructor"
    },
    {
      "anonymous": false,
      "inputs": [
        {
          "indexed": true,
          "internalType": "address",
          "name": "account",
          "type": "address"
        },
        {
          "indexed": true,
          "internalType": "address",
          "name": "operator",
          "type": "address"
        },
        {
          "indexed": false,
          "internalType": "bool",
          "name": "approved",
          "type": "bool"
        }
      ],
      "name": "ApprovalForAll",
      "type": "event"
    },
    {
      "anonymous": false,
      "inputs": [
        {
          "indexed": true,
          "internalType": "address",
          "name": "previousOwner",
          "type": "address"
        },
        {
          "indexed": true,
          "internalType": "address",
          "name": "newOwner",
          "type": "address"
        }
      ],
      "name": "OwnershipTransferred",
      "type": "event"
    },
    {
      "anonymous": false,
      "inputs": [
        {
          "indexed": true,
          "internalType": "uint256",
          "name": "eventId",
          "type": "uint256"
        },
        {
          "indexed": true,
          "internalType": "address",
          "name": "attendee",
          "type": "address"
        }
      ],
      "name": "POAPMinted",
      "type": "event"
    },
    {
      "anonymous": false,
      "inputs": [
        {
          "indexed": true,
          "internalType": "address",
          "name": "operator",
          "type": "address"
        },
        {
          "indexed": true,
          "internalType": "address",
          "name": "from",
          "type": "address"
        },
        {
          "indexed": true,
          "internalType": "address",
          "name": "to",
          "type": "address"
        },
        {
          "indexed": false,
          "internalType": "uint256[]",
          "name": "ids",
          "type": "uint256[]"
        },
        {
          "indexed": false,
          "internalType": "uint256[]",
          "name": "values",
          "type": "uint256[]"
        }
      ],
      "name": "TransferBatch",
      "type": "event"
    },
    {
      "anonymous": false,
      "inputs": [
        {
          "indexed": true,
          "internalType": "address",
          "name": "operator",
          "type": "address"
        },
        {
          "indexed": true,
          "internalType": "address",
          "name": "from",
          "type": "address"
        },
        {
          "indexed": true,
          "internalType": "address",
          "name": "to",
          "type": "address"
        },
        {
          "indexed": false,
          "internalType": "uint256",
          "name": "id",
          "type": "uint256"
        },
        {
          "indexed": false,
          "internalType": "uint256",
          "name": "value",
          "type": "uint256"
        }
      ],
      "name": "TransferSingle",
      "type": "event"
    },
    {
      "anonymous": false,
      "inputs": [
        {
          "indexed": false,
          "internalType": "string",
          "name": "value",
          "type": "string"
        },
        {
          "indexed": true,
          "internalType": "uint256",
          "name": "id",
          "type": "uint256"
        }
      ],
      "name": "URI",
      "type": "event"
    },
    {
      "inputs": [
        {
          "internalType": "address",
          "name": "account",
          "type": "address"
        },
        {
          "internalType": "uint256",
          "name": "id",
          "type": "uint256"
        }
      ],
      "name": "balanceOf",
      "outputs": [
        {
          "internalType": "uint256",
          "name": "",
          "type": "uint256"
        }
      ],
      "stateMutability": "view",
      "type": "function"
    },
    {
      "inputs": [
        {
          "internalType": "address[]",
          "name": "accounts",
          "type": "address[]"
        },
        {
          "internalType": "uint256[]",
          "name": "ids",
          "type": "uint256[]"
        }
      ],
      "name": "balanceOfBatch",
      "outputs": [
        {
          "internalType": "uint256[]",
          "name": "",
          "type": "uint256[]"
        }
      ],
      "stateMutability": "view",
      "type": "function"
    },
    {
      "inputs": [
        {
          "internalType": "uint256",
          "name": "eventId",
          "type": "uint256"
        }
      ],
      "name": "claimPOAP",
      "outputs": [],
      "stateMutability": "nonpayable",
      "type": "function"
    },
    {
      "inputs": [
        {
          "internalType": "uint256",
          "name": "eventId",
          "type": "uint256"
        },
        {
          "internalType": "address",
          "name": "attendee",
          "type": "address"
        }
      ],
      "name": "hasClaimed",
      "outputs": [
        {
          "internalType": "bool",
          "name": "",
          "type": "bool"
        }
      ],
      "stateMutability": "view",
      "type": "function"
    },
    {
      "inputs": [
        {
          "internalType": "address",
          "name": "account",
          "type": "address"
        },
        {
          "internalType": "address",
          "name": "operator",
          "type": "address"
        }
      ],
      "name": "isApprovedForAll",
      "outputs": [
        {
          "internalType": "bool",
          "name": "",
          "type": "bool"
        }
      ],
      "stateMutability": "view",
      "type": "function"
    },
    {
      "inputs": [
        {
          "internalType": "address",
          "name": "attendee",
          "type": "address"
        },
        {
          "internalType": "uint256",
          "name": "eventId",
          "type": "uint256"
        }
      ],
      "name": "isVerifiedAttendee",
      "outputs": [
        {
          "internalType": "bool",
          "name": "",
          "type": "bool"
        }
      ],
      "stateMutability": "view",
      "type": "function"
    },
    {
      "inputs": [],
      "name": "owner",
      "outputs": [
        {
          "internalType": "address",
          "name": "",
          "type": "address"
        }
      ],
      "stateMutability": "view",
      "type": "function"
    },
    {
      "inputs": [],
      "name": "renounceOwnership",
      "outputs": [],
      "stateMutability": "nonpayable",
      "type": "function"
    },
    {
      "inputs": [
        {
          "internalType": "address",
          "name": "from",
          "type": "address"
        },
        {
          "internalType": "address",
          "name": "to",
          "type": "address"
        },
        {
          "internalType": "uint256[]",
          "name": "ids",
          "type": "uint256[]"
        },
        {
          "internalType": "uint256[]",
          "name": "amounts",
          "type": "uint256[]"
        },
        {
          "internalType": "bytes",
          "name": "data",
          "type": "bytes"
        }
      ],
      "name": "safeBatchTransferFrom",
      "outputs": [],
      "stateMutability": "nonpayable",
      "type": "function"
    },
    {
      "inputs": [
        {
          "internalType": "address",
          "name": "from",
          "type": "address"
        },
        {
          "internalType": "address",
          "name": "to",
          "type": "address"
        },
        {
          "internalType": "uint256",
          "name": "id",
          "type": "uint256"
        },
        {
          "internalType": "uint256",
          "name": "amount",
          "type": "uint256"
        },
        {
          "internalType": "bytes",
          "name": "data",
          "type": "bytes"
        }
      ],
      "name": "safeTransferFrom",
      "outputs": [],
      "stateMutability": "nonpayable",
      "type": "function"
    },
    {
      "inputs": [
        {
          "internalType": "address",
          "name": "operator",
          "type": "address"
        },
        {
          "internalType": "bool",
          "name": "approved",
          "type": "bool"
        }
      ],
      "name": "setApprovalForAll",
      "outputs": [],
      "stateMutability": "nonpayable",
      "type": "function"
    },
    {
      "inputs": [
        {
          "internalType": "uint256",
          "name": "eventId",
          "type": "uint256"
        },
        {
          "internalType": "string",
          "name": "tokenURI",
          "type": "string"
        }
      ],
      "name": "setEventURI",
      "outputs": [],
      "stateMutability": "nonpayable",
      "type": "function"
    },
    {
      "inputs": [
        {
          "internalType": "bytes4",
          "name": "interfaceId",
          "type": "bytes4"
        }
      ],
      "name": "supportsInterface",
      "outputs": [
        {
          "internalType": "bool",
          "name": "",
          "type": "bool"
        }
      ],
      "stateMutability": "view",
      "type": "function"
    },
    {
      "inputs": [],
      "name": "ticketContract",
      "outputs": [
        {
          "internalType": "contract TicketNFT",
          "name": "",
          "type": "address"
        }
      ],
      "stateMutability": "view",
      "type": "function"
    },
    {
      "inputs": [
        {
          "internalType": "address",
          "name": "newOwner",
          "type": "address"
        }
      ],
      "name": "transferOwnership",
      "outputs": [],
      "stateMutability": "nonpayable",
      "type": "function"
    },
    {
      "inputs": [
        {
          "internalType": "uint256",
          "name": "eventId",
          "type": "uint256"
        }
      ],
      "name": "uri",
      "outputs": [
        {
          "internalType": "string",
          "name": "",
          "type": "string"
        }
      ],
      "stateMutability": "view",
      "type": "function"
    }
  ],
  "bytecode": "0x60803462000177576001600160401b0390601f62001aaf38819003918201601f19168301918483118484101762000161578084926020946040528339810103126200017757516001600160a01b0391828216918290036200017757604051906020820190811182821017620001615760405260008091526002546001908181811c9116801562000156575b60208210146200014257601f8111620000f8575b50508060025560035460018060a01b03199133838316176003557f8be0079c531659141344cd1fd0a4f28419497f9722a3daafe3b4186f6b6457e0604051953393169180a3600454161760045561193290816200017d8239f35b60028352601f0160051c7f405787fa12a823e0f2b7631cc41b3ba8828b3321ca811111fa75cd3aa3bb5ace908101905b8181106200013757506200009e565b838155820162000128565b634e487b7160e01b83526022600452602483fd5b90607f16906200008a565b634e487b7160e01b600052604160045260246000fd5b600080fdfe6040608081526004908136101561001557600080fd5b600091823560e01c8062fdd58e146110da57806301ffc9a71461106d5780630e89341c14610f5a57806316d35d7114610def5780632eb2c2d614610ad45780634e1273f41461093357806358a86e1d1461090c578063715018a6146108ac578063873f6f9e146108665780638da5cb5b1461083d5780639365fc8714610568578063a22cb46514610487578063e985e9c514610439578063ef04934114610403578063f242432a1461019e5763f2fde38b146100d057600080fd5b3461019a57602036600319011261019a576100e961110a565b906100f26112de565b6001600160a01b03918216928315610148575050600354826bffffffffffffffffffffffff60a01b821617600355167f8be0079c531659141344cd1fd0a4f28419497f9722a3daafe3b4186f6b6457e08380a380f35b906020608492519162461bcd60e51b8352820152602660248201527f4f776e61626c653a206e6577206f776e657220697320746865207a65726f206160448201526564647265737360d01b6064820152fd5b8280fd5b503461019a5760a036600319011261019a576101b861110a565b916101c1611125565b92604435906064359060843567ffffffffffffffff81116103ff576101e9903690870161128c565b926001600160a01b039182169133831480156103e0575b61020990611417565b87169161021783151561147a565b6102208261168b565b5061022a8461168b565b50818952602097898952868a20828b52895284878b205461024d828210156114d4565b848c528b8b52888c20848d528b5203878b2055828a52898952868a20848b528952868a2061027c868254611533565b905583828851858152878c8201527fc3d58168c5ae7397731d063d5bbf3d657854427343f4c083240f7aacaa2d0f628a3392a43b6102b8578880f35b918697989596949391868a946103018a519788968795869463f23a6e6160e01b9c8d8752339087015260248601526044850152606484015260a0608484015260a483019061113b565b03925af18391816103b1575b506103765750505061031d6115a9565b6308c379a014610345575b5162461bcd60e51b815291508190610341908201611636565b0390fd5b61034d6115c7565b806103585750610328565b610341915193849362461bcd60e51b8552840152602483019061113b565b9194506001600160e01b03199091160361039857505038808080808080808880f35b5162461bcd60e51b815291508190610341908201611560565b6103d2919250873d89116103d9575b6103ca81836111ad565b810190611540565b903861030d565b503d6103c0565b5082895260016020908152868a20338b5290528589205460ff16610200565b8780fd5b50503461043557806003193601126104355760209061042c61042361110a565b602435906116ea565b90519015158152f35b5080fd5b50503461043557806003193601126104355760ff8160209361045961110a565b610461611125565b6001600160a01b0391821683526001875283832091168252855220549151911615158152f35b50903461019a578060031936011261019a576104a161110a565b9060243591821515809303610564576001600160a01b0316923384146105105750338452600160205280842083855260205280842060ff1981541660ff8416179055519081527f17307eab39ab6107e8899845ad3d59bd9653f200f220920489ca2b5937696c3160203392a380f35b6020608492519162461bcd60e51b8352820152602960248201527f455243313135353a2073657474696e6720617070726f76616c20737461747573604482015268103337b91039b2b63360b91b6064820152fd5b8480fd5b50919034610435576020908160031936011261019a5783359182845260058152818420338552815260ff8285205416610804576105a583336116ea565b156107c25781519481860186811067ffffffffffffffff8211176107af5783528486523315610764578394956105dd6105fc9561168b565b5083516105e98161117b565b60019581878093528536818301376113e0565b5285875286835283872033885283528387208054908682018092116107515755835186815285848201528733917fc3d58168c5ae7397731d063d5bbf3d657854427343f4c083240f7aacaa2d0f62873392a4333b61069b575b505083855260058152818520903386525283209060ff1982541617905533907f5ddca7d5809a6830dda8f5547a130099be44f5e1f6ab4773cbe795c10c0f605e8380a380f35b83949195929693518781806106dd63f23a6e6160e01b95868352338c84015289602484015288604484015287606484015260a0608484015260a483019061113b565b038188335af1859181610732575b506106fb5787878761031d6115a9565b939692959194936001600160e01b0319160361071957503880610655565b825162461bcd60e51b8152908190610341908201611560565b61074a919250893d8b116103d9576103ca81836111ad565b90386106eb565b634e487b7160e01b895260118452602489fd5b915162461bcd60e51b815291820152602160248201527f455243313135353a206d696e7420746f20746865207a65726f206164647265736044820152607360f81b6064820152608490fd5b634e487b7160e01b865260418252602486fd5b8490606492519162461bcd60e51b8352820152601760248201527f4e6f74206120766572696669656420617474656e6465650000000000000000006044820152fd5b8490606492519162461bcd60e51b835282015260146024820152731413d05408185b1c9958591e4818db185a5b595960621b6044820152fd5b50503461043557816003193601126104355760035490516001600160a01b039091168152602090f35b503461019a578160031936011261019a578160209360ff92610886611125565b90358252600586528282206001600160a01b039091168252855220549151911615158152f35b83346109095780600319360112610909576108c56112de565b600380546001600160a01b0319811690915581906001600160a01b03167f8be0079c531659141344cd1fd0a4f28419497f9722a3daafe3b4186f6b6457e08280a380f35b80fd5b503461019a578260031936011261019a575490516001600160a01b03909116815260209150f35b503461019a578160031936011261019a57803567ffffffffffffffff808211610564573660238301121561056457818301359061096f82611216565b9261097c865194856111ad565b82845260209260248486019160051b83010191368311610ad057602401905b828210610aad57505050602435908111610aa9576109bc903690850161122e565b928251845103610a5657508151946109d386611216565b956109e0865197886111ad565b8087526109ef601f1991611216565b0136838801375b8251811015610a4057610a3b90610a2b6001600160a01b03610a188387611403565b5116610a248388611403565b5190611336565b610a358289611403565b526113bb565b6109f6565b845182815280610a52818501896112aa565b0390f35b60849185519162461bcd60e51b8352820152602960248201527f455243313135353a206163636f756e747320616e6420696473206c656e677468604482015268040dad2e6dac2e8c6d60bb1b6064820152fd5b8580fd5b81356001600160a01b0381168103610acc57815290840190840161099b565b8980fd5b8880fd5b508234610909576003199260a03685011261043557610af161110a565b91610afa611125565b9467ffffffffffffffff93604435858111610deb57610b1c903690880161122e565b60643586811161056457610b33903690890161122e565b9560843590811161056457610b4b903690890161128c565b966001600160a01b03928316923384148015610dcc575b610b6b90611417565b8251885103610d7857891693610b8285151561147a565b855b8351811015610c065780610b9b610c019286611403565b51610ba6828c611403565b5190808a526020908a82528b8b20898c528252828c8c8b8282205492610bce858510156114d4565b858352828752822091528452038c8c20558a528981528a8a2090898b5252610bfa8a8a20918254611533565b90556113bb565b610b84565b50949897909692959784878a518b81527f4a39dc06d4c0dbc64b70af90fd698a233a518aa5d07e595d983b8c0526c8f7fb610c438d8301886112aa565b91808303602082015280610c5833948b6112aa565b0390a43b610c64578880f35b8798969751948593849363bc197c8160e01b98898652338c87015260248601526044850160a0905260a48501610c99916112aa565b82858203016064860152610cac916112aa565b90838203016084840152610cbf9161113b565b0381865a94602095f1839181610d58575b50610d3857505050610ce06115a9565b6308c379a014610d04575b905162461bcd60e51b8152908190610341908201611636565b610d0c6115c7565b80610d175750610ceb565b610341906020935193849362461bcd60e51b8552840152602483019061113b565b9193916001600160e01b0319160361039857505081808080808080808880f35b610d7191925060203d81116103d9576103ca81836111ad565b9086610cd0565b865162461bcd60e51b8152602081840152602860248201527f455243313135353a2069647320616e6420616d6f756e7473206c656e677468206044820152670dad2e6dac2e8c6d60c31b6064820152608490fd5b508386526001602090815287872033885290528686205460ff16610b62565b8380fd5b5082903461043557826003193601126104355767ffffffffffffffff602435818111610deb5736602382011215610deb57610e3390369060248186013591016111cf565b93610e3c6112de565b82358452602090600682528420928551928311610f475750610e5e83546116b0565b601f8111610f04575b5080601f8311600114610ea25750839482939492610e97575b50508160011b916000199060031b1c191617905580f35b015190508480610e80565b90601f198316958486528286209286905b888210610eec57505083600195969710610ed3575b505050811b01905580f35b015160001960f88460031b161c19169055848080610ec8565b80600185968294968601518155019501930190610eb3565b838552818520601f840160051c810191838510610f3d575b601f0160051c01905b818110610f325750610e67565b858155600101610f25565b9091508190610f1c565b634e487b7160e01b855260419052602484fd5b50903461019a5760209182600319360112610deb578035845260068352818420825185819690835490610f8c826116b0565b9485855260019289848216918260001461104957505060011461100d575b505050610fb9925003856111ad565b835115610fd45750610a52905192828493845283019061113b565b82606492519162461bcd60e51b83528201526015602482015274155492481b9bdd081cd95d08199bdc88195d995b9d605a1b6044820152fd5b889350819291528282205b858310611031575050610fb99350820101388080610faa565b8054838b018501528994508893909201918101611018565b935094505050610fb994915060ff191682840152151560051b820101388080610faa565b503461019a57602036600319011261019a57359063ffffffff60e01b821680920361019a5760209250636cdb3d1360e11b82149182156110c9575b82156110b8575b50519015158152f35b6301ffc9a760e01b149150386110af565b6303a24d0760e21b811492506110a8565b5050346104355780600319360112610435576020906111036110fa61110a565b60243590611336565b9051908152f35b600435906001600160a01b038216820361112057565b600080fd5b602435906001600160a01b038216820361112057565b919082519283825260005b848110611167575050826000602080949584010152601f8019910116010190565b602081830181015184830182015201611146565b6040810190811067ffffffffffffffff82111761119757604052565b634e487b7160e01b600052604160045260246000fd5b90601f8019910116810190811067ffffffffffffffff82111761119757604052565b92919267ffffffffffffffff821161119757604051916111f9601f8201601f1916602001846111ad565b829481845281830111611120578281602093846000960137010152565b67ffffffffffffffff81116111975760051b60200190565b81601f820112156111205780359161124583611216565b9261125360405194856111ad565b808452602092838086019260051b820101928311611120578301905b82821061127d575050505090565b8135815290830190830161126f565b9080601f83011215611120578160206112a7933591016111cf565b90565b90815180825260208080930193019160005b8281106112ca575050505090565b8351855293810193928101926001016112bc565b6003546001600160a01b031633036112f257565b606460405162461bcd60e51b815260206004820152602060248201527f4f776e61626c653a2063616c6c6572206973206e6f7420746865206f776e65726044820152fd5b6001600160a01b031690811561136357600052600060205260406000209060005260205260406000205490565b60405162461bcd60e51b815260206004820152602a60248201527f455243313135353a2061646472657373207a65726f206973206e6f742061207660448201526930b634b21037bbb732b960b11b6064820152608490fd5b60001981146113ca5760010190565b634e487b7160e01b600052601160045260246000fd5b8051156113ed5760200190565b634e487b7160e01b600052603260045260246000fd5b80518210156113ed5760209160051b010190565b1561141e57565b60405162461bcd60e51b815260206004820152602e60248201527f455243313135353a2063616c6c6572206973206e6f7420746f6b656e206f776e60448201526d195c881bdc88185c1c1c9bdd995960921b6064820152608490fd5b1561148157565b60405162461bcd60e51b815260206004820152602560248201527f455243313135353a207472616e7366657220746f20746865207a65726f206164604482015264647265737360d81b6064820152608490fd5b156114db57565b60405162461bcd60e51b815260206004820152602a60248201527f455243313135353a20696e73756666696369656e742062616c616e636520666f60448201526939103a3930b739b332b960b11b6064820152608490fd5b919082018092116113ca57565b9081602091031261112057516001600160e01b0319811681036111205790565b60809060208152602860208201527f455243313135353a204552433131353552656365697665722072656a656374656040820152676420746f6b656e7360c01b60608201520190565b60009060033d116115b657565b905060046000803e60005160e01c90565b600060443d106112a757604051600319913d83016004833e815167ffffffffffffffff918282113d6024840111176116255781840194855193841161162d573d8501016020848701011161162557506112a7929101602001906111ad565b949350505050565b50949350505050565b60809060208152603460208201527f455243313135353a207472616e7366657220746f206e6f6e2d455243313135356040820152732932b1b2b4bb32b91034b6b83632b6b2b73a32b960611b60608201520190565b604051906116988261117b565b60018252602036818401376116ac826113e0565b5290565b90600182811c921680156116e0575b60208310146116ca57565b634e487b7160e01b600052602260045260246000fd5b91607f16916116bf565b9060018060a01b03906004828154166040938451956370a0823160e01b8752168083870152602090602482888281875afa9788156118f1576000986118c2575b5087156118b55760005b88811061174957505050505050505050600090565b8751632f745c5960e01b8152838782015281838201528481604481895afa9081156118aa5760009161187d575b508851637510cfaf60e01b8152878101829052858185818a5afa6000918161184e575b506117ae5750506117a9906113bb565b611734565b895191630b3474d760e21b835288830152858285818a5afa91821561184357908991600093611806575b501490816117fd575b506117ef576117a9906113bb565b505050505050505050600190565b905015386117e1565b909291508681813d831161183c575b61181f81836111ad565b8101031261043557519081151582036109095750889091386117d8565b503d611815565b8a513d6000823e3d90fd5b90918782813d8311611876575b61186581836111ad565b810103126109095750519038611799565b503d61185b565b908582813d83116118a3575b61189381836111ad565b8101031261090957505138611776565b503d611889565b89513d6000823e3d90fd5b5050505050505050600090565b90978382813d83116118ea575b6118d981836111ad565b81010312610909575051963861172a565b503d6118cf565b87513d6000823e3d90fdfea26469706673582212202cd912947d72ff08c84e7be9897a91b74a5ef2ecb0163989c7e7b1c8c44f12f664736f6c63430008140033",
  "linkReferences": {},
  "deployedLinkReferences": {}
}