{
  "_format": "hh-sol-artifact-1",
  "contractName": "EventFactory",
  "sourceName": "contracts/EventFactory.sol",
  "abi": [
    {
      "inputs": [],
      "stateMutability": "nonpayable",
      "type": "constructor"
    },
    {
      "anonymous": false,
      "inputs": [
        {
          "indexed": true,
          "internalType": "address",
          "name": "account",
          "type": "address"
        },
        {
          "indexed": true,
          "internalType": "address",
          "name": "operator",
          "type": "address"
        },
        {
          "indexed": false,
          "internalType": "bool",
          "name": "approved",
          "type": "bool"
        }
      ],
      "name": "ApprovalForAll",
      "type": "event"
    },
    {
      "anonymous": false,
      "inputs": [
        {
          "indexed": false,
          "internalType": "uint256",
          "name": "nowTime",
          "type": "uint256"
        },
        {
          "indexed": false,
          "internalType": "uint256",
          "name": "inputDate",
          "type": "uint256"
        }
      ],
      "name": "DebugTimestamps",
      "type": "event"
    },
    {
      "anonymous": false,
      "inputs": [
        {
          "indexed": true,
          "internalType": "uint256",
          "name": "eventId",
          "type": "uint256"
        },
        {
          "indexed": true,
          "internalType": "address",
          "name": "owner",
          "type": "address"
        },
        {
          "indexed": false,
          "internalType": "string",
          "name": "ipfsCID",
          "type": "string"
        },
        {
          "indexed": false,
          "internalType": "string",
          "name": "imageCID",
          "type": "string"
        }
      ],
      "name": "EventCreated",
      "type": "event"
    },
    {
      "anonymous": false,
      "inputs": [
        {
          "indexed": true,
          "internalType": "address",
          "name": "previousOwner",
          "type": "address"
        },
        {
          "indexed": true,
          "internalType": "address",
          "name": "newOwner",
          "type": "address"
        }
      ],
      "name": "OwnershipTransferred",
      "type": "event"
    },
    {
      "anonymous": false,
      "inputs": [
        {
          "indexed": true,
          "internalType": "uint256",
          "name": "eventId",
          "type": "uint256"
        },
        {
          "indexed": true,
          "internalType": "address",
          "name": "buyer",
          "type": "address"
        },
        {
          "indexed": false,
          "internalType": "uint256",
          "name": "amount",
          "type": "uint256"
        }
      ],
      "name": "TicketPurchased",
      "type": "event"
    },
    {
      "anonymous": false,
      "inputs": [
        {
          "indexed": true,
          "internalType": "address",
          "name": "operator",
          "type": "address"
        },
        {
          "indexed": true,
          "internalType": "address",
          "name": "from",
          "type": "address"
        },
        {
          "indexed": true,
          "internalType": "address",
          "name": "to",
          "type": "address"
        },
        {
          "indexed": false,
          "internalType": "uint256[]",
          "name": "ids",
          "type": "uint256[]"
        },
        {
          "indexed": false,
          "internalType": "uint256[]",
          "name": "values",
          "type": "uint256[]"
        }
      ],
      "name": "TransferBatch",
      "type": "event"
    },
    {
      "anonymous": false,
      "inputs": [
        {
          "indexed": true,
          "internalType": "address",
          "name": "operator",
          "type": "address"
        },
        {
          "indexed": true,
          "internalType": "address",
          "name": "from",
          "type": "address"
        },
        {
          "indexed": true,
          "internalType": "address",
          "name": "to",
          "type": "address"
        },
        {
          "indexed": false,
          "internalType": "uint256",
          "name": "id",
          "type": "uint256"
        },
        {
          "indexed": false,
          "internalType": "uint256",
          "name": "value",
          "type": "uint256"
        }
      ],
      "name": "TransferSingle",
      "type": "event"
    },
    {
      "anonymous": false,
      "inputs": [
        {
          "indexed": false,
          "internalType": "string",
          "name": "value",
          "type": "string"
        },
        {
          "indexed": true,
          "internalType": "uint256",
          "name": "id",
          "type": "uint256"
        }
      ],
      "name": "URI",
      "type": "event"
    },
    {
      "inputs": [
        {
          "internalType": "address",
          "name": "account",
          "type": "address"
        },
        {
          "internalType": "uint256",
          "name": "id",
          "type": "uint256"
        }
      ],
      "name": "balanceOf",
      "outputs": [
        {
          "internalType": "uint256",
          "name": "",
          "type": "uint256"
        }
      ],
      "stateMutability": "view",
      "type": "function"
    },
    {
      "inputs": [
        {
          "internalType": "address[]",
          "name": "accounts",
          "type": "address[]"
        },
        {
          "internalType": "uint256[]",
          "name": "ids",
          "type": "uint256[]"
        }
      ],
      "name": "balanceOfBatch",
      "outputs": [
        {
          "internalType": "uint256[]",
          "name": "",
          "type": "uint256[]"
        }
      ],
      "stateMutability": "view",
      "type": "function"
    },
    {
      "inputs": [
        {
          "internalType": "string",
          "name": "name",
          "type": "string"
        },
        {
          "internalType": "uint256",
          "name": "date",
          "type": "uint256"
        },
        {
          "internalType": "string",
          "name": "ipfsCID",
          "type": "string"
        },
        {
          "internalType": "string",
          "name": "imageCID",
          "type": "string"
        },
        {
          "internalType": "uint256",
          "name": "maxTickets",
          "type": "uint256"
        },
        {
          "internalType": "uint256",
          "name": "pricePerTicket",
          "type": "uint256"
        }
      ],
      "name": "createEvent",
      "outputs": [
        {
          "internalType": "uint256",
          "name": "",
          "type": "uint256"
        }
      ],
      "stateMutability": "nonpayable",
      "type": "function"
    },
    {
      "inputs": [
        {
          "internalType": "uint256",
          "name": "eventId",
          "type": "uint256"
        }
      ],
      "name": "deactivateEvent",
      "outputs": [],
      "stateMutability": "nonpayable",
      "type": "function"
    },
    {
      "inputs": [
        {
          "internalType": "uint256",
          "name": "",
          "type": "uint256"
        }
      ],
      "name": "events",
      "outputs": [
        {
          "internalType": "string",
          "name": "name",
          "type": "string"
        },
        {
          "internalType": "uint256",
          "name": "date",
          "type": "uint256"
        },
        {
          "internalType": "string",
          "name": "ipfsCID",
          "type": "string"
        },
        {
          "internalType": "string",
          "name": "imageCID",
          "type": "string"
        },
        {
          "internalType": "address",
          "name": "owner",
          "type": "address"
        },
        {
          "internalType": "bool",
          "name": "active",
          "type": "bool"
        },
        {
          "internalType": "uint256",
          "name": "pricePerTicket",
          "type": "uint256"
        }
      ],
      "stateMutability": "view",
      "type": "function"
    },
    {
      "inputs": [
        {
          "internalType": "uint256",
          "name": "eventId",
          "type": "uint256"
        }
      ],
      "name": "getEventDetails",
      "outputs": [
        {
          "internalType": "string",
          "name": "name",
          "type": "string"
        },
        {
          "internalType": "uint256",
          "name": "date",
          "type": "uint256"
        },
        {
          "internalType": "string",
          "name": "ipfsCID",
          "type": "string"
        },
        {
          "internalType": "string",
          "name": "imageCID",
          "type": "string"
        },
        {
          "internalType": "address",
          "name": "owner",
          "type": "address"
        },
        {
          "internalType": "bool",
          "name": "active",
          "type": "bool"
        },
        {
          "internalType": "uint256",
          "name": "pricePerTicket",
          "type": "uint256"
        },
        {
          "internalType": "uint256",
          "name": "ticketsRemaining",
          "type": "uint256"
        }
      ],
      "stateMutability": "view",
      "type": "function"
    },
    {
      "inputs": [
        {
          "internalType": "address",
          "name": "account",
          "type": "address"
        },
        {
          "internalType": "address",
          "name": "operator",
          "type": "address"
        }
      ],
      "name": "isApprovedForAll",
      "outputs": [
        {
          "internalType": "bool",
          "name": "",
          "type": "bool"
        }
      ],
      "stateMutability": "view",
      "type": "function"
    },
    {
      "inputs": [
        {
          "internalType": "uint256",
          "name": "eventId",
          "type": "uint256"
        }
      ],
      "name": "isValidEvent",
      "outputs": [
        {
          "internalType": "bool",
          "name": "",
          "type": "bool"
        }
      ],
      "stateMutability": "view",
      "type": "function"
    },
    {
      "inputs": [
        {
          "internalType": "address",
          "name": "",
          "type": "address"
        },
        {
          "internalType": "address",
          "name": "",
          "type": "address"
        },
        {
          "internalType": "uint256[]",
          "name": "",
          "type": "uint256[]"
        },
        {
          "internalType": "uint256[]",
          "name": "",
          "type": "uint256[]"
        },
        {
          "internalType": "bytes",
          "name": "",
          "type": "bytes"
        }
      ],
      "name": "onERC1155BatchReceived",
      "outputs": [
        {
          "internalType": "bytes4",
          "name": "",
          "type": "bytes4"
        }
      ],
      "stateMutability": "pure",
      "type": "function"
    },
    {
      "inputs": [
        {
          "internalType": "address",
          "name": "",
          "type": "address"
        },
        {
          "internalType": "address",
          "name": "",
          "type": "address"
        },
        {
          "internalType": "uint256",
          "name": "",
          "type": "uint256"
        },
        {
          "internalType": "uint256",
          "name": "",
          "type": "uint256"
        },
        {
          "internalType": "bytes",
          "name": "",
          "type": "bytes"
        }
      ],
      "name": "onERC1155Received",
      "outputs": [
        {
          "internalType": "bytes4",
          "name": "",
          "type": "bytes4"
        }
      ],
      "stateMutability": "pure",
      "type": "function"
    },
    {
      "inputs": [],
      "name": "owner",
      "outputs": [
        {
          "internalType": "address",
          "name": "",
          "type": "address"
        }
      ],
      "stateMutability": "view",
      "type": "function"
    },
    {
      "inputs": [
        {
          "internalType": "uint256",
          "name": "eventId",
          "type": "uint256"
        },
        {
          "internalType": "uint256",
          "name": "amount",
          "type": "uint256"
        }
      ],
      "name": "purchaseTicket",
      "outputs": [],
      "stateMutability": "payable",
      "type": "function"
    },
    {
      "inputs": [],
      "name": "renounceOwnership",
      "outputs": [],
      "stateMutability": "nonpayable",
      "type": "function"
    },
    {
      "inputs": [
        {
          "internalType": "address",
          "name": "from",
          "type": "address"
        },
        {
          "internalType": "address",
          "name": "to",
          "type": "address"
        },
        {
          "internalType": "uint256[]",
          "name": "ids",
          "type": "uint256[]"
        },
        {
          "internalType": "uint256[]",
          "name": "amounts",
          "type": "uint256[]"
        },
        {
          "internalType": "bytes",
          "name": "data",
          "type": "bytes"
        }
      ],
      "name": "safeBatchTransferFrom",
      "outputs": [],
      "stateMutability": "nonpayable",
      "type": "function"
    },
    {
      "inputs": [
        {
          "internalType": "address",
          "name": "from",
          "type": "address"
        },
        {
          "internalType": "address",
          "name": "to",
          "type": "address"
        },
        {
          "internalType": "uint256",
          "name": "id",
          "type": "uint256"
        },
        {
          "internalType": "uint256",
          "name": "amount",
          "type": "uint256"
        },
        {
          "internalType": "bytes",
          "name": "data",
          "type": "bytes"
        }
      ],
      "name": "safeTransferFrom",
      "outputs": [],
      "stateMutability": "nonpayable",
      "type": "function"
    },
    {
      "inputs": [
        {
          "internalType": "address",
          "name": "operator",
          "type": "address"
        },
        {
          "internalType": "bool",
          "name": "approved",
          "type": "bool"
        }
      ],
      "name": "setApprovalForAll",
      "outputs": [],
      "stateMutability": "nonpayable",
      "type": "function"
    },
    {
      "inputs": [
        {
          "internalType": "address",
          "name": "_ticketNFT",
          "type": "address"
        }
      ],
      "name": "setTicketNFTContract",
      "outputs": [],
      "stateMutability": "nonpayable",
      "type": "function"
    },
    {
      "inputs": [
        {
          "internalType": "bytes4",
          "name": "interfaceId",
          "type": "bytes4"
        }
      ],
      "name": "supportsInterface",
      "outputs": [
        {
          "internalType": "bool",
          "name": "",
          "type": "bool"
        }
      ],
      "stateMutability": "view",
      "type": "function"
    },
    {
      "inputs": [
        {
          "internalType": "address",
          "name": "user",
          "type": "address"
        },
        {
          "internalType": "uint256",
          "name": "eventId",
          "type": "uint256"
        }
      ],
      "name": "ticketBalanceOf",
      "outputs": [
        {
          "internalType": "uint256",
          "name": "",
          "type": "uint256"
        }
      ],
      "stateMutability": "view",
      "type": "function"
    },
    {
      "inputs": [],
      "name": "ticketNFT",
      "outputs": [
        {
          "internalType": "contract TicketNFT",
          "name": "",
          "type": "address"
        }
      ],
      "stateMutability": "view",
      "type": "function"
    },
    {
      "inputs": [
        {
          "internalType": "address",
          "name": "newOwner",
          "type": "address"
        }
      ],
      "name": "transferOwnership",
      "outputs": [],
      "stateMutability": "nonpayable",
      "type": "function"
    },
    {
      "inputs": [
        {
          "internalType": "uint256",
          "name": "eventId",
          "type": "uint256"
        }
      ],
      "name": "uri",
      "outputs": [
        {
          "internalType": "string",
          "name": "",
          "type": "string"
        }
      ],
      "stateMutability": "view",
      "type": "function"
    }
  ],
  "bytecode": "0x6080346200014b5760408101906001600160401b038211818310176200013557602091604052600781520166697066733a2f2f60c81b8152600254906001918281811c911680156200012a575b60208210146200011457601f8111620000c8575b81516001600160c81b031916600e17600255600380546001600160a01b031981163390811790925560405191906001600160a01b03167f8be0079c531659141344cd1fd0a4f28419497f9722a3daafe3b4186f6b6457e0600080a36124029081620001518239f35b6002600052601f0160051c7f405787fa12a823e0f2b7631cc41b3ba8828b3321ca811111fa75cd3aa3bb5ace908101905b81811062000108575062000060565b600081558301620000f9565b634e487b7160e01b600052602260045260246000fd5b90607f16906200004c565b634e487b7160e01b600052604160045260246000fd5b600080fdfe6080604052600436101561001257600080fd5b60003560e01c8062fdd58e1461156d57806301ffc9a714611c805780630b79143014611bc85780630e89341c14611ab85780632eb2c2d6146117e857806349287c0b1461179a5780634e1273f4146115f8578063715018a61461159b5780638da5cb5b146115725780638f118fe31461156d578063957a632e146114d45780639cb3c70614611491578063a22cb465146113ad578063acb98bf514610bb0578063b393391b14610b87578063bc197c8114610afc578063bdbbb0cb146105f7578063e985e9c5146105a1578063ec38d5a0146104d7578063f23a6e6114610481578063f242432a146101db5763f2fde38b1461010d57600080fd5b346101d65760203660031901126101d657610126611d05565b61012e612024565b6001600160a01b0390811690811561018257600354826bffffffffffffffffffffffff60a01b821617600355167f8be0079c531659141344cd1fd0a4f28419497f9722a3daafe3b4186f6b6457e0600080a3005b60405162461bcd60e51b815260206004820152602660248201527f4f776e61626c653a206e6577206f776e657220697320746865207a65726f206160448201526564647265737360d01b6064820152608490fd5b600080fd5b346101d65760a03660031901126101d6576101f4611d05565b6101fc611d1b565b906064356044356084356001600160401b0381116101d657610222903690600401611f4c565b6001600160a01b03938416933385148015610458575b6102419061213a565b851661024e81151561219d565b61025783612367565b5061026184612367565b50826000526020956000875260406000208660005287528460406000205461028b828210156121f7565b85600052600089526040600020886000528952036040600020558360005260008752604060002082600052875260406000206102c8868254612256565b90558186604051868152878a8201527fc3d58168c5ae7397731d063d5bbf3d657854427343f4c083240f7aacaa2d0f6260403392a43b61030457005b61034893600087946040519687958694859363f23a6e6160e01b9b8c865233600487015260248601526044850152606484015260a0608484015260a4830190611e7c565b03925af160009181610429575b506103c05782610363612283565b6308c379a01461038b575b60405162461bcd60e51b81528061038760048201612312565b0390fd5b6103936122a1565b908161039f575061036e565b61038760405192839262461bcd60e51b845260048401526024830190611e7c565b6001600160e01b0319160390506103d357005b60405162461bcd60e51b815260206004820152602860248201527f455243313135353a204552433131353552656365697665722072656a656374656044820152676420746f6b656e7360c01b6064820152608490fd5b61044a919250843d8611610451575b6104428183611db5565b810190612263565b9084610355565b503d610438565b5084600052600160205260406000203360005260205261024160ff604060002054169050610238565b346101d65760a03660031901126101d65761049a611d05565b506104a3611d1b565b506084356001600160401b0381116101d6576104c3903690600401611ff7565b505060405163f23a6e6160e01b8152602090f35b346101d65760203660031901126101d65761055860043580600052600660205260406000209060018201549160048101549160ff61057961051d6005850154933061207c565b9361056b61052a82611dd6565b97610543600361053c60028601611dd6565b9401611dd6565b926040519a8b9a610100808d528c0190611e7c565b9160208b015289820360408b0152611e7c565b908782036060890152611e7c565b9360018060a01b038116608087015260a01c16151560a085015260c084015260e08301520390f35b346101d65760403660031901126101d6576105ba611d05565b6105c2611d1b565b9060018060a01b03809116600052600160205260406000209116600052602052602060ff604060002054166040519015158152f35b60403660031901126101d6576004356000526006602052604060002060ff600482015460a01c1615610ac4576001810154421015610a8a576005810154908160243581020460243514821517156107fd5760243582023410610a4e576024356106626004353061207c565b10610a145730156109c357610678600435612367565b50610684602435612367565b50600060405161069381611d9a565b5260043560005260006020526040600020306000526020526040600020546024358110610972576004356000526000602052604060002030600052602052602435900360406000205560006040516004358152602435602082015230907fc3d58168c5ae7397731d063d5bbf3d657854427343f4c083240f7aacaa2d0f6260403392a4600060405161072481611d9a565b5260005b60243581106108485750600401546000908190819081906024358602906001600160a01b03165af161075861239c565b5015610813576024358102341161079e575b604051602435815233907fdbaaf4c87ce30816c961a81d110622a3227ede77953d4383d514ff88ab2e0fd3602060043592a3005b6024350234033481116107fd57600080808093335af16107bc61239c565b50156107c8578061076a565b60405162461bcd60e51b815260206004820152600d60248201526c1499599d5b990819985a5b1959609a1b6044820152606490fd5b634e487b7160e01b600052601160045260246000fd5b60405162461bcd60e51b815260206004820152600d60248201526c14185e5bdd5d0819985a5b1959609a1b6044820152606490fd5b6005546001600160a01b031690813b156101d657604051916301aa1ff560e11b8352336004840152600435602484015260606044840152826000600286015461089081611d60565b90816064850152600181169081600014610950575060011461090f575b509181600081819503925af18015610903576108d3575b6108ce9150612101565b610728565b6001600160401b0382116108ed576108ce916040526108c4565b634e487b7160e01b600052604160045260246000fd5b6040513d6000823e3d90fd5b9050600286016000526020600020906000915b8183106109365750508101608401816108ad565b805460848489010152869350602090920191600101610922565b60ff191660848086019190915291151560051b840190910191508290506108ad565b60405162461bcd60e51b8152602060048201526024808201527f455243313135353a206275726e20616d6f756e7420657863656564732062616c604482015263616e636560e01b6064820152608490fd5b60405162461bcd60e51b815260206004820152602360248201527f455243313135353a206275726e2066726f6d20746865207a65726f206164647260448201526265737360e81b6064820152608490fd5b60405162461bcd60e51b81526020600482015260126024820152714e6f7420656e6f756768207469636b65747360701b6044820152606490fd5b60405162461bcd60e51b8152602060048201526014602482015273125b9cdd59999a58da595b9d081c185e5b595b9d60621b6044820152606490fd5b60405162461bcd60e51b8152602060048201526012602482015271115d995b9d081a185cc81bd8d8dd5c9c995960721b6044820152606490fd5b60405162461bcd60e51b815260206004820152601060248201526f4576656e74206e6f742061637469766560801b6044820152606490fd5b346101d65760a03660031901126101d657610b15611d05565b50610b1e611d1b565b506001600160401b036044358181116101d657610b3f903690600401611fc7565b50506064358181116101d657610b59903690600401611fc7565b50506084359081116101d657610b73903690600401611ff7565b505060405163bc197c8160e01b8152602090f35b346101d65760003660031901126101d6576005546040516001600160a01b039091168152602090f35b346101d65760c03660031901126101d6576004356001600160401b0381116101d657610be0903690600401611f4c565b6044356001600160401b0381116101d657610bff903690600401611f4c565b906064356001600160401b0381116101d657610c1f903690600401611f4c565b7ff6604d94064acaac8d13e1eb73176d55487e2f8abda34ab500ab76d24b0cda44604080514281526024356020820152a142602435106113685782511561132f578051156112f557608435156112b0576001600454019182600455604051908160e08101106001600160401b0360e0840111176108ed5760e0820160405281526024356020820152836040820152816060820152336080820152600160a082015260a43560c082015282600052600660205260406000209080518051906001600160401b0382116108ed578190610cf68554611d60565b601f8111611260575b50602090601f83116001146111fa576000926111ef575b50508160011b916000199060031b1c19161782555b6020810151600183015560408101518051906001600160401b0382116108ed578190610d5a6002860154611d60565b601f811161119c575b50602090601f831160011461112f57600092611124575b50508160011b916000199060031b1c19161760028301555b60608101518051906001600160401b0382116108ed57610db56003850154611d60565b601f81116110dd575b50602090601f831160011461106a5791806005949260c09460009261105f575b50508160011b916000199060031b1c19161760038501555b6004840160018060a01b0360808301511681549060ff60a01b60a0850151151560a01b16916affffffffffffffffffffff60a81b16171790550151910155604051610e4081611d9a565b60008152301561101057610e5383612367565b50610e5f608435612367565b508260005260006020526040600020306000526020526040600020610e876084358254612256565b90556040518381526084356020820152600030917fc3d58168c5ae7397731d063d5bbf3d657854427343f4c083240f7aacaa2d0f6260403392a4303b610f21575b50817f74c22f9f773d1d8c02ddaa6deeeaa696cacbfea0be35360f9b2c253b13938f6f610f08602095610f16604051928392604084526040840190611e7c565b828103898401523396611e7c565b0390a3604051908152f35b60405160208180610f6363f23a6e6160e01b9586835233600484015260006024840152886044840152608435606484015260a0608484015260a4830190611e7c565b03816000305af160009181610fef575b50610fda57610f80612283565b6308c379a014610fa35760405162461bcd60e51b81528061038760048201612312565b610fab6122a1565b80610fb6575061036e565b60405162461bcd60e51b815260206004820152908190610387906024830190611e7c565b6001600160e01b031916036103d35781610ec8565b61100991925060203d602011610451576104428183611db5565b9086610f73565b60405162461bcd60e51b815260206004820152602160248201527f455243313135353a206d696e7420746f20746865207a65726f206164647265736044820152607360f81b6064820152608490fd5b015190508980610dde565b90601f198316916003860160005260206000209260005b8181106110c5575092600192859260c09660059896106110ac575b505050811b016003850155610df6565b015160001960f88460031b161c1916905589808061109c565b92936020600181928786015181550195019301611081565b600385016000526020600020601f840160051c81016020851061111d575b601f830160051c82018110611111575050610dbe565b600081556001016110fb565b50806110fb565b015190508780610d7a565b600286016000908152602081209350601f198516905b818110611184575090846001959493921061116b575b505050811b016002830155610d92565b015160001960f88460031b161c1916905587808061115b565b92936020600181928786015181550195019301611145565b909150600285016000526020600020601f840160051c8101602085106111e8575b90849392915b601f830160051c820181106111d9575050610d63565b600081558594506001016111c3565b50806111bd565b015190508780610d16565b6000868152602081209350601f198516905b818110611248575090846001959493921061122f575b505050811b018255610d2b565b015160001960f88460031b161c19169055878080611222565b9293602060018192878601518155019501930161120c565b909150846000526020600020601f840160051c8101602085106112a9575b90849392915b601f830160051c8201811061129a575050610cff565b60008155859450600101611284565b508061127e565b60405162461bcd60e51b815260206004820152601960248201527f5469636b657420737570706c79206d757374206265203e2030000000000000006044820152606490fd5b60405162461bcd60e51b8152602060048201526012602482015271125b5859d94810d251081c995c5d5a5c995960721b6044820152606490fd5b60405162461bcd60e51b815260206004820152601160248201527012541194c810d251081c995c5d5a5c9959607a1b6044820152606490fd5b60405162461bcd60e51b815260206004820152601960248201527f4576656e742064617465206d757374206265203e3d206e6f77000000000000006044820152606490fd5b346101d65760403660031901126101d6576113c6611d05565b602435908115158092036101d6576001600160a01b03169033821461143a57336000526001602052604060002082600052602052604060002060ff1981541660ff83161790556040519081527f17307eab39ab6107e8899845ad3d59bd9653f200f220920489ca2b5937696c3160203392a3005b60405162461bcd60e51b815260206004820152602960248201527f455243313135353a2073657474696e6720617070726f76616c20737461747573604482015268103337b91039b2b63360b91b6064820152608490fd5b346101d65760203660031901126101d6576114aa611d05565b6114b2612024565b600580546001600160a01b0319166001600160a01b0392909216919091179055005b346101d65760203660031901126101d657600480356000818152600660205260409020909101546001600160a01b03163303611528576000908152600660205260409020600401805460ff60a01b19169055005b60405162461bcd60e51b815260206004820152601f60248201527f4f6e6c79206576656e74206f776e65722063616e2064656163746976617465006044820152606490fd5b611d31565b346101d65760003660031901126101d6576003546040516001600160a01b039091168152602090f35b346101d65760003660031901126101d6576115b4612024565b600380546001600160a01b031981169091556000906001600160a01b03167f8be0079c531659141344cd1fd0a4f28419497f9722a3daafe3b4186f6b6457e08280a3005b346101d65760403660031901126101d6576004356001600160401b038082116101d657366023830112156101d65781600401359061163582611ebc565b926116436040519485611db5565b82845260209260248486019160051b830101913683116101d657602401905b82821061177b575050506024359081116101d657611684903690600401611ed3565b82518151036117245782519261169984611ebc565b936116a76040519586611db5565b8085526116b6601f1991611ebc565b01368486013760005b815181101561170957611704906116f46001600160a01b036116e18386612110565b51166116ed8387612110565b519061207c565b6116fe8288612110565b52612101565b6116bf565b505050611720604051928284938452830190611f93565b0390f35b60405162461bcd60e51b815260048101839052602960248201527f455243313135353a206163636f756e747320616e6420696473206c656e677468604482015268040dad2e6dac2e8c6d60bb1b6064820152608490fd5b81356001600160a01b03811681036101d6578152908401908401611662565b346101d65760203660031901126101d65760043560005260066020526020604060002060ff600482015460a01c1690816117da575b506040519015158152f35b6001915001544210826117cf565b346101d65760031960a0368201126101d657611802611d05565b9061180b611d1b565b906001600160401b03906044358281116101d65761182d903690600401611ed3565b6064358381116101d657611845903690600401611ed3565b926084359081116101d65761185e903690600401611f4c565b6001600160a01b03958616959092903387148015611a8f575b6118809061213a565b8251855103611a395785169261189784151561219d565b60005b835181101561193057806118b161192b9286612110565b516118bc8289612110565b5190806000526020906000825260406000208c6000528252826040600020546118e7828210156121f7565b82600052600084528d6040600020906000528452036040600020556000526000815260406000209088600052526119246040600020918254612256565b9055612101565b61189a565b509094939291938287604051604081527f4a39dc06d4c0dbc64b70af90fd698a233a518aa5d07e595d983b8c0526c8f7fb61196e604083018a611f93565b9180830360208201528061198333948b611f93565b0390a43b61198d57005b60006020946119ee6119df976119cf94604051998a988997889663bc197c8160e01b9e8f89523360048a0152602489015260a0604489015260a4880190611f93565b9084878303016064880152611f93565b91848303016084850152611e7c565b03925af160009181611a19575b50611a0857610f80612283565b6001600160e01b031916036103d357005b611a3291925060203d8111610451576104428183611db5565b90836119fb565b60405162461bcd60e51b815260206004820152602860248201527f455243313135353a2069647320616e6420616d6f756e7473206c656e677468206044820152670dad2e6dac2e8c6d60c31b6064820152608490fd5b5086600052600160205260406000203360005260205261188060ff604060002054169050611877565b346101d6576020806003193601126101d65760043560005260068152600260406000200190604051809266697066733a2f2f60c81b838301526000908054611aff81611d60565b91600191808316908115611ba05750600114611b57575b505050611b4391816d17b6b2ba30b230ba30973539b7b760911b600e935203601119810185520183611db5565b611720604051928284938452830190611e7c565b90919392506000528360002090846000925b858410611b885750505050806027611b4393600e930101918193611b16565b80548885016027015287945092019185908201611b69565b9050600e945060279250611b439593915060ff19168284015280151502820101918193611b16565b346101d65760203660031901126101d6576004356000526006602052611c3c6040600020611bf581611dd6565b90600181015460ff611c5d611c0c60028501611dd6565b92611c4f611c1c60038701611dd6565b916005600488015497015495604051998a9960e08b5260e08b0190611e7c565b9160208a015288820360408a0152611e7c565b908682036060880152611e7c565b9260018060a01b038116608086015260a01c16151560a084015260c08301520390f35b346101d65760203660031901126101d65760043563ffffffff60e01b81168091036101d657602090636cdb3d1360e11b8114908115611cf4575b8115611ce3575b8115611cd257506040519015158152f35b630271189760e51b149050826117cf565b6301ffc9a760e01b81149150611cc1565b6303a24d0760e21b81149150611cba565b600435906001600160a01b03821682036101d657565b602435906001600160a01b03821682036101d657565b346101d65760403660031901126101d6576020611d58611d4f611d05565b6024359061207c565b604051908152f35b90600182811c92168015611d90575b6020831014611d7a57565b634e487b7160e01b600052602260045260246000fd5b91607f1691611d6f565b602081019081106001600160401b038211176108ed57604052565b90601f801991011681019081106001600160401b038211176108ed57604052565b9060405191826000825492611dea84611d60565b908184526001948581169081600014611e595750600114611e16575b5050611e1492500383611db5565b565b9093915060005260209081600020936000915b818310611e41575050611e1493508201013880611e06565b85548884018501529485019487945091830191611e29565b915050611e1494506020925060ff191682840152151560051b8201013880611e06565b919082519283825260005b848110611ea8575050826000602080949584010152601f8019910116010190565b602081830181015184830182015201611e87565b6001600160401b0381116108ed5760051b60200190565b81601f820112156101d657803591611eea83611ebc565b92611ef86040519485611db5565b808452602092838086019260051b8201019283116101d6578301905b828210611f22575050505090565b81358152908301908301611f14565b6001600160401b0381116108ed57601f01601f191660200190565b81601f820112156101d657803590611f6382611f31565b92611f716040519485611db5565b828452602083830101116101d657816000926020809301838601378301015290565b90815180825260208080930193019160005b828110611fb3575050505090565b835185529381019392810192600101611fa5565b9181601f840112156101d6578235916001600160401b0383116101d6576020808501948460051b0101116101d657565b9181601f840112156101d6578235916001600160401b0383116101d657602083818601950101116101d657565b6003546001600160a01b0316330361203857565b606460405162461bcd60e51b815260206004820152602060248201527f4f776e61626c653a2063616c6c6572206973206e6f7420746865206f776e65726044820152fd5b6001600160a01b03169081156120a957600052600060205260406000209060005260205260406000205490565b60405162461bcd60e51b815260206004820152602a60248201527f455243313135353a2061646472657373207a65726f206973206e6f742061207660448201526930b634b21037bbb732b960b11b6064820152608490fd5b60001981146107fd5760010190565b80518210156121245760209160051b010190565b634e487b7160e01b600052603260045260246000fd5b1561214157565b60405162461bcd60e51b815260206004820152602e60248201527f455243313135353a2063616c6c6572206973206e6f7420746f6b656e206f776e60448201526d195c881bdc88185c1c1c9bdd995960921b6064820152608490fd5b156121a457565b60405162461bcd60e51b815260206004820152602560248201527f455243313135353a207472616e7366657220746f20746865207a65726f206164604482015264647265737360d81b6064820152608490fd5b156121fe57565b60405162461bcd60e51b815260206004820152602a60248201527f455243313135353a20696e73756666696369656e742062616c616e636520666f60448201526939103a3930b739b332b960b11b6064820152608490fd5b919082018092116107fd57565b908160209103126101d657516001600160e01b0319811681036101d65790565b60009060033d1161229057565b905060046000803e60005160e01c90565b600060443d106122fe57604051600319913d83016004833e81516001600160401b03918282113d60248401111761230157818401948551938411612309573d8501016020848701011161230157506122fe92910160200190611db5565b90565b949350505050565b50949350505050565b60809060208152603460208201527f455243313135353a207472616e7366657220746f206e6f6e2d455243313135356040820152732932b1b2b4bb32b91034b6b83632b6b2b73a32b960611b60608201520190565b60405190604082018281106001600160401b038211176108ed5760405260018252602082016020368237825115612124575290565b3d156123c7573d906123ad82611f31565b916123bb6040519384611db5565b82523d6000602084013e565b60609056fea2646970667358221220c5ff8e27a542afe65a8a5ace56c3e0551b24f628d4092c3f96aa4ca139c7616264736f6c63430008140033",
  "linkReferences": {},
  "deployedLinkReferences": {}
}