{
  "_format": "hh-sol-artifact-1",
  "contractName": "EventFactory",
  "sourceName": "contracts/EventFactory.sol",
  "abi": [
    {
      "inputs": [],
      "stateMutability": "nonpayable",
      "type": "constructor"
    },
    {
      "anonymous": false,
      "inputs": [
        {
          "indexed": true,
          "internalType": "address",
          "name": "account",
          "type": "address"
        },
        {
          "indexed": true,
          "internalType": "address",
          "name": "operator",
          "type": "address"
        },
        {
          "indexed": false,
          "internalType": "bool",
          "name": "approved",
          "type": "bool"
        }
      ],
      "name": "ApprovalForAll",
      "type": "event"
    },
    {
      "anonymous": false,
      "inputs": [
        {
          "indexed": true,
          "internalType": "uint256",
          "name": "eventId",
          "type": "uint256"
        },
        {
          "indexed": true,
          "internalType": "address",
          "name": "owner",
          "type": "address"
        },
        {
          "indexed": false,
          "internalType": "string",
          "name": "ipfsCID",
          "type": "string"
        }
      ],
      "name": "EventCreated",
      "type": "event"
    },
    {
      "anonymous": false,
      "inputs": [
        {
          "indexed": true,
          "internalType": "address",
          "name": "previousOwner",
          "type": "address"
        },
        {
          "indexed": true,
          "internalType": "address",
          "name": "newOwner",
          "type": "address"
        }
      ],
      "name": "OwnershipTransferred",
      "type": "event"
    },
    {
      "anonymous": false,
      "inputs": [
        {
          "indexed": true,
          "internalType": "address",
          "name": "operator",
          "type": "address"
        },
        {
          "indexed": true,
          "internalType": "address",
          "name": "from",
          "type": "address"
        },
        {
          "indexed": true,
          "internalType": "address",
          "name": "to",
          "type": "address"
        },
        {
          "indexed": false,
          "internalType": "uint256[]",
          "name": "ids",
          "type": "uint256[]"
        },
        {
          "indexed": false,
          "internalType": "uint256[]",
          "name": "values",
          "type": "uint256[]"
        }
      ],
      "name": "TransferBatch",
      "type": "event"
    },
    {
      "anonymous": false,
      "inputs": [
        {
          "indexed": true,
          "internalType": "address",
          "name": "operator",
          "type": "address"
        },
        {
          "indexed": true,
          "internalType": "address",
          "name": "from",
          "type": "address"
        },
        {
          "indexed": true,
          "internalType": "address",
          "name": "to",
          "type": "address"
        },
        {
          "indexed": false,
          "internalType": "uint256",
          "name": "id",
          "type": "uint256"
        },
        {
          "indexed": false,
          "internalType": "uint256",
          "name": "value",
          "type": "uint256"
        }
      ],
      "name": "TransferSingle",
      "type": "event"
    },
    {
      "anonymous": false,
      "inputs": [
        {
          "indexed": false,
          "internalType": "string",
          "name": "value",
          "type": "string"
        },
        {
          "indexed": true,
          "internalType": "uint256",
          "name": "id",
          "type": "uint256"
        }
      ],
      "name": "URI",
      "type": "event"
    },
    {
      "inputs": [
        {
          "internalType": "address",
          "name": "account",
          "type": "address"
        },
        {
          "internalType": "uint256",
          "name": "id",
          "type": "uint256"
        }
      ],
      "name": "balanceOf",
      "outputs": [
        {
          "internalType": "uint256",
          "name": "",
          "type": "uint256"
        }
      ],
      "stateMutability": "view",
      "type": "function"
    },
    {
      "inputs": [
        {
          "internalType": "address[]",
          "name": "accounts",
          "type": "address[]"
        },
        {
          "internalType": "uint256[]",
          "name": "ids",
          "type": "uint256[]"
        }
      ],
      "name": "balanceOfBatch",
      "outputs": [
        {
          "internalType": "uint256[]",
          "name": "",
          "type": "uint256[]"
        }
      ],
      "stateMutability": "view",
      "type": "function"
    },
    {
      "inputs": [
        {
          "internalType": "string",
          "name": "name",
          "type": "string"
        },
        {
          "internalType": "uint256",
          "name": "date",
          "type": "uint256"
        },
        {
          "internalType": "string",
          "name": "ipfsCID",
          "type": "string"
        },
        {
          "internalType": "uint256",
          "name": "maxTickets",
          "type": "uint256"
        }
      ],
      "name": "createEvent",
      "outputs": [
        {
          "internalType": "uint256",
          "name": "",
          "type": "uint256"
        }
      ],
      "stateMutability": "nonpayable",
      "type": "function"
    },
    {
      "inputs": [
        {
          "internalType": "uint256",
          "name": "",
          "type": "uint256"
        }
      ],
      "name": "events",
      "outputs": [
        {
          "internalType": "string",
          "name": "name",
          "type": "string"
        },
        {
          "internalType": "uint256",
          "name": "date",
          "type": "uint256"
        },
        {
          "internalType": "string",
          "name": "ipfsCID",
          "type": "string"
        },
        {
          "internalType": "address",
          "name": "owner",
          "type": "address"
        },
        {
          "internalType": "bool",
          "name": "active",
          "type": "bool"
        }
      ],
      "stateMutability": "view",
      "type": "function"
    },
    {
      "inputs": [
        {
          "internalType": "address",
          "name": "account",
          "type": "address"
        },
        {
          "internalType": "address",
          "name": "operator",
          "type": "address"
        }
      ],
      "name": "isApprovedForAll",
      "outputs": [
        {
          "internalType": "bool",
          "name": "",
          "type": "bool"
        }
      ],
      "stateMutability": "view",
      "type": "function"
    },
    {
      "inputs": [
        {
          "internalType": "uint256",
          "name": "eventId",
          "type": "uint256"
        }
      ],
      "name": "isValidEvent",
      "outputs": [
        {
          "internalType": "bool",
          "name": "",
          "type": "bool"
        }
      ],
      "stateMutability": "view",
      "type": "function"
    },
    {
      "inputs": [],
      "name": "owner",
      "outputs": [
        {
          "internalType": "address",
          "name": "",
          "type": "address"
        }
      ],
      "stateMutability": "view",
      "type": "function"
    },
    {
      "inputs": [],
      "name": "renounceOwnership",
      "outputs": [],
      "stateMutability": "nonpayable",
      "type": "function"
    },
    {
      "inputs": [
        {
          "internalType": "address",
          "name": "from",
          "type": "address"
        },
        {
          "internalType": "address",
          "name": "to",
          "type": "address"
        },
        {
          "internalType": "uint256[]",
          "name": "ids",
          "type": "uint256[]"
        },
        {
          "internalType": "uint256[]",
          "name": "amounts",
          "type": "uint256[]"
        },
        {
          "internalType": "bytes",
          "name": "data",
          "type": "bytes"
        }
      ],
      "name": "safeBatchTransferFrom",
      "outputs": [],
      "stateMutability": "nonpayable",
      "type": "function"
    },
    {
      "inputs": [
        {
          "internalType": "address",
          "name": "from",
          "type": "address"
        },
        {
          "internalType": "address",
          "name": "to",
          "type": "address"
        },
        {
          "internalType": "uint256",
          "name": "id",
          "type": "uint256"
        },
        {
          "internalType": "uint256",
          "name": "amount",
          "type": "uint256"
        },
        {
          "internalType": "bytes",
          "name": "data",
          "type": "bytes"
        }
      ],
      "name": "safeTransferFrom",
      "outputs": [],
      "stateMutability": "nonpayable",
      "type": "function"
    },
    {
      "inputs": [
        {
          "internalType": "address",
          "name": "operator",
          "type": "address"
        },
        {
          "internalType": "bool",
          "name": "approved",
          "type": "bool"
        }
      ],
      "name": "setApprovalForAll",
      "outputs": [],
      "stateMutability": "nonpayable",
      "type": "function"
    },
    {
      "inputs": [
        {
          "internalType": "bytes4",
          "name": "interfaceId",
          "type": "bytes4"
        }
      ],
      "name": "supportsInterface",
      "outputs": [
        {
          "internalType": "bool",
          "name": "",
          "type": "bool"
        }
      ],
      "stateMutability": "view",
      "type": "function"
    },
    {
      "inputs": [
        {
          "internalType": "address",
          "name": "newOwner",
          "type": "address"
        }
      ],
      "name": "transferOwnership",
      "outputs": [],
      "stateMutability": "nonpayable",
      "type": "function"
    },
    {
      "inputs": [
        {
          "internalType": "uint256",
          "name": "eventId",
          "type": "uint256"
        }
      ],
      "name": "uri",
      "outputs": [
        {
          "internalType": "string",
          "name": "",
          "type": "string"
        }
      ],
      "stateMutability": "view",
      "type": "function"
    }
  ],
  "bytecode": "0x60806040523480156200001157600080fd5b506040518060200160405280600081525062000033816200005a60201b60201c565b5062000054620000486200006f60201b60201c565b6200007760201b60201c565b6200049e565b80600290816200006b9190620003b7565b5050565b600033905090565b6000600360009054906101000a900473ffffffffffffffffffffffffffffffffffffffff16905081600360006101000a81548173ffffffffffffffffffffffffffffffffffffffff021916908373ffffffffffffffffffffffffffffffffffffffff1602179055508173ffffffffffffffffffffffffffffffffffffffff168173ffffffffffffffffffffffffffffffffffffffff167f8be0079c531659141344cd1fd0a4f28419497f9722a3daafe3b4186f6b6457e060405160405180910390a35050565b600081519050919050565b7f4e487b7100000000000000000000000000000000000000000000000000000000600052604160045260246000fd5b7f4e487b7100000000000000000000000000000000000000000000000000000000600052602260045260246000fd5b60006002820490506001821680620001bf57607f821691505b602082108103620001d557620001d462000177565b5b50919050565b60008190508160005260206000209050919050565b60006020601f8301049050919050565b600082821b905092915050565b6000600883026200023f7fffffffffffffffffffffffffffffffffffffffffffffffffffffffffffffffff8262000200565b6200024b868362000200565b95508019841693508086168417925050509392505050565b6000819050919050565b6000819050919050565b600062000298620002926200028c8462000263565b6200026d565b62000263565b9050919050565b6000819050919050565b620002b48362000277565b620002cc620002c3826200029f565b8484546200020d565b825550505050565b600090565b620002e3620002d4565b620002f0818484620002a9565b505050565b5b8181101562000318576200030c600082620002d9565b600181019050620002f6565b5050565b601f82111562000367576200033181620001db565b6200033c84620001f0565b810160208510156200034c578190505b620003646200035b85620001f0565b830182620002f5565b50505b505050565b600082821c905092915050565b60006200038c600019846008026200036c565b1980831691505092915050565b6000620003a7838362000379565b9150826002028217905092915050565b620003c2826200013d565b67ffffffffffffffff811115620003de57620003dd62000148565b5b620003ea8254620001a6565b620003f78282856200031c565b600060209050601f8311600181146200042f57600084156200041a578287015190505b62000426858262000399565b86555062000496565b601f1984166200043f86620001db565b60005b82811015620004695784890151825560018201915060208501945060208101905062000442565b8683101562000489578489015162000485601f89168262000379565b8355505b6001600288020188555050505b505050505050565b6135a080620004ae6000396000f3fe608060405234801561001057600080fd5b50600436106100e95760003560e01c8063715018a61161008c578063a22cb46511610066578063a22cb46514610286578063e985e9c5146102a2578063f242432a146102d2578063f2fde38b146102ee576100e9565b8063715018a61461022e5780637f42e845146102385780638da5cb5b14610268576100e9565b80630e89341c116100c85780630e89341c146101825780632eb2c2d6146101b257806349287c0b146101ce5780634e1273f4146101fe576100e9565b8062fdd58e146100ee57806301ffc9a71461011e5780630b7914301461014e575b600080fd5b61010860048036038101906101039190611c37565b61030a565b6040516101159190611c86565b60405180910390f35b61013860048036038101906101339190611cf9565b6103d2565b6040516101459190611d41565b60405180910390f35b61016860048036038101906101639190611d5c565b6104b4565b604051610179959493929190611e28565b60405180910390f35b61019c60048036038101906101979190611d5c565b610627565b6040516101a99190611e89565b60405180910390f35b6101cc60048036038101906101c791906120a8565b610665565b005b6101e860048036038101906101e39190611d5c565b610706565b6040516101f59190611d41565b60405180910390f35b6102186004803603810190610213919061223a565b610754565b6040516102259190612370565b60405180910390f35b61023661086d565b005b610252600480360381019061024d9190612433565b610881565b60405161025f9190611c86565b60405180910390f35b610270610a8a565b60405161027d91906124d2565b60405180910390f35b6102a0600480360381019061029b9190612519565b610ab4565b005b6102bc60048036038101906102b79190612559565b610aca565b6040516102c99190611d41565b60405180910390f35b6102ec60048036038101906102e79190612599565b610b5e565b005b61030860048036038101906103039190612630565b610bff565b005b60008073ffffffffffffffffffffffffffffffffffffffff168373ffffffffffffffffffffffffffffffffffffffff160361037a576040517f08c379a0000000000000000000000000000000000000000000000000000000008152600401610371906126cf565b60405180910390fd5b60008083815260200190815260200160002060008473ffffffffffffffffffffffffffffffffffffffff1673ffffffffffffffffffffffffffffffffffffffff16815260200190815260200160002054905092915050565b60007fd9b67a26000000000000000000000000000000000000000000000000000000007bffffffffffffffffffffffffffffffffffffffffffffffffffffffff1916827bffffffffffffffffffffffffffffffffffffffffffffffffffffffff1916148061049d57507f0e89341c000000000000000000000000000000000000000000000000000000007bffffffffffffffffffffffffffffffffffffffffffffffffffffffff1916827bffffffffffffffffffffffffffffffffffffffffffffffffffffffff1916145b806104ad57506104ac82610c82565b5b9050919050565b60056020528060005260406000206000915090508060000180546104d79061271e565b80601f01602080910402602001604051908101604052809291908181526020018280546105039061271e565b80156105505780601f1061052557610100808354040283529160200191610550565b820191906000526020600020905b81548152906001019060200180831161053357829003601f168201915b50505050509080600101549080600201805461056b9061271e565b80601f01602080910402602001604051908101604052809291908181526020018280546105979061271e565b80156105e45780601f106105b9576101008083540402835291602001916105e4565b820191906000526020600020905b8154815290600101906020018083116105c757829003601f168201915b5050505050908060030160009054906101000a900473ffffffffffffffffffffffffffffffffffffffff16908060030160149054906101000a900460ff16905085565b60606005600083815260200190815260200160002060020160405160200161064f919061288a565b6040516020818303038152906040529050919050565b61066d610cec565b73ffffffffffffffffffffffffffffffffffffffff168573ffffffffffffffffffffffffffffffffffffffff1614806106b357506106b2856106ad610cec565b610aca565b5b6106f2576040517f08c379a00000000000000000000000000000000000000000000000000000000081526004016106e990612929565b60405180910390fd5b6106ff8585858585610cf4565b5050505050565b60006005600083815260200190815260200160002060030160149054906101000a900460ff16801561074d5750426005600084815260200190815260200160002060010154115b9050919050565b6060815183511461079a576040517f08c379a0000000000000000000000000000000000000000000000000000000008152600401610791906129bb565b60405180910390fd5b6000835167ffffffffffffffff8111156107b7576107b6611eb0565b5b6040519080825280602002602001820160405280156107e55781602001602082028036833780820191505090505b50905060005b84518110156108625761083285828151811061080a576108096129db565b5b6020026020010151858381518110610825576108246129db565b5b602002602001015161030a565b828281518110610845576108446129db565b5b6020026020010181815250508061085b90612a39565b90506107eb565b508091505092915050565b610875611015565b61087f6000611093565b565b60004284116108c5576040517f08c379a00000000000000000000000000000000000000000000000000000000081526004016108bc90612acd565b60405180910390fd5b6000835111610909576040517f08c379a000000000000000000000000000000000000000000000000000000000815260040161090090612b39565b60405180910390fd5b6109136004611159565b600061091f600461116f565b90506040518060a001604052808781526020018681526020018581526020013373ffffffffffffffffffffffffffffffffffffffff168152602001600115158152506005600083815260200190815260200160002060008201518160000190816109899190612cf0565b506020820151816001015560408201518160020190816109a99190612cf0565b5060608201518160030160006101000a81548173ffffffffffffffffffffffffffffffffffffffff021916908373ffffffffffffffffffffffffffffffffffffffff16021790555060808201518160030160146101000a81548160ff021916908315150217905550905050610a2f3382856040518060200160405280600081525061117d565b3373ffffffffffffffffffffffffffffffffffffffff16817ffc695dea2478fb938a11068aeedddd7046a5fe655f136e30a325d353fe187a4586604051610a769190611e89565b60405180910390a380915050949350505050565b6000600360009054906101000a900473ffffffffffffffffffffffffffffffffffffffff16905090565b610ac6610abf610cec565b838361132d565b5050565b6000600160008473ffffffffffffffffffffffffffffffffffffffff1673ffffffffffffffffffffffffffffffffffffffff16815260200190815260200160002060008373ffffffffffffffffffffffffffffffffffffffff1673ffffffffffffffffffffffffffffffffffffffff16815260200190815260200160002060009054906101000a900460ff16905092915050565b610b66610cec565b73ffffffffffffffffffffffffffffffffffffffff168573ffffffffffffffffffffffffffffffffffffffff161480610bac5750610bab85610ba6610cec565b610aca565b5b610beb576040517f08c379a0000000000000000000000000000000000000000000000000000000008152600401610be290612929565b60405180910390fd5b610bf88585858585611499565b5050505050565b610c07611015565b600073ffffffffffffffffffffffffffffffffffffffff168173ffffffffffffffffffffffffffffffffffffffff1603610c76576040517f08c379a0000000000000000000000000000000000000000000000000000000008152600401610c6d90612e34565b60405180910390fd5b610c7f81611093565b50565b60007f01ffc9a7000000000000000000000000000000000000000000000000000000007bffffffffffffffffffffffffffffffffffffffffffffffffffffffff1916827bffffffffffffffffffffffffffffffffffffffffffffffffffffffff1916149050919050565b600033905090565b8151835114610d38576040517f08c379a0000000000000000000000000000000000000000000000000000000008152600401610d2f90612ec6565b60405180910390fd5b600073ffffffffffffffffffffffffffffffffffffffff168473ffffffffffffffffffffffffffffffffffffffff1603610da7576040517f08c379a0000000000000000000000000000000000000000000000000000000008152600401610d9e90612f58565b60405180910390fd5b6000610db1610cec565b9050610dc1818787878787611734565b60005b8451811015610f72576000858281518110610de257610de16129db565b5b602002602001015190506000858381518110610e0157610e006129db565b5b60200260200101519050600080600084815260200190815260200160002060008b73ffffffffffffffffffffffffffffffffffffffff1673ffffffffffffffffffffffffffffffffffffffff16815260200190815260200160002054905081811015610ea2576040517f08c379a0000000000000000000000000000000000000000000000000000000008152600401610e9990612fea565b60405180910390fd5b81810360008085815260200190815260200160002060008c73ffffffffffffffffffffffffffffffffffffffff1673ffffffffffffffffffffffffffffffffffffffff168152602001908152602001600020819055508160008085815260200190815260200160002060008b73ffffffffffffffffffffffffffffffffffffffff1673ffffffffffffffffffffffffffffffffffffffff1681526020019081526020016000206000828254610f57919061300a565b9250508190555050505080610f6b90612a39565b9050610dc4565b508473ffffffffffffffffffffffffffffffffffffffff168673ffffffffffffffffffffffffffffffffffffffff168273ffffffffffffffffffffffffffffffffffffffff167f4a39dc06d4c0dbc64b70af90fd698a233a518aa5d07e595d983b8c0526c8f7fb8787604051610fe992919061303e565b60405180910390a4610fff81878787878761173c565b61100d818787878787611744565b505050505050565b61101d610cec565b73ffffffffffffffffffffffffffffffffffffffff1661103b610a8a565b73ffffffffffffffffffffffffffffffffffffffff1614611091576040517f08c379a0000000000000000000000000000000000000000000000000000000008152600401611088906130c1565b60405180910390fd5b565b6000600360009054906101000a900473ffffffffffffffffffffffffffffffffffffffff16905081600360006101000a81548173ffffffffffffffffffffffffffffffffffffffff021916908373ffffffffffffffffffffffffffffffffffffffff1602179055508173ffffffffffffffffffffffffffffffffffffffff168173ffffffffffffffffffffffffffffffffffffffff167f8be0079c531659141344cd1fd0a4f28419497f9722a3daafe3b4186f6b6457e060405160405180910390a35050565b6001816000016000828254019250508190555050565b600081600001549050919050565b600073ffffffffffffffffffffffffffffffffffffffff168473ffffffffffffffffffffffffffffffffffffffff16036111ec576040517f08c379a00000000000000000000000000000000000000000000000000000000081526004016111e390613153565b60405180910390fd5b60006111f6610cec565b905060006112038561191b565b905060006112108561191b565b905061122183600089858589611734565b8460008088815260200190815260200160002060008973ffffffffffffffffffffffffffffffffffffffff1673ffffffffffffffffffffffffffffffffffffffff1681526020019081526020016000206000828254611280919061300a565b925050819055508673ffffffffffffffffffffffffffffffffffffffff16600073ffffffffffffffffffffffffffffffffffffffff168473ffffffffffffffffffffffffffffffffffffffff167fc3d58168c5ae7397731d063d5bbf3d657854427343f4c083240f7aacaa2d0f6289896040516112fe929190613173565b60405180910390a46113158360008985858961173c565b61132483600089898989611995565b50505050505050565b8173ffffffffffffffffffffffffffffffffffffffff168373ffffffffffffffffffffffffffffffffffffffff160361139b576040517f08c379a00000000000000000000000000000000000000000000000000000000081526004016113929061320e565b60405180910390fd5b80600160008573ffffffffffffffffffffffffffffffffffffffff1673ffffffffffffffffffffffffffffffffffffffff16815260200190815260200160002060008473ffffffffffffffffffffffffffffffffffffffff1673ffffffffffffffffffffffffffffffffffffffff16815260200190815260200160002060006101000a81548160ff0219169083151502179055508173ffffffffffffffffffffffffffffffffffffffff168373ffffffffffffffffffffffffffffffffffffffff167f17307eab39ab6107e8899845ad3d59bd9653f200f220920489ca2b5937696c318360405161148c9190611d41565b60405180910390a3505050565b600073ffffffffffffffffffffffffffffffffffffffff168473ffffffffffffffffffffffffffffffffffffffff1603611508576040517f08c379a00000000000000000000000000000000000000000000000000000000081526004016114ff90612f58565b60405180910390fd5b6000611512610cec565b9050600061151f8561191b565b9050600061152c8561191b565b905061153c838989858589611734565b600080600088815260200190815260200160002060008a73ffffffffffffffffffffffffffffffffffffffff1673ffffffffffffffffffffffffffffffffffffffff168152602001908152602001600020549050858110156115d3576040517f08c379a00000000000000000000000000000000000000000000000000000000081526004016115ca90612fea565b60405180910390fd5b85810360008089815260200190815260200160002060008b73ffffffffffffffffffffffffffffffffffffffff1673ffffffffffffffffffffffffffffffffffffffff168152602001908152602001600020819055508560008089815260200190815260200160002060008a73ffffffffffffffffffffffffffffffffffffffff1673ffffffffffffffffffffffffffffffffffffffff1681526020019081526020016000206000828254611688919061300a565b925050819055508773ffffffffffffffffffffffffffffffffffffffff168973ffffffffffffffffffffffffffffffffffffffff168573ffffffffffffffffffffffffffffffffffffffff167fc3d58168c5ae7397731d063d5bbf3d657854427343f4c083240f7aacaa2d0f628a8a604051611705929190613173565b60405180910390a461171b848a8a86868a61173c565b611729848a8a8a8a8a611995565b505050505050505050565b505050505050565b505050505050565b6117638473ffffffffffffffffffffffffffffffffffffffff16611b6c565b15611913578373ffffffffffffffffffffffffffffffffffffffff1663bc197c8187878686866040518663ffffffff1660e01b81526004016117a9959493929190613283565b6020604051808303816000875af19250505080156117e557506040513d601f19601f820116820180604052508101906117e29190613300565b60015b61188a576117f161333a565b806308c379a00361184d575061180561335c565b80611810575061184f565b806040517f08c379a00000000000000000000000000000000000000000000000000000000081526004016118449190611e89565b60405180910390fd5b505b6040517f08c379a00000000000000000000000000000000000000000000000000000000081526004016118819061345e565b60405180910390fd5b63bc197c8160e01b7bffffffffffffffffffffffffffffffffffffffffffffffffffffffff1916817bffffffffffffffffffffffffffffffffffffffffffffffffffffffff191614611911576040517f08c379a0000000000000000000000000000000000000000000000000000000008152600401611908906134f0565b60405180910390fd5b505b505050505050565b60606000600167ffffffffffffffff81111561193a57611939611eb0565b5b6040519080825280602002602001820160405280156119685781602001602082028036833780820191505090505b50905082816000815181106119805761197f6129db565b5b60200260200101818152505080915050919050565b6119b48473ffffffffffffffffffffffffffffffffffffffff16611b6c565b15611b64578373ffffffffffffffffffffffffffffffffffffffff1663f23a6e6187878686866040518663ffffffff1660e01b81526004016119fa959493929190613510565b6020604051808303816000875af1925050508015611a3657506040513d601f19601f82011682018060405250810190611a339190613300565b60015b611adb57611a4261333a565b806308c379a003611a9e5750611a5661335c565b80611a615750611aa0565b806040517f08c379a0000000000000000000000000000000000000000000000000000000008152600401611a959190611e89565b60405180910390fd5b505b6040517f08c379a0000000000000000000000000000000000000000000000000000000008152600401611ad29061345e565b60405180910390fd5b63f23a6e6160e01b7bffffffffffffffffffffffffffffffffffffffffffffffffffffffff1916817bffffffffffffffffffffffffffffffffffffffffffffffffffffffff191614611b62576040517f08c379a0000000000000000000000000000000000000000000000000000000008152600401611b59906134f0565b60405180910390fd5b505b505050505050565b6000808273ffffffffffffffffffffffffffffffffffffffff163b119050919050565b6000604051905090565b600080fd5b600080fd5b600073ffffffffffffffffffffffffffffffffffffffff82169050919050565b6000611bce82611ba3565b9050919050565b611bde81611bc3565b8114611be957600080fd5b50565b600081359050611bfb81611bd5565b92915050565b6000819050919050565b611c1481611c01565b8114611c1f57600080fd5b50565b600081359050611c3181611c0b565b92915050565b60008060408385031215611c4e57611c4d611b99565b5b6000611c5c85828601611bec565b9250506020611c6d85828601611c22565b9150509250929050565b611c8081611c01565b82525050565b6000602082019050611c9b6000830184611c77565b92915050565b60007fffffffff0000000000000000000000000000000000000000000000000000000082169050919050565b611cd681611ca1565b8114611ce157600080fd5b50565b600081359050611cf381611ccd565b92915050565b600060208284031215611d0f57611d0e611b99565b5b6000611d1d84828501611ce4565b91505092915050565b60008115159050919050565b611d3b81611d26565b82525050565b6000602082019050611d566000830184611d32565b92915050565b600060208284031215611d7257611d71611b99565b5b6000611d8084828501611c22565b91505092915050565b600081519050919050565b600082825260208201905092915050565b60005b83811015611dc3578082015181840152602081019050611da8565b60008484015250505050565b6000601f19601f8301169050919050565b6000611deb82611d89565b611df58185611d94565b9350611e05818560208601611da5565b611e0e81611dcf565b840191505092915050565b611e2281611bc3565b82525050565b600060a0820190508181036000830152611e428188611de0565b9050611e516020830187611c77565b8181036040830152611e638186611de0565b9050611e726060830185611e19565b611e7f6080830184611d32565b9695505050505050565b60006020820190508181036000830152611ea38184611de0565b905092915050565b600080fd5b7f4e487b7100000000000000000000000000000000000000000000000000000000600052604160045260246000fd5b611ee882611dcf565b810181811067ffffffffffffffff82111715611f0757611f06611eb0565b5b80604052505050565b6000611f1a611b8f565b9050611f268282611edf565b919050565b600067ffffffffffffffff821115611f4657611f45611eb0565b5b602082029050602081019050919050565b600080fd5b6000611f6f611f6a84611f2b565b611f10565b90508083825260208201905060208402830185811115611f9257611f91611f57565b5b835b81811015611fbb5780611fa78882611c22565b845260208401935050602081019050611f94565b5050509392505050565b600082601f830112611fda57611fd9611eab565b5b8135611fea848260208601611f5c565b91505092915050565b600080fd5b600067ffffffffffffffff82111561201357612012611eb0565b5b61201c82611dcf565b9050602081019050919050565b82818337600083830152505050565b600061204b61204684611ff8565b611f10565b90508281526020810184848401111561206757612066611ff3565b5b612072848285612029565b509392505050565b600082601f83011261208f5761208e611eab565b5b813561209f848260208601612038565b91505092915050565b600080600080600060a086880312156120c4576120c3611b99565b5b60006120d288828901611bec565b95505060206120e388828901611bec565b945050604086013567ffffffffffffffff81111561210457612103611b9e565b5b61211088828901611fc5565b935050606086013567ffffffffffffffff81111561213157612130611b9e565b5b61213d88828901611fc5565b925050608086013567ffffffffffffffff81111561215e5761215d611b9e565b5b61216a8882890161207a565b9150509295509295909350565b600067ffffffffffffffff82111561219257612191611eb0565b5b602082029050602081019050919050565b60006121b66121b184612177565b611f10565b905080838252602082019050602084028301858111156121d9576121d8611f57565b5b835b8181101561220257806121ee8882611bec565b8452602084019350506020810190506121db565b5050509392505050565b600082601f83011261222157612220611eab565b5b81356122318482602086016121a3565b91505092915050565b6000806040838503121561225157612250611b99565b5b600083013567ffffffffffffffff81111561226f5761226e611b9e565b5b61227b8582860161220c565b925050602083013567ffffffffffffffff81111561229c5761229b611b9e565b5b6122a885828601611fc5565b9150509250929050565b600081519050919050565b600082825260208201905092915050565b6000819050602082019050919050565b6122e781611c01565b82525050565b60006122f983836122de565b60208301905092915050565b6000602082019050919050565b600061231d826122b2565b61232781856122bd565b9350612332836122ce565b8060005b8381101561236357815161234a88826122ed565b975061235583612305565b925050600181019050612336565b5085935050505092915050565b6000602082019050818103600083015261238a8184612312565b905092915050565b600067ffffffffffffffff8211156123ad576123ac611eb0565b5b6123b682611dcf565b9050602081019050919050565b60006123d66123d184612392565b611f10565b9050828152602081018484840111156123f2576123f1611ff3565b5b6123fd848285612029565b509392505050565b600082601f83011261241a57612419611eab565b5b813561242a8482602086016123c3565b91505092915050565b6000806000806080858703121561244d5761244c611b99565b5b600085013567ffffffffffffffff81111561246b5761246a611b9e565b5b61247787828801612405565b945050602061248887828801611c22565b935050604085013567ffffffffffffffff8111156124a9576124a8611b9e565b5b6124b587828801612405565b92505060606124c687828801611c22565b91505092959194509250565b60006020820190506124e76000830184611e19565b92915050565b6124f681611d26565b811461250157600080fd5b50565b600081359050612513816124ed565b92915050565b600080604083850312156125305761252f611b99565b5b600061253e85828601611bec565b925050602061254f85828601612504565b9150509250929050565b600080604083850312156125705761256f611b99565b5b600061257e85828601611bec565b925050602061258f85828601611bec565b9150509250929050565b600080600080600060a086880312156125b5576125b4611b99565b5b60006125c388828901611bec565b95505060206125d488828901611bec565b94505060406125e588828901611c22565b93505060606125f688828901611c22565b925050608086013567ffffffffffffffff81111561261757612616611b9e565b5b6126238882890161207a565b9150509295509295909350565b60006020828403121561264657612645611b99565b5b600061265484828501611bec565b91505092915050565b7f455243313135353a2061646472657373207a65726f206973206e6f742061207660008201527f616c6964206f776e657200000000000000000000000000000000000000000000602082015250565b60006126b9602a83611d94565b91506126c48261265d565b604082019050919050565b600060208201905081810360008301526126e8816126ac565b9050919050565b7f4e487b7100000000000000000000000000000000000000000000000000000000600052602260045260246000fd5b6000600282049050600182168061273657607f821691505b602082108103612749576127486126ef565b5b50919050565b600081905092915050565b7f697066733a2f2f00000000000000000000000000000000000000000000000000600082015250565b600061279060078361274f565b915061279b8261275a565b600782019050919050565b60008190508160005260206000209050919050565b600081546127c88161271e565b6127d2818661274f565b945060018216600081146127ed576001811461280257612835565b60ff1983168652811515820286019350612835565b61280b856127a6565b60005b8381101561282d5781548189015260018201915060208101905061280e565b838801955050505b50505092915050565b7f2f6d657461646174612e6a736f6e000000000000000000000000000000000000600082015250565b6000612874600e8361274f565b915061287f8261283e565b600e82019050919050565b600061289582612783565b91506128a182846127bb565b91506128ac82612867565b915081905092915050565b7f455243313135353a2063616c6c6572206973206e6f7420746f6b656e206f776e60008201527f6572206f7220617070726f766564000000000000000000000000000000000000602082015250565b6000612913602e83611d94565b915061291e826128b7565b604082019050919050565b6000602082019050818103600083015261294281612906565b9050919050565b7f455243313135353a206163636f756e747320616e6420696473206c656e67746860008201527f206d69736d617463680000000000000000000000000000000000000000000000602082015250565b60006129a5602983611d94565b91506129b082612949565b604082019050919050565b600060208201905081810360008301526129d481612998565b9050919050565b7f4e487b7100000000000000000000000000000000000000000000000000000000600052603260045260246000fd5b7f4e487b7100000000000000000000000000000000000000000000000000000000600052601160045260246000fd5b6000612a4482611c01565b91507fffffffffffffffffffffffffffffffffffffffffffffffffffffffffffffffff8203612a7657612a75612a0a565b5b600182019050919050565b7f4576656e742064617465206d75737420626520696e2074686520667574757265600082015250565b6000612ab7602083611d94565b9150612ac282612a81565b602082019050919050565b60006020820190508181036000830152612ae681612aaa565b9050919050565b7f4950465320434944207265717569726564000000000000000000000000000000600082015250565b6000612b23601183611d94565b9150612b2e82612aed565b602082019050919050565b60006020820190508181036000830152612b5281612b16565b9050919050565b60006020601f8301049050919050565b600082821b905092915050565b600060088302612ba67fffffffffffffffffffffffffffffffffffffffffffffffffffffffffffffffff82612b69565b612bb08683612b69565b95508019841693508086168417925050509392505050565b6000819050919050565b6000612bed612be8612be384611c01565b612bc8565b611c01565b9050919050565b6000819050919050565b612c0783612bd2565b612c1b612c1382612bf4565b848454612b76565b825550505050565b600090565b612c30612c23565b612c3b818484612bfe565b505050565b5b81811015612c5f57612c54600082612c28565b600181019050612c41565b5050565b601f821115612ca457612c75816127a6565b612c7e84612b59565b81016020851015612c8d578190505b612ca1612c9985612b59565b830182612c40565b50505b505050565b600082821c905092915050565b6000612cc760001984600802612ca9565b1980831691505092915050565b6000612ce08383612cb6565b9150826002028217905092915050565b612cf982611d89565b67ffffffffffffffff811115612d1257612d11611eb0565b5b612d1c825461271e565b612d27828285612c63565b600060209050601f831160018114612d5a5760008415612d48578287015190505b612d528582612cd4565b865550612dba565b601f198416612d68866127a6565b60005b82811015612d9057848901518255600182019150602085019450602081019050612d6b565b86831015612dad5784890151612da9601f891682612cb6565b8355505b6001600288020188555050505b505050505050565b7f4f776e61626c653a206e6577206f776e657220697320746865207a65726f206160008201527f6464726573730000000000000000000000000000000000000000000000000000602082015250565b6000612e1e602683611d94565b9150612e2982612dc2565b604082019050919050565b60006020820190508181036000830152612e4d81612e11565b9050919050565b7f455243313135353a2069647320616e6420616d6f756e7473206c656e6774682060008201527f6d69736d61746368000000000000000000000000000000000000000000000000602082015250565b6000612eb0602883611d94565b9150612ebb82612e54565b604082019050919050565b60006020820190508181036000830152612edf81612ea3565b9050919050565b7f455243313135353a207472616e7366657220746f20746865207a65726f20616460008201527f6472657373000000000000000000000000000000000000000000000000000000602082015250565b6000612f42602583611d94565b9150612f4d82612ee6565b604082019050919050565b60006020820190508181036000830152612f7181612f35565b9050919050565b7f455243313135353a20696e73756666696369656e742062616c616e636520666f60008201527f72207472616e7366657200000000000000000000000000000000000000000000602082015250565b6000612fd4602a83611d94565b9150612fdf82612f78565b604082019050919050565b6000602082019050818103600083015261300381612fc7565b9050919050565b600061301582611c01565b915061302083611c01565b925082820190508082111561303857613037612a0a565b5b92915050565b600060408201905081810360008301526130588185612312565b9050818103602083015261306c8184612312565b90509392505050565b7f4f776e61626c653a2063616c6c6572206973206e6f7420746865206f776e6572600082015250565b60006130ab602083611d94565b91506130b682613075565b602082019050919050565b600060208201905081810360008301526130da8161309e565b9050919050565b7f455243313135353a206d696e7420746f20746865207a65726f2061646472657360008201527f7300000000000000000000000000000000000000000000000000000000000000602082015250565b600061313d602183611d94565b9150613148826130e1565b604082019050919050565b6000602082019050818103600083015261316c81613130565b9050919050565b60006040820190506131886000830185611c77565b6131956020830184611c77565b9392505050565b7f455243313135353a2073657474696e6720617070726f76616c2073746174757360008201527f20666f722073656c660000000000000000000000000000000000000000000000602082015250565b60006131f8602983611d94565b91506132038261319c565b604082019050919050565b60006020820190508181036000830152613227816131eb565b9050919050565b600081519050919050565b600082825260208201905092915050565b60006132558261322e565b61325f8185613239565b935061326f818560208601611da5565b61327881611dcf565b840191505092915050565b600060a0820190506132986000830188611e19565b6132a56020830187611e19565b81810360408301526132b78186612312565b905081810360608301526132cb8185612312565b905081810360808301526132df818461324a565b90509695505050505050565b6000815190506132fa81611ccd565b92915050565b60006020828403121561331657613315611b99565b5b6000613324848285016132eb565b91505092915050565b60008160e01c9050919050565b600060033d11156133595760046000803e61335660005161332d565b90505b90565b600060443d106133e95761336e611b8f565b60043d036004823e80513d602482011167ffffffffffffffff821117156133965750506133e9565b808201805167ffffffffffffffff8111156133b457505050506133e9565b80602083010160043d0385018111156133d15750505050506133e9565b6133e082602001850186611edf565b82955050505050505b90565b7f455243313135353a207472616e7366657220746f206e6f6e2d4552433131353560008201527f526563656976657220696d706c656d656e746572000000000000000000000000602082015250565b6000613448603483611d94565b9150613453826133ec565b604082019050919050565b600060208201905081810360008301526134778161343b565b9050919050565b7f455243313135353a204552433131353552656365697665722072656a6563746560008201527f6420746f6b656e73000000000000000000000000000000000000000000000000602082015250565b60006134da602883611d94565b91506134e58261347e565b604082019050919050565b60006020820190508181036000830152613509816134cd565b9050919050565b600060a0820190506135256000830188611e19565b6135326020830187611e19565b61353f6040830186611c77565b61354c6060830185611c77565b818103608083015261355e818461324a565b9050969550505050505056fea26469706673582212200ee9c288d1ae98f4e066d863e26ae0014ca95b51d72dee6605bafc5f1df9301164736f6c63430008140033",
  "linkReferences": {},
  "deployedLinkReferences": {}
}