{
  "_format": "hh-sol-artifact-1",
  "contractName": "EventFactory",
  "sourceName": "contracts/EventFactory.sol",
  "abi": [
    {
      "inputs": [],
      "stateMutability": "nonpayable",
      "type": "constructor"
    },
    {
      "anonymous": false,
      "inputs": [
        {
          "indexed": true,
          "internalType": "address",
          "name": "account",
          "type": "address"
        },
        {
          "indexed": true,
          "internalType": "address",
          "name": "operator",
          "type": "address"
        },
        {
          "indexed": false,
          "internalType": "bool",
          "name": "approved",
          "type": "bool"
        }
      ],
      "name": "ApprovalForAll",
      "type": "event"
    },
    {
      "anonymous": false,
      "inputs": [
        {
          "indexed": false,
          "internalType": "uint256",
          "name": "nowTime",
          "type": "uint256"
        },
        {
          "indexed": false,
          "internalType": "uint256",
          "name": "inputDate",
          "type": "uint256"
        }
      ],
      "name": "DebugTimestamps",
      "type": "event"
    },
    {
      "anonymous": false,
      "inputs": [
        {
          "indexed": true,
          "internalType": "uint256",
          "name": "eventId",
          "type": "uint256"
        },
        {
          "indexed": true,
          "internalType": "address",
          "name": "owner",
          "type": "address"
        },
        {
          "indexed": false,
          "internalType": "string",
          "name": "ipfsCID",
          "type": "string"
        },
        {
          "indexed": false,
          "internalType": "string",
          "name": "imageCID",
          "type": "string"
        }
      ],
      "name": "EventCreated",
      "type": "event"
    },
    {
      "anonymous": false,
      "inputs": [
        {
          "indexed": true,
          "internalType": "address",
          "name": "previousOwner",
          "type": "address"
        },
        {
          "indexed": true,
          "internalType": "address",
          "name": "newOwner",
          "type": "address"
        }
      ],
      "name": "OwnershipTransferred",
      "type": "event"
    },
    {
      "anonymous": false,
      "inputs": [
        {
          "indexed": true,
          "internalType": "uint256",
          "name": "eventId",
          "type": "uint256"
        },
        {
          "indexed": true,
          "internalType": "address",
          "name": "buyer",
          "type": "address"
        },
        {
          "indexed": false,
          "internalType": "uint256",
          "name": "amount",
          "type": "uint256"
        }
      ],
      "name": "TicketPurchased",
      "type": "event"
    },
    {
      "anonymous": false,
      "inputs": [
        {
          "indexed": true,
          "internalType": "address",
          "name": "operator",
          "type": "address"
        },
        {
          "indexed": true,
          "internalType": "address",
          "name": "from",
          "type": "address"
        },
        {
          "indexed": true,
          "internalType": "address",
          "name": "to",
          "type": "address"
        },
        {
          "indexed": false,
          "internalType": "uint256[]",
          "name": "ids",
          "type": "uint256[]"
        },
        {
          "indexed": false,
          "internalType": "uint256[]",
          "name": "values",
          "type": "uint256[]"
        }
      ],
      "name": "TransferBatch",
      "type": "event"
    },
    {
      "anonymous": false,
      "inputs": [
        {
          "indexed": true,
          "internalType": "address",
          "name": "operator",
          "type": "address"
        },
        {
          "indexed": true,
          "internalType": "address",
          "name": "from",
          "type": "address"
        },
        {
          "indexed": true,
          "internalType": "address",
          "name": "to",
          "type": "address"
        },
        {
          "indexed": false,
          "internalType": "uint256",
          "name": "id",
          "type": "uint256"
        },
        {
          "indexed": false,
          "internalType": "uint256",
          "name": "value",
          "type": "uint256"
        }
      ],
      "name": "TransferSingle",
      "type": "event"
    },
    {
      "anonymous": false,
      "inputs": [
        {
          "indexed": false,
          "internalType": "string",
          "name": "value",
          "type": "string"
        },
        {
          "indexed": true,
          "internalType": "uint256",
          "name": "id",
          "type": "uint256"
        }
      ],
      "name": "URI",
      "type": "event"
    },
    {
      "inputs": [
        {
          "internalType": "address",
          "name": "account",
          "type": "address"
        },
        {
          "internalType": "uint256",
          "name": "id",
          "type": "uint256"
        }
      ],
      "name": "balanceOf",
      "outputs": [
        {
          "internalType": "uint256",
          "name": "",
          "type": "uint256"
        }
      ],
      "stateMutability": "view",
      "type": "function"
    },
    {
      "inputs": [
        {
          "internalType": "address[]",
          "name": "accounts",
          "type": "address[]"
        },
        {
          "internalType": "uint256[]",
          "name": "ids",
          "type": "uint256[]"
        }
      ],
      "name": "balanceOfBatch",
      "outputs": [
        {
          "internalType": "uint256[]",
          "name": "",
          "type": "uint256[]"
        }
      ],
      "stateMutability": "view",
      "type": "function"
    },
    {
      "inputs": [
        {
          "internalType": "address",
          "name": "from",
          "type": "address"
        },
        {
          "internalType": "uint256",
          "name": "eventId",
          "type": "uint256"
        },
        {
          "internalType": "uint256",
          "name": "amount",
          "type": "uint256"
        }
      ],
      "name": "burn",
      "outputs": [],
      "stateMutability": "nonpayable",
      "type": "function"
    },
    {
      "inputs": [
        {
          "internalType": "string",
          "name": "name",
          "type": "string"
        },
        {
          "internalType": "uint256",
          "name": "date",
          "type": "uint256"
        },
        {
          "internalType": "string",
          "name": "ipfsCID",
          "type": "string"
        },
        {
          "internalType": "string",
          "name": "imageCID",
          "type": "string"
        },
        {
          "internalType": "uint256",
          "name": "maxTickets",
          "type": "uint256"
        },
        {
          "internalType": "uint256",
          "name": "pricePerTicket",
          "type": "uint256"
        }
      ],
      "name": "createEvent",
      "outputs": [
        {
          "internalType": "uint256",
          "name": "",
          "type": "uint256"
        }
      ],
      "stateMutability": "nonpayable",
      "type": "function"
    },
    {
      "inputs": [
        {
          "internalType": "uint256",
          "name": "eventId",
          "type": "uint256"
        }
      ],
      "name": "deactivateEvent",
      "outputs": [],
      "stateMutability": "nonpayable",
      "type": "function"
    },
    {
      "inputs": [
        {
          "internalType": "uint256",
          "name": "",
          "type": "uint256"
        }
      ],
      "name": "events",
      "outputs": [
        {
          "internalType": "string",
          "name": "name",
          "type": "string"
        },
        {
          "internalType": "uint256",
          "name": "date",
          "type": "uint256"
        },
        {
          "internalType": "string",
          "name": "ipfsCID",
          "type": "string"
        },
        {
          "internalType": "string",
          "name": "imageCID",
          "type": "string"
        },
        {
          "internalType": "address",
          "name": "owner",
          "type": "address"
        },
        {
          "internalType": "bool",
          "name": "active",
          "type": "bool"
        },
        {
          "internalType": "uint256",
          "name": "pricePerTicket",
          "type": "uint256"
        }
      ],
      "stateMutability": "view",
      "type": "function"
    },
    {
      "inputs": [
        {
          "internalType": "uint256",
          "name": "eventId",
          "type": "uint256"
        }
      ],
      "name": "getEventDetails",
      "outputs": [
        {
          "internalType": "string",
          "name": "name",
          "type": "string"
        },
        {
          "internalType": "uint256",
          "name": "date",
          "type": "uint256"
        },
        {
          "internalType": "string",
          "name": "ipfsCID",
          "type": "string"
        },
        {
          "internalType": "string",
          "name": "imageCID",
          "type": "string"
        },
        {
          "internalType": "address",
          "name": "owner",
          "type": "address"
        },
        {
          "internalType": "bool",
          "name": "active",
          "type": "bool"
        },
        {
          "internalType": "uint256",
          "name": "pricePerTicket",
          "type": "uint256"
        },
        {
          "internalType": "uint256",
          "name": "ticketsRemaining",
          "type": "uint256"
        }
      ],
      "stateMutability": "view",
      "type": "function"
    },
    {
      "inputs": [
        {
          "internalType": "address",
          "name": "account",
          "type": "address"
        },
        {
          "internalType": "address",
          "name": "operator",
          "type": "address"
        }
      ],
      "name": "isApprovedForAll",
      "outputs": [
        {
          "internalType": "bool",
          "name": "",
          "type": "bool"
        }
      ],
      "stateMutability": "view",
      "type": "function"
    },
    {
      "inputs": [
        {
          "internalType": "uint256",
          "name": "eventId",
          "type": "uint256"
        }
      ],
      "name": "isValidEvent",
      "outputs": [
        {
          "internalType": "bool",
          "name": "",
          "type": "bool"
        }
      ],
      "stateMutability": "view",
      "type": "function"
    },
    {
      "inputs": [],
      "name": "owner",
      "outputs": [
        {
          "internalType": "address",
          "name": "",
          "type": "address"
        }
      ],
      "stateMutability": "view",
      "type": "function"
    },
    {
      "inputs": [
        {
          "internalType": "uint256",
          "name": "eventId",
          "type": "uint256"
        },
        {
          "internalType": "uint256",
          "name": "amount",
          "type": "uint256"
        }
      ],
      "name": "purchaseTicket",
      "outputs": [],
      "stateMutability": "payable",
      "type": "function"
    },
    {
      "inputs": [],
      "name": "renounceOwnership",
      "outputs": [],
      "stateMutability": "nonpayable",
      "type": "function"
    },
    {
      "inputs": [
        {
          "internalType": "address",
          "name": "from",
          "type": "address"
        },
        {
          "internalType": "address",
          "name": "to",
          "type": "address"
        },
        {
          "internalType": "uint256[]",
          "name": "ids",
          "type": "uint256[]"
        },
        {
          "internalType": "uint256[]",
          "name": "amounts",
          "type": "uint256[]"
        },
        {
          "internalType": "bytes",
          "name": "data",
          "type": "bytes"
        }
      ],
      "name": "safeBatchTransferFrom",
      "outputs": [],
      "stateMutability": "nonpayable",
      "type": "function"
    },
    {
      "inputs": [
        {
          "internalType": "address",
          "name": "from",
          "type": "address"
        },
        {
          "internalType": "address",
          "name": "to",
          "type": "address"
        },
        {
          "internalType": "uint256",
          "name": "id",
          "type": "uint256"
        },
        {
          "internalType": "uint256",
          "name": "amount",
          "type": "uint256"
        },
        {
          "internalType": "bytes",
          "name": "data",
          "type": "bytes"
        }
      ],
      "name": "safeTransferFrom",
      "outputs": [],
      "stateMutability": "nonpayable",
      "type": "function"
    },
    {
      "inputs": [
        {
          "internalType": "address",
          "name": "operator",
          "type": "address"
        },
        {
          "internalType": "bool",
          "name": "approved",
          "type": "bool"
        }
      ],
      "name": "setApprovalForAll",
      "outputs": [],
      "stateMutability": "nonpayable",
      "type": "function"
    },
    {
      "inputs": [
        {
          "internalType": "address",
          "name": "_ticketNFT",
          "type": "address"
        }
      ],
      "name": "setTicketNFTContract",
      "outputs": [],
      "stateMutability": "nonpayable",
      "type": "function"
    },
    {
      "inputs": [
        {
          "internalType": "bytes4",
          "name": "interfaceId",
          "type": "bytes4"
        }
      ],
      "name": "supportsInterface",
      "outputs": [
        {
          "internalType": "bool",
          "name": "",
          "type": "bool"
        }
      ],
      "stateMutability": "view",
      "type": "function"
    },
    {
      "inputs": [
        {
          "internalType": "address",
          "name": "user",
          "type": "address"
        },
        {
          "internalType": "uint256",
          "name": "eventId",
          "type": "uint256"
        }
      ],
      "name": "ticketBalanceOf",
      "outputs": [
        {
          "internalType": "uint256",
          "name": "",
          "type": "uint256"
        }
      ],
      "stateMutability": "view",
      "type": "function"
    },
    {
      "inputs": [],
      "name": "ticketNFTContract",
      "outputs": [
        {
          "internalType": "address",
          "name": "",
          "type": "address"
        }
      ],
      "stateMutability": "view",
      "type": "function"
    },
    {
      "inputs": [
        {
          "internalType": "address",
          "name": "newOwner",
          "type": "address"
        }
      ],
      "name": "transferOwnership",
      "outputs": [],
      "stateMutability": "nonpayable",
      "type": "function"
    },
    {
      "inputs": [
        {
          "internalType": "uint256",
          "name": "eventId",
          "type": "uint256"
        }
      ],
      "name": "uri",
      "outputs": [
        {
          "internalType": "string",
          "name": "",
          "type": "string"
        }
      ],
      "stateMutability": "view",
      "type": "function"
    }
  ],
  "bytecode": "0x6080346200014b5760408101906001600160401b038211818310176200013557602091604052600781520166697066733a2f2f60c81b8152600254906001918281811c911680156200012a575b60208210146200011457601f8111620000c8575b81516001600160c81b031916600e17600255600380546001600160a01b031981163390811790925560405191906001600160a01b03167f8be0079c531659141344cd1fd0a4f28419497f9722a3daafe3b4186f6b6457e0600080a36122b39081620001518239f35b6002600052601f0160051c7f405787fa12a823e0f2b7631cc41b3ba8828b3321ca811111fa75cd3aa3bb5ace908101905b81811062000108575062000060565b600081558301620000f9565b634e487b7160e01b600052602260045260246000fd5b90607f16906200004c565b634e487b7160e01b600052604160045260246000fd5b600080fdfe6080604052600436101561001257600080fd5b60003560e01c8062fdd58e146111ee57806301ffc9a71461192a5780630b791430146118725780630e89341c146117625780632eb2c2d61461149257806330c7b45f1461146957806349287c0b1461141b5780634e1273f414611279578063715018a61461121c5780638da5cb5b146111f35780638f118fe3146111ee578063957a632e146111555780639cb3c70614611112578063a22cb46514611085578063acb98bf51461078c578063bdbbb0cb14610506578063e985e9c5146104b0578063ec38d5a0146103e4578063f242432a14610391578063f2fde38b146102c85763f5298aca1461010257600080fd5b346102c35760603660031901126102c35761011b611997565b60055460443591602435916001600160a01b0391908216330361027e571690811561022d5761014981612218565b5061015383612218565b50600060405161016281611a2c565b52806000526020926000845260406000208360005284526040600020548181106101dc5793816000958487528683526040872086885283520360408620556040519283528201527fc3d58168c5ae7397731d063d5bbf3d657854427343f4c083240f7aacaa2d0f6260403392a46101da604051611a2c565b005b60405162461bcd60e51b8152600481018690526024808201527f455243313135353a206275726e20616d6f756e7420657863656564732062616c604482015263616e636560e01b6064820152608490fd5b60405162461bcd60e51b815260206004820152602360248201527f455243313135353a206275726e2066726f6d20746865207a65726f206164647260448201526265737360e81b6064820152608490fd5b60405162461bcd60e51b815260206004820152601760248201527f4f6e6c79205469636b65744e46542063616e206275726e0000000000000000006044820152606490fd5b600080fd5b346102c35760203660031901126102c3576102e1611997565b6102e9611c59565b6001600160a01b0390811690811561033d57600354826bffffffffffffffffffffffff60a01b821617600355167f8be0079c531659141344cd1fd0a4f28419497f9722a3daafe3b4186f6b6457e0600080a3005b60405162461bcd60e51b815260206004820152602660248201527f4f776e61626c653a206e6577206f776e657220697320746865207a65726f206160448201526564647265737360d01b6064820152608490fd5b346102c35760a03660031901126102c3576103aa611997565b6103b26119ad565b90608435916001600160401b0383116102c3576103d66101da933690600401611bde565b916064359160443591611de8565b346102c35760203660031901126102c35761047060043580600052600660205260406000209060018201549160048101549160ff60018060a01b0384169361049161043460058601549487611cb1565b9461048361044182611a68565b9861045a600361045360028601611a68565b9401611a68565b926040519b8c9b8c6101008091528d0190611b0e565b9160208c01528a820360408c0152611b0e565b9088820360608a0152611b0e565b94608087015260a01c16151560a085015260c084015260e08301520390f35b346102c35760403660031901126102c3576104c9611997565b6104d16119ad565b9060018060a01b03809116600052600160205260406000209116600052602052602060ff604060002054166040519015158152f35b60403660031901126102c35760043560249081359181600052602090600682526040600020600481019081549060ff8260a01c161561075557600181015442101561071c57600501549186830292808404881490151715610707578234106106cc576001600160a01b039182168761057e8883611cb1565b1061069357600084819482946105a884958d8d6040519261059e84611a2c565b8884523390611de8565b54165af16105b461224d565b501561065f578034116105f1575b50507fdbaaf4c87ce30816c961a81d110622a3227ede77953d4383d514ff88ab2e0fd3906040519384523393a3005b340334811161064a57600080808093335af161060b61224d565b501561061757806105c2565b90600d6064926040519262461bcd60e51b845260048401528201526c1499599d5b990819985a5b1959609a1b6044820152fd5b50634e487b7160e01b60009081526011600452fd5b60405162461bcd60e51b815260048101849052600d818401526c14185e5bdd5d0819985a5b1959609a1b6044820152606490fd5b60405162461bcd60e51b815260048101879052601281870152714e6f7420656e6f756768207469636b65747360701b6044820152606490fd5b60405162461bcd60e51b81526004810186905260148186015273125b9cdd59999a58da595b9d081c185e5b595b9d60621b6044820152606490fd5b83634e487b7160e01b60005260116004526000fd5b60405162461bcd60e51b81526004810186905260128186015271115d995b9d081a185cc81bd8d8dd5c9c995960721b6044820152606490fd5b60405162461bcd60e51b8152600481018690526010818601526f4576656e74206e6f742061637469766560801b6044820152606490fd5b346102c35760c03660031901126102c3576004356001600160401b0381116102c3576107bc903690600401611bde565b6044356001600160401b0381116102c3576107db903690600401611bde565b906064356001600160401b0381116102c3576107fb903690600401611bde565b7ff6604d94064acaac8d13e1eb73176d55487e2f8abda34ab500ab76d24b0cda44604080514281526024356020820152a142602435106110405782511561100757805115610fcd5760843515610f88576001600454019182600455604051908160e08101106001600160401b0360e084011117610de05760e0820160405281526024356020820152836040820152816060820152336080820152600160a082015260a43560c082015282600052600660205260406000209080518051906001600160401b038211610de05781906108d285546119f2565b601f8111610f38575b50602090601f8311600114610ecc57600092610ec1575b50508160011b916000199060031b1c19161782555b6020810151600183015560408101518051906001600160401b038211610de057819061093660028601546119f2565b601f8111610e6e575b50602090601f8311600114610e0157600092610df6575b50508160011b916000199060031b1c19161760028301555b60608101518051906001600160401b038211610de05761099160038501546119f2565b601f8111610d99575b50602090601f8311600114610d265791806005949260c094600092610d1b575b50508160011b916000199060031b1c19161760038501555b6004840160018060a01b0360808301511681549060ff60a01b60a0850151151560a01b16916affffffffffffffffffffff60a81b16171790550151910155303314610cc4573360005260016020526040600020306000526020526040600020600160ff198254161790556040516001815230907f17307eab39ab6107e8899845ad3d59bd9653f200f220920489ca2b5937696c3160203392a3604051610a7781611a2c565b600081523315610c7557610a8a83612218565b50610a96608435612218565b508260005260006020526040600020336000526020526040600020610abe60843582546120be565b90556040518381526084356020820152600033917fc3d58168c5ae7397731d063d5bbf3d657854427343f4c083240f7aacaa2d0f6260403392a4333b610b58575b50817f74c22f9f773d1d8c02ddaa6deeeaa696cacbfea0be35360f9b2c253b13938f6f610b3f602095610b4d604051928392604084526040840190611b0e565b828103898401523396611b0e565b0390a3604051908152f35b60405160208180610b9a63f23a6e6160e01b9586835233600484015260006024840152886044840152608435606484015260a0608484015260a4830190611b0e565b03816000335af160009181610c44575b50610c1657610bb7612134565b6308c379a014610bdf575b60405162461bcd60e51b815280610bdb600482016121c3565b0390fd5b610be7612152565b80610bf25750610bc2565b60405162461bcd60e51b815260206004820152908190610bdb906024830190611b0e565b6001600160e01b03191603610c2b5781610aff565b60405162461bcd60e51b815280610bdb600482016120eb565b610c6791925060203d602011610c6e575b610c5f8183611a47565b8101906120cb565b9086610baa565b503d610c55565b60405162461bcd60e51b815260206004820152602160248201527f455243313135353a206d696e7420746f20746865207a65726f206164647265736044820152607360f81b6064820152608490fd5b60405162461bcd60e51b815260206004820152602960248201527f455243313135353a2073657474696e6720617070726f76616c20737461747573604482015268103337b91039b2b63360b91b6064820152608490fd5b0151905089806109ba565b90601f198316916003860160005260206000209260005b818110610d81575092600192859260c0966005989610610d68575b505050811b0160038501556109d2565b015160001960f88460031b161c19169055898080610d58565b92936020600181928786015181550195019301610d3d565b600385016000526020600020601f840160051c810160208510610dd9575b601f830160051c82018110610dcd57505061099a565b60008155600101610db7565b5080610db7565b634e487b7160e01b600052604160045260246000fd5b015190508780610956565b600286016000908152602081209350601f198516905b818110610e565750908460019594939210610e3d575b505050811b01600283015561096e565b015160001960f88460031b161c19169055878080610e2d565b92936020600181928786015181550195019301610e17565b909150600285016000526020600020601f840160051c810160208510610eba575b90849392915b601f830160051c82018110610eab57505061093f565b60008155859450600101610e95565b5080610e8f565b0151905087806108f2565b9250846000526020600020906000935b601f1984168510610f1d576001945083601f19811610610f04575b505050811b018255610907565b015160001960f88460031b161c19169055878080610ef7565b81810151835560209485019460019093019290910190610edc565b909150846000526020600020601f840160051c810160208510610f81575b90849392915b601f830160051c82018110610f725750506108db565b60008155859450600101610f5c565b5080610f56565b60405162461bcd60e51b815260206004820152601960248201527f5469636b657420737570706c79206d757374206265203e2030000000000000006044820152606490fd5b60405162461bcd60e51b8152602060048201526012602482015271125b5859d94810d251081c995c5d5a5c995960721b6044820152606490fd5b60405162461bcd60e51b815260206004820152601160248201527012541194c810d251081c995c5d5a5c9959607a1b6044820152606490fd5b60405162461bcd60e51b815260206004820152601960248201527f4576656e742064617465206d757374206265203e3d206e6f77000000000000006044820152606490fd5b346102c35760403660031901126102c35761109e611997565b602435908115158092036102c3576001600160a01b031690338214610cc457336000526001602052604060002082600052602052604060002060ff1981541660ff83161790556040519081527f17307eab39ab6107e8899845ad3d59bd9653f200f220920489ca2b5937696c3160203392a3005b346102c35760203660031901126102c35761112b611997565b611133611c59565b600580546001600160a01b0319166001600160a01b0392909216919091179055005b346102c35760203660031901126102c357600480356000818152600660205260409020909101546001600160a01b031633036111a9576000908152600660205260409020600401805460ff60a01b19169055005b60405162461bcd60e51b815260206004820152601f60248201527f4f6e6c79206576656e74206f776e65722063616e2064656163746976617465006044820152606490fd5b6119c3565b346102c35760003660031901126102c3576003546040516001600160a01b039091168152602090f35b346102c35760003660031901126102c357611235611c59565b600380546001600160a01b031981169091556000906001600160a01b03167f8be0079c531659141344cd1fd0a4f28419497f9722a3daafe3b4186f6b6457e08280a3005b346102c35760403660031901126102c3576004356001600160401b038082116102c357366023830112156102c3578160040135906112b682611b4e565b926112c46040519485611a47565b82845260209260248486019160051b830101913683116102c357602401905b8282106113fc575050506024359081116102c357611305903690600401611b65565b82518151036113a55782519261131a84611b4e565b936113286040519586611a47565b808552611337601f1991611b4e565b01368486013760005b815181101561138a57611385906113756001600160a01b036113628386611d5b565b511661136e8387611d5b565b5190611cb1565b61137f8288611d5b565b52611d36565b611340565b5050506113a1604051928284938452830190611c25565b0390f35b60405162461bcd60e51b815260048101839052602960248201527f455243313135353a206163636f756e747320616e6420696473206c656e677468604482015268040dad2e6dac2e8c6d60bb1b6064820152608490fd5b81356001600160a01b03811681036102c35781529084019084016112e3565b346102c35760203660031901126102c35760043560005260066020526020604060002060ff600482015460a01c16908161145b575b506040519015158152f35b600191500154421082611450565b346102c35760003660031901126102c3576005546040516001600160a01b039091168152602090f35b346102c35760031960a0368201126102c3576114ac611997565b906114b56119ad565b906001600160401b03906044358281116102c3576114d7903690600401611b65565b6064358381116102c3576114ef903690600401611b65565b926084359081116102c357611508903690600401611bde565b6001600160a01b03958616959092903387148015611739575b61152a90611d85565b82518551036116e357851692611541841515612005565b60005b83518110156115da578061155b6115d59286611d5b565b516115668289611d5b565b5190806000526020906000825260406000208c6000528252826040600020546115918282101561205f565b82600052600084528d6040600020906000528452036040600020556000526000815260406000209088600052526115ce60406000209182546120be565b9055611d36565b611544565b509094939291938287604051604081527f4a39dc06d4c0dbc64b70af90fd698a233a518aa5d07e595d983b8c0526c8f7fb611618604083018a611c25565b9180830360208201528061162d33948b611c25565b0390a43b61163757005b60006020946116986116899761167994604051998a988997889663bc197c8160e01b9e8f89523360048a0152602489015260a0604489015260a4880190611c25565b9084878303016064880152611c25565b91848303016084850152611b0e565b03925af1600091816116c3575b506116b257610bb7612134565b6001600160e01b03191603610c2b57005b6116dc91925060203d8111610c6e57610c5f8183611a47565b90836116a5565b60405162461bcd60e51b815260206004820152602860248201527f455243313135353a2069647320616e6420616d6f756e7473206c656e677468206044820152670dad2e6dac2e8c6d60c31b6064820152608490fd5b5086600052600160205260406000203360005260205261152a60ff604060002054169050611521565b346102c3576020806003193601126102c35760043560005260068152600260406000200190604051809266697066733a2f2f60c81b8383015260009080546117a9816119f2565b9160019180831690811561184a5750600114611801575b5050506117ed91816d17b6b2ba30b230ba30973539b7b760911b600e935203601119810185520183611a47565b6113a1604051928284938452830190611b0e565b90919392506000528360002090846000925b85841061183257505050508060276117ed93600e9301019181936117c0565b80548885016027015287945092019185908201611813565b9050600e9450602792506117ed9593915060ff191682840152801515028201019181936117c0565b346102c35760203660031901126102c35760043560005260066020526118e6604060002061189f81611a68565b90600181015460ff6119076118b660028501611a68565b926118f96118c660038701611a68565b916005600488015497015495604051998a9960e08b5260e08b0190611b0e565b9160208a015288820360408a0152611b0e565b908682036060880152611b0e565b9260018060a01b038116608086015260a01c16151560a084015260c08301520390f35b346102c35760203660031901126102c35760043563ffffffff60e01b81168091036102c357602090636cdb3d1360e11b8114908115611986575b811561197557506040519015158152f35b6301ffc9a760e01b14905082611450565b6303a24d0760e21b81149150611964565b600435906001600160a01b03821682036102c357565b602435906001600160a01b03821682036102c357565b346102c35760403660031901126102c35760206119ea6119e1611997565b60243590611cb1565b604051908152f35b90600182811c92168015611a22575b6020831014611a0c57565b634e487b7160e01b600052602260045260246000fd5b91607f1691611a01565b602081019081106001600160401b03821117610de057604052565b90601f801991011681019081106001600160401b03821117610de057604052565b9060405191826000825492611a7c846119f2565b908184526001948581169081600014611aeb5750600114611aa8575b5050611aa692500383611a47565b565b9093915060005260209081600020936000915b818310611ad3575050611aa693508201013880611a98565b85548884018501529485019487945091830191611abb565b915050611aa694506020925060ff191682840152151560051b8201013880611a98565b919082519283825260005b848110611b3a575050826000602080949584010152601f8019910116010190565b602081830181015184830182015201611b19565b6001600160401b038111610de05760051b60200190565b81601f820112156102c357803591611b7c83611b4e565b92611b8a6040519485611a47565b808452602092838086019260051b8201019283116102c3578301905b828210611bb4575050505090565b81358152908301908301611ba6565b6001600160401b038111610de057601f01601f191660200190565b81601f820112156102c357803590611bf582611bc3565b92611c036040519485611a47565b828452602083830101116102c357816000926020809301838601378301015290565b90815180825260208080930193019160005b828110611c45575050505090565b835185529381019392810192600101611c37565b6003546001600160a01b03163303611c6d57565b606460405162461bcd60e51b815260206004820152602060248201527f4f776e61626c653a2063616c6c6572206973206e6f7420746865206f776e65726044820152fd5b6001600160a01b0316908115611cde57600052600060205260406000209060005260205260406000205490565b60405162461bcd60e51b815260206004820152602a60248201527f455243313135353a2061646472657373207a65726f206973206e6f742061207660448201526930b634b21037bbb732b960b11b6064820152608490fd5b6000198114611d455760010190565b634e487b7160e01b600052601160045260246000fd5b8051821015611d6f5760209160051b010190565b634e487b7160e01b600052603260045260246000fd5b15611d8c57565b60405162461bcd60e51b815260206004820152602e60248201527f455243313135353a2063616c6c6572206973206e6f7420746f6b656e206f776e60448201526d195c881bdc88185c1c1c9bdd995960921b6064820152608490fd5b909391926001600160a01b039182169290913384148015611fdc575b611e0d90611d85565b8516611e1a811515612005565b611e2385612218565b50611e2d83612218565b5060009285845260209584875260409788862087875288528289872054611e568282101561205f565b838852878a528a88208989528a5203898720558186528588528886208487528852888620611e858482546120be565b905583878a51848152858b8201527fc3d58168c5ae7397731d063d5bbf3d657854427343f4c083240f7aacaa2d0f628c3392a43b611ec8575b5050505050505050565b91849391611f109588999a98948b519788958694859363f23a6e6160e01b9c8d865233600487015260248601526044850152606484015260a0608484015260a4830190611b0e565b03925af1909181611fbd575b50611f8357505050611f2c612134565b6308c379a014611f4f575b505162461bcd60e51b815280610bdb600482016121c3565b611f57612152565b9081611f635750611f37565b610bdb835192839262461bcd60e51b845260048401526024830190611b0e565b919392506001600160e01b031990911603611fa657503880808080808080611ebe565b5162461bcd60e51b815280610bdb600482016120eb565b611fd5919250853d8711610c6e57610c5f8183611a47565b9038611f1c565b50836000526001602052604060002033600052602052611e0d60ff604060002054169050611e04565b1561200c57565b60405162461bcd60e51b815260206004820152602560248201527f455243313135353a207472616e7366657220746f20746865207a65726f206164604482015264647265737360d81b6064820152608490fd5b1561206657565b60405162461bcd60e51b815260206004820152602a60248201527f455243313135353a20696e73756666696369656e742062616c616e636520666f60448201526939103a3930b739b332b960b11b6064820152608490fd5b91908201809211611d4557565b908160209103126102c357516001600160e01b0319811681036102c35790565b60809060208152602860208201527f455243313135353a204552433131353552656365697665722072656a656374656040820152676420746f6b656e7360c01b60608201520190565b60009060033d1161214157565b905060046000803e60005160e01c90565b600060443d106121af57604051600319913d83016004833e81516001600160401b03918282113d6024840111176121b2578184019485519384116121ba573d850101602084870101116121b257506121af92910160200190611a47565b90565b949350505050565b50949350505050565b60809060208152603460208201527f455243313135353a207472616e7366657220746f206e6f6e2d455243313135356040820152732932b1b2b4bb32b91034b6b83632b6b2b73a32b960611b60608201520190565b60405190604082018281106001600160401b03821117610de05760405260018252602082016020368237825115611d6f575290565b3d15612278573d9061225e82611bc3565b9161226c6040519384611a47565b82523d6000602084013e565b60609056fea26469706673582212207cef49e38e331a1fd1fab5d210f3a7277f48bac27f1742f158dd1d2bbf5ce2c564736f6c63430008140033",
  "linkReferences": {},
  "deployedLinkReferences": {}
}