{
  "_format": "hh-sol-artifact-1",
  "contractName": "CrossChainVerifier",
  "sourceName": "contracts/CrossChainVerifier.sol",
  "abi": [
    {
      "inputs": [],
      "stateMutability": "nonpayable",
      "type": "constructor"
    },
    {
      "anonymous": false,
      "inputs": [
        {
          "indexed": true,
          "internalType": "address",
          "name": "previousOwner",
          "type": "address"
        },
        {
          "indexed": true,
          "internalType": "address",
          "name": "newOwner",
          "type": "address"
        }
      ],
      "name": "OwnershipTransferred",
      "type": "event"
    },
    {
      "anonymous": false,
      "inputs": [
        {
          "indexed": true,
          "internalType": "address",
          "name": "user",
          "type": "address"
        },
        {
          "indexed": true,
          "internalType": "uint256",
          "name": "eventId",
          "type": "uint256"
        },
        {
          "indexed": false,
          "internalType": "uint256",
          "name": "chainId",
          "type": "uint256"
        }
      ],
      "name": "TicketVerified",
      "type": "event"
    },
    {
      "inputs": [
        {
          "internalType": "uint256",
          "name": "",
          "type": "uint256"
        }
      ],
      "name": "chainTicketContracts",
      "outputs": [
        {
          "internalType": "address",
          "name": "",
          "type": "address"
        }
      ],
      "stateMutability": "view",
      "type": "function"
    },
    {
      "inputs": [],
      "name": "owner",
      "outputs": [
        {
          "internalType": "address",
          "name": "",
          "type": "address"
        }
      ],
      "stateMutability": "view",
      "type": "function"
    },
    {
      "inputs": [],
      "name": "renounceOwnership",
      "outputs": [],
      "stateMutability": "nonpayable",
      "type": "function"
    },
    {
      "inputs": [
        {
          "internalType": "uint256",
          "name": "chainId",
          "type": "uint256"
        },
        {
          "internalType": "address",
          "name": "ticketContract",
          "type": "address"
        }
      ],
      "name": "setChainTicketContract",
      "outputs": [],
      "stateMutability": "nonpayable",
      "type": "function"
    },
    {
      "inputs": [
        {
          "internalType": "address",
          "name": "newOwner",
          "type": "address"
        }
      ],
      "name": "transferOwnership",
      "outputs": [],
      "stateMutability": "nonpayable",
      "type": "function"
    },
    {
      "inputs": [
        {
          "internalType": "address",
          "name": "user",
          "type": "address"
        },
        {
          "internalType": "uint256",
          "name": "eventId",
          "type": "uint256"
        },
        {
          "internalType": "uint256",
          "name": "chainId",
          "type": "uint256"
        }
      ],
      "name": "verifyTicket",
      "outputs": [
        {
          "internalType": "bool",
          "name": "",
          "type": "bool"
        }
      ],
      "stateMutability": "view",
      "type": "function"
    }
  ],
  "bytecode": "0x608060405234801561001057600080fd5b5061002d61002261003260201b60201c565b61003a60201b60201c565b6100fe565b600033905090565b60008060009054906101000a900473ffffffffffffffffffffffffffffffffffffffff169050816000806101000a81548173ffffffffffffffffffffffffffffffffffffffff021916908373ffffffffffffffffffffffffffffffffffffffff1602179055508173ffffffffffffffffffffffffffffffffffffffff168173ffffffffffffffffffffffffffffffffffffffff167f8be0079c531659141344cd1fd0a4f28419497f9722a3daafe3b4186f6b6457e060405160405180910390a35050565b6106fa8061010d6000396000f3fe608060405234801561001057600080fd5b50600436106100625760003560e01c806325012d70146100675780635a645f8a14610083578063715018a6146100b35780638da5cb5b146100bd578063aadd06d3146100db578063f2fde38b1461010b575b600080fd5b610081600480360381019061007c9190610468565b610127565b005b61009d600480360381019061009891906104a8565b610185565b6040516100aa91906104e4565b60405180910390f35b6100bb6101b8565b005b6100c56101cc565b6040516100d291906104e4565b60405180910390f35b6100f560048036038101906100f091906104ff565b6101f5565b604051610102919061056d565b60405180910390f35b61012560048036038101906101209190610588565b610202565b005b61012f610285565b806001600084815260200190815260200160002060006101000a81548173ffffffffffffffffffffffffffffffffffffffff021916908373ffffffffffffffffffffffffffffffffffffffff1602179055505050565b60016020528060005260406000206000915054906101000a900473ffffffffffffffffffffffffffffffffffffffff1681565b6101c0610285565b6101ca6000610303565b565b60008060009054906101000a900473ffffffffffffffffffffffffffffffffffffffff16905090565b6000600190509392505050565b61020a610285565b600073ffffffffffffffffffffffffffffffffffffffff168173ffffffffffffffffffffffffffffffffffffffff1603610279576040517f08c379a000000000000000000000000000000000000000000000000000000000815260040161027090610638565b60405180910390fd5b61028281610303565b50565b61028d6103c7565b73ffffffffffffffffffffffffffffffffffffffff166102ab6101cc565b73ffffffffffffffffffffffffffffffffffffffff1614610301576040517f08c379a00000000000000000000000000000000000000000000000000000000081526004016102f8906106a4565b60405180910390fd5b565b60008060009054906101000a900473ffffffffffffffffffffffffffffffffffffffff169050816000806101000a81548173ffffffffffffffffffffffffffffffffffffffff021916908373ffffffffffffffffffffffffffffffffffffffff1602179055508173ffffffffffffffffffffffffffffffffffffffff168173ffffffffffffffffffffffffffffffffffffffff167f8be0079c531659141344cd1fd0a4f28419497f9722a3daafe3b4186f6b6457e060405160405180910390a35050565b600033905090565b600080fd5b6000819050919050565b6103e7816103d4565b81146103f257600080fd5b50565b600081359050610404816103de565b92915050565b600073ffffffffffffffffffffffffffffffffffffffff82169050919050565b60006104358261040a565b9050919050565b6104458161042a565b811461045057600080fd5b50565b6000813590506104628161043c565b92915050565b6000806040838503121561047f5761047e6103cf565b5b600061048d858286016103f5565b925050602061049e85828601610453565b9150509250929050565b6000602082840312156104be576104bd6103cf565b5b60006104cc848285016103f5565b91505092915050565b6104de8161042a565b82525050565b60006020820190506104f960008301846104d5565b92915050565b600080600060608486031215610518576105176103cf565b5b600061052686828701610453565b9350506020610537868287016103f5565b9250506040610548868287016103f5565b9150509250925092565b60008115159050919050565b61056781610552565b82525050565b6000602082019050610582600083018461055e565b92915050565b60006020828403121561059e5761059d6103cf565b5b60006105ac84828501610453565b91505092915050565b600082825260208201905092915050565b7f4f776e61626c653a206e6577206f776e657220697320746865207a65726f206160008201527f6464726573730000000000000000000000000000000000000000000000000000602082015250565b60006106226026836105b5565b915061062d826105c6565b604082019050919050565b6000602082019050818103600083015261065181610615565b9050919050565b7f4f776e61626c653a2063616c6c6572206973206e6f7420746865206f776e6572600082015250565b600061068e6020836105b5565b915061069982610658565b602082019050919050565b600060208201905081810360008301526106bd81610681565b905091905056fea264697066735822122051927621669fdc74855fadaaf82db6af164431c828e82f96e299983badb372bf64736f6c63430008140033",
  "linkReferences": {},
  "deployedLinkReferences": {}
}